{
  "contractName": "Bonding",
  "abi": [
    {
      "anonymous": false,
      "inputs": [
        {
          "indexed": true,
          "internalType": "address",
          "name": "account",
          "type": "address"
        },
        {
          "indexed": false,
          "internalType": "uint256",
          "name": "start",
          "type": "uint256"
        },
        {
          "indexed": false,
          "internalType": "uint256",
          "name": "value",
          "type": "uint256"
        },
        {
          "indexed": false,
          "internalType": "uint256",
          "name": "valueUnderlying",
          "type": "uint256"
        }
      ],
      "name": "Bond",
      "type": "event"
    },
    {
      "anonymous": false,
      "inputs": [
        {
          "indexed": true,
          "internalType": "address",
          "name": "account",
          "type": "address"
        },
        {
          "indexed": false,
          "internalType": "uint256",
          "name": "value",
          "type": "uint256"
        }
      ],
      "name": "Deposit",
      "type": "event"
    },
    {
      "anonymous": false,
      "inputs": [
        {
          "indexed": true,
          "internalType": "address",
          "name": "from",
          "type": "address"
        },
        {
          "indexed": true,
          "internalType": "address",
          "name": "to",
          "type": "address"
        },
        {
          "indexed": false,
          "internalType": "uint256",
          "name": "value",
          "type": "uint256"
        }
      ],
      "name": "Transfer",
      "type": "event"
    },
    {
      "anonymous": false,
      "inputs": [
        {
          "indexed": true,
          "internalType": "address",
          "name": "account",
          "type": "address"
        },
        {
          "indexed": false,
          "internalType": "uint256",
          "name": "start",
          "type": "uint256"
        },
        {
          "indexed": false,
          "internalType": "uint256",
          "name": "value",
          "type": "uint256"
        },
        {
          "indexed": false,
          "internalType": "uint256",
          "name": "valueUnderlying",
          "type": "uint256"
        }
      ],
      "name": "Unbond",
      "type": "event"
    },
    {
      "anonymous": false,
      "inputs": [
        {
          "indexed": true,
          "internalType": "address",
          "name": "account",
          "type": "address"
        },
        {
          "indexed": false,
          "internalType": "uint256",
          "name": "value",
          "type": "uint256"
        }
      ],
      "name": "Withdraw",
      "type": "event"
    },
    {
      "constant": true,
      "inputs": [
        {
          "internalType": "address",
          "name": "owner",
          "type": "address"
        },
        {
          "internalType": "address",
          "name": "spender",
          "type": "address"
        }
      ],
      "name": "allowance",
      "outputs": [
        {
          "internalType": "uint256",
          "name": "",
          "type": "uint256"
        }
      ],
      "payable": false,
      "stateMutability": "view",
      "type": "function"
    },
    {
      "constant": true,
      "inputs": [
        {
          "internalType": "address",
          "name": "owner",
          "type": "address"
        },
        {
          "internalType": "address",
          "name": "spender",
          "type": "address"
        }
      ],
      "name": "allowanceCoupons",
      "outputs": [
        {
          "internalType": "uint256",
          "name": "",
          "type": "uint256"
        }
      ],
      "payable": false,
      "stateMutability": "view",
      "type": "function"
    },
    {
      "constant": false,
      "inputs": [
        {
          "internalType": "address",
          "name": "spender",
          "type": "address"
        },
        {
          "internalType": "uint256",
          "name": "amount",
          "type": "uint256"
        }
      ],
      "name": "approve",
      "outputs": [
        {
          "internalType": "bool",
          "name": "",
          "type": "bool"
        }
      ],
      "payable": false,
      "stateMutability": "nonpayable",
      "type": "function"
    },
    {
      "constant": true,
      "inputs": [
        {
          "internalType": "address",
          "name": "candidate",
          "type": "address"
        }
      ],
      "name": "approveFor",
      "outputs": [
        {
          "internalType": "uint256",
          "name": "",
          "type": "uint256"
        }
      ],
      "payable": false,
      "stateMutability": "view",
      "type": "function"
    },
    {
      "constant": true,
      "inputs": [
        {
          "internalType": "address",
          "name": "account",
          "type": "address"
        }
      ],
      "name": "balanceOf",
      "outputs": [
        {
          "internalType": "uint256",
          "name": "",
          "type": "uint256"
        }
      ],
      "payable": false,
      "stateMutability": "view",
      "type": "function"
    },
    {
      "constant": true,
      "inputs": [
        {
          "internalType": "address",
          "name": "account",
          "type": "address"
        }
      ],
      "name": "balanceOfBonded",
      "outputs": [
        {
          "internalType": "uint256",
          "name": "",
          "type": "uint256"
        }
      ],
      "payable": false,
      "stateMutability": "view",
      "type": "function"
    },
    {
      "constant": true,
      "inputs": [
        {
          "internalType": "address",
          "name": "account",
          "type": "address"
        },
        {
          "internalType": "uint256",
          "name": "epoch",
          "type": "uint256"
        }
      ],
      "name": "balanceOfCouponUnderlying",
      "outputs": [
        {
          "internalType": "uint256",
          "name": "",
          "type": "uint256"
        }
      ],
      "payable": false,
      "stateMutability": "view",
      "type": "function"
    },
    {
      "constant": true,
      "inputs": [
        {
          "internalType": "address",
          "name": "account",
          "type": "address"
        },
        {
          "internalType": "uint256",
          "name": "epoch",
          "type": "uint256"
        }
      ],
      "name": "balanceOfCoupons",
      "outputs": [
        {
          "internalType": "uint256",
          "name": "",
          "type": "uint256"
        }
      ],
      "payable": false,
      "stateMutability": "view",
      "type": "function"
    },
    {
      "constant": true,
      "inputs": [
        {
          "internalType": "address",
          "name": "account",
          "type": "address"
        }
      ],
      "name": "balanceOfStaged",
      "outputs": [
        {
          "internalType": "uint256",
          "name": "",
          "type": "uint256"
        }
      ],
      "payable": false,
      "stateMutability": "view",
      "type": "function"
    },
    {
      "constant": true,
      "inputs": [
        {
          "internalType": "uint256",
          "name": "epoch",
          "type": "uint256"
        }
      ],
      "name": "bootstrappingAt",
      "outputs": [
        {
          "internalType": "bool",
          "name": "",
          "type": "bool"
        }
      ],
      "payable": false,
      "stateMutability": "view",
      "type": "function"
    },
    {
      "constant": true,
      "inputs": [
        {
          "internalType": "uint256",
          "name": "epoch",
          "type": "uint256"
        }
      ],
      "name": "couponsExpiration",
      "outputs": [
        {
          "internalType": "uint256",
          "name": "",
          "type": "uint256"
        }
      ],
      "payable": false,
      "stateMutability": "view",
      "type": "function"
    },
    {
      "constant": true,
      "inputs": [],
      "name": "decimals",
      "outputs": [
        {
          "internalType": "uint8",
          "name": "",
          "type": "uint8"
        }
      ],
      "payable": false,
      "stateMutability": "view",
      "type": "function"
    },
    {
      "constant": true,
      "inputs": [],
      "name": "dollar",
      "outputs": [
        {
          "internalType": "contract IDollar",
          "name": "",
          "type": "address"
        }
      ],
      "payable": false,
      "stateMutability": "view",
      "type": "function"
    },
    {
      "constant": true,
      "inputs": [],
      "name": "epoch",
      "outputs": [
        {
          "internalType": "uint256",
          "name": "",
          "type": "uint256"
        }
      ],
      "payable": false,
      "stateMutability": "view",
      "type": "function"
    },
    {
      "constant": true,
      "inputs": [],
      "name": "epochTime",
      "outputs": [
        {
          "internalType": "uint256",
          "name": "",
          "type": "uint256"
        }
      ],
      "payable": false,
      "stateMutability": "view",
      "type": "function"
    },
    {
      "constant": true,
      "inputs": [],
      "name": "eraStart",
      "outputs": [
        {
          "internalType": "uint256",
          "name": "",
          "type": "uint256"
        }
      ],
      "payable": false,
      "stateMutability": "view",
      "type": "function"
    },
    {
      "constant": true,
      "inputs": [],
      "name": "eraStatus",
      "outputs": [
        {
          "internalType": "enum Era.Status",
          "name": "",
          "type": "uint8"
        }
      ],
      "payable": false,
      "stateMutability": "view",
      "type": "function"
    },
    {
      "constant": true,
      "inputs": [
        {
          "internalType": "uint256",
          "name": "epoch",
          "type": "uint256"
        }
      ],
      "name": "expiringCoupons",
      "outputs": [
        {
          "internalType": "uint256",
          "name": "",
          "type": "uint256"
        }
      ],
      "payable": false,
      "stateMutability": "view",
      "type": "function"
    },
    {
      "constant": true,
      "inputs": [
        {
          "internalType": "uint256",
          "name": "epoch",
          "type": "uint256"
        },
        {
          "internalType": "uint256",
          "name": "i",
          "type": "uint256"
        }
      ],
      "name": "expiringCouponsAtIndex",
      "outputs": [
        {
          "internalType": "uint256",
          "name": "",
          "type": "uint256"
        }
      ],
      "payable": false,
      "stateMutability": "view",
      "type": "function"
    },
    {
      "constant": true,
      "inputs": [
        {
          "internalType": "address",
          "name": "account",
          "type": "address"
        }
      ],
      "name": "fluidUntil",
      "outputs": [
        {
          "internalType": "uint256",
          "name": "",
          "type": "uint256"
        }
      ],
      "payable": false,
      "stateMutability": "view",
      "type": "function"
    },
    {
      "constant": true,
      "inputs": [],
      "name": "implementation",
      "outputs": [
        {
          "internalType": "address",
          "name": "impl",
          "type": "address"
        }
      ],
      "payable": false,
      "stateMutability": "view",
      "type": "function"
    },
    {
      "constant": true,
      "inputs": [
        {
          "internalType": "address",
          "name": "candidate",
          "type": "address"
        }
      ],
      "name": "isInitialized",
      "outputs": [
        {
          "internalType": "bool",
          "name": "",
          "type": "bool"
        }
      ],
      "payable": false,
      "stateMutability": "view",
      "type": "function"
    },
    {
      "constant": true,
      "inputs": [
        {
          "internalType": "address",
          "name": "candidate",
          "type": "address"
        }
      ],
      "name": "isNominated",
      "outputs": [
        {
          "internalType": "bool",
          "name": "",
          "type": "bool"
        }
      ],
      "payable": false,
      "stateMutability": "view",
      "type": "function"
    },
    {
      "constant": true,
      "inputs": [
        {
          "internalType": "address",
          "name": "account",
          "type": "address"
        }
      ],
      "name": "lockedUntil",
      "outputs": [
        {
          "internalType": "uint256",
          "name": "",
          "type": "uint256"
        }
      ],
      "payable": false,
      "stateMutability": "view",
      "type": "function"
    },
    {
      "constant": true,
      "inputs": [],
      "name": "name",
      "outputs": [
        {
          "internalType": "string",
          "name": "",
          "type": "string"
        }
      ],
      "payable": false,
      "stateMutability": "view",
      "type": "function"
    },
    {
      "constant": true,
      "inputs": [],
      "name": "oracle",
      "outputs": [
        {
          "internalType": "contract IOracle",
          "name": "",
          "type": "address"
        }
      ],
      "payable": false,
      "stateMutability": "view",
      "type": "function"
    },
    {
      "constant": true,
      "inputs": [
        {
          "internalType": "uint256",
          "name": "epoch",
          "type": "uint256"
        }
      ],
      "name": "outstandingCoupons",
      "outputs": [
        {
          "internalType": "uint256",
          "name": "",
          "type": "uint256"
        }
      ],
      "payable": false,
      "stateMutability": "view",
      "type": "function"
    },
    {
      "constant": true,
      "inputs": [
        {
          "internalType": "address",
          "name": "candidate",
          "type": "address"
        }
      ],
      "name": "periodFor",
      "outputs": [
        {
          "internalType": "uint256",
          "name": "",
          "type": "uint256"
        }
      ],
      "payable": false,
      "stateMutability": "view",
      "type": "function"
    },
    {
      "constant": true,
      "inputs": [],
      "name": "pool",
      "outputs": [
        {
          "internalType": "address",
          "name": "",
          "type": "address"
        }
      ],
      "payable": false,
      "stateMutability": "view",
      "type": "function"
    },
    {
      "constant": true,
      "inputs": [
        {
          "internalType": "address",
          "name": "account",
          "type": "address"
        },
        {
          "internalType": "address",
          "name": "candidate",
          "type": "address"
        }
      ],
      "name": "recordedVote",
      "outputs": [
        {
          "internalType": "enum Candidate.Vote",
          "name": "",
          "type": "uint8"
        }
      ],
      "payable": false,
      "stateMutability": "view",
      "type": "function"
    },
    {
      "constant": true,
      "inputs": [
        {
          "internalType": "address",
          "name": "candidate",
          "type": "address"
        }
      ],
      "name": "rejectFor",
      "outputs": [
        {
          "internalType": "uint256",
          "name": "",
          "type": "uint256"
        }
      ],
      "payable": false,
      "stateMutability": "view",
      "type": "function"
    },
    {
      "constant": true,
      "inputs": [
        {
          "internalType": "address",
          "name": "candidate",
          "type": "address"
        }
      ],
      "name": "startFor",
      "outputs": [
        {
          "internalType": "uint256",
          "name": "",
          "type": "uint256"
        }
      ],
      "payable": false,
      "stateMutability": "view",
      "type": "function"
    },
    {
      "constant": true,
      "inputs": [
        {
          "internalType": "address",
          "name": "account",
          "type": "address"
        }
      ],
      "name": "statusOf",
      "outputs": [
        {
          "internalType": "enum Account.Status",
          "name": "",
          "type": "uint8"
        }
      ],
      "payable": false,
      "stateMutability": "view",
      "type": "function"
    },
    {
      "constant": true,
      "inputs": [],
      "name": "symbol",
      "outputs": [
        {
          "internalType": "string",
          "name": "",
          "type": "string"
        }
      ],
      "payable": false,
      "stateMutability": "view",
      "type": "function"
    },
    {
      "constant": true,
      "inputs": [],
      "name": "totalBonded",
      "outputs": [
        {
          "internalType": "uint256",
          "name": "",
          "type": "uint256"
        }
      ],
      "payable": false,
      "stateMutability": "view",
      "type": "function"
    },
    {
      "constant": true,
      "inputs": [
        {
          "internalType": "uint256",
          "name": "epoch",
          "type": "uint256"
        }
      ],
      "name": "totalBondedAt",
      "outputs": [
        {
          "internalType": "uint256",
          "name": "",
          "type": "uint256"
        }
      ],
      "payable": false,
      "stateMutability": "view",
      "type": "function"
    },
    {
      "constant": true,
      "inputs": [],
      "name": "totalCouponUnderlying",
      "outputs": [
        {
          "internalType": "uint256",
          "name": "",
          "type": "uint256"
        }
      ],
      "payable": false,
      "stateMutability": "view",
      "type": "function"
    },
    {
      "constant": true,
      "inputs": [],
      "name": "totalCoupons",
      "outputs": [
        {
          "internalType": "uint256",
          "name": "",
          "type": "uint256"
        }
      ],
      "payable": false,
      "stateMutability": "view",
      "type": "function"
    },
    {
      "constant": true,
      "inputs": [],
      "name": "totalDebt",
      "outputs": [
        {
          "internalType": "uint256",
          "name": "",
          "type": "uint256"
        }
      ],
      "payable": false,
      "stateMutability": "view",
      "type": "function"
    },
    {
      "constant": true,
      "inputs": [],
      "name": "totalNet",
      "outputs": [
        {
          "internalType": "uint256",
          "name": "",
          "type": "uint256"
        }
      ],
      "payable": false,
      "stateMutability": "view",
      "type": "function"
    },
    {
      "constant": true,
      "inputs": [],
      "name": "totalRedeemable",
      "outputs": [
        {
          "internalType": "uint256",
          "name": "",
          "type": "uint256"
        }
      ],
      "payable": false,
      "stateMutability": "view",
      "type": "function"
    },
    {
      "constant": true,
      "inputs": [],
      "name": "totalStaged",
      "outputs": [
        {
          "internalType": "uint256",
          "name": "",
          "type": "uint256"
        }
      ],
      "payable": false,
      "stateMutability": "view",
      "type": "function"
    },
    {
      "constant": true,
      "inputs": [],
      "name": "totalSupply",
      "outputs": [
        {
          "internalType": "uint256",
          "name": "",
          "type": "uint256"
        }
      ],
      "payable": false,
      "stateMutability": "view",
      "type": "function"
    },
    {
      "constant": false,
      "inputs": [
        {
          "internalType": "address",
          "name": "recipient",
          "type": "address"
        },
        {
          "internalType": "uint256",
          "name": "amount",
          "type": "uint256"
        }
      ],
      "name": "transfer",
      "outputs": [
        {
          "internalType": "bool",
          "name": "",
          "type": "bool"
        }
      ],
      "payable": false,
      "stateMutability": "nonpayable",
      "type": "function"
    },
    {
      "constant": false,
      "inputs": [
        {
          "internalType": "address",
          "name": "sender",
          "type": "address"
        },
        {
          "internalType": "address",
          "name": "recipient",
          "type": "address"
        },
        {
          "internalType": "uint256",
          "name": "amount",
          "type": "uint256"
        }
      ],
      "name": "transferFrom",
      "outputs": [
        {
          "internalType": "bool",
          "name": "",
          "type": "bool"
        }
      ],
      "payable": false,
      "stateMutability": "nonpayable",
      "type": "function"
    },
    {
      "constant": true,
      "inputs": [
        {
          "internalType": "address",
          "name": "candidate",
          "type": "address"
        }
      ],
      "name": "votesFor",
      "outputs": [
        {
          "internalType": "uint256",
          "name": "",
          "type": "uint256"
        }
      ],
      "payable": false,
      "stateMutability": "view",
      "type": "function"
    },
    {
      "constant": false,
      "inputs": [
        {
          "internalType": "uint256",
          "name": "value",
          "type": "uint256"
        }
      ],
      "name": "deposit",
      "outputs": [],
      "payable": false,
      "stateMutability": "nonpayable",
      "type": "function"
    },
    {
      "constant": false,
      "inputs": [
        {
          "internalType": "uint256",
          "name": "value",
          "type": "uint256"
        }
      ],
      "name": "withdraw",
      "outputs": [],
      "payable": false,
      "stateMutability": "nonpayable",
      "type": "function"
    },
    {
      "constant": false,
      "inputs": [
        {
          "internalType": "uint256",
          "name": "value",
          "type": "uint256"
        }
      ],
      "name": "bond",
      "outputs": [],
      "payable": false,
      "stateMutability": "nonpayable",
      "type": "function"
    },
    {
      "constant": false,
      "inputs": [
        {
          "internalType": "uint256",
          "name": "value",
          "type": "uint256"
        }
      ],
      "name": "unbond",
      "outputs": [],
      "payable": false,
      "stateMutability": "nonpayable",
      "type": "function"
    },
    {
      "constant": false,
      "inputs": [
        {
          "internalType": "uint256",
          "name": "value",
          "type": "uint256"
        }
      ],
      "name": "unbondUnderlying",
      "outputs": [],
      "payable": false,
      "stateMutability": "nonpayable",
      "type": "function"
    }
  ],
  "bytecode": "0x608060405234801561001057600080fd5b50612ec8806100206000396000f3fe608060405234801561001057600080fd5b50600436106102f15760003560e01c806375d5024b1161019d578063a9059cbb116100e9578063d60b347f116100a2578063edb6b80a1161007c578063edb6b80a14610a30578063f1b7cf4914610a4e578063fc7b9c1814610a7e578063ffbe3b7314610a9c576102f1565b8063d60b347f146109b4578063dd62ed3e146109e4578063df9a2b1c14610a14576102f1565b8063a9059cbb146108cc578063b6b55f25146108fc578063b739a7b814610918578063bc7513e214610936578063c9aff70c14610966578063cf02377914610996576102f1565b806397a5d5b5116101565780639bc289f1116101305780639bc289f11461081e5780639f6e1b261461084e578063a50cd8e71461087e578063a6c409f1146108ae576102f1565b806397a5d5b5146107b45780639940686e146107e45780639a649edc14610800576102f1565b806375d5024b146106ca5780637dc0d1d0146106fa578063825ad6071461071857806386cf9f1414610748578063900cf0cf1461077857806395d89b4114610796576102f1565b8063353a420c1161025c5780635053e461116102155780635c60da1b116101ef5780635c60da1b1461061c578063646680221461063a5780636a39e3281461066a57806370a082311461069a576102f1565b80635053e461146105b057806351adeb57146105ce57806351bf21d8146105ec576102f1565b8063353a420c146104b45780633a3e6c81146104e45780633fbba9a6146105145780634303d4f71461054457806344d96e95146105625780634c73609914610580576102f1565b806318160ddd116102ae57806318160ddd146103f25780631edbcf6c1461041057806323b872dd1461042e57806327de9e321461045e5780632e1a7d4d1461047a578063313ce56714610496576102f1565b806306fdde03146102f6578063095ea7b3146103145780630d78ceb41461034457806310e95b6c1461037457806315e14bf6146103a457806316f0115b146103d4575b600080fd5b6102fe610acc565b60405161030b9190612b02565b60405180910390f35b61032e600480360361032991908101906126ce565b610b09565b60405161033b9190612a60565b60405180910390f35b61035e600480360361035991908101906126ce565b610b14565b60405161036b9190612b64565b60405180910390f35b61038e60048036036103899190810190612733565b610b72565b60405161039b9190612b64565b60405180910390f35b6103be60048036036103b9919081019061261a565b610b97565b6040516103cb9190612b64565b60405180910390f35b6103dc610be5565b6040516103e991906129e5565b60405180910390f35b6103fa610c14565b6040516104079190612b64565b60405180910390f35b610418610c23565b6040516104259190612b64565b60405180910390f35b6104486004803603610443919081019061267f565b610c32565b6040516104559190612a60565b60405180910390f35b61047860048036036104739190810190612733565b610c3e565b005b610494600480360361048f9190810190612733565b610dca565b005b61049e610f42565b6040516104ab9190612bb6565b60405180910390f35b6104ce60048036036104c9919081019061261a565b610f4b565b6040516104db9190612b64565b60405180910390f35b6104fe60048036036104f9919081019061261a565b610f99565b60405161050b9190612a60565b60405180910390f35b61052e60048036036105299190810190612643565b610fea565b60405161053b9190612ae7565b60405180910390f35b61054c611083565b6040516105599190612b64565b60405180910390f35b61056a611090565b6040516105779190612b64565b60405180910390f35b61059a60048036036105959190810190612785565b61109f565b6040516105a79190612b64565b60405180910390f35b6105b86110da565b6040516105c59190612b64565b60405180910390f35b6105d6611131565b6040516105e39190612a7b565b60405180910390f35b6106066004803603610601919081019061261a565b611160565b6040516106139190612b64565b60405180910390f35b6106246111ae565b60405161063191906129e5565b60405180910390f35b610654600480360361064f919081019061261a565b6111df565b6040516106619190612b64565b60405180910390f35b610684600480360361067f9190810190612733565b61122d565b6040516106919190612b64565b60405180910390f35b6106b460048036036106af919081019061261a565b611255565b6040516106c19190612b64565b60405180910390f35b6106e460048036036106df9190810190612733565b6112a3565b6040516106f19190612a60565b60405180910390f35b6107026112b7565b60405161070f9190612a96565b60405180910390f35b610732600480360361072d919081019061261a565b6112e6565b60405161073f9190612b64565b60405180910390f35b610762600480360361075d919081019061261a565b611343565b60405161076f9190612b64565b60405180910390f35b610780611391565b60405161078d9190612b64565b60405180910390f35b61079e6113a0565b6040516107ab9190612b02565b60405180910390f35b6107ce60048036036107c9919081019061261a565b6113dd565b6040516107db9190612ab1565b60405180910390f35b6107fe60048036036107f99190810190612733565b6114a2565b005b610808611624565b6040516108159190612b64565b60405180910390f35b6108386004803603610833919081019061261a565b611633565b6040516108459190612b64565b60405180910390f35b61086860048036036108639190810190612643565b611681565b6040516108759190612b64565b60405180910390f35b6108986004803603610893919081019061261a565b61170d565b6040516108a59190612b64565b60405180910390f35b6108b6611739565b6040516108c39190612b64565b60405180910390f35b6108e660048036036108e191908101906126ce565b6117de565b6040516108f39190612a60565b60405180910390f35b61091660048036036109119190810190612733565b6117e9565b005b61092061194a565b60405161092d9190612b64565b60405180910390f35b610950600480360361094b91908101906126ce565b61195a565b60405161095d9190612b64565b60405180910390f35b610980600480360361097b9190810190612733565b6119d5565b60405161098d9190612b64565b60405180910390f35b61099e6119fa565b6040516109ab9190612b64565b60405180910390f35b6109ce60048036036109c9919081019061261a565b611a09565b6040516109db9190612a60565b60405180910390f35b6109fe60048036036109f99190810190612643565b611a64565b604051610a0b9190612b64565b60405180910390f35b610a2e6004803603610a299190810190612733565b611a6f565b005b610a38611bf9565b604051610a459190612acc565b60405180910390f35b610a686004803603610a63919081019061261a565b611c16565b604051610a759190612b64565b60405180910390f35b610a86611c64565b604051610a939190612b64565b60405180910390f35b610ab66004803603610ab19190810190612733565b611c73565b604051610ac39190612b64565b60405180910390f35b60606040518060400160405280601681526020017f456d7074792053657420446f6c6c6172205374616b6500000000000000000000815250905090565b600080905092915050565b6000600f60000160008473ffffffffffffffffffffffffffffffffffffffff1673ffffffffffffffffffffffffffffffffffffffff168152602001908152602001600020600083815260200190815260200160002054905092915050565b600080600d016000838152602001908152602001600020600101600101549050919050565b600080600e0160008373ffffffffffffffffffffffffffffffffffffffff1673ffffffffffffffffffffffffffffffffffffffff168152602001908152602001600020600101549050919050565b60008060090160020160009054906101000a900473ffffffffffffffffffffffffffffffffffffffff16905090565b60008060030160000154905090565b60008060030160030154905090565b60008090509392505050565b33610cab600280811115610c4e57fe5b610c57836113dd565b6002811115610c6257fe5b14157f5065726d697373696f6e000000000000000000000000000000000000000000007f4e6f742066726f7a656e206f7220666c75696400000000000000000000000000611c95565b610cb433611d14565b6000610ceb610cc233611255565b610cdd610cce336112e6565b86611d8190919063ffffffff16565b611df190919063ffffffff16565b9050610cf73382611e3b565b610d1981604051806060016040528060228152602001612e6460229139611f07565b610d5933846040518060400160405280601d81526020017f426f6e64696e673a20696e73756666696369656e742062616c616e6365000000815250611f34565b3373ffffffffffffffffffffffffffffffffffffffff167f93530ac0ee8c50e696e13c5ac62355d0c0ba4bd943620d5bda1eb08b64ae7512610dac6001610d9e611391565b61206b90919063ffffffff16565b8584604051610dbd93929190612b7f565b60405180910390a2505050565b33610e3860016002811115610ddb57fe5b610de4836113dd565b6002811115610def57fe5b14157f5065726d697373696f6e000000000000000000000000000000000000000000007f4e6f742066726f7a656e206f72206c6f636b6564000000000000000000000000611c95565b610e40611131565b73ffffffffffffffffffffffffffffffffffffffff1663a9059cbb33846040518363ffffffff1660e01b8152600401610e7a929190612a37565b602060405180830381600087803b158015610e9457600080fd5b505af1158015610ea8573d6000803e3d6000fd5b505050506040513d601f19601f82011682018060405250610ecc919081019061270a565b50610ef03383604051806060016040528060248152602001612e40602491396120c0565b3373ffffffffffffffffffffffffffffffffffffffff167f884edad9ce6fa2440d8a54cc123490eb96d2768479d49ff9c7366125a942436483604051610f369190612b64565b60405180910390a25050565b60006012905090565b600080600e0160008373ffffffffffffffffffffffffffffffffffffffff1673ffffffffffffffffffffffffffffffffffffffff168152602001908152602001600020600301549050919050565b6000806000600e0160008473ffffffffffffffffffffffffffffffffffffffff1673ffffffffffffffffffffffffffffffffffffffff16815260200190815260200160002060000154119050919050565b600080600e0160008373ffffffffffffffffffffffffffffffffffffffff1673ffffffffffffffffffffffffffffffffffffffff16815260200190815260200160002060040160008473ffffffffffffffffffffffffffffffffffffffff1673ffffffffffffffffffffffffffffffffffffffff16815260200190815260200160002060009054906101000a900460ff16905092915050565b6000600f60010154905090565b60008060030160010154905090565b600080600d01600084815260200190815260200160002060010160020182815481106110c757fe5b9060005260206000200154905092915050565b60006110e46125a5565b6110ec612191565b90506110f66125a5565b6110fe6121c0565b9050816020015161110d6121f0565b106111205761111b826121f8565b61112a565b611129816121f8565b5b9250505090565b60008060090160000160009054906101000a900473ffffffffffffffffffffffffffffffffffffffff16905090565b600080600c0160008373ffffffffffffffffffffffffffffffffffffffff1673ffffffffffffffffffffffffffffffffffffffff168152602001908152602001600020600401549050919050565b6000807f360894a13ba1a3210667c828492db98dca3e2076cc3735a920a3ca505d382bbc60001b9050805491505090565b600080600e0160008373ffffffffffffffffffffffffffffffffffffffff1673ffffffffffffffffffffffffffffffffffffffff168152602001908152602001600020600201549050919050565b600080600d016000838152602001908152602001600020600101600201805490509050919050565b600080600c0160008373ffffffffffffffffffffffffffffffffffffffff1673ffffffffffffffffffffffffffffffffffffffff168152602001908152602001600020600101549050919050565b60006112ad61224b565b8211159050919050565b60008060090160010160009054906101000a900473ffffffffffffffffffffffffffffffffffffffff16905090565b6000806112f1610c14565b9050600081141561130657600091505061133e565b61133a8161132c61131686611255565b61131e611090565b611d8190919063ffffffff16565b611df190919063ffffffff16565b9150505b919050565b600080600c0160008373ffffffffffffffffffffffffffffffffffffffff1673ffffffffffffffffffffffffffffffffffffffff168152602001908152602001600020600001549050919050565b60008060000160020154905090565b60606040518060400160405280600481526020017f4553445300000000000000000000000000000000000000000000000000000000815250905090565b60006113e7611391565b6000600c0160008473ffffffffffffffffffffffffffffffffffffffff1673ffffffffffffffffffffffffffffffffffffffff16815260200190815260200160002060050154111561143c576002905061149d565b6000600c0160008373ffffffffffffffffffffffffffffffffffffffff1673ffffffffffffffffffffffffffffffffffffffff1681526020019081526020016000206004015461148a611391565b101561149757600161149a565b60005b90505b919050565b3361150f6002808111156114b257fe5b6114bb836113dd565b60028111156114c657fe5b14157f5065726d697373696f6e000000000000000000000000000000000000000000007f4e6f742066726f7a656e206f7220666c75696400000000000000000000000000611c95565b61151833611d14565b600080611523611090565b146115605761155b611533611090565b61154d61153e610c14565b86611d8190919063ffffffff16565b611df190919063ffffffff16565b61157b565b61157a61156b612254565b84611d8190919063ffffffff16565b5b9050611587338261225f565b61159083612391565b6115b33384604051806060016040528060248152602001612e40602491396120c0565b3373ffffffffffffffffffffffffffffffffffffffff167f44002fdef5a0c2d2e4e05572e9780b95aef97e0e93ffd7cc076b09fa78ff2b4661160660016115f8611391565b61206b90919063ffffffff16565b838660405161161793929190612b7f565b60405180910390a2505050565b60008060030160050154905090565b600080600c0160008373ffffffffffffffffffffffffffffffffffffffff1673ffffffffffffffffffffffffffffffffffffffff168152602001908152602001600020600501549050919050565b600080600c0160008473ffffffffffffffffffffffffffffffffffffffff1673ffffffffffffffffffffffffffffffffffffffff16815260200190815260200160002060030160008373ffffffffffffffffffffffffffffffffffffffff1673ffffffffffffffffffffffffffffffffffffffff16815260200190815260200160002054905092915050565b600061173261171b83610f4b565b611724846111df565b61206b90919063ffffffff16565b9050919050565b60006117d9611746611c64565b61174e611131565b73ffffffffffffffffffffffffffffffffffffffff166318160ddd6040518163ffffffff1660e01b815260040160206040518083038186803b15801561179357600080fd5b505afa1580156117a7573d6000803e3d6000fd5b505050506040513d601f19601f820116820180604052506117cb919081019061275c565b6123bb90919063ffffffff16565b905090565b600080905092915050565b33611857600160028111156117fa57fe5b611803836113dd565b600281111561180e57fe5b14157f5065726d697373696f6e000000000000000000000000000000000000000000007f4e6f742066726f7a656e206f72206c6f636b6564000000000000000000000000611c95565b61185f611131565b73ffffffffffffffffffffffffffffffffffffffff166323b872dd3330856040518463ffffffff1660e01b815260040161189b93929190612a00565b602060405180830381600087803b1580156118b557600080fd5b505af11580156118c9573d6000803e3d6000fd5b505050506040513d601f19601f820116820180604052506118ed919081019061270a565b506118f83383611e3b565b3373ffffffffffffffffffffffffffffffffffffffff167fe1fffcc4923d04b559f4d29a8bfc6cda04eb5b0d3c460751c2402c5c5cc9109c8360405161193e9190612b64565b60405180910390a25050565b6000601160000160010154905090565b600080611966836119d5565b141561197557600090506119cf565b6000600c0160008473ffffffffffffffffffffffffffffffffffffffff1673ffffffffffffffffffffffffffffffffffffffff16815260200190815260200160002060020160008381526020019081526020016000205490505b92915050565b600080600d016000838152602001908152602001600020600101600001549050919050565b60008060030160020154905090565b600080600e0160008373ffffffffffffffffffffffffffffffffffffffff1673ffffffffffffffffffffffffffffffffffffffff16815260200190815260200160002060050160009054906101000a900460ff169050919050565b600080905092915050565b33611adc600280811115611a7f57fe5b611a88836113dd565b6002811115611a9357fe5b14157f5065726d697373696f6e000000000000000000000000000000000000000000007f4e6f742066726f7a656e206f7220666c75696400000000000000000000000000611c95565b611ae533611d14565b6000611b1a611af2611090565b611b0c611afd610c14565b86611d8190919063ffffffff16565b611df190919063ffffffff16565b9050611b263384611e3b565b611b4883604051806060016040528060228152602001612e6460229139611f07565b611b8833826040518060400160405280601d81526020017f426f6e64696e673a20696e73756666696369656e742062616c616e6365000000815250611f34565b3373ffffffffffffffffffffffffffffffffffffffff167f93530ac0ee8c50e696e13c5ac62355d0c0ba4bd943620d5bda1eb08b64ae7512611bdb6001611bcd611391565b61206b90919063ffffffff16565b8386604051611bec93929190612b7f565b60405180910390a2505050565b6000601160000160000160009054906101000a900460ff16905090565b600080600e0160008373ffffffffffffffffffffffffffffffffffffffff1673ffffffffffffffffffffffffffffffffffffffff168152602001908152602001600020600001549050919050565b60008060030160040154905090565b600080600d016000838152602001908152602001600020600001549050919050565b82611d0f57611ca382612405565b613a2060f01b611cb283612405565b604051602001611cc4939291906129b0565b6040516020818303038152906040526040517f08c379a0000000000000000000000000000000000000000000000000000000008152600401611d069190612b02565b60405180910390fd5b505050565b611d35611d1f6124e0565b611d27611391565b61206b90919063ffffffff16565b6000600c0160008373ffffffffffffffffffffffffffffffffffffffff1673ffffffffffffffffffffffffffffffffffffffff1681526020019081526020016000206004018190555050565b600080831415611d945760009050611deb565b6000828402905082848281611da557fe5b0414611de6576040517f08c379a0000000000000000000000000000000000000000000000000000000008152600401611ddd90612b44565b60405180910390fd5b809150505b92915050565b6000611e3383836040518060400160405280601a81526020017f536166654d6174683a206469766973696f6e206279207a65726f0000000000008152506124e9565b905092915050565b611e93816000600c0160008573ffffffffffffffffffffffffffffffffffffffff1673ffffffffffffffffffffffffffffffffffffffff1681526020019081526020016000206000015461206b90919063ffffffff16565b6000600c0160008473ffffffffffffffffffffffffffffffffffffffff1673ffffffffffffffffffffffffffffffffffffffff16815260200190815260200160002060000181905550611ef78160006003016002015461206b90919063ffffffff16565b6000600301600201819055505050565b611f24828260006003016001015461254a9092919063ffffffff16565b6000600301600101819055505050565b611f8e82826000600c0160008773ffffffffffffffffffffffffffffffffffffffff1673ffffffffffffffffffffffffffffffffffffffff1681526020019081526020016000206001015461254a9092919063ffffffff16565b6000600c0160008573ffffffffffffffffffffffffffffffffffffffff1673ffffffffffffffffffffffffffffffffffffffff16815260200190815260200160002060010181905550611ff4828260006003016000015461254a9092919063ffffffff16565b600060030160000181905550600073ffffffffffffffffffffffffffffffffffffffff168373ffffffffffffffffffffffffffffffffffffffff167fddf252ad1be2c89b69c2b068fc378daa952ba7f163c4a11628f55a4df523b3ef8460405161205e9190612b64565b60405180910390a3505050565b6000808284019050838110156120b6576040517f08c379a00000000000000000000000000000000000000000000000000000000081526004016120ad90612b24565b60405180910390fd5b8091505092915050565b61211a82826000600c0160008773ffffffffffffffffffffffffffffffffffffffff1673ffffffffffffffffffffffffffffffffffffffff1681526020019081526020016000206000015461254a9092919063ffffffff16565b6000600c0160008573ffffffffffffffffffffffffffffffffffffffff1673ffffffffffffffffffffffffffffffffffffffff16815260200190815260200160002060000181905550612180828260006003016002015461254a9092919063ffffffff16565b600060030160020181905550505050565b6121996125a5565b6040518060600160405280606a8152602001635f7fa8008152602001617080815250905090565b6121c86125a5565b6040518060600160405280605b8152602001635f6be180815260200162015180815250905090565b600042905090565b600061224482600001516122368460400151612228866020015161221a6121f0565b6123bb90919063ffffffff16565b611df190919063ffffffff16565b61206b90919063ffffffff16565b9050919050565b6000605a905090565b6000620f4240905090565b6122b7816000600c0160008573ffffffffffffffffffffffffffffffffffffffff1673ffffffffffffffffffffffffffffffffffffffff1681526020019081526020016000206001015461206b90919063ffffffff16565b6000600c0160008473ffffffffffffffffffffffffffffffffffffffff1673ffffffffffffffffffffffffffffffffffffffff1681526020019081526020016000206001018190555061231b8160006003016000015461206b90919063ffffffff16565b6000600301600001819055508173ffffffffffffffffffffffffffffffffffffffff16600073ffffffffffffffffffffffffffffffffffffffff167fddf252ad1be2c89b69c2b068fc378daa952ba7f163c4a11628f55a4df523b3ef836040516123859190612b64565b60405180910390a35050565b6123ac8160006003016001015461206b90919063ffffffff16565b60006003016001018190555050565b60006123fd83836040518060400160405280601e81526020017f536166654d6174683a207375627472616374696f6e206f766572666c6f77000081525061254a565b905092915050565b606080826040516020016124199190612995565b60405160208183030381529060405290506000602090505b60008111156124a157808060019003915050600060f81b82828151811061245457fe5b602001015160f81c60f81b7effffffffffffffffffffffffffffffffffffffffffffffffffffffffffffff19161461249c5760006001820190508083528293505050506124db565b612431565b5060006040519080825280601f01601f1916602001820160405280156124d65781602001600182028038833980820191505090505b509150505b919050565b6000600f905090565b60008083118290612530576040517f08c379a00000000000000000000000000000000000000000000000000000000081526004016125279190612b02565b60405180910390fd5b50600083858161253c57fe5b049050809150509392505050565b6000838311158290612592576040517f08c379a00000000000000000000000000000000000000000000000000000000081526004016125899190612b02565b60405180910390fd5b5060008385039050809150509392505050565b60405180606001604052806000815260200160008152602001600081525090565b6000813590506125d581612dfa565b92915050565b6000815190506125ea81612e11565b92915050565b6000813590506125ff81612e28565b92915050565b60008151905061261481612e28565b92915050565b60006020828403121561262c57600080fd5b600061263a848285016125c6565b91505092915050565b6000806040838503121561265657600080fd5b6000612664858286016125c6565b9250506020612675858286016125c6565b9150509250929050565b60008060006060848603121561269457600080fd5b60006126a2868287016125c6565b93505060206126b3868287016125c6565b92505060406126c4868287016125f0565b9150509250925092565b600080604083850312156126e157600080fd5b60006126ef858286016125c6565b9250506020612700858286016125f0565b9150509250929050565b60006020828403121561271c57600080fd5b600061272a848285016125db565b91505092915050565b60006020828403121561274557600080fd5b6000612753848285016125f0565b91505092915050565b60006020828403121561276e57600080fd5b600061277c84828501612605565b91505092915050565b6000806040838503121561279857600080fd5b60006127a6858286016125f0565b92505060206127b7858286016125f0565b9150509250929050565b6127ca81612cc7565b82525050565b6127d981612c03565b82525050565b6127e881612c15565b82525050565b6127ff6127fa82612c21565b612dae565b82525050565b61281661281182612c4d565b612db8565b82525050565b600061282782612bd1565b6128318185612be7565b9350612841818560208601612d7b565b80840191505092915050565b61285681612cd9565b82525050565b61286581612cfd565b82525050565b61287481612d21565b82525050565b61288381612d33565b82525050565b61289281612d45565b82525050565b60006128a382612bdc565b6128ad8185612bf2565b93506128bd818560208601612d7b565b6128c681612dc2565b840191505092915050565b60006128de601b83612bf2565b91507f536166654d6174683a206164646974696f6e206f766572666c6f7700000000006000830152602082019050919050565b600061291e602183612bf2565b91507f536166654d6174683a206d756c7469706c69636174696f6e206f766572666c6f60008301527f77000000000000000000000000000000000000000000000000000000000000006020830152604082019050919050565b61298081612cb0565b82525050565b61298f81612cba565b82525050565b60006129a18284612805565b60208201915081905092915050565b60006129bc828661281c565b91506129c882856127ee565b6002820191506129d8828461281c565b9150819050949350505050565b60006020820190506129fa60008301846127d0565b92915050565b6000606082019050612a1560008301866127c1565b612a2260208301856127d0565b612a2f6040830184612977565b949350505050565b6000604082019050612a4c60008301856127c1565b612a596020830184612977565b9392505050565b6000602082019050612a7560008301846127df565b92915050565b6000602082019050612a90600083018461284d565b92915050565b6000602082019050612aab600083018461285c565b92915050565b6000602082019050612ac6600083018461286b565b92915050565b6000602082019050612ae1600083018461287a565b92915050565b6000602082019050612afc6000830184612889565b92915050565b60006020820190508181036000830152612b1c8184612898565b905092915050565b60006020820190508181036000830152612b3d816128d1565b9050919050565b60006020820190508181036000830152612b5d81612911565b9050919050565b6000602082019050612b796000830184612977565b92915050565b6000606082019050612b946000830186612977565b612ba16020830185612977565b612bae6040830184612977565b949350505050565b6000602082019050612bcb6000830184612986565b92915050565b600081519050919050565b600081519050919050565b600081905092915050565b600082825260208201905092915050565b6000612c0e82612c90565b9050919050565b60008115159050919050565b60007fffff00000000000000000000000000000000000000000000000000000000000082169050919050565b6000819050919050565b6000819050612c6582612dd3565b919050565b6000819050612c7882612de0565b919050565b6000819050612c8b82612ded565b919050565b600073ffffffffffffffffffffffffffffffffffffffff82169050919050565b6000819050919050565b600060ff82169050919050565b6000612cd282612d57565b9050919050565b6000612ce482612ceb565b9050919050565b6000612cf682612c90565b9050919050565b6000612d0882612d0f565b9050919050565b6000612d1a82612c90565b9050919050565b6000612d2c82612c57565b9050919050565b6000612d3e82612c6a565b9050919050565b6000612d5082612c7d565b9050919050565b6000612d6282612d69565b9050919050565b6000612d7482612c90565b9050919050565b60005b83811015612d99578082015181840152602081019050612d7e565b83811115612da8576000848401525b50505050565b6000819050919050565b6000819050919050565b6000601f19601f8301169050919050565b60038110612ddd57fe5b50565b60028110612dea57fe5b50565b60038110612df757fe5b50565b612e0381612c03565b8114612e0e57600080fd5b50565b612e1a81612c15565b8114612e2557600080fd5b50565b612e3181612cb0565b8114612e3c57600080fd5b5056fe426f6e64696e673a20696e73756666696369656e74207374616765642062616c616e6365426f6e64696e673a20696e73756666696369656e7420746f74616c20626f6e646564a365627a7a72315820d843692da4cd221c66c5217d2a7110f563fd1ccc8b7bb013a38b8111a6530e456c6578706572696d656e74616cf564736f6c63430005110040",
  "source": "/*\n    Copyright 2020 Empty Set Squad <emptysetsquad@protonmail.com>\n\n    Licensed under the Apache License, Version 2.0 (the \"License\");\n    you may not use this file except in compliance with the License.\n    You may obtain a copy of the License at\n\n    http://www.apache.org/licenses/LICENSE-2.0\n\n    Unless required by applicable law or agreed to in writing, software\n    distributed under the License is distributed on an \"AS IS\" BASIS,\n    WITHOUT WARRANTIES OR CONDITIONS OF ANY KIND, either express or implied.\n    See the License for the specific language governing permissions and\n    limitations under the License.\n*/\n\npragma solidity ^0.5.17;\npragma experimental ABIEncoderV2;\n\nimport \"@openzeppelin/contracts/math/SafeMath.sol\";\nimport \"./Setters.sol\";\nimport \"./Permission.sol\";\nimport \"../external/Require.sol\";\nimport \"../Constants.sol\";\n\ncontract Bonding is Setters, Permission {\n    using SafeMath for uint256;\n\n    bytes32 private constant FILE = \"Bonding\";\n\n    event Deposit(address indexed account, uint256 value);\n    event Withdraw(address indexed account, uint256 value);\n    event Bond(address indexed account, uint256 start, uint256 value, uint256 valueUnderlying);\n    event Unbond(address indexed account, uint256 start, uint256 value, uint256 valueUnderlying);\n\n    function step() internal {\n        Require.that(\n            epochTime() > epoch(),\n            FILE,\n            \"Still current epoch\"\n        );\n\n        snapshotTotalBonded();\n        incrementEpoch();\n    }\n\n    function deposit(uint256 value) external onlyFrozenOrLocked(msg.sender) {\n        dollar().transferFrom(msg.sender, address(this), value);\n        incrementBalanceOfStaged(msg.sender, value);\n\n        emit Deposit(msg.sender, value);\n    }\n\n    function withdraw(uint256 value) external onlyFrozenOrLocked(msg.sender) {\n        dollar().transfer(msg.sender, value);\n        decrementBalanceOfStaged(msg.sender, value, \"Bonding: insufficient staged balance\");\n\n        emit Withdraw(msg.sender, value);\n    }\n\n    function bond(uint256 value) external onlyFrozenOrFluid(msg.sender) {\n        unfreeze(msg.sender);\n\n        uint256 balance = totalBonded() == 0 ?\n            value.mul(Constants.getInitialStakeMultiple()) :\n            value.mul(totalSupply()).div(totalBonded());\n        incrementBalanceOf(msg.sender, balance);\n        incrementTotalBonded(value);\n        decrementBalanceOfStaged(msg.sender, value, \"Bonding: insufficient staged balance\");\n\n        emit Bond(msg.sender, epoch().add(1), balance, value);\n    }\n\n    function unbond(uint256 value) external onlyFrozenOrFluid(msg.sender) {\n        unfreeze(msg.sender);\n\n        uint256 staged = value.mul(balanceOfBonded(msg.sender)).div(balanceOf(msg.sender));\n        incrementBalanceOfStaged(msg.sender, staged);\n        decrementTotalBonded(staged, \"Bonding: insufficient total bonded\");\n        decrementBalanceOf(msg.sender, value, \"Bonding: insufficient balance\");\n\n        emit Unbond(msg.sender, epoch().add(1), value, staged);\n    }\n\n    function unbondUnderlying(uint256 value) external onlyFrozenOrFluid(msg.sender) {\n        unfreeze(msg.sender);\n\n        uint256 balance = value.mul(totalSupply()).div(totalBonded());\n        incrementBalanceOfStaged(msg.sender, value);\n        decrementTotalBonded(value, \"Bonding: insufficient total bonded\");\n        decrementBalanceOf(msg.sender, balance, \"Bonding: insufficient balance\");\n\n        emit Unbond(msg.sender, epoch().add(1), balance, value);\n    }\n}\n",
  "sourcePath": "/Users/gokulalex/Apps/eth_apps/SemiotNet/contracts/dao/Bonding.sol",
  "compiler": {
    "name": "solc",
    "version": "0.5.17+commit.d19bba13.Emscripten.clang"
  },
  "schemaVersion": "3.3.3",
  "updatedAt": "2021-02-19T15:49:23.483Z",
  "devdoc": {
    "methods": {}
  },
  "userdoc": {
    "methods": {
      "balanceOfStaged(address)": {
        "notice": "Account"
      },
      "dollar()": {
        "notice": "Global"
      },
      "epoch()": {
        "notice": "Epoch"
      },
      "name()": {
        "notice": "ERC20 Interface"
      },
      "recordedVote(address,address)": {
        "notice": "Governance"
      },
      "transfer(address,uint256)": {
        "notice": "ERC20 Interface"
      }
    }
  }
}