{
  "contractName": "Dollar",
  "abi": [
    {
      "inputs": [],
      "payable": false,
      "stateMutability": "nonpayable",
      "type": "constructor"
    },
    {
      "anonymous": false,
      "inputs": [
        {
          "indexed": true,
          "internalType": "address",
          "name": "owner",
          "type": "address"
        },
        {
          "indexed": true,
          "internalType": "address",
          "name": "spender",
          "type": "address"
        },
        {
          "indexed": false,
          "internalType": "uint256",
          "name": "value",
          "type": "uint256"
        }
      ],
      "name": "Approval",
      "type": "event"
    },
    {
      "anonymous": false,
      "inputs": [
        {
          "indexed": true,
          "internalType": "address",
          "name": "account",
          "type": "address"
        }
      ],
      "name": "MinterAdded",
      "type": "event"
    },
    {
      "anonymous": false,
      "inputs": [
        {
          "indexed": true,
          "internalType": "address",
          "name": "account",
          "type": "address"
        }
      ],
      "name": "MinterRemoved",
      "type": "event"
    },
    {
      "anonymous": false,
      "inputs": [
        {
          "indexed": true,
          "internalType": "address",
          "name": "from",
          "type": "address"
        },
        {
          "indexed": true,
          "internalType": "address",
          "name": "to",
          "type": "address"
        },
        {
          "indexed": false,
          "internalType": "uint256",
          "name": "value",
          "type": "uint256"
        }
      ],
      "name": "Transfer",
      "type": "event"
    },
    {
      "constant": true,
      "inputs": [],
      "name": "EIP712_DOMAIN_SEPARATOR",
      "outputs": [
        {
          "internalType": "bytes32",
          "name": "",
          "type": "bytes32"
        }
      ],
      "payable": false,
      "stateMutability": "view",
      "type": "function"
    },
    {
      "constant": true,
      "inputs": [],
      "name": "EIP712_PERMIT_TYPEHASH",
      "outputs": [
        {
          "internalType": "bytes32",
          "name": "",
          "type": "bytes32"
        }
      ],
      "payable": false,
      "stateMutability": "view",
      "type": "function"
    },
    {
      "constant": false,
      "inputs": [
        {
          "internalType": "address",
          "name": "account",
          "type": "address"
        }
      ],
      "name": "addMinter",
      "outputs": [],
      "payable": false,
      "stateMutability": "nonpayable",
      "type": "function"
    },
    {
      "constant": true,
      "inputs": [
        {
          "internalType": "address",
          "name": "owner",
          "type": "address"
        },
        {
          "internalType": "address",
          "name": "spender",
          "type": "address"
        }
      ],
      "name": "allowance",
      "outputs": [
        {
          "internalType": "uint256",
          "name": "",
          "type": "uint256"
        }
      ],
      "payable": false,
      "stateMutability": "view",
      "type": "function"
    },
    {
      "constant": false,
      "inputs": [
        {
          "internalType": "address",
          "name": "spender",
          "type": "address"
        },
        {
          "internalType": "uint256",
          "name": "amount",
          "type": "uint256"
        }
      ],
      "name": "approve",
      "outputs": [
        {
          "internalType": "bool",
          "name": "",
          "type": "bool"
        }
      ],
      "payable": false,
      "stateMutability": "nonpayable",
      "type": "function"
    },
    {
      "constant": true,
      "inputs": [
        {
          "internalType": "address",
          "name": "account",
          "type": "address"
        }
      ],
      "name": "balanceOf",
      "outputs": [
        {
          "internalType": "uint256",
          "name": "",
          "type": "uint256"
        }
      ],
      "payable": false,
      "stateMutability": "view",
      "type": "function"
    },
    {
      "constant": false,
      "inputs": [
        {
          "internalType": "uint256",
          "name": "amount",
          "type": "uint256"
        }
      ],
      "name": "burn",
      "outputs": [],
      "payable": false,
      "stateMutability": "nonpayable",
      "type": "function"
    },
    {
      "constant": false,
      "inputs": [
        {
          "internalType": "address",
          "name": "account",
          "type": "address"
        },
        {
          "internalType": "uint256",
          "name": "amount",
          "type": "uint256"
        }
      ],
      "name": "burnFrom",
      "outputs": [],
      "payable": false,
      "stateMutability": "nonpayable",
      "type": "function"
    },
    {
      "constant": true,
      "inputs": [],
      "name": "decimals",
      "outputs": [
        {
          "internalType": "uint8",
          "name": "",
          "type": "uint8"
        }
      ],
      "payable": false,
      "stateMutability": "view",
      "type": "function"
    },
    {
      "constant": false,
      "inputs": [
        {
          "internalType": "address",
          "name": "spender",
          "type": "address"
        },
        {
          "internalType": "uint256",
          "name": "subtractedValue",
          "type": "uint256"
        }
      ],
      "name": "decreaseAllowance",
      "outputs": [
        {
          "internalType": "bool",
          "name": "",
          "type": "bool"
        }
      ],
      "payable": false,
      "stateMutability": "nonpayable",
      "type": "function"
    },
    {
      "constant": false,
      "inputs": [
        {
          "internalType": "address",
          "name": "spender",
          "type": "address"
        },
        {
          "internalType": "uint256",
          "name": "addedValue",
          "type": "uint256"
        }
      ],
      "name": "increaseAllowance",
      "outputs": [
        {
          "internalType": "bool",
          "name": "",
          "type": "bool"
        }
      ],
      "payable": false,
      "stateMutability": "nonpayable",
      "type": "function"
    },
    {
      "constant": true,
      "inputs": [
        {
          "internalType": "address",
          "name": "account",
          "type": "address"
        }
      ],
      "name": "isMinter",
      "outputs": [
        {
          "internalType": "bool",
          "name": "",
          "type": "bool"
        }
      ],
      "payable": false,
      "stateMutability": "view",
      "type": "function"
    },
    {
      "constant": true,
      "inputs": [],
      "name": "name",
      "outputs": [
        {
          "internalType": "string",
          "name": "",
          "type": "string"
        }
      ],
      "payable": false,
      "stateMutability": "view",
      "type": "function"
    },
    {
      "constant": false,
      "inputs": [
        {
          "internalType": "address",
          "name": "owner",
          "type": "address"
        },
        {
          "internalType": "address",
          "name": "spender",
          "type": "address"
        },
        {
          "internalType": "uint256",
          "name": "value",
          "type": "uint256"
        },
        {
          "internalType": "uint256",
          "name": "deadline",
          "type": "uint256"
        },
        {
          "internalType": "uint8",
          "name": "v",
          "type": "uint8"
        },
        {
          "internalType": "bytes32",
          "name": "r",
          "type": "bytes32"
        },
        {
          "internalType": "bytes32",
          "name": "s",
          "type": "bytes32"
        }
      ],
      "name": "permit",
      "outputs": [],
      "payable": false,
      "stateMutability": "nonpayable",
      "type": "function"
    },
    {
      "constant": false,
      "inputs": [],
      "name": "renounceMinter",
      "outputs": [],
      "payable": false,
      "stateMutability": "nonpayable",
      "type": "function"
    },
    {
      "constant": true,
      "inputs": [],
      "name": "symbol",
      "outputs": [
        {
          "internalType": "string",
          "name": "",
          "type": "string"
        }
      ],
      "payable": false,
      "stateMutability": "view",
      "type": "function"
    },
    {
      "constant": true,
      "inputs": [],
      "name": "totalSupply",
      "outputs": [
        {
          "internalType": "uint256",
          "name": "",
          "type": "uint256"
        }
      ],
      "payable": false,
      "stateMutability": "view",
      "type": "function"
    },
    {
      "constant": false,
      "inputs": [
        {
          "internalType": "address",
          "name": "recipient",
          "type": "address"
        },
        {
          "internalType": "uint256",
          "name": "amount",
          "type": "uint256"
        }
      ],
      "name": "transfer",
      "outputs": [
        {
          "internalType": "bool",
          "name": "",
          "type": "bool"
        }
      ],
      "payable": false,
      "stateMutability": "nonpayable",
      "type": "function"
    },
    {
      "constant": false,
      "inputs": [
        {
          "internalType": "address",
          "name": "account",
          "type": "address"
        },
        {
          "internalType": "uint256",
          "name": "amount",
          "type": "uint256"
        }
      ],
      "name": "mint",
      "outputs": [
        {
          "internalType": "bool",
          "name": "",
          "type": "bool"
        }
      ],
      "payable": false,
      "stateMutability": "nonpayable",
      "type": "function"
    },
    {
      "constant": false,
      "inputs": [
        {
          "internalType": "address",
          "name": "sender",
          "type": "address"
        },
        {
          "internalType": "address",
          "name": "recipient",
          "type": "address"
        },
        {
          "internalType": "uint256",
          "name": "amount",
          "type": "uint256"
        }
      ],
      "name": "transferFrom",
      "outputs": [
        {
          "internalType": "bool",
          "name": "",
          "type": "bool"
        }
      ],
      "payable": false,
      "stateMutability": "nonpayable",
      "type": "function"
    }
  ],
  "bytecode": "0x60806040523480156200001157600080fd5b506040518060400160405280601081526020017f456d7074792053657420446f6c6c6172000000000000000000000000000000008152506040518060400160405280600381526020017f45534400000000000000000000000000000000000000000000000000000000008152506012620000a0620000946200016d60201b60201c565b6200017560201b60201c565b8260019080519060200190620000b89291906200046d565b508160029080519060200190620000d19291906200046d565b5080600360006101000a81548160ff021916908360ff1602179055505050506200016162000104620001d660201b60201c565b6040518060400160405280600181526020017f31000000000000000000000000000000000000000000000000000000000000008152506200014f6200027c60201b6200252b1760201c565b306200028560201b620025341760201c565b6007819055506200061b565b600033905090565b62000190816000620002ef60201b620017ce1790919060201c565b8073ffffffffffffffffffffffffffffffffffffffff167f6ae172837ea30b801fbfcdd4108aa1d5bf8ff775444fd70256b44e6bf3dfc3f660405160405180910390a250565b606060018054600181600116156101000203166002900480601f016020809104026020016040519081016040528092919081815260200182805460018160011615610100020316600290048015620002725780601f10620002465761010080835404028352916020019162000272565b820191906000526020600020905b8154815290600101906020018083116200025457829003601f168201915b5050505050905090565b60006001905090565b6000807f8b73c3c69bb8fe3d512ecc4cf759cc79239f7b179b0ffacaa9a75d522b39400f60001b9050855160208701208551602087012060405183815282602082015281604082015286606082015285608082015260a08120945050505081915050949350505050565b620003018282620003a260201b60201c565b1562000344576040517f08c379a00000000000000000000000000000000000000000000000000000000081526004016200033b90620005c6565b60405180910390fd5b60018260000160008373ffffffffffffffffffffffffffffffffffffffff1673ffffffffffffffffffffffffffffffffffffffff16815260200190815260200160002060006101000a81548160ff0219169083151502179055505050565b60008073ffffffffffffffffffffffffffffffffffffffff168273ffffffffffffffffffffffffffffffffffffffff16141562000416576040517f08c379a00000000000000000000000000000000000000000000000000000000081526004016200040d90620005e8565b60405180910390fd5b8260000160008373ffffffffffffffffffffffffffffffffffffffff1673ffffffffffffffffffffffffffffffffffffffff16815260200190815260200160002060009054906101000a900460ff16905092915050565b828054600181600116156101000203166002900490600052602060002090601f016020900481019282601f10620004b057805160ff1916838001178555620004e1565b82800160010185558215620004e1579182015b82811115620004e0578251825591602001919060010190620004c3565b5b509050620004f09190620004f4565b5090565b6200051991905b8082111562000515576000816000905550600101620004fb565b5090565b90565b60006200052b601f836200060a565b91507f526f6c65733a206163636f756e7420616c72656164792068617320726f6c65006000830152602082019050919050565b60006200056d6022836200060a565b91507f526f6c65733a206163636f756e7420697320746865207a65726f20616464726560008301527f73730000000000000000000000000000000000000000000000000000000000006020830152604082019050919050565b60006020820190508181036000830152620005e1816200051c565b9050919050565b6000602082019050818103600083015262000603816200055e565b9050919050565b600082825260208201905092915050565b61269b806200062b6000396000f3fe608060405234801561001057600080fd5b506004361061012c5760003560e01c806395d89b41116100ad578063aa271e1a11610071578063aa271e1a14610357578063d505accf14610387578063dab400f3146103a3578063dd62ed3e146103c1578063e879c19f146103f15761012c565b806395d89b41146102b3578063983b2d56146102d157806398650275146102ed578063a457c2d7146102f7578063a9059cbb146103275761012c565b806339509351116100f457806339509351146101eb57806340c10f191461021b57806342966c681461024b57806370a082311461026757806379cc6790146102975761012c565b806306fdde0314610131578063095ea7b31461014f57806318160ddd1461017f57806323b872dd1461019d578063313ce567146101cd575b600080fd5b61013961040f565b6040516101469190612202565b60405180910390f35b61016960048036036101649190810190611b9e565b6104b1565b6040516101769190612126565b60405180910390f35b6101876104cf565b6040516101949190612384565b60405180910390f35b6101b760048036036101b29190810190611ab1565b6104d9565b6040516101c49190612126565b60405180910390f35b6101d5610577565b6040516101e2919061239f565b60405180910390f35b61020560048036036102009190810190611b9e565b61058e565b6040516102129190612126565b60405180910390f35b61023560048036036102309190810190611b9e565b610641565b6040516102429190612126565b60405180910390f35b61026560048036036102609190810190611bda565b6106a6565b005b610281600480360361027c9190810190611a4c565b6106ba565b60405161028e9190612384565b60405180910390f35b6102b160048036036102ac9190810190611b9e565b610703565b005b6102bb610711565b6040516102c89190612202565b60405180910390f35b6102eb60048036036102e69190810190611a4c565b6107b3565b005b6102f561080e565b005b610311600480360361030c9190810190611b9e565b610820565b60405161031e9190612126565b60405180910390f35b610341600480360361033c9190810190611b9e565b6108ed565b60405161034e9190612126565b60405180910390f35b610371600480360361036c9190810190611a4c565b61090b565b60405161037e9190612126565b60405180910390f35b6103a1600480360361039c9190810190611b00565b610928565b005b6103ab610b83565b6040516103b89190612141565b60405180910390f35b6103db60048036036103d69190810190611a75565b610b89565b6040516103e89190612384565b60405180910390f35b6103f9610c10565b6040516104069190612141565b60405180910390f35b606060018054600181600116156101000203166002900480601f0160208091040260200160405190810160405280929190818152602001828054600181600116156101000203166002900480156104a75780601f1061047c576101008083540402835291602001916104a7565b820191906000526020600020905b81548152906001019060200180831161048a57829003601f168201915b5050505050905090565b60006104c56104be610c37565b8484610c3f565b6001905092915050565b6000600654905090565b60006104e6848484610e0a565b7fffffffffffffffffffffffffffffffffffffffffffffffffffffffffffffffff61051885610513610c37565b610b89565b1461056c5761056b84610529610c37565b6105668560405180606001604052806029815260200161260b602991396105578a610552610c37565b610b89565b6110989092919063ffffffff16565b610c3f565b5b600190509392505050565b6000600360009054906101000a900460ff16905090565b600061063761059b610c37565b8461063285600560006105ac610c37565b73ffffffffffffffffffffffffffffffffffffffff1673ffffffffffffffffffffffffffffffffffffffff16815260200190815260200160002060008973ffffffffffffffffffffffffffffffffffffffff1673ffffffffffffffffffffffffffffffffffffffff168152602001908152602001600020546110f390919063ffffffff16565b610c3f565b6001905092915050565b600061065361064e610c37565b61090b565b610692576040517f08c379a0000000000000000000000000000000000000000000000000000000008152600401610689906122a4565b60405180910390fd5b61069c8383611148565b6001905092915050565b6106b76106b1610c37565b826112d2565b50565b6000600460008373ffffffffffffffffffffffffffffffffffffffff1673ffffffffffffffffffffffffffffffffffffffff168152602001908152602001600020549050919050565b61070d8282611476565b5050565b606060028054600181600116156101000203166002900480601f0160208091040260200160405190810160405280929190818152602001828054600181600116156101000203166002900480156107a95780601f1061077e576101008083540402835291602001916107a9565b820191906000526020600020905b81548152906001019060200180831161078c57829003601f168201915b5050505050905090565b6107c36107be610c37565b61090b565b610802576040517f08c379a00000000000000000000000000000000000000000000000000000000081526004016107f9906122a4565b60405180910390fd5b61080b81611545565b50565b61081e610819610c37565b61159f565b565b60006108e361082d610c37565b846108de856040518060600160405280602581526020016126346025913960056000610857610c37565b73ffffffffffffffffffffffffffffffffffffffff1673ffffffffffffffffffffffffffffffffffffffff16815260200190815260200160002060008a73ffffffffffffffffffffffffffffffffffffffff1673ffffffffffffffffffffffffffffffffffffffff168152602001908152602001600020546110989092919063ffffffff16565b610c3f565b6001905092915050565b60006109016108fa610c37565b8484610e0a565b6001905092915050565b60006109218260006115f990919063ffffffff16565b9050919050565b60006109d66007547f6e71edae12b1b97f4d1f60370fef10105fa2faae0126114a169c64845d6126c960001b8a8a8a600860008f73ffffffffffffffffffffffffffffffffffffffff1673ffffffffffffffffffffffffffffffffffffffff1681526020019081526020016000206000815480929190600101919050558b6040516020016109bb9695949392919061215c565b604051602081830303815290604052805190602001206116c1565b90506000600182868686604051600081526020016040526040516109fd94939291906121bd565b6020604051602081039080840390855afa158015610a1f573d6000803e3d6000fd5b505050602060405103519050610aa48973ffffffffffffffffffffffffffffffffffffffff168273ffffffffffffffffffffffffffffffffffffffff16147f5065726d69747461626c650000000000000000000000000000000000000000007f496e76616c6964207369676e6174757265000000000000000000000000000000611705565b610b1f600073ffffffffffffffffffffffffffffffffffffffff168273ffffffffffffffffffffffffffffffffffffffff1614157f5065726d69747461626c650000000000000000000000000000000000000000007f5a65726f20616464726573730000000000000000000000000000000000000000611705565b610b6d864211157f5065726d69747461626c650000000000000000000000000000000000000000007f4578706972656400000000000000000000000000000000000000000000000000611705565b610b78898989610c3f565b505050505050505050565b60075481565b6000600560008473ffffffffffffffffffffffffffffffffffffffff1673ffffffffffffffffffffffffffffffffffffffff16815260200190815260200160002060008373ffffffffffffffffffffffffffffffffffffffff1673ffffffffffffffffffffffffffffffffffffffff16815260200190815260200160002054905092915050565b7f6e71edae12b1b97f4d1f60370fef10105fa2faae0126114a169c64845d6126c960001b81565b600033905090565b600073ffffffffffffffffffffffffffffffffffffffff168373ffffffffffffffffffffffffffffffffffffffff161415610caf576040517f08c379a0000000000000000000000000000000000000000000000000000000008152600401610ca690612344565b60405180910390fd5b600073ffffffffffffffffffffffffffffffffffffffff168273ffffffffffffffffffffffffffffffffffffffff161415610d1f576040517f08c379a0000000000000000000000000000000000000000000000000000000008152600401610d1690612264565b60405180910390fd5b80600560008573ffffffffffffffffffffffffffffffffffffffff1673ffffffffffffffffffffffffffffffffffffffff16815260200190815260200160002060008473ffffffffffffffffffffffffffffffffffffffff1673ffffffffffffffffffffffffffffffffffffffff168152602001908152602001600020819055508173ffffffffffffffffffffffffffffffffffffffff168373ffffffffffffffffffffffffffffffffffffffff167f8c5be1e5ebec7d5bd14f71427d1e84f3dd0314c0f7b2291e5b200ac8c7c3b92583604051610dfd9190612384565b60405180910390a3505050565b600073ffffffffffffffffffffffffffffffffffffffff168373ffffffffffffffffffffffffffffffffffffffff161415610e7a576040517f08c379a0000000000000000000000000000000000000000000000000000000008152600401610e7190612324565b60405180910390fd5b600073ffffffffffffffffffffffffffffffffffffffff168273ffffffffffffffffffffffffffffffffffffffff161415610eea576040517f08c379a0000000000000000000000000000000000000000000000000000000008152600401610ee190612224565b60405180910390fd5b610f56816040518060600160405280602681526020016125c160269139600460008773ffffffffffffffffffffffffffffffffffffffff1673ffffffffffffffffffffffffffffffffffffffff168152602001908152602001600020546110989092919063ffffffff16565b600460008573ffffffffffffffffffffffffffffffffffffffff1673ffffffffffffffffffffffffffffffffffffffff16815260200190815260200160002081905550610feb81600460008573ffffffffffffffffffffffffffffffffffffffff1673ffffffffffffffffffffffffffffffffffffffff168152602001908152602001600020546110f390919063ffffffff16565b600460008473ffffffffffffffffffffffffffffffffffffffff1673ffffffffffffffffffffffffffffffffffffffff168152602001908152602001600020819055508173ffffffffffffffffffffffffffffffffffffffff168373ffffffffffffffffffffffffffffffffffffffff167fddf252ad1be2c89b69c2b068fc378daa952ba7f163c4a11628f55a4df523b3ef8360405161108b9190612384565b60405180910390a3505050565b60008383111582906110e0576040517f08c379a00000000000000000000000000000000000000000000000000000000081526004016110d79190612202565b60405180910390fd5b5060008385039050809150509392505050565b60008082840190508381101561113e576040517f08c379a000000000000000000000000000000000000000000000000000000000815260040161113590612284565b60405180910390fd5b8091505092915050565b600073ffffffffffffffffffffffffffffffffffffffff168273ffffffffffffffffffffffffffffffffffffffff1614156111b8576040517f08c379a00000000000000000000000000000000000000000000000000000000081526004016111af90612364565b60405180910390fd5b6111cd816006546110f390919063ffffffff16565b60068190555061122581600460008573ffffffffffffffffffffffffffffffffffffffff1673ffffffffffffffffffffffffffffffffffffffff168152602001908152602001600020546110f390919063ffffffff16565b600460008473ffffffffffffffffffffffffffffffffffffffff1673ffffffffffffffffffffffffffffffffffffffff168152602001908152602001600020819055508173ffffffffffffffffffffffffffffffffffffffff16600073ffffffffffffffffffffffffffffffffffffffff167fddf252ad1be2c89b69c2b068fc378daa952ba7f163c4a11628f55a4df523b3ef836040516112c69190612384565b60405180910390a35050565b600073ffffffffffffffffffffffffffffffffffffffff168273ffffffffffffffffffffffffffffffffffffffff161415611342576040517f08c379a000000000000000000000000000000000000000000000000000000000815260040161133990612304565b60405180910390fd5b6113ae8160405180606001604052806022815260200161259f60229139600460008673ffffffffffffffffffffffffffffffffffffffff1673ffffffffffffffffffffffffffffffffffffffff168152602001908152602001600020546110989092919063ffffffff16565b600460008473ffffffffffffffffffffffffffffffffffffffff1673ffffffffffffffffffffffffffffffffffffffff168152602001908152602001600020819055506114068160065461178490919063ffffffff16565b600681905550600073ffffffffffffffffffffffffffffffffffffffff168273ffffffffffffffffffffffffffffffffffffffff167fddf252ad1be2c89b69c2b068fc378daa952ba7f163c4a11628f55a4df523b3ef8360405161146a9190612384565b60405180910390a35050565b61148082826112d2565b6115418261148c610c37565b61153c846040518060600160405280602481526020016125e760249139600560008973ffffffffffffffffffffffffffffffffffffffff1673ffffffffffffffffffffffffffffffffffffffff16815260200190815260200160002060006114f2610c37565b73ffffffffffffffffffffffffffffffffffffffff1673ffffffffffffffffffffffffffffffffffffffff168152602001908152602001600020546110989092919063ffffffff16565b610c3f565b5050565b6115598160006117ce90919063ffffffff16565b8073ffffffffffffffffffffffffffffffffffffffff167f6ae172837ea30b801fbfcdd4108aa1d5bf8ff775444fd70256b44e6bf3dfc3f660405160405180910390a250565b6115b381600061187690919063ffffffff16565b8073ffffffffffffffffffffffffffffffffffffffff167fe94479a9f7e1952cc78f2d6baab678adc1b772d936c6583def489e524cb6669260405160405180910390a250565b60008073ffffffffffffffffffffffffffffffffffffffff168273ffffffffffffffffffffffffffffffffffffffff16141561166a576040517f08c379a0000000000000000000000000000000000000000000000000000000008152600401611661906122e4565b60405180910390fd5b8260000160008373ffffffffffffffffffffffffffffffffffffffff1673ffffffffffffffffffffffffffffffffffffffff16815260200190815260200160002060009054906101000a900460ff16905092915050565b60006040517f190100000000000000000000000000000000000000000000000000000000000081528360028201528260228201526042812091505080905092915050565b8261177f576117138261191d565b613a2060f01b6117228361191d565b604051602001611734939291906120f1565b6040516020818303038152906040526040517f08c379a00000000000000000000000000000000000000000000000000000000081526004016117769190612202565b60405180910390fd5b505050565b60006117c683836040518060400160405280601e81526020017f536166654d6174683a207375627472616374696f6e206f766572666c6f770000815250611098565b905092915050565b6117d882826115f9565b15611818576040517f08c379a000000000000000000000000000000000000000000000000000000000815260040161180f90612244565b60405180910390fd5b60018260000160008373ffffffffffffffffffffffffffffffffffffffff1673ffffffffffffffffffffffffffffffffffffffff16815260200190815260200160002060006101000a81548160ff0219169083151502179055505050565b61188082826115f9565b6118bf576040517f08c379a00000000000000000000000000000000000000000000000000000000081526004016118b6906122c4565b60405180910390fd5b60008260000160008373ffffffffffffffffffffffffffffffffffffffff1673ffffffffffffffffffffffffffffffffffffffff16815260200190815260200160002060006101000a81548160ff0219169083151502179055505050565b6060808260405160200161193191906120d6565b60405160208183030381529060405290506000602090505b60008111156119b957808060019003915050600060f81b82828151811061196c57fe5b602001015160f81c60f81b7effffffffffffffffffffffffffffffffffffffffffffffffffffffffffffff1916146119b45760006001820190508083528293505050506119f3565b611949565b5060006040519080825280601f01601f1916602001820160405280156119ee5781602001600182028038833980820191505090505b509150505b919050565b600081359050611a07816124cf565b92915050565b600081359050611a1c816124e6565b92915050565b600081359050611a31816124fd565b92915050565b600081359050611a4681612514565b92915050565b600060208284031215611a5e57600080fd5b6000611a6c848285016119f8565b91505092915050565b60008060408385031215611a8857600080fd5b6000611a96858286016119f8565b9250506020611aa7858286016119f8565b9150509250929050565b600080600060608486031215611ac657600080fd5b6000611ad4868287016119f8565b9350506020611ae5868287016119f8565b9250506040611af686828701611a22565b9150509250925092565b600080600080600080600060e0888a031215611b1b57600080fd5b6000611b298a828b016119f8565b9750506020611b3a8a828b016119f8565b9650506040611b4b8a828b01611a22565b9550506060611b5c8a828b01611a22565b9450506080611b6d8a828b01611a37565b93505060a0611b7e8a828b01611a0d565b92505060c0611b8f8a828b01611a0d565b91505092959891949750929550565b60008060408385031215611bb157600080fd5b6000611bbf858286016119f8565b9250506020611bd085828601611a22565b9150509250929050565b600060208284031215611bec57600080fd5b6000611bfa84828501611a22565b91505092915050565b611c0c816123ec565b82525050565b611c1b816123fe565b82525050565b611c32611c2d8261240a565b6124aa565b82525050565b611c4181612436565b82525050565b611c58611c5382612436565b6124b4565b82525050565b6000611c69826123ba565b611c7381856123d0565b9350611c83818560208601612477565b80840191505092915050565b6000611c9a826123c5565b611ca481856123db565b9350611cb4818560208601612477565b611cbd816124be565b840191505092915050565b6000611cd56023836123db565b91507f45524332303a207472616e7366657220746f20746865207a65726f206164647260008301527f65737300000000000000000000000000000000000000000000000000000000006020830152604082019050919050565b6000611d3b601f836123db565b91507f526f6c65733a206163636f756e7420616c72656164792068617320726f6c65006000830152602082019050919050565b6000611d7b6022836123db565b91507f45524332303a20617070726f766520746f20746865207a65726f20616464726560008301527f73730000000000000000000000000000000000000000000000000000000000006020830152604082019050919050565b6000611de1601b836123db565b91507f536166654d6174683a206164646974696f6e206f766572666c6f7700000000006000830152602082019050919050565b6000611e216030836123db565b91507f4d696e746572526f6c653a2063616c6c657220646f6573206e6f74206861766560008301527f20746865204d696e74657220726f6c65000000000000000000000000000000006020830152604082019050919050565b6000611e876021836123db565b91507f526f6c65733a206163636f756e7420646f6573206e6f74206861766520726f6c60008301527f65000000000000000000000000000000000000000000000000000000000000006020830152604082019050919050565b6000611eed6022836123db565b91507f526f6c65733a206163636f756e7420697320746865207a65726f20616464726560008301527f73730000000000000000000000000000000000000000000000000000000000006020830152604082019050919050565b6000611f536021836123db565b91507f45524332303a206275726e2066726f6d20746865207a65726f2061646472657360008301527f73000000000000000000000000000000000000000000000000000000000000006020830152604082019050919050565b6000611fb96025836123db565b91507f45524332303a207472616e736665722066726f6d20746865207a65726f20616460008301527f64726573730000000000000000000000000000000000000000000000000000006020830152604082019050919050565b600061201f6024836123db565b91507f45524332303a20617070726f76652066726f6d20746865207a65726f2061646460008301527f72657373000000000000000000000000000000000000000000000000000000006020830152604082019050919050565b6000612085601f836123db565b91507f45524332303a206d696e7420746f20746865207a65726f2061646472657373006000830152602082019050919050565b6120c181612460565b82525050565b6120d08161246a565b82525050565b60006120e28284611c47565b60208201915081905092915050565b60006120fd8286611c5e565b91506121098285611c21565b6002820191506121198284611c5e565b9150819050949350505050565b600060208201905061213b6000830184611c12565b92915050565b60006020820190506121566000830184611c38565b92915050565b600060c0820190506121716000830189611c38565b61217e6020830188611c03565b61218b6040830187611c03565b61219860608301866120b8565b6121a560808301856120b8565b6121b260a08301846120b8565b979650505050505050565b60006080820190506121d26000830187611c38565b6121df60208301866120c7565b6121ec6040830185611c38565b6121f96060830184611c38565b95945050505050565b6000602082019050818103600083015261221c8184611c8f565b905092915050565b6000602082019050818103600083015261223d81611cc8565b9050919050565b6000602082019050818103600083015261225d81611d2e565b9050919050565b6000602082019050818103600083015261227d81611d6e565b9050919050565b6000602082019050818103600083015261229d81611dd4565b9050919050565b600060208201905081810360008301526122bd81611e14565b9050919050565b600060208201905081810360008301526122dd81611e7a565b9050919050565b600060208201905081810360008301526122fd81611ee0565b9050919050565b6000602082019050818103600083015261231d81611f46565b9050919050565b6000602082019050818103600083015261233d81611fac565b9050919050565b6000602082019050818103600083015261235d81612012565b9050919050565b6000602082019050818103600083015261237d81612078565b9050919050565b600060208201905061239960008301846120b8565b92915050565b60006020820190506123b460008301846120c7565b92915050565b600081519050919050565b600081519050919050565b600081905092915050565b600082825260208201905092915050565b60006123f782612440565b9050919050565b60008115159050919050565b60007fffff00000000000000000000000000000000000000000000000000000000000082169050919050565b6000819050919050565b600073ffffffffffffffffffffffffffffffffffffffff82169050919050565b6000819050919050565b600060ff82169050919050565b60005b8381101561249557808201518184015260208101905061247a565b838111156124a4576000848401525b50505050565b6000819050919050565b6000819050919050565b6000601f19601f8301169050919050565b6124d8816123ec565b81146124e357600080fd5b50565b6124ef81612436565b81146124fa57600080fd5b50565b61250681612460565b811461251157600080fd5b50565b61251d8161246a565b811461252857600080fd5b50565b60006001905090565b6000807f8b73c3c69bb8fe3d512ecc4cf759cc79239f7b179b0ffacaa9a75d522b39400f60001b9050855160208701208551602087012060405183815282602082015281604082015286606082015285608082015260a0812094505050508191505094935050505056fe45524332303a206275726e20616d6f756e7420657863656564732062616c616e636545524332303a207472616e7366657220616d6f756e7420657863656564732062616c616e636545524332303a206275726e20616d6f756e74206578636565647320616c6c6f77616e6365446f6c6c61723a207472616e7366657220616d6f756e74206578636565647320616c6c6f77616e636545524332303a2064656372656173656420616c6c6f77616e63652062656c6f77207a65726fa365627a7a723158206734b8460df4bb349338b8ec670444aa1df0138af460167a16f64a927eb3d6146c6578706572696d656e74616cf564736f6c63430005110040",
  "source": "/*\n    Copyright 2020 Empty Set Squad <emptysetsquad@protonmail.com>\n\n    Licensed under the Apache License, Version 2.0 (the \"License\");\n    you may not use this file except in compliance with the License.\n    You may obtain a copy of the License at\n\n    http://www.apache.org/licenses/LICENSE-2.0\n\n    Unless required by applicable law or agreed to in writing, software\n    distributed under the License is distributed on an \"AS IS\" BASIS,\n    WITHOUT WARRANTIES OR CONDITIONS OF ANY KIND, either express or implied.\n    See the License for the specific language governing permissions and\n    limitations under the License.\n*/\n\npragma solidity ^0.5.17;\npragma experimental ABIEncoderV2;\n\nimport \"@openzeppelin/contracts/token/ERC20/ERC20Burnable.sol\";\nimport \"@openzeppelin/contracts/token/ERC20/ERC20Detailed.sol\";\nimport \"@openzeppelin/contracts/access/roles/MinterRole.sol\";\nimport \"./Permittable.sol\";\nimport \"./IDollar.sol\";\n\n\ncontract Dollar is IDollar, MinterRole, ERC20Detailed, Permittable, ERC20Burnable  {\n\n    constructor()\n    ERC20Detailed(\"Empty Set Dollar\", \"ESD\", 18)\n    Permittable()\n    public\n    { }\n\n    function mint(address account, uint256 amount) public onlyMinter returns (bool) {\n        _mint(account, amount);\n        return true;\n    }\n\n    function transferFrom(address sender, address recipient, uint256 amount) public returns (bool) {\n        _transfer(sender, recipient, amount);\n        if (allowance(sender, _msgSender()) != uint256(-1)) {\n            _approve(\n                sender,\n                _msgSender(),\n                allowance(sender, _msgSender()).sub(amount, \"Dollar: transfer amount exceeds allowance\"));\n        }\n        return true;\n    }\n}\n",
  "sourcePath": "/Users/gokulalex/Apps/eth_apps/SemiotNet/contracts/token/Dollar.sol",
  "compiler": {
    "name": "solc",
    "version": "0.5.17+commit.d19bba13.Emscripten.clang"
  },
  "schemaVersion": "3.3.3",
  "updatedAt": "2021-02-19T15:49:23.778Z",
  "devdoc": {
    "methods": {
      "allowance(address,address)": {
        "details": "See {IERC20-allowance}."
      },
      "approve(address,uint256)": {
        "details": "See {IERC20-approve}.     * Requirements:     * - `spender` cannot be the zero address."
      },
      "balanceOf(address)": {
        "details": "See {IERC20-balanceOf}."
      },
      "burn(uint256)": {
        "details": "Destroys `amount` tokens from the caller.     * See {ERC20-_burn}."
      },
      "burnFrom(address,uint256)": {
        "details": "See {ERC20-_burnFrom}."
      },
      "decimals()": {
        "details": "Returns the number of decimals used to get its user representation. For example, if `decimals` equals `2`, a balance of `505` tokens should be displayed to a user as `5,05` (`505 / 10 ** 2`).     * Tokens usually opt for a value of 18, imitating the relationship between Ether and Wei.     * NOTE: This information is only used for _display_ purposes: it in no way affects any of the arithmetic of the contract, including {IERC20-balanceOf} and {IERC20-transfer}."
      },
      "decreaseAllowance(address,uint256)": {
        "details": "Atomically decreases the allowance granted to `spender` by the caller.     * This is an alternative to {approve} that can be used as a mitigation for problems described in {IERC20-approve}.     * Emits an {Approval} event indicating the updated allowance.     * Requirements:     * - `spender` cannot be the zero address. - `spender` must have allowance for the caller of at least `subtractedValue`."
      },
      "increaseAllowance(address,uint256)": {
        "details": "Atomically increases the allowance granted to `spender` by the caller.     * This is an alternative to {approve} that can be used as a mitigation for problems described in {IERC20-approve}.     * Emits an {Approval} event indicating the updated allowance.     * Requirements:     * - `spender` cannot be the zero address."
      },
      "name()": {
        "details": "Returns the name of the token."
      },
      "symbol()": {
        "details": "Returns the symbol of the token, usually a shorter version of the name."
      },
      "totalSupply()": {
        "details": "See {IERC20-totalSupply}."
      },
      "transfer(address,uint256)": {
        "details": "See {IERC20-transfer}.     * Requirements:     * - `recipient` cannot be the zero address. - the caller must have a balance of at least `amount`."
      }
    }
  },
  "userdoc": {
    "methods": {}
  }
}