{
  "contractName": "Getters",
  "abi": [
    {
      "constant": true,
      "inputs": [],
      "name": "name",
      "outputs": [
        {
          "internalType": "string",
          "name": "",
          "type": "string"
        }
      ],
      "payable": false,
      "stateMutability": "view",
      "type": "function"
    },
    {
      "constant": true,
      "inputs": [],
      "name": "symbol",
      "outputs": [
        {
          "internalType": "string",
          "name": "",
          "type": "string"
        }
      ],
      "payable": false,
      "stateMutability": "view",
      "type": "function"
    },
    {
      "constant": true,
      "inputs": [],
      "name": "decimals",
      "outputs": [
        {
          "internalType": "uint8",
          "name": "",
          "type": "uint8"
        }
      ],
      "payable": false,
      "stateMutability": "view",
      "type": "function"
    },
    {
      "constant": true,
      "inputs": [
        {
          "internalType": "address",
          "name": "account",
          "type": "address"
        }
      ],
      "name": "balanceOf",
      "outputs": [
        {
          "internalType": "uint256",
          "name": "",
          "type": "uint256"
        }
      ],
      "payable": false,
      "stateMutability": "view",
      "type": "function"
    },
    {
      "constant": true,
      "inputs": [],
      "name": "totalSupply",
      "outputs": [
        {
          "internalType": "uint256",
          "name": "",
          "type": "uint256"
        }
      ],
      "payable": false,
      "stateMutability": "view",
      "type": "function"
    },
    {
      "constant": true,
      "inputs": [
        {
          "internalType": "address",
          "name": "owner",
          "type": "address"
        },
        {
          "internalType": "address",
          "name": "spender",
          "type": "address"
        }
      ],
      "name": "allowance",
      "outputs": [
        {
          "internalType": "uint256",
          "name": "",
          "type": "uint256"
        }
      ],
      "payable": false,
      "stateMutability": "view",
      "type": "function"
    },
    {
      "constant": true,
      "inputs": [],
      "name": "dollar",
      "outputs": [
        {
          "internalType": "contract IDollar",
          "name": "",
          "type": "address"
        }
      ],
      "payable": false,
      "stateMutability": "view",
      "type": "function"
    },
    {
      "constant": true,
      "inputs": [],
      "name": "oracle",
      "outputs": [
        {
          "internalType": "contract IOracle",
          "name": "",
          "type": "address"
        }
      ],
      "payable": false,
      "stateMutability": "view",
      "type": "function"
    },
    {
      "constant": true,
      "inputs": [],
      "name": "pool",
      "outputs": [
        {
          "internalType": "address",
          "name": "",
          "type": "address"
        }
      ],
      "payable": false,
      "stateMutability": "view",
      "type": "function"
    },
    {
      "constant": true,
      "inputs": [],
      "name": "totalBonded",
      "outputs": [
        {
          "internalType": "uint256",
          "name": "",
          "type": "uint256"
        }
      ],
      "payable": false,
      "stateMutability": "view",
      "type": "function"
    },
    {
      "constant": true,
      "inputs": [],
      "name": "totalStaged",
      "outputs": [
        {
          "internalType": "uint256",
          "name": "",
          "type": "uint256"
        }
      ],
      "payable": false,
      "stateMutability": "view",
      "type": "function"
    },
    {
      "constant": true,
      "inputs": [],
      "name": "totalDebt",
      "outputs": [
        {
          "internalType": "uint256",
          "name": "",
          "type": "uint256"
        }
      ],
      "payable": false,
      "stateMutability": "view",
      "type": "function"
    },
    {
      "constant": true,
      "inputs": [],
      "name": "totalRedeemable",
      "outputs": [
        {
          "internalType": "uint256",
          "name": "",
          "type": "uint256"
        }
      ],
      "payable": false,
      "stateMutability": "view",
      "type": "function"
    },
    {
      "constant": true,
      "inputs": [],
      "name": "totalCouponUnderlying",
      "outputs": [
        {
          "internalType": "uint256",
          "name": "",
          "type": "uint256"
        }
      ],
      "payable": false,
      "stateMutability": "view",
      "type": "function"
    },
    {
      "constant": true,
      "inputs": [],
      "name": "totalCoupons",
      "outputs": [
        {
          "internalType": "uint256",
          "name": "",
          "type": "uint256"
        }
      ],
      "payable": false,
      "stateMutability": "view",
      "type": "function"
    },
    {
      "constant": true,
      "inputs": [],
      "name": "totalNet",
      "outputs": [
        {
          "internalType": "uint256",
          "name": "",
          "type": "uint256"
        }
      ],
      "payable": false,
      "stateMutability": "view",
      "type": "function"
    },
    {
      "constant": true,
      "inputs": [],
      "name": "eraStatus",
      "outputs": [
        {
          "internalType": "enum Era.Status",
          "name": "",
          "type": "uint8"
        }
      ],
      "payable": false,
      "stateMutability": "view",
      "type": "function"
    },
    {
      "constant": true,
      "inputs": [],
      "name": "eraStart",
      "outputs": [
        {
          "internalType": "uint256",
          "name": "",
          "type": "uint256"
        }
      ],
      "payable": false,
      "stateMutability": "view",
      "type": "function"
    },
    {
      "constant": true,
      "inputs": [
        {
          "internalType": "address",
          "name": "account",
          "type": "address"
        }
      ],
      "name": "balanceOfStaged",
      "outputs": [
        {
          "internalType": "uint256",
          "name": "",
          "type": "uint256"
        }
      ],
      "payable": false,
      "stateMutability": "view",
      "type": "function"
    },
    {
      "constant": true,
      "inputs": [
        {
          "internalType": "address",
          "name": "account",
          "type": "address"
        }
      ],
      "name": "balanceOfBonded",
      "outputs": [
        {
          "internalType": "uint256",
          "name": "",
          "type": "uint256"
        }
      ],
      "payable": false,
      "stateMutability": "view",
      "type": "function"
    },
    {
      "constant": true,
      "inputs": [
        {
          "internalType": "address",
          "name": "account",
          "type": "address"
        },
        {
          "internalType": "uint256",
          "name": "epoch",
          "type": "uint256"
        }
      ],
      "name": "balanceOfCoupons",
      "outputs": [
        {
          "internalType": "uint256",
          "name": "",
          "type": "uint256"
        }
      ],
      "payable": false,
      "stateMutability": "view",
      "type": "function"
    },
    {
      "constant": true,
      "inputs": [
        {
          "internalType": "address",
          "name": "account",
          "type": "address"
        },
        {
          "internalType": "uint256",
          "name": "epoch",
          "type": "uint256"
        }
      ],
      "name": "balanceOfCouponUnderlying",
      "outputs": [
        {
          "internalType": "uint256",
          "name": "",
          "type": "uint256"
        }
      ],
      "payable": false,
      "stateMutability": "view",
      "type": "function"
    },
    {
      "constant": true,
      "inputs": [
        {
          "internalType": "address",
          "name": "account",
          "type": "address"
        }
      ],
      "name": "statusOf",
      "outputs": [
        {
          "internalType": "enum Account.Status",
          "name": "",
          "type": "uint8"
        }
      ],
      "payable": false,
      "stateMutability": "view",
      "type": "function"
    },
    {
      "constant": true,
      "inputs": [
        {
          "internalType": "address",
          "name": "account",
          "type": "address"
        }
      ],
      "name": "fluidUntil",
      "outputs": [
        {
          "internalType": "uint256",
          "name": "",
          "type": "uint256"
        }
      ],
      "payable": false,
      "stateMutability": "view",
      "type": "function"
    },
    {
      "constant": true,
      "inputs": [
        {
          "internalType": "address",
          "name": "account",
          "type": "address"
        }
      ],
      "name": "lockedUntil",
      "outputs": [
        {
          "internalType": "uint256",
          "name": "",
          "type": "uint256"
        }
      ],
      "payable": false,
      "stateMutability": "view",
      "type": "function"
    },
    {
      "constant": true,
      "inputs": [
        {
          "internalType": "address",
          "name": "owner",
          "type": "address"
        },
        {
          "internalType": "address",
          "name": "spender",
          "type": "address"
        }
      ],
      "name": "allowanceCoupons",
      "outputs": [
        {
          "internalType": "uint256",
          "name": "",
          "type": "uint256"
        }
      ],
      "payable": false,
      "stateMutability": "view",
      "type": "function"
    },
    {
      "constant": true,
      "inputs": [],
      "name": "epoch",
      "outputs": [
        {
          "internalType": "uint256",
          "name": "",
          "type": "uint256"
        }
      ],
      "payable": false,
      "stateMutability": "view",
      "type": "function"
    },
    {
      "constant": true,
      "inputs": [],
      "name": "epochTime",
      "outputs": [
        {
          "internalType": "uint256",
          "name": "",
          "type": "uint256"
        }
      ],
      "payable": false,
      "stateMutability": "view",
      "type": "function"
    },
    {
      "constant": true,
      "inputs": [
        {
          "internalType": "uint256",
          "name": "epoch",
          "type": "uint256"
        }
      ],
      "name": "outstandingCoupons",
      "outputs": [
        {
          "internalType": "uint256",
          "name": "",
          "type": "uint256"
        }
      ],
      "payable": false,
      "stateMutability": "view",
      "type": "function"
    },
    {
      "constant": true,
      "inputs": [
        {
          "internalType": "uint256",
          "name": "epoch",
          "type": "uint256"
        }
      ],
      "name": "couponsExpiration",
      "outputs": [
        {
          "internalType": "uint256",
          "name": "",
          "type": "uint256"
        }
      ],
      "payable": false,
      "stateMutability": "view",
      "type": "function"
    },
    {
      "constant": true,
      "inputs": [
        {
          "internalType": "uint256",
          "name": "epoch",
          "type": "uint256"
        }
      ],
      "name": "expiringCoupons",
      "outputs": [
        {
          "internalType": "uint256",
          "name": "",
          "type": "uint256"
        }
      ],
      "payable": false,
      "stateMutability": "view",
      "type": "function"
    },
    {
      "constant": true,
      "inputs": [
        {
          "internalType": "uint256",
          "name": "epoch",
          "type": "uint256"
        },
        {
          "internalType": "uint256",
          "name": "i",
          "type": "uint256"
        }
      ],
      "name": "expiringCouponsAtIndex",
      "outputs": [
        {
          "internalType": "uint256",
          "name": "",
          "type": "uint256"
        }
      ],
      "payable": false,
      "stateMutability": "view",
      "type": "function"
    },
    {
      "constant": true,
      "inputs": [
        {
          "internalType": "uint256",
          "name": "epoch",
          "type": "uint256"
        }
      ],
      "name": "totalBondedAt",
      "outputs": [
        {
          "internalType": "uint256",
          "name": "",
          "type": "uint256"
        }
      ],
      "payable": false,
      "stateMutability": "view",
      "type": "function"
    },
    {
      "constant": true,
      "inputs": [
        {
          "internalType": "uint256",
          "name": "epoch",
          "type": "uint256"
        }
      ],
      "name": "bootstrappingAt",
      "outputs": [
        {
          "internalType": "bool",
          "name": "",
          "type": "bool"
        }
      ],
      "payable": false,
      "stateMutability": "view",
      "type": "function"
    },
    {
      "constant": true,
      "inputs": [
        {
          "internalType": "address",
          "name": "account",
          "type": "address"
        },
        {
          "internalType": "address",
          "name": "candidate",
          "type": "address"
        }
      ],
      "name": "recordedVote",
      "outputs": [
        {
          "internalType": "enum Candidate.Vote",
          "name": "",
          "type": "uint8"
        }
      ],
      "payable": false,
      "stateMutability": "view",
      "type": "function"
    },
    {
      "constant": true,
      "inputs": [
        {
          "internalType": "address",
          "name": "candidate",
          "type": "address"
        }
      ],
      "name": "startFor",
      "outputs": [
        {
          "internalType": "uint256",
          "name": "",
          "type": "uint256"
        }
      ],
      "payable": false,
      "stateMutability": "view",
      "type": "function"
    },
    {
      "constant": true,
      "inputs": [
        {
          "internalType": "address",
          "name": "candidate",
          "type": "address"
        }
      ],
      "name": "periodFor",
      "outputs": [
        {
          "internalType": "uint256",
          "name": "",
          "type": "uint256"
        }
      ],
      "payable": false,
      "stateMutability": "view",
      "type": "function"
    },
    {
      "constant": true,
      "inputs": [
        {
          "internalType": "address",
          "name": "candidate",
          "type": "address"
        }
      ],
      "name": "approveFor",
      "outputs": [
        {
          "internalType": "uint256",
          "name": "",
          "type": "uint256"
        }
      ],
      "payable": false,
      "stateMutability": "view",
      "type": "function"
    },
    {
      "constant": true,
      "inputs": [
        {
          "internalType": "address",
          "name": "candidate",
          "type": "address"
        }
      ],
      "name": "rejectFor",
      "outputs": [
        {
          "internalType": "uint256",
          "name": "",
          "type": "uint256"
        }
      ],
      "payable": false,
      "stateMutability": "view",
      "type": "function"
    },
    {
      "constant": true,
      "inputs": [
        {
          "internalType": "address",
          "name": "candidate",
          "type": "address"
        }
      ],
      "name": "votesFor",
      "outputs": [
        {
          "internalType": "uint256",
          "name": "",
          "type": "uint256"
        }
      ],
      "payable": false,
      "stateMutability": "view",
      "type": "function"
    },
    {
      "constant": true,
      "inputs": [
        {
          "internalType": "address",
          "name": "candidate",
          "type": "address"
        }
      ],
      "name": "isNominated",
      "outputs": [
        {
          "internalType": "bool",
          "name": "",
          "type": "bool"
        }
      ],
      "payable": false,
      "stateMutability": "view",
      "type": "function"
    },
    {
      "constant": true,
      "inputs": [
        {
          "internalType": "address",
          "name": "candidate",
          "type": "address"
        }
      ],
      "name": "isInitialized",
      "outputs": [
        {
          "internalType": "bool",
          "name": "",
          "type": "bool"
        }
      ],
      "payable": false,
      "stateMutability": "view",
      "type": "function"
    },
    {
      "constant": true,
      "inputs": [],
      "name": "implementation",
      "outputs": [
        {
          "internalType": "address",
          "name": "impl",
          "type": "address"
        }
      ],
      "payable": false,
      "stateMutability": "view",
      "type": "function"
    }
  ],
  "bytecode": "0x608060405234801561001057600080fd5b50611c84806100206000396000f3fe608060405234801561001057600080fd5b50600436106102695760003560e01c806375d5024b11610151578063a6c409f1116100c3578063d60b347f11610087578063d60b347f1461082c578063dd62ed3e1461085c578063edb6b80a1461088c578063f1b7cf49146108aa578063fc7b9c18146108da578063ffbe3b73146108f857610269565b8063a6c409f114610772578063b739a7b814610790578063bc7513e2146107ae578063c9aff70c146107de578063cf0237791461080e57610269565b806395d89b411161011557806395d89b411461067657806397a5d5b5146106945780639a649edc146106c45780639bc289f1146106e25780639f6e1b2614610712578063a50cd8e71461074257610269565b806375d5024b146105aa5780637dc0d1d0146105da578063825ad607146105f857806386cf9f1414610628578063900cf0cf1461065857610269565b80633fbba9a6116101ea57806351adeb57116101ae57806351adeb57146104ae57806351bf21d8146104cc5780635c60da1b146104fc578063646680221461051a5780636a39e3281461054a57806370a082311461057a57610269565b80633fbba9a6146103f45780634303d4f71461042457806344d96e95146104425780634c736099146104605780635053e4611461049057610269565b806318160ddd1161023157806318160ddd1461033a5780631edbcf6c14610358578063313ce56714610376578063353a420c146103945780633a3e6c81146103c457610269565b806306fdde031461026e5780630d78ceb41461028c57806310e95b6c146102bc57806315e14bf6146102ec57806316f0115b1461031c575b600080fd5b610276610928565b60405161028391906119e8565b60405180910390f35b6102a660048036036102a191908101906116fb565b610965565b6040516102b39190611a4a565b60405180910390f35b6102d660048036036102d19190810190611737565b6109c3565b6040516102e39190611a4a565b60405180910390f35b61030660048036036103019190810190611696565b6109e8565b6040516103139190611a4a565b60405180910390f35b610324610a36565b604051610331919061192b565b60405180910390f35b610342610a65565b60405161034f9190611a4a565b60405180910390f35b610360610a74565b60405161036d9190611a4a565b60405180910390f35b61037e610a83565b60405161038b9190611a65565b60405180910390f35b6103ae60048036036103a99190810190611696565b610a8c565b6040516103bb9190611a4a565b60405180910390f35b6103de60048036036103d99190810190611696565b610ada565b6040516103eb9190611946565b60405180910390f35b61040e600480360361040991908101906116bf565b610b2b565b60405161041b91906119cd565b60405180910390f35b61042c610bc4565b6040516104399190611a4a565b60405180910390f35b61044a610bd1565b6040516104579190611a4a565b60405180910390f35b61047a60048036036104759190810190611789565b610be0565b6040516104879190611a4a565b60405180910390f35b610498610c1b565b6040516104a59190611a4a565b60405180910390f35b6104b6610c72565b6040516104c39190611961565b60405180910390f35b6104e660048036036104e19190810190611696565b610ca1565b6040516104f39190611a4a565b60405180910390f35b610504610cef565b604051610511919061192b565b60405180910390f35b610534600480360361052f9190810190611696565b610d20565b6040516105419190611a4a565b60405180910390f35b610564600480360361055f9190810190611737565b610d6e565b6040516105719190611a4a565b60405180910390f35b610594600480360361058f9190810190611696565b610d96565b6040516105a19190611a4a565b60405180910390f35b6105c460048036036105bf9190810190611737565b610de4565b6040516105d19190611946565b60405180910390f35b6105e2610df8565b6040516105ef919061197c565b60405180910390f35b610612600480360361060d9190810190611696565b610e27565b60405161061f9190611a4a565b60405180910390f35b610642600480360361063d9190810190611696565b610e84565b60405161064f9190611a4a565b60405180910390f35b610660610ed2565b60405161066d9190611a4a565b60405180910390f35b61067e610ee1565b60405161068b91906119e8565b60405180910390f35b6106ae60048036036106a99190810190611696565b610f1e565b6040516106bb9190611997565b60405180910390f35b6106cc610fe3565b6040516106d99190611a4a565b60405180910390f35b6106fc60048036036106f79190810190611696565b610ff2565b6040516107099190611a4a565b60405180910390f35b61072c600480360361072791908101906116bf565b611040565b6040516107399190611a4a565b60405180910390f35b61075c60048036036107579190810190611696565b6110cc565b6040516107699190611a4a565b60405180910390f35b61077a6110f8565b6040516107879190611a4a565b60405180910390f35b61079861119d565b6040516107a59190611a4a565b60405180910390f35b6107c860048036036107c391908101906116fb565b6111ad565b6040516107d59190611a4a565b60405180910390f35b6107f860048036036107f39190810190611737565b611228565b6040516108059190611a4a565b60405180910390f35b61081661124d565b6040516108239190611a4a565b60405180910390f35b61084660048036036108419190810190611696565b61125c565b6040516108539190611946565b60405180910390f35b610876600480360361087191908101906116bf565b6112b7565b6040516108839190611a4a565b60405180910390f35b6108946112c2565b6040516108a191906119b2565b60405180910390f35b6108c460048036036108bf9190810190611696565b6112df565b6040516108d19190611a4a565b60405180910390f35b6108e261132d565b6040516108ef9190611a4a565b60405180910390f35b610912600480360361090d9190810190611737565b61133c565b60405161091f9190611a4a565b60405180910390f35b60606040518060400160405280601681526020017f456d7074792053657420446f6c6c6172205374616b6500000000000000000000815250905090565b6000600f60000160008473ffffffffffffffffffffffffffffffffffffffff1673ffffffffffffffffffffffffffffffffffffffff168152602001908152602001600020600083815260200190815260200160002054905092915050565b600080600d016000838152602001908152602001600020600101600101549050919050565b600080600e0160008373ffffffffffffffffffffffffffffffffffffffff1673ffffffffffffffffffffffffffffffffffffffff168152602001908152602001600020600101549050919050565b60008060090160020160009054906101000a900473ffffffffffffffffffffffffffffffffffffffff16905090565b60008060030160000154905090565b60008060030160030154905090565b60006012905090565b600080600e0160008373ffffffffffffffffffffffffffffffffffffffff1673ffffffffffffffffffffffffffffffffffffffff168152602001908152602001600020600301549050919050565b6000806000600e0160008473ffffffffffffffffffffffffffffffffffffffff1673ffffffffffffffffffffffffffffffffffffffff16815260200190815260200160002060000154119050919050565b600080600e0160008373ffffffffffffffffffffffffffffffffffffffff1673ffffffffffffffffffffffffffffffffffffffff16815260200190815260200160002060040160008473ffffffffffffffffffffffffffffffffffffffff1673ffffffffffffffffffffffffffffffffffffffff16815260200190815260200160002060009054906101000a900460ff16905092915050565b6000600f60010154905090565b60008060030160010154905090565b600080600d0160008481526020019081526020016000206001016002018281548110610c0857fe5b9060005260206000200154905092915050565b6000610c25611636565b610c2d61135e565b9050610c37611636565b610c3f61138d565b90508160200151610c4e6113bd565b10610c6157610c5c826113c5565b610c6b565b610c6a816113c5565b5b9250505090565b60008060090160000160009054906101000a900473ffffffffffffffffffffffffffffffffffffffff16905090565b600080600c0160008373ffffffffffffffffffffffffffffffffffffffff1673ffffffffffffffffffffffffffffffffffffffff168152602001908152602001600020600401549050919050565b6000807f360894a13ba1a3210667c828492db98dca3e2076cc3735a920a3ca505d382bbc60001b9050805491505090565b600080600e0160008373ffffffffffffffffffffffffffffffffffffffff1673ffffffffffffffffffffffffffffffffffffffff168152602001908152602001600020600201549050919050565b600080600d016000838152602001908152602001600020600101600201805490509050919050565b600080600c0160008373ffffffffffffffffffffffffffffffffffffffff1673ffffffffffffffffffffffffffffffffffffffff168152602001908152602001600020600101549050919050565b6000610dee611418565b8211159050919050565b60008060090160010160009054906101000a900473ffffffffffffffffffffffffffffffffffffffff16905090565b600080610e32610a65565b90506000811415610e47576000915050610e7f565b610e7b81610e6d610e5786610d96565b610e5f610bd1565b61142190919063ffffffff16565b61149190919063ffffffff16565b9150505b919050565b600080600c0160008373ffffffffffffffffffffffffffffffffffffffff1673ffffffffffffffffffffffffffffffffffffffff168152602001908152602001600020600001549050919050565b60008060000160020154905090565b60606040518060400160405280600481526020017f4553445300000000000000000000000000000000000000000000000000000000815250905090565b6000610f28610ed2565b6000600c0160008473ffffffffffffffffffffffffffffffffffffffff1673ffffffffffffffffffffffffffffffffffffffff168152602001908152602001600020600501541115610f7d5760029050610fde565b6000600c0160008373ffffffffffffffffffffffffffffffffffffffff1673ffffffffffffffffffffffffffffffffffffffff16815260200190815260200160002060040154610fcb610ed2565b1015610fd8576001610fdb565b60005b90505b919050565b60008060030160050154905090565b600080600c0160008373ffffffffffffffffffffffffffffffffffffffff1673ffffffffffffffffffffffffffffffffffffffff168152602001908152602001600020600501549050919050565b600080600c0160008473ffffffffffffffffffffffffffffffffffffffff1673ffffffffffffffffffffffffffffffffffffffff16815260200190815260200160002060030160008373ffffffffffffffffffffffffffffffffffffffff1673ffffffffffffffffffffffffffffffffffffffff16815260200190815260200160002054905092915050565b60006110f16110da83610a8c565b6110e384610d20565b6114db90919063ffffffff16565b9050919050565b600061119861110561132d565b61110d610c72565b73ffffffffffffffffffffffffffffffffffffffff166318160ddd6040518163ffffffff1660e01b815260040160206040518083038186803b15801561115257600080fd5b505afa158015611166573d6000803e3d6000fd5b505050506040513d601f19601f8201168201806040525061118a9190810190611760565b61153090919063ffffffff16565b905090565b6000601160000160010154905090565b6000806111b983611228565b14156111c85760009050611222565b6000600c0160008473ffffffffffffffffffffffffffffffffffffffff1673ffffffffffffffffffffffffffffffffffffffff16815260200190815260200160002060020160008381526020019081526020016000205490505b92915050565b600080600d016000838152602001908152602001600020600101600001549050919050565b60008060030160020154905090565b600080600e0160008373ffffffffffffffffffffffffffffffffffffffff1673ffffffffffffffffffffffffffffffffffffffff16815260200190815260200160002060050160009054906101000a900460ff169050919050565b600080905092915050565b6000601160000160000160009054906101000a900460ff16905090565b600080600e0160008373ffffffffffffffffffffffffffffffffffffffff1673ffffffffffffffffffffffffffffffffffffffff168152602001908152602001600020600001549050919050565b60008060030160040154905090565b600080600d016000838152602001908152602001600020600001549050919050565b611366611636565b6040518060600160405280606a8152602001635f7fa8008152602001617080815250905090565b611395611636565b6040518060600160405280605b8152602001635f6be180815260200162015180815250905090565b600042905090565b6000611411826000015161140384604001516113f586602001516113e76113bd565b61153090919063ffffffff16565b61149190919063ffffffff16565b6114db90919063ffffffff16565b9050919050565b6000605a905090565b600080831415611434576000905061148b565b600082840290508284828161144557fe5b0414611486576040517f08c379a000000000000000000000000000000000000000000000000000000000815260040161147d90611a2a565b60405180910390fd5b809150505b92915050565b60006114d383836040518060400160405280601a81526020017f536166654d6174683a206469766973696f6e206279207a65726f00000000000081525061157a565b905092915050565b600080828401905083811015611526576040517f08c379a000000000000000000000000000000000000000000000000000000000815260040161151d90611a0a565b60405180910390fd5b8091505092915050565b600061157283836040518060400160405280601e81526020017f536166654d6174683a207375627472616374696f6e206f766572666c6f7700008152506115db565b905092915050565b600080831182906115c1576040517f08c379a00000000000000000000000000000000000000000000000000000000081526004016115b891906119e8565b60405180910390fd5b5060008385816115cd57fe5b049050809150509392505050565b6000838311158290611623576040517f08c379a000000000000000000000000000000000000000000000000000000000815260040161161a91906119e8565b60405180910390fd5b5060008385039050809150509392505050565b60405180606001604052806000815260200160008152602001600081525090565b60008135905061166681611c13565b92915050565b60008135905061167b81611c2a565b92915050565b60008151905061169081611c2a565b92915050565b6000602082840312156116a857600080fd5b60006116b684828501611657565b91505092915050565b600080604083850312156116d257600080fd5b60006116e085828601611657565b92505060206116f185828601611657565b9150509250929050565b6000806040838503121561170e57600080fd5b600061171c85828601611657565b925050602061172d8582860161166c565b9150509250929050565b60006020828403121561174957600080fd5b60006117578482850161166c565b91505092915050565b60006020828403121561177257600080fd5b600061178084828501611681565b91505092915050565b6000806040838503121561179c57600080fd5b60006117aa8582860161166c565b92505060206117bb8582860161166c565b9150509250929050565b6117ce81611a9c565b82525050565b6117dd81611aae565b82525050565b6117ec81611b2a565b82525050565b6117fb81611b4e565b82525050565b61180a81611b72565b82525050565b61181981611b84565b82525050565b61182881611b96565b82525050565b600061183982611a80565b6118438185611a8b565b9350611853818560208601611ba8565b61185c81611bdb565b840191505092915050565b6000611874601b83611a8b565b91507f536166654d6174683a206164646974696f6e206f766572666c6f7700000000006000830152602082019050919050565b60006118b4602183611a8b565b91507f536166654d6174683a206d756c7469706c69636174696f6e206f766572666c6f60008301527f77000000000000000000000000000000000000000000000000000000000000006020830152604082019050919050565b61191681611b13565b82525050565b61192581611b1d565b82525050565b600060208201905061194060008301846117c5565b92915050565b600060208201905061195b60008301846117d4565b92915050565b600060208201905061197660008301846117e3565b92915050565b600060208201905061199160008301846117f2565b92915050565b60006020820190506119ac6000830184611801565b92915050565b60006020820190506119c76000830184611810565b92915050565b60006020820190506119e2600083018461181f565b92915050565b60006020820190508181036000830152611a02818461182e565b905092915050565b60006020820190508181036000830152611a2381611867565b9050919050565b60006020820190508181036000830152611a43816118a7565b9050919050565b6000602082019050611a5f600083018461190d565b92915050565b6000602082019050611a7a600083018461191c565b92915050565b600081519050919050565b600082825260208201905092915050565b6000611aa782611af3565b9050919050565b60008115159050919050565b6000819050611ac882611bec565b919050565b6000819050611adb82611bf9565b919050565b6000819050611aee82611c06565b919050565b600073ffffffffffffffffffffffffffffffffffffffff82169050919050565b6000819050919050565b600060ff82169050919050565b6000611b3582611b3c565b9050919050565b6000611b4782611af3565b9050919050565b6000611b5982611b60565b9050919050565b6000611b6b82611af3565b9050919050565b6000611b7d82611aba565b9050919050565b6000611b8f82611acd565b9050919050565b6000611ba182611ae0565b9050919050565b60005b83811015611bc6578082015181840152602081019050611bab565b83811115611bd5576000848401525b50505050565b6000601f19601f8301169050919050565b60038110611bf657fe5b50565b60028110611c0357fe5b50565b60038110611c1057fe5b50565b611c1c81611a9c565b8114611c2757600080fd5b50565b611c3381611b13565b8114611c3e57600080fd5b5056fea365627a7a723158203915169ccd4f65bfdb7eb9b51e21c0dc86220a278ec054b1cdddd87fb4a020956c6578706572696d656e74616cf564736f6c63430005110040",
  "source": "/*\n    Copyright 2020 Empty Set Squad <emptysetsquad@protonmail.com>\n\n    Licensed under the Apache License, Version 2.0 (the \"License\");\n    you may not use this file except in compliance with the License.\n    You may obtain a copy of the License at\n\n    http://www.apache.org/licenses/LICENSE-2.0\n\n    Unless required by applicable law or agreed to in writing, software\n    distributed under the License is distributed on an \"AS IS\" BASIS,\n    WITHOUT WARRANTIES OR CONDITIONS OF ANY KIND, either express or implied.\n    See the License for the specific language governing permissions and\n    limitations under the License.\n*/\n\npragma solidity ^0.5.17;\npragma experimental ABIEncoderV2;\n\nimport \"@openzeppelin/contracts/math/SafeMath.sol\";\nimport \"./State.sol\";\nimport \"../Constants.sol\";\n\ncontract Getters is State {\n    using SafeMath for uint256;\n    using Decimal for Decimal.D256;\n\n    bytes32 private constant IMPLEMENTATION_SLOT = 0x360894a13ba1a3210667c828492db98dca3e2076cc3735a920a3ca505d382bbc;\n\n    /**\n     * ERC20 Interface\n     */\n\n    function name() public view returns (string memory) {\n        return \"Empty Set Dollar Stake\";\n    }\n\n    function symbol() public view returns (string memory) {\n        return \"ESDS\";\n    }\n\n    function decimals() public view returns (uint8) {\n        return 18;\n    }\n\n    function balanceOf(address account) public view returns (uint256) {\n        return _state.accounts[account].balance;\n    }\n\n    function totalSupply() public view returns (uint256) {\n        return _state.balance.supply;\n    }\n\n    function allowance(address owner, address spender) external view returns (uint256) {\n        return 0;\n    }\n\n    /**\n     * Global\n     */\n\n    function dollar() public view returns (IDollar) {\n        return _state.provider.dollar;\n    }\n\n    function oracle() public view returns (IOracle) {\n        return _state.provider.oracle;\n    }\n\n    function pool() public view returns (address) {\n        return _state.provider.pool;\n    }\n\n    function totalBonded() public view returns (uint256) {\n        return _state.balance.bonded;\n    }\n\n    function totalStaged() public view returns (uint256) {\n        return _state.balance.staged;\n    }\n\n    function totalDebt() public view returns (uint256) {\n        return _state.balance.debt;\n    }\n\n    function totalRedeemable() public view returns (uint256) {\n        return _state.balance.redeemable;\n    }\n\n    function totalCouponUnderlying() public view returns (uint256) {\n        return _state16.couponUnderlying;\n    }\n\n    function totalCoupons() public view returns (uint256) {\n        return _state.balance.coupons;\n    }\n\n    function totalNet() public view returns (uint256) {\n        return dollar().totalSupply().sub(totalDebt());\n    }\n\n    function eraStatus() public view returns (Era.Status) {\n        return _state18.era.status;\n    }\n\n    function eraStart() public view returns (uint256) {\n        return _state18.era.start;\n    }\n\n    /**\n     * Account\n     */\n\n    function balanceOfStaged(address account) public view returns (uint256) {\n        return _state.accounts[account].staged;\n    }\n\n    function balanceOfBonded(address account) public view returns (uint256) {\n        uint256 totalSupply = totalSupply();\n        if (totalSupply == 0) {\n            return 0;\n        }\n        return totalBonded().mul(balanceOf(account)).div(totalSupply);\n    }\n\n    function balanceOfCoupons(address account, uint256 epoch) public view returns (uint256) {\n        if (outstandingCoupons(epoch) == 0) {\n            return 0;\n        }\n        return _state.accounts[account].coupons[epoch];\n    }\n\n    function balanceOfCouponUnderlying(address account, uint256 epoch) public view returns (uint256) {\n        return _state16.couponUnderlyingByAccount[account][epoch];\n    }\n\n    function statusOf(address account) public view returns (Account.Status) {\n        if (_state.accounts[account].lockedUntil > epoch()) {\n            return Account.Status.Locked;\n        }\n\n        return epoch() >= _state.accounts[account].fluidUntil ? Account.Status.Frozen : Account.Status.Fluid;\n    }\n\n    function fluidUntil(address account) public view returns (uint256) {\n        return _state.accounts[account].fluidUntil;\n    }\n\n    function lockedUntil(address account) public view returns (uint256) {\n        return _state.accounts[account].lockedUntil;\n    }\n\n    function allowanceCoupons(address owner, address spender) public view returns (uint256) {\n        return _state.accounts[owner].couponAllowances[spender];\n    }\n\n    /**\n     * Epoch\n     */\n\n    function epoch() public view returns (uint256) {\n        return _state.epoch.current;\n    }\n\n    function epochTime() public view returns (uint256) {\n        Constants.EpochStrategy memory current = Constants.getCurrentEpochStrategy();\n        Constants.EpochStrategy memory previous = Constants.getPreviousEpochStrategy();\n\n        return blockTimestamp() < current.start ?\n            epochTimeWithStrategy(previous) :\n            epochTimeWithStrategy(current);\n    }\n\n    function epochTimeWithStrategy(Constants.EpochStrategy memory strategy) private view returns (uint256) {\n        return blockTimestamp()\n            .sub(strategy.start)\n            .div(strategy.period)\n            .add(strategy.offset);\n    }\n\n    // Overridable for testing\n    function blockTimestamp() internal view returns (uint256) {\n        return block.timestamp;\n    }\n\n    function outstandingCoupons(uint256 epoch) public view returns (uint256) {\n        return _state.epochs[epoch].coupons.outstanding;\n    }\n\n    function couponsExpiration(uint256 epoch) public view returns (uint256) {\n        return _state.epochs[epoch].coupons.expiration;\n    }\n\n    function expiringCoupons(uint256 epoch) public view returns (uint256) {\n        return _state.epochs[epoch].coupons.expiring.length;\n    }\n\n    function expiringCouponsAtIndex(uint256 epoch, uint256 i) public view returns (uint256) {\n        return _state.epochs[epoch].coupons.expiring[i];\n    }\n\n    function totalBondedAt(uint256 epoch) public view returns (uint256) {\n        return _state.epochs[epoch].bonded;\n    }\n\n    function bootstrappingAt(uint256 epoch) public view returns (bool) {\n        return epoch <= Constants.getBootstrappingPeriod();\n    }\n\n    /**\n     * Governance\n     */\n\n    function recordedVote(address account, address candidate) public view returns (Candidate.Vote) {\n        return _state.candidates[candidate].votes[account];\n    }\n\n    function startFor(address candidate) public view returns (uint256) {\n        return _state.candidates[candidate].start;\n    }\n\n    function periodFor(address candidate) public view returns (uint256) {\n        return _state.candidates[candidate].period;\n    }\n\n    function approveFor(address candidate) public view returns (uint256) {\n        return _state.candidates[candidate].approve;\n    }\n\n    function rejectFor(address candidate) public view returns (uint256) {\n        return _state.candidates[candidate].reject;\n    }\n\n    function votesFor(address candidate) public view returns (uint256) {\n        return approveFor(candidate).add(rejectFor(candidate));\n    }\n\n    function isNominated(address candidate) public view returns (bool) {\n        return _state.candidates[candidate].start > 0;\n    }\n\n    function isInitialized(address candidate) public view returns (bool) {\n        return _state.candidates[candidate].initialized;\n    }\n\n    function implementation() public view returns (address impl) {\n        bytes32 slot = IMPLEMENTATION_SLOT;\n        assembly {\n            impl := sload(slot)\n        }\n    }\n}\n",
  "sourcePath": "/Users/gokulalex/Apps/eth_apps/SemiotNet/contracts/dao/Getters.sol",
  "compiler": {
    "name": "solc",
    "version": "0.5.17+commit.d19bba13.Emscripten.clang"
  },
  "schemaVersion": "3.3.3",
  "updatedAt": "2021-02-19T15:49:23.511Z",
  "devdoc": {
    "methods": {}
  },
  "userdoc": {
    "methods": {
      "balanceOfStaged(address)": {
        "notice": "Account"
      },
      "dollar()": {
        "notice": "Global"
      },
      "epoch()": {
        "notice": "Epoch"
      },
      "name()": {
        "notice": "ERC20 Interface"
      },
      "recordedVote(address,address)": {
        "notice": "Governance"
      }
    }
  }
}