{
  "contractName": "Implementation",
  "abi": [
    {
      "anonymous": false,
      "inputs": [
        {
          "indexed": true,
          "internalType": "uint256",
          "name": "epoch",
          "type": "uint256"
        },
        {
          "indexed": false,
          "internalType": "uint256",
          "name": "block",
          "type": "uint256"
        },
        {
          "indexed": false,
          "internalType": "uint256",
          "name": "timestamp",
          "type": "uint256"
        }
      ],
      "name": "Advance",
      "type": "event"
    },
    {
      "anonymous": false,
      "inputs": [
        {
          "indexed": true,
          "internalType": "address",
          "name": "account",
          "type": "address"
        },
        {
          "indexed": false,
          "internalType": "uint256",
          "name": "start",
          "type": "uint256"
        },
        {
          "indexed": false,
          "internalType": "uint256",
          "name": "value",
          "type": "uint256"
        },
        {
          "indexed": false,
          "internalType": "uint256",
          "name": "valueUnderlying",
          "type": "uint256"
        }
      ],
      "name": "Bond",
      "type": "event"
    },
    {
      "anonymous": false,
      "inputs": [
        {
          "indexed": true,
          "internalType": "address",
          "name": "account",
          "type": "address"
        },
        {
          "indexed": true,
          "internalType": "address",
          "name": "candidate",
          "type": "address"
        }
      ],
      "name": "Commit",
      "type": "event"
    },
    {
      "anonymous": false,
      "inputs": [
        {
          "indexed": true,
          "internalType": "address",
          "name": "owner",
          "type": "address"
        },
        {
          "indexed": true,
          "internalType": "address",
          "name": "spender",
          "type": "address"
        },
        {
          "indexed": false,
          "internalType": "uint256",
          "name": "value",
          "type": "uint256"
        }
      ],
      "name": "CouponApproval",
      "type": "event"
    },
    {
      "anonymous": false,
      "inputs": [
        {
          "indexed": true,
          "internalType": "uint256",
          "name": "epoch",
          "type": "uint256"
        },
        {
          "indexed": false,
          "internalType": "uint256",
          "name": "couponsExpired",
          "type": "uint256"
        },
        {
          "indexed": false,
          "internalType": "uint256",
          "name": "lessRedeemable",
          "type": "uint256"
        },
        {
          "indexed": false,
          "internalType": "uint256",
          "name": "lessDebt",
          "type": "uint256"
        },
        {
          "indexed": false,
          "internalType": "uint256",
          "name": "newBonded",
          "type": "uint256"
        }
      ],
      "name": "CouponExpiration",
      "type": "event"
    },
    {
      "anonymous": false,
      "inputs": [
        {
          "indexed": true,
          "internalType": "address",
          "name": "account",
          "type": "address"
        },
        {
          "indexed": true,
          "internalType": "uint256",
          "name": "epoch",
          "type": "uint256"
        },
        {
          "indexed": false,
          "internalType": "uint256",
          "name": "dollarAmount",
          "type": "uint256"
        },
        {
          "indexed": false,
          "internalType": "uint256",
          "name": "couponAmount",
          "type": "uint256"
        }
      ],
      "name": "CouponPurchase",
      "type": "event"
    },
    {
      "anonymous": false,
      "inputs": [
        {
          "indexed": true,
          "internalType": "address",
          "name": "account",
          "type": "address"
        },
        {
          "indexed": true,
          "internalType": "uint256",
          "name": "epoch",
          "type": "uint256"
        },
        {
          "indexed": false,
          "internalType": "uint256",
          "name": "amount",
          "type": "uint256"
        },
        {
          "indexed": false,
          "internalType": "uint256",
          "name": "couponAmount",
          "type": "uint256"
        }
      ],
      "name": "CouponRedemption",
      "type": "event"
    },
    {
      "anonymous": false,
      "inputs": [
        {
          "indexed": true,
          "internalType": "address",
          "name": "from",
          "type": "address"
        },
        {
          "indexed": true,
          "internalType": "address",
          "name": "to",
          "type": "address"
        },
        {
          "indexed": true,
          "internalType": "uint256",
          "name": "epoch",
          "type": "uint256"
        },
        {
          "indexed": false,
          "internalType": "uint256",
          "name": "value",
          "type": "uint256"
        }
      ],
      "name": "CouponTransfer",
      "type": "event"
    },
    {
      "anonymous": false,
      "inputs": [
        {
          "indexed": true,
          "internalType": "address",
          "name": "account",
          "type": "address"
        },
        {
          "indexed": false,
          "internalType": "uint256",
          "name": "value",
          "type": "uint256"
        }
      ],
      "name": "Deposit",
      "type": "event"
    },
    {
      "anonymous": false,
      "inputs": [
        {
          "indexed": true,
          "internalType": "address",
          "name": "account",
          "type": "address"
        },
        {
          "indexed": false,
          "internalType": "uint256",
          "name": "amount",
          "type": "uint256"
        }
      ],
      "name": "Incentivization",
      "type": "event"
    },
    {
      "anonymous": false,
      "inputs": [
        {
          "indexed": true,
          "internalType": "address",
          "name": "candidate",
          "type": "address"
        },
        {
          "indexed": true,
          "internalType": "address",
          "name": "account",
          "type": "address"
        },
        {
          "indexed": true,
          "internalType": "uint256",
          "name": "start",
          "type": "uint256"
        },
        {
          "indexed": false,
          "internalType": "uint256",
          "name": "period",
          "type": "uint256"
        }
      ],
      "name": "Proposal",
      "type": "event"
    },
    {
      "anonymous": false,
      "inputs": [
        {
          "indexed": true,
          "internalType": "uint256",
          "name": "epoch",
          "type": "uint256"
        },
        {
          "indexed": false,
          "internalType": "uint256",
          "name": "rate",
          "type": "uint256"
        },
        {
          "indexed": false,
          "internalType": "uint256",
          "name": "amount",
          "type": "uint256"
        }
      ],
      "name": "StabilityReward",
      "type": "event"
    },
    {
      "anonymous": false,
      "inputs": [
        {
          "indexed": true,
          "internalType": "uint256",
          "name": "epoch",
          "type": "uint256"
        },
        {
          "indexed": false,
          "internalType": "uint256",
          "name": "price",
          "type": "uint256"
        },
        {
          "indexed": false,
          "internalType": "uint256",
          "name": "newDebt",
          "type": "uint256"
        }
      ],
      "name": "SupplyDecrease",
      "type": "event"
    },
    {
      "anonymous": false,
      "inputs": [
        {
          "indexed": true,
          "internalType": "uint256",
          "name": "epoch",
          "type": "uint256"
        },
        {
          "indexed": false,
          "internalType": "uint256",
          "name": "price",
          "type": "uint256"
        },
        {
          "indexed": false,
          "internalType": "uint256",
          "name": "newRedeemable",
          "type": "uint256"
        },
        {
          "indexed": false,
          "internalType": "uint256",
          "name": "lessDebt",
          "type": "uint256"
        },
        {
          "indexed": false,
          "internalType": "uint256",
          "name": "newBonded",
          "type": "uint256"
        }
      ],
      "name": "SupplyIncrease",
      "type": "event"
    },
    {
      "anonymous": false,
      "inputs": [
        {
          "indexed": true,
          "internalType": "uint256",
          "name": "epoch",
          "type": "uint256"
        }
      ],
      "name": "SupplyNeutral",
      "type": "event"
    },
    {
      "anonymous": false,
      "inputs": [
        {
          "indexed": true,
          "internalType": "address",
          "name": "from",
          "type": "address"
        },
        {
          "indexed": true,
          "internalType": "address",
          "name": "to",
          "type": "address"
        },
        {
          "indexed": false,
          "internalType": "uint256",
          "name": "value",
          "type": "uint256"
        }
      ],
      "name": "Transfer",
      "type": "event"
    },
    {
      "anonymous": false,
      "inputs": [
        {
          "indexed": true,
          "internalType": "address",
          "name": "account",
          "type": "address"
        },
        {
          "indexed": false,
          "internalType": "uint256",
          "name": "start",
          "type": "uint256"
        },
        {
          "indexed": false,
          "internalType": "uint256",
          "name": "value",
          "type": "uint256"
        },
        {
          "indexed": false,
          "internalType": "uint256",
          "name": "valueUnderlying",
          "type": "uint256"
        }
      ],
      "name": "Unbond",
      "type": "event"
    },
    {
      "anonymous": false,
      "inputs": [
        {
          "indexed": true,
          "internalType": "address",
          "name": "implementation",
          "type": "address"
        }
      ],
      "name": "Upgraded",
      "type": "event"
    },
    {
      "anonymous": false,
      "inputs": [
        {
          "indexed": true,
          "internalType": "address",
          "name": "account",
          "type": "address"
        },
        {
          "indexed": true,
          "internalType": "address",
          "name": "candidate",
          "type": "address"
        },
        {
          "indexed": false,
          "internalType": "enum Candidate.Vote",
          "name": "vote",
          "type": "uint8"
        },
        {
          "indexed": false,
          "internalType": "uint256",
          "name": "bonded",
          "type": "uint256"
        }
      ],
      "name": "Vote",
      "type": "event"
    },
    {
      "anonymous": false,
      "inputs": [
        {
          "indexed": true,
          "internalType": "address",
          "name": "account",
          "type": "address"
        },
        {
          "indexed": false,
          "internalType": "uint256",
          "name": "value",
          "type": "uint256"
        }
      ],
      "name": "Withdraw",
      "type": "event"
    },
    {
      "constant": true,
      "inputs": [
        {
          "internalType": "address",
          "name": "owner",
          "type": "address"
        },
        {
          "internalType": "address",
          "name": "spender",
          "type": "address"
        }
      ],
      "name": "allowance",
      "outputs": [
        {
          "internalType": "uint256",
          "name": "",
          "type": "uint256"
        }
      ],
      "payable": false,
      "stateMutability": "view",
      "type": "function"
    },
    {
      "constant": true,
      "inputs": [
        {
          "internalType": "address",
          "name": "owner",
          "type": "address"
        },
        {
          "internalType": "address",
          "name": "spender",
          "type": "address"
        }
      ],
      "name": "allowanceCoupons",
      "outputs": [
        {
          "internalType": "uint256",
          "name": "",
          "type": "uint256"
        }
      ],
      "payable": false,
      "stateMutability": "view",
      "type": "function"
    },
    {
      "constant": false,
      "inputs": [
        {
          "internalType": "address",
          "name": "spender",
          "type": "address"
        },
        {
          "internalType": "uint256",
          "name": "amount",
          "type": "uint256"
        }
      ],
      "name": "approve",
      "outputs": [
        {
          "internalType": "bool",
          "name": "",
          "type": "bool"
        }
      ],
      "payable": false,
      "stateMutability": "nonpayable",
      "type": "function"
    },
    {
      "constant": false,
      "inputs": [
        {
          "internalType": "address",
          "name": "spender",
          "type": "address"
        },
        {
          "internalType": "uint256",
          "name": "amount",
          "type": "uint256"
        }
      ],
      "name": "approveCoupons",
      "outputs": [],
      "payable": false,
      "stateMutability": "nonpayable",
      "type": "function"
    },
    {
      "constant": true,
      "inputs": [
        {
          "internalType": "address",
          "name": "candidate",
          "type": "address"
        }
      ],
      "name": "approveFor",
      "outputs": [
        {
          "internalType": "uint256",
          "name": "",
          "type": "uint256"
        }
      ],
      "payable": false,
      "stateMutability": "view",
      "type": "function"
    },
    {
      "constant": true,
      "inputs": [
        {
          "internalType": "address",
          "name": "account",
          "type": "address"
        }
      ],
      "name": "balanceOf",
      "outputs": [
        {
          "internalType": "uint256",
          "name": "",
          "type": "uint256"
        }
      ],
      "payable": false,
      "stateMutability": "view",
      "type": "function"
    },
    {
      "constant": true,
      "inputs": [
        {
          "internalType": "address",
          "name": "account",
          "type": "address"
        }
      ],
      "name": "balanceOfBonded",
      "outputs": [
        {
          "internalType": "uint256",
          "name": "",
          "type": "uint256"
        }
      ],
      "payable": false,
      "stateMutability": "view",
      "type": "function"
    },
    {
      "constant": true,
      "inputs": [
        {
          "internalType": "address",
          "name": "account",
          "type": "address"
        },
        {
          "internalType": "uint256",
          "name": "epoch",
          "type": "uint256"
        }
      ],
      "name": "balanceOfCouponUnderlying",
      "outputs": [
        {
          "internalType": "uint256",
          "name": "",
          "type": "uint256"
        }
      ],
      "payable": false,
      "stateMutability": "view",
      "type": "function"
    },
    {
      "constant": true,
      "inputs": [
        {
          "internalType": "address",
          "name": "account",
          "type": "address"
        },
        {
          "internalType": "uint256",
          "name": "epoch",
          "type": "uint256"
        }
      ],
      "name": "balanceOfCoupons",
      "outputs": [
        {
          "internalType": "uint256",
          "name": "",
          "type": "uint256"
        }
      ],
      "payable": false,
      "stateMutability": "view",
      "type": "function"
    },
    {
      "constant": true,
      "inputs": [
        {
          "internalType": "address",
          "name": "account",
          "type": "address"
        }
      ],
      "name": "balanceOfStaged",
      "outputs": [
        {
          "internalType": "uint256",
          "name": "",
          "type": "uint256"
        }
      ],
      "payable": false,
      "stateMutability": "view",
      "type": "function"
    },
    {
      "constant": false,
      "inputs": [
        {
          "internalType": "uint256",
          "name": "value",
          "type": "uint256"
        }
      ],
      "name": "bond",
      "outputs": [],
      "payable": false,
      "stateMutability": "nonpayable",
      "type": "function"
    },
    {
      "constant": true,
      "inputs": [
        {
          "internalType": "uint256",
          "name": "epoch",
          "type": "uint256"
        }
      ],
      "name": "bootstrappingAt",
      "outputs": [
        {
          "internalType": "bool",
          "name": "",
          "type": "bool"
        }
      ],
      "payable": false,
      "stateMutability": "view",
      "type": "function"
    },
    {
      "constant": false,
      "inputs": [
        {
          "internalType": "address",
          "name": "candidate",
          "type": "address"
        }
      ],
      "name": "commit",
      "outputs": [],
      "payable": false,
      "stateMutability": "nonpayable",
      "type": "function"
    },
    {
      "constant": true,
      "inputs": [
        {
          "internalType": "uint256",
          "name": "amount",
          "type": "uint256"
        }
      ],
      "name": "couponPremium",
      "outputs": [
        {
          "internalType": "uint256",
          "name": "",
          "type": "uint256"
        }
      ],
      "payable": false,
      "stateMutability": "view",
      "type": "function"
    },
    {
      "constant": true,
      "inputs": [
        {
          "internalType": "uint256",
          "name": "epoch",
          "type": "uint256"
        }
      ],
      "name": "couponsExpiration",
      "outputs": [
        {
          "internalType": "uint256",
          "name": "",
          "type": "uint256"
        }
      ],
      "payable": false,
      "stateMutability": "view",
      "type": "function"
    },
    {
      "constant": true,
      "inputs": [],
      "name": "decimals",
      "outputs": [
        {
          "internalType": "uint8",
          "name": "",
          "type": "uint8"
        }
      ],
      "payable": false,
      "stateMutability": "view",
      "type": "function"
    },
    {
      "constant": false,
      "inputs": [
        {
          "internalType": "uint256",
          "name": "value",
          "type": "uint256"
        }
      ],
      "name": "deposit",
      "outputs": [],
      "payable": false,
      "stateMutability": "nonpayable",
      "type": "function"
    },
    {
      "constant": true,
      "inputs": [],
      "name": "dollar",
      "outputs": [
        {
          "internalType": "contract IDollar",
          "name": "",
          "type": "address"
        }
      ],
      "payable": false,
      "stateMutability": "view",
      "type": "function"
    },
    {
      "constant": false,
      "inputs": [
        {
          "internalType": "address",
          "name": "candidate",
          "type": "address"
        }
      ],
      "name": "emergencyCommit",
      "outputs": [],
      "payable": false,
      "stateMutability": "nonpayable",
      "type": "function"
    },
    {
      "constant": true,
      "inputs": [],
      "name": "epoch",
      "outputs": [
        {
          "internalType": "uint256",
          "name": "",
          "type": "uint256"
        }
      ],
      "payable": false,
      "stateMutability": "view",
      "type": "function"
    },
    {
      "constant": true,
      "inputs": [],
      "name": "epochTime",
      "outputs": [
        {
          "internalType": "uint256",
          "name": "",
          "type": "uint256"
        }
      ],
      "payable": false,
      "stateMutability": "view",
      "type": "function"
    },
    {
      "constant": true,
      "inputs": [],
      "name": "eraStart",
      "outputs": [
        {
          "internalType": "uint256",
          "name": "",
          "type": "uint256"
        }
      ],
      "payable": false,
      "stateMutability": "view",
      "type": "function"
    },
    {
      "constant": true,
      "inputs": [],
      "name": "eraStatus",
      "outputs": [
        {
          "internalType": "enum Era.Status",
          "name": "",
          "type": "uint8"
        }
      ],
      "payable": false,
      "stateMutability": "view",
      "type": "function"
    },
    {
      "constant": true,
      "inputs": [
        {
          "internalType": "uint256",
          "name": "epoch",
          "type": "uint256"
        }
      ],
      "name": "expiringCoupons",
      "outputs": [
        {
          "internalType": "uint256",
          "name": "",
          "type": "uint256"
        }
      ],
      "payable": false,
      "stateMutability": "view",
      "type": "function"
    },
    {
      "constant": true,
      "inputs": [
        {
          "internalType": "uint256",
          "name": "epoch",
          "type": "uint256"
        },
        {
          "internalType": "uint256",
          "name": "i",
          "type": "uint256"
        }
      ],
      "name": "expiringCouponsAtIndex",
      "outputs": [
        {
          "internalType": "uint256",
          "name": "",
          "type": "uint256"
        }
      ],
      "payable": false,
      "stateMutability": "view",
      "type": "function"
    },
    {
      "constant": true,
      "inputs": [
        {
          "internalType": "address",
          "name": "account",
          "type": "address"
        }
      ],
      "name": "fluidUntil",
      "outputs": [
        {
          "internalType": "uint256",
          "name": "",
          "type": "uint256"
        }
      ],
      "payable": false,
      "stateMutability": "view",
      "type": "function"
    },
    {
      "constant": true,
      "inputs": [],
      "name": "implementation",
      "outputs": [
        {
          "internalType": "address",
          "name": "impl",
          "type": "address"
        }
      ],
      "payable": false,
      "stateMutability": "view",
      "type": "function"
    },
    {
      "constant": true,
      "inputs": [
        {
          "internalType": "address",
          "name": "candidate",
          "type": "address"
        }
      ],
      "name": "isInitialized",
      "outputs": [
        {
          "internalType": "bool",
          "name": "",
          "type": "bool"
        }
      ],
      "payable": false,
      "stateMutability": "view",
      "type": "function"
    },
    {
      "constant": true,
      "inputs": [
        {
          "internalType": "address",
          "name": "candidate",
          "type": "address"
        }
      ],
      "name": "isNominated",
      "outputs": [
        {
          "internalType": "bool",
          "name": "",
          "type": "bool"
        }
      ],
      "payable": false,
      "stateMutability": "view",
      "type": "function"
    },
    {
      "constant": true,
      "inputs": [
        {
          "internalType": "address",
          "name": "account",
          "type": "address"
        }
      ],
      "name": "lockedUntil",
      "outputs": [
        {
          "internalType": "uint256",
          "name": "",
          "type": "uint256"
        }
      ],
      "payable": false,
      "stateMutability": "view",
      "type": "function"
    },
    {
      "constant": false,
      "inputs": [
        {
          "internalType": "uint256",
          "name": "couponEpoch",
          "type": "uint256"
        }
      ],
      "name": "migrateCoupons",
      "outputs": [],
      "payable": false,
      "stateMutability": "nonpayable",
      "type": "function"
    },
    {
      "constant": true,
      "inputs": [],
      "name": "name",
      "outputs": [
        {
          "internalType": "string",
          "name": "",
          "type": "string"
        }
      ],
      "payable": false,
      "stateMutability": "view",
      "type": "function"
    },
    {
      "constant": true,
      "inputs": [],
      "name": "oracle",
      "outputs": [
        {
          "internalType": "contract IOracle",
          "name": "",
          "type": "address"
        }
      ],
      "payable": false,
      "stateMutability": "view",
      "type": "function"
    },
    {
      "constant": true,
      "inputs": [
        {
          "internalType": "uint256",
          "name": "epoch",
          "type": "uint256"
        }
      ],
      "name": "outstandingCoupons",
      "outputs": [
        {
          "internalType": "uint256",
          "name": "",
          "type": "uint256"
        }
      ],
      "payable": false,
      "stateMutability": "view",
      "type": "function"
    },
    {
      "constant": true,
      "inputs": [
        {
          "internalType": "address",
          "name": "candidate",
          "type": "address"
        }
      ],
      "name": "periodFor",
      "outputs": [
        {
          "internalType": "uint256",
          "name": "",
          "type": "uint256"
        }
      ],
      "payable": false,
      "stateMutability": "view",
      "type": "function"
    },
    {
      "constant": true,
      "inputs": [],
      "name": "pool",
      "outputs": [
        {
          "internalType": "address",
          "name": "",
          "type": "address"
        }
      ],
      "payable": false,
      "stateMutability": "view",
      "type": "function"
    },
    {
      "constant": false,
      "inputs": [
        {
          "internalType": "uint256",
          "name": "amount",
          "type": "uint256"
        }
      ],
      "name": "purchaseCoupons",
      "outputs": [
        {
          "internalType": "uint256",
          "name": "",
          "type": "uint256"
        }
      ],
      "payable": false,
      "stateMutability": "nonpayable",
      "type": "function"
    },
    {
      "constant": true,
      "inputs": [
        {
          "internalType": "address",
          "name": "account",
          "type": "address"
        },
        {
          "internalType": "address",
          "name": "candidate",
          "type": "address"
        }
      ],
      "name": "recordedVote",
      "outputs": [
        {
          "internalType": "enum Candidate.Vote",
          "name": "",
          "type": "uint8"
        }
      ],
      "payable": false,
      "stateMutability": "view",
      "type": "function"
    },
    {
      "constant": false,
      "inputs": [
        {
          "internalType": "uint256",
          "name": "couponEpoch",
          "type": "uint256"
        },
        {
          "internalType": "uint256",
          "name": "amount",
          "type": "uint256"
        }
      ],
      "name": "redeemCoupons",
      "outputs": [],
      "payable": false,
      "stateMutability": "nonpayable",
      "type": "function"
    },
    {
      "constant": true,
      "inputs": [
        {
          "internalType": "address",
          "name": "candidate",
          "type": "address"
        }
      ],
      "name": "rejectFor",
      "outputs": [
        {
          "internalType": "uint256",
          "name": "",
          "type": "uint256"
        }
      ],
      "payable": false,
      "stateMutability": "view",
      "type": "function"
    },
    {
      "constant": true,
      "inputs": [
        {
          "internalType": "address",
          "name": "candidate",
          "type": "address"
        }
      ],
      "name": "startFor",
      "outputs": [
        {
          "internalType": "uint256",
          "name": "",
          "type": "uint256"
        }
      ],
      "payable": false,
      "stateMutability": "view",
      "type": "function"
    },
    {
      "constant": true,
      "inputs": [
        {
          "internalType": "address",
          "name": "account",
          "type": "address"
        }
      ],
      "name": "statusOf",
      "outputs": [
        {
          "internalType": "enum Account.Status",
          "name": "",
          "type": "uint8"
        }
      ],
      "payable": false,
      "stateMutability": "view",
      "type": "function"
    },
    {
      "constant": true,
      "inputs": [],
      "name": "symbol",
      "outputs": [
        {
          "internalType": "string",
          "name": "",
          "type": "string"
        }
      ],
      "payable": false,
      "stateMutability": "view",
      "type": "function"
    },
    {
      "constant": true,
      "inputs": [],
      "name": "totalBonded",
      "outputs": [
        {
          "internalType": "uint256",
          "name": "",
          "type": "uint256"
        }
      ],
      "payable": false,
      "stateMutability": "view",
      "type": "function"
    },
    {
      "constant": true,
      "inputs": [
        {
          "internalType": "uint256",
          "name": "epoch",
          "type": "uint256"
        }
      ],
      "name": "totalBondedAt",
      "outputs": [
        {
          "internalType": "uint256",
          "name": "",
          "type": "uint256"
        }
      ],
      "payable": false,
      "stateMutability": "view",
      "type": "function"
    },
    {
      "constant": true,
      "inputs": [],
      "name": "totalCouponUnderlying",
      "outputs": [
        {
          "internalType": "uint256",
          "name": "",
          "type": "uint256"
        }
      ],
      "payable": false,
      "stateMutability": "view",
      "type": "function"
    },
    {
      "constant": true,
      "inputs": [],
      "name": "totalCoupons",
      "outputs": [
        {
          "internalType": "uint256",
          "name": "",
          "type": "uint256"
        }
      ],
      "payable": false,
      "stateMutability": "view",
      "type": "function"
    },
    {
      "constant": true,
      "inputs": [],
      "name": "totalDebt",
      "outputs": [
        {
          "internalType": "uint256",
          "name": "",
          "type": "uint256"
        }
      ],
      "payable": false,
      "stateMutability": "view",
      "type": "function"
    },
    {
      "constant": true,
      "inputs": [],
      "name": "totalNet",
      "outputs": [
        {
          "internalType": "uint256",
          "name": "",
          "type": "uint256"
        }
      ],
      "payable": false,
      "stateMutability": "view",
      "type": "function"
    },
    {
      "constant": true,
      "inputs": [],
      "name": "totalRedeemable",
      "outputs": [
        {
          "internalType": "uint256",
          "name": "",
          "type": "uint256"
        }
      ],
      "payable": false,
      "stateMutability": "view",
      "type": "function"
    },
    {
      "constant": true,
      "inputs": [],
      "name": "totalStaged",
      "outputs": [
        {
          "internalType": "uint256",
          "name": "",
          "type": "uint256"
        }
      ],
      "payable": false,
      "stateMutability": "view",
      "type": "function"
    },
    {
      "constant": true,
      "inputs": [],
      "name": "totalSupply",
      "outputs": [
        {
          "internalType": "uint256",
          "name": "",
          "type": "uint256"
        }
      ],
      "payable": false,
      "stateMutability": "view",
      "type": "function"
    },
    {
      "constant": false,
      "inputs": [
        {
          "internalType": "address",
          "name": "recipient",
          "type": "address"
        },
        {
          "internalType": "uint256",
          "name": "amount",
          "type": "uint256"
        }
      ],
      "name": "transfer",
      "outputs": [
        {
          "internalType": "bool",
          "name": "",
          "type": "bool"
        }
      ],
      "payable": false,
      "stateMutability": "nonpayable",
      "type": "function"
    },
    {
      "constant": false,
      "inputs": [
        {
          "internalType": "address",
          "name": "sender",
          "type": "address"
        },
        {
          "internalType": "address",
          "name": "recipient",
          "type": "address"
        },
        {
          "internalType": "uint256",
          "name": "epoch",
          "type": "uint256"
        },
        {
          "internalType": "uint256",
          "name": "amount",
          "type": "uint256"
        }
      ],
      "name": "transferCoupons",
      "outputs": [],
      "payable": false,
      "stateMutability": "nonpayable",
      "type": "function"
    },
    {
      "constant": false,
      "inputs": [
        {
          "internalType": "address",
          "name": "sender",
          "type": "address"
        },
        {
          "internalType": "address",
          "name": "recipient",
          "type": "address"
        },
        {
          "internalType": "uint256",
          "name": "amount",
          "type": "uint256"
        }
      ],
      "name": "transferFrom",
      "outputs": [
        {
          "internalType": "bool",
          "name": "",
          "type": "bool"
        }
      ],
      "payable": false,
      "stateMutability": "nonpayable",
      "type": "function"
    },
    {
      "constant": false,
      "inputs": [
        {
          "internalType": "uint256",
          "name": "value",
          "type": "uint256"
        }
      ],
      "name": "unbond",
      "outputs": [],
      "payable": false,
      "stateMutability": "nonpayable",
      "type": "function"
    },
    {
      "constant": false,
      "inputs": [
        {
          "internalType": "uint256",
          "name": "value",
          "type": "uint256"
        }
      ],
      "name": "unbondUnderlying",
      "outputs": [],
      "payable": false,
      "stateMutability": "nonpayable",
      "type": "function"
    },
    {
      "constant": false,
      "inputs": [
        {
          "internalType": "address",
          "name": "candidate",
          "type": "address"
        },
        {
          "internalType": "enum Candidate.Vote",
          "name": "vote",
          "type": "uint8"
        }
      ],
      "name": "vote",
      "outputs": [],
      "payable": false,
      "stateMutability": "nonpayable",
      "type": "function"
    },
    {
      "constant": true,
      "inputs": [
        {
          "internalType": "address",
          "name": "candidate",
          "type": "address"
        }
      ],
      "name": "votesFor",
      "outputs": [
        {
          "internalType": "uint256",
          "name": "",
          "type": "uint256"
        }
      ],
      "payable": false,
      "stateMutability": "view",
      "type": "function"
    },
    {
      "constant": false,
      "inputs": [
        {
          "internalType": "uint256",
          "name": "value",
          "type": "uint256"
        }
      ],
      "name": "withdraw",
      "outputs": [],
      "payable": false,
      "stateMutability": "nonpayable",
      "type": "function"
    },
    {
      "constant": false,
      "inputs": [],
      "name": "initialize",
      "outputs": [],
      "payable": false,
      "stateMutability": "nonpayable",
      "type": "function"
    },
    {
      "constant": false,
      "inputs": [],
      "name": "advance",
      "outputs": [],
      "payable": false,
      "stateMutability": "nonpayable",
      "type": "function"
    }
  ],
  "bytecode": "0x608060405234801561001057600080fd5b5061758d80620000216000396000f3fe608060405234801561001057600080fd5b50600436106103b95760003560e01c80638129fc1c116101f4578063b739a7b81161011a578063dd62ed3e116100ad578063edb6b80a1161007c578063edb6b80a14610c30578063f1b7cf4914610c4e578063fc7b9c1814610c7e578063ffbe3b7314610c9c576103b9565b8063dd62ed3e14610baa578063df9a2b1c14610bda578063e5f55c7e14610bf6578063ea105ac714610c26576103b9565b8063cf023779116100e9578063cf02377914610b10578063d60b347f14610b2e578063d6a9cf0814610b5e578063d8f5413814610b7a576103b9565b8063b739a7b814610a76578063bc7513e214610a94578063bceb514d14610ac4578063c9aff70c14610ae0576103b9565b80639940686e11610192578063a50cd8e711610161578063a50cd8e7146109dc578063a6c409f114610a0c578063a9059cbb14610a2a578063b6b55f2514610a5a576103b9565b80639940686e146109425780639a649edc1461095e5780639bc289f11461097c5780639f6e1b26146109ac576103b9565b8063900cf0cf116101ce578063900cf0cf146108ba5780639042c4ee146108d857806395d89b41146108f457806397a5d5b514610912576103b9565b80638129fc1c14610850578063825ad6071461085a57806386cf9f141461088a576103b9565b8063369e8c1d116102e457806351adeb57116102775780636a39e328116102465780636a39e328146107a257806370a08231146107d257806375d5024b146108025780637dc0d1d014610832576103b9565b806351adeb571461070657806351bf21d8146107245780635c60da1b146107545780636466802214610772576103b9565b806344d96e95116102b357806344d96e951461067e57806347c050691461069c5780634c736099146106b85780635053e461146106e8576103b9565b8063369e8c1d146105e45780633a3e6c81146106005780633fbba9a6146106305780634303d4f714610660576103b9565b806318160ddd1161035c5780632e1a7d4d1161032b5780632e1a7d4d1461055e5780632f7f889e1461057a578063313ce56714610596578063353a420c146105b4576103b9565b806318160ddd146104d65780631edbcf6c146104f457806323b872dd1461051257806327de9e3214610542576103b9565b80630d78ceb4116103985780630d78ceb41461042857806310e95b6c1461045857806315e14bf61461048857806316f0115b146104b8576103b9565b80625edd37146103be57806306fdde03146103da578063095ea7b3146103f8575b600080fd5b6103d860048036036103d39190810190616656565b610ccc565b005b6103e2610f78565b6040516103ef9190616ed5565b60405180910390f35b610412600480360361040d91908101906166f5565b610fb5565b60405161041f9190616de1565b60405180910390f35b610442600480360361043d91908101906166f5565b610fc0565b60405161044f9190617037565b60405180910390f35b610472600480360361046d9190810190616796565b61101e565b60405161047f9190617037565b60405180910390f35b6104a2600480360361049d91908101906165a2565b611043565b6040516104af9190617037565b60405180910390f35b6104c0611091565b6040516104cd9190616d06565b60405180910390f35b6104de6110c0565b6040516104eb9190617037565b60405180910390f35b6104fc6110cf565b6040516105099190617037565b60405180910390f35b61052c60048036036105279190810190616607565b6110de565b6040516105399190616de1565b60405180910390f35b61055c60048036036105579190810190616796565b6110ea565b005b61057860048036036105739190810190616796565b611276565b005b610594600480360361058f91908101906166f5565b6113ee565b005b61059e6114d2565b6040516105ab9190617165565b60405180910390f35b6105ce60048036036105c991908101906165a2565b6114db565b6040516105db9190617037565b60405180910390f35b6105fe60048036036105f991908101906165a2565b611529565b005b61061a600480360361061591908101906165a2565b6117cc565b6040516106279190616de1565b60405180910390f35b61064a600480360361064591908101906165cb565b61181d565b6040516106579190616e68565b60405180910390f35b6106686118b6565b6040516106759190617037565b60405180910390f35b6106866118c3565b6040516106939190617037565b60405180910390f35b6106b660048036036106b191908101906165a2565b6118d2565b005b6106d260048036036106cd91908101906167e8565b611ad8565b6040516106df9190617037565b60405180910390f35b6106f0611b13565b6040516106fd9190617037565b60405180910390f35b61070e611b6a565b60405161071b9190616dfc565b60405180910390f35b61073e600480360361073991908101906165a2565b611b99565b60405161074b9190617037565b60405180910390f35b61075c611be7565b6040516107699190616d06565b60405180910390f35b61078c600480360361078791908101906165a2565b611c18565b6040516107999190617037565b60405180910390f35b6107bc60048036036107b79190810190616796565b611c66565b6040516107c99190617037565b60405180910390f35b6107ec60048036036107e791908101906165a2565b611c8e565b6040516107f99190617037565b60405180910390f35b61081c60048036036108179190810190616796565b611cdc565b6040516108299190616de1565b60405180910390f35b61083a611cf0565b6040516108479190616e17565b60405180910390f35b610858611d1f565b005b610874600480360361086f91908101906165a2565b611d9d565b6040516108819190617037565b60405180910390f35b6108a4600480360361089f91908101906165a2565b611dfa565b6040516108b19190617037565b60405180910390f35b6108c2611e48565b6040516108cf9190617037565b60405180910390f35b6108f260048036036108ed9190810190616796565b611e57565b005b6108fc611fe4565b6040516109099190616ed5565b60405180910390f35b61092c600480360361092791908101906165a2565b612021565b6040516109399190616e32565b60405180910390f35b61095c60048036036109579190810190616796565b6120e6565b005b610966612268565b6040516109739190617037565b60405180910390f35b610996600480360361099191908101906165a2565b612277565b6040516109a39190617037565b60405180910390f35b6109c660048036036109c191908101906165cb565b6122c5565b6040516109d39190617037565b60405180910390f35b6109f660048036036109f191908101906165a2565b612351565b604051610a039190617037565b60405180910390f35b610a1461237d565b604051610a219190617037565b60405180910390f35b610a446004803603610a3f91908101906166f5565b612422565b604051610a519190616de1565b60405180910390f35b610a746004803603610a6f9190810190616796565b61242d565b005b610a7e61258e565b604051610a8b9190617037565b60405180910390f35b610aae6004803603610aa991908101906166f5565b61259e565b604051610abb9190617037565b60405180910390f35b610ade6004803603610ad991908101906166b9565b612619565b005b610afa6004803603610af59190810190616796565b612a0f565b604051610b079190617037565b60405180910390f35b610b18612a34565b604051610b259190617037565b60405180910390f35b610b486004803603610b4391908101906165a2565b612a43565b604051610b559190616de1565b60405180910390f35b610b786004803603610b7391908101906167e8565b612a9e565b005b610b946004803603610b8f9190810190616796565b612c72565b604051610ba19190617037565b60405180910390f35b610bc46004803603610bbf91908101906165cb565b612d11565b604051610bd19190617037565b60405180910390f35b610bf46004803603610bef9190810190616796565b612d1c565b005b610c106004803603610c0b9190810190616796565b612ea6565b604051610c1d9190617037565b60405180910390f35b610c2e612fdf565b005b610c38613053565b604051610c459190616e4d565b60405180910390f35b610c686004803603610c6391908101906165a2565b613070565b604051610c759190617037565b60405180910390f35b610c866130be565b604051610c939190617037565b60405180910390f35b610cb66004803603610cb19190810190616796565b6130cd565b604051610cc39190617037565b60405180910390f35b600073ffffffffffffffffffffffffffffffffffffffff168473ffffffffffffffffffffffffffffffffffffffff161415610d3c576040517f08c379a0000000000000000000000000000000000000000000000000000000008152600401610d3390616ff7565b60405180910390fd5b600073ffffffffffffffffffffffffffffffffffffffff168373ffffffffffffffffffffffffffffffffffffffff161415610dac576040517f08c379a0000000000000000000000000000000000000000000000000000000008152600401610da390616f77565b60405180910390fd5b6000610e1c610dbb8685610fc0565b6040518060400160405280601581526020017f4d61726b65743a204e6f20756e6465726c79696e670000000000000000000000815250610e0d85610dff8a8961259e565b6130ef90919063ffffffff16565b61315f9092919063ffffffff16565b9050610e428584846040518060600160405280602e815260200161743e602e91396131c0565b610e4d8484846132a8565b610e7185848360405180606001604052806023815260200161746c6023913961338b565b610e7c8484836134d0565b8473ffffffffffffffffffffffffffffffffffffffff163373ffffffffffffffffffffffffffffffffffffffff1614158015610ee157507fffffffffffffffffffffffffffffffffffffffffffffffffffffffffffffffff610ede86336122c5565b14155b15610f0b57610f0a8533846040518060600160405280602481526020016174b36024913961360e565b5b828473ffffffffffffffffffffffffffffffffffffffff168673ffffffffffffffffffffffffffffffffffffffff167f0f1dbb1ccbe57a1590c7baad7b01d581b730c9ebc535dcde4345e6db424063d885604051610f699190617037565b60405180910390a45050505050565b60606040518060400160405280601681526020017f456d7074792053657420446f6c6c6172205374616b6500000000000000000000815250905090565b600080905092915050565b6000600f60000160008473ffffffffffffffffffffffffffffffffffffffff1673ffffffffffffffffffffffffffffffffffffffff168152602001908152602001600020600083815260200190815260200160002054905092915050565b600080600d016000838152602001908152602001600020600101600101549050919050565b600080600e0160008373ffffffffffffffffffffffffffffffffffffffff1673ffffffffffffffffffffffffffffffffffffffff168152602001908152602001600020600101549050919050565b60008060090160020160009054906101000a900473ffffffffffffffffffffffffffffffffffffffff16905090565b60008060030160000154905090565b60008060030160030154905090565b60008090509392505050565b336111576002808111156110fa57fe5b61110383612021565b600281111561110e57fe5b14157f5065726d697373696f6e000000000000000000000000000000000000000000007f4e6f742066726f7a656e206f7220666c75696400000000000000000000000000613731565b611160336137b0565b600061119761116e33611c8e565b61118961117a33611d9d565b866130ef90919063ffffffff16565b61381d90919063ffffffff16565b90506111a33382613867565b6111c5816040518060600160405280602281526020016174d760229139613933565b61120533846040518060400160405280601d81526020017f426f6e64696e673a20696e73756666696369656e742062616c616e6365000000815250613960565b3373ffffffffffffffffffffffffffffffffffffffff167f93530ac0ee8c50e696e13c5ac62355d0c0ba4bd943620d5bda1eb08b64ae7512611258600161124a611e48565b613a9790919063ffffffff16565b8584604051611269939291906170e9565b60405180910390a2505050565b336112e46001600281111561128757fe5b61129083612021565b600281111561129b57fe5b14157f5065726d697373696f6e000000000000000000000000000000000000000000007f4e6f742066726f7a656e206f72206c6f636b6564000000000000000000000000613731565b6112ec611b6a565b73ffffffffffffffffffffffffffffffffffffffff1663a9059cbb33846040518363ffffffff1660e01b8152600401611326929190616d58565b602060405180830381600087803b15801561134057600080fd5b505af1158015611354573d6000803e3d6000fd5b505050506040513d601f19601f820116820180604052506113789190810190616731565b5061139c338360405180606001604052806024815260200161748f60249139613aec565b3373ffffffffffffffffffffffffffffffffffffffff167f884edad9ce6fa2440d8a54cc123490eb96d2768479d49ff9c7366125a9424364836040516113e29190617037565b60405180910390a25050565b600073ffffffffffffffffffffffffffffffffffffffff168273ffffffffffffffffffffffffffffffffffffffff16141561145e576040517f08c379a000000000000000000000000000000000000000000000000000000000815260040161145590616fd7565b60405180910390fd5b611469338383613bbd565b8173ffffffffffffffffffffffffffffffffffffffff163373ffffffffffffffffffffffffffffffffffffffff167f8ff27e6b95060c1ca851e7c2c28af8b413eb1a8bcb637b0290da9543a709cce3836040516114c69190617037565b60405180910390a35050565b60006012905090565b600080600e0160008373ffffffffffffffffffffffffffffffffffffffff1673ffffffffffffffffffffffffffffffffffffffff168152602001908152602001600020600301549050919050565b61157c611535826117cc565b7f476f7665726e00000000000000000000000000000000000000000000000000007f4e6f74206e6f6d696e6174656400000000000000000000000000000000000000613731565b60006115b460016115a661158f85611043565b61159886613070565b613a9790919063ffffffff16565b613c4990919063ffffffff16565b905061160a816115c2611e48565b117f476f7665726e00000000000000000000000000000000000000000000000000007f4e6f7420656e6465640000000000000000000000000000000000000000000000613731565b61168b61163a611618613c93565b61162c600185613a9790919063ffffffff16565b613a9790919063ffffffff16565b611642611e48565b11157f476f7665726e00000000000000000000000000000000000000000000000000007f4578706972656400000000000000000000000000000000000000000000000000613731565b6117086116c1611699613c9c565b6116b36116a586612351565b6116ae866130cd565b613cc0565b613cf190919063ffffffff16565b7f476f7665726e00000000000000000000000000000000000000000000000000007f4d75737420686176652071756f726f6d00000000000000000000000000000000613731565b611765611714836114db565b61171d84611c18565b117f476f7665726e00000000000000000000000000000000000000000000000000007f4e6f7420617070726f7665640000000000000000000000000000000000000000613731565b61176e82613d08565b8173ffffffffffffffffffffffffffffffffffffffff163373ffffffffffffffffffffffffffffffffffffffff167f815ca4497ab9fc80c76f210e6e842a5e198e195aa136034557eee144f790e7bb60405160405180910390a35050565b6000806000600e0160008473ffffffffffffffffffffffffffffffffffffffff1673ffffffffffffffffffffffffffffffffffffffff16815260200190815260200160002060000154119050919050565b600080600e0160008373ffffffffffffffffffffffffffffffffffffffff1673ffffffffffffffffffffffffffffffffffffffff16815260200190815260200160002060040160008473ffffffffffffffffffffffffffffffffffffffff1673ffffffffffffffffffffffffffffffffffffffff16815260200190815260200160002060009054906101000a900460ff16905092915050565b6000600f60010154905090565b60008060030160010154905090565b6119256118de826117cc565b7f476f7665726e00000000000000000000000000000000000000000000000000007f4e6f74206e6f6d696e6174656400000000000000000000000000000000000000613731565b611999611949611933613e8d565b61193b611e48565b613a9790919063ffffffff16565b611951611b13565b117f476f7665726e00000000000000000000000000000000000000000000000000007f45706f63682073796e6365640000000000000000000000000000000000000000613731565b611a156119ce6119a7613e96565b6119c06119b385611c18565b6119bb6110c0565b613cc0565b613cf190919063ffffffff16565b7f476f7665726e00000000000000000000000000000000000000000000000000007f4d7573742068617665207375706572206d616a6f726974790000000000000000613731565b611a72611a21826114db565b611a2a83611c18565b117f476f7665726e00000000000000000000000000000000000000000000000000007f4e6f7420617070726f7665640000000000000000000000000000000000000000613731565b611a7b81613d08565b8073ffffffffffffffffffffffffffffffffffffffff163373ffffffffffffffffffffffffffffffffffffffff167f815ca4497ab9fc80c76f210e6e842a5e198e195aa136034557eee144f790e7bb60405160405180910390a350565b600080600d0160008481526020019081526020016000206001016002018281548110611b0057fe5b9060005260206000200154905092915050565b6000611b1d6164cd565b611b25613eba565b9050611b2f6164cd565b611b37613ee9565b90508160200151611b46613f19565b10611b5957611b5482613f21565b611b63565b611b6281613f21565b5b9250505090565b60008060090160000160009054906101000a900473ffffffffffffffffffffffffffffffffffffffff16905090565b600080600c0160008373ffffffffffffffffffffffffffffffffffffffff1673ffffffffffffffffffffffffffffffffffffffff168152602001908152602001600020600401549050919050565b6000807f360894a13ba1a3210667c828492db98dca3e2076cc3735a920a3ca505d382bbc60001b9050805491505090565b600080600e0160008373ffffffffffffffffffffffffffffffffffffffff1673ffffffffffffffffffffffffffffffffffffffff168152602001908152602001600020600201549050919050565b600080600d016000838152602001908152602001600020600101600201805490509050919050565b600080600c0160008373ffffffffffffffffffffffffffffffffffffffff1673ffffffffffffffffffffffffffffffffffffffff168152602001908152602001600020600101549050919050565b6000611ce6613f74565b8211159050919050565b60008060090160010160009054906101000a900473ffffffffffffffffffffffffffffffffffffffff16905090565b611d7a611d32611d2d611be7565b612a43565b157f5065726d697373696f6e000000000000000000000000000000000000000000007f416c726561647920696e697469616c697a656400000000000000000000000000613731565b611d8a611d85611be7565b613f7d565b611d9b33611d96613fde565b613fef565b565b600080611da86110c0565b90506000811415611dbd576000915050611df5565b611df181611de3611dcd86611c8e565b611dd56118c3565b6130ef90919063ffffffff16565b61381d90919063ffffffff16565b9150505b919050565b600080600c0160008373ffffffffffffffffffffffffffffffffffffffff1673ffffffffffffffffffffffffffffffffffffffff168152602001908152602001600020600001549050919050565b60008060000160020154905090565b6000611e63338361259e565b905060008111611ea8576040517f08c379a0000000000000000000000000000000000000000000000000000000008152600401611e9f90616f37565b60405180910390fd5b6000611eb43384610fc0565b14611ef4576040517f08c379a0000000000000000000000000000000000000000000000000000000008152600401611eeb90616f17565b60405180910390fd5b6000611f0a60028361381d90919063ffffffff16565b9050611f173384836132a8565b611f3b33848360405180606001604052806023815260200161746c6023913961338b565b823373ffffffffffffffffffffffffffffffffffffffff167f652fd9d5d1fdb4fff834b67018ec390a5938bc4c86fae1b87a3a3b7cf8681a72600084604051611f85929190616eac565b60405180910390a3823373ffffffffffffffffffffffffffffffffffffffff167fbce252db29f761f815dc2e9ea60005af065efba6eb619d2a0b2a113fdeb61414836000604051611fd7929190617052565b60405180910390a3505050565b60606040518060400160405280600481526020017f4553445300000000000000000000000000000000000000000000000000000000815250905090565b600061202b611e48565b6000600c0160008473ffffffffffffffffffffffffffffffffffffffff1673ffffffffffffffffffffffffffffffffffffffff16815260200190815260200160002060050154111561208057600290506120e1565b6000600c0160008373ffffffffffffffffffffffffffffffffffffffff1673ffffffffffffffffffffffffffffffffffffffff168152602001908152602001600020600401546120ce611e48565b10156120db5760016120de565b60005b90505b919050565b336121536002808111156120f657fe5b6120ff83612021565b600281111561210a57fe5b14157f5065726d697373696f6e000000000000000000000000000000000000000000007f4e6f742066726f7a656e206f7220666c75696400000000000000000000000000613731565b61215c336137b0565b6000806121676118c3565b146121a45761219f6121776118c3565b6121916121826110c0565b866130ef90919063ffffffff16565b61381d90919063ffffffff16565b6121bf565b6121be6121af61404b565b846130ef90919063ffffffff16565b5b90506121cb3382614056565b6121d483614188565b6121f7338460405180606001604052806024815260200161748f60249139613aec565b3373ffffffffffffffffffffffffffffffffffffffff167f44002fdef5a0c2d2e4e05572e9780b95aef97e0e93ffd7cc076b09fa78ff2b4661224a600161223c611e48565b613a9790919063ffffffff16565b838660405161225b939291906170e9565b60405180910390a2505050565b60008060030160050154905090565b600080600c0160008373ffffffffffffffffffffffffffffffffffffffff1673ffffffffffffffffffffffffffffffffffffffff168152602001908152602001600020600501549050919050565b600080600c0160008473ffffffffffffffffffffffffffffffffffffffff1673ffffffffffffffffffffffffffffffffffffffff16815260200190815260200160002060030160008373ffffffffffffffffffffffffffffffffffffffff1673ffffffffffffffffffffffffffffffffffffffff16815260200190815260200160002054905092915050565b600061237661235f836114db565b61236884611c18565b613a9790919063ffffffff16565b9050919050565b600061241d61238a6130be565b612392611b6a565b73ffffffffffffffffffffffffffffffffffffffff166318160ddd6040518163ffffffff1660e01b815260040160206040518083038186803b1580156123d757600080fd5b505afa1580156123eb573d6000803e3d6000fd5b505050506040513d601f19601f8201168201806040525061240f91908101906167bf565b613c4990919063ffffffff16565b905090565b600080905092915050565b3361249b6001600281111561243e57fe5b61244783612021565b600281111561245257fe5b14157f5065726d697373696f6e000000000000000000000000000000000000000000007f4e6f742066726f7a656e206f72206c6f636b6564000000000000000000000000613731565b6124a3611b6a565b73ffffffffffffffffffffffffffffffffffffffff166323b872dd3330856040518463ffffffff1660e01b81526004016124df93929190616d21565b602060405180830381600087803b1580156124f957600080fd5b505af115801561250d573d6000803e3d6000fd5b505050506040513d601f19601f820116820180604052506125319190810190616731565b5061253c3383613867565b3373ffffffffffffffffffffffffffffffffffffffff167fe1fffcc4923d04b559f4d29a8bfc6cda04eb5b0d3c460751c2402c5c5cc9109c836040516125829190617037565b60405180910390a25050565b6000601160000160010154905090565b6000806125aa83612a0f565b14156125b95760009050612613565b6000600c0160008473ffffffffffffffffffffffffffffffffffffffff1673ffffffffffffffffffffffffffffffffffffffff16815260200190815260200160002060020160008381526020019081526020016000205490505b92915050565b336126876001600281111561262a57fe5b61263383612021565b600281111561263e57fe5b14157f5065726d697373696f6e000000000000000000000000000000000000000000007f4e6f742066726f7a656e206f72206c6f636b6564000000000000000000000000613731565b6126dd600061269533611c8e565b117f476f7665726e00000000000000000000000000000000000000000000000000007f4d7573742068617665207374616b650000000000000000000000000000000000613731565b6126e6836117cc565b6127c35761273d6126f6336141b2565b7f476f7665726e00000000000000000000000000000000000000000000000000007f4e6f7420656e6f756768207374616b6520746f2070726f706f73650000000000613731565b61274e83612749614212565b61421b565b612756611e48565b3373ffffffffffffffffffffffffffffffffffffffff168473ffffffffffffffffffffffffffffffffffffffff167fd15e38a680a427478883cd2d32eb664cb6bb2090b0126a23ebaf3e3784b8c56b6127ad614212565b6040516127ba9190617037565b60405180910390a45b6128396127e96127d285611043565b6127db86613070565b613a9790919063ffffffff16565b6127f1611e48565b107f476f7665726e00000000000000000000000000000000000000000000000000007f456e646564000000000000000000000000000000000000000000000000000000613731565b600061284433611c8e565b90506000612852338661181d565b905080600281111561286057fe5b84600281111561286c57fe5b1415612879575050612a0a565b60028081111561288557fe5b81600281111561289157fe5b14156128d8576128d785836040518060400160405280601b81526020017f476f7665726e3a20496e73756666696369656e742072656a65637400000000008152506142ba565b5b600160028111156128e557fe5b8160028111156128f157fe5b14156129385761293785836040518060400160405280601c81526020017f476f7665726e3a20496e73756666696369656e7420617070726f766500000000815250614362565b5b60028081111561294457fe5b84600281111561295057fe5b141561296157612960858361440a565b5b6001600281111561296e57fe5b84600281111561297a57fe5b141561298b5761298a85836144af565b5b612996338686614554565b6129a033866145fc565b8473ffffffffffffffffffffffffffffffffffffffff163373ffffffffffffffffffffffffffffffffffffffff167fbe50c78cbc15b0864819aadea36c6499da421b33c38e2ef19bebda583c708c7886856040516129ff929190616e83565b60405180910390a350505b505050565b600080600d016000838152602001908152602001600020600101600001549050919050565b60008060030160020154905090565b600080600e0160008373ffffffffffffffffffffffffffffffffffffffff1673ffffffffffffffffffffffffffffffffffffffff16815260200190815260200160002060050160009054906101000a900460ff169050919050565b6002612aba83612aac611e48565b613c4990919063ffffffff16565b1015612afb576040517f08c379a0000000000000000000000000000000000000000000000000000000008152600401612af290617017565b60405180910390fd5b6000811415612b3f576040517f08c379a0000000000000000000000000000000000000000000000000000000008152600401612b3690616f57565b60405180910390fd5b6000612baf612b4e3385610fc0565b6040518060400160405280601581526020017f4d61726b65743a204e6f20756e6465726c79696e670000000000000000000000815250612ba085612b92338961259e565b6130ef90919063ffffffff16565b61315f9092919063ffffffff16565b90506000612bbd84836146c5565b9050612be33385856040518060600160405280602e815260200161743e602e91396131c0565b60008214612c1057612c0f33858460405180606001604052806023815260200161746c6023913961338b565b5b612c1b338483614766565b833373ffffffffffffffffffffffffffffffffffffffff167f652fd9d5d1fdb4fff834b67018ec390a5938bc4c86fae1b87a3a3b7cf8681a728585604051612c6492919061707b565b60405180910390a350505050565b6000612d0a612c7f611b6a565b73ffffffffffffffffffffffffffffffffffffffff166318160ddd6040518163ffffffff1660e01b815260040160206040518083038186803b158015612cc457600080fd5b505afa158015612cd8573d6000803e3d6000fd5b505050506040513d601f19601f82011682018060405250612cfc91908101906167bf565b612d046130be565b846148c8565b9050919050565b600080905092915050565b33612d89600280811115612d2c57fe5b612d3583612021565b6002811115612d4057fe5b14157f5065726d697373696f6e000000000000000000000000000000000000000000007f4e6f742066726f7a656e206f7220666c75696400000000000000000000000000613731565b612d92336137b0565b6000612dc7612d9f6118c3565b612db9612daa6110c0565b866130ef90919063ffffffff16565b61381d90919063ffffffff16565b9050612dd33384613867565b612df5836040518060600160405280602281526020016174d760229139613933565b612e3533826040518060400160405280601d81526020017f426f6e64696e673a20696e73756666696369656e742062616c616e6365000000815250613960565b3373ffffffffffffffffffffffffffffffffffffffff167f93530ac0ee8c50e696e13c5ac62355d0c0ba4bd943620d5bda1eb08b64ae7512612e886001612e7a611e48565b613a9790919063ffffffff16565b8386604051612e99939291906170e9565b60405180910390a2505050565b6000612ef6600083117f4d61726b657400000000000000000000000000000000000000000000000000007f4d757374207075726368617365206e6f6e2d7a65726f20616d6f756e74000000613731565b612f4b82612f026130be565b10157f4d61726b657400000000000000000000000000000000000000000000000000007f4e6f7420656e6f75676820646562740000000000000000000000000000000000613731565b6000612f55611e48565b90506000612f6284612c72565b9050612f6f3383836134d0565b612f7a3383866132a8565b612f8433856148f8565b813373ffffffffffffffffffffffffffffffffffffffff167fbce252db29f761f815dc2e9ea60005af065efba6eb619d2a0b2a113fdeb614148684604051612fcd92919061707b565b60405180910390a38092505050919050565b612ff033612feb613fde565b613fef565b612ff8614a2f565b613000614a9c565b613008614ba3565b613010614c20565b613018611e48565b7fc30b728d1c19e5db3678b8ea9e9a063a5655071e1a325c2f7fdbca48baa90600434260405161304992919061707b565b60405180910390a2565b6000601160000160000160009054906101000a900460ff16905090565b600080600e0160008373ffffffffffffffffffffffffffffffffffffffff1673ffffffffffffffffffffffffffffffffffffffff168152602001908152602001600020600001549050919050565b60008060030160040154905090565b600080600d016000838152602001908152602001600020600001549050919050565b6000808314156131025760009050613159565b600082840290508284828161311357fe5b0414613154576040517f08c379a000000000000000000000000000000000000000000000000000000000815260040161314b90616f97565b60405180910390fd5b809150505b92915050565b600080831182906131a6576040517f08c379a000000000000000000000000000000000000000000000000000000000815260040161319d9190616ed5565b60405180910390fd5b5060008385816131b257fe5b049050809150509392505050565b6132288282600f60000160008873ffffffffffffffffffffffffffffffffffffffff1673ffffffffffffffffffffffffffffffffffffffff168152602001908152602001600020600087815260200190815260200160002054614da99092919063ffffffff16565b600f60000160008673ffffffffffffffffffffffffffffffffffffffff1673ffffffffffffffffffffffffffffffffffffffff1681526020019081526020016000206000858152602001908152602001600020819055506132998282600f60010154614da99092919063ffffffff16565b600f6001018190555050505050565b61330e81600f60000160008673ffffffffffffffffffffffffffffffffffffffff1673ffffffffffffffffffffffffffffffffffffffff168152602001908152602001600020600085815260200190815260200160002054613a9790919063ffffffff16565b600f60000160008573ffffffffffffffffffffffffffffffffffffffff1673ffffffffffffffffffffffffffffffffffffffff16815260200190815260200160002060008481526020019081526020016000208190555061337d81600f60010154613a9790919063ffffffff16565b600f60010181905550505050565b6133f682826000600c0160008873ffffffffffffffffffffffffffffffffffffffff1673ffffffffffffffffffffffffffffffffffffffff168152602001908152602001600020600201600087815260200190815260200160002054614da99092919063ffffffff16565b6000600c0160008673ffffffffffffffffffffffffffffffffffffffff1673ffffffffffffffffffffffffffffffffffffffff16815260200190815260200160002060020160008581526020019081526020016000208190555061348182826000600d01600087815260200190815260200160002060010160000154614da99092919063ffffffff16565b6000600d016000858152602001908152602001600020600101600001819055506134be8282600060030160050154614da99092919063ffffffff16565b60006003016005018190555050505050565b613539816000600c0160008673ffffffffffffffffffffffffffffffffffffffff1673ffffffffffffffffffffffffffffffffffffffff168152602001908152602001600020600201600085815260200190815260200160002054613a9790919063ffffffff16565b6000600c0160008573ffffffffffffffffffffffffffffffffffffffff1673ffffffffffffffffffffffffffffffffffffffff1681526020019081526020016000206002016000848152602001908152602001600020819055506135c2816000600d01600085815260200190815260200160002060010160000154613a9790919063ffffffff16565b6000600d016000848152602001908152602001600020600101600001819055506135fd81600060030160050154613a9790919063ffffffff16565b600060030160050181905550505050565b6136a582826000600c0160008873ffffffffffffffffffffffffffffffffffffffff1673ffffffffffffffffffffffffffffffffffffffff16815260200190815260200160002060030160008773ffffffffffffffffffffffffffffffffffffffff1673ffffffffffffffffffffffffffffffffffffffff16815260200190815260200160002054614da99092919063ffffffff16565b6000600c0160008673ffffffffffffffffffffffffffffffffffffffff1673ffffffffffffffffffffffffffffffffffffffff16815260200190815260200160002060030160008573ffffffffffffffffffffffffffffffffffffffff1673ffffffffffffffffffffffffffffffffffffffff1681526020019081526020016000208190555050505050565b826137ab5761373f82614e04565b613a2060f01b61374e83614e04565b60405160200161376093929190616cd1565b6040516020818303038152906040526040517f08c379a00000000000000000000000000000000000000000000000000000000081526004016137a29190616ed5565b60405180910390fd5b505050565b6137d16137bb614edf565b6137c3611e48565b613a9790919063ffffffff16565b6000600c0160008373ffffffffffffffffffffffffffffffffffffffff1673ffffffffffffffffffffffffffffffffffffffff1681526020019081526020016000206004018190555050565b600061385f83836040518060400160405280601a81526020017f536166654d6174683a206469766973696f6e206279207a65726f00000000000081525061315f565b905092915050565b6138bf816000600c0160008573ffffffffffffffffffffffffffffffffffffffff1673ffffffffffffffffffffffffffffffffffffffff16815260200190815260200160002060000154613a9790919063ffffffff16565b6000600c0160008473ffffffffffffffffffffffffffffffffffffffff1673ffffffffffffffffffffffffffffffffffffffff1681526020019081526020016000206000018190555061392381600060030160020154613a9790919063ffffffff16565b6000600301600201819055505050565b6139508282600060030160010154614da99092919063ffffffff16565b6000600301600101819055505050565b6139ba82826000600c0160008773ffffffffffffffffffffffffffffffffffffffff1673ffffffffffffffffffffffffffffffffffffffff16815260200190815260200160002060010154614da99092919063ffffffff16565b6000600c0160008573ffffffffffffffffffffffffffffffffffffffff1673ffffffffffffffffffffffffffffffffffffffff16815260200190815260200160002060010181905550613a208282600060030160000154614da99092919063ffffffff16565b600060030160000181905550600073ffffffffffffffffffffffffffffffffffffffff168373ffffffffffffffffffffffffffffffffffffffff167fddf252ad1be2c89b69c2b068fc378daa952ba7f163c4a11628f55a4df523b3ef84604051613a8a9190617037565b60405180910390a3505050565b600080828401905083811015613ae2576040517f08c379a0000000000000000000000000000000000000000000000000000000008152600401613ad990616ef7565b60405180910390fd5b8091505092915050565b613b4682826000600c0160008773ffffffffffffffffffffffffffffffffffffffff1673ffffffffffffffffffffffffffffffffffffffff16815260200190815260200160002060000154614da99092919063ffffffff16565b6000600c0160008573ffffffffffffffffffffffffffffffffffffffff1673ffffffffffffffffffffffffffffffffffffffff16815260200190815260200160002060000181905550613bac8282600060030160020154614da99092919063ffffffff16565b600060030160020181905550505050565b806000600c0160008573ffffffffffffffffffffffffffffffffffffffff1673ffffffffffffffffffffffffffffffffffffffff16815260200190815260200160002060030160008473ffffffffffffffffffffffffffffffffffffffff1673ffffffffffffffffffffffffffffffffffffffff16815260200190815260200160002081905550505050565b6000613c8b83836040518060400160405280601e81526020017f536166654d6174683a207375627472616374696f6e206f766572666c6f770000815250614da9565b905092915050565b60006002905090565b613ca46164ee565b60405180602001604052806702c68af0bb140000815250905090565b613cc86164ee565b6040518060200160405280613ce685670de0b6b3a764000086614ee8565b815250905092915050565b60006002613cff8484614f18565b14905092915050565b613d1181614f58565b600060608273ffffffffffffffffffffffffffffffffffffffff166040516024016040516020818303038152906040527f8129fc1c000000000000000000000000000000000000000000000000000000007bffffffffffffffffffffffffffffffffffffffffffffffffffffffff19166020820180517bffffffffffffffffffffffffffffffffffffffffffffffffffffffff8381831617835250505050604051613dbc9190616cba565b600060405180830381855af49150503d8060008114613df7576040519150601f19603f3d011682016040523d82523d6000602084013e613dfc565b606091505b5091509150818190613e44576040517f08c379a0000000000000000000000000000000000000000000000000000000008152600401613e3b9190616ed5565b60405180910390fd5b508273ffffffffffffffffffffffffffffffffffffffff167fbc7cd75a20ee27fd9adebab32041f755214dbc6bffa90cc0225b39da2e5c2d3b60405160405180910390a2505050565b60006006905090565b613e9e6164ee565b604051806020016040528067058d15e176280000815250905090565b613ec26164cd565b6040518060600160405280606a8152602001635f7fa8008152602001617080815250905090565b613ef16164cd565b6040518060600160405280605b8152602001635f6be180815260200162015180815250905090565b600042905090565b6000613f6d8260000151613f5f8460400151613f518660200151613f43613f19565b613c4990919063ffffffff16565b61381d90919063ffffffff16565b613a9790919063ffffffff16565b9050919050565b6000605a905090565b60016000600e0160008373ffffffffffffffffffffffffffffffffffffffff1673ffffffffffffffffffffffffffffffffffffffff16815260200190815260200160002060050160006101000a81548160ff02191690831515021790555050565b6000683635c9adc5dea00000905090565b613ff98282614fcf565b8173ffffffffffffffffffffffffffffffffffffffff167fbb4f656853bc420ad6e4321622c07eefb4ed40e3f91b35553ce14a6dff4c09818260405161403f9190617037565b60405180910390a25050565b6000620f4240905090565b6140ae816000600c0160008573ffffffffffffffffffffffffffffffffffffffff1673ffffffffffffffffffffffffffffffffffffffff16815260200190815260200160002060010154613a9790919063ffffffff16565b6000600c0160008473ffffffffffffffffffffffffffffffffffffffff1673ffffffffffffffffffffffffffffffffffffffff1681526020019081526020016000206001018190555061411281600060030160000154613a9790919063ffffffff16565b6000600301600001819055508173ffffffffffffffffffffffffffffffffffffffff16600073ffffffffffffffffffffffffffffffffffffffff167fddf252ad1be2c89b69c2b068fc378daa952ba7f163c4a11628f55a4df523b3ef8360405161417c9190617037565b60405180910390a35050565b6141a381600060030160010154613a9790919063ffffffff16565b60006003016001018190555050565b6000806141bd6118c3565b14156141cc576000905061420d565b6141d46164ee565b6141ed6141e084611c8e565b6141e86110c0565b613cc0565b90506142096141fa61508f565b82613cf190919063ffffffff16565b9150505b919050565b60006009905090565b614223611e48565b6000600e0160008473ffffffffffffffffffffffffffffffffffffffff1673ffffffffffffffffffffffffffffffffffffffff16815260200190815260200160002060000181905550806000600e0160008473ffffffffffffffffffffffffffffffffffffffff1673ffffffffffffffffffffffffffffffffffffffff168152602001908152602001600020600101819055505050565b61431482826000600e0160008773ffffffffffffffffffffffffffffffffffffffff1673ffffffffffffffffffffffffffffffffffffffff16815260200190815260200160002060030154614da99092919063ffffffff16565b6000600e0160008573ffffffffffffffffffffffffffffffffffffffff1673ffffffffffffffffffffffffffffffffffffffff16815260200190815260200160002060030181905550505050565b6143bc82826000600e0160008773ffffffffffffffffffffffffffffffffffffffff1673ffffffffffffffffffffffffffffffffffffffff16815260200190815260200160002060020154614da99092919063ffffffff16565b6000600e0160008573ffffffffffffffffffffffffffffffffffffffff1673ffffffffffffffffffffffffffffffffffffffff16815260200190815260200160002060020181905550505050565b614462816000600e0160008573ffffffffffffffffffffffffffffffffffffffff1673ffffffffffffffffffffffffffffffffffffffff16815260200190815260200160002060030154613a9790919063ffffffff16565b6000600e0160008473ffffffffffffffffffffffffffffffffffffffff1673ffffffffffffffffffffffffffffffffffffffff168152602001908152602001600020600301819055505050565b614507816000600e0160008573ffffffffffffffffffffffffffffffffffffffff1673ffffffffffffffffffffffffffffffffffffffff16815260200190815260200160002060020154613a9790919063ffffffff16565b6000600e0160008473ffffffffffffffffffffffffffffffffffffffff1673ffffffffffffffffffffffffffffffffffffffff168152602001908152602001600020600201819055505050565b806000600e0160008473ffffffffffffffffffffffffffffffffffffffff1673ffffffffffffffffffffffffffffffffffffffff16815260200190815260200160002060040160008573ffffffffffffffffffffffffffffffffffffffff1673ffffffffffffffffffffffffffffffffffffffff16815260200190815260200160002060006101000a81548160ff021916908360028111156145f257fe5b0217905550505050565b600080600c0160008473ffffffffffffffffffffffffffffffffffffffff1673ffffffffffffffffffffffffffffffffffffffff168152602001908152602001600020600501549050600061466a61465384611043565b61465c85613070565b613a9790919063ffffffff16565b9050818111156146bf57806000600c0160008673ffffffffffffffffffffffffffffffffffffffff1673ffffffffffffffffffffffffffffffffffffffff168152602001908152602001600020600501819055505b50505050565b60006146cf6150b2565b8310156146de57819050614760565b60006146e86150c1565b905060008482116146fa57600061470e565b61470d8583613c4990919063ffffffff16565b5b9050614718615141565b8111614724578061472d565b61472c615141565b5b905061475b61473a615141565b61474d83876130ef90919063ffffffff16565b61381d90919063ffffffff16565b925050505b92915050565b61476e611b6a565b73ffffffffffffffffffffffffffffffffffffffff166340c10f1984846040518363ffffffff1660e01b81526004016147a8929190616db8565b602060405180830381600087803b1580156147c257600080fd5b505af11580156147d6573d6000803e3d6000fd5b505050506040513d601f19601f820116820180604052506147fa9190810190616731565b50600081146148bb5761480b611b6a565b73ffffffffffffffffffffffffffffffffffffffff1663a9059cbb84836040518363ffffffff1660e01b8152600401614845929190616db8565b602060405180830381600087803b15801561485f57600080fd5b505af1158015614873573d6000803e3d6000fd5b505050506040513d601f19601f820116820180604052506148979190810190616731565b506148ba816040518060600160405280602a8152602001617521602a913961514a565b5b6148c3615177565b505050565b60006148ef6148ea836148dc87878761528f565b61542990919063ffffffff16565b61545e565b90509392505050565b614900611b6a565b73ffffffffffffffffffffffffffffffffffffffff166323b872dd8330846040518463ffffffff1660e01b815260040161493c93929190616d81565b602060405180830381600087803b15801561495657600080fd5b505af115801561496a573d6000803e3d6000fd5b505050506040513d601f19601f8201168201806040525061498e9190810190616731565b50614997611b6a565b73ffffffffffffffffffffffffffffffffffffffff166342966c68826040518263ffffffff1660e01b81526004016149cf9190617037565b600060405180830381600087803b1580156149e957600080fd5b505af11580156149fd573d6000803e3d6000fd5b50505050614a23816040518060600160405280602881526020016174f960289139615486565b614a2b615177565b5050565b614a8a614a3a611e48565b614a42611b13565b117f426f6e64696e67000000000000000000000000000000000000000000000000007f5374696c6c2063757272656e742065706f636800000000000000000000000000613731565b614a926154b3565b614a9a6154e1565b565b614aa46164ee565b614aac615509565b9050614ac8614ab96155fd565b82613cf190919063ffffffff16565b15614b0c57600180811115614ad957fe5b614ae1613053565b6001811115614aec57fe5b1415614afd57614afc6000615621565b5b614b0681615661565b50614ba1565b614b26614b176155fd565b8261572990919063ffffffff16565b15614b6b5760006001811115614b3857fe5b614b40613053565b6001811115614b4b57fe5b1415614b5c57614b5b6001615621565b5b614b658161573f565b50614ba1565b614b73611e48565b7fff7db5a0dc69b02c191ba632db46961b7d0daa1bd30709ddba9b80ad0a15d2c060405160405180910390a2505b565b60008090505b614bb9614bb4611e48565b611c66565b811015614be657614bd9614bd4614bce611e48565b83611ad8565b6157ea565b8080600101915050614ba9565b506000614c0a614bf4615141565b614bfc611e48565b613a9790919063ffffffff16565b9050614c1d614c17611e48565b8261589f565b50565b614c286164ee565b614cbd614c336130be565b614c3b611b6a565b73ffffffffffffffffffffffffffffffffffffffff166318160ddd6040518163ffffffff1660e01b815260040160206040518083038186803b158015614c8057600080fd5b505afa158015614c94573d6000803e3d6000fd5b505050506040513d601f19601f82011682018060405250614cb891908101906167bf565b613cc0565b9050614cd9614cca61590a565b82613cf190919063ffffffff16565b614ce35780614cec565b614ceb61590a565b5b9050614cf66164ee565b614d29614d13614d0461592e565b8461595190919063ffffffff16565b614d1b61598a565b6159ac90919063ffffffff16565b90506000614d4f614d4a614d3b6118c3565b8461542990919063ffffffff16565b61545e565b90506000614d5c826159e5565b9050614d66611e48565b7f5d114d5b5dd9e34fb549f1f45f1c0183b275ca54c2e64c5116be30c5c9090011846000015183604051614d9b92919061707b565b60405180910390a250505050565b6000838311158290614df1576040517f08c379a0000000000000000000000000000000000000000000000000000000008152600401614de89190616ed5565b60405180910390fd5b5060008385039050809150509392505050565b60608082604051602001614e189190616c9f565b60405160208183030381529060405290506000602090505b6000811115614ea057808060019003915050600060f81b828281518110614e5357fe5b602001015160f81c60f81b7effffffffffffffffffffffffffffffffffffffffffffffffffffffffffffff191614614e9b576000600182019050808352829350505050614eda565b614e30565b5060006040519080825280601f01601f191660200182016040528015614ed55781602001600182028038833980820191505090505b509150505b919050565b6000600f905090565b6000614f0f82614f0185876130ef90919063ffffffff16565b61381d90919063ffffffff16565b90509392505050565b6000816000015183600001511415614f335760019050614f52565b8160000151836000015111614f49576000614f4c565b60025b60ff1690505b92915050565b614f6181615a11565b614fa0576040517f08c379a0000000000000000000000000000000000000000000000000000000008152600401614f9790616fb7565b60405180910390fd5b60007f360894a13ba1a3210667c828492db98dca3e2076cc3735a920a3ca505d382bbc60001b90508181555050565b614fd7611b6a565b73ffffffffffffffffffffffffffffffffffffffff166340c10f1983836040518363ffffffff1660e01b8152600401615011929190616db8565b602060405180830381600087803b15801561502b57600080fd5b505af115801561503f573d6000803e3d6000fd5b505050506040513d601f19601f820116820180604052506150639190810190616731565b5061507461506f611e48565b611cdc565b6150835761508181615a24565b505b61508b615177565b5050565b6150976164ee565b60405180602001604052806611c37937e08000815250905090565b60006150bc615a75565b905090565b60008060018111156150cf57fe5b6150d7613053565b60018111156150e257fe5b14156151205760006150f261258e565b90506000811461511557615110600182613c4990919063ffffffff16565b615118565b60005b91505061513e565b61513b600161512d611e48565b613c4990919063ffffffff16565b90505b90565b6000605a905090565b6151678282600060030160030154614da99092919063ffffffff16565b6000600301600301819055505050565b61528d6151b46151856110cf565b6151a6615190612a34565b6151986118c3565b613a9790919063ffffffff16565b613a9790919063ffffffff16565b6151bc611b6a565b73ffffffffffffffffffffffffffffffffffffffff166370a08231306040518263ffffffff1660e01b81526004016151f49190616d06565b60206040518083038186803b15801561520c57600080fd5b505afa158015615220573d6000803e3d6000fd5b505050506040513d601f19601f8201168201806040525061524491908101906167bf565b10157f436f6d7074726f6c6c65720000000000000000000000000000000000000000007f496e636f6e73697374656e742062616c616e6365730000000000000000000000613731565b565b6152976164ee565b61529f6164ee565b6152a98486613cc0565b90506152b36164ee565b6152bb61590a565b905060006152d28588613c4990919063ffffffff16565b905060006152e98688613c4990919063ffffffff16565b90506152f36164ee565b6152fd8284613cc0565b90506153128486613cf190919063ffffffff16565b156154105761532a8482613cf190919063ffffffff16565b156153445761533884615a7f565b95505050505050615422565b61534c6164ee565b6153568286615aed565b90506153606164ee565b6153738387615b9d90919063ffffffff16565b905061537d6164ee565b61538687615a7f565b90506153906164ee565b6153a3888a615b9d90919063ffffffff16565b90506154006153bb82856159ac90919063ffffffff16565b6153f26153d1848661595190919063ffffffff16565b6153e4878961595190919063ffffffff16565b6159ac90919063ffffffff16565b615bd690919063ffffffff16565b9950505050505050505050615422565b61541a8186615aed565b955050505050505b9392505050565b6154316164ee565b60405180602001604052806154538486600001516130ef90919063ffffffff16565b815250905092915050565b600061547f670de0b6b3a7640000836000015161381d90919063ffffffff16565b9050919050565b6154a38282600060030160040154614da99092919063ffffffff16565b6000600301600401819055505050565b6154bb6110c0565b6000600d0160006154ca611e48565b815260200190815260200160002060000181905550565b6154fc60016000800160020154613a9790919063ffffffff16565b6000800160020181905550565b6155116164ee565b6155196164ee565b6000615523611cf0565b73ffffffffffffffffffffffffffffffffffffffff1663d4a3e9d76040518163ffffffff1660e01b81526004016040805180830381600087803b15801561556957600080fd5b505af115801561557d573d6000803e3d6000fd5b505050506040513d601f19601f820116820180604052506155a1919081019061675a565b915091506155c86155c360016155b5611e48565b613c4990919063ffffffff16565b611cdc565b156155de576155d5615c0f565b925050506155fa565b806155f4576155eb6155fd565b925050506155fa565b81925050505b90565b6156056164ee565b6040518060200160405280670de0b6b3a7640000815250905090565b80601160000160000160006101000a81548160ff0219169083600181111561564557fe5b0217905550615652611e48565b60116000016001018190555050565b600061567361566e615c33565b615c50565b905061567d6164ee565b6156a061569a61568b6155fd565b85615b9d90919063ffffffff16565b84615d3f565b905060006156c66156c16156b261237d565b8461542990919063ffffffff16565b61545e565b90506000806156d483615dd0565b915091506156e0611e48565b7f32fcaa1e76ed9517f4749d8ec9a77dd5e7329456d740b9bf9665d900eef5e28387600001518488856040516157199493929190617120565b60405180910390a2505050505050565b6000806157368484614f18565b14905092915050565b6157476164ee565b61576a615764836157566155fd565b615b9d90919063ffffffff16565b83615d3f565b9050600061579061578b61577c61237d565b8461542990919063ffffffff16565b61545e565b9050600061579d82615a24565b90506157a7611e48565b7f5e139d4b8080a4a00dcc151e8217694aeebae893936326aa22096924a99066778560000151836040516157dc92919061707b565b60405180910390a250505050565b60006157f582612a0f565b90506000806000809150915061580a84615f33565b60006158146110cf565b90506000615820612268565b9050808211156158585761583d8183613c4990919063ffffffff16565b935061584884615f9c565b61585184615dd0565b9050809350505b857f753df65b37159bf237ae1fca97ba1bd57cf83bc9498f271a514a4d7bafe87bda868660008760405161588f94939291906170a4565b60405180910390a2505050505050565b806000600d016000848152602001908152602001600020600101600101819055506000600d0160008281526020019081526020016000206001016002018290806001815401808255809150509060018203906000526020600020016000909192909190915055505050565b6159126164ee565b60405180602001604052806702c68af0bb140000815250905090565b6159366164ee565b60405180602001604052806601c6bf52634000815250905090565b6159596164ee565b604051806020016040528061597f85600001518560000151670de0b6b3a7640000614ee8565b815250905092915050565b6159926164ee565b6040518060200160405280651b48eb57e000815250905090565b6159b46164ee565b60405180602001604052806159da84600001518660000151613a9790919063ffffffff16565b815250905092915050565b6000806159f18361603b565b90506159fb615177565b80615a07576000615a09565b825b915050919050565b600080823b905060008111915050919050565b6000615a2f82616100565b6000615a41615a3c61590a565b615c50565b9050615a4b615177565b828111615a6a57615a658184613c4990919063ffffffff16565b615a6d565b60005b915050919050565b60006101a4905090565b615a876164ee565b615ae6615a926155fd565b615ad8615ac26002615ab487615aa66155fd565b615b9d90919063ffffffff16565b61612a90919063ffffffff16565b615aca6155fd565b615bd690919063ffffffff16565b615b9d90919063ffffffff16565b9050919050565b615af56164ee565b615b08828461619d90919063ffffffff16565b15615b1d57615b1683615a7f565b9050615b97565b615b94615b286155fd565b615b86615b70615b4887615b3a6155fd565b615b9d90919063ffffffff16565b615b6287615b546155fd565b615b9d90919063ffffffff16565b61595190919063ffffffff16565b615b786155fd565b615bd690919063ffffffff16565b615b9d90919063ffffffff16565b90505b92915050565b615ba56164ee565b6040518060200160405280615bcb84600001518660000151613c4990919063ffffffff16565b815250905092915050565b615bde6164ee565b6040518060200160405280615c048560000151670de0b6b3a76400008660000151614ee8565b815250905092915050565b615c176164ee565b6040518060200160405280670f43fc2c04ee0000815250905090565b615c3b6164ee565b60405180602001604052806000815250905090565b600080615cf2615ced615c61611b6a565b73ffffffffffffffffffffffffffffffffffffffff166318160ddd6040518163ffffffff1660e01b815260040160206040518083038186803b158015615ca657600080fd5b505afa158015615cba573d6000803e3d6000fd5b505050506040513d601f19601f82011682018060405250615cde91908101906167bf565b8561542990919063ffffffff16565b61545e565b90506000615cfe6130be565b905081811115615d33576000615d1d8383613c4990919063ffffffff16565b9050615d28816161b2565b809350505050615d3a565b6000925050505b919050565b615d476164ee565b615d4f6164ee565b615d576161fc565b90506000615d636110cf565b90506000615d6f612268565b9050615d8b615d7c6155fd565b86613cf190919063ffffffff16565b8015615d9657508082105b15615da657615da361621f565b92505b615db98387613cf190919063ffffffff16565b615dc35785615dc5565b825b935050505092915050565b6000806000615e026064615df4615de5616242565b876130ef90919063ffffffff16565b61381d90919063ffffffff16565b9050615e0d8161624b565b6000615e3d612710615e2f615e206162f4565b886130ef90919063ffffffff16565b61381d90919063ffffffff16565b9050615e48816162fd565b6000615e5d8284613a9790919063ffffffff16565b9050808611615e6d576000615e81565b615e808187613c4990919063ffffffff16565b5b955060008090506000615e926110cf565b90506000615e9e612268565b905080821015615eed57615ebb8282613c4990919063ffffffff16565b9250888311615eca5782615ecc565b885b9250615ed7836163a6565b615eea838a613c4990919063ffffffff16565b98505b6000615ef88a61603b565b9050615f02615177565b83615f238683615f13576000615f15565b8c5b613a9790919063ffffffff16565b9850985050505050505050915091565b6000615f3e82612a0f565b90506000811415615f4f5750615f99565b615f6a81600060030160050154613c4990919063ffffffff16565b600060030160050181905550600080600d01600084815260200190815260200160002060010160000181905550505b50565b615fa4611b6a565b73ffffffffffffffffffffffffffffffffffffffff166342966c68826040518263ffffffff1660e01b8152600401615fdc9190617037565b600060405180830381600087803b158015615ff657600080fd5b505af115801561600a573d6000803e3d6000fd5b50505050616030816040518060600160405280602a8152602001617521602a913961514a565b616038615177565b50565b6000806160466118c3565b141590506000821180156160575750805b156160fb57616064611b6a565b73ffffffffffffffffffffffffffffffffffffffff166340c10f1930846040518363ffffffff1660e01b815260040161609e929190616db8565b602060405180830381600087803b1580156160b857600080fd5b505af11580156160cc573d6000803e3d6000fd5b505050506040513d601f19601f820116820180604052506160f09190810190616731565b506160fa82614188565b5b919050565b61611b81600060030160040154613a9790919063ffffffff16565b60006003016004018190555050565b6161326164ee565b600082141561614c57616145600161644f565b9050616197565b6161546164ee565b6040518060200160405280856000015181525090506000600190505b83811015616191576161828286615951565b91508080600101915050616170565b50809150505b92915050565b60008160000151836000015114905092915050565b6161f1816040518060400160405280601c81526020017f436f6d7074726f6c6c65723a206e6f7420656e6f756768206465627400000000815250615486565b6161f9615177565b50565b6162046164ee565b6040518060200160405280666a94d74f430000815250905090565b6162276164ee565b604051806020016040528066d529ae9e860000815250905090565b60006014905090565b60008111156162f15761625c611b6a565b73ffffffffffffffffffffffffffffffffffffffff166340c10f1961627f611091565b836040518363ffffffff1660e01b815260040161629d929190616db8565b602060405180830381600087803b1580156162b757600080fd5b505af11580156162cb573d6000803e3d6000fd5b505050506040513d601f19601f820116820180604052506162ef9190810190616731565b505b50565b600060fa905090565b60008111156163a35761630e611b6a565b73ffffffffffffffffffffffffffffffffffffffff166340c10f19616331616487565b836040518363ffffffff1660e01b815260040161634f929190616db8565b602060405180830381600087803b15801561636957600080fd5b505af115801561637d573d6000803e3d6000fd5b505050506040513d601f19601f820116820180604052506163a19190810190616731565b505b50565b6163ae611b6a565b73ffffffffffffffffffffffffffffffffffffffff166340c10f1930836040518363ffffffff1660e01b81526004016163e8929190616db8565b602060405180830381600087803b15801561640257600080fd5b505af1158015616416573d6000803e3d6000fd5b505050506040513d601f19601f8201168201806040525061643a9190810190616731565b50616444816164a3565b61644c615177565b50565b6164576164ee565b604051806020016040528061647d670de0b6b3a7640000856130ef90919063ffffffff16565b8152509050919050565b600073460661bd4a5364a3abcc9cfc4a8ce7038d05ea22905090565b6164be81600060030160030154613a9790919063ffffffff16565b60006003016003018190555050565b60405180606001604052806000815260200160008152602001600081525090565b6040518060200160405280600081525090565b600081359050616510816173e8565b92915050565b600081519050616525816173ff565b92915050565b60008135905061653a81617416565b92915050565b60006020828403121561655257600080fd5b61655c6020617180565b9050600061656c8482850161658d565b60008301525092915050565b60008135905061658781617426565b92915050565b60008151905061659c81617426565b92915050565b6000602082840312156165b457600080fd5b60006165c284828501616501565b91505092915050565b600080604083850312156165de57600080fd5b60006165ec85828601616501565b92505060206165fd85828601616501565b9150509250929050565b60008060006060848603121561661c57600080fd5b600061662a86828701616501565b935050602061663b86828701616501565b925050604061664c86828701616578565b9150509250925092565b6000806000806080858703121561666c57600080fd5b600061667a87828801616501565b945050602061668b87828801616501565b935050604061669c87828801616578565b92505060606166ad87828801616578565b91505092959194509250565b600080604083850312156166cc57600080fd5b60006166da85828601616501565b92505060206166eb8582860161652b565b9150509250929050565b6000806040838503121561670857600080fd5b600061671685828601616501565b925050602061672785828601616578565b9150509250929050565b60006020828403121561674357600080fd5b600061675184828501616516565b91505092915050565b6000806040838503121561676d57600080fd5b600061677b85828601616540565b925050602061678c85828601616516565b9150509250929050565b6000602082840312156167a857600080fd5b60006167b684828501616578565b91505092915050565b6000602082840312156167d157600080fd5b60006167df8482850161658d565b91505092915050565b600080604083850312156167fb57600080fd5b600061680985828601616578565b925050602061681a85828601616578565b9150509250929050565b61682d816172a3565b82525050565b61683c816171df565b82525050565b61684b816171f1565b82525050565b61686261685d826171fd565b61739c565b82525050565b61687961687482617229565b6173a6565b82525050565b600061688a826171ad565b61689481856171c3565b93506168a4818560208601617369565b80840191505092915050565b6168b9816172b5565b82525050565b6168c8816172d9565b82525050565b6168d7816172fd565b82525050565b6168e68161730f565b82525050565b6168f581617321565b82525050565b61690481617333565b82525050565b6000616915826171b8565b61691f81856171ce565b935061692f818560208601617369565b616938816173b0565b840191505092915050565b6000616950601b836171ce565b91507f536166654d6174683a206164646974696f6e206f766572666c6f7700000000006000830152602082019050919050565b60006169906018836171ce565b91507f4d61726b65743a20416c7265616479206d6967726174656400000000000000006000830152602082019050919050565b60006169d06012836171ce565b91507f4d61726b65743a204e6f20636f75706f6e7300000000000000000000000000006000830152602082019050919050565b6000616a106016836171ce565b91507f4d61726b65743a20416d6f756e7420746f6f206c6f77000000000000000000006000830152602082019050919050565b6000616a50602b836171ce565b91507f4d61726b65743a20436f75706f6e207472616e7366657220746f20746865207a60008301527f65726f20616464726573730000000000000000000000000000000000000000006020830152604082019050919050565b6000616ab66021836171ce565b91507f536166654d6174683a206d756c7469706c69636174696f6e206f766572666c6f60008301527f77000000000000000000000000000000000000000000000000000000000000006020830152604082019050919050565b6000616b1c603b836171ce565b91507f43616e6e6f742073657420612070726f787920696d706c656d656e746174696f60008301527f6e20746f2061206e6f6e2d636f6e7472616374206164647265737300000000006020830152604082019050919050565b6000616b82602a836171ce565b91507f4d61726b65743a20436f75706f6e20617070726f766520746f20746865207a6560008301527f726f2061646472657373000000000000000000000000000000000000000000006020830152604082019050919050565b6000616be8602d836171ce565b91507f4d61726b65743a20436f75706f6e207472616e736665722066726f6d2074686560008301527f207a65726f2061646472657373000000000000000000000000000000000000006020830152604082019050919050565b6000616c4e601b836171ce565b91507f4d61726b65743a20546f6f206561726c7920746f2072656465656d00000000006000830152602082019050919050565b616c8a8161728c565b82525050565b616c9981617296565b82525050565b6000616cab8284616868565b60208201915081905092915050565b6000616cc6828461687f565b915081905092915050565b6000616cdd828661687f565b9150616ce98285616851565b600282019150616cf9828461687f565b9150819050949350505050565b6000602082019050616d1b6000830184616833565b92915050565b6000606082019050616d366000830186616824565b616d436020830185616833565b616d506040830184616c81565b949350505050565b6000604082019050616d6d6000830185616824565b616d7a6020830184616c81565b9392505050565b6000606082019050616d966000830186616833565b616da36020830185616833565b616db06040830184616c81565b949350505050565b6000604082019050616dcd6000830185616833565b616dda6020830184616c81565b9392505050565b6000602082019050616df66000830184616842565b92915050565b6000602082019050616e1160008301846168b0565b92915050565b6000602082019050616e2c60008301846168bf565b92915050565b6000602082019050616e4760008301846168ce565b92915050565b6000602082019050616e6260008301846168dd565b92915050565b6000602082019050616e7d60008301846168ec565b92915050565b6000604082019050616e9860008301856168ec565b616ea56020830184616c81565b9392505050565b6000604082019050616ec160008301856168fb565b616ece6020830184616c81565b9392505050565b60006020820190508181036000830152616eef818461690a565b905092915050565b60006020820190508181036000830152616f1081616943565b9050919050565b60006020820190508181036000830152616f3081616983565b9050919050565b60006020820190508181036000830152616f50816169c3565b9050919050565b60006020820190508181036000830152616f7081616a03565b9050919050565b60006020820190508181036000830152616f9081616a43565b9050919050565b60006020820190508181036000830152616fb081616aa9565b9050919050565b60006020820190508181036000830152616fd081616b0f565b9050919050565b60006020820190508181036000830152616ff081616b75565b9050919050565b6000602082019050818103600083015261701081616bdb565b9050919050565b6000602082019050818103600083015261703081616c41565b9050919050565b600060208201905061704c6000830184616c81565b92915050565b60006040820190506170676000830185616c81565b61707460208301846168fb565b9392505050565b60006040820190506170906000830185616c81565b61709d6020830184616c81565b9392505050565b60006080820190506170b96000830187616c81565b6170c66020830186616c81565b6170d360408301856168fb565b6170e06060830184616c81565b95945050505050565b60006060820190506170fe6000830186616c81565b61710b6020830185616c81565b6171186040830184616c81565b949350505050565b60006080820190506171356000830187616c81565b6171426020830186616c81565b61714f6040830185616c81565b61715c6060830184616c81565b95945050505050565b600060208201905061717a6000830184616c90565b92915050565b6000604051905081810181811067ffffffffffffffff821117156171a357600080fd5b8060405250919050565b600081519050919050565b600081519050919050565b600081905092915050565b600082825260208201905092915050565b60006171ea8261726c565b9050919050565b60008115159050919050565b60007fffff00000000000000000000000000000000000000000000000000000000000082169050919050565b6000819050919050565b6000819050617241826173c1565b919050565b6000819050617254826173ce565b919050565b6000819050617267826173db565b919050565b600073ffffffffffffffffffffffffffffffffffffffff82169050919050565b6000819050919050565b600060ff82169050919050565b60006172ae82617345565b9050919050565b60006172c0826172c7565b9050919050565b60006172d28261726c565b9050919050565b60006172e4826172eb565b9050919050565b60006172f68261726c565b9050919050565b600061730882617233565b9050919050565b600061731a82617246565b9050919050565b600061732c82617259565b9050919050565b600061733e8261728c565b9050919050565b600061735082617357565b9050919050565b60006173628261726c565b9050919050565b60005b8381101561738757808201518184015260208101905061736c565b83811115617396576000848401525b50505050565b6000819050919050565b6000819050919050565b6000601f19601f8301169050919050565b600381106173cb57fe5b50565b600281106173d857fe5b50565b600381106173e557fe5b50565b6173f1816171df565b81146173fc57600080fd5b50565b617408816171f1565b811461741357600080fd5b50565b6003811061742357600080fd5b50565b61742f8161728c565b811461743a57600080fd5b5056fe4d61726b65743a20496e73756666696369656e7420636f75706f6e20756e6465726c79696e672062616c616e63654d61726b65743a20496e73756666696369656e7420636f75706f6e2062616c616e6365426f6e64696e673a20696e73756666696369656e74207374616765642062616c616e63654d61726b65743a20496e73756666696369656e7420636f75706f6e20617070726f76616c426f6e64696e673a20696e73756666696369656e7420746f74616c20626f6e646564436f6d7074726f6c6c65723a206e6f7420656e6f756768206f75747374616e64696e672064656274436f6d7074726f6c6c65723a206e6f7420656e6f7567682072656465656d61626c652062616c616e6365a365627a7a72315820831e4c2457eb7d09b08e9cb2131f53e3349290719a363bad0989ab24b21f1b646c6578706572696d656e74616cf564736f6c63430005110040",
  "source": "/*\n    Copyright 2020 Empty Set Squad <emptysetsquad@protonmail.com>\n\n    Licensed under the Apache License, Version 2.0 (the \"License\");\n    you may not use this file except in compliance with the License.\n    You may obtain a copy of the License at\n\n    http://www.apache.org/licenses/LICENSE-2.0\n\n    Unless required by applicable law or agreed to in writing, software\n    distributed under the License is distributed on an \"AS IS\" BASIS,\n    WITHOUT WARRANTIES OR CONDITIONS OF ANY KIND, either express or implied.\n    See the License for the specific language governing permissions and\n    limitations under the License.\n*/\n\npragma solidity ^0.5.17;\npragma experimental ABIEncoderV2;\n\nimport \"@openzeppelin/contracts/math/SafeMath.sol\";\nimport \"./Market.sol\";\nimport \"./Regulator.sol\";\nimport \"./Bonding.sol\";\nimport \"./Govern.sol\";\nimport \"../Constants.sol\";\nimport \"./Stabilizer.sol\";\n\ncontract Implementation is State, Bonding, Market, Regulator, Stabilizer, Govern {\n    using SafeMath for uint256;\n\n    event Advance(uint256 indexed epoch, uint256 block, uint256 timestamp);\n    event Incentivization(address indexed account, uint256 amount);\n\n    function initialize() initializer public {\n        // Reward committer\n        incentivize(msg.sender, Constants.getAdvanceIncentive());\n        // Dev rewards\n\n    }\n\n    function advance() external {\n        incentivize(msg.sender, Constants.getAdvanceIncentive());\n\n        Bonding.step();\n        Regulator.step();\n        Market.step();\n        Stabilizer.step();\n\n        emit Advance(epoch(), block.number, block.timestamp);\n    }\n\n    function incentivize(address account, uint256 amount) private {\n        mintToAccount(account, amount);\n        emit Incentivization(account, amount);\n    }\n}\n",
  "sourcePath": "/Users/gokulalex/Apps/eth_apps/SemiotNet/contracts/dao/Implementation.sol",
  "compiler": {
    "name": "solc",
    "version": "0.5.17+commit.d19bba13.Emscripten.clang"
  },
  "schemaVersion": "3.3.3",
  "updatedAt": "2021-02-19T15:49:23.532Z",
  "devdoc": {
    "methods": {}
  },
  "userdoc": {
    "methods": {
      "balanceOfStaged(address)": {
        "notice": "Account"
      },
      "dollar()": {
        "notice": "Global"
      },
      "epoch()": {
        "notice": "Epoch"
      },
      "name()": {
        "notice": "ERC20 Interface"
      },
      "recordedVote(address,address)": {
        "notice": "Governance"
      },
      "transfer(address,uint256)": {
        "notice": "ERC20 Interface"
      }
    }
  }
}