{
  "contractName": "Liquidity",
  "abi": [
    {
      "constant": true,
      "inputs": [
        {
          "internalType": "address",
          "name": "account",
          "type": "address"
        }
      ],
      "name": "balanceOfBonded",
      "outputs": [
        {
          "internalType": "uint256",
          "name": "",
          "type": "uint256"
        }
      ],
      "payable": false,
      "stateMutability": "view",
      "type": "function"
    },
    {
      "constant": true,
      "inputs": [
        {
          "internalType": "address",
          "name": "account",
          "type": "address"
        }
      ],
      "name": "balanceOfClaimable",
      "outputs": [
        {
          "internalType": "uint256",
          "name": "",
          "type": "uint256"
        }
      ],
      "payable": false,
      "stateMutability": "view",
      "type": "function"
    },
    {
      "constant": true,
      "inputs": [
        {
          "internalType": "address",
          "name": "account",
          "type": "address"
        }
      ],
      "name": "balanceOfPhantom",
      "outputs": [
        {
          "internalType": "uint256",
          "name": "",
          "type": "uint256"
        }
      ],
      "payable": false,
      "stateMutability": "view",
      "type": "function"
    },
    {
      "constant": true,
      "inputs": [
        {
          "internalType": "address",
          "name": "account",
          "type": "address"
        }
      ],
      "name": "balanceOfRewarded",
      "outputs": [
        {
          "internalType": "uint256",
          "name": "",
          "type": "uint256"
        }
      ],
      "payable": false,
      "stateMutability": "view",
      "type": "function"
    },
    {
      "constant": true,
      "inputs": [
        {
          "internalType": "address",
          "name": "account",
          "type": "address"
        }
      ],
      "name": "balanceOfStaged",
      "outputs": [
        {
          "internalType": "uint256",
          "name": "",
          "type": "uint256"
        }
      ],
      "payable": false,
      "stateMutability": "view",
      "type": "function"
    },
    {
      "constant": true,
      "inputs": [],
      "name": "dao",
      "outputs": [
        {
          "internalType": "contract IDAO",
          "name": "",
          "type": "address"
        }
      ],
      "payable": false,
      "stateMutability": "view",
      "type": "function"
    },
    {
      "constant": true,
      "inputs": [],
      "name": "dollar",
      "outputs": [
        {
          "internalType": "contract IDollar",
          "name": "",
          "type": "address"
        }
      ],
      "payable": false,
      "stateMutability": "view",
      "type": "function"
    },
    {
      "constant": true,
      "inputs": [],
      "name": "paused",
      "outputs": [
        {
          "internalType": "bool",
          "name": "",
          "type": "bool"
        }
      ],
      "payable": false,
      "stateMutability": "view",
      "type": "function"
    },
    {
      "constant": true,
      "inputs": [
        {
          "internalType": "address",
          "name": "account",
          "type": "address"
        }
      ],
      "name": "statusOf",
      "outputs": [
        {
          "internalType": "enum PoolAccount.Status",
          "name": "",
          "type": "uint8"
        }
      ],
      "payable": false,
      "stateMutability": "view",
      "type": "function"
    },
    {
      "constant": true,
      "inputs": [],
      "name": "totalBonded",
      "outputs": [
        {
          "internalType": "uint256",
          "name": "",
          "type": "uint256"
        }
      ],
      "payable": false,
      "stateMutability": "view",
      "type": "function"
    },
    {
      "constant": true,
      "inputs": [],
      "name": "totalClaimable",
      "outputs": [
        {
          "internalType": "uint256",
          "name": "",
          "type": "uint256"
        }
      ],
      "payable": false,
      "stateMutability": "view",
      "type": "function"
    },
    {
      "constant": true,
      "inputs": [],
      "name": "totalPhantom",
      "outputs": [
        {
          "internalType": "uint256",
          "name": "",
          "type": "uint256"
        }
      ],
      "payable": false,
      "stateMutability": "view",
      "type": "function"
    },
    {
      "constant": true,
      "inputs": [],
      "name": "totalRewarded",
      "outputs": [
        {
          "internalType": "uint256",
          "name": "",
          "type": "uint256"
        }
      ],
      "payable": false,
      "stateMutability": "view",
      "type": "function"
    },
    {
      "constant": true,
      "inputs": [],
      "name": "totalStaged",
      "outputs": [
        {
          "internalType": "uint256",
          "name": "",
          "type": "uint256"
        }
      ],
      "payable": false,
      "stateMutability": "view",
      "type": "function"
    },
    {
      "constant": true,
      "inputs": [],
      "name": "univ2",
      "outputs": [
        {
          "internalType": "contract IERC20",
          "name": "",
          "type": "address"
        }
      ],
      "payable": false,
      "stateMutability": "view",
      "type": "function"
    },
    {
      "constant": true,
      "inputs": [],
      "name": "usdc",
      "outputs": [
        {
          "internalType": "address",
          "name": "",
          "type": "address"
        }
      ],
      "payable": false,
      "stateMutability": "view",
      "type": "function"
    }
  ],
  "bytecode": "0x608060405234801561001057600080fd5b50610e92806100206000396000f3fe608060405234801561001057600080fd5b50600436106101005760003560e01c80637298d36e11610097578063aed29d0711610066578063aed29d07146102c7578063c0d7a94f146102e5578063cf02377914610315578063e0cf72851461033357610100565b80637298d36e14610219578063825ad6071461023757806386cf9f141461026757806397a5d5b51461029757610100565b806344d96e95116100d357806344d96e95146101a15780634838ed19146101bf57806351adeb57146101dd5780635c975abb146101fb57610100565b80631667eb171461010557806329f32ed4146101355780633e413bee146101655780634162169f14610183575b600080fd5b61011f600480360361011a9190810190610a22565b610351565b60405161012c9190610cc0565b60405180910390f35b61014f600480360361014a9190810190610a22565b61039f565b60405161015c9190610cc0565b60405180910390f35b61016d6103ed565b60405161017a9190610bbc565b60405180910390f35b61018b6103fc565b6040516101989190610bf2565b60405180910390f35b6101a961040b565b6040516101b69190610cc0565b60405180910390f35b6101c761041a565b6040516101d49190610cc0565b60405180910390f35b6101e5610429565b6040516101f29190610c0d565b60405180910390f35b610203610438565b6040516102109190610bd7565b60405180910390f35b610221610451565b60405161022e9190610c28565b60405180910390f35b610251600480360361024c9190810190610a22565b610460565b60405161025e9190610cc0565b60405180910390f35b610281600480360361027c9190810190610a22565b6104ae565b60405161028e9190610cc0565b60405180910390f35b6102b160048036036102ac9190810190610a22565b6104fc565b6040516102be9190610c43565b60405180910390f35b6102cf610562565b6040516102dc9190610cc0565b60405180910390f35b6102ff60048036036102fa9190810190610a22565b610612565b60405161030c9190610cc0565b60405180910390f35b61031d6106c9565b60405161032a9190610cc0565b60405180910390f35b61033b6106d8565b6040516103489190610cc0565b60405180910390f35b60008060050160008373ffffffffffffffffffffffffffffffffffffffff1673ffffffffffffffffffffffffffffffffffffffff168152602001908152602001600020600101549050919050565b60008060050160008373ffffffffffffffffffffffffffffffffffffffff1673ffffffffffffffffffffffffffffffffffffffff168152602001908152602001600020600301549050919050565b60006103f76106e7565b905090565b6000610406610703565b905090565b60008060000160020154905090565b60008060000160010154905090565b600061043361071f565b905090565b60008060040160009054906101000a900460ff16905090565b600061045b61073b565b905090565b60008060050160008373ffffffffffffffffffffffffffffffffffffffff1673ffffffffffffffffffffffffffffffffffffffff168152602001908152602001600020600201549050919050565b60008060050160008373ffffffffffffffffffffffffffffffffffffffff1673ffffffffffffffffffffffffffffffffffffffff168152602001908152602001600020600001549050919050565b60008060050160008373ffffffffffffffffffffffffffffffffffffffff1673ffffffffffffffffffffffffffffffffffffffff1681526020019081526020016000206004015461054b610757565b101561055857600161055b565b60005b9050919050565b600061060d61056f61041a565b610577610429565b73ffffffffffffffffffffffffffffffffffffffff166370a08231306040518263ffffffff1660e01b81526004016105af9190610bbc565b60206040518083038186803b1580156105c757600080fd5b505afa1580156105db573d6000803e3d6000fd5b505050506040513d601f19601f820116820180604052506105ff9190810190610a4b565b6107e390919063ffffffff16565b905090565b60008061061d61040b565b905060008114156106325760009150506106c4565b600061065561063f6106d8565b610647610562565b61082d90919063ffffffff16565b905060006106868361067861066988610460565b8561088290919063ffffffff16565b6108f290919063ffffffff16565b905060006106938661039f565b9050808211156106bb576106b081836107e390919063ffffffff16565b9450505050506106c4565b60009450505050505b919050565b60008060000160000154905090565b60008060000160030154905090565b600073a0b86991c6218b36c1d19d4a2e9eb0ce3606eb48905090565b600073443d2f2755db5942601fa062cc248aaa153313d3905090565b60007336f3fd68e7325a35eb768f1aedaae9ea0689d723905090565b60007388ff79eb2bc5850f27315415da8685282c7610f9905090565b60006107616103fc565b73ffffffffffffffffffffffffffffffffffffffff1663900cf0cf6040518163ffffffff1660e01b815260040160206040518083038186803b1580156107a657600080fd5b505afa1580156107ba573d6000803e3d6000fd5b505050506040513d601f19601f820116820180604052506107de9190810190610a4b565b905090565b600061082583836040518060400160405280601e81526020017f536166654d6174683a207375627472616374696f6e206f766572666c6f77000081525061093c565b905092915050565b600080828401905083811015610878576040517f08c379a000000000000000000000000000000000000000000000000000000000815260040161086f90610c80565b60405180910390fd5b8091505092915050565b60008083141561089557600090506108ec565b60008284029050828482816108a657fe5b04146108e7576040517f08c379a00000000000000000000000000000000000000000000000000000000081526004016108de90610ca0565b60405180910390fd5b809150505b92915050565b600061093483836040518060400160405280601a81526020017f536166654d6174683a206469766973696f6e206279207a65726f000000000000815250610997565b905092915050565b6000838311158290610984576040517f08c379a000000000000000000000000000000000000000000000000000000000815260040161097b9190610c5e565b60405180910390fd5b5060008385039050809150509392505050565b600080831182906109de576040517f08c379a00000000000000000000000000000000000000000000000000000000081526004016109d59190610c5e565b60405180910390fd5b5060008385816109ea57fe5b049050809150509392505050565b600081359050610a0781610e21565b92915050565b600081519050610a1c81610e38565b92915050565b600060208284031215610a3457600080fd5b6000610a42848285016109f8565b91505092915050565b600060208284031215610a5d57600080fd5b6000610a6b84828501610a0d565b91505092915050565b610a7d81610cf7565b82525050565b610a8c81610d09565b82525050565b610a9b81610d52565b82525050565b610aaa81610d76565b82525050565b610ab981610d9a565b82525050565b610ac881610dbe565b82525050565b6000610ad982610cdb565b610ae38185610ce6565b9350610af3818560208601610dd0565b610afc81610e03565b840191505092915050565b6000610b14601b83610ce6565b91507f536166654d6174683a206164646974696f6e206f766572666c6f7700000000006000830152602082019050919050565b6000610b54602183610ce6565b91507f536166654d6174683a206d756c7469706c69636174696f6e206f766572666c6f60008301527f77000000000000000000000000000000000000000000000000000000000000006020830152604082019050919050565b610bb681610d48565b82525050565b6000602082019050610bd16000830184610a74565b92915050565b6000602082019050610bec6000830184610a83565b92915050565b6000602082019050610c076000830184610a92565b92915050565b6000602082019050610c226000830184610aa1565b92915050565b6000602082019050610c3d6000830184610ab0565b92915050565b6000602082019050610c586000830184610abf565b92915050565b60006020820190508181036000830152610c788184610ace565b905092915050565b60006020820190508181036000830152610c9981610b07565b9050919050565b60006020820190508181036000830152610cb981610b47565b9050919050565b6000602082019050610cd56000830184610bad565b92915050565b600081519050919050565b600082825260208201905092915050565b6000610d0282610d28565b9050919050565b60008115159050919050565b6000819050610d2382610e14565b919050565b600073ffffffffffffffffffffffffffffffffffffffff82169050919050565b6000819050919050565b6000610d5d82610d64565b9050919050565b6000610d6f82610d28565b9050919050565b6000610d8182610d88565b9050919050565b6000610d9382610d28565b9050919050565b6000610da582610dac565b9050919050565b6000610db782610d28565b9050919050565b6000610dc982610d15565b9050919050565b60005b83811015610dee578082015181840152602081019050610dd3565b83811115610dfd576000848401525b50505050565b6000601f19601f8301169050919050565b60038110610e1e57fe5b50565b610e2a81610cf7565b8114610e3557600080fd5b50565b610e4181610d48565b8114610e4c57600080fd5b5056fea365627a7a723158208f860e2fa69bc210a93721b2ee32cd814ac5f5ec30ebefbdc45f787a8e52c7956c6578706572696d656e74616cf564736f6c63430005110040",
  "source": "/*\n    Copyright 2020 Empty Set Squad <emptysetsquad@protonmail.com>\n\n    Licensed under the Apache License, Version 2.0 (the \"License\");\n    you may not use this file except in compliance with the License.\n    You may obtain a copy of the License at\n\n    http://www.apache.org/licenses/LICENSE-2.0\n\n    Unless required by applicable law or agreed to in writing, software\n    distributed under the License is distributed on an \"AS IS\" BASIS,\n    WITHOUT WARRANTIES OR CONDITIONS OF ANY KIND, either express or implied.\n    See the License for the specific language governing permissions and\n    limitations under the License.\n*/\n\npragma solidity ^0.5.17;\npragma experimental ABIEncoderV2;\n\nimport \"@openzeppelin/contracts/token/ERC20/IERC20.sol\";\nimport '@uniswap/v2-core/contracts/interfaces/IUniswapV2Pair.sol';\nimport '../external/UniswapV2Library.sol';\nimport \"../Constants.sol\";\nimport \"./PoolGetters.sol\";\n\ncontract Liquidity is PoolGetters {\n    address private constant UNISWAP_FACTORY = address(0x5C69bEe701ef814a2B6a3EDD4B1652CB9cc5aA6f);\n\n    function addLiquidity(uint256 dollarAmount) internal returns (uint256, uint256) {\n        (address dollar, address usdc) = (address(dollar()), usdc());\n        (uint reserveA, uint reserveB) = getReserves(dollar, usdc);\n\n        uint256 usdcAmount = (reserveA == 0 && reserveB == 0) ?\n             dollarAmount :\n             UniswapV2Library.quote(dollarAmount, reserveA, reserveB);\n\n        address pair = address(univ2());\n        IERC20(dollar).transfer(pair, dollarAmount);\n        IERC20(usdc).transferFrom(msg.sender, pair, usdcAmount);\n        return (usdcAmount, IUniswapV2Pair(pair).mint(address(this)));\n    }\n\n    // overridable for testing\n    function getReserves(address tokenA, address tokenB) internal view returns (uint reserveA, uint reserveB) {\n        (address token0,) = UniswapV2Library.sortTokens(tokenA, tokenB);\n        (uint reserve0, uint reserve1,) = IUniswapV2Pair(UniswapV2Library.pairFor(UNISWAP_FACTORY, tokenA, tokenB)).getReserves();\n        (reserveA, reserveB) = tokenA == token0 ? (reserve0, reserve1) : (reserve1, reserve0);\n    }\n}\n",
  "sourcePath": "/Users/gokulalex/Apps/eth_apps/SemiotNet/contracts/oracle/Liquidity.sol",
  "compiler": {
    "name": "solc",
    "version": "0.5.17+commit.d19bba13.Emscripten.clang"
  },
  "schemaVersion": "3.3.3",
  "updatedAt": "2021-02-19T15:49:23.741Z",
  "devdoc": {
    "methods": {}
  },
  "userdoc": {
    "methods": {
      "balanceOfStaged(address)": {
        "notice": "Account"
      },
      "usdc()": {
        "notice": "Global"
      }
    }
  }
}