{
  "contractName": "Market",
  "abi": [
    {
      "anonymous": false,
      "inputs": [
        {
          "indexed": true,
          "internalType": "address",
          "name": "owner",
          "type": "address"
        },
        {
          "indexed": true,
          "internalType": "address",
          "name": "spender",
          "type": "address"
        },
        {
          "indexed": false,
          "internalType": "uint256",
          "name": "value",
          "type": "uint256"
        }
      ],
      "name": "CouponApproval",
      "type": "event"
    },
    {
      "anonymous": false,
      "inputs": [
        {
          "indexed": true,
          "internalType": "uint256",
          "name": "epoch",
          "type": "uint256"
        },
        {
          "indexed": false,
          "internalType": "uint256",
          "name": "couponsExpired",
          "type": "uint256"
        },
        {
          "indexed": false,
          "internalType": "uint256",
          "name": "lessRedeemable",
          "type": "uint256"
        },
        {
          "indexed": false,
          "internalType": "uint256",
          "name": "lessDebt",
          "type": "uint256"
        },
        {
          "indexed": false,
          "internalType": "uint256",
          "name": "newBonded",
          "type": "uint256"
        }
      ],
      "name": "CouponExpiration",
      "type": "event"
    },
    {
      "anonymous": false,
      "inputs": [
        {
          "indexed": true,
          "internalType": "address",
          "name": "account",
          "type": "address"
        },
        {
          "indexed": true,
          "internalType": "uint256",
          "name": "epoch",
          "type": "uint256"
        },
        {
          "indexed": false,
          "internalType": "uint256",
          "name": "dollarAmount",
          "type": "uint256"
        },
        {
          "indexed": false,
          "internalType": "uint256",
          "name": "couponAmount",
          "type": "uint256"
        }
      ],
      "name": "CouponPurchase",
      "type": "event"
    },
    {
      "anonymous": false,
      "inputs": [
        {
          "indexed": true,
          "internalType": "address",
          "name": "account",
          "type": "address"
        },
        {
          "indexed": true,
          "internalType": "uint256",
          "name": "epoch",
          "type": "uint256"
        },
        {
          "indexed": false,
          "internalType": "uint256",
          "name": "amount",
          "type": "uint256"
        },
        {
          "indexed": false,
          "internalType": "uint256",
          "name": "couponAmount",
          "type": "uint256"
        }
      ],
      "name": "CouponRedemption",
      "type": "event"
    },
    {
      "anonymous": false,
      "inputs": [
        {
          "indexed": true,
          "internalType": "address",
          "name": "from",
          "type": "address"
        },
        {
          "indexed": true,
          "internalType": "address",
          "name": "to",
          "type": "address"
        },
        {
          "indexed": true,
          "internalType": "uint256",
          "name": "epoch",
          "type": "uint256"
        },
        {
          "indexed": false,
          "internalType": "uint256",
          "name": "value",
          "type": "uint256"
        }
      ],
      "name": "CouponTransfer",
      "type": "event"
    },
    {
      "anonymous": false,
      "inputs": [
        {
          "indexed": true,
          "internalType": "address",
          "name": "from",
          "type": "address"
        },
        {
          "indexed": true,
          "internalType": "address",
          "name": "to",
          "type": "address"
        },
        {
          "indexed": false,
          "internalType": "uint256",
          "name": "value",
          "type": "uint256"
        }
      ],
      "name": "Transfer",
      "type": "event"
    },
    {
      "constant": true,
      "inputs": [
        {
          "internalType": "address",
          "name": "owner",
          "type": "address"
        },
        {
          "internalType": "address",
          "name": "spender",
          "type": "address"
        }
      ],
      "name": "allowance",
      "outputs": [
        {
          "internalType": "uint256",
          "name": "",
          "type": "uint256"
        }
      ],
      "payable": false,
      "stateMutability": "view",
      "type": "function"
    },
    {
      "constant": true,
      "inputs": [
        {
          "internalType": "address",
          "name": "owner",
          "type": "address"
        },
        {
          "internalType": "address",
          "name": "spender",
          "type": "address"
        }
      ],
      "name": "allowanceCoupons",
      "outputs": [
        {
          "internalType": "uint256",
          "name": "",
          "type": "uint256"
        }
      ],
      "payable": false,
      "stateMutability": "view",
      "type": "function"
    },
    {
      "constant": false,
      "inputs": [
        {
          "internalType": "address",
          "name": "spender",
          "type": "address"
        },
        {
          "internalType": "uint256",
          "name": "amount",
          "type": "uint256"
        }
      ],
      "name": "approve",
      "outputs": [
        {
          "internalType": "bool",
          "name": "",
          "type": "bool"
        }
      ],
      "payable": false,
      "stateMutability": "nonpayable",
      "type": "function"
    },
    {
      "constant": true,
      "inputs": [
        {
          "internalType": "address",
          "name": "candidate",
          "type": "address"
        }
      ],
      "name": "approveFor",
      "outputs": [
        {
          "internalType": "uint256",
          "name": "",
          "type": "uint256"
        }
      ],
      "payable": false,
      "stateMutability": "view",
      "type": "function"
    },
    {
      "constant": true,
      "inputs": [
        {
          "internalType": "address",
          "name": "account",
          "type": "address"
        }
      ],
      "name": "balanceOf",
      "outputs": [
        {
          "internalType": "uint256",
          "name": "",
          "type": "uint256"
        }
      ],
      "payable": false,
      "stateMutability": "view",
      "type": "function"
    },
    {
      "constant": true,
      "inputs": [
        {
          "internalType": "address",
          "name": "account",
          "type": "address"
        }
      ],
      "name": "balanceOfBonded",
      "outputs": [
        {
          "internalType": "uint256",
          "name": "",
          "type": "uint256"
        }
      ],
      "payable": false,
      "stateMutability": "view",
      "type": "function"
    },
    {
      "constant": true,
      "inputs": [
        {
          "internalType": "address",
          "name": "account",
          "type": "address"
        },
        {
          "internalType": "uint256",
          "name": "epoch",
          "type": "uint256"
        }
      ],
      "name": "balanceOfCouponUnderlying",
      "outputs": [
        {
          "internalType": "uint256",
          "name": "",
          "type": "uint256"
        }
      ],
      "payable": false,
      "stateMutability": "view",
      "type": "function"
    },
    {
      "constant": true,
      "inputs": [
        {
          "internalType": "address",
          "name": "account",
          "type": "address"
        },
        {
          "internalType": "uint256",
          "name": "epoch",
          "type": "uint256"
        }
      ],
      "name": "balanceOfCoupons",
      "outputs": [
        {
          "internalType": "uint256",
          "name": "",
          "type": "uint256"
        }
      ],
      "payable": false,
      "stateMutability": "view",
      "type": "function"
    },
    {
      "constant": true,
      "inputs": [
        {
          "internalType": "address",
          "name": "account",
          "type": "address"
        }
      ],
      "name": "balanceOfStaged",
      "outputs": [
        {
          "internalType": "uint256",
          "name": "",
          "type": "uint256"
        }
      ],
      "payable": false,
      "stateMutability": "view",
      "type": "function"
    },
    {
      "constant": true,
      "inputs": [
        {
          "internalType": "uint256",
          "name": "epoch",
          "type": "uint256"
        }
      ],
      "name": "bootstrappingAt",
      "outputs": [
        {
          "internalType": "bool",
          "name": "",
          "type": "bool"
        }
      ],
      "payable": false,
      "stateMutability": "view",
      "type": "function"
    },
    {
      "constant": true,
      "inputs": [
        {
          "internalType": "uint256",
          "name": "epoch",
          "type": "uint256"
        }
      ],
      "name": "couponsExpiration",
      "outputs": [
        {
          "internalType": "uint256",
          "name": "",
          "type": "uint256"
        }
      ],
      "payable": false,
      "stateMutability": "view",
      "type": "function"
    },
    {
      "constant": true,
      "inputs": [],
      "name": "decimals",
      "outputs": [
        {
          "internalType": "uint8",
          "name": "",
          "type": "uint8"
        }
      ],
      "payable": false,
      "stateMutability": "view",
      "type": "function"
    },
    {
      "constant": true,
      "inputs": [],
      "name": "dollar",
      "outputs": [
        {
          "internalType": "contract IDollar",
          "name": "",
          "type": "address"
        }
      ],
      "payable": false,
      "stateMutability": "view",
      "type": "function"
    },
    {
      "constant": true,
      "inputs": [],
      "name": "epoch",
      "outputs": [
        {
          "internalType": "uint256",
          "name": "",
          "type": "uint256"
        }
      ],
      "payable": false,
      "stateMutability": "view",
      "type": "function"
    },
    {
      "constant": true,
      "inputs": [],
      "name": "epochTime",
      "outputs": [
        {
          "internalType": "uint256",
          "name": "",
          "type": "uint256"
        }
      ],
      "payable": false,
      "stateMutability": "view",
      "type": "function"
    },
    {
      "constant": true,
      "inputs": [],
      "name": "eraStart",
      "outputs": [
        {
          "internalType": "uint256",
          "name": "",
          "type": "uint256"
        }
      ],
      "payable": false,
      "stateMutability": "view",
      "type": "function"
    },
    {
      "constant": true,
      "inputs": [],
      "name": "eraStatus",
      "outputs": [
        {
          "internalType": "enum Era.Status",
          "name": "",
          "type": "uint8"
        }
      ],
      "payable": false,
      "stateMutability": "view",
      "type": "function"
    },
    {
      "constant": true,
      "inputs": [
        {
          "internalType": "uint256",
          "name": "epoch",
          "type": "uint256"
        }
      ],
      "name": "expiringCoupons",
      "outputs": [
        {
          "internalType": "uint256",
          "name": "",
          "type": "uint256"
        }
      ],
      "payable": false,
      "stateMutability": "view",
      "type": "function"
    },
    {
      "constant": true,
      "inputs": [
        {
          "internalType": "uint256",
          "name": "epoch",
          "type": "uint256"
        },
        {
          "internalType": "uint256",
          "name": "i",
          "type": "uint256"
        }
      ],
      "name": "expiringCouponsAtIndex",
      "outputs": [
        {
          "internalType": "uint256",
          "name": "",
          "type": "uint256"
        }
      ],
      "payable": false,
      "stateMutability": "view",
      "type": "function"
    },
    {
      "constant": true,
      "inputs": [
        {
          "internalType": "address",
          "name": "account",
          "type": "address"
        }
      ],
      "name": "fluidUntil",
      "outputs": [
        {
          "internalType": "uint256",
          "name": "",
          "type": "uint256"
        }
      ],
      "payable": false,
      "stateMutability": "view",
      "type": "function"
    },
    {
      "constant": true,
      "inputs": [],
      "name": "implementation",
      "outputs": [
        {
          "internalType": "address",
          "name": "impl",
          "type": "address"
        }
      ],
      "payable": false,
      "stateMutability": "view",
      "type": "function"
    },
    {
      "constant": true,
      "inputs": [
        {
          "internalType": "address",
          "name": "candidate",
          "type": "address"
        }
      ],
      "name": "isInitialized",
      "outputs": [
        {
          "internalType": "bool",
          "name": "",
          "type": "bool"
        }
      ],
      "payable": false,
      "stateMutability": "view",
      "type": "function"
    },
    {
      "constant": true,
      "inputs": [
        {
          "internalType": "address",
          "name": "candidate",
          "type": "address"
        }
      ],
      "name": "isNominated",
      "outputs": [
        {
          "internalType": "bool",
          "name": "",
          "type": "bool"
        }
      ],
      "payable": false,
      "stateMutability": "view",
      "type": "function"
    },
    {
      "constant": true,
      "inputs": [
        {
          "internalType": "address",
          "name": "account",
          "type": "address"
        }
      ],
      "name": "lockedUntil",
      "outputs": [
        {
          "internalType": "uint256",
          "name": "",
          "type": "uint256"
        }
      ],
      "payable": false,
      "stateMutability": "view",
      "type": "function"
    },
    {
      "constant": true,
      "inputs": [],
      "name": "name",
      "outputs": [
        {
          "internalType": "string",
          "name": "",
          "type": "string"
        }
      ],
      "payable": false,
      "stateMutability": "view",
      "type": "function"
    },
    {
      "constant": true,
      "inputs": [],
      "name": "oracle",
      "outputs": [
        {
          "internalType": "contract IOracle",
          "name": "",
          "type": "address"
        }
      ],
      "payable": false,
      "stateMutability": "view",
      "type": "function"
    },
    {
      "constant": true,
      "inputs": [
        {
          "internalType": "uint256",
          "name": "epoch",
          "type": "uint256"
        }
      ],
      "name": "outstandingCoupons",
      "outputs": [
        {
          "internalType": "uint256",
          "name": "",
          "type": "uint256"
        }
      ],
      "payable": false,
      "stateMutability": "view",
      "type": "function"
    },
    {
      "constant": true,
      "inputs": [
        {
          "internalType": "address",
          "name": "candidate",
          "type": "address"
        }
      ],
      "name": "periodFor",
      "outputs": [
        {
          "internalType": "uint256",
          "name": "",
          "type": "uint256"
        }
      ],
      "payable": false,
      "stateMutability": "view",
      "type": "function"
    },
    {
      "constant": true,
      "inputs": [],
      "name": "pool",
      "outputs": [
        {
          "internalType": "address",
          "name": "",
          "type": "address"
        }
      ],
      "payable": false,
      "stateMutability": "view",
      "type": "function"
    },
    {
      "constant": true,
      "inputs": [
        {
          "internalType": "address",
          "name": "account",
          "type": "address"
        },
        {
          "internalType": "address",
          "name": "candidate",
          "type": "address"
        }
      ],
      "name": "recordedVote",
      "outputs": [
        {
          "internalType": "enum Candidate.Vote",
          "name": "",
          "type": "uint8"
        }
      ],
      "payable": false,
      "stateMutability": "view",
      "type": "function"
    },
    {
      "constant": true,
      "inputs": [
        {
          "internalType": "address",
          "name": "candidate",
          "type": "address"
        }
      ],
      "name": "rejectFor",
      "outputs": [
        {
          "internalType": "uint256",
          "name": "",
          "type": "uint256"
        }
      ],
      "payable": false,
      "stateMutability": "view",
      "type": "function"
    },
    {
      "constant": true,
      "inputs": [
        {
          "internalType": "address",
          "name": "candidate",
          "type": "address"
        }
      ],
      "name": "startFor",
      "outputs": [
        {
          "internalType": "uint256",
          "name": "",
          "type": "uint256"
        }
      ],
      "payable": false,
      "stateMutability": "view",
      "type": "function"
    },
    {
      "constant": true,
      "inputs": [
        {
          "internalType": "address",
          "name": "account",
          "type": "address"
        }
      ],
      "name": "statusOf",
      "outputs": [
        {
          "internalType": "enum Account.Status",
          "name": "",
          "type": "uint8"
        }
      ],
      "payable": false,
      "stateMutability": "view",
      "type": "function"
    },
    {
      "constant": true,
      "inputs": [],
      "name": "symbol",
      "outputs": [
        {
          "internalType": "string",
          "name": "",
          "type": "string"
        }
      ],
      "payable": false,
      "stateMutability": "view",
      "type": "function"
    },
    {
      "constant": true,
      "inputs": [],
      "name": "totalBonded",
      "outputs": [
        {
          "internalType": "uint256",
          "name": "",
          "type": "uint256"
        }
      ],
      "payable": false,
      "stateMutability": "view",
      "type": "function"
    },
    {
      "constant": true,
      "inputs": [
        {
          "internalType": "uint256",
          "name": "epoch",
          "type": "uint256"
        }
      ],
      "name": "totalBondedAt",
      "outputs": [
        {
          "internalType": "uint256",
          "name": "",
          "type": "uint256"
        }
      ],
      "payable": false,
      "stateMutability": "view",
      "type": "function"
    },
    {
      "constant": true,
      "inputs": [],
      "name": "totalCouponUnderlying",
      "outputs": [
        {
          "internalType": "uint256",
          "name": "",
          "type": "uint256"
        }
      ],
      "payable": false,
      "stateMutability": "view",
      "type": "function"
    },
    {
      "constant": true,
      "inputs": [],
      "name": "totalCoupons",
      "outputs": [
        {
          "internalType": "uint256",
          "name": "",
          "type": "uint256"
        }
      ],
      "payable": false,
      "stateMutability": "view",
      "type": "function"
    },
    {
      "constant": true,
      "inputs": [],
      "name": "totalDebt",
      "outputs": [
        {
          "internalType": "uint256",
          "name": "",
          "type": "uint256"
        }
      ],
      "payable": false,
      "stateMutability": "view",
      "type": "function"
    },
    {
      "constant": true,
      "inputs": [],
      "name": "totalNet",
      "outputs": [
        {
          "internalType": "uint256",
          "name": "",
          "type": "uint256"
        }
      ],
      "payable": false,
      "stateMutability": "view",
      "type": "function"
    },
    {
      "constant": true,
      "inputs": [],
      "name": "totalRedeemable",
      "outputs": [
        {
          "internalType": "uint256",
          "name": "",
          "type": "uint256"
        }
      ],
      "payable": false,
      "stateMutability": "view",
      "type": "function"
    },
    {
      "constant": true,
      "inputs": [],
      "name": "totalStaged",
      "outputs": [
        {
          "internalType": "uint256",
          "name": "",
          "type": "uint256"
        }
      ],
      "payable": false,
      "stateMutability": "view",
      "type": "function"
    },
    {
      "constant": true,
      "inputs": [],
      "name": "totalSupply",
      "outputs": [
        {
          "internalType": "uint256",
          "name": "",
          "type": "uint256"
        }
      ],
      "payable": false,
      "stateMutability": "view",
      "type": "function"
    },
    {
      "constant": false,
      "inputs": [
        {
          "internalType": "address",
          "name": "recipient",
          "type": "address"
        },
        {
          "internalType": "uint256",
          "name": "amount",
          "type": "uint256"
        }
      ],
      "name": "transfer",
      "outputs": [
        {
          "internalType": "bool",
          "name": "",
          "type": "bool"
        }
      ],
      "payable": false,
      "stateMutability": "nonpayable",
      "type": "function"
    },
    {
      "constant": false,
      "inputs": [
        {
          "internalType": "address",
          "name": "sender",
          "type": "address"
        },
        {
          "internalType": "address",
          "name": "recipient",
          "type": "address"
        },
        {
          "internalType": "uint256",
          "name": "amount",
          "type": "uint256"
        }
      ],
      "name": "transferFrom",
      "outputs": [
        {
          "internalType": "bool",
          "name": "",
          "type": "bool"
        }
      ],
      "payable": false,
      "stateMutability": "nonpayable",
      "type": "function"
    },
    {
      "constant": true,
      "inputs": [
        {
          "internalType": "address",
          "name": "candidate",
          "type": "address"
        }
      ],
      "name": "votesFor",
      "outputs": [
        {
          "internalType": "uint256",
          "name": "",
          "type": "uint256"
        }
      ],
      "payable": false,
      "stateMutability": "view",
      "type": "function"
    },
    {
      "constant": true,
      "inputs": [
        {
          "internalType": "uint256",
          "name": "amount",
          "type": "uint256"
        }
      ],
      "name": "couponPremium",
      "outputs": [
        {
          "internalType": "uint256",
          "name": "",
          "type": "uint256"
        }
      ],
      "payable": false,
      "stateMutability": "view",
      "type": "function"
    },
    {
      "constant": false,
      "inputs": [
        {
          "internalType": "uint256",
          "name": "couponEpoch",
          "type": "uint256"
        }
      ],
      "name": "migrateCoupons",
      "outputs": [],
      "payable": false,
      "stateMutability": "nonpayable",
      "type": "function"
    },
    {
      "constant": false,
      "inputs": [
        {
          "internalType": "uint256",
          "name": "amount",
          "type": "uint256"
        }
      ],
      "name": "purchaseCoupons",
      "outputs": [
        {
          "internalType": "uint256",
          "name": "",
          "type": "uint256"
        }
      ],
      "payable": false,
      "stateMutability": "nonpayable",
      "type": "function"
    },
    {
      "constant": false,
      "inputs": [
        {
          "internalType": "uint256",
          "name": "couponEpoch",
          "type": "uint256"
        },
        {
          "internalType": "uint256",
          "name": "amount",
          "type": "uint256"
        }
      ],
      "name": "redeemCoupons",
      "outputs": [],
      "payable": false,
      "stateMutability": "nonpayable",
      "type": "function"
    },
    {
      "constant": false,
      "inputs": [
        {
          "internalType": "address",
          "name": "spender",
          "type": "address"
        },
        {
          "internalType": "uint256",
          "name": "amount",
          "type": "uint256"
        }
      ],
      "name": "approveCoupons",
      "outputs": [],
      "payable": false,
      "stateMutability": "nonpayable",
      "type": "function"
    },
    {
      "constant": false,
      "inputs": [
        {
          "internalType": "address",
          "name": "sender",
          "type": "address"
        },
        {
          "internalType": "address",
          "name": "recipient",
          "type": "address"
        },
        {
          "internalType": "uint256",
          "name": "epoch",
          "type": "uint256"
        },
        {
          "internalType": "uint256",
          "name": "amount",
          "type": "uint256"
        }
      ],
      "name": "transferCoupons",
      "outputs": [],
      "payable": false,
      "stateMutability": "nonpayable",
      "type": "function"
    }
  ],
  "bytecode": "0x608060405234801561001057600080fd5b506140fd806100206000396000f3fe608060405234801561001057600080fd5b506004361061030b5760003560e01c80637dc0d1d01161019d578063b739a7b8116100e9578063d8f54138116100a2578063edb6b80a1161007c578063edb6b80a14610a8e578063f1b7cf4914610aac578063fc7b9c1814610adc578063ffbe3b7314610afa5761030b565b8063d8f54138146109fe578063dd62ed3e14610a2e578063e5f55c7e14610a5e5761030b565b8063b739a7b814610916578063bc7513e214610934578063c9aff70c14610964578063cf02377914610994578063d60b347f146109b2578063d6a9cf08146109e25761030b565b806397a5d5b5116101565780639f6e1b26116101305780639f6e1b2614610868578063a50cd8e714610898578063a6c409f1146108c8578063a9059cbb146108e65761030b565b806397a5d5b5146107ea5780639a649edc1461081a5780639bc289f1146108385761030b565b80637dc0d1d014610714578063825ad6071461073257806386cf9f1414610762578063900cf0cf146107925780639042c4ee146107b057806395d89b41146107cc5761030b565b80633a3e6c811161025c57806351adeb571161021557806364668022116101ef57806364668022146106545780636a39e3281461068457806370a08231146106b457806375d5024b146106e45761030b565b806351adeb57146105e857806351bf21d8146106065780635c60da1b146106365761030b565b80633a3e6c81146104fe5780633fbba9a61461052e5780634303d4f71461055e57806344d96e951461057c5780634c7360991461059a5780635053e461146105ca5761030b565b806316f0115b116102c957806323b872dd116102a357806323b872dd146104645780632f7f889e14610494578063313ce567146104b0578063353a420c146104ce5761030b565b806316f0115b1461040a57806318160ddd146104285780631edbcf6c146104465761030b565b80625edd371461031057806306fdde031461032c578063095ea7b31461034a5780630d78ceb41461037a57806310e95b6c146103aa57806315e14bf6146103da575b600080fd5b61032a600480360361032591908101906134ed565b610b2a565b005b610334610dd6565b6040516103419190613bdf565b60405180910390f35b610364600480360361035f9190810190613550565b610e13565b6040516103719190613b14565b60405180910390f35b610394600480360361038f9190810190613550565b610e1e565b6040516103a19190613d21565b60405180910390f35b6103c460048036036103bf91908101906135b5565b610e7c565b6040516103d19190613d21565b60405180910390f35b6103f460048036036103ef9190810190613439565b610ea1565b6040516104019190613d21565b60405180910390f35b610412610eef565b60405161041f9190613a99565b60405180910390f35b610430610f1e565b60405161043d9190613d21565b60405180910390f35b61044e610f2d565b60405161045b9190613d21565b60405180910390f35b61047e6004803603610479919081019061349e565b610f3c565b60405161048b9190613b14565b60405180910390f35b6104ae60048036036104a99190810190613550565b610f48565b005b6104b861102c565b6040516104c59190613d8e565b60405180910390f35b6104e860048036036104e39190810190613439565b611035565b6040516104f59190613d21565b60405180910390f35b61051860048036036105139190810190613439565b611083565b6040516105259190613b14565b60405180910390f35b61054860048036036105439190810190613462565b6110d4565b6040516105559190613b9b565b60405180910390f35b61056661116d565b6040516105739190613d21565b60405180910390f35b61058461117a565b6040516105919190613d21565b60405180910390f35b6105b460048036036105af9190810190613607565b611189565b6040516105c19190613d21565b60405180910390f35b6105d26111c4565b6040516105df9190613d21565b60405180910390f35b6105f061121b565b6040516105fd9190613b2f565b60405180910390f35b610620600480360361061b9190810190613439565b61124a565b60405161062d9190613d21565b60405180910390f35b61063e611298565b60405161064b9190613a99565b60405180910390f35b61066e60048036036106699190810190613439565b6112c9565b60405161067b9190613d21565b60405180910390f35b61069e600480360361069991908101906135b5565b611317565b6040516106ab9190613d21565b60405180910390f35b6106ce60048036036106c99190810190613439565b61133f565b6040516106db9190613d21565b60405180910390f35b6106fe60048036036106f991908101906135b5565b61138d565b60405161070b9190613b14565b60405180910390f35b61071c6113a1565b6040516107299190613b4a565b60405180910390f35b61074c60048036036107479190810190613439565b6113d0565b6040516107599190613d21565b60405180910390f35b61077c60048036036107779190810190613439565b61142d565b6040516107899190613d21565b60405180910390f35b61079a61147b565b6040516107a79190613d21565b60405180910390f35b6107ca60048036036107c591908101906135b5565b61148a565b005b6107d4611617565b6040516107e19190613bdf565b60405180910390f35b61080460048036036107ff9190810190613439565b611654565b6040516108119190613b65565b60405180910390f35b610822611719565b60405161082f9190613d21565b60405180910390f35b610852600480360361084d9190810190613439565b611728565b60405161085f9190613d21565b60405180910390f35b610882600480360361087d9190810190613462565b611776565b60405161088f9190613d21565b60405180910390f35b6108b260048036036108ad9190810190613439565b611802565b6040516108bf9190613d21565b60405180910390f35b6108d061182e565b6040516108dd9190613d21565b60405180910390f35b61090060048036036108fb9190810190613550565b6118d3565b60405161090d9190613b14565b60405180910390f35b61091e6118de565b60405161092b9190613d21565b60405180910390f35b61094e60048036036109499190810190613550565b6118ee565b60405161095b9190613d21565b60405180910390f35b61097e600480360361097991908101906135b5565b611969565b60405161098b9190613d21565b60405180910390f35b61099c61198e565b6040516109a99190613d21565b60405180910390f35b6109cc60048036036109c79190810190613439565b61199d565b6040516109d99190613b14565b60405180910390f35b6109fc60048036036109f79190810190613607565b6119f8565b005b610a186004803603610a1391908101906135b5565b611bcc565b604051610a259190613d21565b60405180910390f35b610a486004803603610a439190810190613462565b611c6b565b604051610a559190613d21565b60405180910390f35b610a786004803603610a7391908101906135b5565b611c76565b604051610a859190613d21565b60405180910390f35b610a96611daf565b604051610aa39190613b80565b60405180910390f35b610ac66004803603610ac19190810190613439565b611dcc565b604051610ad39190613d21565b60405180910390f35b610ae4611e1a565b604051610af19190613d21565b60405180910390f35b610b146004803603610b0f91908101906135b5565b611e29565b604051610b219190613d21565b60405180910390f35b600073ffffffffffffffffffffffffffffffffffffffff168473ffffffffffffffffffffffffffffffffffffffff161415610b9a576040517f08c379a0000000000000000000000000000000000000000000000000000000008152600401610b9190613ce1565b60405180910390fd5b600073ffffffffffffffffffffffffffffffffffffffff168373ffffffffffffffffffffffffffffffffffffffff161415610c0a576040517f08c379a0000000000000000000000000000000000000000000000000000000008152600401610c0190613c81565b60405180910390fd5b6000610c7a610c198685610e1e565b6040518060400160405280601581526020017f4d61726b65743a204e6f20756e6465726c79696e670000000000000000000000815250610c6b85610c5d8a896118ee565b611e4b90919063ffffffff16565b611ebb9092919063ffffffff16565b9050610ca08584846040518060600160405280602e8152602001613ff4602e9139611f1c565b610cab848484612004565b610ccf858483604051806060016040528060238152602001614022602391396120e7565b610cda84848361222c565b8473ffffffffffffffffffffffffffffffffffffffff163373ffffffffffffffffffffffffffffffffffffffff1614158015610d3f57507fffffffffffffffffffffffffffffffffffffffffffffffffffffffffffffffff610d3c8633611776565b14155b15610d6957610d688533846040518060600160405280602481526020016140456024913961236a565b5b828473ffffffffffffffffffffffffffffffffffffffff168673ffffffffffffffffffffffffffffffffffffffff167f0f1dbb1ccbe57a1590c7baad7b01d581b730c9ebc535dcde4345e6db424063d885604051610dc79190613d21565b60405180910390a45050505050565b60606040518060400160405280601681526020017f456d7074792053657420446f6c6c6172205374616b6500000000000000000000815250905090565b600080905092915050565b6000600f60000160008473ffffffffffffffffffffffffffffffffffffffff1673ffffffffffffffffffffffffffffffffffffffff168152602001908152602001600020600083815260200190815260200160002054905092915050565b600080600d016000838152602001908152602001600020600101600101549050919050565b600080600e0160008373ffffffffffffffffffffffffffffffffffffffff1673ffffffffffffffffffffffffffffffffffffffff168152602001908152602001600020600101549050919050565b60008060090160020160009054906101000a900473ffffffffffffffffffffffffffffffffffffffff16905090565b60008060030160000154905090565b60008060030160030154905090565b60008090509392505050565b600073ffffffffffffffffffffffffffffffffffffffff168273ffffffffffffffffffffffffffffffffffffffff161415610fb8576040517f08c379a0000000000000000000000000000000000000000000000000000000008152600401610faf90613cc1565b60405180910390fd5b610fc333838361248d565b8173ffffffffffffffffffffffffffffffffffffffff163373ffffffffffffffffffffffffffffffffffffffff167f8ff27e6b95060c1ca851e7c2c28af8b413eb1a8bcb637b0290da9543a709cce3836040516110209190613d21565b60405180910390a35050565b60006012905090565b600080600e0160008373ffffffffffffffffffffffffffffffffffffffff1673ffffffffffffffffffffffffffffffffffffffff168152602001908152602001600020600301549050919050565b6000806000600e0160008473ffffffffffffffffffffffffffffffffffffffff1673ffffffffffffffffffffffffffffffffffffffff16815260200190815260200160002060000154119050919050565b600080600e0160008373ffffffffffffffffffffffffffffffffffffffff1673ffffffffffffffffffffffffffffffffffffffff16815260200190815260200160002060040160008473ffffffffffffffffffffffffffffffffffffffff1673ffffffffffffffffffffffffffffffffffffffff16815260200190815260200160002060009054906101000a900460ff16905092915050565b6000600f60010154905090565b60008060030160010154905090565b600080600d01600084815260200190815260200160002060010160020182815481106111b157fe5b9060005260206000200154905092915050565b60006111ce6133b1565b6111d6612519565b90506111e06133b1565b6111e8612548565b905081602001516111f7612578565b1061120a5761120582612580565b611214565b61121381612580565b5b9250505090565b60008060090160000160009054906101000a900473ffffffffffffffffffffffffffffffffffffffff16905090565b600080600c0160008373ffffffffffffffffffffffffffffffffffffffff1673ffffffffffffffffffffffffffffffffffffffff168152602001908152602001600020600401549050919050565b6000807f360894a13ba1a3210667c828492db98dca3e2076cc3735a920a3ca505d382bbc60001b9050805491505090565b600080600e0160008373ffffffffffffffffffffffffffffffffffffffff1673ffffffffffffffffffffffffffffffffffffffff168152602001908152602001600020600201549050919050565b600080600d016000838152602001908152602001600020600101600201805490509050919050565b600080600c0160008373ffffffffffffffffffffffffffffffffffffffff1673ffffffffffffffffffffffffffffffffffffffff168152602001908152602001600020600101549050919050565b60006113976125d3565b8211159050919050565b60008060090160010160009054906101000a900473ffffffffffffffffffffffffffffffffffffffff16905090565b6000806113db610f1e565b905060008114156113f0576000915050611428565b611424816114166114008661133f565b61140861117a565b611e4b90919063ffffffff16565b6125dc90919063ffffffff16565b9150505b919050565b600080600c0160008373ffffffffffffffffffffffffffffffffffffffff1673ffffffffffffffffffffffffffffffffffffffff168152602001908152602001600020600001549050919050565b60008060000160020154905090565b600061149633836118ee565b9050600081116114db576040517f08c379a00000000000000000000000000000000000000000000000000000000081526004016114d290613c41565b60405180910390fd5b60006114e73384610e1e565b14611527576040517f08c379a000000000000000000000000000000000000000000000000000000000815260040161151e90613c21565b60405180910390fd5b600061153d6002836125dc90919063ffffffff16565b905061154a338483612004565b61156e338483604051806060016040528060238152602001614022602391396120e7565b823373ffffffffffffffffffffffffffffffffffffffff167f652fd9d5d1fdb4fff834b67018ec390a5938bc4c86fae1b87a3a3b7cf8681a726000846040516115b8929190613bb6565b60405180910390a3823373ffffffffffffffffffffffffffffffffffffffff167fbce252db29f761f815dc2e9ea60005af065efba6eb619d2a0b2a113fdeb6141483600060405161160a929190613d3c565b60405180910390a3505050565b60606040518060400160405280600481526020017f4553445300000000000000000000000000000000000000000000000000000000815250905090565b600061165e61147b565b6000600c0160008473ffffffffffffffffffffffffffffffffffffffff1673ffffffffffffffffffffffffffffffffffffffff1681526020019081526020016000206005015411156116b35760029050611714565b6000600c0160008373ffffffffffffffffffffffffffffffffffffffff1673ffffffffffffffffffffffffffffffffffffffff1681526020019081526020016000206004015461170161147b565b101561170e576001611711565b60005b90505b919050565b60008060030160050154905090565b600080600c0160008373ffffffffffffffffffffffffffffffffffffffff1673ffffffffffffffffffffffffffffffffffffffff168152602001908152602001600020600501549050919050565b600080600c0160008473ffffffffffffffffffffffffffffffffffffffff1673ffffffffffffffffffffffffffffffffffffffff16815260200190815260200160002060030160008373ffffffffffffffffffffffffffffffffffffffff1673ffffffffffffffffffffffffffffffffffffffff16815260200190815260200160002054905092915050565b600061182761181083611035565b611819846112c9565b61262690919063ffffffff16565b9050919050565b60006118ce61183b611e1a565b61184361121b565b73ffffffffffffffffffffffffffffffffffffffff166318160ddd6040518163ffffffff1660e01b815260040160206040518083038186803b15801561188857600080fd5b505afa15801561189c573d6000803e3d6000fd5b505050506040513d601f19601f820116820180604052506118c091908101906135de565b61267b90919063ffffffff16565b905090565b600080905092915050565b6000601160000160010154905090565b6000806118fa83611969565b14156119095760009050611963565b6000600c0160008473ffffffffffffffffffffffffffffffffffffffff1673ffffffffffffffffffffffffffffffffffffffff16815260200190815260200160002060020160008381526020019081526020016000205490505b92915050565b600080600d016000838152602001908152602001600020600101600001549050919050565b60008060030160020154905090565b600080600e0160008373ffffffffffffffffffffffffffffffffffffffff1673ffffffffffffffffffffffffffffffffffffffff16815260200190815260200160002060050160009054906101000a900460ff169050919050565b6002611a1483611a0661147b565b61267b90919063ffffffff16565b1015611a55576040517f08c379a0000000000000000000000000000000000000000000000000000000008152600401611a4c90613d01565b60405180910390fd5b6000811415611a99576040517f08c379a0000000000000000000000000000000000000000000000000000000008152600401611a9090613c61565b60405180910390fd5b6000611b09611aa83385610e1e565b6040518060400160405280601581526020017f4d61726b65743a204e6f20756e6465726c79696e670000000000000000000000815250611afa85611aec33896118ee565b611e4b90919063ffffffff16565b611ebb9092919063ffffffff16565b90506000611b1784836126c5565b9050611b3d3385856040518060600160405280602e8152602001613ff4602e9139611f1c565b60008214611b6a57611b69338584604051806060016040528060238152602001614022602391396120e7565b5b611b75338483612766565b833373ffffffffffffffffffffffffffffffffffffffff167f652fd9d5d1fdb4fff834b67018ec390a5938bc4c86fae1b87a3a3b7cf8681a728585604051611bbe929190613d65565b60405180910390a350505050565b6000611c64611bd961121b565b73ffffffffffffffffffffffffffffffffffffffff166318160ddd6040518163ffffffff1660e01b815260040160206040518083038186803b158015611c1e57600080fd5b505afa158015611c32573d6000803e3d6000fd5b505050506040513d601f19601f82011682018060405250611c5691908101906135de565b611c5e611e1a565b846128c8565b9050919050565b600080905092915050565b6000611cc6600083117f4d61726b657400000000000000000000000000000000000000000000000000007f4d757374207075726368617365206e6f6e2d7a65726f20616d6f756e740000006128f8565b611d1b82611cd2611e1a565b10157f4d61726b657400000000000000000000000000000000000000000000000000007f4e6f7420656e6f756768206465627400000000000000000000000000000000006128f8565b6000611d2561147b565b90506000611d3284611bcc565b9050611d3f33838361222c565b611d4a338386612004565b611d543385612977565b813373ffffffffffffffffffffffffffffffffffffffff167fbce252db29f761f815dc2e9ea60005af065efba6eb619d2a0b2a113fdeb614148684604051611d9d929190613d65565b60405180910390a38092505050919050565b6000601160000160000160009054906101000a900460ff16905090565b600080600e0160008373ffffffffffffffffffffffffffffffffffffffff1673ffffffffffffffffffffffffffffffffffffffff168152602001908152602001600020600001549050919050565b60008060030160040154905090565b600080600d016000838152602001908152602001600020600001549050919050565b600080831415611e5e5760009050611eb5565b6000828402905082848281611e6f57fe5b0414611eb0576040517f08c379a0000000000000000000000000000000000000000000000000000000008152600401611ea790613ca1565b60405180910390fd5b809150505b92915050565b60008083118290611f02576040517f08c379a0000000000000000000000000000000000000000000000000000000008152600401611ef99190613bdf565b60405180910390fd5b506000838581611f0e57fe5b049050809150509392505050565b611f848282600f60000160008873ffffffffffffffffffffffffffffffffffffffff1673ffffffffffffffffffffffffffffffffffffffff168152602001908152602001600020600087815260200190815260200160002054612aae9092919063ffffffff16565b600f60000160008673ffffffffffffffffffffffffffffffffffffffff1673ffffffffffffffffffffffffffffffffffffffff168152602001908152602001600020600085815260200190815260200160002081905550611ff58282600f60010154612aae9092919063ffffffff16565b600f6001018190555050505050565b61206a81600f60000160008673ffffffffffffffffffffffffffffffffffffffff1673ffffffffffffffffffffffffffffffffffffffff16815260200190815260200160002060008581526020019081526020016000205461262690919063ffffffff16565b600f60000160008573ffffffffffffffffffffffffffffffffffffffff1673ffffffffffffffffffffffffffffffffffffffff1681526020019081526020016000206000848152602001908152602001600020819055506120d981600f6001015461262690919063ffffffff16565b600f60010181905550505050565b61215282826000600c0160008873ffffffffffffffffffffffffffffffffffffffff1673ffffffffffffffffffffffffffffffffffffffff168152602001908152602001600020600201600087815260200190815260200160002054612aae9092919063ffffffff16565b6000600c0160008673ffffffffffffffffffffffffffffffffffffffff1673ffffffffffffffffffffffffffffffffffffffff1681526020019081526020016000206002016000858152602001908152602001600020819055506121dd82826000600d01600087815260200190815260200160002060010160000154612aae9092919063ffffffff16565b6000600d0160008581526020019081526020016000206001016000018190555061221a8282600060030160050154612aae9092919063ffffffff16565b60006003016005018190555050505050565b612295816000600c0160008673ffffffffffffffffffffffffffffffffffffffff1673ffffffffffffffffffffffffffffffffffffffff16815260200190815260200160002060020160008581526020019081526020016000205461262690919063ffffffff16565b6000600c0160008573ffffffffffffffffffffffffffffffffffffffff1673ffffffffffffffffffffffffffffffffffffffff16815260200190815260200160002060020160008481526020019081526020016000208190555061231e816000600d0160008581526020019081526020016000206001016000015461262690919063ffffffff16565b6000600d016000848152602001908152602001600020600101600001819055506123598160006003016005015461262690919063ffffffff16565b600060030160050181905550505050565b61240182826000600c0160008873ffffffffffffffffffffffffffffffffffffffff1673ffffffffffffffffffffffffffffffffffffffff16815260200190815260200160002060030160008773ffffffffffffffffffffffffffffffffffffffff1673ffffffffffffffffffffffffffffffffffffffff16815260200190815260200160002054612aae9092919063ffffffff16565b6000600c0160008673ffffffffffffffffffffffffffffffffffffffff1673ffffffffffffffffffffffffffffffffffffffff16815260200190815260200160002060030160008573ffffffffffffffffffffffffffffffffffffffff1673ffffffffffffffffffffffffffffffffffffffff1681526020019081526020016000208190555050505050565b806000600c0160008573ffffffffffffffffffffffffffffffffffffffff1673ffffffffffffffffffffffffffffffffffffffff16815260200190815260200160002060030160008473ffffffffffffffffffffffffffffffffffffffff1673ffffffffffffffffffffffffffffffffffffffff16815260200190815260200160002081905550505050565b6125216133b1565b6040518060600160405280606a8152602001635f7fa8008152602001617080815250905090565b6125506133b1565b6040518060600160405280605b8152602001635f6be180815260200162015180815250905090565b600042905090565b60006125cc82600001516125be84604001516125b086602001516125a2612578565b61267b90919063ffffffff16565b6125dc90919063ffffffff16565b61262690919063ffffffff16565b9050919050565b6000605a905090565b600061261e83836040518060400160405280601a81526020017f536166654d6174683a206469766973696f6e206279207a65726f000000000000815250611ebb565b905092915050565b600080828401905083811015612671576040517f08c379a000000000000000000000000000000000000000000000000000000000815260040161266890613c01565b60405180910390fd5b8091505092915050565b60006126bd83836040518060400160405280601e81526020017f536166654d6174683a207375627472616374696f6e206f766572666c6f770000815250612aae565b905092915050565b60006126cf612b09565b8310156126de57819050612760565b60006126e8612b18565b905060008482116126fa57600061270e565b61270d858361267b90919063ffffffff16565b5b9050612718612b98565b8111612724578061272d565b61272c612b98565b5b905061275b61273a612b98565b61274d8387611e4b90919063ffffffff16565b6125dc90919063ffffffff16565b925050505b92915050565b61276e61121b565b73ffffffffffffffffffffffffffffffffffffffff166340c10f1984846040518363ffffffff1660e01b81526004016127a8929190613aeb565b602060405180830381600087803b1580156127c257600080fd5b505af11580156127d6573d6000803e3d6000fd5b505050506040513d601f19601f820116820180604052506127fa919081019061358c565b50600081146128bb5761280b61121b565b73ffffffffffffffffffffffffffffffffffffffff1663a9059cbb84836040518363ffffffff1660e01b8152600401612845929190613aeb565b602060405180830381600087803b15801561285f57600080fd5b505af1158015612873573d6000803e3d6000fd5b505050506040513d601f19601f82011682018060405250612897919081019061358c565b506128ba816040518060600160405280602a8152602001614091602a9139612ba1565b5b6128c3612bce565b505050565b60006128ef6128ea836128dc878787612ce6565b612e8090919063ffffffff16565b612eb5565b90509392505050565b826129725761290682612edd565b613a2060f01b61291583612edd565b60405160200161292793929190613a64565b6040516020818303038152906040526040517f08c379a00000000000000000000000000000000000000000000000000000000081526004016129699190613bdf565b60405180910390fd5b505050565b61297f61121b565b73ffffffffffffffffffffffffffffffffffffffff166323b872dd8330846040518463ffffffff1660e01b81526004016129bb93929190613ab4565b602060405180830381600087803b1580156129d557600080fd5b505af11580156129e9573d6000803e3d6000fd5b505050506040513d601f19601f82011682018060405250612a0d919081019061358c565b50612a1661121b565b73ffffffffffffffffffffffffffffffffffffffff166342966c68826040518263ffffffff1660e01b8152600401612a4e9190613d21565b600060405180830381600087803b158015612a6857600080fd5b505af1158015612a7c573d6000803e3d6000fd5b50505050612aa28160405180606001604052806028815260200161406960289139612fb8565b612aaa612bce565b5050565b6000838311158290612af6576040517f08c379a0000000000000000000000000000000000000000000000000000000008152600401612aed9190613bdf565b60405180910390fd5b5060008385039050809150509392505050565b6000612b13612fe5565b905090565b6000806001811115612b2657fe5b612b2e611daf565b6001811115612b3957fe5b1415612b77576000612b496118de565b905060008114612b6c57612b6760018261267b90919063ffffffff16565b612b6f565b60005b915050612b95565b612b926001612b8461147b565b61267b90919063ffffffff16565b90505b90565b6000605a905090565b612bbe8282600060030160030154612aae9092919063ffffffff16565b6000600301600301819055505050565b612ce4612c0b612bdc610f2d565b612bfd612be761198e565b612bef61117a565b61262690919063ffffffff16565b61262690919063ffffffff16565b612c1361121b565b73ffffffffffffffffffffffffffffffffffffffff166370a08231306040518263ffffffff1660e01b8152600401612c4b9190613a99565b60206040518083038186803b158015612c6357600080fd5b505afa158015612c77573d6000803e3d6000fd5b505050506040513d601f19601f82011682018060405250612c9b91908101906135de565b10157f436f6d7074726f6c6c65720000000000000000000000000000000000000000007f496e636f6e73697374656e742062616c616e63657300000000000000000000006128f8565b565b612cee6133d2565b612cf66133d2565b612d008486612fef565b9050612d0a6133d2565b612d12613020565b90506000612d29858861267b90919063ffffffff16565b90506000612d40868861267b90919063ffffffff16565b9050612d4a6133d2565b612d548284612fef565b9050612d69848661304490919063ffffffff16565b15612e6757612d81848261304490919063ffffffff16565b15612d9b57612d8f8461305b565b95505050505050612e79565b612da36133d2565b612dad82866130c9565b9050612db76133d2565b612dca838761317990919063ffffffff16565b9050612dd46133d2565b612ddd8761305b565b9050612de76133d2565b612dfa888a61317990919063ffffffff16565b9050612e57612e1282856131b290919063ffffffff16565b612e49612e2884866131eb90919063ffffffff16565b612e3b87896131eb90919063ffffffff16565b6131b290919063ffffffff16565b61322490919063ffffffff16565b9950505050505050505050612e79565b612e7181866130c9565b955050505050505b9392505050565b612e886133d2565b6040518060200160405280612eaa848660000151611e4b90919063ffffffff16565b815250905092915050565b6000612ed6670de0b6b3a764000083600001516125dc90919063ffffffff16565b9050919050565b60608082604051602001612ef19190613a49565b60405160208183030381529060405290506000602090505b6000811115612f7957808060019003915050600060f81b828281518110612f2c57fe5b602001015160f81c60f81b7effffffffffffffffffffffffffffffffffffffffffffffffffffffffffffff191614612f74576000600182019050808352829350505050612fb3565b612f09565b5060006040519080825280601f01601f191660200182016040528015612fae5781602001600182028038833980820191505090505b509150505b919050565b612fd58282600060030160040154612aae9092919063ffffffff16565b6000600301600401819055505050565b60006101a4905090565b612ff76133d2565b604051806020016040528061301585670de0b6b3a76400008661325d565b815250905092915050565b6130286133d2565b60405180602001604052806702c68af0bb140000815250905090565b60006002613052848461328d565b14905092915050565b6130636133d2565b6130c261306e6132cd565b6130b461309e6002613090876130826132cd565b61317990919063ffffffff16565b6132f190919063ffffffff16565b6130a66132cd565b61322490919063ffffffff16565b61317990919063ffffffff16565b9050919050565b6130d16133d2565b6130e4828461336490919063ffffffff16565b156130f9576130f28361305b565b9050613173565b6131706131046132cd565b61316261314c613124876131166132cd565b61317990919063ffffffff16565b61313e876131306132cd565b61317990919063ffffffff16565b6131eb90919063ffffffff16565b6131546132cd565b61322490919063ffffffff16565b61317990919063ffffffff16565b90505b92915050565b6131816133d2565b60405180602001604052806131a78460000151866000015161267b90919063ffffffff16565b815250905092915050565b6131ba6133d2565b60405180602001604052806131e08460000151866000015161262690919063ffffffff16565b815250905092915050565b6131f36133d2565b604051806020016040528061321985600001518560000151670de0b6b3a764000061325d565b815250905092915050565b61322c6133d2565b60405180602001604052806132528560000151670de0b6b3a7640000866000015161325d565b815250905092915050565b6000613284826132768587611e4b90919063ffffffff16565b6125dc90919063ffffffff16565b90509392505050565b60008160000151836000015114156132a857600190506132c7565b81600001518360000151116132be5760006132c1565b60025b60ff1690505b92915050565b6132d56133d2565b6040518060200160405280670de0b6b3a7640000815250905090565b6132f96133d2565b60008214156133135761330c6001613379565b905061335e565b61331b6133d2565b6040518060200160405280856000015181525090506000600190505b838110156133585761334982866131eb565b91508080600101915050613337565b50809150505b92915050565b60008160000151836000015114905092915050565b6133816133d2565b60405180602001604052806133a7670de0b6b3a764000085611e4b90919063ffffffff16565b8152509050919050565b60405180606001604052806000815260200160008152602001600081525090565b6040518060200160405280600081525090565b6000813590506133f481613fae565b92915050565b60008151905061340981613fc5565b92915050565b60008135905061341e81613fdc565b92915050565b60008151905061343381613fdc565b92915050565b60006020828403121561344b57600080fd5b6000613459848285016133e5565b91505092915050565b6000806040838503121561347557600080fd5b6000613483858286016133e5565b9250506020613494858286016133e5565b9150509250929050565b6000806000606084860312156134b357600080fd5b60006134c1868287016133e5565b93505060206134d2868287016133e5565b92505060406134e38682870161340f565b9150509250925092565b6000806000806080858703121561350357600080fd5b6000613511878288016133e5565b9450506020613522878288016133e5565b93505060406135338782880161340f565b92505060606135448782880161340f565b91505092959194509250565b6000806040838503121561356357600080fd5b6000613571858286016133e5565b92505060206135828582860161340f565b9150509250929050565b60006020828403121561359e57600080fd5b60006135ac848285016133fa565b91505092915050565b6000602082840312156135c757600080fd5b60006135d58482850161340f565b91505092915050565b6000602082840312156135f057600080fd5b60006135fe84828501613424565b91505092915050565b6000806040838503121561361a57600080fd5b60006136288582860161340f565b92505060206136398582860161340f565b9150509250929050565b61364c81613ddb565b82525050565b61365b81613ded565b82525050565b61367261366d82613df9565b613f62565b82525050565b61368961368482613e25565b613f6c565b82525050565b600061369a82613da9565b6136a48185613dbf565b93506136b4818560208601613f2f565b80840191505092915050565b6136c981613e9f565b82525050565b6136d881613ec3565b82525050565b6136e781613ee7565b82525050565b6136f681613ef9565b82525050565b61370581613f0b565b82525050565b61371481613f1d565b82525050565b600061372582613db4565b61372f8185613dca565b935061373f818560208601613f2f565b61374881613f76565b840191505092915050565b6000613760601b83613dca565b91507f536166654d6174683a206164646974696f6e206f766572666c6f7700000000006000830152602082019050919050565b60006137a0601883613dca565b91507f4d61726b65743a20416c7265616479206d6967726174656400000000000000006000830152602082019050919050565b60006137e0601283613dca565b91507f4d61726b65743a204e6f20636f75706f6e7300000000000000000000000000006000830152602082019050919050565b6000613820601683613dca565b91507f4d61726b65743a20416d6f756e7420746f6f206c6f77000000000000000000006000830152602082019050919050565b6000613860602b83613dca565b91507f4d61726b65743a20436f75706f6e207472616e7366657220746f20746865207a60008301527f65726f20616464726573730000000000000000000000000000000000000000006020830152604082019050919050565b60006138c6602183613dca565b91507f536166654d6174683a206d756c7469706c69636174696f6e206f766572666c6f60008301527f77000000000000000000000000000000000000000000000000000000000000006020830152604082019050919050565b600061392c602a83613dca565b91507f4d61726b65743a20436f75706f6e20617070726f766520746f20746865207a6560008301527f726f2061646472657373000000000000000000000000000000000000000000006020830152604082019050919050565b6000613992602d83613dca565b91507f4d61726b65743a20436f75706f6e207472616e736665722066726f6d2074686560008301527f207a65726f2061646472657373000000000000000000000000000000000000006020830152604082019050919050565b60006139f8601b83613dca565b91507f4d61726b65743a20546f6f206561726c7920746f2072656465656d00000000006000830152602082019050919050565b613a3481613e88565b82525050565b613a4381613e92565b82525050565b6000613a558284613678565b60208201915081905092915050565b6000613a70828661368f565b9150613a7c8285613661565b600282019150613a8c828461368f565b9150819050949350505050565b6000602082019050613aae6000830184613643565b92915050565b6000606082019050613ac96000830186613643565b613ad66020830185613643565b613ae36040830184613a2b565b949350505050565b6000604082019050613b006000830185613643565b613b0d6020830184613a2b565b9392505050565b6000602082019050613b296000830184613652565b92915050565b6000602082019050613b4460008301846136c0565b92915050565b6000602082019050613b5f60008301846136cf565b92915050565b6000602082019050613b7a60008301846136de565b92915050565b6000602082019050613b9560008301846136ed565b92915050565b6000602082019050613bb060008301846136fc565b92915050565b6000604082019050613bcb600083018561370b565b613bd86020830184613a2b565b9392505050565b60006020820190508181036000830152613bf9818461371a565b905092915050565b60006020820190508181036000830152613c1a81613753565b9050919050565b60006020820190508181036000830152613c3a81613793565b9050919050565b60006020820190508181036000830152613c5a816137d3565b9050919050565b60006020820190508181036000830152613c7a81613813565b9050919050565b60006020820190508181036000830152613c9a81613853565b9050919050565b60006020820190508181036000830152613cba816138b9565b9050919050565b60006020820190508181036000830152613cda8161391f565b9050919050565b60006020820190508181036000830152613cfa81613985565b9050919050565b60006020820190508181036000830152613d1a816139eb565b9050919050565b6000602082019050613d366000830184613a2b565b92915050565b6000604082019050613d516000830185613a2b565b613d5e602083018461370b565b9392505050565b6000604082019050613d7a6000830185613a2b565b613d876020830184613a2b565b9392505050565b6000602082019050613da36000830184613a3a565b92915050565b600081519050919050565b600081519050919050565b600081905092915050565b600082825260208201905092915050565b6000613de682613e68565b9050919050565b60008115159050919050565b60007fffff00000000000000000000000000000000000000000000000000000000000082169050919050565b6000819050919050565b6000819050613e3d82613f87565b919050565b6000819050613e5082613f94565b919050565b6000819050613e6382613fa1565b919050565b600073ffffffffffffffffffffffffffffffffffffffff82169050919050565b6000819050919050565b600060ff82169050919050565b6000613eaa82613eb1565b9050919050565b6000613ebc82613e68565b9050919050565b6000613ece82613ed5565b9050919050565b6000613ee082613e68565b9050919050565b6000613ef282613e2f565b9050919050565b6000613f0482613e42565b9050919050565b6000613f1682613e55565b9050919050565b6000613f2882613e88565b9050919050565b60005b83811015613f4d578082015181840152602081019050613f32565b83811115613f5c576000848401525b50505050565b6000819050919050565b6000819050919050565b6000601f19601f8301169050919050565b60038110613f9157fe5b50565b60028110613f9e57fe5b50565b60038110613fab57fe5b50565b613fb781613ddb565b8114613fc257600080fd5b50565b613fce81613ded565b8114613fd957600080fd5b50565b613fe581613e88565b8114613ff057600080fd5b5056fe4d61726b65743a20496e73756666696369656e7420636f75706f6e20756e6465726c79696e672062616c616e63654d61726b65743a20496e73756666696369656e7420636f75706f6e2062616c616e63654d61726b65743a20496e73756666696369656e7420636f75706f6e20617070726f76616c436f6d7074726f6c6c65723a206e6f7420656e6f756768206f75747374616e64696e672064656274436f6d7074726f6c6c65723a206e6f7420656e6f7567682072656465656d61626c652062616c616e6365a365627a7a7231582063f10f9e1ba00dc9788596bd14b51099e835bd404ad56c7cd2da11816c75c2236c6578706572696d656e74616cf564736f6c63430005110040",
  "source": "/*\n    Copyright 2020 Empty Set Squad <emptysetsquad@protonmail.com>\n\n    Licensed under the Apache License, Version 2.0 (the \"License\");\n    you may not use this file except in compliance with the License.\n    You may obtain a copy of the License at\n\n    http://www.apache.org/licenses/LICENSE-2.0\n\n    Unless required by applicable law or agreed to in writing, software\n    distributed under the License is distributed on an \"AS IS\" BASIS,\n    WITHOUT WARRANTIES OR CONDITIONS OF ANY KIND, either express or implied.\n    See the License for the specific language governing permissions and\n    limitations under the License.\n*/\n\npragma solidity ^0.5.17;\npragma experimental ABIEncoderV2;\n\nimport \"@openzeppelin/contracts/math/SafeMath.sol\";\nimport \"./Curve.sol\";\nimport \"./Comptroller.sol\";\nimport \"../Constants.sol\";\n\ncontract Market is Comptroller, Curve {\n    using SafeMath for uint256;\n\n    bytes32 private constant FILE = \"Market\";\n\n    event CouponExpiration(uint256 indexed epoch, uint256 couponsExpired, uint256 lessRedeemable, uint256 lessDebt, uint256 newBonded);\n    event CouponPurchase(address indexed account, uint256 indexed epoch, uint256 dollarAmount, uint256 couponAmount);\n    event CouponRedemption(address indexed account, uint256 indexed epoch, uint256 amount, uint256 couponAmount);\n    event CouponTransfer(address indexed from, address indexed to, uint256 indexed epoch, uint256 value);\n    event CouponApproval(address indexed owner, address indexed spender, uint256 value);\n\n    function step() internal {\n        // Expire prior coupons\n        for (uint256 i = 0; i < expiringCoupons(epoch()); i++) {\n            expireCouponsForEpoch(expiringCouponsAtIndex(epoch(), i));\n        }\n\n        // Record expiry for current epoch's coupons\n        uint256 expirationEpoch = epoch().add(Constants.getCouponExpiration());\n        initializeCouponsExpiration(epoch(), expirationEpoch);\n    }\n\n    function expireCouponsForEpoch(uint256 epoch) private {\n        uint256 couponsForEpoch = outstandingCoupons(epoch);\n        (uint256 lessRedeemable, uint256 newBonded) = (0, 0);\n\n        eliminateOutstandingCoupons(epoch);\n\n        uint256 totalRedeemable = totalRedeemable();\n        uint256 totalCoupons = totalCoupons();\n\n        if (totalRedeemable > totalCoupons) {\n            lessRedeemable = totalRedeemable.sub(totalCoupons);\n            burnRedeemable(lessRedeemable);\n            (, newBonded) = increaseSupply(lessRedeemable);\n        }\n\n        emit CouponExpiration(epoch, couponsForEpoch, lessRedeemable, 0, newBonded);\n    }\n\n    function couponPremium(uint256 amount) public view returns (uint256) {\n        return calculateCouponPremium(dollar().totalSupply(), totalDebt(), amount);\n    }\n\n    function migrateCoupons(uint256 couponEpoch) external {\n        uint256 balanceOfCoupons = balanceOfCoupons(msg.sender, couponEpoch);\n        require(balanceOfCoupons > 0, \"Market: No coupons\");\n        require(balanceOfCouponUnderlying(msg.sender, couponEpoch) == 0, \"Market: Already migrated\");\n\n        uint256 couponUnderlying = balanceOfCoupons.div(2);\n\n        incrementBalanceOfCouponUnderlying(msg.sender, couponEpoch, couponUnderlying);\n        decrementBalanceOfCoupons(msg.sender, couponEpoch, couponUnderlying, \"Market: Insufficient coupon balance\");\n\n        emit CouponRedemption(msg.sender, couponEpoch, 0, couponUnderlying);\n        emit CouponPurchase(msg.sender, couponEpoch, couponUnderlying, 0);\n    }\n\n    function purchaseCoupons(uint256 amount) external returns (uint256) {\n        Require.that(\n            amount > 0,\n            FILE,\n            \"Must purchase non-zero amount\"\n        );\n\n        Require.that(\n            totalDebt() >= amount,\n            FILE,\n            \"Not enough debt\"\n        );\n\n        uint256 epoch = epoch();\n        uint256 couponAmount = couponPremium(amount);\n        incrementBalanceOfCoupons(msg.sender, epoch, couponAmount);\n        incrementBalanceOfCouponUnderlying(msg.sender, epoch, amount);\n\n        burnFromAccount(msg.sender, amount);\n\n        emit CouponPurchase(msg.sender, epoch, amount, couponAmount);\n\n        return couponAmount;\n    }\n\n    // @notice: logic overview\n    // 1) Coupons just purchased will fail at 2 epoch check.\n    // 2) Valid coupons without sufficient redeemable will fail at redeemToAccount.\n    // 3) Expired coupons will result in zero couponAmount, passing decrementBalanceOfCoupons\n    //    and redeemToAccount to return underlying only.\n    // 4) Expired coupons with future redeemable will still result in zero couponAmount,\n    //    allowing only underlying to be redeemed.\n    function redeemCoupons(uint256 couponEpoch, uint256 amount) external {\n        require(epoch().sub(couponEpoch) >= 2, \"Market: Too early to redeem\");\n        require(amount != 0, \"Market: Amount too low\");\n\n        uint256 couponAmount = balanceOfCoupons(msg.sender, couponEpoch)\n            .mul(amount).div(balanceOfCouponUnderlying(msg.sender, couponEpoch), \"Market: No underlying\");\n        uint256 redeemableAmount = computeRedeemable(couponEpoch, couponAmount);\n\n        decrementBalanceOfCouponUnderlying(msg.sender, couponEpoch, amount, \"Market: Insufficient coupon underlying balance\");\n        if (couponAmount != 0) decrementBalanceOfCoupons(msg.sender, couponEpoch, couponAmount, \"Market: Insufficient coupon balance\");\n        redeemToAccount(msg.sender, amount, redeemableAmount);\n\n        emit CouponRedemption(msg.sender, couponEpoch, amount, couponAmount);\n    }\n\n    function computeRedeemable(uint256 couponEpoch, uint256 couponAmount) private view returns (uint256) {\n        if (couponEpoch < couponProratedStart()) {\n            return couponAmount;\n        }\n\n        uint256 lastContractionEpoch = computeLastContractionEpoch();\n        uint256 lockedTime = lastContractionEpoch > couponEpoch ? lastContractionEpoch.sub(couponEpoch) : 0;\n        lockedTime = lockedTime > Constants.getCouponExpiration() ? Constants.getCouponExpiration() : lockedTime;\n        return couponAmount.mul(lockedTime).div(Constants.getCouponExpiration());\n    }\n\n    function computeLastContractionEpoch() private view returns (uint256) {\n        if (eraStatus() == Era.Status.EXPANSION) {\n            uint256 eraStart = eraStart();\n            return eraStart == 0 ? 0 : eraStart.sub(1);\n        }\n        return epoch().sub(1);\n    }\n\n    function approveCoupons(address spender, uint256 amount) external {\n        require(spender != address(0), \"Market: Coupon approve to the zero address\");\n\n        updateAllowanceCoupons(msg.sender, spender, amount);\n\n        emit CouponApproval(msg.sender, spender, amount);\n    }\n\n    function transferCoupons(address sender, address recipient, uint256 epoch, uint256 amount) external {\n        require(sender != address(0), \"Market: Coupon transfer from the zero address\");\n        require(recipient != address(0), \"Market: Coupon transfer to the zero address\");\n\n        uint256 couponAmount = balanceOfCoupons(sender, epoch)\n            .mul(amount).div(balanceOfCouponUnderlying(sender, epoch), \"Market: No underlying\");\n\n        decrementBalanceOfCouponUnderlying(sender, epoch, amount, \"Market: Insufficient coupon underlying balance\");\n        incrementBalanceOfCouponUnderlying(recipient, epoch, amount);\n\n        decrementBalanceOfCoupons(sender, epoch, couponAmount, \"Market: Insufficient coupon balance\");\n        incrementBalanceOfCoupons(recipient, epoch, couponAmount);\n\n        if (msg.sender != sender && allowanceCoupons(sender, msg.sender) != uint256(-1)) {\n            decrementAllowanceCoupons(sender, msg.sender, amount, \"Market: Insufficient coupon approval\");\n        }\n\n        emit CouponTransfer(sender, recipient, epoch, amount);\n    }\n\n    // overridable for testing\n    function couponProratedStart() internal view returns (uint256) {\n        return Constants.getCouponProratedStart();\n    }\n}\n",
  "sourcePath": "/Users/gokulalex/Apps/eth_apps/SemiotNet/contracts/dao/Market.sol",
  "compiler": {
    "name": "solc",
    "version": "0.5.17+commit.d19bba13.Emscripten.clang"
  },
  "schemaVersion": "3.3.3",
  "updatedAt": "2021-02-19T15:49:23.536Z",
  "devdoc": {
    "methods": {}
  },
  "userdoc": {
    "methods": {
      "balanceOfStaged(address)": {
        "notice": "Account"
      },
      "dollar()": {
        "notice": "Global"
      },
      "epoch()": {
        "notice": "Epoch"
      },
      "name()": {
        "notice": "ERC20 Interface"
      },
      "recordedVote(address,address)": {
        "notice": "Governance"
      },
      "transfer(address,uint256)": {
        "notice": "ERC20 Interface"
      }
    }
  }
}