{
  "contractName": "MockUpgradeable",
  "abi": [
    {
      "inputs": [],
      "payable": false,
      "stateMutability": "nonpayable",
      "type": "constructor"
    },
    {
      "anonymous": false,
      "inputs": [
        {
          "indexed": true,
          "internalType": "address",
          "name": "from",
          "type": "address"
        },
        {
          "indexed": true,
          "internalType": "address",
          "name": "to",
          "type": "address"
        },
        {
          "indexed": false,
          "internalType": "uint256",
          "name": "value",
          "type": "uint256"
        }
      ],
      "name": "Transfer",
      "type": "event"
    },
    {
      "anonymous": false,
      "inputs": [
        {
          "indexed": true,
          "internalType": "address",
          "name": "implementation",
          "type": "address"
        }
      ],
      "name": "Upgraded",
      "type": "event"
    },
    {
      "constant": true,
      "inputs": [
        {
          "internalType": "address",
          "name": "owner",
          "type": "address"
        },
        {
          "internalType": "address",
          "name": "spender",
          "type": "address"
        }
      ],
      "name": "allowance",
      "outputs": [
        {
          "internalType": "uint256",
          "name": "",
          "type": "uint256"
        }
      ],
      "payable": false,
      "stateMutability": "view",
      "type": "function"
    },
    {
      "constant": true,
      "inputs": [
        {
          "internalType": "address",
          "name": "owner",
          "type": "address"
        },
        {
          "internalType": "address",
          "name": "spender",
          "type": "address"
        }
      ],
      "name": "allowanceCoupons",
      "outputs": [
        {
          "internalType": "uint256",
          "name": "",
          "type": "uint256"
        }
      ],
      "payable": false,
      "stateMutability": "view",
      "type": "function"
    },
    {
      "constant": false,
      "inputs": [
        {
          "internalType": "address",
          "name": "spender",
          "type": "address"
        },
        {
          "internalType": "uint256",
          "name": "amount",
          "type": "uint256"
        }
      ],
      "name": "approve",
      "outputs": [
        {
          "internalType": "bool",
          "name": "",
          "type": "bool"
        }
      ],
      "payable": false,
      "stateMutability": "nonpayable",
      "type": "function"
    },
    {
      "constant": true,
      "inputs": [
        {
          "internalType": "address",
          "name": "candidate",
          "type": "address"
        }
      ],
      "name": "approveFor",
      "outputs": [
        {
          "internalType": "uint256",
          "name": "",
          "type": "uint256"
        }
      ],
      "payable": false,
      "stateMutability": "view",
      "type": "function"
    },
    {
      "constant": true,
      "inputs": [
        {
          "internalType": "address",
          "name": "account",
          "type": "address"
        }
      ],
      "name": "balanceOf",
      "outputs": [
        {
          "internalType": "uint256",
          "name": "",
          "type": "uint256"
        }
      ],
      "payable": false,
      "stateMutability": "view",
      "type": "function"
    },
    {
      "constant": true,
      "inputs": [
        {
          "internalType": "address",
          "name": "account",
          "type": "address"
        }
      ],
      "name": "balanceOfBonded",
      "outputs": [
        {
          "internalType": "uint256",
          "name": "",
          "type": "uint256"
        }
      ],
      "payable": false,
      "stateMutability": "view",
      "type": "function"
    },
    {
      "constant": true,
      "inputs": [
        {
          "internalType": "address",
          "name": "account",
          "type": "address"
        },
        {
          "internalType": "uint256",
          "name": "epoch",
          "type": "uint256"
        }
      ],
      "name": "balanceOfCouponUnderlying",
      "outputs": [
        {
          "internalType": "uint256",
          "name": "",
          "type": "uint256"
        }
      ],
      "payable": false,
      "stateMutability": "view",
      "type": "function"
    },
    {
      "constant": true,
      "inputs": [
        {
          "internalType": "address",
          "name": "account",
          "type": "address"
        },
        {
          "internalType": "uint256",
          "name": "epoch",
          "type": "uint256"
        }
      ],
      "name": "balanceOfCoupons",
      "outputs": [
        {
          "internalType": "uint256",
          "name": "",
          "type": "uint256"
        }
      ],
      "payable": false,
      "stateMutability": "view",
      "type": "function"
    },
    {
      "constant": true,
      "inputs": [
        {
          "internalType": "address",
          "name": "account",
          "type": "address"
        }
      ],
      "name": "balanceOfStaged",
      "outputs": [
        {
          "internalType": "uint256",
          "name": "",
          "type": "uint256"
        }
      ],
      "payable": false,
      "stateMutability": "view",
      "type": "function"
    },
    {
      "constant": true,
      "inputs": [
        {
          "internalType": "uint256",
          "name": "epoch",
          "type": "uint256"
        }
      ],
      "name": "bootstrappingAt",
      "outputs": [
        {
          "internalType": "bool",
          "name": "",
          "type": "bool"
        }
      ],
      "payable": false,
      "stateMutability": "view",
      "type": "function"
    },
    {
      "constant": true,
      "inputs": [
        {
          "internalType": "uint256",
          "name": "epoch",
          "type": "uint256"
        }
      ],
      "name": "couponsExpiration",
      "outputs": [
        {
          "internalType": "uint256",
          "name": "",
          "type": "uint256"
        }
      ],
      "payable": false,
      "stateMutability": "view",
      "type": "function"
    },
    {
      "constant": true,
      "inputs": [],
      "name": "decimals",
      "outputs": [
        {
          "internalType": "uint8",
          "name": "",
          "type": "uint8"
        }
      ],
      "payable": false,
      "stateMutability": "view",
      "type": "function"
    },
    {
      "constant": true,
      "inputs": [],
      "name": "dollar",
      "outputs": [
        {
          "internalType": "contract IDollar",
          "name": "",
          "type": "address"
        }
      ],
      "payable": false,
      "stateMutability": "view",
      "type": "function"
    },
    {
      "constant": true,
      "inputs": [],
      "name": "epoch",
      "outputs": [
        {
          "internalType": "uint256",
          "name": "",
          "type": "uint256"
        }
      ],
      "payable": false,
      "stateMutability": "view",
      "type": "function"
    },
    {
      "constant": true,
      "inputs": [],
      "name": "epochTime",
      "outputs": [
        {
          "internalType": "uint256",
          "name": "",
          "type": "uint256"
        }
      ],
      "payable": false,
      "stateMutability": "view",
      "type": "function"
    },
    {
      "constant": true,
      "inputs": [],
      "name": "eraStart",
      "outputs": [
        {
          "internalType": "uint256",
          "name": "",
          "type": "uint256"
        }
      ],
      "payable": false,
      "stateMutability": "view",
      "type": "function"
    },
    {
      "constant": true,
      "inputs": [],
      "name": "eraStatus",
      "outputs": [
        {
          "internalType": "enum Era.Status",
          "name": "",
          "type": "uint8"
        }
      ],
      "payable": false,
      "stateMutability": "view",
      "type": "function"
    },
    {
      "constant": true,
      "inputs": [
        {
          "internalType": "uint256",
          "name": "epoch",
          "type": "uint256"
        }
      ],
      "name": "expiringCoupons",
      "outputs": [
        {
          "internalType": "uint256",
          "name": "",
          "type": "uint256"
        }
      ],
      "payable": false,
      "stateMutability": "view",
      "type": "function"
    },
    {
      "constant": true,
      "inputs": [
        {
          "internalType": "uint256",
          "name": "epoch",
          "type": "uint256"
        },
        {
          "internalType": "uint256",
          "name": "i",
          "type": "uint256"
        }
      ],
      "name": "expiringCouponsAtIndex",
      "outputs": [
        {
          "internalType": "uint256",
          "name": "",
          "type": "uint256"
        }
      ],
      "payable": false,
      "stateMutability": "view",
      "type": "function"
    },
    {
      "constant": true,
      "inputs": [
        {
          "internalType": "address",
          "name": "account",
          "type": "address"
        }
      ],
      "name": "fluidUntil",
      "outputs": [
        {
          "internalType": "uint256",
          "name": "",
          "type": "uint256"
        }
      ],
      "payable": false,
      "stateMutability": "view",
      "type": "function"
    },
    {
      "constant": true,
      "inputs": [],
      "name": "implementation",
      "outputs": [
        {
          "internalType": "address",
          "name": "impl",
          "type": "address"
        }
      ],
      "payable": false,
      "stateMutability": "view",
      "type": "function"
    },
    {
      "constant": true,
      "inputs": [
        {
          "internalType": "address",
          "name": "candidate",
          "type": "address"
        }
      ],
      "name": "isInitialized",
      "outputs": [
        {
          "internalType": "bool",
          "name": "",
          "type": "bool"
        }
      ],
      "payable": false,
      "stateMutability": "view",
      "type": "function"
    },
    {
      "constant": true,
      "inputs": [
        {
          "internalType": "address",
          "name": "candidate",
          "type": "address"
        }
      ],
      "name": "isNominated",
      "outputs": [
        {
          "internalType": "bool",
          "name": "",
          "type": "bool"
        }
      ],
      "payable": false,
      "stateMutability": "view",
      "type": "function"
    },
    {
      "constant": true,
      "inputs": [
        {
          "internalType": "address",
          "name": "account",
          "type": "address"
        }
      ],
      "name": "lockedUntil",
      "outputs": [
        {
          "internalType": "uint256",
          "name": "",
          "type": "uint256"
        }
      ],
      "payable": false,
      "stateMutability": "view",
      "type": "function"
    },
    {
      "constant": true,
      "inputs": [],
      "name": "name",
      "outputs": [
        {
          "internalType": "string",
          "name": "",
          "type": "string"
        }
      ],
      "payable": false,
      "stateMutability": "view",
      "type": "function"
    },
    {
      "constant": true,
      "inputs": [],
      "name": "oracle",
      "outputs": [
        {
          "internalType": "contract IOracle",
          "name": "",
          "type": "address"
        }
      ],
      "payable": false,
      "stateMutability": "view",
      "type": "function"
    },
    {
      "constant": true,
      "inputs": [
        {
          "internalType": "uint256",
          "name": "epoch",
          "type": "uint256"
        }
      ],
      "name": "outstandingCoupons",
      "outputs": [
        {
          "internalType": "uint256",
          "name": "",
          "type": "uint256"
        }
      ],
      "payable": false,
      "stateMutability": "view",
      "type": "function"
    },
    {
      "constant": true,
      "inputs": [
        {
          "internalType": "address",
          "name": "candidate",
          "type": "address"
        }
      ],
      "name": "periodFor",
      "outputs": [
        {
          "internalType": "uint256",
          "name": "",
          "type": "uint256"
        }
      ],
      "payable": false,
      "stateMutability": "view",
      "type": "function"
    },
    {
      "constant": true,
      "inputs": [],
      "name": "pool",
      "outputs": [
        {
          "internalType": "address",
          "name": "",
          "type": "address"
        }
      ],
      "payable": false,
      "stateMutability": "view",
      "type": "function"
    },
    {
      "constant": true,
      "inputs": [
        {
          "internalType": "address",
          "name": "account",
          "type": "address"
        },
        {
          "internalType": "address",
          "name": "candidate",
          "type": "address"
        }
      ],
      "name": "recordedVote",
      "outputs": [
        {
          "internalType": "enum Candidate.Vote",
          "name": "",
          "type": "uint8"
        }
      ],
      "payable": false,
      "stateMutability": "view",
      "type": "function"
    },
    {
      "constant": true,
      "inputs": [
        {
          "internalType": "address",
          "name": "candidate",
          "type": "address"
        }
      ],
      "name": "rejectFor",
      "outputs": [
        {
          "internalType": "uint256",
          "name": "",
          "type": "uint256"
        }
      ],
      "payable": false,
      "stateMutability": "view",
      "type": "function"
    },
    {
      "constant": true,
      "inputs": [
        {
          "internalType": "address",
          "name": "candidate",
          "type": "address"
        }
      ],
      "name": "startFor",
      "outputs": [
        {
          "internalType": "uint256",
          "name": "",
          "type": "uint256"
        }
      ],
      "payable": false,
      "stateMutability": "view",
      "type": "function"
    },
    {
      "constant": true,
      "inputs": [
        {
          "internalType": "address",
          "name": "account",
          "type": "address"
        }
      ],
      "name": "statusOf",
      "outputs": [
        {
          "internalType": "enum Account.Status",
          "name": "",
          "type": "uint8"
        }
      ],
      "payable": false,
      "stateMutability": "view",
      "type": "function"
    },
    {
      "constant": true,
      "inputs": [],
      "name": "symbol",
      "outputs": [
        {
          "internalType": "string",
          "name": "",
          "type": "string"
        }
      ],
      "payable": false,
      "stateMutability": "view",
      "type": "function"
    },
    {
      "constant": true,
      "inputs": [],
      "name": "totalBonded",
      "outputs": [
        {
          "internalType": "uint256",
          "name": "",
          "type": "uint256"
        }
      ],
      "payable": false,
      "stateMutability": "view",
      "type": "function"
    },
    {
      "constant": true,
      "inputs": [
        {
          "internalType": "uint256",
          "name": "epoch",
          "type": "uint256"
        }
      ],
      "name": "totalBondedAt",
      "outputs": [
        {
          "internalType": "uint256",
          "name": "",
          "type": "uint256"
        }
      ],
      "payable": false,
      "stateMutability": "view",
      "type": "function"
    },
    {
      "constant": true,
      "inputs": [],
      "name": "totalCouponUnderlying",
      "outputs": [
        {
          "internalType": "uint256",
          "name": "",
          "type": "uint256"
        }
      ],
      "payable": false,
      "stateMutability": "view",
      "type": "function"
    },
    {
      "constant": true,
      "inputs": [],
      "name": "totalCoupons",
      "outputs": [
        {
          "internalType": "uint256",
          "name": "",
          "type": "uint256"
        }
      ],
      "payable": false,
      "stateMutability": "view",
      "type": "function"
    },
    {
      "constant": true,
      "inputs": [],
      "name": "totalDebt",
      "outputs": [
        {
          "internalType": "uint256",
          "name": "",
          "type": "uint256"
        }
      ],
      "payable": false,
      "stateMutability": "view",
      "type": "function"
    },
    {
      "constant": true,
      "inputs": [],
      "name": "totalNet",
      "outputs": [
        {
          "internalType": "uint256",
          "name": "",
          "type": "uint256"
        }
      ],
      "payable": false,
      "stateMutability": "view",
      "type": "function"
    },
    {
      "constant": true,
      "inputs": [],
      "name": "totalRedeemable",
      "outputs": [
        {
          "internalType": "uint256",
          "name": "",
          "type": "uint256"
        }
      ],
      "payable": false,
      "stateMutability": "view",
      "type": "function"
    },
    {
      "constant": true,
      "inputs": [],
      "name": "totalStaged",
      "outputs": [
        {
          "internalType": "uint256",
          "name": "",
          "type": "uint256"
        }
      ],
      "payable": false,
      "stateMutability": "view",
      "type": "function"
    },
    {
      "constant": true,
      "inputs": [],
      "name": "totalSupply",
      "outputs": [
        {
          "internalType": "uint256",
          "name": "",
          "type": "uint256"
        }
      ],
      "payable": false,
      "stateMutability": "view",
      "type": "function"
    },
    {
      "constant": false,
      "inputs": [
        {
          "internalType": "address",
          "name": "recipient",
          "type": "address"
        },
        {
          "internalType": "uint256",
          "name": "amount",
          "type": "uint256"
        }
      ],
      "name": "transfer",
      "outputs": [
        {
          "internalType": "bool",
          "name": "",
          "type": "bool"
        }
      ],
      "payable": false,
      "stateMutability": "nonpayable",
      "type": "function"
    },
    {
      "constant": false,
      "inputs": [
        {
          "internalType": "address",
          "name": "sender",
          "type": "address"
        },
        {
          "internalType": "address",
          "name": "recipient",
          "type": "address"
        },
        {
          "internalType": "uint256",
          "name": "amount",
          "type": "uint256"
        }
      ],
      "name": "transferFrom",
      "outputs": [
        {
          "internalType": "bool",
          "name": "",
          "type": "bool"
        }
      ],
      "payable": false,
      "stateMutability": "nonpayable",
      "type": "function"
    },
    {
      "constant": true,
      "inputs": [
        {
          "internalType": "address",
          "name": "candidate",
          "type": "address"
        }
      ],
      "name": "votesFor",
      "outputs": [
        {
          "internalType": "uint256",
          "name": "",
          "type": "uint256"
        }
      ],
      "payable": false,
      "stateMutability": "view",
      "type": "function"
    },
    {
      "constant": false,
      "inputs": [],
      "name": "initialize",
      "outputs": [],
      "payable": false,
      "stateMutability": "nonpayable",
      "type": "function"
    },
    {
      "constant": false,
      "inputs": [
        {
          "internalType": "address",
          "name": "newImplementation",
          "type": "address"
        }
      ],
      "name": "upgradeToE",
      "outputs": [],
      "payable": false,
      "stateMutability": "nonpayable",
      "type": "function"
    }
  ],
  "bytecode": "0x608060405234801561001057600080fd5b5061217c806100206000396000f3fe608060405234801561001057600080fd5b50600436106102a05760003560e01c80637dc0d1d011610167578063a6c409f1116100ce578063d60b347f11610087578063d60b347f14610919578063dd62ed3e14610949578063edb6b80a14610979578063f1b7cf4914610997578063fc7b9c18146109c7578063ffbe3b73146109e5576102a0565b8063a6c409f11461082f578063a9059cbb1461084d578063b739a7b81461087d578063bc7513e21461089b578063c9aff70c146108cb578063cf023779146108fb576102a0565b806395d89b411161012057806395d89b411461073357806397a5d5b5146107515780639a649edc146107815780639bc289f11461079f5780639f6e1b26146107cf578063a50cd8e7146107ff576102a0565b80637dc0d1d0146106715780638129fc1c1461068f578063825ad6071461069957806386cf9f14146106c95780638a558b04146106f9578063900cf0cf14610715576102a0565b80633fbba9a61161020b57806351bf21d8116101c457806351bf21d8146105635780635c60da1b1461059357806364668022146105b15780636a39e328146105e157806370a082311461061157806375d5024b14610641576102a0565b80633fbba9a61461048b5780634303d4f7146104bb57806344d96e95146104d95780634c736099146104f75780635053e4611461052757806351adeb5714610545576102a0565b806318160ddd1161025d57806318160ddd146103a15780631edbcf6c146103bf57806323b872dd146103dd578063313ce5671461040d578063353a420c1461042b5780633a3e6c811461045b576102a0565b806306fdde03146102a5578063095ea7b3146102c35780630d78ceb4146102f357806310e95b6c1461032357806315e14bf61461035357806316f0115b14610383575b600080fd5b6102ad610a15565b6040516102ba9190611e8a565b60405180910390f35b6102dd60048036036102d89190810190611aaf565b610a52565b6040516102ea9190611de8565b60405180910390f35b61030d60048036036103089190810190611aaf565b610a5d565b60405161031a9190611f2c565b60405180910390f35b61033d60048036036103389190810190611aeb565b610abb565b60405161034a9190611f2c565b60405180910390f35b61036d600480360361036891908101906119fb565b610ae0565b60405161037a9190611f2c565b60405180910390f35b61038b610b2e565b6040516103989190611dcd565b60405180910390f35b6103a9610b5d565b6040516103b69190611f2c565b60405180910390f35b6103c7610b6c565b6040516103d49190611f2c565b60405180910390f35b6103f760048036036103f29190810190611a60565b610b7b565b6040516104049190611de8565b60405180910390f35b610415610b87565b6040516104229190611f47565b60405180910390f35b610445600480360361044091908101906119fb565b610b90565b6040516104529190611f2c565b60405180910390f35b610475600480360361047091908101906119fb565b610bde565b6040516104829190611de8565b60405180910390f35b6104a560048036036104a09190810190611a24565b610c2f565b6040516104b29190611e6f565b60405180910390f35b6104c3610cc8565b6040516104d09190611f2c565b60405180910390f35b6104e1610cd5565b6040516104ee9190611f2c565b60405180910390f35b610511600480360361050c9190810190611b3d565b610ce4565b60405161051e9190611f2c565b60405180910390f35b61052f610d1f565b60405161053c9190611f2c565b60405180910390f35b61054d610d76565b60405161055a9190611e03565b60405180910390f35b61057d600480360361057891908101906119fb565b610da5565b60405161058a9190611f2c565b60405180910390f35b61059b610df3565b6040516105a89190611dcd565b60405180910390f35b6105cb60048036036105c691908101906119fb565b610e24565b6040516105d89190611f2c565b60405180910390f35b6105fb60048036036105f69190810190611aeb565b610e72565b6040516106089190611f2c565b60405180910390f35b61062b600480360361062691908101906119fb565b610e9a565b6040516106389190611f2c565b60405180910390f35b61065b60048036036106569190810190611aeb565b610ee8565b6040516106689190611de8565b60405180910390f35b610679610efc565b6040516106869190611e1e565b60405180910390f35b610697610f2b565b005b6106b360048036036106ae91908101906119fb565b610f66565b6040516106c09190611f2c565b60405180910390f35b6106e360048036036106de91908101906119fb565b610fc3565b6040516106f09190611f2c565b60405180910390f35b610713600480360361070e91908101906119fb565b611011565b005b61071d61101d565b60405161072a9190611f2c565b60405180910390f35b61073b61102c565b6040516107489190611e8a565b60405180910390f35b61076b600480360361076691908101906119fb565b611069565b6040516107789190611e39565b60405180910390f35b61078961112e565b6040516107969190611f2c565b60405180910390f35b6107b960048036036107b491908101906119fb565b61113d565b6040516107c69190611f2c565b60405180910390f35b6107e960048036036107e49190810190611a24565b61118b565b6040516107f69190611f2c565b60405180910390f35b610819600480360361081491908101906119fb565b611217565b6040516108269190611f2c565b60405180910390f35b610837611243565b6040516108449190611f2c565b60405180910390f35b61086760048036036108629190810190611aaf565b6112e8565b6040516108749190611de8565b60405180910390f35b6108856112f3565b6040516108929190611f2c565b60405180910390f35b6108b560048036036108b09190810190611aaf565b611303565b6040516108c29190611f2c565b60405180910390f35b6108e560048036036108e09190810190611aeb565b61137e565b6040516108f29190611f2c565b60405180910390f35b6109036113a3565b6040516109109190611f2c565b60405180910390f35b610933600480360361092e91908101906119fb565b6113b2565b6040516109409190611de8565b60405180910390f35b610963600480360361095e9190810190611a24565b61140d565b6040516109709190611f2c565b60405180910390f35b610981611418565b60405161098e9190611e54565b60405180910390f35b6109b160048036036109ac91908101906119fb565b611435565b6040516109be9190611f2c565b60405180910390f35b6109cf611483565b6040516109dc9190611f2c565b60405180910390f35b6109ff60048036036109fa9190810190611aeb565b611492565b604051610a0c9190611f2c565b60405180910390f35b60606040518060400160405280601681526020017f456d7074792053657420446f6c6c6172205374616b6500000000000000000000815250905090565b600080905092915050565b6000600f60000160008473ffffffffffffffffffffffffffffffffffffffff1673ffffffffffffffffffffffffffffffffffffffff168152602001908152602001600020600083815260200190815260200160002054905092915050565b600080600d016000838152602001908152602001600020600101600101549050919050565b600080600e0160008373ffffffffffffffffffffffffffffffffffffffff1673ffffffffffffffffffffffffffffffffffffffff168152602001908152602001600020600101549050919050565b60008060090160020160009054906101000a900473ffffffffffffffffffffffffffffffffffffffff16905090565b60008060030160000154905090565b60008060030160030154905090565b60008090509392505050565b60006012905090565b600080600e0160008373ffffffffffffffffffffffffffffffffffffffff1673ffffffffffffffffffffffffffffffffffffffff168152602001908152602001600020600301549050919050565b6000806000600e0160008473ffffffffffffffffffffffffffffffffffffffff1673ffffffffffffffffffffffffffffffffffffffff16815260200190815260200160002060000154119050919050565b600080600e0160008373ffffffffffffffffffffffffffffffffffffffff1673ffffffffffffffffffffffffffffffffffffffff16815260200190815260200160002060040160008473ffffffffffffffffffffffffffffffffffffffff1673ffffffffffffffffffffffffffffffffffffffff16815260200190815260200160002060009054906101000a900460ff16905092915050565b6000600f60010154905090565b60008060030160010154905090565b600080600d0160008481526020019081526020016000206001016002018281548110610d0c57fe5b9060005260206000200154905092915050565b6000610d2961199b565b610d316114b4565b9050610d3b61199b565b610d436114e3565b90508160200151610d52611513565b10610d6557610d608261151b565b610d6f565b610d6e8161151b565b5b9250505090565b60008060090160000160009054906101000a900473ffffffffffffffffffffffffffffffffffffffff16905090565b600080600c0160008373ffffffffffffffffffffffffffffffffffffffff1673ffffffffffffffffffffffffffffffffffffffff168152602001908152602001600020600401549050919050565b6000807f360894a13ba1a3210667c828492db98dca3e2076cc3735a920a3ca505d382bbc60001b9050805491505090565b600080600e0160008373ffffffffffffffffffffffffffffffffffffffff1673ffffffffffffffffffffffffffffffffffffffff168152602001908152602001600020600201549050919050565b600080600d016000838152602001908152602001600020600101600201805490509050919050565b600080600c0160008373ffffffffffffffffffffffffffffffffffffffff1673ffffffffffffffffffffffffffffffffffffffff168152602001908152602001600020600101549050919050565b6000610ef261156e565b8211159050919050565b60008060090160010160009054906101000a900473ffffffffffffffffffffffffffffffffffffffff16905090565b6040517f08c379a0000000000000000000000000000000000000000000000000000000008152600401610f5d90611f0c565b60405180910390fd5b600080610f71610b5d565b90506000811415610f86576000915050610fbe565b610fba81610fac610f9686610e9a565b610f9e610cd5565b61157790919063ffffffff16565b6115e790919063ffffffff16565b9150505b919050565b600080600c0160008373ffffffffffffffffffffffffffffffffffffffff1673ffffffffffffffffffffffffffffffffffffffff168152602001908152602001600020600001549050919050565b61101a81611631565b50565b60008060000160020154905090565b60606040518060400160405280600481526020017f4553445300000000000000000000000000000000000000000000000000000000815250905090565b600061107361101d565b6000600c0160008473ffffffffffffffffffffffffffffffffffffffff1673ffffffffffffffffffffffffffffffffffffffff1681526020019081526020016000206005015411156110c85760029050611129565b6000600c0160008373ffffffffffffffffffffffffffffffffffffffff1673ffffffffffffffffffffffffffffffffffffffff1681526020019081526020016000206004015461111661101d565b1015611123576001611126565b60005b90505b919050565b60008060030160050154905090565b600080600c0160008373ffffffffffffffffffffffffffffffffffffffff1673ffffffffffffffffffffffffffffffffffffffff168152602001908152602001600020600501549050919050565b600080600c0160008473ffffffffffffffffffffffffffffffffffffffff1673ffffffffffffffffffffffffffffffffffffffff16815260200190815260200160002060030160008373ffffffffffffffffffffffffffffffffffffffff1673ffffffffffffffffffffffffffffffffffffffff16815260200190815260200160002054905092915050565b600061123c61122583610b90565b61122e84610e24565b6117b690919063ffffffff16565b9050919050565b60006112e3611250611483565b611258610d76565b73ffffffffffffffffffffffffffffffffffffffff166318160ddd6040518163ffffffff1660e01b815260040160206040518083038186803b15801561129d57600080fd5b505afa1580156112b1573d6000803e3d6000fd5b505050506040513d601f19601f820116820180604052506112d59190810190611b14565b61180b90919063ffffffff16565b905090565b600080905092915050565b6000601160000160010154905090565b60008061130f8361137e565b141561131e5760009050611378565b6000600c0160008473ffffffffffffffffffffffffffffffffffffffff1673ffffffffffffffffffffffffffffffffffffffff16815260200190815260200160002060020160008381526020019081526020016000205490505b92915050565b600080600d016000838152602001908152602001600020600101600001549050919050565b60008060030160020154905090565b600080600e0160008373ffffffffffffffffffffffffffffffffffffffff1673ffffffffffffffffffffffffffffffffffffffff16815260200190815260200160002060050160009054906101000a900460ff169050919050565b600080905092915050565b6000601160000160000160009054906101000a900460ff16905090565b600080600e0160008373ffffffffffffffffffffffffffffffffffffffff1673ffffffffffffffffffffffffffffffffffffffff168152602001908152602001600020600001549050919050565b60008060030160040154905090565b600080600d016000838152602001908152602001600020600001549050919050565b6114bc61199b565b6040518060600160405280606a8152602001635f7fa8008152602001617080815250905090565b6114eb61199b565b6040518060600160405280605b8152602001635f6be180815260200162015180815250905090565b600042905090565b60006115678260000151611559846040015161154b866020015161153d611513565b61180b90919063ffffffff16565b6115e790919063ffffffff16565b6117b690919063ffffffff16565b9050919050565b6000605a905090565b60008083141561158a57600090506115e1565b600082840290508284828161159b57fe5b04146115dc576040517f08c379a00000000000000000000000000000000000000000000000000000000081526004016115d390611ecc565b60405180910390fd5b809150505b92915050565b600061162983836040518060400160405280601a81526020017f536166654d6174683a206469766973696f6e206279207a65726f000000000000815250611855565b905092915050565b61163a816118b6565b600060608273ffffffffffffffffffffffffffffffffffffffff166040516024016040516020818303038152906040527f8129fc1c000000000000000000000000000000000000000000000000000000007bffffffffffffffffffffffffffffffffffffffffffffffffffffffff19166020820180517bffffffffffffffffffffffffffffffffffffffffffffffffffffffff83818316178352505050506040516116e59190611db6565b600060405180830381855af49150503d8060008114611720576040519150601f19603f3d011682016040523d82523d6000602084013e611725565b606091505b509150915081819061176d576040517f08c379a00000000000000000000000000000000000000000000000000000000081526004016117649190611e8a565b60405180910390fd5b508273ffffffffffffffffffffffffffffffffffffffff167fbc7cd75a20ee27fd9adebab32041f755214dbc6bffa90cc0225b39da2e5c2d3b60405160405180910390a2505050565b600080828401905083811015611801576040517f08c379a00000000000000000000000000000000000000000000000000000000081526004016117f890611eac565b60405180910390fd5b8091505092915050565b600061184d83836040518060400160405280601e81526020017f536166654d6174683a207375627472616374696f6e206f766572666c6f77000081525061192d565b905092915050565b6000808311829061189c576040517f08c379a00000000000000000000000000000000000000000000000000000000081526004016118939190611e8a565b60405180910390fd5b5060008385816118a857fe5b049050809150509392505050565b6118bf81611988565b6118fe576040517f08c379a00000000000000000000000000000000000000000000000000000000081526004016118f590611eec565b60405180910390fd5b60007f360894a13ba1a3210667c828492db98dca3e2076cc3735a920a3ca505d382bbc60001b90508181555050565b6000838311158290611975576040517f08c379a000000000000000000000000000000000000000000000000000000000815260040161196c9190611e8a565b60405180910390fd5b5060008385039050809150509392505050565b600080823b905060008111915050919050565b60405180606001604052806000815260200160008152602001600081525090565b6000813590506119cb8161210b565b92915050565b6000813590506119e081612122565b92915050565b6000815190506119f581612122565b92915050565b600060208284031215611a0d57600080fd5b6000611a1b848285016119bc565b91505092915050565b60008060408385031215611a3757600080fd5b6000611a45858286016119bc565b9250506020611a56858286016119bc565b9150509250929050565b600080600060608486031215611a7557600080fd5b6000611a83868287016119bc565b9350506020611a94868287016119bc565b9250506040611aa5868287016119d1565b9150509250925092565b60008060408385031215611ac257600080fd5b6000611ad0858286016119bc565b9250506020611ae1858286016119d1565b9150509250929050565b600060208284031215611afd57600080fd5b6000611b0b848285016119d1565b91505092915050565b600060208284031215611b2657600080fd5b6000611b34848285016119e6565b91505092915050565b60008060408385031215611b5057600080fd5b6000611b5e858286016119d1565b9250506020611b6f858286016119d1565b9150509250929050565b611b8281611f94565b82525050565b611b9181611fa6565b82525050565b6000611ba282611f62565b611bac8185611f78565b9350611bbc8185602086016120a0565b80840191505092915050565b611bd181612022565b82525050565b611be081612046565b82525050565b611bef8161206a565b82525050565b611bfe8161207c565b82525050565b611c0d8161208e565b82525050565b6000611c1e82611f6d565b611c288185611f83565b9350611c388185602086016120a0565b611c41816120d3565b840191505092915050565b6000611c59601b83611f83565b91507f536166654d6174683a206164646974696f6e206f766572666c6f7700000000006000830152602082019050919050565b6000611c99602183611f83565b91507f536166654d6174683a206d756c7469706c69636174696f6e206f766572666c6f60008301527f77000000000000000000000000000000000000000000000000000000000000006020830152604082019050919050565b6000611cff603b83611f83565b91507f43616e6e6f742073657420612070726f787920696d706c656d656e746174696f60008301527f6e20746f2061206e6f6e2d636f6e7472616374206164647265737300000000006020830152604082019050919050565b6000611d65600f83611f83565b91507f53686f756c64206e6f742063616c6c00000000000000000000000000000000006000830152602082019050919050565b611da18161200b565b82525050565b611db081612015565b82525050565b6000611dc28284611b97565b915081905092915050565b6000602082019050611de26000830184611b79565b92915050565b6000602082019050611dfd6000830184611b88565b92915050565b6000602082019050611e186000830184611bc8565b92915050565b6000602082019050611e336000830184611bd7565b92915050565b6000602082019050611e4e6000830184611be6565b92915050565b6000602082019050611e696000830184611bf5565b92915050565b6000602082019050611e846000830184611c04565b92915050565b60006020820190508181036000830152611ea48184611c13565b905092915050565b60006020820190508181036000830152611ec581611c4c565b9050919050565b60006020820190508181036000830152611ee581611c8c565b9050919050565b60006020820190508181036000830152611f0581611cf2565b9050919050565b60006020820190508181036000830152611f2581611d58565b9050919050565b6000602082019050611f416000830184611d98565b92915050565b6000602082019050611f5c6000830184611da7565b92915050565b600081519050919050565b600081519050919050565b600081905092915050565b600082825260208201905092915050565b6000611f9f82611feb565b9050919050565b60008115159050919050565b6000819050611fc0826120e4565b919050565b6000819050611fd3826120f1565b919050565b6000819050611fe6826120fe565b919050565b600073ffffffffffffffffffffffffffffffffffffffff82169050919050565b6000819050919050565b600060ff82169050919050565b600061202d82612034565b9050919050565b600061203f82611feb565b9050919050565b600061205182612058565b9050919050565b600061206382611feb565b9050919050565b600061207582611fb2565b9050919050565b600061208782611fc5565b9050919050565b600061209982611fd8565b9050919050565b60005b838110156120be5780820151818401526020810190506120a3565b838111156120cd576000848401525b50505050565b6000601f19601f8301169050919050565b600381106120ee57fe5b50565b600281106120fb57fe5b50565b6003811061210857fe5b50565b61211481611f94565b811461211f57600080fd5b50565b61212b8161200b565b811461213657600080fd5b5056fea365627a7a723158203a1d0bbe6d2254d3e55af1cefff68a6cf0ddca8e699b8b87c0003cc844e9df696c6578706572696d656e74616cf564736f6c63430005110040",
  "source": "/*\n    Copyright 2020 Empty Set Squad <emptysetsquad@protonmail.com>\n\n    Licensed under the Apache License, Version 2.0 (the \"License\");\n    you may not use this file except in compliance with the License.\n    You may obtain a copy of the License at\n\n    http://www.apache.org/licenses/LICENSE-2.0\n\n    Unless required by applicable law or agreed to in writing, software\n    distributed under the License is distributed on an \"AS IS\" BASIS,\n    WITHOUT WARRANTIES OR CONDITIONS OF ANY KIND, either express or implied.\n    See the License for the specific language governing permissions and\n    limitations under the License.\n*/\n\npragma solidity ^0.5.17;\npragma experimental ABIEncoderV2;\n\nimport \"../dao/Upgradeable.sol\";\nimport \"../dao/Permission.sol\";\n\ncontract MockUpgradeable is Upgradeable, Permission {\n    constructor () public { }\n\n    function initialize() public {\n        revert(\"Should not call\");\n    }\n\n    function upgradeToE(address newImplementation) external {\n        super.upgradeTo(newImplementation);\n    }\n}\n",
  "sourcePath": "/Users/gokulalex/Apps/eth_apps/SemiotNet/contracts/mock/MockUpgradeable.sol",
  "compiler": {
    "name": "solc",
    "version": "0.5.17+commit.d19bba13.Emscripten.clang"
  },
  "schemaVersion": "3.3.3",
  "updatedAt": "2021-02-19T15:49:23.732Z",
  "devdoc": {
    "methods": {}
  },
  "userdoc": {
    "methods": {
      "balanceOfStaged(address)": {
        "notice": "Account"
      },
      "dollar()": {
        "notice": "Global"
      },
      "epoch()": {
        "notice": "Epoch"
      },
      "name()": {
        "notice": "ERC20 Interface"
      },
      "recordedVote(address,address)": {
        "notice": "Governance"
      },
      "transfer(address,uint256)": {
        "notice": "ERC20 Interface"
      }
    }
  }
}