{
  "contractName": "MockImplA",
  "abi": [
    {
      "inputs": [],
      "payable": false,
      "stateMutability": "nonpayable",
      "type": "constructor"
    },
    {
      "anonymous": false,
      "inputs": [],
      "name": "MockInitializedA",
      "type": "event"
    },
    {
      "anonymous": false,
      "inputs": [
        {
          "indexed": true,
          "internalType": "address",
          "name": "from",
          "type": "address"
        },
        {
          "indexed": true,
          "internalType": "address",
          "name": "to",
          "type": "address"
        },
        {
          "indexed": false,
          "internalType": "uint256",
          "name": "value",
          "type": "uint256"
        }
      ],
      "name": "Transfer",
      "type": "event"
    },
    {
      "anonymous": false,
      "inputs": [
        {
          "indexed": true,
          "internalType": "address",
          "name": "implementation",
          "type": "address"
        }
      ],
      "name": "Upgraded",
      "type": "event"
    },
    {
      "constant": true,
      "inputs": [
        {
          "internalType": "address",
          "name": "owner",
          "type": "address"
        },
        {
          "internalType": "address",
          "name": "spender",
          "type": "address"
        }
      ],
      "name": "allowance",
      "outputs": [
        {
          "internalType": "uint256",
          "name": "",
          "type": "uint256"
        }
      ],
      "payable": false,
      "stateMutability": "view",
      "type": "function"
    },
    {
      "constant": true,
      "inputs": [
        {
          "internalType": "address",
          "name": "owner",
          "type": "address"
        },
        {
          "internalType": "address",
          "name": "spender",
          "type": "address"
        }
      ],
      "name": "allowanceCoupons",
      "outputs": [
        {
          "internalType": "uint256",
          "name": "",
          "type": "uint256"
        }
      ],
      "payable": false,
      "stateMutability": "view",
      "type": "function"
    },
    {
      "constant": false,
      "inputs": [
        {
          "internalType": "address",
          "name": "spender",
          "type": "address"
        },
        {
          "internalType": "uint256",
          "name": "amount",
          "type": "uint256"
        }
      ],
      "name": "approve",
      "outputs": [
        {
          "internalType": "bool",
          "name": "",
          "type": "bool"
        }
      ],
      "payable": false,
      "stateMutability": "nonpayable",
      "type": "function"
    },
    {
      "constant": true,
      "inputs": [
        {
          "internalType": "address",
          "name": "candidate",
          "type": "address"
        }
      ],
      "name": "approveFor",
      "outputs": [
        {
          "internalType": "uint256",
          "name": "",
          "type": "uint256"
        }
      ],
      "payable": false,
      "stateMutability": "view",
      "type": "function"
    },
    {
      "constant": true,
      "inputs": [
        {
          "internalType": "address",
          "name": "account",
          "type": "address"
        }
      ],
      "name": "balanceOf",
      "outputs": [
        {
          "internalType": "uint256",
          "name": "",
          "type": "uint256"
        }
      ],
      "payable": false,
      "stateMutability": "view",
      "type": "function"
    },
    {
      "constant": true,
      "inputs": [
        {
          "internalType": "address",
          "name": "account",
          "type": "address"
        }
      ],
      "name": "balanceOfBonded",
      "outputs": [
        {
          "internalType": "uint256",
          "name": "",
          "type": "uint256"
        }
      ],
      "payable": false,
      "stateMutability": "view",
      "type": "function"
    },
    {
      "constant": true,
      "inputs": [
        {
          "internalType": "address",
          "name": "account",
          "type": "address"
        },
        {
          "internalType": "uint256",
          "name": "epoch",
          "type": "uint256"
        }
      ],
      "name": "balanceOfCouponUnderlying",
      "outputs": [
        {
          "internalType": "uint256",
          "name": "",
          "type": "uint256"
        }
      ],
      "payable": false,
      "stateMutability": "view",
      "type": "function"
    },
    {
      "constant": true,
      "inputs": [
        {
          "internalType": "address",
          "name": "account",
          "type": "address"
        },
        {
          "internalType": "uint256",
          "name": "epoch",
          "type": "uint256"
        }
      ],
      "name": "balanceOfCoupons",
      "outputs": [
        {
          "internalType": "uint256",
          "name": "",
          "type": "uint256"
        }
      ],
      "payable": false,
      "stateMutability": "view",
      "type": "function"
    },
    {
      "constant": true,
      "inputs": [
        {
          "internalType": "address",
          "name": "account",
          "type": "address"
        }
      ],
      "name": "balanceOfStaged",
      "outputs": [
        {
          "internalType": "uint256",
          "name": "",
          "type": "uint256"
        }
      ],
      "payable": false,
      "stateMutability": "view",
      "type": "function"
    },
    {
      "constant": true,
      "inputs": [
        {
          "internalType": "uint256",
          "name": "epoch",
          "type": "uint256"
        }
      ],
      "name": "bootstrappingAt",
      "outputs": [
        {
          "internalType": "bool",
          "name": "",
          "type": "bool"
        }
      ],
      "payable": false,
      "stateMutability": "view",
      "type": "function"
    },
    {
      "constant": true,
      "inputs": [
        {
          "internalType": "uint256",
          "name": "epoch",
          "type": "uint256"
        }
      ],
      "name": "couponsExpiration",
      "outputs": [
        {
          "internalType": "uint256",
          "name": "",
          "type": "uint256"
        }
      ],
      "payable": false,
      "stateMutability": "view",
      "type": "function"
    },
    {
      "constant": true,
      "inputs": [],
      "name": "decimals",
      "outputs": [
        {
          "internalType": "uint8",
          "name": "",
          "type": "uint8"
        }
      ],
      "payable": false,
      "stateMutability": "view",
      "type": "function"
    },
    {
      "constant": true,
      "inputs": [],
      "name": "dollar",
      "outputs": [
        {
          "internalType": "contract IDollar",
          "name": "",
          "type": "address"
        }
      ],
      "payable": false,
      "stateMutability": "view",
      "type": "function"
    },
    {
      "constant": true,
      "inputs": [],
      "name": "epoch",
      "outputs": [
        {
          "internalType": "uint256",
          "name": "",
          "type": "uint256"
        }
      ],
      "payable": false,
      "stateMutability": "view",
      "type": "function"
    },
    {
      "constant": true,
      "inputs": [],
      "name": "epochTime",
      "outputs": [
        {
          "internalType": "uint256",
          "name": "",
          "type": "uint256"
        }
      ],
      "payable": false,
      "stateMutability": "view",
      "type": "function"
    },
    {
      "constant": true,
      "inputs": [],
      "name": "eraStart",
      "outputs": [
        {
          "internalType": "uint256",
          "name": "",
          "type": "uint256"
        }
      ],
      "payable": false,
      "stateMutability": "view",
      "type": "function"
    },
    {
      "constant": true,
      "inputs": [],
      "name": "eraStatus",
      "outputs": [
        {
          "internalType": "enum Era.Status",
          "name": "",
          "type": "uint8"
        }
      ],
      "payable": false,
      "stateMutability": "view",
      "type": "function"
    },
    {
      "constant": true,
      "inputs": [
        {
          "internalType": "uint256",
          "name": "epoch",
          "type": "uint256"
        }
      ],
      "name": "expiringCoupons",
      "outputs": [
        {
          "internalType": "uint256",
          "name": "",
          "type": "uint256"
        }
      ],
      "payable": false,
      "stateMutability": "view",
      "type": "function"
    },
    {
      "constant": true,
      "inputs": [
        {
          "internalType": "uint256",
          "name": "epoch",
          "type": "uint256"
        },
        {
          "internalType": "uint256",
          "name": "i",
          "type": "uint256"
        }
      ],
      "name": "expiringCouponsAtIndex",
      "outputs": [
        {
          "internalType": "uint256",
          "name": "",
          "type": "uint256"
        }
      ],
      "payable": false,
      "stateMutability": "view",
      "type": "function"
    },
    {
      "constant": true,
      "inputs": [
        {
          "internalType": "address",
          "name": "account",
          "type": "address"
        }
      ],
      "name": "fluidUntil",
      "outputs": [
        {
          "internalType": "uint256",
          "name": "",
          "type": "uint256"
        }
      ],
      "payable": false,
      "stateMutability": "view",
      "type": "function"
    },
    {
      "constant": true,
      "inputs": [],
      "name": "implementation",
      "outputs": [
        {
          "internalType": "address",
          "name": "impl",
          "type": "address"
        }
      ],
      "payable": false,
      "stateMutability": "view",
      "type": "function"
    },
    {
      "constant": true,
      "inputs": [
        {
          "internalType": "address",
          "name": "candidate",
          "type": "address"
        }
      ],
      "name": "isInitialized",
      "outputs": [
        {
          "internalType": "bool",
          "name": "",
          "type": "bool"
        }
      ],
      "payable": false,
      "stateMutability": "view",
      "type": "function"
    },
    {
      "constant": true,
      "inputs": [
        {
          "internalType": "address",
          "name": "candidate",
          "type": "address"
        }
      ],
      "name": "isNominated",
      "outputs": [
        {
          "internalType": "bool",
          "name": "",
          "type": "bool"
        }
      ],
      "payable": false,
      "stateMutability": "view",
      "type": "function"
    },
    {
      "constant": true,
      "inputs": [
        {
          "internalType": "address",
          "name": "account",
          "type": "address"
        }
      ],
      "name": "lockedUntil",
      "outputs": [
        {
          "internalType": "uint256",
          "name": "",
          "type": "uint256"
        }
      ],
      "payable": false,
      "stateMutability": "view",
      "type": "function"
    },
    {
      "constant": true,
      "inputs": [],
      "name": "name",
      "outputs": [
        {
          "internalType": "string",
          "name": "",
          "type": "string"
        }
      ],
      "payable": false,
      "stateMutability": "view",
      "type": "function"
    },
    {
      "constant": true,
      "inputs": [],
      "name": "oracle",
      "outputs": [
        {
          "internalType": "contract IOracle",
          "name": "",
          "type": "address"
        }
      ],
      "payable": false,
      "stateMutability": "view",
      "type": "function"
    },
    {
      "constant": true,
      "inputs": [
        {
          "internalType": "uint256",
          "name": "epoch",
          "type": "uint256"
        }
      ],
      "name": "outstandingCoupons",
      "outputs": [
        {
          "internalType": "uint256",
          "name": "",
          "type": "uint256"
        }
      ],
      "payable": false,
      "stateMutability": "view",
      "type": "function"
    },
    {
      "constant": true,
      "inputs": [
        {
          "internalType": "address",
          "name": "candidate",
          "type": "address"
        }
      ],
      "name": "periodFor",
      "outputs": [
        {
          "internalType": "uint256",
          "name": "",
          "type": "uint256"
        }
      ],
      "payable": false,
      "stateMutability": "view",
      "type": "function"
    },
    {
      "constant": true,
      "inputs": [],
      "name": "pool",
      "outputs": [
        {
          "internalType": "address",
          "name": "",
          "type": "address"
        }
      ],
      "payable": false,
      "stateMutability": "view",
      "type": "function"
    },
    {
      "constant": true,
      "inputs": [
        {
          "internalType": "address",
          "name": "account",
          "type": "address"
        },
        {
          "internalType": "address",
          "name": "candidate",
          "type": "address"
        }
      ],
      "name": "recordedVote",
      "outputs": [
        {
          "internalType": "enum Candidate.Vote",
          "name": "",
          "type": "uint8"
        }
      ],
      "payable": false,
      "stateMutability": "view",
      "type": "function"
    },
    {
      "constant": true,
      "inputs": [
        {
          "internalType": "address",
          "name": "candidate",
          "type": "address"
        }
      ],
      "name": "rejectFor",
      "outputs": [
        {
          "internalType": "uint256",
          "name": "",
          "type": "uint256"
        }
      ],
      "payable": false,
      "stateMutability": "view",
      "type": "function"
    },
    {
      "constant": true,
      "inputs": [
        {
          "internalType": "address",
          "name": "candidate",
          "type": "address"
        }
      ],
      "name": "startFor",
      "outputs": [
        {
          "internalType": "uint256",
          "name": "",
          "type": "uint256"
        }
      ],
      "payable": false,
      "stateMutability": "view",
      "type": "function"
    },
    {
      "constant": true,
      "inputs": [
        {
          "internalType": "address",
          "name": "account",
          "type": "address"
        }
      ],
      "name": "statusOf",
      "outputs": [
        {
          "internalType": "enum Account.Status",
          "name": "",
          "type": "uint8"
        }
      ],
      "payable": false,
      "stateMutability": "view",
      "type": "function"
    },
    {
      "constant": true,
      "inputs": [],
      "name": "symbol",
      "outputs": [
        {
          "internalType": "string",
          "name": "",
          "type": "string"
        }
      ],
      "payable": false,
      "stateMutability": "view",
      "type": "function"
    },
    {
      "constant": true,
      "inputs": [],
      "name": "totalBonded",
      "outputs": [
        {
          "internalType": "uint256",
          "name": "",
          "type": "uint256"
        }
      ],
      "payable": false,
      "stateMutability": "view",
      "type": "function"
    },
    {
      "constant": true,
      "inputs": [
        {
          "internalType": "uint256",
          "name": "epoch",
          "type": "uint256"
        }
      ],
      "name": "totalBondedAt",
      "outputs": [
        {
          "internalType": "uint256",
          "name": "",
          "type": "uint256"
        }
      ],
      "payable": false,
      "stateMutability": "view",
      "type": "function"
    },
    {
      "constant": true,
      "inputs": [],
      "name": "totalCouponUnderlying",
      "outputs": [
        {
          "internalType": "uint256",
          "name": "",
          "type": "uint256"
        }
      ],
      "payable": false,
      "stateMutability": "view",
      "type": "function"
    },
    {
      "constant": true,
      "inputs": [],
      "name": "totalCoupons",
      "outputs": [
        {
          "internalType": "uint256",
          "name": "",
          "type": "uint256"
        }
      ],
      "payable": false,
      "stateMutability": "view",
      "type": "function"
    },
    {
      "constant": true,
      "inputs": [],
      "name": "totalDebt",
      "outputs": [
        {
          "internalType": "uint256",
          "name": "",
          "type": "uint256"
        }
      ],
      "payable": false,
      "stateMutability": "view",
      "type": "function"
    },
    {
      "constant": true,
      "inputs": [],
      "name": "totalNet",
      "outputs": [
        {
          "internalType": "uint256",
          "name": "",
          "type": "uint256"
        }
      ],
      "payable": false,
      "stateMutability": "view",
      "type": "function"
    },
    {
      "constant": true,
      "inputs": [],
      "name": "totalRedeemable",
      "outputs": [
        {
          "internalType": "uint256",
          "name": "",
          "type": "uint256"
        }
      ],
      "payable": false,
      "stateMutability": "view",
      "type": "function"
    },
    {
      "constant": true,
      "inputs": [],
      "name": "totalStaged",
      "outputs": [
        {
          "internalType": "uint256",
          "name": "",
          "type": "uint256"
        }
      ],
      "payable": false,
      "stateMutability": "view",
      "type": "function"
    },
    {
      "constant": true,
      "inputs": [],
      "name": "totalSupply",
      "outputs": [
        {
          "internalType": "uint256",
          "name": "",
          "type": "uint256"
        }
      ],
      "payable": false,
      "stateMutability": "view",
      "type": "function"
    },
    {
      "constant": false,
      "inputs": [
        {
          "internalType": "address",
          "name": "recipient",
          "type": "address"
        },
        {
          "internalType": "uint256",
          "name": "amount",
          "type": "uint256"
        }
      ],
      "name": "transfer",
      "outputs": [
        {
          "internalType": "bool",
          "name": "",
          "type": "bool"
        }
      ],
      "payable": false,
      "stateMutability": "nonpayable",
      "type": "function"
    },
    {
      "constant": false,
      "inputs": [
        {
          "internalType": "address",
          "name": "sender",
          "type": "address"
        },
        {
          "internalType": "address",
          "name": "recipient",
          "type": "address"
        },
        {
          "internalType": "uint256",
          "name": "amount",
          "type": "uint256"
        }
      ],
      "name": "transferFrom",
      "outputs": [
        {
          "internalType": "bool",
          "name": "",
          "type": "bool"
        }
      ],
      "payable": false,
      "stateMutability": "nonpayable",
      "type": "function"
    },
    {
      "constant": true,
      "inputs": [
        {
          "internalType": "address",
          "name": "candidate",
          "type": "address"
        }
      ],
      "name": "votesFor",
      "outputs": [
        {
          "internalType": "uint256",
          "name": "",
          "type": "uint256"
        }
      ],
      "payable": false,
      "stateMutability": "view",
      "type": "function"
    },
    {
      "constant": false,
      "inputs": [],
      "name": "initialize",
      "outputs": [],
      "payable": false,
      "stateMutability": "nonpayable",
      "type": "function"
    },
    {
      "constant": false,
      "inputs": [
        {
          "internalType": "address",
          "name": "newImplementation",
          "type": "address"
        }
      ],
      "name": "upgradeToE",
      "outputs": [],
      "payable": false,
      "stateMutability": "nonpayable",
      "type": "function"
    }
  ],
  "bytecode": "0x608060405234801561001057600080fd5b506123fd806100206000396000f3fe608060405234801561001057600080fd5b50600436106102a05760003560e01c80637dc0d1d011610167578063a6c409f1116100ce578063d60b347f11610087578063d60b347f14610919578063dd62ed3e14610949578063edb6b80a14610979578063f1b7cf4914610997578063fc7b9c18146109c7578063ffbe3b73146109e5576102a0565b8063a6c409f11461082f578063a9059cbb1461084d578063b739a7b81461087d578063bc7513e21461089b578063c9aff70c146108cb578063cf023779146108fb576102a0565b806395d89b411161012057806395d89b411461073357806397a5d5b5146107515780639a649edc146107815780639bc289f11461079f5780639f6e1b26146107cf578063a50cd8e7146107ff576102a0565b80637dc0d1d0146106715780638129fc1c1461068f578063825ad6071461069957806386cf9f14146106c95780638a558b04146106f9578063900cf0cf14610715576102a0565b80633fbba9a61161020b57806351bf21d8116101c457806351bf21d8146105635780635c60da1b1461059357806364668022146105b15780636a39e328146105e157806370a082311461061157806375d5024b14610641576102a0565b80633fbba9a61461048b5780634303d4f7146104bb57806344d96e95146104d95780634c736099146104f75780635053e4611461052757806351adeb5714610545576102a0565b806318160ddd1161025d57806318160ddd146103a15780631edbcf6c146103bf57806323b872dd146103dd578063313ce5671461040d578063353a420c1461042b5780633a3e6c811461045b576102a0565b806306fdde03146102a5578063095ea7b3146102c35780630d78ceb4146102f357806310e95b6c1461032357806315e14bf61461035357806316f0115b14610383575b600080fd5b6102ad610a15565b6040516102ba91906120e1565b60405180910390f35b6102dd60048036036102d89190810190611cc8565b610a52565b6040516102ea919061203f565b60405180910390f35b61030d60048036036103089190810190611cc8565b610a5d565b60405161031a9190612163565b60405180910390f35b61033d60048036036103389190810190611d04565b610abb565b60405161034a9190612163565b60405180910390f35b61036d60048036036103689190810190611c14565b610ae0565b60405161037a9190612163565b60405180910390f35b61038b610b2e565b6040516103989190612024565b60405180910390f35b6103a9610b5d565b6040516103b69190612163565b60405180910390f35b6103c7610b6c565b6040516103d49190612163565b60405180910390f35b6103f760048036036103f29190810190611c79565b610b7b565b604051610404919061203f565b60405180910390f35b610415610b87565b604051610422919061217e565b60405180910390f35b61044560048036036104409190810190611c14565b610b90565b6040516104529190612163565b60405180910390f35b61047560048036036104709190810190611c14565b610bde565b604051610482919061203f565b60405180910390f35b6104a560048036036104a09190810190611c3d565b610c2f565b6040516104b291906120c6565b60405180910390f35b6104c3610cc8565b6040516104d09190612163565b60405180910390f35b6104e1610cd5565b6040516104ee9190612163565b60405180910390f35b610511600480360361050c9190810190611d56565b610ce4565b60405161051e9190612163565b60405180910390f35b61052f610d1f565b60405161053c9190612163565b60405180910390f35b61054d610d76565b60405161055a919061205a565b60405180910390f35b61057d60048036036105789190810190611c14565b610da5565b60405161058a9190612163565b60405180910390f35b61059b610df3565b6040516105a89190612024565b60405180910390f35b6105cb60048036036105c69190810190611c14565b610e24565b6040516105d89190612163565b60405180910390f35b6105fb60048036036105f69190810190611d04565b610e72565b6040516106089190612163565b60405180910390f35b61062b60048036036106269190810190611c14565b610e9a565b6040516106389190612163565b60405180910390f35b61065b60048036036106569190810190611d04565b610ee8565b604051610668919061203f565b60405180910390f35b610679610efc565b6040516106869190612075565b60405180910390f35b610697610f2b565b005b6106b360048036036106ae9190810190611c14565b610fc4565b6040516106c09190612163565b60405180910390f35b6106e360048036036106de9190810190611c14565b611021565b6040516106f09190612163565b60405180910390f35b610713600480360361070e9190810190611c14565b61106f565b005b61071d61107b565b60405161072a9190612163565b60405180910390f35b61073b61108a565b60405161074891906120e1565b60405180910390f35b61076b60048036036107669190810190611c14565b6110c7565b6040516107789190612090565b60405180910390f35b61078961118c565b6040516107969190612163565b60405180910390f35b6107b960048036036107b49190810190611c14565b61119b565b6040516107c69190612163565b60405180910390f35b6107e960048036036107e49190810190611c3d565b6111e9565b6040516107f69190612163565b60405180910390f35b61081960048036036108149190810190611c14565b611275565b6040516108269190612163565b60405180910390f35b6108376112a1565b6040516108449190612163565b60405180910390f35b61086760048036036108629190810190611cc8565b611346565b604051610874919061203f565b60405180910390f35b610885611351565b6040516108929190612163565b60405180910390f35b6108b560048036036108b09190810190611cc8565b611361565b6040516108c29190612163565b60405180910390f35b6108e560048036036108e09190810190611d04565b6113dc565b6040516108f29190612163565b60405180910390f35b610903611401565b6040516109109190612163565b60405180910390f35b610933600480360361092e9190810190611c14565b611410565b604051610940919061203f565b60405180910390f35b610963600480360361095e9190810190611c3d565b61146b565b6040516109709190612163565b60405180910390f35b610981611476565b60405161098e91906120ab565b60405180910390f35b6109b160048036036109ac9190810190611c14565b611493565b6040516109be9190612163565b60405180910390f35b6109cf6114e1565b6040516109dc9190612163565b60405180910390f35b6109ff60048036036109fa9190810190611d04565b6114f0565b604051610a0c9190612163565b60405180910390f35b60606040518060400160405280601681526020017f456d7074792053657420446f6c6c6172205374616b6500000000000000000000815250905090565b600080905092915050565b6000600f60000160008473ffffffffffffffffffffffffffffffffffffffff1673ffffffffffffffffffffffffffffffffffffffff168152602001908152602001600020600083815260200190815260200160002054905092915050565b600080600d016000838152602001908152602001600020600101600101549050919050565b600080600e0160008373ffffffffffffffffffffffffffffffffffffffff1673ffffffffffffffffffffffffffffffffffffffff168152602001908152602001600020600101549050919050565b60008060090160020160009054906101000a900473ffffffffffffffffffffffffffffffffffffffff16905090565b60008060030160000154905090565b60008060030160030154905090565b60008090509392505050565b60006012905090565b600080600e0160008373ffffffffffffffffffffffffffffffffffffffff1673ffffffffffffffffffffffffffffffffffffffff168152602001908152602001600020600301549050919050565b6000806000600e0160008473ffffffffffffffffffffffffffffffffffffffff1673ffffffffffffffffffffffffffffffffffffffff16815260200190815260200160002060000154119050919050565b600080600e0160008373ffffffffffffffffffffffffffffffffffffffff1673ffffffffffffffffffffffffffffffffffffffff16815260200190815260200160002060040160008473ffffffffffffffffffffffffffffffffffffffff1673ffffffffffffffffffffffffffffffffffffffff16815260200190815260200160002060009054906101000a900460ff16905092915050565b6000600f60010154905090565b60008060030160010154905090565b600080600d0160008481526020019081526020016000206001016002018281548110610d0c57fe5b9060005260206000200154905092915050565b6000610d29611bb4565b610d31611512565b9050610d3b611bb4565b610d43611541565b90508160200151610d52611571565b10610d6557610d6082611579565b610d6f565b610d6e81611579565b5b9250505090565b60008060090160000160009054906101000a900473ffffffffffffffffffffffffffffffffffffffff16905090565b600080600c0160008373ffffffffffffffffffffffffffffffffffffffff1673ffffffffffffffffffffffffffffffffffffffff168152602001908152602001600020600401549050919050565b6000807f360894a13ba1a3210667c828492db98dca3e2076cc3735a920a3ca505d382bbc60001b9050805491505090565b600080600e0160008373ffffffffffffffffffffffffffffffffffffffff1673ffffffffffffffffffffffffffffffffffffffff168152602001908152602001600020600201549050919050565b600080600d016000838152602001908152602001600020600101600201805490509050919050565b600080600c0160008373ffffffffffffffffffffffffffffffffffffffff1673ffffffffffffffffffffffffffffffffffffffff168152602001908152602001600020600101549050919050565b6000610ef26115cc565b8211159050919050565b60008060090160010160009054906101000a900473ffffffffffffffffffffffffffffffffffffffff16905090565b610f86610f3e610f39610df3565b611410565b157f5065726d697373696f6e000000000000000000000000000000000000000000007f416c726561647920696e697469616c697a6564000000000000000000000000006115d5565b610f96610f91610df3565b611654565b7f15aae1cca1fa5f7d8749e1779ff32c81ee14463e779a89d84a83659f6885550f60405160405180910390a1565b600080610fcf610b5d565b90506000811415610fe457600091505061101c565b6110188161100a610ff486610e9a565b610ffc610cd5565b6116b590919063ffffffff16565b61172590919063ffffffff16565b9150505b919050565b600080600c0160008373ffffffffffffffffffffffffffffffffffffffff1673ffffffffffffffffffffffffffffffffffffffff168152602001908152602001600020600001549050919050565b6110788161176f565b50565b60008060000160020154905090565b60606040518060400160405280600481526020017f4553445300000000000000000000000000000000000000000000000000000000815250905090565b60006110d161107b565b6000600c0160008473ffffffffffffffffffffffffffffffffffffffff1673ffffffffffffffffffffffffffffffffffffffff1681526020019081526020016000206005015411156111265760029050611187565b6000600c0160008373ffffffffffffffffffffffffffffffffffffffff1673ffffffffffffffffffffffffffffffffffffffff1681526020019081526020016000206004015461117461107b565b1015611181576001611184565b60005b90505b919050565b60008060030160050154905090565b600080600c0160008373ffffffffffffffffffffffffffffffffffffffff1673ffffffffffffffffffffffffffffffffffffffff168152602001908152602001600020600501549050919050565b600080600c0160008473ffffffffffffffffffffffffffffffffffffffff1673ffffffffffffffffffffffffffffffffffffffff16815260200190815260200160002060030160008373ffffffffffffffffffffffffffffffffffffffff1673ffffffffffffffffffffffffffffffffffffffff16815260200190815260200160002054905092915050565b600061129a61128383610b90565b61128c84610e24565b6118f490919063ffffffff16565b9050919050565b60006113416112ae6114e1565b6112b6610d76565b73ffffffffffffffffffffffffffffffffffffffff166318160ddd6040518163ffffffff1660e01b815260040160206040518083038186803b1580156112fb57600080fd5b505afa15801561130f573d6000803e3d6000fd5b505050506040513d601f19601f820116820180604052506113339190810190611d2d565b61194990919063ffffffff16565b905090565b600080905092915050565b6000601160000160010154905090565b60008061136d836113dc565b141561137c57600090506113d6565b6000600c0160008473ffffffffffffffffffffffffffffffffffffffff1673ffffffffffffffffffffffffffffffffffffffff16815260200190815260200160002060020160008381526020019081526020016000205490505b92915050565b600080600d016000838152602001908152602001600020600101600001549050919050565b60008060030160020154905090565b600080600e0160008373ffffffffffffffffffffffffffffffffffffffff1673ffffffffffffffffffffffffffffffffffffffff16815260200190815260200160002060050160009054906101000a900460ff169050919050565b600080905092915050565b6000601160000160000160009054906101000a900460ff16905090565b600080600e0160008373ffffffffffffffffffffffffffffffffffffffff1673ffffffffffffffffffffffffffffffffffffffff168152602001908152602001600020600001549050919050565b60008060030160040154905090565b600080600d016000838152602001908152602001600020600001549050919050565b61151a611bb4565b6040518060600160405280606a8152602001635f7fa8008152602001617080815250905090565b611549611bb4565b6040518060600160405280605b8152602001635f6be180815260200162015180815250905090565b600042905090565b60006115c582600001516115b784604001516115a9866020015161159b611571565b61194990919063ffffffff16565b61172590919063ffffffff16565b6118f490919063ffffffff16565b9050919050565b6000605a905090565b8261164f576115e382611993565b613a2060f01b6115f283611993565b60405160200161160493929190611fef565b6040516020818303038152906040526040517f08c379a000000000000000000000000000000000000000000000000000000000815260040161164691906120e1565b60405180910390fd5b505050565b60016000600e0160008373ffffffffffffffffffffffffffffffffffffffff1673ffffffffffffffffffffffffffffffffffffffff16815260200190815260200160002060050160006101000a81548160ff02191690831515021790555050565b6000808314156116c8576000905061171f565b60008284029050828482816116d957fe5b041461171a576040517f08c379a000000000000000000000000000000000000000000000000000000000815260040161171190612123565b60405180910390fd5b809150505b92915050565b600061176783836040518060400160405280601a81526020017f536166654d6174683a206469766973696f6e206279207a65726f000000000000815250611a6e565b905092915050565b61177881611acf565b600060608273ffffffffffffffffffffffffffffffffffffffff166040516024016040516020818303038152906040527f8129fc1c000000000000000000000000000000000000000000000000000000007bffffffffffffffffffffffffffffffffffffffffffffffffffffffff19166020820180517bffffffffffffffffffffffffffffffffffffffffffffffffffffffff83818316178352505050506040516118239190611fd8565b600060405180830381855af49150503d806000811461185e576040519150601f19603f3d011682016040523d82523d6000602084013e611863565b606091505b50915091508181906118ab576040517f08c379a00000000000000000000000000000000000000000000000000000000081526004016118a291906120e1565b60405180910390fd5b508273ffffffffffffffffffffffffffffffffffffffff167fbc7cd75a20ee27fd9adebab32041f755214dbc6bffa90cc0225b39da2e5c2d3b60405160405180910390a2505050565b60008082840190508381101561193f576040517f08c379a000000000000000000000000000000000000000000000000000000000815260040161193690612103565b60405180910390fd5b8091505092915050565b600061198b83836040518060400160405280601e81526020017f536166654d6174683a207375627472616374696f6e206f766572666c6f770000815250611b46565b905092915050565b606080826040516020016119a79190611fbd565b60405160208183030381529060405290506000602090505b6000811115611a2f57808060019003915050600060f81b8282815181106119e257fe5b602001015160f81c60f81b7effffffffffffffffffffffffffffffffffffffffffffffffffffffffffffff191614611a2a576000600182019050808352829350505050611a69565b6119bf565b5060006040519080825280601f01601f191660200182016040528015611a645781602001600182028038833980820191505090505b509150505b919050565b60008083118290611ab5576040517f08c379a0000000000000000000000000000000000000000000000000000000008152600401611aac91906120e1565b60405180910390fd5b506000838581611ac157fe5b049050809150509392505050565b611ad881611ba1565b611b17576040517f08c379a0000000000000000000000000000000000000000000000000000000008152600401611b0e90612143565b60405180910390fd5b60007f360894a13ba1a3210667c828492db98dca3e2076cc3735a920a3ca505d382bbc60001b90508181555050565b6000838311158290611b8e576040517f08c379a0000000000000000000000000000000000000000000000000000000008152600401611b8591906120e1565b60405180910390fd5b5060008385039050809150509392505050565b600080823b905060008111915050919050565b60405180606001604052806000815260200160008152602001600081525090565b600081359050611be48161238c565b92915050565b600081359050611bf9816123a3565b92915050565b600081519050611c0e816123a3565b92915050565b600060208284031215611c2657600080fd5b6000611c3484828501611bd5565b91505092915050565b60008060408385031215611c5057600080fd5b6000611c5e85828601611bd5565b9250506020611c6f85828601611bd5565b9150509250929050565b600080600060608486031215611c8e57600080fd5b6000611c9c86828701611bd5565b9350506020611cad86828701611bd5565b9250506040611cbe86828701611bea565b9150509250925092565b60008060408385031215611cdb57600080fd5b6000611ce985828601611bd5565b9250506020611cfa85828601611bea565b9150509250929050565b600060208284031215611d1657600080fd5b6000611d2484828501611bea565b91505092915050565b600060208284031215611d3f57600080fd5b6000611d4d84828501611bff565b91505092915050565b60008060408385031215611d6957600080fd5b6000611d7785828601611bea565b9250506020611d8885828601611bea565b9150509250929050565b611d9b816121cb565b82525050565b611daa816121dd565b82525050565b611dc1611dbc826121e9565b612340565b82525050565b611dd8611dd382612215565b61234a565b82525050565b6000611de982612199565b611df381856121af565b9350611e0381856020860161230d565b80840191505092915050565b611e188161228f565b82525050565b611e27816122b3565b82525050565b611e36816122d7565b82525050565b611e45816122e9565b82525050565b611e54816122fb565b82525050565b6000611e65826121a4565b611e6f81856121ba565b9350611e7f81856020860161230d565b611e8881612354565b840191505092915050565b6000611ea0601b836121ba565b91507f536166654d6174683a206164646974696f6e206f766572666c6f7700000000006000830152602082019050919050565b6000611ee06021836121ba565b91507f536166654d6174683a206d756c7469706c69636174696f6e206f766572666c6f60008301527f77000000000000000000000000000000000000000000000000000000000000006020830152604082019050919050565b6000611f46603b836121ba565b91507f43616e6e6f742073657420612070726f787920696d706c656d656e746174696f60008301527f6e20746f2061206e6f6e2d636f6e7472616374206164647265737300000000006020830152604082019050919050565b611fa881612278565b82525050565b611fb781612282565b82525050565b6000611fc98284611dc7565b60208201915081905092915050565b6000611fe48284611dde565b915081905092915050565b6000611ffb8286611dde565b91506120078285611db0565b6002820191506120178284611dde565b9150819050949350505050565b60006020820190506120396000830184611d92565b92915050565b60006020820190506120546000830184611da1565b92915050565b600060208201905061206f6000830184611e0f565b92915050565b600060208201905061208a6000830184611e1e565b92915050565b60006020820190506120a56000830184611e2d565b92915050565b60006020820190506120c06000830184611e3c565b92915050565b60006020820190506120db6000830184611e4b565b92915050565b600060208201905081810360008301526120fb8184611e5a565b905092915050565b6000602082019050818103600083015261211c81611e93565b9050919050565b6000602082019050818103600083015261213c81611ed3565b9050919050565b6000602082019050818103600083015261215c81611f39565b9050919050565b60006020820190506121786000830184611f9f565b92915050565b60006020820190506121936000830184611fae565b92915050565b600081519050919050565b600081519050919050565b600081905092915050565b600082825260208201905092915050565b60006121d682612258565b9050919050565b60008115159050919050565b60007fffff00000000000000000000000000000000000000000000000000000000000082169050919050565b6000819050919050565b600081905061222d82612365565b919050565b600081905061224082612372565b919050565b60008190506122538261237f565b919050565b600073ffffffffffffffffffffffffffffffffffffffff82169050919050565b6000819050919050565b600060ff82169050919050565b600061229a826122a1565b9050919050565b60006122ac82612258565b9050919050565b60006122be826122c5565b9050919050565b60006122d082612258565b9050919050565b60006122e28261221f565b9050919050565b60006122f482612232565b9050919050565b600061230682612245565b9050919050565b60005b8381101561232b578082015181840152602081019050612310565b8381111561233a576000848401525b50505050565b6000819050919050565b6000819050919050565b6000601f19601f8301169050919050565b6003811061236f57fe5b50565b6002811061237c57fe5b50565b6003811061238957fe5b50565b612395816121cb565b81146123a057600080fd5b50565b6123ac81612278565b81146123b757600080fd5b5056fea365627a7a7231582082e0204394c14dbdafabe6a62d26710204b45a2d5e8d418802aadcce8356b12d6c6578706572696d656e74616cf564736f6c63430005110040",
  "source": "/*\n    Copyright 2020 Empty Set Squad <emptysetsquad@protonmail.com>\n\n    Licensed under the Apache License, Version 2.0 (the \"License\");\n    you may not use this file except in compliance with the License.\n    You may obtain a copy of the License at\n\n    http://www.apache.org/licenses/LICENSE-2.0\n\n    Unless required by applicable law or agreed to in writing, software\n    distributed under the License is distributed on an \"AS IS\" BASIS,\n    WITHOUT WARRANTIES OR CONDITIONS OF ANY KIND, either express or implied.\n    See the License for the specific language governing permissions and\n    limitations under the License.\n*/\n\npragma solidity ^0.5.17;\npragma experimental ABIEncoderV2;\n\nimport \"../dao/Upgradeable.sol\";\nimport \"../dao/Permission.sol\";\n\ncontract MockImplA is Upgradeable, Permission {\n    constructor () public { }\n\n    event MockInitializedA();\n\n    function initialize() public initializer {\n        emit MockInitializedA();\n    }\n\n    function upgradeToE(address newImplementation) external {\n        super.upgradeTo(newImplementation);\n    }\n}\n",
  "sourcePath": "/Users/gokulalex/Apps/eth_apps/SemiotNet/contracts/mock/MockImplA.sol",
  "compiler": {
    "name": "solc",
    "version": "0.5.17+commit.d19bba13.Emscripten.clang"
  },
  "schemaVersion": "3.3.3",
  "updatedAt": "2021-02-19T15:49:23.649Z",
  "devdoc": {
    "methods": {}
  },
  "userdoc": {
    "methods": {
      "balanceOfStaged(address)": {
        "notice": "Account"
      },
      "dollar()": {
        "notice": "Global"
      },
      "epoch()": {
        "notice": "Epoch"
      },
      "name()": {
        "notice": "ERC20 Interface"
      },
      "recordedVote(address,address)": {
        "notice": "Governance"
      },
      "transfer(address,uint256)": {
        "notice": "ERC20 Interface"
      }
    }
  }
}