{
  "contractName": "MockStabilizer",
  "abi": [
    {
      "inputs": [
        {
          "internalType": "address",
          "name": "pool",
          "type": "address"
        }
      ],
      "payable": false,
      "stateMutability": "nonpayable",
      "type": "constructor"
    },
    {
      "anonymous": false,
      "inputs": [
        {
          "indexed": true,
          "internalType": "uint256",
          "name": "epoch",
          "type": "uint256"
        },
        {
          "indexed": false,
          "internalType": "uint256",
          "name": "rate",
          "type": "uint256"
        },
        {
          "indexed": false,
          "internalType": "uint256",
          "name": "amount",
          "type": "uint256"
        }
      ],
      "name": "StabilityReward",
      "type": "event"
    },
    {
      "anonymous": false,
      "inputs": [
        {
          "indexed": true,
          "internalType": "address",
          "name": "from",
          "type": "address"
        },
        {
          "indexed": true,
          "internalType": "address",
          "name": "to",
          "type": "address"
        },
        {
          "indexed": false,
          "internalType": "uint256",
          "name": "value",
          "type": "uint256"
        }
      ],
      "name": "Transfer",
      "type": "event"
    },
    {
      "constant": true,
      "inputs": [
        {
          "internalType": "address",
          "name": "owner",
          "type": "address"
        },
        {
          "internalType": "address",
          "name": "spender",
          "type": "address"
        }
      ],
      "name": "allowance",
      "outputs": [
        {
          "internalType": "uint256",
          "name": "",
          "type": "uint256"
        }
      ],
      "payable": false,
      "stateMutability": "view",
      "type": "function"
    },
    {
      "constant": true,
      "inputs": [
        {
          "internalType": "address",
          "name": "owner",
          "type": "address"
        },
        {
          "internalType": "address",
          "name": "spender",
          "type": "address"
        }
      ],
      "name": "allowanceCoupons",
      "outputs": [
        {
          "internalType": "uint256",
          "name": "",
          "type": "uint256"
        }
      ],
      "payable": false,
      "stateMutability": "view",
      "type": "function"
    },
    {
      "constant": false,
      "inputs": [
        {
          "internalType": "address",
          "name": "spender",
          "type": "address"
        },
        {
          "internalType": "uint256",
          "name": "amount",
          "type": "uint256"
        }
      ],
      "name": "approve",
      "outputs": [
        {
          "internalType": "bool",
          "name": "",
          "type": "bool"
        }
      ],
      "payable": false,
      "stateMutability": "nonpayable",
      "type": "function"
    },
    {
      "constant": true,
      "inputs": [
        {
          "internalType": "address",
          "name": "candidate",
          "type": "address"
        }
      ],
      "name": "approveFor",
      "outputs": [
        {
          "internalType": "uint256",
          "name": "",
          "type": "uint256"
        }
      ],
      "payable": false,
      "stateMutability": "view",
      "type": "function"
    },
    {
      "constant": true,
      "inputs": [
        {
          "internalType": "address",
          "name": "account",
          "type": "address"
        }
      ],
      "name": "balanceOf",
      "outputs": [
        {
          "internalType": "uint256",
          "name": "",
          "type": "uint256"
        }
      ],
      "payable": false,
      "stateMutability": "view",
      "type": "function"
    },
    {
      "constant": true,
      "inputs": [
        {
          "internalType": "address",
          "name": "account",
          "type": "address"
        }
      ],
      "name": "balanceOfBonded",
      "outputs": [
        {
          "internalType": "uint256",
          "name": "",
          "type": "uint256"
        }
      ],
      "payable": false,
      "stateMutability": "view",
      "type": "function"
    },
    {
      "constant": true,
      "inputs": [
        {
          "internalType": "address",
          "name": "account",
          "type": "address"
        },
        {
          "internalType": "uint256",
          "name": "epoch",
          "type": "uint256"
        }
      ],
      "name": "balanceOfCouponUnderlying",
      "outputs": [
        {
          "internalType": "uint256",
          "name": "",
          "type": "uint256"
        }
      ],
      "payable": false,
      "stateMutability": "view",
      "type": "function"
    },
    {
      "constant": true,
      "inputs": [
        {
          "internalType": "address",
          "name": "account",
          "type": "address"
        },
        {
          "internalType": "uint256",
          "name": "epoch",
          "type": "uint256"
        }
      ],
      "name": "balanceOfCoupons",
      "outputs": [
        {
          "internalType": "uint256",
          "name": "",
          "type": "uint256"
        }
      ],
      "payable": false,
      "stateMutability": "view",
      "type": "function"
    },
    {
      "constant": true,
      "inputs": [
        {
          "internalType": "address",
          "name": "account",
          "type": "address"
        }
      ],
      "name": "balanceOfStaged",
      "outputs": [
        {
          "internalType": "uint256",
          "name": "",
          "type": "uint256"
        }
      ],
      "payable": false,
      "stateMutability": "view",
      "type": "function"
    },
    {
      "constant": true,
      "inputs": [
        {
          "internalType": "uint256",
          "name": "epoch",
          "type": "uint256"
        }
      ],
      "name": "bootstrappingAt",
      "outputs": [
        {
          "internalType": "bool",
          "name": "",
          "type": "bool"
        }
      ],
      "payable": false,
      "stateMutability": "view",
      "type": "function"
    },
    {
      "constant": false,
      "inputs": [
        {
          "internalType": "address",
          "name": "account",
          "type": "address"
        },
        {
          "internalType": "uint256",
          "name": "amount",
          "type": "uint256"
        }
      ],
      "name": "burnFromAccountE",
      "outputs": [],
      "payable": false,
      "stateMutability": "nonpayable",
      "type": "function"
    },
    {
      "constant": false,
      "inputs": [
        {
          "internalType": "uint256",
          "name": "amount",
          "type": "uint256"
        }
      ],
      "name": "burnRedeemableE",
      "outputs": [],
      "payable": false,
      "stateMutability": "nonpayable",
      "type": "function"
    },
    {
      "constant": true,
      "inputs": [
        {
          "internalType": "uint256",
          "name": "epoch",
          "type": "uint256"
        }
      ],
      "name": "couponsExpiration",
      "outputs": [
        {
          "internalType": "uint256",
          "name": "",
          "type": "uint256"
        }
      ],
      "payable": false,
      "stateMutability": "view",
      "type": "function"
    },
    {
      "constant": false,
      "inputs": [
        {
          "internalType": "address",
          "name": "candidate",
          "type": "address"
        },
        {
          "internalType": "uint256",
          "name": "period",
          "type": "uint256"
        }
      ],
      "name": "createCandidateE",
      "outputs": [],
      "payable": false,
      "stateMutability": "nonpayable",
      "type": "function"
    },
    {
      "constant": true,
      "inputs": [],
      "name": "decimals",
      "outputs": [
        {
          "internalType": "uint8",
          "name": "",
          "type": "uint8"
        }
      ],
      "payable": false,
      "stateMutability": "view",
      "type": "function"
    },
    {
      "constant": false,
      "inputs": [
        {
          "internalType": "uint256",
          "name": "amount",
          "type": "uint256"
        }
      ],
      "name": "decreaseDebtE",
      "outputs": [],
      "payable": false,
      "stateMutability": "nonpayable",
      "type": "function"
    },
    {
      "constant": false,
      "inputs": [
        {
          "internalType": "address",
          "name": "owner",
          "type": "address"
        },
        {
          "internalType": "address",
          "name": "spender",
          "type": "address"
        },
        {
          "internalType": "uint256",
          "name": "amount",
          "type": "uint256"
        },
        {
          "internalType": "string",
          "name": "reason",
          "type": "string"
        }
      ],
      "name": "decrementAllowanceCouponsE",
      "outputs": [],
      "payable": false,
      "stateMutability": "nonpayable",
      "type": "function"
    },
    {
      "constant": false,
      "inputs": [
        {
          "internalType": "address",
          "name": "candidate",
          "type": "address"
        },
        {
          "internalType": "uint256",
          "name": "amount",
          "type": "uint256"
        },
        {
          "internalType": "string",
          "name": "reason",
          "type": "string"
        }
      ],
      "name": "decrementApproveForE",
      "outputs": [],
      "payable": false,
      "stateMutability": "nonpayable",
      "type": "function"
    },
    {
      "constant": false,
      "inputs": [
        {
          "internalType": "address",
          "name": "account",
          "type": "address"
        },
        {
          "internalType": "uint256",
          "name": "epoch",
          "type": "uint256"
        },
        {
          "internalType": "uint256",
          "name": "amount",
          "type": "uint256"
        },
        {
          "internalType": "string",
          "name": "reason",
          "type": "string"
        }
      ],
      "name": "decrementBalanceOfCouponUnderlyingE",
      "outputs": [],
      "payable": false,
      "stateMutability": "nonpayable",
      "type": "function"
    },
    {
      "constant": false,
      "inputs": [
        {
          "internalType": "address",
          "name": "account",
          "type": "address"
        },
        {
          "internalType": "uint256",
          "name": "epoch",
          "type": "uint256"
        },
        {
          "internalType": "uint256",
          "name": "amount",
          "type": "uint256"
        },
        {
          "internalType": "string",
          "name": "reason",
          "type": "string"
        }
      ],
      "name": "decrementBalanceOfCouponsE",
      "outputs": [],
      "payable": false,
      "stateMutability": "nonpayable",
      "type": "function"
    },
    {
      "constant": false,
      "inputs": [
        {
          "internalType": "address",
          "name": "account",
          "type": "address"
        },
        {
          "internalType": "uint256",
          "name": "amount",
          "type": "uint256"
        },
        {
          "internalType": "string",
          "name": "reason",
          "type": "string"
        }
      ],
      "name": "decrementBalanceOfE",
      "outputs": [],
      "payable": false,
      "stateMutability": "nonpayable",
      "type": "function"
    },
    {
      "constant": false,
      "inputs": [
        {
          "internalType": "address",
          "name": "account",
          "type": "address"
        },
        {
          "internalType": "uint256",
          "name": "amount",
          "type": "uint256"
        },
        {
          "internalType": "string",
          "name": "reason",
          "type": "string"
        }
      ],
      "name": "decrementBalanceOfStagedE",
      "outputs": [],
      "payable": false,
      "stateMutability": "nonpayable",
      "type": "function"
    },
    {
      "constant": false,
      "inputs": [
        {
          "internalType": "address",
          "name": "candidate",
          "type": "address"
        },
        {
          "internalType": "uint256",
          "name": "amount",
          "type": "uint256"
        },
        {
          "internalType": "string",
          "name": "reason",
          "type": "string"
        }
      ],
      "name": "decrementRejectForE",
      "outputs": [],
      "payable": false,
      "stateMutability": "nonpayable",
      "type": "function"
    },
    {
      "constant": false,
      "inputs": [
        {
          "internalType": "uint256",
          "name": "amount",
          "type": "uint256"
        },
        {
          "internalType": "string",
          "name": "reason",
          "type": "string"
        }
      ],
      "name": "decrementTotalBondedE",
      "outputs": [],
      "payable": false,
      "stateMutability": "nonpayable",
      "type": "function"
    },
    {
      "constant": false,
      "inputs": [
        {
          "internalType": "uint256",
          "name": "amount",
          "type": "uint256"
        },
        {
          "internalType": "string",
          "name": "reason",
          "type": "string"
        }
      ],
      "name": "decrementTotalDebtE",
      "outputs": [],
      "payable": false,
      "stateMutability": "nonpayable",
      "type": "function"
    },
    {
      "constant": false,
      "inputs": [
        {
          "internalType": "uint256",
          "name": "amount",
          "type": "uint256"
        },
        {
          "internalType": "string",
          "name": "reason",
          "type": "string"
        }
      ],
      "name": "decrementTotalRedeemableE",
      "outputs": [],
      "payable": false,
      "stateMutability": "nonpayable",
      "type": "function"
    },
    {
      "constant": true,
      "inputs": [],
      "name": "dollar",
      "outputs": [
        {
          "internalType": "contract IDollar",
          "name": "",
          "type": "address"
        }
      ],
      "payable": false,
      "stateMutability": "view",
      "type": "function"
    },
    {
      "constant": false,
      "inputs": [
        {
          "internalType": "uint256",
          "name": "epoch",
          "type": "uint256"
        }
      ],
      "name": "eliminateOutstandingCouponsE",
      "outputs": [],
      "payable": false,
      "stateMutability": "nonpayable",
      "type": "function"
    },
    {
      "constant": true,
      "inputs": [],
      "name": "epoch",
      "outputs": [
        {
          "internalType": "uint256",
          "name": "",
          "type": "uint256"
        }
      ],
      "payable": false,
      "stateMutability": "view",
      "type": "function"
    },
    {
      "constant": true,
      "inputs": [],
      "name": "epochTime",
      "outputs": [
        {
          "internalType": "uint256",
          "name": "",
          "type": "uint256"
        }
      ],
      "payable": false,
      "stateMutability": "view",
      "type": "function"
    },
    {
      "constant": true,
      "inputs": [],
      "name": "eraStart",
      "outputs": [
        {
          "internalType": "uint256",
          "name": "",
          "type": "uint256"
        }
      ],
      "payable": false,
      "stateMutability": "view",
      "type": "function"
    },
    {
      "constant": true,
      "inputs": [],
      "name": "eraStatus",
      "outputs": [
        {
          "internalType": "enum Era.Status",
          "name": "",
          "type": "uint8"
        }
      ],
      "payable": false,
      "stateMutability": "view",
      "type": "function"
    },
    {
      "constant": true,
      "inputs": [
        {
          "internalType": "uint256",
          "name": "epoch",
          "type": "uint256"
        }
      ],
      "name": "expiringCoupons",
      "outputs": [
        {
          "internalType": "uint256",
          "name": "",
          "type": "uint256"
        }
      ],
      "payable": false,
      "stateMutability": "view",
      "type": "function"
    },
    {
      "constant": true,
      "inputs": [
        {
          "internalType": "uint256",
          "name": "epoch",
          "type": "uint256"
        },
        {
          "internalType": "uint256",
          "name": "i",
          "type": "uint256"
        }
      ],
      "name": "expiringCouponsAtIndex",
      "outputs": [
        {
          "internalType": "uint256",
          "name": "",
          "type": "uint256"
        }
      ],
      "payable": false,
      "stateMutability": "view",
      "type": "function"
    },
    {
      "constant": true,
      "inputs": [
        {
          "internalType": "address",
          "name": "account",
          "type": "address"
        }
      ],
      "name": "fluidUntil",
      "outputs": [
        {
          "internalType": "uint256",
          "name": "",
          "type": "uint256"
        }
      ],
      "payable": false,
      "stateMutability": "view",
      "type": "function"
    },
    {
      "constant": true,
      "inputs": [],
      "name": "implementation",
      "outputs": [
        {
          "internalType": "address",
          "name": "impl",
          "type": "address"
        }
      ],
      "payable": false,
      "stateMutability": "view",
      "type": "function"
    },
    {
      "constant": false,
      "inputs": [
        {
          "internalType": "uint256",
          "name": "amount",
          "type": "uint256"
        }
      ],
      "name": "increaseDebtE",
      "outputs": [],
      "payable": false,
      "stateMutability": "nonpayable",
      "type": "function"
    },
    {
      "constant": false,
      "inputs": [
        {
          "internalType": "address",
          "name": "candidate",
          "type": "address"
        },
        {
          "internalType": "uint256",
          "name": "amount",
          "type": "uint256"
        }
      ],
      "name": "incrementApproveForE",
      "outputs": [],
      "payable": false,
      "stateMutability": "nonpayable",
      "type": "function"
    },
    {
      "constant": false,
      "inputs": [
        {
          "internalType": "address",
          "name": "account",
          "type": "address"
        },
        {
          "internalType": "uint256",
          "name": "epoch",
          "type": "uint256"
        },
        {
          "internalType": "uint256",
          "name": "amount",
          "type": "uint256"
        }
      ],
      "name": "incrementBalanceOfCouponUnderlyingE",
      "outputs": [],
      "payable": false,
      "stateMutability": "nonpayable",
      "type": "function"
    },
    {
      "constant": false,
      "inputs": [
        {
          "internalType": "address",
          "name": "account",
          "type": "address"
        },
        {
          "internalType": "uint256",
          "name": "epoch",
          "type": "uint256"
        },
        {
          "internalType": "uint256",
          "name": "amount",
          "type": "uint256"
        }
      ],
      "name": "incrementBalanceOfCouponsE",
      "outputs": [],
      "payable": false,
      "stateMutability": "nonpayable",
      "type": "function"
    },
    {
      "constant": false,
      "inputs": [
        {
          "internalType": "address",
          "name": "account",
          "type": "address"
        },
        {
          "internalType": "uint256",
          "name": "amount",
          "type": "uint256"
        }
      ],
      "name": "incrementBalanceOfE",
      "outputs": [],
      "payable": false,
      "stateMutability": "nonpayable",
      "type": "function"
    },
    {
      "constant": false,
      "inputs": [
        {
          "internalType": "address",
          "name": "account",
          "type": "address"
        },
        {
          "internalType": "uint256",
          "name": "amount",
          "type": "uint256"
        }
      ],
      "name": "incrementBalanceOfStagedE",
      "outputs": [],
      "payable": false,
      "stateMutability": "nonpayable",
      "type": "function"
    },
    {
      "constant": false,
      "inputs": [],
      "name": "incrementEpochE",
      "outputs": [],
      "payable": false,
      "stateMutability": "nonpayable",
      "type": "function"
    },
    {
      "constant": false,
      "inputs": [
        {
          "internalType": "address",
          "name": "candidate",
          "type": "address"
        },
        {
          "internalType": "uint256",
          "name": "amount",
          "type": "uint256"
        }
      ],
      "name": "incrementRejectForE",
      "outputs": [],
      "payable": false,
      "stateMutability": "nonpayable",
      "type": "function"
    },
    {
      "constant": false,
      "inputs": [
        {
          "internalType": "uint256",
          "name": "amount",
          "type": "uint256"
        }
      ],
      "name": "incrementTotalBondedE",
      "outputs": [],
      "payable": false,
      "stateMutability": "nonpayable",
      "type": "function"
    },
    {
      "constant": false,
      "inputs": [
        {
          "internalType": "uint256",
          "name": "amount",
          "type": "uint256"
        }
      ],
      "name": "incrementTotalDebtE",
      "outputs": [],
      "payable": false,
      "stateMutability": "nonpayable",
      "type": "function"
    },
    {
      "constant": false,
      "inputs": [
        {
          "internalType": "uint256",
          "name": "amount",
          "type": "uint256"
        }
      ],
      "name": "incrementTotalRedeemableE",
      "outputs": [],
      "payable": false,
      "stateMutability": "nonpayable",
      "type": "function"
    },
    {
      "constant": false,
      "inputs": [
        {
          "internalType": "uint256",
          "name": "epoch",
          "type": "uint256"
        },
        {
          "internalType": "uint256",
          "name": "expiration",
          "type": "uint256"
        }
      ],
      "name": "initializeCouponsExpirationE",
      "outputs": [],
      "payable": false,
      "stateMutability": "nonpayable",
      "type": "function"
    },
    {
      "constant": false,
      "inputs": [
        {
          "internalType": "address",
          "name": "candidate",
          "type": "address"
        }
      ],
      "name": "initializedE",
      "outputs": [],
      "payable": false,
      "stateMutability": "nonpayable",
      "type": "function"
    },
    {
      "constant": true,
      "inputs": [
        {
          "internalType": "address",
          "name": "candidate",
          "type": "address"
        }
      ],
      "name": "isInitialized",
      "outputs": [
        {
          "internalType": "bool",
          "name": "",
          "type": "bool"
        }
      ],
      "payable": false,
      "stateMutability": "view",
      "type": "function"
    },
    {
      "constant": true,
      "inputs": [
        {
          "internalType": "address",
          "name": "candidate",
          "type": "address"
        }
      ],
      "name": "isNominated",
      "outputs": [
        {
          "internalType": "bool",
          "name": "",
          "type": "bool"
        }
      ],
      "payable": false,
      "stateMutability": "view",
      "type": "function"
    },
    {
      "constant": true,
      "inputs": [
        {
          "internalType": "address",
          "name": "account",
          "type": "address"
        }
      ],
      "name": "lockedUntil",
      "outputs": [
        {
          "internalType": "uint256",
          "name": "",
          "type": "uint256"
        }
      ],
      "payable": false,
      "stateMutability": "view",
      "type": "function"
    },
    {
      "constant": false,
      "inputs": [
        {
          "internalType": "address",
          "name": "account",
          "type": "address"
        },
        {
          "internalType": "uint256",
          "name": "amount",
          "type": "uint256"
        }
      ],
      "name": "mintToAccountE",
      "outputs": [],
      "payable": false,
      "stateMutability": "nonpayable",
      "type": "function"
    },
    {
      "constant": false,
      "inputs": [
        {
          "internalType": "address",
          "name": "account",
          "type": "address"
        },
        {
          "internalType": "uint256",
          "name": "amount",
          "type": "uint256"
        }
      ],
      "name": "mintToE",
      "outputs": [],
      "payable": false,
      "stateMutability": "nonpayable",
      "type": "function"
    },
    {
      "constant": true,
      "inputs": [],
      "name": "name",
      "outputs": [
        {
          "internalType": "string",
          "name": "",
          "type": "string"
        }
      ],
      "payable": false,
      "stateMutability": "view",
      "type": "function"
    },
    {
      "constant": true,
      "inputs": [],
      "name": "oracle",
      "outputs": [
        {
          "internalType": "contract IOracle",
          "name": "",
          "type": "address"
        }
      ],
      "payable": false,
      "stateMutability": "view",
      "type": "function"
    },
    {
      "constant": true,
      "inputs": [
        {
          "internalType": "uint256",
          "name": "epoch",
          "type": "uint256"
        }
      ],
      "name": "outstandingCoupons",
      "outputs": [
        {
          "internalType": "uint256",
          "name": "",
          "type": "uint256"
        }
      ],
      "payable": false,
      "stateMutability": "view",
      "type": "function"
    },
    {
      "constant": true,
      "inputs": [
        {
          "internalType": "address",
          "name": "candidate",
          "type": "address"
        }
      ],
      "name": "periodFor",
      "outputs": [
        {
          "internalType": "uint256",
          "name": "",
          "type": "uint256"
        }
      ],
      "payable": false,
      "stateMutability": "view",
      "type": "function"
    },
    {
      "constant": false,
      "inputs": [
        {
          "internalType": "address",
          "name": "account",
          "type": "address"
        },
        {
          "internalType": "address",
          "name": "candidate",
          "type": "address"
        }
      ],
      "name": "placeLockE",
      "outputs": [],
      "payable": false,
      "stateMutability": "nonpayable",
      "type": "function"
    },
    {
      "constant": true,
      "inputs": [],
      "name": "pool",
      "outputs": [
        {
          "internalType": "address",
          "name": "",
          "type": "address"
        }
      ],
      "payable": false,
      "stateMutability": "view",
      "type": "function"
    },
    {
      "constant": false,
      "inputs": [
        {
          "internalType": "address",
          "name": "account",
          "type": "address"
        },
        {
          "internalType": "address",
          "name": "candidate",
          "type": "address"
        },
        {
          "internalType": "enum Candidate.Vote",
          "name": "vote",
          "type": "uint8"
        }
      ],
      "name": "recordVoteE",
      "outputs": [],
      "payable": false,
      "stateMutability": "nonpayable",
      "type": "function"
    },
    {
      "constant": true,
      "inputs": [
        {
          "internalType": "address",
          "name": "account",
          "type": "address"
        },
        {
          "internalType": "address",
          "name": "candidate",
          "type": "address"
        }
      ],
      "name": "recordedVote",
      "outputs": [
        {
          "internalType": "enum Candidate.Vote",
          "name": "",
          "type": "uint8"
        }
      ],
      "payable": false,
      "stateMutability": "view",
      "type": "function"
    },
    {
      "constant": false,
      "inputs": [
        {
          "internalType": "address",
          "name": "account",
          "type": "address"
        },
        {
          "internalType": "uint256",
          "name": "amount",
          "type": "uint256"
        },
        {
          "internalType": "uint256",
          "name": "couponAmount",
          "type": "uint256"
        }
      ],
      "name": "redeemToAccountE",
      "outputs": [],
      "payable": false,
      "stateMutability": "nonpayable",
      "type": "function"
    },
    {
      "constant": true,
      "inputs": [
        {
          "internalType": "address",
          "name": "candidate",
          "type": "address"
        }
      ],
      "name": "rejectFor",
      "outputs": [
        {
          "internalType": "uint256",
          "name": "",
          "type": "uint256"
        }
      ],
      "payable": false,
      "stateMutability": "view",
      "type": "function"
    },
    {
      "constant": false,
      "inputs": [
        {
          "internalType": "uint256",
          "name": "percent",
          "type": "uint256"
        }
      ],
      "name": "resetDebtE",
      "outputs": [],
      "payable": false,
      "stateMutability": "nonpayable",
      "type": "function"
    },
    {
      "constant": false,
      "inputs": [
        {
          "internalType": "uint256",
          "name": "timestamp",
          "type": "uint256"
        }
      ],
      "name": "setBlockTimestamp",
      "outputs": [],
      "payable": false,
      "stateMutability": "nonpayable",
      "type": "function"
    },
    {
      "constant": false,
      "inputs": [
        {
          "internalType": "uint256",
          "name": "start",
          "type": "uint256"
        },
        {
          "internalType": "uint256",
          "name": "period",
          "type": "uint256"
        }
      ],
      "name": "setEpochParamsE",
      "outputs": [],
      "payable": false,
      "stateMutability": "nonpayable",
      "type": "function"
    },
    {
      "constant": false,
      "inputs": [],
      "name": "snapshotTotalBondedE",
      "outputs": [],
      "payable": false,
      "stateMutability": "nonpayable",
      "type": "function"
    },
    {
      "constant": false,
      "inputs": [
        {
          "internalType": "uint256",
          "name": "amount",
          "type": "uint256"
        }
      ],
      "name": "stabilityRewardE",
      "outputs": [],
      "payable": false,
      "stateMutability": "nonpayable",
      "type": "function"
    },
    {
      "constant": true,
      "inputs": [
        {
          "internalType": "address",
          "name": "candidate",
          "type": "address"
        }
      ],
      "name": "startFor",
      "outputs": [
        {
          "internalType": "uint256",
          "name": "",
          "type": "uint256"
        }
      ],
      "payable": false,
      "stateMutability": "view",
      "type": "function"
    },
    {
      "constant": true,
      "inputs": [
        {
          "internalType": "address",
          "name": "account",
          "type": "address"
        }
      ],
      "name": "statusOf",
      "outputs": [
        {
          "internalType": "enum Account.Status",
          "name": "",
          "type": "uint8"
        }
      ],
      "payable": false,
      "stateMutability": "view",
      "type": "function"
    },
    {
      "constant": true,
      "inputs": [],
      "name": "symbol",
      "outputs": [
        {
          "internalType": "string",
          "name": "",
          "type": "string"
        }
      ],
      "payable": false,
      "stateMutability": "view",
      "type": "function"
    },
    {
      "constant": true,
      "inputs": [],
      "name": "totalBonded",
      "outputs": [
        {
          "internalType": "uint256",
          "name": "",
          "type": "uint256"
        }
      ],
      "payable": false,
      "stateMutability": "view",
      "type": "function"
    },
    {
      "constant": true,
      "inputs": [
        {
          "internalType": "uint256",
          "name": "epoch",
          "type": "uint256"
        }
      ],
      "name": "totalBondedAt",
      "outputs": [
        {
          "internalType": "uint256",
          "name": "",
          "type": "uint256"
        }
      ],
      "payable": false,
      "stateMutability": "view",
      "type": "function"
    },
    {
      "constant": true,
      "inputs": [],
      "name": "totalCouponUnderlying",
      "outputs": [
        {
          "internalType": "uint256",
          "name": "",
          "type": "uint256"
        }
      ],
      "payable": false,
      "stateMutability": "view",
      "type": "function"
    },
    {
      "constant": true,
      "inputs": [],
      "name": "totalCoupons",
      "outputs": [
        {
          "internalType": "uint256",
          "name": "",
          "type": "uint256"
        }
      ],
      "payable": false,
      "stateMutability": "view",
      "type": "function"
    },
    {
      "constant": true,
      "inputs": [],
      "name": "totalDebt",
      "outputs": [
        {
          "internalType": "uint256",
          "name": "",
          "type": "uint256"
        }
      ],
      "payable": false,
      "stateMutability": "view",
      "type": "function"
    },
    {
      "constant": true,
      "inputs": [],
      "name": "totalNet",
      "outputs": [
        {
          "internalType": "uint256",
          "name": "",
          "type": "uint256"
        }
      ],
      "payable": false,
      "stateMutability": "view",
      "type": "function"
    },
    {
      "constant": true,
      "inputs": [],
      "name": "totalRedeemable",
      "outputs": [
        {
          "internalType": "uint256",
          "name": "",
          "type": "uint256"
        }
      ],
      "payable": false,
      "stateMutability": "view",
      "type": "function"
    },
    {
      "constant": true,
      "inputs": [],
      "name": "totalStaged",
      "outputs": [
        {
          "internalType": "uint256",
          "name": "",
          "type": "uint256"
        }
      ],
      "payable": false,
      "stateMutability": "view",
      "type": "function"
    },
    {
      "constant": true,
      "inputs": [],
      "name": "totalSupply",
      "outputs": [
        {
          "internalType": "uint256",
          "name": "",
          "type": "uint256"
        }
      ],
      "payable": false,
      "stateMutability": "view",
      "type": "function"
    },
    {
      "constant": false,
      "inputs": [
        {
          "internalType": "address",
          "name": "recipient",
          "type": "address"
        },
        {
          "internalType": "uint256",
          "name": "amount",
          "type": "uint256"
        }
      ],
      "name": "transfer",
      "outputs": [
        {
          "internalType": "bool",
          "name": "",
          "type": "bool"
        }
      ],
      "payable": false,
      "stateMutability": "nonpayable",
      "type": "function"
    },
    {
      "constant": false,
      "inputs": [
        {
          "internalType": "address",
          "name": "sender",
          "type": "address"
        },
        {
          "internalType": "address",
          "name": "recipient",
          "type": "address"
        },
        {
          "internalType": "uint256",
          "name": "amount",
          "type": "uint256"
        }
      ],
      "name": "transferFrom",
      "outputs": [
        {
          "internalType": "bool",
          "name": "",
          "type": "bool"
        }
      ],
      "payable": false,
      "stateMutability": "nonpayable",
      "type": "function"
    },
    {
      "constant": false,
      "inputs": [
        {
          "internalType": "address",
          "name": "account",
          "type": "address"
        }
      ],
      "name": "unfreezeE",
      "outputs": [],
      "payable": false,
      "stateMutability": "nonpayable",
      "type": "function"
    },
    {
      "constant": false,
      "inputs": [
        {
          "internalType": "address",
          "name": "owner",
          "type": "address"
        },
        {
          "internalType": "address",
          "name": "spender",
          "type": "address"
        },
        {
          "internalType": "uint256",
          "name": "amount",
          "type": "uint256"
        }
      ],
      "name": "updateAllowanceCouponsE",
      "outputs": [],
      "payable": false,
      "stateMutability": "nonpayable",
      "type": "function"
    },
    {
      "constant": false,
      "inputs": [
        {
          "internalType": "enum Era.Status",
          "name": "status",
          "type": "uint8"
        }
      ],
      "name": "updateEraE",
      "outputs": [],
      "payable": false,
      "stateMutability": "nonpayable",
      "type": "function"
    },
    {
      "constant": true,
      "inputs": [
        {
          "internalType": "address",
          "name": "candidate",
          "type": "address"
        }
      ],
      "name": "votesFor",
      "outputs": [
        {
          "internalType": "uint256",
          "name": "",
          "type": "uint256"
        }
      ],
      "payable": false,
      "stateMutability": "view",
      "type": "function"
    },
    {
      "constant": false,
      "inputs": [],
      "name": "stepE",
      "outputs": [],
      "payable": false,
      "stateMutability": "nonpayable",
      "type": "function"
    }
  ],
  "bytecode": "0x60806040523480156200001157600080fd5b5060405162007c2938038062007c29833981810160405262000037919081019062000125565b80426013819055506040516200004d9062000100565b604051809103906000f0801580156200006a573d6000803e3d6000fd5b50600060090160000160006101000a81548173ffffffffffffffffffffffffffffffffffffffff021916908373ffffffffffffffffffffffffffffffffffffffff16021790555080600060090160020160006101000a81548173ffffffffffffffffffffffffffffffffffffffff021916908373ffffffffffffffffffffffffffffffffffffffff16021790555050506200019f565b612cc68062004f6383390190565b6000815190506200011f8162000185565b92915050565b6000602082840312156200013857600080fd5b600062000148848285016200010e565b91505092915050565b60006200015e8262000165565b9050919050565b600073ffffffffffffffffffffffffffffffffffffffff82169050919050565b620001908162000151565b81146200019c57600080fd5b50565b614db480620001af6000396000f3fe608060405234801561001057600080fd5b50600436106104d85760003560e01c80637dc0d1d011610283578063b11ee0e31161015c578063d6d8816d116100ce578063f1b7cf4911610092578063f1b7cf4914610fc9578063f35adf7e14610ff9578063f7a3181814611003578063faec55371461101f578063fc7b9c181461103b578063ffbe3b7314611059576104d8565b8063d6d8816d14610f27578063d83d3ed514610f43578063dd62ed3e14610f5f578063e0abdf6614610f8f578063edb6b80a14610fab576104d8565b8063c1410c0211610120578063c1410c0214610e55578063c2aeb5fe14610e71578063c9aff70c14610e8d578063cc8d823c14610ebd578063cf02377914610ed9578063d60b347f14610ef7576104d8565b8063b11ee0e314610db3578063b16144a314610dcf578063b32a2f9014610deb578063b739a7b814610e07578063bc7513e214610e25576104d8565b80639be46493116101f5578063a6f37b53116101b9578063a6f37b5314610cf7578063a9059cbb14610d13578063a9b3cf1514610d43578063aa1daf8514610d5f578063adbff2be14610d7b578063ae5c238114610d97576104d8565b80639be4649314610c415780639f6e1b2614610c5d578063a00e14d114610c8d578063a50cd8e714610ca9578063a6c409f114610cd9576104d8565b8063900cf0cf11610247578063900cf0cf14610b6b57806395d89b4114610b8957806397a5d5b514610ba75780639a649edc14610bd75780639b82b49b14610bf55780639bc289f114610c11576104d8565b80637dc0d1d014610ab5578063825ad60714610ad35780638413e52a14610b0357806386cf9f1414610b1f5780638de2e57314610b4f576104d8565b80633fd4973c116103b55780635f14fec8116103275780636be8d64b116102eb5780636be8d64b146109f757806370a0823114610a1357806371c511eb14610a4357806372924d2a14610a4d57806375d5024b14610a695780637cb95a3214610a99576104d8565b80635f14fec81461094357806363b0a9761461095f578063646680221461097b5780636a39e328146109ab5780636b862d66146109db576104d8565b80634c736099116103795780634c7360991461086d5780635053e4611461089d57806351adeb57146108bb57806351bf21d8146108d95780635c60da1b146109095780635dbf800a14610927576104d8565b80633fd4973c146107ef578063416a23cc1461080b5780634303d4f714610815578063438735261461083357806344d96e951461084f576104d8565b80631fac97321161044e578063313ce56711610412578063313ce567146107095780633234742214610727578063353a420c146107435780633a3e6c81146107735780633f7bcaf3146107a35780633fbba9a6146107bf576104d8565b80631fac97321461066957806320f6bc901461068557806323b872dd146106a1578063259f7adf146106d1578063277805a9146106ed576104d8565b806310e95b6c116104a057806310e95b6c1461059357806315e14bf6146105c357806316f0115b146105f357806318160ddd146106115780631a08e22a1461062f5780631edbcf6c1461064b576104d8565b806306fdde03146104dd578063095ea7b3146104fb578063097c6b7e1461052b5780630d78ceb4146105475780630dc6d3a314610577575b600080fd5b6104e5611089565b6040516104f29190614a06565b60405180910390f35b61051560048036036105109190810190614425565b6110c6565b6040516105229190614964565b60405180910390f35b610545600480360361054091908101906145ee565b6110d1565b005b610561600480360361055c9190810190614425565b6110de565b60405161056e9190614a68565b60405180910390f35b610591600480360361058c91908101906143a5565b61113c565b005b6105ad60048036036105a891908101906145ee565b611193565b6040516105ba9190614a68565b60405180910390f35b6105dd60048036036105d891908101906142a2565b6111b8565b6040516105ea9190614a68565b60405180910390f35b6105fb611206565b60405161060891906148e9565b60405180910390f35b610619611235565b6040516106269190614a68565b60405180910390f35b61064960048036036106449190810190614698565b611244565b005b610653611252565b6040516106609190614a68565b60405180910390f35b610683600480360361067e91908101906145ee565b611261565b005b61069f600480360361069a9190810190614425565b61126d565b005b6106bb60048036036106b69190810190614356565b61127b565b6040516106c89190614964565b60405180910390f35b6106eb60048036036106e691908101906145ee565b611287565b005b61070760048036036107029190810190614425565b611293565b005b61071161132c565b60405161071e9190614aac565b60405180910390f35b610741600480360361073c9190810190614640565b611335565b005b61075d600480360361075891908101906142a2565b611388565b60405161076a9190614a68565b60405180910390f35b61078d600480360361078891908101906142a2565b6113d6565b60405161079a9190614964565b60405180910390f35b6107bd60048036036107b89190810190614356565b611427565b005b6107d960048036036107d491908101906142cb565b611437565b6040516107e691906149eb565b60405180910390f35b61080960048036036108049190810190614461565b6114d0565b005b610813611525565b005b61081d61152f565b60405161082a9190614a68565b60405180910390f35b61084d600480360361084891908101906145ee565b61153c565b005b610857611549565b6040516108649190614a68565b60405180910390f35b61088760048036036108829190810190614698565b611558565b6040516108949190614a68565b60405180910390f35b6108a5611593565b6040516108b29190614a68565b60405180910390f35b6108c36115ea565b6040516108d0919061497f565b60405180910390f35b6108f360048036036108ee91908101906142a2565b611619565b6040516109009190614a68565b60405180910390f35b610911611667565b60405161091e91906148e9565b60405180910390f35b610941600480360361093c91908101906145ee565b611698565b005b61095d60048036036109589190810190614425565b6116a4565b005b610979600480360361097491908101906144cd565b6116b2565b005b610995600480360361099091908101906142a2565b6116c2565b6040516109a29190614a68565b60405180910390f35b6109c560048036036109c091908101906145ee565b611710565b6040516109d29190614a68565b60405180910390f35b6109f560048036036109f091908101906144cd565b611738565b005b610a116004803603610a0c91908101906145c5565b611748565b005b610a2d6004803603610a2891908101906142a2565b611754565b604051610a3a9190614a68565b60405180910390f35b610a4b6117a2565b005b610a676004803603610a629190810190614640565b6117ac565b005b610a836004803603610a7e91908101906145ee565b6117ff565b604051610a909190614964565b60405180910390f35b610ab36004803603610aae9190810190614461565b611813565b005b610abd611868565b604051610aca919061499a565b60405180910390f35b610aed6004803603610ae891908101906142a2565b611897565b604051610afa9190614a68565b60405180910390f35b610b1d6004803603610b189190810190614307565b6118f4565b005b610b396004803603610b3491908101906142a2565b611904565b604051610b469190614a68565b60405180910390f35b610b696004803603610b6491908101906145ee565b611952565b005b610b7361195e565b604051610b809190614a68565b60405180910390f35b610b9161196d565b604051610b9e9190614a06565b60405180910390f35b610bc16004803603610bbc91908101906142a2565b6119aa565b604051610bce91906149b5565b60405180910390f35b610bdf611a6f565b604051610bec9190614a68565b60405180910390f35b610c0f6004803603610c0a9190810190614640565b611a7e565b005b610c2b6004803603610c2691908101906142a2565b611ad1565b604051610c389190614a68565b60405180910390f35b610c5b6004803603610c5691908101906142a2565b611b1f565b005b610c776004803603610c7291908101906142cb565b611b2b565b604051610c849190614a68565b60405180910390f35b610ca76004803603610ca29190810190614698565b611bb7565b005b610cc36004803603610cbe91908101906142a2565b611bd3565b604051610cd09190614a68565b60405180910390f35b610ce1611bff565b604051610cee9190614a68565b60405180910390f35b610d116004803603610d0c91908101906142a2565b611ca4565b005b610d2d6004803603610d289190810190614425565b611cb0565b604051610d3a9190614964565b60405180910390f35b610d5d6004803603610d5891908101906145ee565b611cbb565b005b610d796004803603610d74919081019061451c565b611cc7565b005b610d956004803603610d909190810190614461565b611d1e565b005b610db16004803603610dac9190810190614425565b611d73565b005b610dcd6004803603610dc89190810190614425565b611d81565b005b610de96004803603610de491908101906145ee565b611d8f565b005b610e056004803603610e009190810190614461565b611da6565b005b610e0f611dfb565b604051610e1c9190614a68565b60405180910390f35b610e3f6004803603610e3a9190810190614425565b611e0b565b604051610e4c9190614a68565b60405180910390f35b610e6f6004803603610e6a91908101906142cb565b611e86565b005b610e8b6004803603610e86919081019061451c565b611e94565b005b610ea76004803603610ea291908101906145ee565b611eeb565b604051610eb49190614a68565b60405180910390f35b610ed76004803603610ed29190810190614425565b611f10565b005b610ee1611f1e565b604051610eee9190614a68565b60405180910390f35b610f116004803603610f0c91908101906142a2565b611f2d565b604051610f1e9190614964565b60405180910390f35b610f416004803603610f3c91908101906145ee565b611f88565b005b610f5d6004803603610f589190810190614425565b611f94565b005b610f796004803603610f7491908101906142cb565b611fa2565b604051610f869190614a68565b60405180910390f35b610fa96004803603610fa491908101906145ee565b611fad565b005b610fb3611fb7565b604051610fc091906149d0565b60405180910390f35b610fe36004803603610fde91908101906142a2565b611fd4565b604051610ff09190614a68565b60405180910390f35b611001612022565b005b61101d60048036036110189190810190614425565b61202c565b005b611039600480360361103491908101906144cd565b61203a565b005b61104361204a565b6040516110509190614a68565b60405180910390f35b611073600480360361106e91908101906145ee565b612059565b6040516110809190614a68565b60405180910390f35b60606040518060400160405280601681526020017f456d7074792053657420446f6c6c6172205374616b6500000000000000000000815250905090565b600080905092915050565b6110da8161207b565b5050565b6000600f60000160008473ffffffffffffffffffffffffffffffffffffffff1673ffffffffffffffffffffffffffffffffffffffff168152602001908152602001600020600083815260200190815260200160002054905092915050565b61118c85858585858080601f016020809104026020016040519081016040528093929190818152602001838380828437600081840152601f19601f820116905080830192505050505050506120a7565b5050505050565b600080600d016000838152602001908152602001600020600101600101549050919050565b600080600e0160008373ffffffffffffffffffffffffffffffffffffffff1673ffffffffffffffffffffffffffffffffffffffff168152602001908152602001600020600101549050919050565b60008060090160020160009054906101000a900473ffffffffffffffffffffffffffffffffffffffff16905090565b60008060030160000154905090565b61124e82826121ca565b5050565b60008060030160030154905090565b61126a81612235565b50565b611277828261227f565b5050565b60008090509392505050565b6112908161233f565b50565b61129b6115ea565b73ffffffffffffffffffffffffffffffffffffffff166340c10f1983836040518363ffffffff1660e01b81526004016112d592919061493b565b602060405180830381600087803b1580156112ef57600080fd5b505af1158015611303573d6000803e3d6000fd5b505050506040513d601f19601f82011682018060405250611327919081019061459c565b505050565b60006012905090565b6113838383838080601f016020809104026020016040519081016040528093929190818152602001838380828437600081840152601f19601f82011690508083019250505050505050612369565b505050565b600080600e0160008373ffffffffffffffffffffffffffffffffffffffff1673ffffffffffffffffffffffffffffffffffffffff168152602001908152602001600020600301549050919050565b6000806000600e0160008473ffffffffffffffffffffffffffffffffffffffff1673ffffffffffffffffffffffffffffffffffffffff16815260200190815260200160002060000154119050919050565b611432838383612396565b505050565b600080600e0160008373ffffffffffffffffffffffffffffffffffffffff1673ffffffffffffffffffffffffffffffffffffffff16815260200190815260200160002060040160008473ffffffffffffffffffffffffffffffffffffffff1673ffffffffffffffffffffffffffffffffffffffff16815260200190815260200160002060009054906101000a900460ff16905092915050565b61151f848484848080601f016020809104026020016040519081016040528093929190818152602001838380828437600081840152601f19601f82011690508083019250505050505050612422565b50505050565b61152d6124ca565b565b6000600f60010154905090565b61154581612653565b5050565b60008060030160010154905090565b600080600d016000848152602001908152602001600020600101600201828154811061158057fe5b9060005260206000200154905092915050565b600061159d6141a6565b6115a56126a4565b90506115af6141a6565b6115b76126d3565b905081602001516115c6612703565b106115d9576115d48261270d565b6115e3565b6115e28161270d565b5b9250505090565b60008060090160000160009054906101000a900473ffffffffffffffffffffffffffffffffffffffff16905090565b600080600c0160008373ffffffffffffffffffffffffffffffffffffffff1673ffffffffffffffffffffffffffffffffffffffff168152602001908152602001600020600401549050919050565b6000807f360894a13ba1a3210667c828492db98dca3e2076cc3735a920a3ca505d382bbc60001b9050805491505090565b6116a181612760565b50565b6116ae82826127ff565b5050565b6116bd838383612936565b505050565b600080600e0160008373ffffffffffffffffffffffffffffffffffffffff1673ffffffffffffffffffffffffffffffffffffffff168152602001908152602001600020600201549050919050565b600080600d016000838152602001908152602001600020600101600201805490509050919050565b611743838383612a98565b505050565b61175181612bd6565b50565b600080600c0160008373ffffffffffffffffffffffffffffffffffffffff1673ffffffffffffffffffffffffffffffffffffffff168152602001908152602001600020600101549050919050565b6117aa612c16565b565b6117fa8383838080601f016020809104026020016040519081016040528093929190818152602001838380828437600081840152601f19601f82011690508083019250505050505050612c44565b505050565b6000611809612c71565b8211159050919050565b611862848484848080601f016020809104026020016040519081016040528093929190818152602001838380828437600081840152601f19601f82011690508083019250505050505050612c7a565b50505050565b60008060090160010160009054906101000a900473ffffffffffffffffffffffffffffffffffffffff16905090565b6000806118a2611235565b905060008114156118b75760009150506118ef565b6118eb816118dd6118c786611754565b6118cf611549565b612d2290919063ffffffff16565b612d9290919063ffffffff16565b9150505b919050565b6118ff838383612ddc565b505050565b600080600c0160008373ffffffffffffffffffffffffffffffffffffffff1673ffffffffffffffffffffffffffffffffffffffff168152602001908152602001600020600001549050919050565b61195b81612e84565b50565b60008060000160020154905090565b60606040518060400160405280600481526020017f4553445300000000000000000000000000000000000000000000000000000000815250905090565b60006119b461195e565b6000600c0160008473ffffffffffffffffffffffffffffffffffffffff1673ffffffffffffffffffffffffffffffffffffffff168152602001908152602001600020600501541115611a095760029050611a6a565b6000600c0160008373ffffffffffffffffffffffffffffffffffffffff1673ffffffffffffffffffffffffffffffffffffffff16815260200190815260200160002060040154611a5761195e565b1015611a64576001611a67565b60005b90505b919050565b60008060030160050154905090565b611acc8383838080601f016020809104026020016040519081016040528093929190818152602001838380828437600081840152601f19601f82011690508083019250505050505050612eae565b505050565b600080600c0160008373ffffffffffffffffffffffffffffffffffffffff1673ffffffffffffffffffffffffffffffffffffffff168152602001908152602001600020600501549050919050565b611b2881612edb565b50565b600080600c0160008473ffffffffffffffffffffffffffffffffffffffff1673ffffffffffffffffffffffffffffffffffffffff16815260200190815260200160002060030160008373ffffffffffffffffffffffffffffffffffffffff1673ffffffffffffffffffffffffffffffffffffffff16815260200190815260200160002054905092915050565b8160008001600001819055508060008001600101819055505050565b6000611bf8611be183611388565b611bea846116c2565b612f4890919063ffffffff16565b9050919050565b6000611c9f611c0c61204a565b611c146115ea565b73ffffffffffffffffffffffffffffffffffffffff166318160ddd6040518163ffffffff1660e01b815260040160206040518083038186803b158015611c5957600080fd5b505afa158015611c6d573d6000803e3d6000fd5b505050506040513d601f19601f82011682018060405250611c919190810190614617565b612f9d90919063ffffffff16565b905090565b611cad81612fe7565b50565b600080905092915050565b611cc481613048565b50565b611d1785858585858080601f016020809104026020016040519081016040528093929190818152602001838380828437600081840152601f19601f820116905080830192505050505050506130b1565b5050505050565b611d6d848484848080601f016020809104026020016040519081016040528093929190818152602001838380828437600081840152601f19601f82011690508083019250505050505050613199565b50505050565b611d7d82826132d0565b5050565b611d8b8282613402565b5050565b611da2611d9d8260646134ce565b6134ff565b5050565b611df5848484848080601f016020809104026020016040519081016040528093929190818152602001838380828437600081840152601f19601f820116905080830192505050505050506135ee565b50505050565b6000601160000160010154905090565b600080611e1783611eeb565b1415611e265760009050611e80565b6000600c0160008473ffffffffffffffffffffffffffffffffffffffff1673ffffffffffffffffffffffffffffffffffffffff16815260200190815260200160002060020160008381526020019081526020016000205490505b92915050565b611e9082826136bf565b5050565b611ee485858585858080601f016020809104026020016040519081016040528093929190818152602001838380828437600081840152601f19601f82011690508083019250505050505050613788565b5050505050565b600080600d016000838152602001908152602001600020600101600001549050919050565b611f1a82826138cd565b5050565b60008060030160020154905090565b600080600e0160008373ffffffffffffffffffffffffffffffffffffffff1673ffffffffffffffffffffffffffffffffffffffff16815260200190815260200160002060050160009054906101000a900460ff169050919050565b611f9181613972565b50565b611f9e828261399c565b5050565b600080905092915050565b8060138190555050565b6000601160000160000160009054906101000a900460ff16905090565b600080600e0160008373ffffffffffffffffffffffffffffffffffffffff1673ffffffffffffffffffffffffffffffffffffffff168152602001908152602001600020600001549050919050565b61202a613a3b565b565b6120368282613a63565b5050565b612045838383613b08565b505050565b60008060030160040154905090565b600080600d016000838152602001908152602001600020600001549050919050565b60008061208783613beb565b9050612091613cb0565b8061209d57600061209f565b825b915050919050565b61213e82826000600c0160008873ffffffffffffffffffffffffffffffffffffffff1673ffffffffffffffffffffffffffffffffffffffff16815260200190815260200160002060030160008773ffffffffffffffffffffffffffffffffffffffff1673ffffffffffffffffffffffffffffffffffffffff16815260200190815260200160002054613dc89092919063ffffffff16565b6000600c0160008673ffffffffffffffffffffffffffffffffffffffff1673ffffffffffffffffffffffffffffffffffffffff16815260200190815260200160002060030160008573ffffffffffffffffffffffffffffffffffffffff1673ffffffffffffffffffffffffffffffffffffffff1681526020019081526020016000208190555050505050565b806000600d016000848152602001908152602001600020600101600101819055506000600d0160008281526020019081526020016000206001016002018290806001815401808255809150509060018203906000526020600020016000909192909190915055505050565b612274816040518060400160405280601c81526020017f436f6d7074726f6c6c65723a206e6f7420656e6f756768206465627400000000815250612c44565b61227c613cb0565b50565b6122876115ea565b73ffffffffffffffffffffffffffffffffffffffff166340c10f1983836040518363ffffffff1660e01b81526004016122c192919061493b565b602060405180830381600087803b1580156122db57600080fd5b505af11580156122ef573d6000803e3d6000fd5b505050506040513d601f19601f82011682018060405250612313919081019061459c565b5061232461231f61195e565b6117ff565b6123335761233181612653565b505b61233b613cb0565b5050565b61235a81600060030160010154612f4890919063ffffffff16565b60006003016001018190555050565b6123868282600060030160030154613dc89092919063ffffffff16565b6000600301600301819055505050565b806000600c0160008573ffffffffffffffffffffffffffffffffffffffff1673ffffffffffffffffffffffffffffffffffffffff16815260200190815260200160002060030160008473ffffffffffffffffffffffffffffffffffffffff1673ffffffffffffffffffffffffffffffffffffffff16815260200190815260200160002081905550505050565b61247c82826000600e0160008773ffffffffffffffffffffffffffffffffffffffff1673ffffffffffffffffffffffffffffffffffffffff16815260200190815260200160002060030154613dc89092919063ffffffff16565b6000600e0160008573ffffffffffffffffffffffffffffffffffffffff1673ffffffffffffffffffffffffffffffffffffffff16815260200190815260200160002060030181905550505050565b6124d26141c7565b6125676124dd61204a565b6124e56115ea565b73ffffffffffffffffffffffffffffffffffffffff166318160ddd6040518163ffffffff1660e01b815260040160206040518083038186803b15801561252a57600080fd5b505afa15801561253e573d6000803e3d6000fd5b505050506040513d601f19601f820116820180604052506125629190810190614617565b6134ce565b9050612583612574613e23565b82613e4790919063ffffffff16565b61258d5780612596565b612595613e23565b5b90506125a06141c7565b6125d36125bd6125ae613e5e565b84613e8190919063ffffffff16565b6125c5613eba565b613edc90919063ffffffff16565b905060006125f96125f46125e5611549565b84613f1590919063ffffffff16565b613f4a565b905060006126068261207b565b905061261061195e565b7f5d114d5b5dd9e34fb549f1f45f1c0183b275ca54c2e64c5116be30c5c9090011846000015183604051612645929190614a83565b60405180910390a250505050565b600061265e82612e84565b600061267061266b613e23565b6134ff565b905061267a613cb0565b828111612699576126948184612f9d90919063ffffffff16565b61269c565b60005b915050919050565b6126ac6141a6565b6040518060600160405280606a8152602001635f7fa8008152602001617080815250905090565b6126db6141a6565b6040518060600160405280605b8152602001635f6be180815260200162015180815250905090565b6000601354905090565b6000612759826000015161274b846040015161273d866020015161272f612703565b612f9d90919063ffffffff16565b612d9290919063ffffffff16565b612f4890919063ffffffff16565b9050919050565b6127686115ea565b73ffffffffffffffffffffffffffffffffffffffff166342966c68826040518263ffffffff1660e01b81526004016127a09190614a68565b600060405180830381600087803b1580156127ba57600080fd5b505af11580156127ce573d6000803e3d6000fd5b505050506127f4816040518060600160405280602a8152602001614d48602a9139612369565b6127fc613cb0565b50565b6128076115ea565b73ffffffffffffffffffffffffffffffffffffffff166323b872dd8330846040518463ffffffff1660e01b815260040161284393929190614904565b602060405180830381600087803b15801561285d57600080fd5b505af1158015612871573d6000803e3d6000fd5b505050506040513d601f19601f82011682018060405250612895919081019061459c565b5061289e6115ea565b73ffffffffffffffffffffffffffffffffffffffff166342966c68826040518263ffffffff1660e01b81526004016128d69190614a68565b600060405180830381600087803b1580156128f057600080fd5b505af1158015612904573d6000803e3d6000fd5b5050505061292a81604051806060016040528060288152602001614d2060289139612c44565b612932613cb0565b5050565b61293e6115ea565b73ffffffffffffffffffffffffffffffffffffffff166340c10f1984846040518363ffffffff1660e01b815260040161297892919061493b565b602060405180830381600087803b15801561299257600080fd5b505af11580156129a6573d6000803e3d6000fd5b505050506040513d601f19601f820116820180604052506129ca919081019061459c565b5060008114612a8b576129db6115ea565b73ffffffffffffffffffffffffffffffffffffffff1663a9059cbb84836040518363ffffffff1660e01b8152600401612a1592919061493b565b602060405180830381600087803b158015612a2f57600080fd5b505af1158015612a43573d6000803e3d6000fd5b505050506040513d601f19601f82011682018060405250612a67919081019061459c565b50612a8a816040518060600160405280602a8152602001614d48602a9139612369565b5b612a93613cb0565b505050565b612b01816000600c0160008673ffffffffffffffffffffffffffffffffffffffff1673ffffffffffffffffffffffffffffffffffffffff168152602001908152602001600020600201600085815260200190815260200160002054612f4890919063ffffffff16565b6000600c0160008573ffffffffffffffffffffffffffffffffffffffff1673ffffffffffffffffffffffffffffffffffffffff168152602001908152602001600020600201600084815260200190815260200160002081905550612b8a816000600d01600085815260200190815260200160002060010160000154612f4890919063ffffffff16565b6000600d01600084815260200190815260200160002060010160000181905550612bc581600060030160050154612f4890919063ffffffff16565b600060030160050181905550505050565b80601160000160000160006101000a81548160ff02191690836001811115612bfa57fe5b0217905550612c0761195e565b60116000016001018190555050565b612c1e611235565b6000600d016000612c2d61195e565b815260200190815260200160002060000181905550565b612c618282600060030160040154613dc89092919063ffffffff16565b6000600301600401819055505050565b6000605a905090565b612cd482826000600e0160008773ffffffffffffffffffffffffffffffffffffffff1673ffffffffffffffffffffffffffffffffffffffff16815260200190815260200160002060020154613dc89092919063ffffffff16565b6000600e0160008573ffffffffffffffffffffffffffffffffffffffff1673ffffffffffffffffffffffffffffffffffffffff16815260200190815260200160002060020181905550505050565b600080831415612d355760009050612d8c565b6000828402905082848281612d4657fe5b0414612d87576040517f08c379a0000000000000000000000000000000000000000000000000000000008152600401612d7e90614a48565b60405180910390fd5b809150505b92915050565b6000612dd483836040518060400160405280601a81526020017f536166654d6174683a206469766973696f6e206279207a65726f000000000000815250613f72565b905092915050565b806000600e0160008473ffffffffffffffffffffffffffffffffffffffff1673ffffffffffffffffffffffffffffffffffffffff16815260200190815260200160002060040160008573ffffffffffffffffffffffffffffffffffffffff1673ffffffffffffffffffffffffffffffffffffffff16815260200190815260200160002060006101000a81548160ff02191690836002811115612e7a57fe5b0217905550505050565b612e9f81600060030160040154612f4890919063ffffffff16565b60006003016004018190555050565b612ecb8282600060030160010154613dc89092919063ffffffff16565b6000600301600101819055505050565b612efc612ee6613fd3565b612eee61195e565b612f4890919063ffffffff16565b6000600c0160008373ffffffffffffffffffffffffffffffffffffffff1673ffffffffffffffffffffffffffffffffffffffff1681526020019081526020016000206004018190555050565b600080828401905083811015612f93576040517f08c379a0000000000000000000000000000000000000000000000000000000008152600401612f8a90614a28565b60405180910390fd5b8091505092915050565b6000612fdf83836040518060400160405280601e81526020017f536166654d6174683a207375627472616374696f6e206f766572666c6f770000815250613dc8565b905092915050565b60016000600e0160008373ffffffffffffffffffffffffffffffffffffffff1673ffffffffffffffffffffffffffffffffffffffff16815260200190815260200160002060050160006101000a81548160ff02191690831515021790555050565b600061305382611eeb565b9050600081141561306457506130ae565b61307f81600060030160050154612f9d90919063ffffffff16565b600060030160050181905550600080600d01600084815260200190815260200160002060010160000181905550505b50565b6131198282600f60000160008873ffffffffffffffffffffffffffffffffffffffff1673ffffffffffffffffffffffffffffffffffffffff168152602001908152602001600020600087815260200190815260200160002054613dc89092919063ffffffff16565b600f60000160008673ffffffffffffffffffffffffffffffffffffffff1673ffffffffffffffffffffffffffffffffffffffff16815260200190815260200160002060008581526020019081526020016000208190555061318a8282600f60010154613dc89092919063ffffffff16565b600f6001018190555050505050565b6131f382826000600c0160008773ffffffffffffffffffffffffffffffffffffffff1673ffffffffffffffffffffffffffffffffffffffff16815260200190815260200160002060010154613dc89092919063ffffffff16565b6000600c0160008573ffffffffffffffffffffffffffffffffffffffff1673ffffffffffffffffffffffffffffffffffffffff168152602001908152602001600020600101819055506132598282600060030160000154613dc89092919063ffffffff16565b600060030160000181905550600073ffffffffffffffffffffffffffffffffffffffff168373ffffffffffffffffffffffffffffffffffffffff167fddf252ad1be2c89b69c2b068fc378daa952ba7f163c4a11628f55a4df523b3ef846040516132c39190614a68565b60405180910390a3505050565b613328816000600c0160008573ffffffffffffffffffffffffffffffffffffffff1673ffffffffffffffffffffffffffffffffffffffff16815260200190815260200160002060010154612f4890919063ffffffff16565b6000600c0160008473ffffffffffffffffffffffffffffffffffffffff1673ffffffffffffffffffffffffffffffffffffffff1681526020019081526020016000206001018190555061338c81600060030160000154612f4890919063ffffffff16565b6000600301600001819055508173ffffffffffffffffffffffffffffffffffffffff16600073ffffffffffffffffffffffffffffffffffffffff167fddf252ad1be2c89b69c2b068fc378daa952ba7f163c4a11628f55a4df523b3ef836040516133f69190614a68565b60405180910390a35050565b61345a816000600c0160008573ffffffffffffffffffffffffffffffffffffffff1673ffffffffffffffffffffffffffffffffffffffff16815260200190815260200160002060000154612f4890919063ffffffff16565b6000600c0160008473ffffffffffffffffffffffffffffffffffffffff1673ffffffffffffffffffffffffffffffffffffffff168152602001908152602001600020600001819055506134be81600060030160020154612f4890919063ffffffff16565b6000600301600201819055505050565b6134d66141c7565b60405180602001604052806134f485670de0b6b3a764000086613fdc565b815250905092915050565b6000806135a161359c6135106115ea565b73ffffffffffffffffffffffffffffffffffffffff166318160ddd6040518163ffffffff1660e01b815260040160206040518083038186803b15801561355557600080fd5b505afa158015613569573d6000803e3d6000fd5b505050506040513d601f19601f8201168201806040525061358d9190810190614617565b85613f1590919063ffffffff16565b613f4a565b905060006135ad61204a565b9050818111156135e25760006135cc8383612f9d90919063ffffffff16565b90506135d781612235565b8093505050506135e9565b6000925050505b919050565b61364882826000600c0160008773ffffffffffffffffffffffffffffffffffffffff1673ffffffffffffffffffffffffffffffffffffffff16815260200190815260200160002060000154613dc89092919063ffffffff16565b6000600c0160008573ffffffffffffffffffffffffffffffffffffffff1673ffffffffffffffffffffffffffffffffffffffff168152602001908152602001600020600001819055506136ae8282600060030160020154613dc89092919063ffffffff16565b600060030160020181905550505050565b600080600c0160008473ffffffffffffffffffffffffffffffffffffffff1673ffffffffffffffffffffffffffffffffffffffff168152602001908152602001600020600501549050600061372d613716846111b8565b61371f85611fd4565b612f4890919063ffffffff16565b90508181111561378257806000600c0160008673ffffffffffffffffffffffffffffffffffffffff1673ffffffffffffffffffffffffffffffffffffffff168152602001908152602001600020600501819055505b50505050565b6137f382826000600c0160008873ffffffffffffffffffffffffffffffffffffffff1673ffffffffffffffffffffffffffffffffffffffff168152602001908152602001600020600201600087815260200190815260200160002054613dc89092919063ffffffff16565b6000600c0160008673ffffffffffffffffffffffffffffffffffffffff1673ffffffffffffffffffffffffffffffffffffffff16815260200190815260200160002060020160008581526020019081526020016000208190555061387e82826000600d01600087815260200190815260200160002060010160000154613dc89092919063ffffffff16565b6000600d016000858152602001908152602001600020600101600001819055506138bb8282600060030160050154613dc89092919063ffffffff16565b60006003016005018190555050505050565b613925816000600e0160008573ffffffffffffffffffffffffffffffffffffffff1673ffffffffffffffffffffffffffffffffffffffff16815260200190815260200160002060030154612f4890919063ffffffff16565b6000600e0160008473ffffffffffffffffffffffffffffffffffffffff1673ffffffffffffffffffffffffffffffffffffffff168152602001908152602001600020600301819055505050565b61398d81600060030160030154612f4890919063ffffffff16565b60006003016003018190555050565b6139a461195e565b6000600e0160008473ffffffffffffffffffffffffffffffffffffffff1673ffffffffffffffffffffffffffffffffffffffff16815260200190815260200160002060000181905550806000600e0160008473ffffffffffffffffffffffffffffffffffffffff1673ffffffffffffffffffffffffffffffffffffffff168152602001908152602001600020600101819055505050565b613a5660016000800160020154612f4890919063ffffffff16565b6000800160020181905550565b613abb816000600e0160008573ffffffffffffffffffffffffffffffffffffffff1673ffffffffffffffffffffffffffffffffffffffff16815260200190815260200160002060020154612f4890919063ffffffff16565b6000600e0160008473ffffffffffffffffffffffffffffffffffffffff1673ffffffffffffffffffffffffffffffffffffffff168152602001908152602001600020600201819055505050565b613b6e81600f60000160008673ffffffffffffffffffffffffffffffffffffffff1673ffffffffffffffffffffffffffffffffffffffff168152602001908152602001600020600085815260200190815260200160002054612f4890919063ffffffff16565b600f60000160008573ffffffffffffffffffffffffffffffffffffffff1673ffffffffffffffffffffffffffffffffffffffff168152602001908152602001600020600084815260200190815260200160002081905550613bdd81600f60010154612f4890919063ffffffff16565b600f60010181905550505050565b600080613bf6611549565b14159050600082118015613c075750805b15613cab57613c146115ea565b73ffffffffffffffffffffffffffffffffffffffff166340c10f1930846040518363ffffffff1660e01b8152600401613c4e92919061493b565b602060405180830381600087803b158015613c6857600080fd5b505af1158015613c7c573d6000803e3d6000fd5b505050506040513d601f19601f82011682018060405250613ca0919081019061459c565b50613caa8261233f565b5b919050565b613dc6613ced613cbe611252565b613cdf613cc9611f1e565b613cd1611549565b612f4890919063ffffffff16565b612f4890919063ffffffff16565b613cf56115ea565b73ffffffffffffffffffffffffffffffffffffffff166370a08231306040518263ffffffff1660e01b8152600401613d2d91906148e9565b60206040518083038186803b158015613d4557600080fd5b505afa158015613d59573d6000803e3d6000fd5b505050506040513d601f19601f82011682018060405250613d7d9190810190614617565b10157f436f6d7074726f6c6c65720000000000000000000000000000000000000000007f496e636f6e73697374656e742062616c616e636573000000000000000000000061400c565b565b6000838311158290613e10576040517f08c379a0000000000000000000000000000000000000000000000000000000008152600401613e079190614a06565b60405180910390fd5b5060008385039050809150509392505050565b613e2b6141c7565b60405180602001604052806702c68af0bb140000815250905090565b60006002613e55848461408b565b14905092915050565b613e666141c7565b60405180602001604052806601c6bf52634000815250905090565b613e896141c7565b6040518060200160405280613eaf85600001518560000151670de0b6b3a7640000613fdc565b815250905092915050565b613ec26141c7565b6040518060200160405280651b48eb57e000815250905090565b613ee46141c7565b6040518060200160405280613f0a84600001518660000151612f4890919063ffffffff16565b815250905092915050565b613f1d6141c7565b6040518060200160405280613f3f848660000151612d2290919063ffffffff16565b815250905092915050565b6000613f6b670de0b6b3a76400008360000151612d9290919063ffffffff16565b9050919050565b60008083118290613fb9576040517f08c379a0000000000000000000000000000000000000000000000000000000008152600401613fb09190614a06565b60405180910390fd5b506000838581613fc557fe5b049050809150509392505050565b6000600f905090565b600061400382613ff58587612d2290919063ffffffff16565b612d9290919063ffffffff16565b90509392505050565b826140865761401a826140cb565b613a2060f01b614029836140cb565b60405160200161403b939291906148b4565b6040516020818303038152906040526040517f08c379a000000000000000000000000000000000000000000000000000000000815260040161407d9190614a06565b60405180910390fd5b505050565b60008160000151836000015114156140a657600190506140c5565b81600001518360000151116140bc5760006140bf565b60025b60ff1690505b92915050565b606080826040516020016140df9190614899565b60405160208183030381529060405290506000602090505b600081111561416757808060019003915050600060f81b82828151811061411a57fe5b602001015160f81c60f81b7effffffffffffffffffffffffffffffffffffffffffffffffffffffffffffff1916146141625760006001820190508083528293505050506141a1565b6140f7565b5060006040519080825280601f01601f19166020018201604052801561419c5781602001600182028038833980820191505090505b509150505b919050565b60405180606001604052806000815260200160008152602001600081525090565b6040518060200160405280600081525090565b6000813590506141e981614cba565b92915050565b6000815190506141fe81614cd1565b92915050565b60008135905061421381614ce8565b92915050565b60008135905061422881614cf8565b92915050565b60008083601f84011261424057600080fd5b8235905067ffffffffffffffff81111561425957600080fd5b60208301915083600182028301111561427157600080fd5b9250929050565b60008135905061428781614d08565b92915050565b60008151905061429c81614d08565b92915050565b6000602082840312156142b457600080fd5b60006142c2848285016141da565b91505092915050565b600080604083850312156142de57600080fd5b60006142ec858286016141da565b92505060206142fd858286016141da565b9150509250929050565b60008060006060848603121561431c57600080fd5b600061432a868287016141da565b935050602061433b868287016141da565b925050604061434c86828701614219565b9150509250925092565b60008060006060848603121561436b57600080fd5b6000614379868287016141da565b935050602061438a868287016141da565b925050604061439b86828701614278565b9150509250925092565b6000806000806000608086880312156143bd57600080fd5b60006143cb888289016141da565b95505060206143dc888289016141da565b94505060406143ed88828901614278565b935050606086013567ffffffffffffffff81111561440a57600080fd5b6144168882890161422e565b92509250509295509295909350565b6000806040838503121561443857600080fd5b6000614446858286016141da565b925050602061445785828601614278565b9150509250929050565b6000806000806060858703121561447757600080fd5b6000614485878288016141da565b945050602061449687828801614278565b935050604085013567ffffffffffffffff8111156144b357600080fd5b6144bf8782880161422e565b925092505092959194509250565b6000806000606084860312156144e257600080fd5b60006144f0868287016141da565b935050602061450186828701614278565b925050604061451286828701614278565b9150509250925092565b60008060008060006080868803121561453457600080fd5b6000614542888289016141da565b955050602061455388828901614278565b945050604061456488828901614278565b935050606086013567ffffffffffffffff81111561458157600080fd5b61458d8882890161422e565b92509250509295509295909350565b6000602082840312156145ae57600080fd5b60006145bc848285016141ef565b91505092915050565b6000602082840312156145d757600080fd5b60006145e584828501614204565b91505092915050565b60006020828403121561460057600080fd5b600061460e84828501614278565b91505092915050565b60006020828403121561462957600080fd5b60006146378482850161428d565b91505092915050565b60008060006040848603121561465557600080fd5b600061466386828701614278565b935050602084013567ffffffffffffffff81111561468057600080fd5b61468c8682870161422e565b92509250509250925092565b600080604083850312156146ab57600080fd5b60006146b985828601614278565b92505060206146ca85828601614278565b9150509250929050565b6146dd81614af9565b82525050565b6146ec81614b0b565b82525050565b6147036146fe82614b17565b614c6e565b82525050565b61471a61471582614b43565b614c78565b82525050565b600061472b82614ac7565b6147358185614add565b9350614745818560208601614c3b565b80840191505092915050565b61475a81614bbd565b82525050565b61476981614be1565b82525050565b61477881614c05565b82525050565b61478781614c17565b82525050565b61479681614c29565b82525050565b60006147a782614ad2565b6147b18185614ae8565b93506147c1818560208601614c3b565b6147ca81614c82565b840191505092915050565b60006147e2601b83614ae8565b91507f536166654d6174683a206164646974696f6e206f766572666c6f7700000000006000830152602082019050919050565b6000614822602183614ae8565b91507f536166654d6174683a206d756c7469706c69636174696f6e206f766572666c6f60008301527f77000000000000000000000000000000000000000000000000000000000000006020830152604082019050919050565b61488481614ba6565b82525050565b61489381614bb0565b82525050565b60006148a58284614709565b60208201915081905092915050565b60006148c08286614720565b91506148cc82856146f2565b6002820191506148dc8284614720565b9150819050949350505050565b60006020820190506148fe60008301846146d4565b92915050565b600060608201905061491960008301866146d4565b61492660208301856146d4565b614933604083018461487b565b949350505050565b600060408201905061495060008301856146d4565b61495d602083018461487b565b9392505050565b600060208201905061497960008301846146e3565b92915050565b60006020820190506149946000830184614751565b92915050565b60006020820190506149af6000830184614760565b92915050565b60006020820190506149ca600083018461476f565b92915050565b60006020820190506149e5600083018461477e565b92915050565b6000602082019050614a00600083018461478d565b92915050565b60006020820190508181036000830152614a20818461479c565b905092915050565b60006020820190508181036000830152614a41816147d5565b9050919050565b60006020820190508181036000830152614a6181614815565b9050919050565b6000602082019050614a7d600083018461487b565b92915050565b6000604082019050614a98600083018561487b565b614aa5602083018461487b565b9392505050565b6000602082019050614ac1600083018461488a565b92915050565b600081519050919050565b600081519050919050565b600081905092915050565b600082825260208201905092915050565b6000614b0482614b86565b9050919050565b60008115159050919050565b60007fffff00000000000000000000000000000000000000000000000000000000000082169050919050565b6000819050919050565b6000819050614b5b82614c93565b919050565b6000819050614b6e82614ca0565b919050565b6000819050614b8182614cad565b919050565b600073ffffffffffffffffffffffffffffffffffffffff82169050919050565b6000819050919050565b600060ff82169050919050565b6000614bc882614bcf565b9050919050565b6000614bda82614b86565b9050919050565b6000614bec82614bf3565b9050919050565b6000614bfe82614b86565b9050919050565b6000614c1082614b4d565b9050919050565b6000614c2282614b60565b9050919050565b6000614c3482614b73565b9050919050565b60005b83811015614c59578082015181840152602081019050614c3e565b83811115614c68576000848401525b50505050565b6000819050919050565b6000819050919050565b6000601f19601f8301169050919050565b60038110614c9d57fe5b50565b60028110614caa57fe5b50565b60038110614cb757fe5b50565b614cc381614af9565b8114614cce57600080fd5b50565b614cda81614b0b565b8114614ce557600080fd5b50565b60028110614cf557600080fd5b50565b60038110614d0557600080fd5b50565b614d1181614ba6565b8114614d1c57600080fd5b5056fe436f6d7074726f6c6c65723a206e6f7420656e6f756768206f75747374616e64696e672064656274436f6d7074726f6c6c65723a206e6f7420656e6f7567682072656465656d61626c652062616c616e6365a365627a7a723158208e2a7dcd1262cbe1ffbc2c03253012d147948a2e4e379d220b54cdded58c41e36c6578706572696d656e74616cf564736f6c6343000511004060806040523480156200001157600080fd5b506040518060400160405280601081526020017f456d7074792053657420446f6c6c6172000000000000000000000000000000008152506040518060400160405280600381526020017f45534400000000000000000000000000000000000000000000000000000000008152506012620000a0620000946200016d60201b60201c565b6200017560201b60201c565b8260019080519060200190620000b89291906200046d565b508160029080519060200190620000d19291906200046d565b5080600360006101000a81548160ff021916908360ff1602179055505050506200016162000104620001d660201b60201c565b6040518060400160405280600181526020017f31000000000000000000000000000000000000000000000000000000000000008152506200014f6200027c60201b6200252b1760201c565b306200028560201b620025341760201c565b6007819055506200061b565b600033905090565b62000190816000620002ef60201b620017ce1790919060201c565b8073ffffffffffffffffffffffffffffffffffffffff167f6ae172837ea30b801fbfcdd4108aa1d5bf8ff775444fd70256b44e6bf3dfc3f660405160405180910390a250565b606060018054600181600116156101000203166002900480601f016020809104026020016040519081016040528092919081815260200182805460018160011615610100020316600290048015620002725780601f10620002465761010080835404028352916020019162000272565b820191906000526020600020905b8154815290600101906020018083116200025457829003601f168201915b5050505050905090565b60006001905090565b6000807f8b73c3c69bb8fe3d512ecc4cf759cc79239f7b179b0ffacaa9a75d522b39400f60001b9050855160208701208551602087012060405183815282602082015281604082015286606082015285608082015260a08120945050505081915050949350505050565b620003018282620003a260201b60201c565b1562000344576040517f08c379a00000000000000000000000000000000000000000000000000000000081526004016200033b90620005c6565b60405180910390fd5b60018260000160008373ffffffffffffffffffffffffffffffffffffffff1673ffffffffffffffffffffffffffffffffffffffff16815260200190815260200160002060006101000a81548160ff0219169083151502179055505050565b60008073ffffffffffffffffffffffffffffffffffffffff168273ffffffffffffffffffffffffffffffffffffffff16141562000416576040517f08c379a00000000000000000000000000000000000000000000000000000000081526004016200040d90620005e8565b60405180910390fd5b8260000160008373ffffffffffffffffffffffffffffffffffffffff1673ffffffffffffffffffffffffffffffffffffffff16815260200190815260200160002060009054906101000a900460ff16905092915050565b828054600181600116156101000203166002900490600052602060002090601f016020900481019282601f10620004b057805160ff1916838001178555620004e1565b82800160010185558215620004e1579182015b82811115620004e0578251825591602001919060010190620004c3565b5b509050620004f09190620004f4565b5090565b6200051991905b8082111562000515576000816000905550600101620004fb565b5090565b90565b60006200052b601f836200060a565b91507f526f6c65733a206163636f756e7420616c72656164792068617320726f6c65006000830152602082019050919050565b60006200056d6022836200060a565b91507f526f6c65733a206163636f756e7420697320746865207a65726f20616464726560008301527f73730000000000000000000000000000000000000000000000000000000000006020830152604082019050919050565b60006020820190508181036000830152620005e1816200051c565b9050919050565b6000602082019050818103600083015262000603816200055e565b9050919050565b600082825260208201905092915050565b61269b806200062b6000396000f3fe608060405234801561001057600080fd5b506004361061012c5760003560e01c806395d89b41116100ad578063aa271e1a11610071578063aa271e1a14610357578063d505accf14610387578063dab400f3146103a3578063dd62ed3e146103c1578063e879c19f146103f15761012c565b806395d89b41146102b3578063983b2d56146102d157806398650275146102ed578063a457c2d7146102f7578063a9059cbb146103275761012c565b806339509351116100f457806339509351146101eb57806340c10f191461021b57806342966c681461024b57806370a082311461026757806379cc6790146102975761012c565b806306fdde0314610131578063095ea7b31461014f57806318160ddd1461017f57806323b872dd1461019d578063313ce567146101cd575b600080fd5b61013961040f565b6040516101469190612202565b60405180910390f35b61016960048036036101649190810190611b9e565b6104b1565b6040516101769190612126565b60405180910390f35b6101876104cf565b6040516101949190612384565b60405180910390f35b6101b760048036036101b29190810190611ab1565b6104d9565b6040516101c49190612126565b60405180910390f35b6101d5610577565b6040516101e2919061239f565b60405180910390f35b61020560048036036102009190810190611b9e565b61058e565b6040516102129190612126565b60405180910390f35b61023560048036036102309190810190611b9e565b610641565b6040516102429190612126565b60405180910390f35b61026560048036036102609190810190611bda565b6106a6565b005b610281600480360361027c9190810190611a4c565b6106ba565b60405161028e9190612384565b60405180910390f35b6102b160048036036102ac9190810190611b9e565b610703565b005b6102bb610711565b6040516102c89190612202565b60405180910390f35b6102eb60048036036102e69190810190611a4c565b6107b3565b005b6102f561080e565b005b610311600480360361030c9190810190611b9e565b610820565b60405161031e9190612126565b60405180910390f35b610341600480360361033c9190810190611b9e565b6108ed565b60405161034e9190612126565b60405180910390f35b610371600480360361036c9190810190611a4c565b61090b565b60405161037e9190612126565b60405180910390f35b6103a1600480360361039c9190810190611b00565b610928565b005b6103ab610b83565b6040516103b89190612141565b60405180910390f35b6103db60048036036103d69190810190611a75565b610b89565b6040516103e89190612384565b60405180910390f35b6103f9610c10565b6040516104069190612141565b60405180910390f35b606060018054600181600116156101000203166002900480601f0160208091040260200160405190810160405280929190818152602001828054600181600116156101000203166002900480156104a75780601f1061047c576101008083540402835291602001916104a7565b820191906000526020600020905b81548152906001019060200180831161048a57829003601f168201915b5050505050905090565b60006104c56104be610c37565b8484610c3f565b6001905092915050565b6000600654905090565b60006104e6848484610e0a565b7fffffffffffffffffffffffffffffffffffffffffffffffffffffffffffffffff61051885610513610c37565b610b89565b1461056c5761056b84610529610c37565b6105668560405180606001604052806029815260200161260b602991396105578a610552610c37565b610b89565b6110989092919063ffffffff16565b610c3f565b5b600190509392505050565b6000600360009054906101000a900460ff16905090565b600061063761059b610c37565b8461063285600560006105ac610c37565b73ffffffffffffffffffffffffffffffffffffffff1673ffffffffffffffffffffffffffffffffffffffff16815260200190815260200160002060008973ffffffffffffffffffffffffffffffffffffffff1673ffffffffffffffffffffffffffffffffffffffff168152602001908152602001600020546110f390919063ffffffff16565b610c3f565b6001905092915050565b600061065361064e610c37565b61090b565b610692576040517f08c379a0000000000000000000000000000000000000000000000000000000008152600401610689906122a4565b60405180910390fd5b61069c8383611148565b6001905092915050565b6106b76106b1610c37565b826112d2565b50565b6000600460008373ffffffffffffffffffffffffffffffffffffffff1673ffffffffffffffffffffffffffffffffffffffff168152602001908152602001600020549050919050565b61070d8282611476565b5050565b606060028054600181600116156101000203166002900480601f0160208091040260200160405190810160405280929190818152602001828054600181600116156101000203166002900480156107a95780601f1061077e576101008083540402835291602001916107a9565b820191906000526020600020905b81548152906001019060200180831161078c57829003601f168201915b5050505050905090565b6107c36107be610c37565b61090b565b610802576040517f08c379a00000000000000000000000000000000000000000000000000000000081526004016107f9906122a4565b60405180910390fd5b61080b81611545565b50565b61081e610819610c37565b61159f565b565b60006108e361082d610c37565b846108de856040518060600160405280602581526020016126346025913960056000610857610c37565b73ffffffffffffffffffffffffffffffffffffffff1673ffffffffffffffffffffffffffffffffffffffff16815260200190815260200160002060008a73ffffffffffffffffffffffffffffffffffffffff1673ffffffffffffffffffffffffffffffffffffffff168152602001908152602001600020546110989092919063ffffffff16565b610c3f565b6001905092915050565b60006109016108fa610c37565b8484610e0a565b6001905092915050565b60006109218260006115f990919063ffffffff16565b9050919050565b60006109d66007547f6e71edae12b1b97f4d1f60370fef10105fa2faae0126114a169c64845d6126c960001b8a8a8a600860008f73ffffffffffffffffffffffffffffffffffffffff1673ffffffffffffffffffffffffffffffffffffffff1681526020019081526020016000206000815480929190600101919050558b6040516020016109bb9695949392919061215c565b604051602081830303815290604052805190602001206116c1565b90506000600182868686604051600081526020016040526040516109fd94939291906121bd565b6020604051602081039080840390855afa158015610a1f573d6000803e3d6000fd5b505050602060405103519050610aa48973ffffffffffffffffffffffffffffffffffffffff168273ffffffffffffffffffffffffffffffffffffffff16147f5065726d69747461626c650000000000000000000000000000000000000000007f496e76616c6964207369676e6174757265000000000000000000000000000000611705565b610b1f600073ffffffffffffffffffffffffffffffffffffffff168273ffffffffffffffffffffffffffffffffffffffff1614157f5065726d69747461626c650000000000000000000000000000000000000000007f5a65726f20616464726573730000000000000000000000000000000000000000611705565b610b6d864211157f5065726d69747461626c650000000000000000000000000000000000000000007f4578706972656400000000000000000000000000000000000000000000000000611705565b610b78898989610c3f565b505050505050505050565b60075481565b6000600560008473ffffffffffffffffffffffffffffffffffffffff1673ffffffffffffffffffffffffffffffffffffffff16815260200190815260200160002060008373ffffffffffffffffffffffffffffffffffffffff1673ffffffffffffffffffffffffffffffffffffffff16815260200190815260200160002054905092915050565b7f6e71edae12b1b97f4d1f60370fef10105fa2faae0126114a169c64845d6126c960001b81565b600033905090565b600073ffffffffffffffffffffffffffffffffffffffff168373ffffffffffffffffffffffffffffffffffffffff161415610caf576040517f08c379a0000000000000000000000000000000000000000000000000000000008152600401610ca690612344565b60405180910390fd5b600073ffffffffffffffffffffffffffffffffffffffff168273ffffffffffffffffffffffffffffffffffffffff161415610d1f576040517f08c379a0000000000000000000000000000000000000000000000000000000008152600401610d1690612264565b60405180910390fd5b80600560008573ffffffffffffffffffffffffffffffffffffffff1673ffffffffffffffffffffffffffffffffffffffff16815260200190815260200160002060008473ffffffffffffffffffffffffffffffffffffffff1673ffffffffffffffffffffffffffffffffffffffff168152602001908152602001600020819055508173ffffffffffffffffffffffffffffffffffffffff168373ffffffffffffffffffffffffffffffffffffffff167f8c5be1e5ebec7d5bd14f71427d1e84f3dd0314c0f7b2291e5b200ac8c7c3b92583604051610dfd9190612384565b60405180910390a3505050565b600073ffffffffffffffffffffffffffffffffffffffff168373ffffffffffffffffffffffffffffffffffffffff161415610e7a576040517f08c379a0000000000000000000000000000000000000000000000000000000008152600401610e7190612324565b60405180910390fd5b600073ffffffffffffffffffffffffffffffffffffffff168273ffffffffffffffffffffffffffffffffffffffff161415610eea576040517f08c379a0000000000000000000000000000000000000000000000000000000008152600401610ee190612224565b60405180910390fd5b610f56816040518060600160405280602681526020016125c160269139600460008773ffffffffffffffffffffffffffffffffffffffff1673ffffffffffffffffffffffffffffffffffffffff168152602001908152602001600020546110989092919063ffffffff16565b600460008573ffffffffffffffffffffffffffffffffffffffff1673ffffffffffffffffffffffffffffffffffffffff16815260200190815260200160002081905550610feb81600460008573ffffffffffffffffffffffffffffffffffffffff1673ffffffffffffffffffffffffffffffffffffffff168152602001908152602001600020546110f390919063ffffffff16565b600460008473ffffffffffffffffffffffffffffffffffffffff1673ffffffffffffffffffffffffffffffffffffffff168152602001908152602001600020819055508173ffffffffffffffffffffffffffffffffffffffff168373ffffffffffffffffffffffffffffffffffffffff167fddf252ad1be2c89b69c2b068fc378daa952ba7f163c4a11628f55a4df523b3ef8360405161108b9190612384565b60405180910390a3505050565b60008383111582906110e0576040517f08c379a00000000000000000000000000000000000000000000000000000000081526004016110d79190612202565b60405180910390fd5b5060008385039050809150509392505050565b60008082840190508381101561113e576040517f08c379a000000000000000000000000000000000000000000000000000000000815260040161113590612284565b60405180910390fd5b8091505092915050565b600073ffffffffffffffffffffffffffffffffffffffff168273ffffffffffffffffffffffffffffffffffffffff1614156111b8576040517f08c379a00000000000000000000000000000000000000000000000000000000081526004016111af90612364565b60405180910390fd5b6111cd816006546110f390919063ffffffff16565b60068190555061122581600460008573ffffffffffffffffffffffffffffffffffffffff1673ffffffffffffffffffffffffffffffffffffffff168152602001908152602001600020546110f390919063ffffffff16565b600460008473ffffffffffffffffffffffffffffffffffffffff1673ffffffffffffffffffffffffffffffffffffffff168152602001908152602001600020819055508173ffffffffffffffffffffffffffffffffffffffff16600073ffffffffffffffffffffffffffffffffffffffff167fddf252ad1be2c89b69c2b068fc378daa952ba7f163c4a11628f55a4df523b3ef836040516112c69190612384565b60405180910390a35050565b600073ffffffffffffffffffffffffffffffffffffffff168273ffffffffffffffffffffffffffffffffffffffff161415611342576040517f08c379a000000000000000000000000000000000000000000000000000000000815260040161133990612304565b60405180910390fd5b6113ae8160405180606001604052806022815260200161259f60229139600460008673ffffffffffffffffffffffffffffffffffffffff1673ffffffffffffffffffffffffffffffffffffffff168152602001908152602001600020546110989092919063ffffffff16565b600460008473ffffffffffffffffffffffffffffffffffffffff1673ffffffffffffffffffffffffffffffffffffffff168152602001908152602001600020819055506114068160065461178490919063ffffffff16565b600681905550600073ffffffffffffffffffffffffffffffffffffffff168273ffffffffffffffffffffffffffffffffffffffff167fddf252ad1be2c89b69c2b068fc378daa952ba7f163c4a11628f55a4df523b3ef8360405161146a9190612384565b60405180910390a35050565b61148082826112d2565b6115418261148c610c37565b61153c846040518060600160405280602481526020016125e760249139600560008973ffffffffffffffffffffffffffffffffffffffff1673ffffffffffffffffffffffffffffffffffffffff16815260200190815260200160002060006114f2610c37565b73ffffffffffffffffffffffffffffffffffffffff1673ffffffffffffffffffffffffffffffffffffffff168152602001908152602001600020546110989092919063ffffffff16565b610c3f565b5050565b6115598160006117ce90919063ffffffff16565b8073ffffffffffffffffffffffffffffffffffffffff167f6ae172837ea30b801fbfcdd4108aa1d5bf8ff775444fd70256b44e6bf3dfc3f660405160405180910390a250565b6115b381600061187690919063ffffffff16565b8073ffffffffffffffffffffffffffffffffffffffff167fe94479a9f7e1952cc78f2d6baab678adc1b772d936c6583def489e524cb6669260405160405180910390a250565b60008073ffffffffffffffffffffffffffffffffffffffff168273ffffffffffffffffffffffffffffffffffffffff16141561166a576040517f08c379a0000000000000000000000000000000000000000000000000000000008152600401611661906122e4565b60405180910390fd5b8260000160008373ffffffffffffffffffffffffffffffffffffffff1673ffffffffffffffffffffffffffffffffffffffff16815260200190815260200160002060009054906101000a900460ff16905092915050565b60006040517f190100000000000000000000000000000000000000000000000000000000000081528360028201528260228201526042812091505080905092915050565b8261177f576117138261191d565b613a2060f01b6117228361191d565b604051602001611734939291906120f1565b6040516020818303038152906040526040517f08c379a00000000000000000000000000000000000000000000000000000000081526004016117769190612202565b60405180910390fd5b505050565b60006117c683836040518060400160405280601e81526020017f536166654d6174683a207375627472616374696f6e206f766572666c6f770000815250611098565b905092915050565b6117d882826115f9565b15611818576040517f08c379a000000000000000000000000000000000000000000000000000000000815260040161180f90612244565b60405180910390fd5b60018260000160008373ffffffffffffffffffffffffffffffffffffffff1673ffffffffffffffffffffffffffffffffffffffff16815260200190815260200160002060006101000a81548160ff0219169083151502179055505050565b61188082826115f9565b6118bf576040517f08c379a00000000000000000000000000000000000000000000000000000000081526004016118b6906122c4565b60405180910390fd5b60008260000160008373ffffffffffffffffffffffffffffffffffffffff1673ffffffffffffffffffffffffffffffffffffffff16815260200190815260200160002060006101000a81548160ff0219169083151502179055505050565b6060808260405160200161193191906120d6565b60405160208183030381529060405290506000602090505b60008111156119b957808060019003915050600060f81b82828151811061196c57fe5b602001015160f81c60f81b7effffffffffffffffffffffffffffffffffffffffffffffffffffffffffffff1916146119b45760006001820190508083528293505050506119f3565b611949565b5060006040519080825280601f01601f1916602001820160405280156119ee5781602001600182028038833980820191505090505b509150505b919050565b600081359050611a07816124cf565b92915050565b600081359050611a1c816124e6565b92915050565b600081359050611a31816124fd565b92915050565b600081359050611a4681612514565b92915050565b600060208284031215611a5e57600080fd5b6000611a6c848285016119f8565b91505092915050565b60008060408385031215611a8857600080fd5b6000611a96858286016119f8565b9250506020611aa7858286016119f8565b9150509250929050565b600080600060608486031215611ac657600080fd5b6000611ad4868287016119f8565b9350506020611ae5868287016119f8565b9250506040611af686828701611a22565b9150509250925092565b600080600080600080600060e0888a031215611b1b57600080fd5b6000611b298a828b016119f8565b9750506020611b3a8a828b016119f8565b9650506040611b4b8a828b01611a22565b9550506060611b5c8a828b01611a22565b9450506080611b6d8a828b01611a37565b93505060a0611b7e8a828b01611a0d565b92505060c0611b8f8a828b01611a0d565b91505092959891949750929550565b60008060408385031215611bb157600080fd5b6000611bbf858286016119f8565b9250506020611bd085828601611a22565b9150509250929050565b600060208284031215611bec57600080fd5b6000611bfa84828501611a22565b91505092915050565b611c0c816123ec565b82525050565b611c1b816123fe565b82525050565b611c32611c2d8261240a565b6124aa565b82525050565b611c4181612436565b82525050565b611c58611c5382612436565b6124b4565b82525050565b6000611c69826123ba565b611c7381856123d0565b9350611c83818560208601612477565b80840191505092915050565b6000611c9a826123c5565b611ca481856123db565b9350611cb4818560208601612477565b611cbd816124be565b840191505092915050565b6000611cd56023836123db565b91507f45524332303a207472616e7366657220746f20746865207a65726f206164647260008301527f65737300000000000000000000000000000000000000000000000000000000006020830152604082019050919050565b6000611d3b601f836123db565b91507f526f6c65733a206163636f756e7420616c72656164792068617320726f6c65006000830152602082019050919050565b6000611d7b6022836123db565b91507f45524332303a20617070726f766520746f20746865207a65726f20616464726560008301527f73730000000000000000000000000000000000000000000000000000000000006020830152604082019050919050565b6000611de1601b836123db565b91507f536166654d6174683a206164646974696f6e206f766572666c6f7700000000006000830152602082019050919050565b6000611e216030836123db565b91507f4d696e746572526f6c653a2063616c6c657220646f6573206e6f74206861766560008301527f20746865204d696e74657220726f6c65000000000000000000000000000000006020830152604082019050919050565b6000611e876021836123db565b91507f526f6c65733a206163636f756e7420646f6573206e6f74206861766520726f6c60008301527f65000000000000000000000000000000000000000000000000000000000000006020830152604082019050919050565b6000611eed6022836123db565b91507f526f6c65733a206163636f756e7420697320746865207a65726f20616464726560008301527f73730000000000000000000000000000000000000000000000000000000000006020830152604082019050919050565b6000611f536021836123db565b91507f45524332303a206275726e2066726f6d20746865207a65726f2061646472657360008301527f73000000000000000000000000000000000000000000000000000000000000006020830152604082019050919050565b6000611fb96025836123db565b91507f45524332303a207472616e736665722066726f6d20746865207a65726f20616460008301527f64726573730000000000000000000000000000000000000000000000000000006020830152604082019050919050565b600061201f6024836123db565b91507f45524332303a20617070726f76652066726f6d20746865207a65726f2061646460008301527f72657373000000000000000000000000000000000000000000000000000000006020830152604082019050919050565b6000612085601f836123db565b91507f45524332303a206d696e7420746f20746865207a65726f2061646472657373006000830152602082019050919050565b6120c181612460565b82525050565b6120d08161246a565b82525050565b60006120e28284611c47565b60208201915081905092915050565b60006120fd8286611c5e565b91506121098285611c21565b6002820191506121198284611c5e565b9150819050949350505050565b600060208201905061213b6000830184611c12565b92915050565b60006020820190506121566000830184611c38565b92915050565b600060c0820190506121716000830189611c38565b61217e6020830188611c03565b61218b6040830187611c03565b61219860608301866120b8565b6121a560808301856120b8565b6121b260a08301846120b8565b979650505050505050565b60006080820190506121d26000830187611c38565b6121df60208301866120c7565b6121ec6040830185611c38565b6121f96060830184611c38565b95945050505050565b6000602082019050818103600083015261221c8184611c8f565b905092915050565b6000602082019050818103600083015261223d81611cc8565b9050919050565b6000602082019050818103600083015261225d81611d2e565b9050919050565b6000602082019050818103600083015261227d81611d6e565b9050919050565b6000602082019050818103600083015261229d81611dd4565b9050919050565b600060208201905081810360008301526122bd81611e14565b9050919050565b600060208201905081810360008301526122dd81611e7a565b9050919050565b600060208201905081810360008301526122fd81611ee0565b9050919050565b6000602082019050818103600083015261231d81611f46565b9050919050565b6000602082019050818103600083015261233d81611fac565b9050919050565b6000602082019050818103600083015261235d81612012565b9050919050565b6000602082019050818103600083015261237d81612078565b9050919050565b600060208201905061239960008301846120b8565b92915050565b60006020820190506123b460008301846120c7565b92915050565b600081519050919050565b600081519050919050565b600081905092915050565b600082825260208201905092915050565b60006123f782612440565b9050919050565b60008115159050919050565b60007fffff00000000000000000000000000000000000000000000000000000000000082169050919050565b6000819050919050565b600073ffffffffffffffffffffffffffffffffffffffff82169050919050565b6000819050919050565b600060ff82169050919050565b60005b8381101561249557808201518184015260208101905061247a565b838111156124a4576000848401525b50505050565b6000819050919050565b6000819050919050565b6000601f19601f8301169050919050565b6124d8816123ec565b81146124e357600080fd5b50565b6124ef81612436565b81146124fa57600080fd5b50565b61250681612460565b811461251157600080fd5b50565b61251d8161246a565b811461252857600080fd5b50565b60006001905090565b6000807f8b73c3c69bb8fe3d512ecc4cf759cc79239f7b179b0ffacaa9a75d522b39400f60001b9050855160208701208551602087012060405183815282602082015281604082015286606082015285608082015260a0812094505050508191505094935050505056fe45524332303a206275726e20616d6f756e7420657863656564732062616c616e636545524332303a207472616e7366657220616d6f756e7420657863656564732062616c616e636545524332303a206275726e20616d6f756e74206578636565647320616c6c6f77616e6365446f6c6c61723a207472616e7366657220616d6f756e74206578636565647320616c6c6f77616e636545524332303a2064656372656173656420616c6c6f77616e63652062656c6f77207a65726fa365627a7a723158206734b8460df4bb349338b8ec670444aa1df0138af460167a16f64a927eb3d6146c6578706572696d656e74616cf564736f6c63430005110040",
  "source": "/*\n    Copyright 2020 Empty Set Squad <emptysetsquad@protonmail.com>\n\n    Licensed under the Apache License, Version 2.0 (the \"License\");\n    you may not use this file except in compliance with the License.\n    You may obtain a copy of the License at\n\n    http://www.apache.org/licenses/LICENSE-2.0\n\n    Unless required by applicable law or agreed to in writing, software\n    distributed under the License is distributed on an \"AS IS\" BASIS,\n    WITHOUT WARRANTIES OR CONDITIONS OF ANY KIND, either express or implied.\n    See the License for the specific language governing permissions and\n    limitations under the License.\n*/\n\npragma solidity ^0.5.17;\npragma experimental ABIEncoderV2;\n\nimport \"./MockState.sol\";\nimport \"../dao/Stabilizer.sol\";\nimport \"./MockComptroller.sol\";\n\ncontract MockStabilizer is MockState, MockComptroller, Stabilizer {\n    constructor(address pool) MockComptroller(pool) public { }\n\n    function stepE() external {\n        super.step();\n    }\n}\n",
  "sourcePath": "/Users/gokulalex/Apps/eth_apps/SemiotNet/contracts/mock/MockStabilizer.sol",
  "compiler": {
    "name": "solc",
    "version": "0.5.17+commit.d19bba13.Emscripten.clang"
  },
  "schemaVersion": "3.3.3",
  "updatedAt": "2021-02-19T15:49:23.693Z",
  "devdoc": {
    "methods": {}
  },
  "userdoc": {
    "methods": {
      "balanceOfStaged(address)": {
        "notice": "Account"
      },
      "createCandidateE(address,uint256)": {
        "notice": "Governance"
      },
      "dollar()": {
        "notice": "Global"
      },
      "epoch()": {
        "notice": "Epoch"
      },
      "incrementBalanceOfE(address,uint256)": {
        "notice": "Account"
      },
      "incrementTotalBondedE(uint256)": {
        "notice": "Global"
      },
      "name()": {
        "notice": "ERC20 Interface"
      },
      "recordedVote(address,address)": {
        "notice": "Governance"
      },
      "setBlockTimestamp(uint256)": {
        "notice": "Mock"
      },
      "setEpochParamsE(uint256,uint256)": {
        "notice": "Epoch"
      },
      "transfer(address,uint256)": {
        "notice": "ERC20 Interface"
      }
    }
  }
}