{
  "contractName": "MockUniswapV2PairTrade",
  "abi": [
    {
      "anonymous": false,
      "inputs": [
        {
          "indexed": true,
          "internalType": "address",
          "name": "owner",
          "type": "address"
        },
        {
          "indexed": true,
          "internalType": "address",
          "name": "spender",
          "type": "address"
        },
        {
          "indexed": false,
          "internalType": "uint256",
          "name": "value",
          "type": "uint256"
        }
      ],
      "name": "Approval",
      "type": "event"
    },
    {
      "anonymous": false,
      "inputs": [
        {
          "indexed": true,
          "internalType": "address",
          "name": "sender",
          "type": "address"
        },
        {
          "indexed": false,
          "internalType": "uint256",
          "name": "amount0",
          "type": "uint256"
        },
        {
          "indexed": false,
          "internalType": "uint256",
          "name": "amount1",
          "type": "uint256"
        },
        {
          "indexed": true,
          "internalType": "address",
          "name": "to",
          "type": "address"
        }
      ],
      "name": "Burn",
      "type": "event"
    },
    {
      "anonymous": false,
      "inputs": [
        {
          "indexed": true,
          "internalType": "address",
          "name": "sender",
          "type": "address"
        },
        {
          "indexed": false,
          "internalType": "uint256",
          "name": "amount0",
          "type": "uint256"
        },
        {
          "indexed": false,
          "internalType": "uint256",
          "name": "amount1",
          "type": "uint256"
        }
      ],
      "name": "Mint",
      "type": "event"
    },
    {
      "anonymous": false,
      "inputs": [
        {
          "indexed": true,
          "internalType": "address",
          "name": "sender",
          "type": "address"
        },
        {
          "indexed": false,
          "internalType": "uint256",
          "name": "amount0In",
          "type": "uint256"
        },
        {
          "indexed": false,
          "internalType": "uint256",
          "name": "amount1In",
          "type": "uint256"
        },
        {
          "indexed": false,
          "internalType": "uint256",
          "name": "amount0Out",
          "type": "uint256"
        },
        {
          "indexed": false,
          "internalType": "uint256",
          "name": "amount1Out",
          "type": "uint256"
        },
        {
          "indexed": true,
          "internalType": "address",
          "name": "to",
          "type": "address"
        }
      ],
      "name": "Swap",
      "type": "event"
    },
    {
      "anonymous": false,
      "inputs": [
        {
          "indexed": false,
          "internalType": "uint112",
          "name": "reserve0",
          "type": "uint112"
        },
        {
          "indexed": false,
          "internalType": "uint112",
          "name": "reserve1",
          "type": "uint112"
        }
      ],
      "name": "Sync",
      "type": "event"
    },
    {
      "anonymous": false,
      "inputs": [
        {
          "indexed": true,
          "internalType": "address",
          "name": "from",
          "type": "address"
        },
        {
          "indexed": true,
          "internalType": "address",
          "name": "to",
          "type": "address"
        },
        {
          "indexed": false,
          "internalType": "uint256",
          "name": "value",
          "type": "uint256"
        }
      ],
      "name": "Transfer",
      "type": "event"
    },
    {
      "constant": true,
      "inputs": [],
      "name": "price0CumulativeLast",
      "outputs": [
        {
          "internalType": "uint256",
          "name": "",
          "type": "uint256"
        }
      ],
      "payable": false,
      "stateMutability": "view",
      "type": "function"
    },
    {
      "constant": true,
      "inputs": [],
      "name": "price1CumulativeLast",
      "outputs": [
        {
          "internalType": "uint256",
          "name": "",
          "type": "uint256"
        }
      ],
      "payable": false,
      "stateMutability": "view",
      "type": "function"
    },
    {
      "constant": true,
      "inputs": [],
      "name": "getReserves",
      "outputs": [
        {
          "internalType": "uint112",
          "name": "",
          "type": "uint112"
        },
        {
          "internalType": "uint112",
          "name": "",
          "type": "uint112"
        },
        {
          "internalType": "uint32",
          "name": "",
          "type": "uint32"
        }
      ],
      "payable": false,
      "stateMutability": "view",
      "type": "function"
    },
    {
      "constant": false,
      "inputs": [
        {
          "internalType": "uint112",
          "name": "newReserve0",
          "type": "uint112"
        },
        {
          "internalType": "uint112",
          "name": "newReserve1",
          "type": "uint112"
        }
      ],
      "name": "simulateTrade",
      "outputs": [],
      "payable": false,
      "stateMutability": "nonpayable",
      "type": "function"
    },
    {
      "constant": true,
      "inputs": [],
      "name": "name",
      "outputs": [
        {
          "internalType": "string",
          "name": "",
          "type": "string"
        }
      ],
      "payable": false,
      "stateMutability": "pure",
      "type": "function"
    },
    {
      "constant": true,
      "inputs": [],
      "name": "symbol",
      "outputs": [
        {
          "internalType": "string",
          "name": "",
          "type": "string"
        }
      ],
      "payable": false,
      "stateMutability": "pure",
      "type": "function"
    },
    {
      "constant": true,
      "inputs": [],
      "name": "decimals",
      "outputs": [
        {
          "internalType": "uint8",
          "name": "",
          "type": "uint8"
        }
      ],
      "payable": false,
      "stateMutability": "pure",
      "type": "function"
    },
    {
      "constant": true,
      "inputs": [],
      "name": "totalSupply",
      "outputs": [
        {
          "internalType": "uint256",
          "name": "",
          "type": "uint256"
        }
      ],
      "payable": false,
      "stateMutability": "view",
      "type": "function"
    },
    {
      "constant": true,
      "inputs": [
        {
          "internalType": "address",
          "name": "owner",
          "type": "address"
        }
      ],
      "name": "balanceOf",
      "outputs": [
        {
          "internalType": "uint256",
          "name": "",
          "type": "uint256"
        }
      ],
      "payable": false,
      "stateMutability": "view",
      "type": "function"
    },
    {
      "constant": true,
      "inputs": [
        {
          "internalType": "address",
          "name": "owner",
          "type": "address"
        },
        {
          "internalType": "address",
          "name": "spender",
          "type": "address"
        }
      ],
      "name": "allowance",
      "outputs": [
        {
          "internalType": "uint256",
          "name": "",
          "type": "uint256"
        }
      ],
      "payable": false,
      "stateMutability": "view",
      "type": "function"
    },
    {
      "constant": false,
      "inputs": [
        {
          "internalType": "address",
          "name": "spender",
          "type": "address"
        },
        {
          "internalType": "uint256",
          "name": "value",
          "type": "uint256"
        }
      ],
      "name": "approve",
      "outputs": [
        {
          "internalType": "bool",
          "name": "",
          "type": "bool"
        }
      ],
      "payable": false,
      "stateMutability": "nonpayable",
      "type": "function"
    },
    {
      "constant": false,
      "inputs": [
        {
          "internalType": "address",
          "name": "to",
          "type": "address"
        },
        {
          "internalType": "uint256",
          "name": "value",
          "type": "uint256"
        }
      ],
      "name": "transfer",
      "outputs": [
        {
          "internalType": "bool",
          "name": "",
          "type": "bool"
        }
      ],
      "payable": false,
      "stateMutability": "nonpayable",
      "type": "function"
    },
    {
      "constant": false,
      "inputs": [
        {
          "internalType": "address",
          "name": "from",
          "type": "address"
        },
        {
          "internalType": "address",
          "name": "to",
          "type": "address"
        },
        {
          "internalType": "uint256",
          "name": "value",
          "type": "uint256"
        }
      ],
      "name": "transferFrom",
      "outputs": [
        {
          "internalType": "bool",
          "name": "",
          "type": "bool"
        }
      ],
      "payable": false,
      "stateMutability": "nonpayable",
      "type": "function"
    },
    {
      "constant": true,
      "inputs": [],
      "name": "DOMAIN_SEPARATOR",
      "outputs": [
        {
          "internalType": "bytes32",
          "name": "",
          "type": "bytes32"
        }
      ],
      "payable": false,
      "stateMutability": "view",
      "type": "function"
    },
    {
      "constant": true,
      "inputs": [],
      "name": "PERMIT_TYPEHASH",
      "outputs": [
        {
          "internalType": "bytes32",
          "name": "",
          "type": "bytes32"
        }
      ],
      "payable": false,
      "stateMutability": "pure",
      "type": "function"
    },
    {
      "constant": true,
      "inputs": [
        {
          "internalType": "address",
          "name": "owner",
          "type": "address"
        }
      ],
      "name": "nonces",
      "outputs": [
        {
          "internalType": "uint256",
          "name": "",
          "type": "uint256"
        }
      ],
      "payable": false,
      "stateMutability": "view",
      "type": "function"
    },
    {
      "constant": false,
      "inputs": [
        {
          "internalType": "address",
          "name": "owner",
          "type": "address"
        },
        {
          "internalType": "address",
          "name": "spender",
          "type": "address"
        },
        {
          "internalType": "uint256",
          "name": "value",
          "type": "uint256"
        },
        {
          "internalType": "uint256",
          "name": "deadline",
          "type": "uint256"
        },
        {
          "internalType": "uint8",
          "name": "v",
          "type": "uint8"
        },
        {
          "internalType": "bytes32",
          "name": "r",
          "type": "bytes32"
        },
        {
          "internalType": "bytes32",
          "name": "s",
          "type": "bytes32"
        }
      ],
      "name": "permit",
      "outputs": [],
      "payable": false,
      "stateMutability": "nonpayable",
      "type": "function"
    },
    {
      "constant": true,
      "inputs": [],
      "name": "MINIMUM_LIQUIDITY",
      "outputs": [
        {
          "internalType": "uint256",
          "name": "",
          "type": "uint256"
        }
      ],
      "payable": false,
      "stateMutability": "pure",
      "type": "function"
    },
    {
      "constant": true,
      "inputs": [],
      "name": "factory",
      "outputs": [
        {
          "internalType": "address",
          "name": "",
          "type": "address"
        }
      ],
      "payable": false,
      "stateMutability": "view",
      "type": "function"
    },
    {
      "constant": true,
      "inputs": [],
      "name": "token0",
      "outputs": [
        {
          "internalType": "address",
          "name": "",
          "type": "address"
        }
      ],
      "payable": false,
      "stateMutability": "view",
      "type": "function"
    },
    {
      "constant": true,
      "inputs": [],
      "name": "token1",
      "outputs": [
        {
          "internalType": "address",
          "name": "",
          "type": "address"
        }
      ],
      "payable": false,
      "stateMutability": "view",
      "type": "function"
    },
    {
      "constant": true,
      "inputs": [],
      "name": "kLast",
      "outputs": [
        {
          "internalType": "uint256",
          "name": "",
          "type": "uint256"
        }
      ],
      "payable": false,
      "stateMutability": "view",
      "type": "function"
    },
    {
      "constant": false,
      "inputs": [
        {
          "internalType": "address",
          "name": "to",
          "type": "address"
        }
      ],
      "name": "mint",
      "outputs": [
        {
          "internalType": "uint256",
          "name": "liquidity",
          "type": "uint256"
        }
      ],
      "payable": false,
      "stateMutability": "nonpayable",
      "type": "function"
    },
    {
      "constant": false,
      "inputs": [
        {
          "internalType": "address",
          "name": "to",
          "type": "address"
        }
      ],
      "name": "burn",
      "outputs": [
        {
          "internalType": "uint256",
          "name": "amount0",
          "type": "uint256"
        },
        {
          "internalType": "uint256",
          "name": "amount1",
          "type": "uint256"
        }
      ],
      "payable": false,
      "stateMutability": "nonpayable",
      "type": "function"
    },
    {
      "constant": false,
      "inputs": [
        {
          "internalType": "uint256",
          "name": "amount0Out",
          "type": "uint256"
        },
        {
          "internalType": "uint256",
          "name": "amount1Out",
          "type": "uint256"
        },
        {
          "internalType": "address",
          "name": "to",
          "type": "address"
        },
        {
          "internalType": "bytes",
          "name": "data",
          "type": "bytes"
        }
      ],
      "name": "swap",
      "outputs": [],
      "payable": false,
      "stateMutability": "nonpayable",
      "type": "function"
    },
    {
      "constant": false,
      "inputs": [
        {
          "internalType": "address",
          "name": "to",
          "type": "address"
        }
      ],
      "name": "skim",
      "outputs": [],
      "payable": false,
      "stateMutability": "nonpayable",
      "type": "function"
    },
    {
      "constant": false,
      "inputs": [],
      "name": "sync",
      "outputs": [],
      "payable": false,
      "stateMutability": "nonpayable",
      "type": "function"
    },
    {
      "constant": false,
      "inputs": [
        {
          "internalType": "address",
          "name": "",
          "type": "address"
        },
        {
          "internalType": "address",
          "name": "",
          "type": "address"
        }
      ],
      "name": "initialize",
      "outputs": [],
      "payable": false,
      "stateMutability": "nonpayable",
      "type": "function"
    }
  ],
  "bytecode": "0x608060405234801561001057600080fd5b50611600806100206000396000f3fe608060405234801561001057600080fd5b50600436106101c45760003560e01c806370a08231116100f9578063bc25cf7711610097578063d21220a711610071578063d21220a714610512578063d505accf14610530578063dd62ed3e1461054c578063fff6cae91461057c576101c4565b8063bc25cf77146104bc578063bc3cfbb4146104d8578063c45a0155146104f4576101c4565b806389afcb44116100d357806389afcb441461041f57806395d89b4114610450578063a9059cbb1461046e578063ba9a7a561461049e576101c4565b806370a08231146103a15780637464fc3d146103d15780637ecebe00146103ef576101c4565b806330adf81f11610166578063485cc95511610140578063485cc955146103195780635909c0d5146103355780635a3d5493146103535780636a62784214610371576101c4565b806330adf81f146102bf578063313ce567146102dd5780633644e515146102fb576101c4565b8063095ea7b3116101a2578063095ea7b3146102235780630dfe16811461025357806318160ddd1461027157806323b872dd1461028f576101c4565b8063022c0d9f146101c957806306fdde03146101e55780630902f1ac14610203575b600080fd5b6101e360048036036101de9190810190611176565b610586565b005b6101ed6105c1565b6040516101fa9190611369565b60405180910390f35b61020b6105fe565b60405161021a939291906113cb565b60405180910390f35b61023d600480360361023891908101906110fe565b61065a565b60405161024a9190611333565b60405180910390f35b61025b610697565b6040516102689190611318565b60405180910390f35b6102796106d4565b6040516102869190611402565b60405180910390f35b6102a960048036036102a49190810190611011565b610711565b6040516102b69190611333565b60405180910390f35b6102c761074e565b6040516102d4919061134e565b60405180910390f35b6102e561078b565b6040516102f29190611446565b60405180910390f35b6103036107c8565b604051610310919061134e565b60405180910390f35b610333600480360361032e9190810190610fd5565b610805565b005b61033d610840565b60405161034a9190611402565b60405180910390f35b61035b610846565b6040516103689190611402565b60405180910390f35b61038b60048036036103869190810190610fac565b61084c565b6040516103989190611402565b60405180910390f35b6103bb60048036036103b69190810190610fac565b610889565b6040516103c89190611402565b60405180910390f35b6103d96108c6565b6040516103e69190611402565b60405180910390f35b61040960048036036104049190810190610fac565b610903565b6040516104169190611402565b60405180910390f35b61043960048036036104349190810190610fac565b610940565b60405161044792919061141d565b60405180910390f35b61045861097e565b6040516104659190611369565b60405180910390f35b610488600480360361048391908101906110fe565b6109bb565b6040516104959190611333565b60405180910390f35b6104a66109f8565b6040516104b39190611402565b60405180910390f35b6104d660048036036104d19190810190610fac565b610a35565b005b6104f260048036036104ed919081019061113a565b610a70565b005b6104fc610c9f565b6040516105099190611318565b60405180910390f35b61051a610cdc565b6040516105279190611318565b60405180910390f35b61054a60048036036105459190810190611060565b610d19565b005b61056660048036036105619190810190610fd5565b610d54565b6040516105739190611402565b60405180910390f35b610584610d91565b005b6040517f08c379a00000000000000000000000000000000000000000000000000000000081526004016105b89061138b565b60405180910390fd5b60606040517f08c379a00000000000000000000000000000000000000000000000000000000081526004016105f59061138b565b60405180910390fd5b60008060008060009054906101000a90046dffffffffffffffffffffffffffff166000600e9054906101000a90046dffffffffffffffffffffffffffff166000601c9054906101000a900463ffffffff16925092509250909192565b60006040517f08c379a000000000000000000000000000000000000000000000000000000000815260040161068e9061138b565b60405180910390fd5b60006040517f08c379a00000000000000000000000000000000000000000000000000000000081526004016106cb9061138b565b60405180910390fd5b60006040517f08c379a00000000000000000000000000000000000000000000000000000000081526004016107089061138b565b60405180910390fd5b60006040517f08c379a00000000000000000000000000000000000000000000000000000000081526004016107459061138b565b60405180910390fd5b60006040517f08c379a00000000000000000000000000000000000000000000000000000000081526004016107829061138b565b60405180910390fd5b60006040517f08c379a00000000000000000000000000000000000000000000000000000000081526004016107bf9061138b565b60405180910390fd5b60006040517f08c379a00000000000000000000000000000000000000000000000000000000081526004016107fc9061138b565b60405180910390fd5b6040517f08c379a00000000000000000000000000000000000000000000000000000000081526004016108379061138b565b60405180910390fd5b60015481565b60025481565b60006040517f08c379a00000000000000000000000000000000000000000000000000000000081526004016108809061138b565b60405180910390fd5b60006040517f08c379a00000000000000000000000000000000000000000000000000000000081526004016108bd9061138b565b60405180910390fd5b60006040517f08c379a00000000000000000000000000000000000000000000000000000000081526004016108fa9061138b565b60405180910390fd5b60006040517f08c379a00000000000000000000000000000000000000000000000000000000081526004016109379061138b565b60405180910390fd5b6000806040517f08c379a00000000000000000000000000000000000000000000000000000000081526004016109759061138b565b60405180910390fd5b60606040517f08c379a00000000000000000000000000000000000000000000000000000000081526004016109b29061138b565b60405180910390fd5b60006040517f08c379a00000000000000000000000000000000000000000000000000000000081526004016109ef9061138b565b60405180910390fd5b60006040517f08c379a0000000000000000000000000000000000000000000000000000000008152600401610a2c9061138b565b60405180910390fd5b6040517f08c379a0000000000000000000000000000000000000000000000000000000008152600401610a679061138b565b60405180910390fd5b60006401000000004281610a8057fe5b069050600080601c9054906101000a900463ffffffff168203905060008163ffffffff16118015610add575060008060009054906101000a90046dffffffffffffffffffffffffffff166dffffffffffffffffffffffffffff1614155b8015610b155750600080600e9054906101000a90046dffffffffffffffffffffffffffff166dffffffffffffffffffffffffffff1614155b15610c0f578063ffffffff16610b626000600e9054906101000a90046dffffffffffffffffffffffffffff166000809054906101000a90046dffffffffffffffffffffffffffff16610dcc565b600001517bffffffffffffffffffffffffffffffffffffffffffffffffffffffff16026001600082825401925050819055508063ffffffff16610bdc6000809054906101000a90046dffffffffffffffffffffffffffff166000600e9054906101000a90046dffffffffffffffffffffffffffff16610dcc565b600001517bffffffffffffffffffffffffffffffffffffffffffffffffffffffff16026002600082825401925050819055505b836000806101000a8154816dffffffffffffffffffffffffffff02191690836dffffffffffffffffffffffffffff160217905550826000600e6101000a8154816dffffffffffffffffffffffffffff02191690836dffffffffffffffffffffffffffff160217905550816000601c6101000a81548163ffffffff021916908363ffffffff16021790555050505050565b60006040517f08c379a0000000000000000000000000000000000000000000000000000000008152600401610cd39061138b565b60405180910390fd5b60006040517f08c379a0000000000000000000000000000000000000000000000000000000008152600401610d109061138b565b60405180910390fd5b6040517f08c379a0000000000000000000000000000000000000000000000000000000008152600401610d4b9061138b565b60405180910390fd5b60006040517f08c379a0000000000000000000000000000000000000000000000000000000008152600401610d889061138b565b60405180910390fd5b6040517f08c379a0000000000000000000000000000000000000000000000000000000008152600401610dc39061138b565b60405180910390fd5b610dd4610ec8565b6000826dffffffffffffffffffffffffffff1611610e27576040517f08c379a0000000000000000000000000000000000000000000000000000000008152600401610e1e906113ab565b60405180910390fd5b6040518060200160405280836dffffffffffffffffffffffffffff16607060ff16866dffffffffffffffffffffffffffff167bffffffffffffffffffffffffffffffffffffffffffffffffffffffff16901b7bffffffffffffffffffffffffffffffffffffffffffffffffffffffff1681610e9e57fe5b047bffffffffffffffffffffffffffffffffffffffffffffffffffffffff16815250905092915050565b604051806020016040528060007bffffffffffffffffffffffffffffffffffffffffffffffffffffffff1681525090565b600081359050610f088161154a565b92915050565b600081359050610f1d81611561565b92915050565b60008083601f840112610f3557600080fd5b8235905067ffffffffffffffff811115610f4e57600080fd5b602083019150836001820283011115610f6657600080fd5b9250929050565b600081359050610f7c81611578565b92915050565b600081359050610f918161158f565b92915050565b600081359050610fa6816115a6565b92915050565b600060208284031215610fbe57600080fd5b6000610fcc84828501610ef9565b91505092915050565b60008060408385031215610fe857600080fd5b6000610ff685828601610ef9565b925050602061100785828601610ef9565b9150509250929050565b60008060006060848603121561102657600080fd5b600061103486828701610ef9565b935050602061104586828701610ef9565b925050604061105686828701610f82565b9150509250925092565b600080600080600080600060e0888a03121561107b57600080fd5b60006110898a828b01610ef9565b975050602061109a8a828b01610ef9565b96505060406110ab8a828b01610f82565b95505060606110bc8a828b01610f82565b94505060806110cd8a828b01610f97565b93505060a06110de8a828b01610f0e565b92505060c06110ef8a828b01610f0e565b91505092959891949750929550565b6000806040838503121561111157600080fd5b600061111f85828601610ef9565b925050602061113085828601610f82565b9150509250929050565b6000806040838503121561114d57600080fd5b600061115b85828601610f6d565b925050602061116c85828601610f6d565b9150509250929050565b60008060008060006080868803121561118e57600080fd5b600061119c88828901610f82565b95505060206111ad88828901610f82565b94505060406111be88828901610ef9565b935050606086013567ffffffffffffffff8111156111db57600080fd5b6111e788828901610f23565b92509250509295509295909350565b6111ff8161147d565b82525050565b61120e8161148f565b82525050565b61121d8161149b565b82525050565b600061122e82611461565b611238818561146c565b9350611248818560208601611506565b61125181611539565b840191505092915050565b6000611269600e8361146c565b91507f53686f756c64206e6f74207573650000000000000000000000000000000000006000830152602082019050919050565b60006112a960178361146c565b91507f4669786564506f696e743a204449565f42595f5a45524f0000000000000000006000830152602082019050919050565b6112e5816114a5565b82525050565b6112f4816114df565b82525050565b611303816114e9565b82525050565b611312816114f9565b82525050565b600060208201905061132d60008301846111f6565b92915050565b60006020820190506113486000830184611205565b92915050565b60006020820190506113636000830184611214565b92915050565b600060208201905081810360008301526113838184611223565b905092915050565b600060208201905081810360008301526113a48161125c565b9050919050565b600060208201905081810360008301526113c48161129c565b9050919050565b60006060820190506113e060008301866112dc565b6113ed60208301856112dc565b6113fa60408301846112fa565b949350505050565b600060208201905061141760008301846112eb565b92915050565b600060408201905061143260008301856112eb565b61143f60208301846112eb565b9392505050565b600060208201905061145b6000830184611309565b92915050565b600081519050919050565b600082825260208201905092915050565b6000611488826114bf565b9050919050565b60008115159050919050565b6000819050919050565b60006dffffffffffffffffffffffffffff82169050919050565b600073ffffffffffffffffffffffffffffffffffffffff82169050919050565b6000819050919050565b600063ffffffff82169050919050565b600060ff82169050919050565b60005b83811015611524578082015181840152602081019050611509565b83811115611533576000848401525b50505050565b6000601f19601f8301169050919050565b6115538161147d565b811461155e57600080fd5b50565b61156a8161149b565b811461157557600080fd5b50565b611581816114a5565b811461158c57600080fd5b50565b611598816114df565b81146115a357600080fd5b50565b6115af816114f9565b81146115ba57600080fd5b5056fea365627a7a72315820826a04cabd394f75b6e727dd295f36737430f1973d8285c7f2d23b52bd70d60d6c6578706572696d656e74616cf564736f6c63430005110040",
  "source": "/*\n    Copyright 2020 Empty Set Squad <emptysetsquad@protonmail.com>\n\n    Licensed under the Apache License, Version 2.0 (the \"License\");\n    you may not use this file except in compliance with the License.\n    You may obtain a copy of the License at\n\n    http://www.apache.org/licenses/LICENSE-2.0\n\n    Unless required by applicable law or agreed to in writing, software\n    distributed under the License is distributed on an \"AS IS\" BASIS,\n    WITHOUT WARRANTIES OR CONDITIONS OF ANY KIND, either express or implied.\n    See the License for the specific language governing permissions and\n    limitations under the License.\n*/\n\npragma solidity ^0.5.17;\npragma experimental ABIEncoderV2;\n\nimport '@uniswap/lib/contracts/libraries/FixedPoint.sol';\nimport '@uniswap/v2-core/contracts/interfaces/IUniswapV2Pair.sol';\n\ncontract MockUniswapV2PairTrade is IUniswapV2Pair {\n    uint112 private reserve0;           // uses single storage slot, accessible via getReserves\n    uint112 private reserve1;           // uses single storage slot, accessible via getReserves\n    uint32  private blockTimestampLast; // uses single storage slot, accessible via getReserves\n\n    uint public price0CumulativeLast;\n    uint public price1CumulativeLast;\n\n    function getReserves() external view returns (uint112, uint112, uint32) {\n        return (reserve0, reserve1, blockTimestampLast);\n    }\n\n    function simulateTrade(uint112 newReserve0, uint112 newReserve1) external {\n        uint32 blockTimestamp = uint32(block.timestamp % 2 ** 32);\n        uint32 timeElapsed = blockTimestamp - blockTimestampLast;\n        if (timeElapsed > 0 && reserve0 != 0 && reserve1 != 0) {\n            price0CumulativeLast += uint(FixedPoint.fraction(reserve1, reserve0)._x) * timeElapsed;\n            price1CumulativeLast += uint(FixedPoint.fraction(reserve0, reserve1)._x) * timeElapsed;\n        }\n        reserve0 = newReserve0;\n        reserve1 = newReserve1;\n        blockTimestampLast = blockTimestamp;\n    }\n\n    /**\n     * Should not use\n     */\n    function name() external pure returns (string memory) { revert(\"Should not use\"); }\n    function symbol() external pure returns (string memory) { revert(\"Should not use\"); }\n    function decimals() external pure returns (uint8) { revert(\"Should not use\"); }\n    function totalSupply() external view returns (uint) { revert(\"Should not use\"); }\n    function balanceOf(address owner) external view returns (uint) { revert(\"Should not use\"); }\n    function allowance(address owner, address spender) external view returns (uint) { revert(\"Should not use\"); }\n\n    function approve(address spender, uint value) external returns (bool) { revert(\"Should not use\"); }\n    function transfer(address to, uint value) external returns (bool) { revert(\"Should not use\"); }\n    function transferFrom(address from, address to, uint value) external returns (bool) { revert(\"Should not use\"); }\n\n    function DOMAIN_SEPARATOR() external view returns (bytes32) { revert(\"Should not use\"); }\n    function PERMIT_TYPEHASH() external pure returns (bytes32) { revert(\"Should not use\"); }\n    function nonces(address owner) external view returns (uint) { revert(\"Should not use\"); }\n\n    function permit(address owner, address spender, uint value, uint deadline, uint8 v, bytes32 r, bytes32 s) external { revert(\"Should not use\"); }\n\n    function MINIMUM_LIQUIDITY() external pure returns (uint) { revert(\"Should not use\"); }\n    function factory() external view returns (address) { revert(\"Should not use\"); }\n    function token0() external view returns (address) { revert(\"Should not use\"); }\n    function token1() external view returns (address) { revert(\"Should not use\"); }\n    function kLast() external view returns (uint) { revert(\"Should not use\"); }\n\n    function mint(address to) external returns (uint liquidity) { revert(\"Should not use\"); }\n    function burn(address to) external returns (uint amount0, uint amount1) { revert(\"Should not use\"); }\n    function swap(uint amount0Out, uint amount1Out, address to, bytes calldata data) external { revert(\"Should not use\"); }\n    function skim(address to) external { revert(\"Should not use\"); }\n    function sync() external { revert(\"Should not use\"); }\n\n    function initialize(address, address) external { revert(\"Should not use\"); }\n}\n",
  "sourcePath": "/Users/gokulalex/Apps/eth_apps/SemiotNet/contracts/mock/MockUniswapV2PairTrade.sol",
  "compiler": {
    "name": "solc",
    "version": "0.5.17+commit.d19bba13.Emscripten.clang"
  },
  "schemaVersion": "3.3.3",
  "updatedAt": "2021-02-19T15:49:23.725Z",
  "devdoc": {
    "methods": {}
  },
  "userdoc": {
    "methods": {
      "name()": {
        "notice": "Should not use"
      }
    }
  }
}