{
  "contractName": "MockPool",
  "abi": [
    {
      "inputs": [
        {
          "internalType": "address",
          "name": "usdc",
          "type": "address"
        }
      ],
      "payable": false,
      "stateMutability": "nonpayable",
      "type": "constructor"
    },
    {
      "anonymous": false,
      "inputs": [
        {
          "indexed": true,
          "internalType": "address",
          "name": "account",
          "type": "address"
        },
        {
          "indexed": false,
          "internalType": "uint256",
          "name": "start",
          "type": "uint256"
        },
        {
          "indexed": false,
          "internalType": "uint256",
          "name": "value",
          "type": "uint256"
        }
      ],
      "name": "Bond",
      "type": "event"
    },
    {
      "anonymous": false,
      "inputs": [
        {
          "indexed": true,
          "internalType": "address",
          "name": "account",
          "type": "address"
        },
        {
          "indexed": false,
          "internalType": "uint256",
          "name": "value",
          "type": "uint256"
        }
      ],
      "name": "Claim",
      "type": "event"
    },
    {
      "anonymous": false,
      "inputs": [
        {
          "indexed": true,
          "internalType": "address",
          "name": "account",
          "type": "address"
        },
        {
          "indexed": false,
          "internalType": "uint256",
          "name": "value",
          "type": "uint256"
        }
      ],
      "name": "Deposit",
      "type": "event"
    },
    {
      "anonymous": false,
      "inputs": [
        {
          "indexed": true,
          "internalType": "address",
          "name": "account",
          "type": "address"
        },
        {
          "indexed": false,
          "internalType": "uint256",
          "name": "value",
          "type": "uint256"
        },
        {
          "indexed": false,
          "internalType": "uint256",
          "name": "lessUsdc",
          "type": "uint256"
        },
        {
          "indexed": false,
          "internalType": "uint256",
          "name": "newUniv2",
          "type": "uint256"
        }
      ],
      "name": "Provide",
      "type": "event"
    },
    {
      "anonymous": false,
      "inputs": [
        {
          "indexed": true,
          "internalType": "address",
          "name": "account",
          "type": "address"
        },
        {
          "indexed": false,
          "internalType": "uint256",
          "name": "start",
          "type": "uint256"
        },
        {
          "indexed": false,
          "internalType": "uint256",
          "name": "value",
          "type": "uint256"
        },
        {
          "indexed": false,
          "internalType": "uint256",
          "name": "newClaimable",
          "type": "uint256"
        }
      ],
      "name": "Unbond",
      "type": "event"
    },
    {
      "anonymous": false,
      "inputs": [
        {
          "indexed": true,
          "internalType": "address",
          "name": "account",
          "type": "address"
        },
        {
          "indexed": false,
          "internalType": "uint256",
          "name": "value",
          "type": "uint256"
        }
      ],
      "name": "Withdraw",
      "type": "event"
    },
    {
      "constant": true,
      "inputs": [
        {
          "internalType": "address",
          "name": "account",
          "type": "address"
        }
      ],
      "name": "balanceOfBonded",
      "outputs": [
        {
          "internalType": "uint256",
          "name": "",
          "type": "uint256"
        }
      ],
      "payable": false,
      "stateMutability": "view",
      "type": "function"
    },
    {
      "constant": true,
      "inputs": [
        {
          "internalType": "address",
          "name": "account",
          "type": "address"
        }
      ],
      "name": "balanceOfClaimable",
      "outputs": [
        {
          "internalType": "uint256",
          "name": "",
          "type": "uint256"
        }
      ],
      "payable": false,
      "stateMutability": "view",
      "type": "function"
    },
    {
      "constant": true,
      "inputs": [
        {
          "internalType": "address",
          "name": "account",
          "type": "address"
        }
      ],
      "name": "balanceOfPhantom",
      "outputs": [
        {
          "internalType": "uint256",
          "name": "",
          "type": "uint256"
        }
      ],
      "payable": false,
      "stateMutability": "view",
      "type": "function"
    },
    {
      "constant": true,
      "inputs": [
        {
          "internalType": "address",
          "name": "account",
          "type": "address"
        }
      ],
      "name": "balanceOfRewarded",
      "outputs": [
        {
          "internalType": "uint256",
          "name": "",
          "type": "uint256"
        }
      ],
      "payable": false,
      "stateMutability": "view",
      "type": "function"
    },
    {
      "constant": true,
      "inputs": [
        {
          "internalType": "address",
          "name": "account",
          "type": "address"
        }
      ],
      "name": "balanceOfStaged",
      "outputs": [
        {
          "internalType": "uint256",
          "name": "",
          "type": "uint256"
        }
      ],
      "payable": false,
      "stateMutability": "view",
      "type": "function"
    },
    {
      "constant": false,
      "inputs": [
        {
          "internalType": "uint256",
          "name": "value",
          "type": "uint256"
        }
      ],
      "name": "bond",
      "outputs": [],
      "payable": false,
      "stateMutability": "nonpayable",
      "type": "function"
    },
    {
      "constant": false,
      "inputs": [
        {
          "internalType": "uint256",
          "name": "value",
          "type": "uint256"
        }
      ],
      "name": "claim",
      "outputs": [],
      "payable": false,
      "stateMutability": "nonpayable",
      "type": "function"
    },
    {
      "constant": false,
      "inputs": [
        {
          "internalType": "uint256",
          "name": "value",
          "type": "uint256"
        }
      ],
      "name": "deposit",
      "outputs": [],
      "payable": false,
      "stateMutability": "nonpayable",
      "type": "function"
    },
    {
      "constant": false,
      "inputs": [],
      "name": "emergencyPause",
      "outputs": [],
      "payable": false,
      "stateMutability": "nonpayable",
      "type": "function"
    },
    {
      "constant": false,
      "inputs": [
        {
          "internalType": "address",
          "name": "token",
          "type": "address"
        },
        {
          "internalType": "uint256",
          "name": "value",
          "type": "uint256"
        }
      ],
      "name": "emergencyWithdraw",
      "outputs": [],
      "payable": false,
      "stateMutability": "nonpayable",
      "type": "function"
    },
    {
      "constant": true,
      "inputs": [],
      "name": "paused",
      "outputs": [
        {
          "internalType": "bool",
          "name": "",
          "type": "bool"
        }
      ],
      "payable": false,
      "stateMutability": "view",
      "type": "function"
    },
    {
      "constant": false,
      "inputs": [
        {
          "internalType": "uint256",
          "name": "value",
          "type": "uint256"
        }
      ],
      "name": "provide",
      "outputs": [],
      "payable": false,
      "stateMutability": "nonpayable",
      "type": "function"
    },
    {
      "constant": true,
      "inputs": [
        {
          "internalType": "address",
          "name": "account",
          "type": "address"
        }
      ],
      "name": "statusOf",
      "outputs": [
        {
          "internalType": "enum PoolAccount.Status",
          "name": "",
          "type": "uint8"
        }
      ],
      "payable": false,
      "stateMutability": "view",
      "type": "function"
    },
    {
      "constant": true,
      "inputs": [],
      "name": "totalBonded",
      "outputs": [
        {
          "internalType": "uint256",
          "name": "",
          "type": "uint256"
        }
      ],
      "payable": false,
      "stateMutability": "view",
      "type": "function"
    },
    {
      "constant": true,
      "inputs": [],
      "name": "totalClaimable",
      "outputs": [
        {
          "internalType": "uint256",
          "name": "",
          "type": "uint256"
        }
      ],
      "payable": false,
      "stateMutability": "view",
      "type": "function"
    },
    {
      "constant": true,
      "inputs": [],
      "name": "totalPhantom",
      "outputs": [
        {
          "internalType": "uint256",
          "name": "",
          "type": "uint256"
        }
      ],
      "payable": false,
      "stateMutability": "view",
      "type": "function"
    },
    {
      "constant": true,
      "inputs": [],
      "name": "totalRewarded",
      "outputs": [
        {
          "internalType": "uint256",
          "name": "",
          "type": "uint256"
        }
      ],
      "payable": false,
      "stateMutability": "view",
      "type": "function"
    },
    {
      "constant": true,
      "inputs": [],
      "name": "totalStaged",
      "outputs": [
        {
          "internalType": "uint256",
          "name": "",
          "type": "uint256"
        }
      ],
      "payable": false,
      "stateMutability": "view",
      "type": "function"
    },
    {
      "constant": false,
      "inputs": [
        {
          "internalType": "uint256",
          "name": "value",
          "type": "uint256"
        }
      ],
      "name": "unbond",
      "outputs": [],
      "payable": false,
      "stateMutability": "nonpayable",
      "type": "function"
    },
    {
      "constant": false,
      "inputs": [
        {
          "internalType": "uint256",
          "name": "value",
          "type": "uint256"
        }
      ],
      "name": "withdraw",
      "outputs": [],
      "payable": false,
      "stateMutability": "nonpayable",
      "type": "function"
    },
    {
      "constant": false,
      "inputs": [
        {
          "internalType": "address",
          "name": "dao",
          "type": "address"
        },
        {
          "internalType": "address",
          "name": "dollar",
          "type": "address"
        },
        {
          "internalType": "address",
          "name": "univ2",
          "type": "address"
        }
      ],
      "name": "set",
      "outputs": [],
      "payable": false,
      "stateMutability": "nonpayable",
      "type": "function"
    },
    {
      "constant": true,
      "inputs": [],
      "name": "usdc",
      "outputs": [
        {
          "internalType": "address",
          "name": "",
          "type": "address"
        }
      ],
      "payable": false,
      "stateMutability": "view",
      "type": "function"
    },
    {
      "constant": true,
      "inputs": [],
      "name": "dao",
      "outputs": [
        {
          "internalType": "contract IDAO",
          "name": "",
          "type": "address"
        }
      ],
      "payable": false,
      "stateMutability": "view",
      "type": "function"
    },
    {
      "constant": true,
      "inputs": [],
      "name": "dollar",
      "outputs": [
        {
          "internalType": "contract IDollar",
          "name": "",
          "type": "address"
        }
      ],
      "payable": false,
      "stateMutability": "view",
      "type": "function"
    },
    {
      "constant": true,
      "inputs": [],
      "name": "univ2",
      "outputs": [
        {
          "internalType": "contract IERC20",
          "name": "",
          "type": "address"
        }
      ],
      "payable": false,
      "stateMutability": "view",
      "type": "function"
    }
  ],
  "bytecode": "0x60806040523480156200001157600080fd5b50604051620030d9380380620030d9833981810160405262000037919081019062000096565b80600660006101000a81548173ffffffffffffffffffffffffffffffffffffffff021916908373ffffffffffffffffffffffffffffffffffffffff1602179055505062000110565b6000815190506200009081620000f6565b92915050565b600060208284031215620000a957600080fd5b6000620000b9848285016200007f565b91505092915050565b6000620000cf82620000d6565b9050919050565b600073ffffffffffffffffffffffffffffffffffffffff82169050919050565b6200010181620000c2565b81146200010d57600080fd5b50565b612fb980620001206000396000f3fe608060405234801561001057600080fd5b50600436106101735760003560e01c80635c975abb116100de57806397a5d5b511610097578063b6b55f2511610071578063b6b55f2514610426578063c0d7a94f14610442578063cf02377914610472578063e0cf72851461049057610173565b806397a5d5b5146103bc5780639940686e146103ec578063aed29d071461040857610173565b80635c975abb146102e85780637298d36e14610306578063825ad60714610324578063832092591461035457806386cf9f141461037057806395ccea67146103a057610173565b80633e413bee116101305780633e413bee146102485780634162169f1461026657806344d96e95146102845780634838ed19146102a257806351858e27146102c057806351adeb57146102ca57610173565b80631667eb171461017857806327de9e32146101a857806329f32ed4146101c45780632e1a7d4d146101f45780632e2ebe0614610210578063379607f51461022c575b600080fd5b610192600480360361018d91908101906125dd565b6104ae565b60405161019f9190612bfa565b60405180910390f35b6101c260048036036101bd9190810190612709565b6104fc565b005b6101de60048036036101d991908101906125dd565b610696565b6040516101eb9190612bfa565b60405180910390f35b61020e60048036036102099190810190612709565b6106e4565b005b61022a60048036036102259190810190612709565b610863565b005b61024660048036036102419190810190612709565b610b22565b005b610250610ca1565b60405161025d9190612a2d565b60405180910390f35b61026e610ccb565b60405161027b9190612aec565b60405180910390f35b61028c610cf5565b6040516102999190612bfa565b60405180910390f35b6102aa610d04565b6040516102b79190612bfa565b60405180910390f35b6102c8610d13565b005b6102d2610d9d565b6040516102df9190612b07565b60405180910390f35b6102f0610dc7565b6040516102fd9190612ad1565b60405180910390f35b61030e610de0565b60405161031b9190612b22565b60405180910390f35b61033e600480360361033991908101906125dd565b610e0a565b60405161034b9190612bfa565b60405180910390f35b61036e60048036036103699190810190612606565b610e58565b005b61038a600480360361038591908101906125dd565b610f20565b6040516103979190612bfa565b60405180910390f35b6103ba60048036036103b59190810190612655565b610f6e565b005b6103d660048036036103d191908101906125dd565b611087565b6040516103e39190612b3d565b60405180910390f35b61040660048036036104019190810190612709565b6110ed565b005b610410611291565b60405161041d9190612bfa565b60405180910390f35b610440600480360361043b9190810190612709565b611341565b005b61045c600480360361045791908101906125dd565b6114fc565b6040516104699190612bfa565b60405180910390f35b61047a6115b3565b6040516104879190612bfa565b60405180910390f35b6104986115c2565b6040516104a59190612bfa565b60405180910390f35b60008060050160008373ffffffffffffffffffffffffffffffffffffffff1673ffffffffffffffffffffffffffffffffffffffff168152602001908152602001600020600101549050919050565b610505336115d1565b600061051033610e0a565b9050610560600082117f506f6f6c000000000000000000000000000000000000000000000000000000007f696e73756666696369656e7420626f6e6465642062616c616e6365000000000061163e565b600061058f8261058185610573336114fc565b6116bd90919063ffffffff16565b61172d90919063ffffffff16565b905060006105c0836105b2866105a433610696565b6116bd90919063ffffffff16565b61172d90919063ffffffff16565b90506105cc3385611777565b6105d63383611841565b6105f93385604051806060016040528060218152602001612f566021913961190b565b61061c3382604051806060016040528060228152602001612f13602291396119da565b610624611aa9565b3373ffffffffffffffffffffffffffffffffffffffff167f93530ac0ee8c50e696e13c5ac62355d0c0ba4bd943620d5bda1eb08b64ae75126106776001610669611ba8565b611c3490919063ffffffff16565b868560405161068893929190612c3e565b60405180910390a250505050565b60008060050160008373ffffffffffffffffffffffffffffffffffffffff1673ffffffffffffffffffffffffffffffffffffffff168152602001908152602001600020600301549050919050565b33610751600060028111156106f557fe5b6106fe83611087565b600281111561070957fe5b147f506f6f6c000000000000000000000000000000000000000000000000000000007f4e6f742066726f7a656e0000000000000000000000000000000000000000000061163e565b610759610de0565b73ffffffffffffffffffffffffffffffffffffffff1663a9059cbb33846040518363ffffffff1660e01b8152600401610793929190612a7f565b602060405180830381600087803b1580156107ad57600080fd5b505af11580156107c1573d6000803e3d6000fd5b505050506040513d601f19601f820116820180604052506107e59190810190612691565b506108093383604051806060016040528060218152602001612f3560219139611c89565b610811611aa9565b3373ffffffffffffffffffffffffffffffffffffffff167f884edad9ce6fa2440d8a54cc123490eb96d2768479d49ff9c7366125a9424364836040516108579190612bfa565b60405180910390a25050565b336108d06000600281111561087457fe5b61087d83611087565b600281111561088857fe5b147f506f6f6c000000000000000000000000000000000000000000000000000000007f4e6f742066726f7a656e0000000000000000000000000000000000000000000061163e565b6109236108db610dc7565b157f506f6f6c000000000000000000000000000000000000000000000000000000007f506175736564000000000000000000000000000000000000000000000000000061163e565b6109786000610930610cf5565b117f506f6f6c000000000000000000000000000000000000000000000000000000007f696e73756666696369656e7420746f74616c20626f6e6465640000000000000061163e565b6109cd6000610985611291565b117f506f6f6c000000000000000000000000000000000000000000000000000000007f696e73756666696369656e7420746f74616c207265776172646564000000000061163e565b610a23826109da336114fc565b10157f506f6f6c000000000000000000000000000000000000000000000000000000007f696e73756666696369656e742072657761726465642062616c616e636500000061163e565b600080610a2f84611d58565b915091506000610a6885610a5a610a446115c2565b610a4c611291565b611c3490919063ffffffff16565b611c3490919063ffffffff16565b90506000610a98610a77610cf5565b610a8a85856116bd90919063ffffffff16565b61172d90919063ffffffff16565b9050610aa43384611f71565b610ac033610abb8389611c3490919063ffffffff16565b61203b565b610ac8611aa9565b3373ffffffffffffffffffffffffffffffffffffffff167fbe9d8078818a53534ce225882a00e0c6f709b5296c8a08c3a1f23f9ffd448380878686604051610b1293929190612c3e565b60405180910390a2505050505050565b33610b8f60006002811115610b3357fe5b610b3c83611087565b6002811115610b4757fe5b147f506f6f6c000000000000000000000000000000000000000000000000000000007f4e6f742066726f7a656e0000000000000000000000000000000000000000000061163e565b610b97610d9d565b73ffffffffffffffffffffffffffffffffffffffff1663a9059cbb33846040518363ffffffff1660e01b8152600401610bd1929190612a7f565b602060405180830381600087803b158015610beb57600080fd5b505af1158015610bff573d6000803e3d6000fd5b505050506040513d601f19601f82011682018060405250610c239190810190612691565b50610c473383604051806060016040528060248152602001612eef60249139612105565b610c4f611aa9565b3373ffffffffffffffffffffffffffffffffffffffff167f47cee97cb7acd717b3c0aa1435d004cd5b3c8c57d70dbceb4e4458bbd60e39d483604051610c959190612bfa565b60405180910390a25050565b6000600660009054906101000a900473ffffffffffffffffffffffffffffffffffffffff16905090565b6000600760009054906101000a900473ffffffffffffffffffffffffffffffffffffffff16905090565b60008060000160020154905090565b60008060000160010154905090565b610d93610d1e610ccb565b73ffffffffffffffffffffffffffffffffffffffff163373ffffffffffffffffffffffffffffffffffffffff16147f506f6f6c000000000000000000000000000000000000000000000000000000007f4e6f742064616f0000000000000000000000000000000000000000000000000061163e565b610d9b6121d4565b565b6000600860009054906101000a900473ffffffffffffffffffffffffffffffffffffffff16905090565b60008060040160009054906101000a900460ff16905090565b6000600960009054906101000a900473ffffffffffffffffffffffffffffffffffffffff16905090565b60008060050160008373ffffffffffffffffffffffffffffffffffffffff1673ffffffffffffffffffffffffffffffffffffffff168152602001908152602001600020600201549050919050565b82600760006101000a81548173ffffffffffffffffffffffffffffffffffffffff021916908373ffffffffffffffffffffffffffffffffffffffff16021790555081600860006101000a81548173ffffffffffffffffffffffffffffffffffffffff021916908373ffffffffffffffffffffffffffffffffffffffff16021790555080600960006101000a81548173ffffffffffffffffffffffffffffffffffffffff021916908373ffffffffffffffffffffffffffffffffffffffff160217905550505050565b60008060050160008373ffffffffffffffffffffffffffffffffffffffff1673ffffffffffffffffffffffffffffffffffffffff168152602001908152602001600020600001549050919050565b610fee610f79610ccb565b73ffffffffffffffffffffffffffffffffffffffff163373ffffffffffffffffffffffffffffffffffffffff16147f506f6f6c000000000000000000000000000000000000000000000000000000007f4e6f742064616f0000000000000000000000000000000000000000000000000061163e565b8173ffffffffffffffffffffffffffffffffffffffff1663a9059cbb611012610ccb565b836040518363ffffffff1660e01b8152600401611030929190612aa8565b602060405180830381600087803b15801561104a57600080fd5b505af115801561105e573d6000803e3d6000fd5b505050506040513d601f19601f820116820180604052506110829190810190612691565b505050565b60008060050160008373ffffffffffffffffffffffffffffffffffffffff1673ffffffffffffffffffffffffffffffffffffffff168152602001908152602001600020600401546110d6611ba8565b10156110e35760016110e6565b60005b9050919050565b6111406110f8610dc7565b157f506f6f6c000000000000000000000000000000000000000000000000000000007f506175736564000000000000000000000000000000000000000000000000000061163e565b611149336115d1565b600061116c6111566115c2565b61115e611291565b611c3490919063ffffffff16565b9050600080611179610cf5565b146111af576111aa611189610cf5565b61119c85856116bd90919063ffffffff16565b61172d90919063ffffffff16565b6111e1565b60006111b9611291565b146111c55760006111e0565b6111df836111d16121f4565b6116bd90919063ffffffff16565b5b5b90506111ed3384611f71565b6111f7338261203b565b61121a3384604051806060016040528060218152602001612f3560219139611c89565b611222611aa9565b3373ffffffffffffffffffffffffffffffffffffffff167f3ae9ad26d7d47616d306d7757b947fe7b0f9a7c61a5f0dc784b0ddb6c7c40b5a6112756001611267611ba8565b611c3490919063ffffffff16565b85604051611284929190612c15565b60405180910390a2505050565b600061133c61129e610d04565b6112a6610d9d565b73ffffffffffffffffffffffffffffffffffffffff166370a08231306040518263ffffffff1660e01b81526004016112de9190612a2d565b60206040518083038186803b1580156112f657600080fd5b505afa15801561130a573d6000803e3d6000fd5b505050506040513d601f19601f8201168201806040525061132e9190810190612732565b6121ff90919063ffffffff16565b905090565b336113ae6000600281111561135257fe5b61135b83611087565b600281111561136657fe5b147f506f6f6c000000000000000000000000000000000000000000000000000000007f4e6f742066726f7a656e0000000000000000000000000000000000000000000061163e565b6114016113b9610dc7565b157f506f6f6c000000000000000000000000000000000000000000000000000000007f506175736564000000000000000000000000000000000000000000000000000061163e565b611409610de0565b73ffffffffffffffffffffffffffffffffffffffff166323b872dd3330856040518463ffffffff1660e01b815260040161144593929190612a48565b602060405180830381600087803b15801561145f57600080fd5b505af1158015611473573d6000803e3d6000fd5b505050506040513d601f19601f820116820180604052506114979190810190612691565b506114a23383611777565b6114aa611aa9565b3373ffffffffffffffffffffffffffffffffffffffff167fe1fffcc4923d04b559f4d29a8bfc6cda04eb5b0d3c460751c2402c5c5cc9109c836040516114f09190612bfa565b60405180910390a25050565b600080611507610cf5565b9050600081141561151c5760009150506115ae565b600061153f6115296115c2565b611531611291565b611c3490919063ffffffff16565b905060006115708361156261155388610e0a565b856116bd90919063ffffffff16565b61172d90919063ffffffff16565b9050600061157d86610696565b9050808211156115a55761159a81836121ff90919063ffffffff16565b9450505050506115ae565b60009450505050505b919050565b60008060000160000154905090565b60008060000160030154905090565b6115f26115dc612249565b6115e4611ba8565b611c3490919063ffffffff16565b600060050160008373ffffffffffffffffffffffffffffffffffffffff1673ffffffffffffffffffffffffffffffffffffffff1681526020019081526020016000206004018190555050565b826116b85761164c82612252565b613a2060f01b61165b83612252565b60405160200161166d939291906129f8565b6040516020818303038152906040526040517f08c379a00000000000000000000000000000000000000000000000000000000081526004016116af9190612b58565b60405180910390fd5b505050565b6000808314156116d05760009050611727565b60008284029050828482816116e157fe5b0414611722576040517f08c379a000000000000000000000000000000000000000000000000000000000815260040161171990612bba565b60405180910390fd5b809150505b92915050565b600061176f83836040518060400160405280601a81526020017f536166654d6174683a206469766973696f6e206279207a65726f00000000000081525061232d565b905092915050565b6117cf81600060050160008573ffffffffffffffffffffffffffffffffffffffff1673ffffffffffffffffffffffffffffffffffffffff16815260200190815260200160002060000154611c3490919063ffffffff16565b600060050160008473ffffffffffffffffffffffffffffffffffffffff1673ffffffffffffffffffffffffffffffffffffffff16815260200190815260200160002060000181905550611832816000800160000154611c3490919063ffffffff16565b60008001600001819055505050565b61189981600060050160008573ffffffffffffffffffffffffffffffffffffffff1673ffffffffffffffffffffffffffffffffffffffff16815260200190815260200160002060010154611c3490919063ffffffff16565b600060050160008473ffffffffffffffffffffffffffffffffffffffff1673ffffffffffffffffffffffffffffffffffffffff168152602001908152602001600020600101819055506118fc816000800160010154611c3490919063ffffffff16565b60008001600101819055505050565b6119658282600060050160008773ffffffffffffffffffffffffffffffffffffffff1673ffffffffffffffffffffffffffffffffffffffff1681526020019081526020016000206002015461238e9092919063ffffffff16565b600060050160008573ffffffffffffffffffffffffffffffffffffffff1673ffffffffffffffffffffffffffffffffffffffff168152602001908152602001600020600201819055506119ca8282600080016002015461238e9092919063ffffffff16565b6000800160020181905550505050565b611a348282600060050160008773ffffffffffffffffffffffffffffffffffffffff1673ffffffffffffffffffffffffffffffffffffffff1681526020019081526020016000206003015461238e9092919063ffffffff16565b600060050160008573ffffffffffffffffffffffffffffffffffffffff1673ffffffffffffffffffffffffffffffffffffffff16815260200190815260200160002060030181905550611a998282600080016003015461238e9092919063ffffffff16565b6000800160030181905550505050565b611ba6611acd611ab7610cf5565b611abf6115b3565b611c3490919063ffffffff16565b611ad5610de0565b73ffffffffffffffffffffffffffffffffffffffff166370a08231306040518263ffffffff1660e01b8152600401611b0d9190612a2d565b60206040518083038186803b158015611b2557600080fd5b505afa158015611b39573d6000803e3d6000fd5b505050506040513d601f19601f82011682018060405250611b5d9190810190612732565b10157f506f6f6c000000000000000000000000000000000000000000000000000000007f496e636f6e73697374656e7420554e492d56322062616c616e6365730000000061163e565b565b6000611bb2610ccb565b73ffffffffffffffffffffffffffffffffffffffff1663900cf0cf6040518163ffffffff1660e01b815260040160206040518083038186803b158015611bf757600080fd5b505afa158015611c0b573d6000803e3d6000fd5b505050506040513d601f19601f82011682018060405250611c2f9190810190612732565b905090565b600080828401905083811015611c7f576040517f08c379a0000000000000000000000000000000000000000000000000000000008152600401611c7690612b7a565b60405180910390fd5b8091505092915050565b611ce38282600060050160008773ffffffffffffffffffffffffffffffffffffffff1673ffffffffffffffffffffffffffffffffffffffff1681526020019081526020016000206000015461238e9092919063ffffffff16565b600060050160008573ffffffffffffffffffffffffffffffffffffffff1673ffffffffffffffffffffffffffffffffffffffff16815260200190815260200160002060000181905550611d488282600080016000015461238e9092919063ffffffff16565b6000800160000181905550505050565b600080600080611d66610d9d565b611d6e610ca1565b91509150600080611d7f84846123e9565b9150915060008083148015611d945750600082145b611da857611da38884846124a7565b611daa565b875b90506000611db6610de0565b90508573ffffffffffffffffffffffffffffffffffffffff1663a9059cbb828b6040518363ffffffff1660e01b8152600401611df3929190612aa8565b602060405180830381600087803b158015611e0d57600080fd5b505af1158015611e21573d6000803e3d6000fd5b505050506040513d601f19601f82011682018060405250611e459190810190612691565b508473ffffffffffffffffffffffffffffffffffffffff166323b872dd3383856040518463ffffffff1660e01b8152600401611e8393929190612a48565b602060405180830381600087803b158015611e9d57600080fd5b505af1158015611eb1573d6000803e3d6000fd5b505050506040513d601f19601f82011682018060405250611ed59190810190612691565b50818173ffffffffffffffffffffffffffffffffffffffff16636a627842306040518263ffffffff1660e01b8152600401611f109190612a2d565b602060405180830381600087803b158015611f2a57600080fd5b505af1158015611f3e573d6000803e3d6000fd5b505050506040513d601f19601f82011682018060405250611f629190810190612732565b97509750505050505050915091565b611fc981600060050160008573ffffffffffffffffffffffffffffffffffffffff1673ffffffffffffffffffffffffffffffffffffffff16815260200190815260200160002060020154611c3490919063ffffffff16565b600060050160008473ffffffffffffffffffffffffffffffffffffffff1673ffffffffffffffffffffffffffffffffffffffff1681526020019081526020016000206002018190555061202c816000800160020154611c3490919063ffffffff16565b60008001600201819055505050565b61209381600060050160008573ffffffffffffffffffffffffffffffffffffffff1673ffffffffffffffffffffffffffffffffffffffff16815260200190815260200160002060030154611c3490919063ffffffff16565b600060050160008473ffffffffffffffffffffffffffffffffffffffff1673ffffffffffffffffffffffffffffffffffffffff168152602001908152602001600020600301819055506120f6816000800160030154611c3490919063ffffffff16565b60008001600301819055505050565b61215f8282600060050160008773ffffffffffffffffffffffffffffffffffffffff1673ffffffffffffffffffffffffffffffffffffffff1681526020019081526020016000206001015461238e9092919063ffffffff16565b600060050160008573ffffffffffffffffffffffffffffffffffffffff1673ffffffffffffffffffffffffffffffffffffffff168152602001908152602001600020600101819055506121c48282600080016001015461238e9092919063ffffffff16565b6000800160010181905550505050565b6001600060040160006101000a81548160ff021916908315150217905550565b6000620f4240905090565b600061224183836040518060400160405280601e81526020017f536166654d6174683a207375627472616374696f6e206f766572666c6f77000081525061238e565b905092915050565b60006005905090565b6060808260405160200161226691906129dd565b60405160208183030381529060405290506000602090505b60008111156122ee57808060019003915050600060f81b8282815181106122a157fe5b602001015160f81c60f81b7effffffffffffffffffffffffffffffffffffffffffffffffffffffffffffff1916146122e9576000600182019050808352829350505050612328565b61227e565b5060006040519080825280601f01601f1916602001820160405280156123235781602001600182028038833980820191505090505b509150505b919050565b60008083118290612374576040517f08c379a000000000000000000000000000000000000000000000000000000000815260040161236b9190612b58565b60405180910390fd5b50600083858161238057fe5b049050809150509392505050565b60008383111582906123d6576040517f08c379a00000000000000000000000000000000000000000000000000000000081526004016123cd9190612b58565b60405180910390fd5b5060008385039050809150509392505050565b6000806123f4610de0565b73ffffffffffffffffffffffffffffffffffffffff16630902f1ac6040518163ffffffff1660e01b815260040160606040518083038186803b15801561243957600080fd5b505afa15801561244d573d6000803e3d6000fd5b505050506040513d601f19601f8201168201806040525061247191908101906126ba565b826dffffffffffffffffffffffffffff169250816dffffffffffffffffffffffffffff1691505080925081935050509250929050565b60008084116124eb576040517f08c379a00000000000000000000000000000000000000000000000000000000081526004016124e290612bda565b60405180910390fd5b6000831180156124fb5750600082115b61253a576040517f08c379a000000000000000000000000000000000000000000000000000000000815260040161253190612b9a565b60405180910390fd5b8261254e83866116bd90919063ffffffff16565b8161255557fe5b0490509392505050565b60008135905061256e81612e7b565b92915050565b60008151905061258381612e92565b92915050565b60008151905061259881612ea9565b92915050565b6000813590506125ad81612ec0565b92915050565b6000815190506125c281612ec0565b92915050565b6000815190506125d781612ed7565b92915050565b6000602082840312156125ef57600080fd5b60006125fd8482850161255f565b91505092915050565b60008060006060848603121561261b57600080fd5b60006126298682870161255f565b935050602061263a8682870161255f565b925050604061264b8682870161255f565b9150509250925092565b6000806040838503121561266857600080fd5b60006126768582860161255f565b92505060206126878582860161259e565b9150509250929050565b6000602082840312156126a357600080fd5b60006126b184828501612574565b91505092915050565b6000806000606084860312156126cf57600080fd5b60006126dd86828701612589565b93505060206126ee86828701612589565b92505060406126ff868287016125c8565b9150509250925092565b60006020828403121561271b57600080fd5b60006127298482850161259e565b91505092915050565b60006020828403121561274457600080fd5b6000612752848285016125b3565b91505092915050565b61276481612d62565b82525050565b61277381612ca7565b82525050565b61278281612cb9565b82525050565b61279961279482612cc5565b612e49565b82525050565b6127b06127ab82612cf1565b612e53565b82525050565b60006127c182612c75565b6127cb8185612c8b565b93506127db818560208601612e16565b80840191505092915050565b6127f081612d74565b82525050565b6127ff81612d98565b82525050565b61280e81612dbc565b82525050565b61281d81612de0565b82525050565b600061282e82612c80565b6128388185612c96565b9350612848818560208601612e16565b61285181612e5d565b840191505092915050565b6000612869601b83612c96565b91507f536166654d6174683a206164646974696f6e206f766572666c6f7700000000006000830152602082019050919050565b60006128a9602883612c96565b91507f556e697377617056324c6962726172793a20494e53554646494349454e545f4c60008301527f49515549444954590000000000000000000000000000000000000000000000006020830152604082019050919050565b600061290f602183612c96565b91507f536166654d6174683a206d756c7469706c69636174696f6e206f766572666c6f60008301527f77000000000000000000000000000000000000000000000000000000000000006020830152604082019050919050565b6000612975602583612c96565b91507f556e697377617056324c6962726172793a20494e53554646494349454e545f4160008301527f4d4f554e540000000000000000000000000000000000000000000000000000006020830152604082019050919050565b6129d781612d48565b82525050565b60006129e9828461279f565b60208201915081905092915050565b6000612a0482866127b6565b9150612a108285612788565b600282019150612a2082846127b6565b9150819050949350505050565b6000602082019050612a42600083018461276a565b92915050565b6000606082019050612a5d600083018661275b565b612a6a602083018561276a565b612a7760408301846129ce565b949350505050565b6000604082019050612a94600083018561275b565b612aa160208301846129ce565b9392505050565b6000604082019050612abd600083018561276a565b612aca60208301846129ce565b9392505050565b6000602082019050612ae66000830184612779565b92915050565b6000602082019050612b0160008301846127e7565b92915050565b6000602082019050612b1c60008301846127f6565b92915050565b6000602082019050612b376000830184612805565b92915050565b6000602082019050612b526000830184612814565b92915050565b60006020820190508181036000830152612b728184612823565b905092915050565b60006020820190508181036000830152612b938161285c565b9050919050565b60006020820190508181036000830152612bb38161289c565b9050919050565b60006020820190508181036000830152612bd381612902565b9050919050565b60006020820190508181036000830152612bf381612968565b9050919050565b6000602082019050612c0f60008301846129ce565b92915050565b6000604082019050612c2a60008301856129ce565b612c3760208301846129ce565b9392505050565b6000606082019050612c5360008301866129ce565b612c6060208301856129ce565b612c6d60408301846129ce565b949350505050565b600081519050919050565b600081519050919050565b600081905092915050565b600082825260208201905092915050565b6000612cb282612d28565b9050919050565b60008115159050919050565b60007fffff00000000000000000000000000000000000000000000000000000000000082169050919050565b6000819050919050565b6000819050612d0982612e6e565b919050565b60006dffffffffffffffffffffffffffff82169050919050565b600073ffffffffffffffffffffffffffffffffffffffff82169050919050565b6000819050919050565b600063ffffffff82169050919050565b6000612d6d82612df2565b9050919050565b6000612d7f82612d86565b9050919050565b6000612d9182612d28565b9050919050565b6000612da382612daa565b9050919050565b6000612db582612d28565b9050919050565b6000612dc782612dce565b9050919050565b6000612dd982612d28565b9050919050565b6000612deb82612cfb565b9050919050565b6000612dfd82612e04565b9050919050565b6000612e0f82612d28565b9050919050565b60005b83811015612e34578082015181840152602081019050612e19565b83811115612e43576000848401525b50505050565b6000819050919050565b6000819050919050565b6000601f19601f8301169050919050565b60038110612e7857fe5b50565b612e8481612ca7565b8114612e8f57600080fd5b50565b612e9b81612cb9565b8114612ea657600080fd5b50565b612eb281612d0e565b8114612ebd57600080fd5b50565b612ec981612d48565b8114612ed457600080fd5b50565b612ee081612d52565b8114612eeb57600080fd5b5056fe506f6f6c3a20696e73756666696369656e7420636c61696d61626c652062616c616e6365506f6f6c3a20696e73756666696369656e74207068616e746f6d2062616c616e6365506f6f6c3a20696e73756666696369656e74207374616765642062616c616e6365506f6f6c3a20696e73756666696369656e7420626f6e6465642062616c616e6365a365627a7a723158206d0838956bac5b53b4b756cc3921dbd8bcc0807a2c9d670deff3a3d77ace076e6c6578706572696d656e74616cf564736f6c63430005110040",
  "source": "/*\n    Copyright 2020 Empty Set Squad <emptysetsquad@protonmail.com>\n\n    Licensed under the Apache License, Version 2.0 (the \"License\");\n    you may not use this file except in compliance with the License.\n    You may obtain a copy of the License at\n\n    http://www.apache.org/licenses/LICENSE-2.0\n\n    Unless required by applicable law or agreed to in writing, software\n    distributed under the License is distributed on an \"AS IS\" BASIS,\n    WITHOUT WARRANTIES OR CONDITIONS OF ANY KIND, either express or implied.\n    See the License for the specific language governing permissions and\n    limitations under the License.\n*/\n\npragma solidity ^0.5.17;\npragma experimental ABIEncoderV2;\n\nimport \"../oracle/Pool.sol\";\n\ncontract MockPool is Pool {\n    address private _usdc;\n    address private _dao;\n    address private _dollar;\n    address private _univ2;\n\n    constructor(address usdc) Pool() public {\n        _usdc = usdc;\n    }\n\n    function set(address dao, address dollar, address univ2) external {\n        _dao = dao;\n        _dollar = dollar;\n        _univ2 = univ2;\n    }\n\n    function usdc() public view returns (address) {\n        return _usdc;\n    }\n\n    function dao() public view returns (IDAO) {\n        return IDAO(_dao);\n    }\n\n    function dollar() public view returns (IDollar) {\n        return IDollar(_dollar);\n    }\n\n    function univ2() public view returns (IERC20) {\n        return IERC20(_univ2);\n    }\n\n    function getReserves(address tokenA, address tokenB) internal view returns (uint reserveA, uint reserveB) {\n        (reserveA, reserveB,) = IUniswapV2Pair(address(univ2())).getReserves();\n    }\n}\n",
  "sourcePath": "/Users/gokulalex/Apps/eth_apps/SemiotNet/contracts/mock/MockPool.sol",
  "compiler": {
    "name": "solc",
    "version": "0.5.17+commit.d19bba13.Emscripten.clang"
  },
  "schemaVersion": "3.3.3",
  "updatedAt": "2021-02-19T15:49:23.675Z",
  "devdoc": {
    "methods": {}
  },
  "userdoc": {
    "methods": {
      "balanceOfStaged(address)": {
        "notice": "Account"
      }
    }
  }
}