{
  "contractName": "MockBonding",
  "abi": [
    {
      "inputs": [],
      "payable": false,
      "stateMutability": "nonpayable",
      "type": "constructor"
    },
    {
      "anonymous": false,
      "inputs": [
        {
          "indexed": true,
          "internalType": "address",
          "name": "account",
          "type": "address"
        },
        {
          "indexed": false,
          "internalType": "uint256",
          "name": "start",
          "type": "uint256"
        },
        {
          "indexed": false,
          "internalType": "uint256",
          "name": "value",
          "type": "uint256"
        },
        {
          "indexed": false,
          "internalType": "uint256",
          "name": "valueUnderlying",
          "type": "uint256"
        }
      ],
      "name": "Bond",
      "type": "event"
    },
    {
      "anonymous": false,
      "inputs": [
        {
          "indexed": true,
          "internalType": "address",
          "name": "account",
          "type": "address"
        },
        {
          "indexed": false,
          "internalType": "uint256",
          "name": "value",
          "type": "uint256"
        }
      ],
      "name": "Deposit",
      "type": "event"
    },
    {
      "anonymous": false,
      "inputs": [
        {
          "indexed": true,
          "internalType": "address",
          "name": "from",
          "type": "address"
        },
        {
          "indexed": true,
          "internalType": "address",
          "name": "to",
          "type": "address"
        },
        {
          "indexed": false,
          "internalType": "uint256",
          "name": "value",
          "type": "uint256"
        }
      ],
      "name": "Transfer",
      "type": "event"
    },
    {
      "anonymous": false,
      "inputs": [
        {
          "indexed": true,
          "internalType": "address",
          "name": "account",
          "type": "address"
        },
        {
          "indexed": false,
          "internalType": "uint256",
          "name": "start",
          "type": "uint256"
        },
        {
          "indexed": false,
          "internalType": "uint256",
          "name": "value",
          "type": "uint256"
        },
        {
          "indexed": false,
          "internalType": "uint256",
          "name": "valueUnderlying",
          "type": "uint256"
        }
      ],
      "name": "Unbond",
      "type": "event"
    },
    {
      "anonymous": false,
      "inputs": [
        {
          "indexed": true,
          "internalType": "address",
          "name": "account",
          "type": "address"
        },
        {
          "indexed": false,
          "internalType": "uint256",
          "name": "value",
          "type": "uint256"
        }
      ],
      "name": "Withdraw",
      "type": "event"
    },
    {
      "constant": true,
      "inputs": [
        {
          "internalType": "address",
          "name": "owner",
          "type": "address"
        },
        {
          "internalType": "address",
          "name": "spender",
          "type": "address"
        }
      ],
      "name": "allowance",
      "outputs": [
        {
          "internalType": "uint256",
          "name": "",
          "type": "uint256"
        }
      ],
      "payable": false,
      "stateMutability": "view",
      "type": "function"
    },
    {
      "constant": true,
      "inputs": [
        {
          "internalType": "address",
          "name": "owner",
          "type": "address"
        },
        {
          "internalType": "address",
          "name": "spender",
          "type": "address"
        }
      ],
      "name": "allowanceCoupons",
      "outputs": [
        {
          "internalType": "uint256",
          "name": "",
          "type": "uint256"
        }
      ],
      "payable": false,
      "stateMutability": "view",
      "type": "function"
    },
    {
      "constant": false,
      "inputs": [
        {
          "internalType": "address",
          "name": "spender",
          "type": "address"
        },
        {
          "internalType": "uint256",
          "name": "amount",
          "type": "uint256"
        }
      ],
      "name": "approve",
      "outputs": [
        {
          "internalType": "bool",
          "name": "",
          "type": "bool"
        }
      ],
      "payable": false,
      "stateMutability": "nonpayable",
      "type": "function"
    },
    {
      "constant": true,
      "inputs": [
        {
          "internalType": "address",
          "name": "candidate",
          "type": "address"
        }
      ],
      "name": "approveFor",
      "outputs": [
        {
          "internalType": "uint256",
          "name": "",
          "type": "uint256"
        }
      ],
      "payable": false,
      "stateMutability": "view",
      "type": "function"
    },
    {
      "constant": true,
      "inputs": [
        {
          "internalType": "address",
          "name": "account",
          "type": "address"
        }
      ],
      "name": "balanceOf",
      "outputs": [
        {
          "internalType": "uint256",
          "name": "",
          "type": "uint256"
        }
      ],
      "payable": false,
      "stateMutability": "view",
      "type": "function"
    },
    {
      "constant": true,
      "inputs": [
        {
          "internalType": "address",
          "name": "account",
          "type": "address"
        }
      ],
      "name": "balanceOfBonded",
      "outputs": [
        {
          "internalType": "uint256",
          "name": "",
          "type": "uint256"
        }
      ],
      "payable": false,
      "stateMutability": "view",
      "type": "function"
    },
    {
      "constant": true,
      "inputs": [
        {
          "internalType": "address",
          "name": "account",
          "type": "address"
        },
        {
          "internalType": "uint256",
          "name": "epoch",
          "type": "uint256"
        }
      ],
      "name": "balanceOfCouponUnderlying",
      "outputs": [
        {
          "internalType": "uint256",
          "name": "",
          "type": "uint256"
        }
      ],
      "payable": false,
      "stateMutability": "view",
      "type": "function"
    },
    {
      "constant": true,
      "inputs": [
        {
          "internalType": "address",
          "name": "account",
          "type": "address"
        },
        {
          "internalType": "uint256",
          "name": "epoch",
          "type": "uint256"
        }
      ],
      "name": "balanceOfCoupons",
      "outputs": [
        {
          "internalType": "uint256",
          "name": "",
          "type": "uint256"
        }
      ],
      "payable": false,
      "stateMutability": "view",
      "type": "function"
    },
    {
      "constant": true,
      "inputs": [
        {
          "internalType": "address",
          "name": "account",
          "type": "address"
        }
      ],
      "name": "balanceOfStaged",
      "outputs": [
        {
          "internalType": "uint256",
          "name": "",
          "type": "uint256"
        }
      ],
      "payable": false,
      "stateMutability": "view",
      "type": "function"
    },
    {
      "constant": false,
      "inputs": [
        {
          "internalType": "uint256",
          "name": "value",
          "type": "uint256"
        }
      ],
      "name": "bond",
      "outputs": [],
      "payable": false,
      "stateMutability": "nonpayable",
      "type": "function"
    },
    {
      "constant": true,
      "inputs": [
        {
          "internalType": "uint256",
          "name": "epoch",
          "type": "uint256"
        }
      ],
      "name": "bootstrappingAt",
      "outputs": [
        {
          "internalType": "bool",
          "name": "",
          "type": "bool"
        }
      ],
      "payable": false,
      "stateMutability": "view",
      "type": "function"
    },
    {
      "constant": false,
      "inputs": [
        {
          "internalType": "address",
          "name": "account",
          "type": "address"
        },
        {
          "internalType": "uint256",
          "name": "amount",
          "type": "uint256"
        }
      ],
      "name": "burnFromAccountE",
      "outputs": [],
      "payable": false,
      "stateMutability": "nonpayable",
      "type": "function"
    },
    {
      "constant": false,
      "inputs": [
        {
          "internalType": "uint256",
          "name": "amount",
          "type": "uint256"
        }
      ],
      "name": "burnRedeemableE",
      "outputs": [],
      "payable": false,
      "stateMutability": "nonpayable",
      "type": "function"
    },
    {
      "constant": true,
      "inputs": [
        {
          "internalType": "uint256",
          "name": "epoch",
          "type": "uint256"
        }
      ],
      "name": "couponsExpiration",
      "outputs": [
        {
          "internalType": "uint256",
          "name": "",
          "type": "uint256"
        }
      ],
      "payable": false,
      "stateMutability": "view",
      "type": "function"
    },
    {
      "constant": false,
      "inputs": [
        {
          "internalType": "address",
          "name": "candidate",
          "type": "address"
        },
        {
          "internalType": "uint256",
          "name": "period",
          "type": "uint256"
        }
      ],
      "name": "createCandidateE",
      "outputs": [],
      "payable": false,
      "stateMutability": "nonpayable",
      "type": "function"
    },
    {
      "constant": true,
      "inputs": [],
      "name": "decimals",
      "outputs": [
        {
          "internalType": "uint8",
          "name": "",
          "type": "uint8"
        }
      ],
      "payable": false,
      "stateMutability": "view",
      "type": "function"
    },
    {
      "constant": false,
      "inputs": [
        {
          "internalType": "uint256",
          "name": "amount",
          "type": "uint256"
        }
      ],
      "name": "decreaseDebtE",
      "outputs": [],
      "payable": false,
      "stateMutability": "nonpayable",
      "type": "function"
    },
    {
      "constant": false,
      "inputs": [
        {
          "internalType": "address",
          "name": "owner",
          "type": "address"
        },
        {
          "internalType": "address",
          "name": "spender",
          "type": "address"
        },
        {
          "internalType": "uint256",
          "name": "amount",
          "type": "uint256"
        },
        {
          "internalType": "string",
          "name": "reason",
          "type": "string"
        }
      ],
      "name": "decrementAllowanceCouponsE",
      "outputs": [],
      "payable": false,
      "stateMutability": "nonpayable",
      "type": "function"
    },
    {
      "constant": false,
      "inputs": [
        {
          "internalType": "address",
          "name": "candidate",
          "type": "address"
        },
        {
          "internalType": "uint256",
          "name": "amount",
          "type": "uint256"
        },
        {
          "internalType": "string",
          "name": "reason",
          "type": "string"
        }
      ],
      "name": "decrementApproveForE",
      "outputs": [],
      "payable": false,
      "stateMutability": "nonpayable",
      "type": "function"
    },
    {
      "constant": false,
      "inputs": [
        {
          "internalType": "address",
          "name": "account",
          "type": "address"
        },
        {
          "internalType": "uint256",
          "name": "epoch",
          "type": "uint256"
        },
        {
          "internalType": "uint256",
          "name": "amount",
          "type": "uint256"
        },
        {
          "internalType": "string",
          "name": "reason",
          "type": "string"
        }
      ],
      "name": "decrementBalanceOfCouponUnderlyingE",
      "outputs": [],
      "payable": false,
      "stateMutability": "nonpayable",
      "type": "function"
    },
    {
      "constant": false,
      "inputs": [
        {
          "internalType": "address",
          "name": "account",
          "type": "address"
        },
        {
          "internalType": "uint256",
          "name": "epoch",
          "type": "uint256"
        },
        {
          "internalType": "uint256",
          "name": "amount",
          "type": "uint256"
        },
        {
          "internalType": "string",
          "name": "reason",
          "type": "string"
        }
      ],
      "name": "decrementBalanceOfCouponsE",
      "outputs": [],
      "payable": false,
      "stateMutability": "nonpayable",
      "type": "function"
    },
    {
      "constant": false,
      "inputs": [
        {
          "internalType": "address",
          "name": "account",
          "type": "address"
        },
        {
          "internalType": "uint256",
          "name": "amount",
          "type": "uint256"
        },
        {
          "internalType": "string",
          "name": "reason",
          "type": "string"
        }
      ],
      "name": "decrementBalanceOfE",
      "outputs": [],
      "payable": false,
      "stateMutability": "nonpayable",
      "type": "function"
    },
    {
      "constant": false,
      "inputs": [
        {
          "internalType": "address",
          "name": "account",
          "type": "address"
        },
        {
          "internalType": "uint256",
          "name": "amount",
          "type": "uint256"
        },
        {
          "internalType": "string",
          "name": "reason",
          "type": "string"
        }
      ],
      "name": "decrementBalanceOfStagedE",
      "outputs": [],
      "payable": false,
      "stateMutability": "nonpayable",
      "type": "function"
    },
    {
      "constant": false,
      "inputs": [
        {
          "internalType": "address",
          "name": "candidate",
          "type": "address"
        },
        {
          "internalType": "uint256",
          "name": "amount",
          "type": "uint256"
        },
        {
          "internalType": "string",
          "name": "reason",
          "type": "string"
        }
      ],
      "name": "decrementRejectForE",
      "outputs": [],
      "payable": false,
      "stateMutability": "nonpayable",
      "type": "function"
    },
    {
      "constant": false,
      "inputs": [
        {
          "internalType": "uint256",
          "name": "amount",
          "type": "uint256"
        },
        {
          "internalType": "string",
          "name": "reason",
          "type": "string"
        }
      ],
      "name": "decrementTotalBondedE",
      "outputs": [],
      "payable": false,
      "stateMutability": "nonpayable",
      "type": "function"
    },
    {
      "constant": false,
      "inputs": [
        {
          "internalType": "uint256",
          "name": "amount",
          "type": "uint256"
        },
        {
          "internalType": "string",
          "name": "reason",
          "type": "string"
        }
      ],
      "name": "decrementTotalDebtE",
      "outputs": [],
      "payable": false,
      "stateMutability": "nonpayable",
      "type": "function"
    },
    {
      "constant": false,
      "inputs": [
        {
          "internalType": "uint256",
          "name": "amount",
          "type": "uint256"
        },
        {
          "internalType": "string",
          "name": "reason",
          "type": "string"
        }
      ],
      "name": "decrementTotalRedeemableE",
      "outputs": [],
      "payable": false,
      "stateMutability": "nonpayable",
      "type": "function"
    },
    {
      "constant": false,
      "inputs": [
        {
          "internalType": "uint256",
          "name": "value",
          "type": "uint256"
        }
      ],
      "name": "deposit",
      "outputs": [],
      "payable": false,
      "stateMutability": "nonpayable",
      "type": "function"
    },
    {
      "constant": true,
      "inputs": [],
      "name": "dollar",
      "outputs": [
        {
          "internalType": "contract IDollar",
          "name": "",
          "type": "address"
        }
      ],
      "payable": false,
      "stateMutability": "view",
      "type": "function"
    },
    {
      "constant": false,
      "inputs": [
        {
          "internalType": "uint256",
          "name": "epoch",
          "type": "uint256"
        }
      ],
      "name": "eliminateOutstandingCouponsE",
      "outputs": [],
      "payable": false,
      "stateMutability": "nonpayable",
      "type": "function"
    },
    {
      "constant": true,
      "inputs": [],
      "name": "epoch",
      "outputs": [
        {
          "internalType": "uint256",
          "name": "",
          "type": "uint256"
        }
      ],
      "payable": false,
      "stateMutability": "view",
      "type": "function"
    },
    {
      "constant": true,
      "inputs": [],
      "name": "epochTime",
      "outputs": [
        {
          "internalType": "uint256",
          "name": "",
          "type": "uint256"
        }
      ],
      "payable": false,
      "stateMutability": "view",
      "type": "function"
    },
    {
      "constant": true,
      "inputs": [],
      "name": "eraStart",
      "outputs": [
        {
          "internalType": "uint256",
          "name": "",
          "type": "uint256"
        }
      ],
      "payable": false,
      "stateMutability": "view",
      "type": "function"
    },
    {
      "constant": true,
      "inputs": [],
      "name": "eraStatus",
      "outputs": [
        {
          "internalType": "enum Era.Status",
          "name": "",
          "type": "uint8"
        }
      ],
      "payable": false,
      "stateMutability": "view",
      "type": "function"
    },
    {
      "constant": true,
      "inputs": [
        {
          "internalType": "uint256",
          "name": "epoch",
          "type": "uint256"
        }
      ],
      "name": "expiringCoupons",
      "outputs": [
        {
          "internalType": "uint256",
          "name": "",
          "type": "uint256"
        }
      ],
      "payable": false,
      "stateMutability": "view",
      "type": "function"
    },
    {
      "constant": true,
      "inputs": [
        {
          "internalType": "uint256",
          "name": "epoch",
          "type": "uint256"
        },
        {
          "internalType": "uint256",
          "name": "i",
          "type": "uint256"
        }
      ],
      "name": "expiringCouponsAtIndex",
      "outputs": [
        {
          "internalType": "uint256",
          "name": "",
          "type": "uint256"
        }
      ],
      "payable": false,
      "stateMutability": "view",
      "type": "function"
    },
    {
      "constant": true,
      "inputs": [
        {
          "internalType": "address",
          "name": "account",
          "type": "address"
        }
      ],
      "name": "fluidUntil",
      "outputs": [
        {
          "internalType": "uint256",
          "name": "",
          "type": "uint256"
        }
      ],
      "payable": false,
      "stateMutability": "view",
      "type": "function"
    },
    {
      "constant": true,
      "inputs": [],
      "name": "implementation",
      "outputs": [
        {
          "internalType": "address",
          "name": "impl",
          "type": "address"
        }
      ],
      "payable": false,
      "stateMutability": "view",
      "type": "function"
    },
    {
      "constant": false,
      "inputs": [
        {
          "internalType": "uint256",
          "name": "amount",
          "type": "uint256"
        }
      ],
      "name": "increaseDebtE",
      "outputs": [],
      "payable": false,
      "stateMutability": "nonpayable",
      "type": "function"
    },
    {
      "constant": false,
      "inputs": [
        {
          "internalType": "address",
          "name": "candidate",
          "type": "address"
        },
        {
          "internalType": "uint256",
          "name": "amount",
          "type": "uint256"
        }
      ],
      "name": "incrementApproveForE",
      "outputs": [],
      "payable": false,
      "stateMutability": "nonpayable",
      "type": "function"
    },
    {
      "constant": false,
      "inputs": [
        {
          "internalType": "address",
          "name": "account",
          "type": "address"
        },
        {
          "internalType": "uint256",
          "name": "epoch",
          "type": "uint256"
        },
        {
          "internalType": "uint256",
          "name": "amount",
          "type": "uint256"
        }
      ],
      "name": "incrementBalanceOfCouponUnderlyingE",
      "outputs": [],
      "payable": false,
      "stateMutability": "nonpayable",
      "type": "function"
    },
    {
      "constant": false,
      "inputs": [
        {
          "internalType": "address",
          "name": "account",
          "type": "address"
        },
        {
          "internalType": "uint256",
          "name": "epoch",
          "type": "uint256"
        },
        {
          "internalType": "uint256",
          "name": "amount",
          "type": "uint256"
        }
      ],
      "name": "incrementBalanceOfCouponsE",
      "outputs": [],
      "payable": false,
      "stateMutability": "nonpayable",
      "type": "function"
    },
    {
      "constant": false,
      "inputs": [
        {
          "internalType": "address",
          "name": "account",
          "type": "address"
        },
        {
          "internalType": "uint256",
          "name": "amount",
          "type": "uint256"
        }
      ],
      "name": "incrementBalanceOfE",
      "outputs": [],
      "payable": false,
      "stateMutability": "nonpayable",
      "type": "function"
    },
    {
      "constant": false,
      "inputs": [
        {
          "internalType": "address",
          "name": "account",
          "type": "address"
        },
        {
          "internalType": "uint256",
          "name": "amount",
          "type": "uint256"
        }
      ],
      "name": "incrementBalanceOfStagedE",
      "outputs": [],
      "payable": false,
      "stateMutability": "nonpayable",
      "type": "function"
    },
    {
      "constant": false,
      "inputs": [],
      "name": "incrementEpochE",
      "outputs": [],
      "payable": false,
      "stateMutability": "nonpayable",
      "type": "function"
    },
    {
      "constant": false,
      "inputs": [
        {
          "internalType": "address",
          "name": "candidate",
          "type": "address"
        },
        {
          "internalType": "uint256",
          "name": "amount",
          "type": "uint256"
        }
      ],
      "name": "incrementRejectForE",
      "outputs": [],
      "payable": false,
      "stateMutability": "nonpayable",
      "type": "function"
    },
    {
      "constant": false,
      "inputs": [
        {
          "internalType": "uint256",
          "name": "amount",
          "type": "uint256"
        }
      ],
      "name": "incrementTotalBondedE",
      "outputs": [],
      "payable": false,
      "stateMutability": "nonpayable",
      "type": "function"
    },
    {
      "constant": false,
      "inputs": [
        {
          "internalType": "uint256",
          "name": "amount",
          "type": "uint256"
        }
      ],
      "name": "incrementTotalDebtE",
      "outputs": [],
      "payable": false,
      "stateMutability": "nonpayable",
      "type": "function"
    },
    {
      "constant": false,
      "inputs": [
        {
          "internalType": "uint256",
          "name": "amount",
          "type": "uint256"
        }
      ],
      "name": "incrementTotalRedeemableE",
      "outputs": [],
      "payable": false,
      "stateMutability": "nonpayable",
      "type": "function"
    },
    {
      "constant": false,
      "inputs": [
        {
          "internalType": "uint256",
          "name": "epoch",
          "type": "uint256"
        },
        {
          "internalType": "uint256",
          "name": "expiration",
          "type": "uint256"
        }
      ],
      "name": "initializeCouponsExpirationE",
      "outputs": [],
      "payable": false,
      "stateMutability": "nonpayable",
      "type": "function"
    },
    {
      "constant": false,
      "inputs": [
        {
          "internalType": "address",
          "name": "candidate",
          "type": "address"
        }
      ],
      "name": "initializedE",
      "outputs": [],
      "payable": false,
      "stateMutability": "nonpayable",
      "type": "function"
    },
    {
      "constant": true,
      "inputs": [
        {
          "internalType": "address",
          "name": "candidate",
          "type": "address"
        }
      ],
      "name": "isInitialized",
      "outputs": [
        {
          "internalType": "bool",
          "name": "",
          "type": "bool"
        }
      ],
      "payable": false,
      "stateMutability": "view",
      "type": "function"
    },
    {
      "constant": true,
      "inputs": [
        {
          "internalType": "address",
          "name": "candidate",
          "type": "address"
        }
      ],
      "name": "isNominated",
      "outputs": [
        {
          "internalType": "bool",
          "name": "",
          "type": "bool"
        }
      ],
      "payable": false,
      "stateMutability": "view",
      "type": "function"
    },
    {
      "constant": true,
      "inputs": [
        {
          "internalType": "address",
          "name": "account",
          "type": "address"
        }
      ],
      "name": "lockedUntil",
      "outputs": [
        {
          "internalType": "uint256",
          "name": "",
          "type": "uint256"
        }
      ],
      "payable": false,
      "stateMutability": "view",
      "type": "function"
    },
    {
      "constant": false,
      "inputs": [
        {
          "internalType": "address",
          "name": "account",
          "type": "address"
        },
        {
          "internalType": "uint256",
          "name": "amount",
          "type": "uint256"
        }
      ],
      "name": "mintToAccountE",
      "outputs": [],
      "payable": false,
      "stateMutability": "nonpayable",
      "type": "function"
    },
    {
      "constant": false,
      "inputs": [
        {
          "internalType": "address",
          "name": "account",
          "type": "address"
        },
        {
          "internalType": "uint256",
          "name": "amount",
          "type": "uint256"
        }
      ],
      "name": "mintToE",
      "outputs": [],
      "payable": false,
      "stateMutability": "nonpayable",
      "type": "function"
    },
    {
      "constant": true,
      "inputs": [],
      "name": "name",
      "outputs": [
        {
          "internalType": "string",
          "name": "",
          "type": "string"
        }
      ],
      "payable": false,
      "stateMutability": "view",
      "type": "function"
    },
    {
      "constant": true,
      "inputs": [],
      "name": "oracle",
      "outputs": [
        {
          "internalType": "contract IOracle",
          "name": "",
          "type": "address"
        }
      ],
      "payable": false,
      "stateMutability": "view",
      "type": "function"
    },
    {
      "constant": true,
      "inputs": [
        {
          "internalType": "uint256",
          "name": "epoch",
          "type": "uint256"
        }
      ],
      "name": "outstandingCoupons",
      "outputs": [
        {
          "internalType": "uint256",
          "name": "",
          "type": "uint256"
        }
      ],
      "payable": false,
      "stateMutability": "view",
      "type": "function"
    },
    {
      "constant": true,
      "inputs": [
        {
          "internalType": "address",
          "name": "candidate",
          "type": "address"
        }
      ],
      "name": "periodFor",
      "outputs": [
        {
          "internalType": "uint256",
          "name": "",
          "type": "uint256"
        }
      ],
      "payable": false,
      "stateMutability": "view",
      "type": "function"
    },
    {
      "constant": false,
      "inputs": [
        {
          "internalType": "address",
          "name": "account",
          "type": "address"
        },
        {
          "internalType": "address",
          "name": "candidate",
          "type": "address"
        }
      ],
      "name": "placeLockE",
      "outputs": [],
      "payable": false,
      "stateMutability": "nonpayable",
      "type": "function"
    },
    {
      "constant": true,
      "inputs": [],
      "name": "pool",
      "outputs": [
        {
          "internalType": "address",
          "name": "",
          "type": "address"
        }
      ],
      "payable": false,
      "stateMutability": "view",
      "type": "function"
    },
    {
      "constant": false,
      "inputs": [
        {
          "internalType": "address",
          "name": "account",
          "type": "address"
        },
        {
          "internalType": "address",
          "name": "candidate",
          "type": "address"
        },
        {
          "internalType": "enum Candidate.Vote",
          "name": "vote",
          "type": "uint8"
        }
      ],
      "name": "recordVoteE",
      "outputs": [],
      "payable": false,
      "stateMutability": "nonpayable",
      "type": "function"
    },
    {
      "constant": true,
      "inputs": [
        {
          "internalType": "address",
          "name": "account",
          "type": "address"
        },
        {
          "internalType": "address",
          "name": "candidate",
          "type": "address"
        }
      ],
      "name": "recordedVote",
      "outputs": [
        {
          "internalType": "enum Candidate.Vote",
          "name": "",
          "type": "uint8"
        }
      ],
      "payable": false,
      "stateMutability": "view",
      "type": "function"
    },
    {
      "constant": false,
      "inputs": [
        {
          "internalType": "address",
          "name": "account",
          "type": "address"
        },
        {
          "internalType": "uint256",
          "name": "amount",
          "type": "uint256"
        },
        {
          "internalType": "uint256",
          "name": "couponAmount",
          "type": "uint256"
        }
      ],
      "name": "redeemToAccountE",
      "outputs": [],
      "payable": false,
      "stateMutability": "nonpayable",
      "type": "function"
    },
    {
      "constant": true,
      "inputs": [
        {
          "internalType": "address",
          "name": "candidate",
          "type": "address"
        }
      ],
      "name": "rejectFor",
      "outputs": [
        {
          "internalType": "uint256",
          "name": "",
          "type": "uint256"
        }
      ],
      "payable": false,
      "stateMutability": "view",
      "type": "function"
    },
    {
      "constant": false,
      "inputs": [
        {
          "internalType": "uint256",
          "name": "percent",
          "type": "uint256"
        }
      ],
      "name": "resetDebtE",
      "outputs": [],
      "payable": false,
      "stateMutability": "nonpayable",
      "type": "function"
    },
    {
      "constant": false,
      "inputs": [
        {
          "internalType": "uint256",
          "name": "timestamp",
          "type": "uint256"
        }
      ],
      "name": "setBlockTimestamp",
      "outputs": [],
      "payable": false,
      "stateMutability": "nonpayable",
      "type": "function"
    },
    {
      "constant": false,
      "inputs": [
        {
          "internalType": "uint256",
          "name": "start",
          "type": "uint256"
        },
        {
          "internalType": "uint256",
          "name": "period",
          "type": "uint256"
        }
      ],
      "name": "setEpochParamsE",
      "outputs": [],
      "payable": false,
      "stateMutability": "nonpayable",
      "type": "function"
    },
    {
      "constant": false,
      "inputs": [],
      "name": "snapshotTotalBondedE",
      "outputs": [],
      "payable": false,
      "stateMutability": "nonpayable",
      "type": "function"
    },
    {
      "constant": false,
      "inputs": [
        {
          "internalType": "uint256",
          "name": "amount",
          "type": "uint256"
        }
      ],
      "name": "stabilityRewardE",
      "outputs": [],
      "payable": false,
      "stateMutability": "nonpayable",
      "type": "function"
    },
    {
      "constant": true,
      "inputs": [
        {
          "internalType": "address",
          "name": "candidate",
          "type": "address"
        }
      ],
      "name": "startFor",
      "outputs": [
        {
          "internalType": "uint256",
          "name": "",
          "type": "uint256"
        }
      ],
      "payable": false,
      "stateMutability": "view",
      "type": "function"
    },
    {
      "constant": true,
      "inputs": [
        {
          "internalType": "address",
          "name": "account",
          "type": "address"
        }
      ],
      "name": "statusOf",
      "outputs": [
        {
          "internalType": "enum Account.Status",
          "name": "",
          "type": "uint8"
        }
      ],
      "payable": false,
      "stateMutability": "view",
      "type": "function"
    },
    {
      "constant": true,
      "inputs": [],
      "name": "symbol",
      "outputs": [
        {
          "internalType": "string",
          "name": "",
          "type": "string"
        }
      ],
      "payable": false,
      "stateMutability": "view",
      "type": "function"
    },
    {
      "constant": true,
      "inputs": [],
      "name": "totalBonded",
      "outputs": [
        {
          "internalType": "uint256",
          "name": "",
          "type": "uint256"
        }
      ],
      "payable": false,
      "stateMutability": "view",
      "type": "function"
    },
    {
      "constant": true,
      "inputs": [
        {
          "internalType": "uint256",
          "name": "epoch",
          "type": "uint256"
        }
      ],
      "name": "totalBondedAt",
      "outputs": [
        {
          "internalType": "uint256",
          "name": "",
          "type": "uint256"
        }
      ],
      "payable": false,
      "stateMutability": "view",
      "type": "function"
    },
    {
      "constant": true,
      "inputs": [],
      "name": "totalCouponUnderlying",
      "outputs": [
        {
          "internalType": "uint256",
          "name": "",
          "type": "uint256"
        }
      ],
      "payable": false,
      "stateMutability": "view",
      "type": "function"
    },
    {
      "constant": true,
      "inputs": [],
      "name": "totalCoupons",
      "outputs": [
        {
          "internalType": "uint256",
          "name": "",
          "type": "uint256"
        }
      ],
      "payable": false,
      "stateMutability": "view",
      "type": "function"
    },
    {
      "constant": true,
      "inputs": [],
      "name": "totalDebt",
      "outputs": [
        {
          "internalType": "uint256",
          "name": "",
          "type": "uint256"
        }
      ],
      "payable": false,
      "stateMutability": "view",
      "type": "function"
    },
    {
      "constant": true,
      "inputs": [],
      "name": "totalNet",
      "outputs": [
        {
          "internalType": "uint256",
          "name": "",
          "type": "uint256"
        }
      ],
      "payable": false,
      "stateMutability": "view",
      "type": "function"
    },
    {
      "constant": true,
      "inputs": [],
      "name": "totalRedeemable",
      "outputs": [
        {
          "internalType": "uint256",
          "name": "",
          "type": "uint256"
        }
      ],
      "payable": false,
      "stateMutability": "view",
      "type": "function"
    },
    {
      "constant": true,
      "inputs": [],
      "name": "totalStaged",
      "outputs": [
        {
          "internalType": "uint256",
          "name": "",
          "type": "uint256"
        }
      ],
      "payable": false,
      "stateMutability": "view",
      "type": "function"
    },
    {
      "constant": true,
      "inputs": [],
      "name": "totalSupply",
      "outputs": [
        {
          "internalType": "uint256",
          "name": "",
          "type": "uint256"
        }
      ],
      "payable": false,
      "stateMutability": "view",
      "type": "function"
    },
    {
      "constant": false,
      "inputs": [
        {
          "internalType": "address",
          "name": "recipient",
          "type": "address"
        },
        {
          "internalType": "uint256",
          "name": "amount",
          "type": "uint256"
        }
      ],
      "name": "transfer",
      "outputs": [
        {
          "internalType": "bool",
          "name": "",
          "type": "bool"
        }
      ],
      "payable": false,
      "stateMutability": "nonpayable",
      "type": "function"
    },
    {
      "constant": false,
      "inputs": [
        {
          "internalType": "address",
          "name": "sender",
          "type": "address"
        },
        {
          "internalType": "address",
          "name": "recipient",
          "type": "address"
        },
        {
          "internalType": "uint256",
          "name": "amount",
          "type": "uint256"
        }
      ],
      "name": "transferFrom",
      "outputs": [
        {
          "internalType": "bool",
          "name": "",
          "type": "bool"
        }
      ],
      "payable": false,
      "stateMutability": "nonpayable",
      "type": "function"
    },
    {
      "constant": false,
      "inputs": [
        {
          "internalType": "uint256",
          "name": "value",
          "type": "uint256"
        }
      ],
      "name": "unbond",
      "outputs": [],
      "payable": false,
      "stateMutability": "nonpayable",
      "type": "function"
    },
    {
      "constant": false,
      "inputs": [
        {
          "internalType": "uint256",
          "name": "value",
          "type": "uint256"
        }
      ],
      "name": "unbondUnderlying",
      "outputs": [],
      "payable": false,
      "stateMutability": "nonpayable",
      "type": "function"
    },
    {
      "constant": false,
      "inputs": [
        {
          "internalType": "address",
          "name": "account",
          "type": "address"
        }
      ],
      "name": "unfreezeE",
      "outputs": [],
      "payable": false,
      "stateMutability": "nonpayable",
      "type": "function"
    },
    {
      "constant": false,
      "inputs": [
        {
          "internalType": "address",
          "name": "owner",
          "type": "address"
        },
        {
          "internalType": "address",
          "name": "spender",
          "type": "address"
        },
        {
          "internalType": "uint256",
          "name": "amount",
          "type": "uint256"
        }
      ],
      "name": "updateAllowanceCouponsE",
      "outputs": [],
      "payable": false,
      "stateMutability": "nonpayable",
      "type": "function"
    },
    {
      "constant": false,
      "inputs": [
        {
          "internalType": "enum Era.Status",
          "name": "status",
          "type": "uint8"
        }
      ],
      "name": "updateEraE",
      "outputs": [],
      "payable": false,
      "stateMutability": "nonpayable",
      "type": "function"
    },
    {
      "constant": true,
      "inputs": [
        {
          "internalType": "address",
          "name": "candidate",
          "type": "address"
        }
      ],
      "name": "votesFor",
      "outputs": [
        {
          "internalType": "uint256",
          "name": "",
          "type": "uint256"
        }
      ],
      "payable": false,
      "stateMutability": "view",
      "type": "function"
    },
    {
      "constant": false,
      "inputs": [
        {
          "internalType": "uint256",
          "name": "value",
          "type": "uint256"
        }
      ],
      "name": "withdraw",
      "outputs": [],
      "payable": false,
      "stateMutability": "nonpayable",
      "type": "function"
    },
    {
      "constant": false,
      "inputs": [],
      "name": "stepE",
      "outputs": [],
      "payable": false,
      "stateMutability": "nonpayable",
      "type": "function"
    }
  ],
  "bytecode": "0x60806040523480156200001157600080fd5b506000426013819055506040516200002990620000db565b604051809103906000f08015801562000046573d6000803e3d6000fd5b50600060090160000160006101000a81548173ffffffffffffffffffffffffffffffffffffffff021916908373ffffffffffffffffffffffffffffffffffffffff16021790555080600060090160020160006101000a81548173ffffffffffffffffffffffffffffffffffffffff021916908373ffffffffffffffffffffffffffffffffffffffff16021790555050620000e9565b612cc680620055bb83390190565b6154c280620000f96000396000f3fe608060405234801561001057600080fd5b506004361061050f5760003560e01c80637dc0d1d0116102a4578063b11ee0e311610172578063d6d8816d116100d9578063f1b7cf4911610092578063f1b7cf491461108c578063f35adf7e146110bc578063f7a31818146110c6578063faec5537146110e2578063fc7b9c18146110fe578063ffbe3b731461111c5761050f565b8063d6d8816d14610fce578063d83d3ed514610fea578063dd62ed3e14611006578063df9a2b1c14611036578063e0abdf6614611052578063edb6b80a1461106e5761050f565b8063c1410c021161012b578063c1410c0214610efc578063c2aeb5fe14610f18578063c9aff70c14610f34578063cc8d823c14610f64578063cf02377914610f80578063d60b347f14610f9e5761050f565b8063b11ee0e314610e3e578063b16144a314610e5a578063b32a2f9014610e76578063b6b55f2514610e92578063b739a7b814610eae578063bc7513e214610ecc5761050f565b80639bc289f111610216578063a6f37b53116101cf578063a6f37b5314610d82578063a9059cbb14610d9e578063a9b3cf1514610dce578063aa1daf8514610dea578063adbff2be14610e06578063ae5c238114610e225761050f565b80639bc289f114610c9c5780639be4649314610ccc5780639f6e1b2614610ce8578063a00e14d114610d18578063a50cd8e714610d34578063a6c409f114610d645761050f565b8063900cf0cf11610268578063900cf0cf14610bda57806395d89b4114610bf857806397a5d5b514610c165780639940686e14610c465780639a649edc14610c625780639b82b49b14610c805761050f565b80637dc0d1d014610b24578063825ad60714610b425780638413e52a14610b7257806386cf9f1414610b8e5780638de2e57314610bbe5761050f565b80633fbba9a6116103e15780635dbf800a116103535780636be8d64b1161030c5780636be8d64b14610a6657806370a0823114610a8257806371c511eb14610ab257806372924d2a14610abc57806375d5024b14610ad85780637cb95a3214610b085761050f565b80635dbf800a146109965780635f14fec8146109b257806363b0a976146109ce57806364668022146109ea5780636a39e32814610a1a5780636b862d6614610a4a5761050f565b806344d96e95116103a557806344d96e95146108be5780634c736099146108dc5780635053e4611461090c57806351adeb571461092a57806351bf21d8146109485780635c60da1b146109785761050f565b80633fbba9a61461082e5780633fd4973c1461085e578063416a23cc1461087a5780634303d4f71461088457806343873526146108a25761050f565b80631fac9732116104855780632e1a7d4d1161043e5780632e1a7d4d1461075c578063313ce567146107785780633234742214610796578063353a420c146107b25780633a3e6c81146107e25780633f7bcaf3146108125761050f565b80631fac9732146106a057806320f6bc90146106bc57806323b872dd146106d8578063259f7adf14610708578063277805a91461072457806327de9e32146107405761050f565b806310e95b6c116104d757806310e95b6c146105ca57806315e14bf6146105fa57806316f0115b1461062a57806318160ddd146106485780631a08e22a146106665780631edbcf6c146106825761050f565b806306fdde0314610514578063095ea7b314610532578063097c6b7e146105625780630d78ceb41461057e5780630dc6d3a3146105ae575b600080fd5b61051c61114c565b604051610529919061508a565b60405180910390f35b61054c60048036036105479190810190614a3a565b611189565b6040516105599190614fe8565b60405180910390f35b61057c60048036036105779190810190614c03565b611194565b005b61059860048036036105939190810190614a3a565b6111a1565b6040516105a591906150ec565b60405180910390f35b6105c860048036036105c391908101906149ba565b6111ff565b005b6105e460048036036105df9190810190614c03565b611256565b6040516105f191906150ec565b60405180910390f35b610614600480360361060f91908101906148b7565b61127b565b60405161062191906150ec565b60405180910390f35b6106326112c9565b60405161063f9190614f0d565b60405180910390f35b6106506112f8565b60405161065d91906150ec565b60405180910390f35b610680600480360361067b9190810190614cad565b611307565b005b61068a611315565b60405161069791906150ec565b60405180910390f35b6106ba60048036036106b59190810190614c03565b611324565b005b6106d660048036036106d19190810190614a3a565b611330565b005b6106f260048036036106ed919081019061496b565b61133e565b6040516106ff9190614fe8565b60405180910390f35b610722600480360361071d9190810190614c03565b61134a565b005b61073e60048036036107399190810190614a3a565b611356565b005b61075a60048036036107559190810190614c03565b6113ef565b005b61077660048036036107719190810190614c03565b61157b565b005b6107806116f3565b60405161078d919061513e565b60405180910390f35b6107b060048036036107ab9190810190614c55565b6116fc565b005b6107cc60048036036107c791908101906148b7565b61174f565b6040516107d991906150ec565b60405180910390f35b6107fc60048036036107f791908101906148b7565b61179d565b6040516108099190614fe8565b60405180910390f35b61082c6004803603610827919081019061496b565b6117ee565b005b610848600480360361084391908101906148e0565b6117fe565b604051610855919061506f565b60405180910390f35b61087860048036036108739190810190614a76565b611897565b005b6108826118ec565b005b61088c6118f6565b60405161089991906150ec565b60405180910390f35b6108bc60048036036108b79190810190614c03565b611903565b005b6108c6611910565b6040516108d391906150ec565b60405180910390f35b6108f660048036036108f19190810190614cad565b61191f565b60405161090391906150ec565b60405180910390f35b61091461195a565b60405161092191906150ec565b60405180910390f35b6109326119b1565b60405161093f9190615003565b60405180910390f35b610962600480360361095d91908101906148b7565b6119e0565b60405161096f91906150ec565b60405180910390f35b610980611a2e565b60405161098d9190614f0d565b60405180910390f35b6109b060048036036109ab9190810190614c03565b611a5f565b005b6109cc60048036036109c79190810190614a3a565b611a6b565b005b6109e860048036036109e39190810190614ae2565b611a79565b005b610a0460048036036109ff91908101906148b7565b611a89565b604051610a1191906150ec565b60405180910390f35b610a346004803603610a2f9190810190614c03565b611ad7565b604051610a4191906150ec565b60405180910390f35b610a646004803603610a5f9190810190614ae2565b611aff565b005b610a806004803603610a7b9190810190614bda565b611b0f565b005b610a9c6004803603610a9791908101906148b7565b611b1b565b604051610aa991906150ec565b60405180910390f35b610aba611b69565b005b610ad66004803603610ad19190810190614c55565b611b73565b005b610af26004803603610aed9190810190614c03565b611bc6565b604051610aff9190614fe8565b60405180910390f35b610b226004803603610b1d9190810190614a76565b611bda565b005b610b2c611c2f565b604051610b39919061501e565b60405180910390f35b610b5c6004803603610b5791908101906148b7565b611c5e565b604051610b6991906150ec565b60405180910390f35b610b8c6004803603610b87919081019061491c565b611cbb565b005b610ba86004803603610ba391908101906148b7565b611ccb565b604051610bb591906150ec565b60405180910390f35b610bd86004803603610bd39190810190614c03565b611d19565b005b610be2611d25565b604051610bef91906150ec565b60405180910390f35b610c00611d34565b604051610c0d919061508a565b60405180910390f35b610c306004803603610c2b91908101906148b7565b611d71565b604051610c3d9190615039565b60405180910390f35b610c606004803603610c5b9190810190614c03565b611e36565b005b610c6a611fb8565b604051610c7791906150ec565b60405180910390f35b610c9a6004803603610c959190810190614c55565b611fc7565b005b610cb66004803603610cb191908101906148b7565b61201a565b604051610cc391906150ec565b60405180910390f35b610ce66004803603610ce191908101906148b7565b612068565b005b610d026004803603610cfd91908101906148e0565b612074565b604051610d0f91906150ec565b60405180910390f35b610d326004803603610d2d9190810190614cad565b612100565b005b610d4e6004803603610d4991908101906148b7565b61211c565b604051610d5b91906150ec565b60405180910390f35b610d6c612148565b604051610d7991906150ec565b60405180910390f35b610d9c6004803603610d9791908101906148b7565b6121ed565b005b610db86004803603610db39190810190614a3a565b6121f9565b604051610dc59190614fe8565b60405180910390f35b610de86004803603610de39190810190614c03565b612204565b005b610e046004803603610dff9190810190614b31565b612210565b005b610e206004803603610e1b9190810190614a76565b612267565b005b610e3c6004803603610e379190810190614a3a565b6122bc565b005b610e586004803603610e539190810190614a3a565b6122ca565b005b610e746004803603610e6f9190810190614c03565b6122d8565b005b610e906004803603610e8b9190810190614a76565b6122ef565b005b610eac6004803603610ea79190810190614c03565b612344565b005b610eb66124a5565b604051610ec391906150ec565b60405180910390f35b610ee66004803603610ee19190810190614a3a565b6124b5565b604051610ef391906150ec565b60405180910390f35b610f166004803603610f1191908101906148e0565b612530565b005b610f326004803603610f2d9190810190614b31565b61253e565b005b610f4e6004803603610f499190810190614c03565b612595565b604051610f5b91906150ec565b60405180910390f35b610f7e6004803603610f799190810190614a3a565b6125ba565b005b610f886125c8565b604051610f9591906150ec565b60405180910390f35b610fb86004803603610fb391908101906148b7565b6125d7565b604051610fc59190614fe8565b60405180910390f35b610fe86004803603610fe39190810190614c03565b612632565b005b6110046004803603610fff9190810190614a3a565b61263e565b005b611020600480360361101b91908101906148e0565b61264c565b60405161102d91906150ec565b60405180910390f35b611050600480360361104b9190810190614c03565b612657565b005b61106c60048036036110679190810190614c03565b6127e1565b005b6110766127eb565b6040516110839190615054565b60405180910390f35b6110a660048036036110a191908101906148b7565b612808565b6040516110b391906150ec565b60405180910390f35b6110c4612856565b005b6110e060048036036110db9190810190614a3a565b612860565b005b6110fc60048036036110f79190810190614ae2565b61286e565b005b61110661287e565b60405161111391906150ec565b60405180910390f35b61113660048036036111319190810190614c03565b61288d565b60405161114391906150ec565b60405180910390f35b60606040518060400160405280601681526020017f456d7074792053657420446f6c6c6172205374616b6500000000000000000000815250905090565b600080905092915050565b61119d816128af565b5050565b6000600f60000160008473ffffffffffffffffffffffffffffffffffffffff1673ffffffffffffffffffffffffffffffffffffffff168152602001908152602001600020600083815260200190815260200160002054905092915050565b61124f85858585858080601f016020809104026020016040519081016040528093929190818152602001838380828437600081840152601f19601f820116905080830192505050505050506128db565b5050505050565b600080600d016000838152602001908152602001600020600101600101549050919050565b600080600e0160008373ffffffffffffffffffffffffffffffffffffffff1673ffffffffffffffffffffffffffffffffffffffff168152602001908152602001600020600101549050919050565b60008060090160020160009054906101000a900473ffffffffffffffffffffffffffffffffffffffff16905090565b60008060030160000154905090565b61131182826129fe565b5050565b60008060030160030154905090565b61132d81612a69565b50565b61133a8282612ab3565b5050565b60008090509392505050565b61135381612b73565b50565b61135e6119b1565b73ffffffffffffffffffffffffffffffffffffffff166340c10f1983836040518363ffffffff1660e01b8152600401611398929190614fbf565b602060405180830381600087803b1580156113b257600080fd5b505af11580156113c6573d6000803e3d6000fd5b505050506040513d601f19601f820116820180604052506113ea9190810190614bb1565b505050565b3361145c6002808111156113ff57fe5b61140883611d71565b600281111561141357fe5b14157f5065726d697373696f6e000000000000000000000000000000000000000000007f4e6f742066726f7a656e206f7220666c75696400000000000000000000000000612b9d565b61146533612c1c565b600061149c61147333611b1b565b61148e61147f33611c5e565b86612c8990919063ffffffff16565b612cf990919063ffffffff16565b90506114a83382612d43565b6114ca8160405180606001604052806022815260200161540c60229139612e0f565b61150a33846040518060400160405280601d81526020017f426f6e64696e673a20696e73756666696369656e742062616c616e6365000000815250612e3c565b3373ffffffffffffffffffffffffffffffffffffffff167f93530ac0ee8c50e696e13c5ac62355d0c0ba4bd943620d5bda1eb08b64ae751261155d600161154f611d25565b612f7390919063ffffffff16565b858460405161156e93929190615107565b60405180910390a2505050565b336115e96001600281111561158c57fe5b61159583611d71565b60028111156115a057fe5b14157f5065726d697373696f6e000000000000000000000000000000000000000000007f4e6f742066726f7a656e206f72206c6f636b6564000000000000000000000000612b9d565b6115f16119b1565b73ffffffffffffffffffffffffffffffffffffffff1663a9059cbb33846040518363ffffffff1660e01b815260040161162b929190614f5f565b602060405180830381600087803b15801561164557600080fd5b505af1158015611659573d6000803e3d6000fd5b505050506040513d601f19601f8201168201806040525061167d9190810190614bb1565b506116a133836040518060600160405280602481526020016153e860249139612fc8565b3373ffffffffffffffffffffffffffffffffffffffff167f884edad9ce6fa2440d8a54cc123490eb96d2768479d49ff9c7366125a9424364836040516116e791906150ec565b60405180910390a25050565b60006012905090565b61174a8383838080601f016020809104026020016040519081016040528093929190818152602001838380828437600081840152601f19601f82011690508083019250505050505050613099565b505050565b600080600e0160008373ffffffffffffffffffffffffffffffffffffffff1673ffffffffffffffffffffffffffffffffffffffff168152602001908152602001600020600301549050919050565b6000806000600e0160008473ffffffffffffffffffffffffffffffffffffffff1673ffffffffffffffffffffffffffffffffffffffff16815260200190815260200160002060000154119050919050565b6117f98383836130c6565b505050565b600080600e0160008373ffffffffffffffffffffffffffffffffffffffff1673ffffffffffffffffffffffffffffffffffffffff16815260200190815260200160002060040160008473ffffffffffffffffffffffffffffffffffffffff1673ffffffffffffffffffffffffffffffffffffffff16815260200190815260200160002060009054906101000a900460ff16905092915050565b6118e6848484848080601f016020809104026020016040519081016040528093929190818152602001838380828437600081840152601f19601f82011690508083019250505050505050613152565b50505050565b6118f46131fa565b565b6000600f60010154905090565b61190c81613267565b5050565b60008060030160010154905090565b600080600d016000848152602001908152602001600020600101600201828154811061194757fe5b9060005260206000200154905092915050565b60006119646147bb565b61196c6132b8565b90506119766147bb565b61197e6132e7565b9050816020015161198d613317565b106119a05761199b82613321565b6119aa565b6119a981613321565b5b9250505090565b60008060090160000160009054906101000a900473ffffffffffffffffffffffffffffffffffffffff16905090565b600080600c0160008373ffffffffffffffffffffffffffffffffffffffff1673ffffffffffffffffffffffffffffffffffffffff168152602001908152602001600020600401549050919050565b6000807f360894a13ba1a3210667c828492db98dca3e2076cc3735a920a3ca505d382bbc60001b9050805491505090565b611a6881613374565b50565b611a758282613413565b5050565b611a8483838361354a565b505050565b600080600e0160008373ffffffffffffffffffffffffffffffffffffffff1673ffffffffffffffffffffffffffffffffffffffff168152602001908152602001600020600201549050919050565b600080600d016000838152602001908152602001600020600101600201805490509050919050565b611b0a8383836136ac565b505050565b611b18816137ea565b50565b600080600c0160008373ffffffffffffffffffffffffffffffffffffffff1673ffffffffffffffffffffffffffffffffffffffff168152602001908152602001600020600101549050919050565b611b7161382a565b565b611bc18383838080601f016020809104026020016040519081016040528093929190818152602001838380828437600081840152601f19601f82011690508083019250505050505050613858565b505050565b6000611bd0613885565b8211159050919050565b611c29848484848080601f016020809104026020016040519081016040528093929190818152602001838380828437600081840152601f19601f8201169050808301925050505050505061388e565b50505050565b60008060090160010160009054906101000a900473ffffffffffffffffffffffffffffffffffffffff16905090565b600080611c696112f8565b90506000811415611c7e576000915050611cb6565b611cb281611ca4611c8e86611b1b565b611c96611910565b612c8990919063ffffffff16565b612cf990919063ffffffff16565b9150505b919050565b611cc6838383613936565b505050565b600080600c0160008373ffffffffffffffffffffffffffffffffffffffff1673ffffffffffffffffffffffffffffffffffffffff168152602001908152602001600020600001549050919050565b611d22816139de565b50565b60008060000160020154905090565b60606040518060400160405280600481526020017f4553445300000000000000000000000000000000000000000000000000000000815250905090565b6000611d7b611d25565b6000600c0160008473ffffffffffffffffffffffffffffffffffffffff1673ffffffffffffffffffffffffffffffffffffffff168152602001908152602001600020600501541115611dd05760029050611e31565b6000600c0160008373ffffffffffffffffffffffffffffffffffffffff1673ffffffffffffffffffffffffffffffffffffffff16815260200190815260200160002060040154611e1e611d25565b1015611e2b576001611e2e565b60005b90505b919050565b33611ea3600280811115611e4657fe5b611e4f83611d71565b6002811115611e5a57fe5b14157f5065726d697373696f6e000000000000000000000000000000000000000000007f4e6f742066726f7a656e206f7220666c75696400000000000000000000000000612b9d565b611eac33612c1c565b600080611eb7611910565b14611ef457611eef611ec7611910565b611ee1611ed26112f8565b86612c8990919063ffffffff16565b612cf990919063ffffffff16565b611f0f565b611f0e611eff613a08565b84612c8990919063ffffffff16565b5b9050611f1b3382613a13565b611f2483612b73565b611f4733846040518060600160405280602481526020016153e860249139612fc8565b3373ffffffffffffffffffffffffffffffffffffffff167f44002fdef5a0c2d2e4e05572e9780b95aef97e0e93ffd7cc076b09fa78ff2b46611f9a6001611f8c611d25565b612f7390919063ffffffff16565b8386604051611fab93929190615107565b60405180910390a2505050565b60008060030160050154905090565b6120158383838080601f016020809104026020016040519081016040528093929190818152602001838380828437600081840152601f19601f82011690508083019250505050505050612e0f565b505050565b600080600c0160008373ffffffffffffffffffffffffffffffffffffffff1673ffffffffffffffffffffffffffffffffffffffff168152602001908152602001600020600501549050919050565b61207181612c1c565b50565b600080600c0160008473ffffffffffffffffffffffffffffffffffffffff1673ffffffffffffffffffffffffffffffffffffffff16815260200190815260200160002060030160008373ffffffffffffffffffffffffffffffffffffffff1673ffffffffffffffffffffffffffffffffffffffff16815260200190815260200160002054905092915050565b8160008001600001819055508060008001600101819055505050565b600061214161212a8361174f565b61213384611a89565b612f7390919063ffffffff16565b9050919050565b60006121e861215561287e565b61215d6119b1565b73ffffffffffffffffffffffffffffffffffffffff166318160ddd6040518163ffffffff1660e01b815260040160206040518083038186803b1580156121a257600080fd5b505afa1580156121b6573d6000803e3d6000fd5b505050506040513d601f19601f820116820180604052506121da9190810190614c2c565b613b4590919063ffffffff16565b905090565b6121f681613b8f565b50565b600080905092915050565b61220d81613bf0565b50565b61226085858585858080601f016020809104026020016040519081016040528093929190818152602001838380828437600081840152601f19601f82011690508083019250505050505050613c59565b5050505050565b6122b6848484848080601f016020809104026020016040519081016040528093929190818152602001838380828437600081840152601f19601f82011690508083019250505050505050612e3c565b50505050565b6122c68282613a13565b5050565b6122d48282612d43565b5050565b6122eb6122e6826064613d41565b613d72565b5050565b61233e848484848080601f016020809104026020016040519081016040528093929190818152602001838380828437600081840152601f19601f82011690508083019250505050505050612fc8565b50505050565b336123b26001600281111561235557fe5b61235e83611d71565b600281111561236957fe5b14157f5065726d697373696f6e000000000000000000000000000000000000000000007f4e6f742066726f7a656e206f72206c6f636b6564000000000000000000000000612b9d565b6123ba6119b1565b73ffffffffffffffffffffffffffffffffffffffff166323b872dd3330856040518463ffffffff1660e01b81526004016123f693929190614f28565b602060405180830381600087803b15801561241057600080fd5b505af1158015612424573d6000803e3d6000fd5b505050506040513d601f19601f820116820180604052506124489190810190614bb1565b506124533383612d43565b3373ffffffffffffffffffffffffffffffffffffffff167fe1fffcc4923d04b559f4d29a8bfc6cda04eb5b0d3c460751c2402c5c5cc9109c8360405161249991906150ec565b60405180910390a25050565b6000601160000160010154905090565b6000806124c183612595565b14156124d0576000905061252a565b6000600c0160008473ffffffffffffffffffffffffffffffffffffffff1673ffffffffffffffffffffffffffffffffffffffff16815260200190815260200160002060020160008381526020019081526020016000205490505b92915050565b61253a8282613e61565b5050565b61258e85858585858080601f016020809104026020016040519081016040528093929190818152602001838380828437600081840152601f19601f82011690508083019250505050505050613f2a565b5050505050565b600080600d016000838152602001908152602001600020600101600001549050919050565b6125c4828261406f565b5050565b60008060030160020154905090565b600080600e0160008373ffffffffffffffffffffffffffffffffffffffff1673ffffffffffffffffffffffffffffffffffffffff16815260200190815260200160002060050160009054906101000a900460ff169050919050565b61263b81614114565b50565b612648828261413e565b5050565b600080905092915050565b336126c460028081111561266757fe5b61267083611d71565b600281111561267b57fe5b14157f5065726d697373696f6e000000000000000000000000000000000000000000007f4e6f742066726f7a656e206f7220666c75696400000000000000000000000000612b9d565b6126cd33612c1c565b60006127026126da611910565b6126f46126e56112f8565b86612c8990919063ffffffff16565b612cf990919063ffffffff16565b905061270e3384612d43565b6127308360405180606001604052806022815260200161540c60229139612e0f565b61277033826040518060400160405280601d81526020017f426f6e64696e673a20696e73756666696369656e742062616c616e6365000000815250612e3c565b3373ffffffffffffffffffffffffffffffffffffffff167f93530ac0ee8c50e696e13c5ac62355d0c0ba4bd943620d5bda1eb08b64ae75126127c360016127b5611d25565b612f7390919063ffffffff16565b83866040516127d493929190615107565b60405180910390a2505050565b8060138190555050565b6000601160000160000160009054906101000a900460ff16905090565b600080600e0160008373ffffffffffffffffffffffffffffffffffffffff1673ffffffffffffffffffffffffffffffffffffffff168152602001908152602001600020600001549050919050565b61285e6141dd565b565b61286a8282614205565b5050565b6128798383836142aa565b505050565b60008060030160040154905090565b600080600d016000838152602001908152602001600020600001549050919050565b6000806128bb8361438d565b90506128c5614452565b806128d15760006128d3565b825b915050919050565b61297282826000600c0160008873ffffffffffffffffffffffffffffffffffffffff1673ffffffffffffffffffffffffffffffffffffffff16815260200190815260200160002060030160008773ffffffffffffffffffffffffffffffffffffffff1673ffffffffffffffffffffffffffffffffffffffff1681526020019081526020016000205461456a9092919063ffffffff16565b6000600c0160008673ffffffffffffffffffffffffffffffffffffffff1673ffffffffffffffffffffffffffffffffffffffff16815260200190815260200160002060030160008573ffffffffffffffffffffffffffffffffffffffff1673ffffffffffffffffffffffffffffffffffffffff1681526020019081526020016000208190555050505050565b806000600d016000848152602001908152602001600020600101600101819055506000600d0160008281526020019081526020016000206001016002018290806001815401808255809150509060018203906000526020600020016000909192909190915055505050565b612aa8816040518060400160405280601c81526020017f436f6d7074726f6c6c65723a206e6f7420656e6f756768206465627400000000815250613858565b612ab0614452565b50565b612abb6119b1565b73ffffffffffffffffffffffffffffffffffffffff166340c10f1983836040518363ffffffff1660e01b8152600401612af5929190614fbf565b602060405180830381600087803b158015612b0f57600080fd5b505af1158015612b23573d6000803e3d6000fd5b505050506040513d601f19601f82011682018060405250612b479190810190614bb1565b50612b58612b53611d25565b611bc6565b612b6757612b6581613267565b505b612b6f614452565b5050565b612b8e81600060030160010154612f7390919063ffffffff16565b60006003016001018190555050565b82612c1757612bab826145c5565b613a2060f01b612bba836145c5565b604051602001612bcc93929190614ed8565b6040516020818303038152906040526040517f08c379a0000000000000000000000000000000000000000000000000000000008152600401612c0e919061508a565b60405180910390fd5b505050565b612c3d612c276146a0565b612c2f611d25565b612f7390919063ffffffff16565b6000600c0160008373ffffffffffffffffffffffffffffffffffffffff1673ffffffffffffffffffffffffffffffffffffffff1681526020019081526020016000206004018190555050565b600080831415612c9c5760009050612cf3565b6000828402905082848281612cad57fe5b0414612cee576040517f08c379a0000000000000000000000000000000000000000000000000000000008152600401612ce5906150cc565b60405180910390fd5b809150505b92915050565b6000612d3b83836040518060400160405280601a81526020017f536166654d6174683a206469766973696f6e206279207a65726f0000000000008152506146a9565b905092915050565b612d9b816000600c0160008573ffffffffffffffffffffffffffffffffffffffff1673ffffffffffffffffffffffffffffffffffffffff16815260200190815260200160002060000154612f7390919063ffffffff16565b6000600c0160008473ffffffffffffffffffffffffffffffffffffffff1673ffffffffffffffffffffffffffffffffffffffff16815260200190815260200160002060000181905550612dff81600060030160020154612f7390919063ffffffff16565b6000600301600201819055505050565b612e2c828260006003016001015461456a9092919063ffffffff16565b6000600301600101819055505050565b612e9682826000600c0160008773ffffffffffffffffffffffffffffffffffffffff1673ffffffffffffffffffffffffffffffffffffffff1681526020019081526020016000206001015461456a9092919063ffffffff16565b6000600c0160008573ffffffffffffffffffffffffffffffffffffffff1673ffffffffffffffffffffffffffffffffffffffff16815260200190815260200160002060010181905550612efc828260006003016000015461456a9092919063ffffffff16565b600060030160000181905550600073ffffffffffffffffffffffffffffffffffffffff168373ffffffffffffffffffffffffffffffffffffffff167fddf252ad1be2c89b69c2b068fc378daa952ba7f163c4a11628f55a4df523b3ef84604051612f6691906150ec565b60405180910390a3505050565b600080828401905083811015612fbe576040517f08c379a0000000000000000000000000000000000000000000000000000000008152600401612fb5906150ac565b60405180910390fd5b8091505092915050565b61302282826000600c0160008773ffffffffffffffffffffffffffffffffffffffff1673ffffffffffffffffffffffffffffffffffffffff1681526020019081526020016000206000015461456a9092919063ffffffff16565b6000600c0160008573ffffffffffffffffffffffffffffffffffffffff1673ffffffffffffffffffffffffffffffffffffffff16815260200190815260200160002060000181905550613088828260006003016002015461456a9092919063ffffffff16565b600060030160020181905550505050565b6130b6828260006003016003015461456a9092919063ffffffff16565b6000600301600301819055505050565b806000600c0160008573ffffffffffffffffffffffffffffffffffffffff1673ffffffffffffffffffffffffffffffffffffffff16815260200190815260200160002060030160008473ffffffffffffffffffffffffffffffffffffffff1673ffffffffffffffffffffffffffffffffffffffff16815260200190815260200160002081905550505050565b6131ac82826000600e0160008773ffffffffffffffffffffffffffffffffffffffff1673ffffffffffffffffffffffffffffffffffffffff1681526020019081526020016000206003015461456a9092919063ffffffff16565b6000600e0160008573ffffffffffffffffffffffffffffffffffffffff1673ffffffffffffffffffffffffffffffffffffffff16815260200190815260200160002060030181905550505050565b613255613205611d25565b61320d61195a565b117f426f6e64696e67000000000000000000000000000000000000000000000000007f5374696c6c2063757272656e742065706f636800000000000000000000000000612b9d565b61325d61382a565b6132656141dd565b565b6000613272826139de565b600061328461327f61470a565b613d72565b905061328e614452565b8281116132ad576132a88184613b4590919063ffffffff16565b6132b0565b60005b915050919050565b6132c06147bb565b6040518060600160405280606a8152602001635f7fa8008152602001617080815250905090565b6132ef6147bb565b6040518060600160405280605b8152602001635f6be180815260200162015180815250905090565b6000601354905090565b600061336d826000015161335f84604001516133518660200151613343613317565b613b4590919063ffffffff16565b612cf990919063ffffffff16565b612f7390919063ffffffff16565b9050919050565b61337c6119b1565b73ffffffffffffffffffffffffffffffffffffffff166342966c68826040518263ffffffff1660e01b81526004016133b491906150ec565b600060405180830381600087803b1580156133ce57600080fd5b505af11580156133e2573d6000803e3d6000fd5b50505050613408816040518060600160405280602a8152602001615456602a9139613099565b613410614452565b50565b61341b6119b1565b73ffffffffffffffffffffffffffffffffffffffff166323b872dd8330846040518463ffffffff1660e01b815260040161345793929190614f88565b602060405180830381600087803b15801561347157600080fd5b505af1158015613485573d6000803e3d6000fd5b505050506040513d601f19601f820116820180604052506134a99190810190614bb1565b506134b26119b1565b73ffffffffffffffffffffffffffffffffffffffff166342966c68826040518263ffffffff1660e01b81526004016134ea91906150ec565b600060405180830381600087803b15801561350457600080fd5b505af1158015613518573d6000803e3d6000fd5b5050505061353e8160405180606001604052806028815260200161542e60289139613858565b613546614452565b5050565b6135526119b1565b73ffffffffffffffffffffffffffffffffffffffff166340c10f1984846040518363ffffffff1660e01b815260040161358c929190614fbf565b602060405180830381600087803b1580156135a657600080fd5b505af11580156135ba573d6000803e3d6000fd5b505050506040513d601f19601f820116820180604052506135de9190810190614bb1565b506000811461369f576135ef6119b1565b73ffffffffffffffffffffffffffffffffffffffff1663a9059cbb84836040518363ffffffff1660e01b8152600401613629929190614fbf565b602060405180830381600087803b15801561364357600080fd5b505af1158015613657573d6000803e3d6000fd5b505050506040513d601f19601f8201168201806040525061367b9190810190614bb1565b5061369e816040518060600160405280602a8152602001615456602a9139613099565b5b6136a7614452565b505050565b613715816000600c0160008673ffffffffffffffffffffffffffffffffffffffff1673ffffffffffffffffffffffffffffffffffffffff168152602001908152602001600020600201600085815260200190815260200160002054612f7390919063ffffffff16565b6000600c0160008573ffffffffffffffffffffffffffffffffffffffff1673ffffffffffffffffffffffffffffffffffffffff16815260200190815260200160002060020160008481526020019081526020016000208190555061379e816000600d01600085815260200190815260200160002060010160000154612f7390919063ffffffff16565b6000600d016000848152602001908152602001600020600101600001819055506137d981600060030160050154612f7390919063ffffffff16565b600060030160050181905550505050565b80601160000160000160006101000a81548160ff0219169083600181111561380e57fe5b021790555061381b611d25565b60116000016001018190555050565b6138326112f8565b6000600d016000613841611d25565b815260200190815260200160002060000181905550565b613875828260006003016004015461456a9092919063ffffffff16565b6000600301600401819055505050565b6000605a905090565b6138e882826000600e0160008773ffffffffffffffffffffffffffffffffffffffff1673ffffffffffffffffffffffffffffffffffffffff1681526020019081526020016000206002015461456a9092919063ffffffff16565b6000600e0160008573ffffffffffffffffffffffffffffffffffffffff1673ffffffffffffffffffffffffffffffffffffffff16815260200190815260200160002060020181905550505050565b806000600e0160008473ffffffffffffffffffffffffffffffffffffffff1673ffffffffffffffffffffffffffffffffffffffff16815260200190815260200160002060040160008573ffffffffffffffffffffffffffffffffffffffff1673ffffffffffffffffffffffffffffffffffffffff16815260200190815260200160002060006101000a81548160ff021916908360028111156139d457fe5b0217905550505050565b6139f981600060030160040154612f7390919063ffffffff16565b60006003016004018190555050565b6000620f4240905090565b613a6b816000600c0160008573ffffffffffffffffffffffffffffffffffffffff1673ffffffffffffffffffffffffffffffffffffffff16815260200190815260200160002060010154612f7390919063ffffffff16565b6000600c0160008473ffffffffffffffffffffffffffffffffffffffff1673ffffffffffffffffffffffffffffffffffffffff16815260200190815260200160002060010181905550613acf81600060030160000154612f7390919063ffffffff16565b6000600301600001819055508173ffffffffffffffffffffffffffffffffffffffff16600073ffffffffffffffffffffffffffffffffffffffff167fddf252ad1be2c89b69c2b068fc378daa952ba7f163c4a11628f55a4df523b3ef83604051613b3991906150ec565b60405180910390a35050565b6000613b8783836040518060400160405280601e81526020017f536166654d6174683a207375627472616374696f6e206f766572666c6f77000081525061456a565b905092915050565b60016000600e0160008373ffffffffffffffffffffffffffffffffffffffff1673ffffffffffffffffffffffffffffffffffffffff16815260200190815260200160002060050160006101000a81548160ff02191690831515021790555050565b6000613bfb82612595565b90506000811415613c0c5750613c56565b613c2781600060030160050154613b4590919063ffffffff16565b600060030160050181905550600080600d01600084815260200190815260200160002060010160000181905550505b50565b613cc18282600f60000160008873ffffffffffffffffffffffffffffffffffffffff1673ffffffffffffffffffffffffffffffffffffffff16815260200190815260200160002060008781526020019081526020016000205461456a9092919063ffffffff16565b600f60000160008673ffffffffffffffffffffffffffffffffffffffff1673ffffffffffffffffffffffffffffffffffffffff168152602001908152602001600020600085815260200190815260200160002081905550613d328282600f6001015461456a9092919063ffffffff16565b600f6001018190555050505050565b613d496147dc565b6040518060200160405280613d6785670de0b6b3a76400008661472e565b815250905092915050565b600080613e14613e0f613d836119b1565b73ffffffffffffffffffffffffffffffffffffffff166318160ddd6040518163ffffffff1660e01b815260040160206040518083038186803b158015613dc857600080fd5b505afa158015613ddc573d6000803e3d6000fd5b505050506040513d601f19601f82011682018060405250613e009190810190614c2c565b8561475e90919063ffffffff16565b614793565b90506000613e2061287e565b905081811115613e55576000613e3f8383613b4590919063ffffffff16565b9050613e4a81612a69565b809350505050613e5c565b6000925050505b919050565b600080600c0160008473ffffffffffffffffffffffffffffffffffffffff1673ffffffffffffffffffffffffffffffffffffffff1681526020019081526020016000206005015490506000613ecf613eb88461127b565b613ec185612808565b612f7390919063ffffffff16565b905081811115613f2457806000600c0160008673ffffffffffffffffffffffffffffffffffffffff1673ffffffffffffffffffffffffffffffffffffffff168152602001908152602001600020600501819055505b50505050565b613f9582826000600c0160008873ffffffffffffffffffffffffffffffffffffffff1673ffffffffffffffffffffffffffffffffffffffff16815260200190815260200160002060020160008781526020019081526020016000205461456a9092919063ffffffff16565b6000600c0160008673ffffffffffffffffffffffffffffffffffffffff1673ffffffffffffffffffffffffffffffffffffffff16815260200190815260200160002060020160008581526020019081526020016000208190555061402082826000600d0160008781526020019081526020016000206001016000015461456a9092919063ffffffff16565b6000600d0160008581526020019081526020016000206001016000018190555061405d828260006003016005015461456a9092919063ffffffff16565b60006003016005018190555050505050565b6140c7816000600e0160008573ffffffffffffffffffffffffffffffffffffffff1673ffffffffffffffffffffffffffffffffffffffff16815260200190815260200160002060030154612f7390919063ffffffff16565b6000600e0160008473ffffffffffffffffffffffffffffffffffffffff1673ffffffffffffffffffffffffffffffffffffffff168152602001908152602001600020600301819055505050565b61412f81600060030160030154612f7390919063ffffffff16565b60006003016003018190555050565b614146611d25565b6000600e0160008473ffffffffffffffffffffffffffffffffffffffff1673ffffffffffffffffffffffffffffffffffffffff16815260200190815260200160002060000181905550806000600e0160008473ffffffffffffffffffffffffffffffffffffffff1673ffffffffffffffffffffffffffffffffffffffff168152602001908152602001600020600101819055505050565b6141f860016000800160020154612f7390919063ffffffff16565b6000800160020181905550565b61425d816000600e0160008573ffffffffffffffffffffffffffffffffffffffff1673ffffffffffffffffffffffffffffffffffffffff16815260200190815260200160002060020154612f7390919063ffffffff16565b6000600e0160008473ffffffffffffffffffffffffffffffffffffffff1673ffffffffffffffffffffffffffffffffffffffff168152602001908152602001600020600201819055505050565b61431081600f60000160008673ffffffffffffffffffffffffffffffffffffffff1673ffffffffffffffffffffffffffffffffffffffff168152602001908152602001600020600085815260200190815260200160002054612f7390919063ffffffff16565b600f60000160008573ffffffffffffffffffffffffffffffffffffffff1673ffffffffffffffffffffffffffffffffffffffff16815260200190815260200160002060008481526020019081526020016000208190555061437f81600f60010154612f7390919063ffffffff16565b600f60010181905550505050565b600080614398611910565b141590506000821180156143a95750805b1561444d576143b66119b1565b73ffffffffffffffffffffffffffffffffffffffff166340c10f1930846040518363ffffffff1660e01b81526004016143f0929190614fbf565b602060405180830381600087803b15801561440a57600080fd5b505af115801561441e573d6000803e3d6000fd5b505050506040513d601f19601f820116820180604052506144429190810190614bb1565b5061444c82612b73565b5b919050565b61456861448f614460611315565b61448161446b6125c8565b614473611910565b612f7390919063ffffffff16565b612f7390919063ffffffff16565b6144976119b1565b73ffffffffffffffffffffffffffffffffffffffff166370a08231306040518263ffffffff1660e01b81526004016144cf9190614f0d565b60206040518083038186803b1580156144e757600080fd5b505afa1580156144fb573d6000803e3d6000fd5b505050506040513d601f19601f8201168201806040525061451f9190810190614c2c565b10157f436f6d7074726f6c6c65720000000000000000000000000000000000000000007f496e636f6e73697374656e742062616c616e6365730000000000000000000000612b9d565b565b60008383111582906145b2576040517f08c379a00000000000000000000000000000000000000000000000000000000081526004016145a9919061508a565b60405180910390fd5b5060008385039050809150509392505050565b606080826040516020016145d99190614ebd565b60405160208183030381529060405290506000602090505b600081111561466157808060019003915050600060f81b82828151811061461457fe5b602001015160f81c60f81b7effffffffffffffffffffffffffffffffffffffffffffffffffffffffffffff19161461465c57600060018201905080835282935050505061469b565b6145f1565b5060006040519080825280601f01601f1916602001820160405280156146965781602001600182028038833980820191505090505b509150505b919050565b6000600f905090565b600080831182906146f0576040517f08c379a00000000000000000000000000000000000000000000000000000000081526004016146e7919061508a565b60405180910390fd5b5060008385816146fc57fe5b049050809150509392505050565b6147126147dc565b60405180602001604052806702c68af0bb140000815250905090565b6000614755826147478587612c8990919063ffffffff16565b612cf990919063ffffffff16565b90509392505050565b6147666147dc565b6040518060200160405280614788848660000151612c8990919063ffffffff16565b815250905092915050565b60006147b4670de0b6b3a76400008360000151612cf990919063ffffffff16565b9050919050565b60405180606001604052806000815260200160008152602001600081525090565b6040518060200160405280600081525090565b6000813590506147fe81615382565b92915050565b60008151905061481381615399565b92915050565b600081359050614828816153b0565b92915050565b60008135905061483d816153c0565b92915050565b60008083601f84011261485557600080fd5b8235905067ffffffffffffffff81111561486e57600080fd5b60208301915083600182028301111561488657600080fd5b9250929050565b60008135905061489c816153d0565b92915050565b6000815190506148b1816153d0565b92915050565b6000602082840312156148c957600080fd5b60006148d7848285016147ef565b91505092915050565b600080604083850312156148f357600080fd5b6000614901858286016147ef565b9250506020614912858286016147ef565b9150509250929050565b60008060006060848603121561493157600080fd5b600061493f868287016147ef565b9350506020614950868287016147ef565b92505060406149618682870161482e565b9150509250925092565b60008060006060848603121561498057600080fd5b600061498e868287016147ef565b935050602061499f868287016147ef565b92505060406149b08682870161488d565b9150509250925092565b6000806000806000608086880312156149d257600080fd5b60006149e0888289016147ef565b95505060206149f1888289016147ef565b9450506040614a028882890161488d565b935050606086013567ffffffffffffffff811115614a1f57600080fd5b614a2b88828901614843565b92509250509295509295909350565b60008060408385031215614a4d57600080fd5b6000614a5b858286016147ef565b9250506020614a6c8582860161488d565b9150509250929050565b60008060008060608587031215614a8c57600080fd5b6000614a9a878288016147ef565b9450506020614aab8782880161488d565b935050604085013567ffffffffffffffff811115614ac857600080fd5b614ad487828801614843565b925092505092959194509250565b600080600060608486031215614af757600080fd5b6000614b05868287016147ef565b9350506020614b168682870161488d565b9250506040614b278682870161488d565b9150509250925092565b600080600080600060808688031215614b4957600080fd5b6000614b57888289016147ef565b9550506020614b688882890161488d565b9450506040614b798882890161488d565b935050606086013567ffffffffffffffff811115614b9657600080fd5b614ba288828901614843565b92509250509295509295909350565b600060208284031215614bc357600080fd5b6000614bd184828501614804565b91505092915050565b600060208284031215614bec57600080fd5b6000614bfa84828501614819565b91505092915050565b600060208284031215614c1557600080fd5b6000614c238482850161488d565b91505092915050565b600060208284031215614c3e57600080fd5b6000614c4c848285016148a2565b91505092915050565b600080600060408486031215614c6a57600080fd5b6000614c788682870161488d565b935050602084013567ffffffffffffffff811115614c9557600080fd5b614ca186828701614843565b92509250509250925092565b60008060408385031215614cc057600080fd5b6000614cce8582860161488d565b9250506020614cdf8582860161488d565b9150509250929050565b614cf28161524f565b82525050565b614d018161518b565b82525050565b614d108161519d565b82525050565b614d27614d22826151a9565b615336565b82525050565b614d3e614d39826151d5565b615340565b82525050565b6000614d4f82615159565b614d59818561516f565b9350614d69818560208601615303565b80840191505092915050565b614d7e81615261565b82525050565b614d8d81615285565b82525050565b614d9c816152a9565b82525050565b614dab816152bb565b82525050565b614dba816152cd565b82525050565b6000614dcb82615164565b614dd5818561517a565b9350614de5818560208601615303565b614dee8161534a565b840191505092915050565b6000614e06601b8361517a565b91507f536166654d6174683a206164646974696f6e206f766572666c6f7700000000006000830152602082019050919050565b6000614e4660218361517a565b91507f536166654d6174683a206d756c7469706c69636174696f6e206f766572666c6f60008301527f77000000000000000000000000000000000000000000000000000000000000006020830152604082019050919050565b614ea881615238565b82525050565b614eb781615242565b82525050565b6000614ec98284614d2d565b60208201915081905092915050565b6000614ee48286614d44565b9150614ef08285614d16565b600282019150614f008284614d44565b9150819050949350505050565b6000602082019050614f226000830184614cf8565b92915050565b6000606082019050614f3d6000830186614ce9565b614f4a6020830185614cf8565b614f576040830184614e9f565b949350505050565b6000604082019050614f746000830185614ce9565b614f816020830184614e9f565b9392505050565b6000606082019050614f9d6000830186614cf8565b614faa6020830185614cf8565b614fb76040830184614e9f565b949350505050565b6000604082019050614fd46000830185614cf8565b614fe16020830184614e9f565b9392505050565b6000602082019050614ffd6000830184614d07565b92915050565b60006020820190506150186000830184614d75565b92915050565b60006020820190506150336000830184614d84565b92915050565b600060208201905061504e6000830184614d93565b92915050565b60006020820190506150696000830184614da2565b92915050565b60006020820190506150846000830184614db1565b92915050565b600060208201905081810360008301526150a48184614dc0565b905092915050565b600060208201905081810360008301526150c581614df9565b9050919050565b600060208201905081810360008301526150e581614e39565b9050919050565b60006020820190506151016000830184614e9f565b92915050565b600060608201905061511c6000830186614e9f565b6151296020830185614e9f565b6151366040830184614e9f565b949350505050565b60006020820190506151536000830184614eae565b92915050565b600081519050919050565b600081519050919050565b600081905092915050565b600082825260208201905092915050565b600061519682615218565b9050919050565b60008115159050919050565b60007fffff00000000000000000000000000000000000000000000000000000000000082169050919050565b6000819050919050565b60008190506151ed8261535b565b919050565b600081905061520082615368565b919050565b600081905061521382615375565b919050565b600073ffffffffffffffffffffffffffffffffffffffff82169050919050565b6000819050919050565b600060ff82169050919050565b600061525a826152df565b9050919050565b600061526c82615273565b9050919050565b600061527e82615218565b9050919050565b600061529082615297565b9050919050565b60006152a282615218565b9050919050565b60006152b4826151df565b9050919050565b60006152c6826151f2565b9050919050565b60006152d882615205565b9050919050565b60006152ea826152f1565b9050919050565b60006152fc82615218565b9050919050565b60005b83811015615321578082015181840152602081019050615306565b83811115615330576000848401525b50505050565b6000819050919050565b6000819050919050565b6000601f19601f8301169050919050565b6003811061536557fe5b50565b6002811061537257fe5b50565b6003811061537f57fe5b50565b61538b8161518b565b811461539657600080fd5b50565b6153a28161519d565b81146153ad57600080fd5b50565b600281106153bd57600080fd5b50565b600381106153cd57600080fd5b50565b6153d981615238565b81146153e457600080fd5b5056fe426f6e64696e673a20696e73756666696369656e74207374616765642062616c616e6365426f6e64696e673a20696e73756666696369656e7420746f74616c20626f6e646564436f6d7074726f6c6c65723a206e6f7420656e6f756768206f75747374616e64696e672064656274436f6d7074726f6c6c65723a206e6f7420656e6f7567682072656465656d61626c652062616c616e6365a365627a7a72315820a7c4c0d0259cc8ed28b162fb1dda60b994d36f8c8326b80679b7a07f7425a69c6c6578706572696d656e74616cf564736f6c6343000511004060806040523480156200001157600080fd5b506040518060400160405280601081526020017f456d7074792053657420446f6c6c6172000000000000000000000000000000008152506040518060400160405280600381526020017f45534400000000000000000000000000000000000000000000000000000000008152506012620000a0620000946200016d60201b60201c565b6200017560201b60201c565b8260019080519060200190620000b89291906200046d565b508160029080519060200190620000d19291906200046d565b5080600360006101000a81548160ff021916908360ff1602179055505050506200016162000104620001d660201b60201c565b6040518060400160405280600181526020017f31000000000000000000000000000000000000000000000000000000000000008152506200014f6200027c60201b6200252b1760201c565b306200028560201b620025341760201c565b6007819055506200061b565b600033905090565b62000190816000620002ef60201b620017ce1790919060201c565b8073ffffffffffffffffffffffffffffffffffffffff167f6ae172837ea30b801fbfcdd4108aa1d5bf8ff775444fd70256b44e6bf3dfc3f660405160405180910390a250565b606060018054600181600116156101000203166002900480601f016020809104026020016040519081016040528092919081815260200182805460018160011615610100020316600290048015620002725780601f10620002465761010080835404028352916020019162000272565b820191906000526020600020905b8154815290600101906020018083116200025457829003601f168201915b5050505050905090565b60006001905090565b6000807f8b73c3c69bb8fe3d512ecc4cf759cc79239f7b179b0ffacaa9a75d522b39400f60001b9050855160208701208551602087012060405183815282602082015281604082015286606082015285608082015260a08120945050505081915050949350505050565b620003018282620003a260201b60201c565b1562000344576040517f08c379a00000000000000000000000000000000000000000000000000000000081526004016200033b90620005c6565b60405180910390fd5b60018260000160008373ffffffffffffffffffffffffffffffffffffffff1673ffffffffffffffffffffffffffffffffffffffff16815260200190815260200160002060006101000a81548160ff0219169083151502179055505050565b60008073ffffffffffffffffffffffffffffffffffffffff168273ffffffffffffffffffffffffffffffffffffffff16141562000416576040517f08c379a00000000000000000000000000000000000000000000000000000000081526004016200040d90620005e8565b60405180910390fd5b8260000160008373ffffffffffffffffffffffffffffffffffffffff1673ffffffffffffffffffffffffffffffffffffffff16815260200190815260200160002060009054906101000a900460ff16905092915050565b828054600181600116156101000203166002900490600052602060002090601f016020900481019282601f10620004b057805160ff1916838001178555620004e1565b82800160010185558215620004e1579182015b82811115620004e0578251825591602001919060010190620004c3565b5b509050620004f09190620004f4565b5090565b6200051991905b8082111562000515576000816000905550600101620004fb565b5090565b90565b60006200052b601f836200060a565b91507f526f6c65733a206163636f756e7420616c72656164792068617320726f6c65006000830152602082019050919050565b60006200056d6022836200060a565b91507f526f6c65733a206163636f756e7420697320746865207a65726f20616464726560008301527f73730000000000000000000000000000000000000000000000000000000000006020830152604082019050919050565b60006020820190508181036000830152620005e1816200051c565b9050919050565b6000602082019050818103600083015262000603816200055e565b9050919050565b600082825260208201905092915050565b61269b806200062b6000396000f3fe608060405234801561001057600080fd5b506004361061012c5760003560e01c806395d89b41116100ad578063aa271e1a11610071578063aa271e1a14610357578063d505accf14610387578063dab400f3146103a3578063dd62ed3e146103c1578063e879c19f146103f15761012c565b806395d89b41146102b3578063983b2d56146102d157806398650275146102ed578063a457c2d7146102f7578063a9059cbb146103275761012c565b806339509351116100f457806339509351146101eb57806340c10f191461021b57806342966c681461024b57806370a082311461026757806379cc6790146102975761012c565b806306fdde0314610131578063095ea7b31461014f57806318160ddd1461017f57806323b872dd1461019d578063313ce567146101cd575b600080fd5b61013961040f565b6040516101469190612202565b60405180910390f35b61016960048036036101649190810190611b9e565b6104b1565b6040516101769190612126565b60405180910390f35b6101876104cf565b6040516101949190612384565b60405180910390f35b6101b760048036036101b29190810190611ab1565b6104d9565b6040516101c49190612126565b60405180910390f35b6101d5610577565b6040516101e2919061239f565b60405180910390f35b61020560048036036102009190810190611b9e565b61058e565b6040516102129190612126565b60405180910390f35b61023560048036036102309190810190611b9e565b610641565b6040516102429190612126565b60405180910390f35b61026560048036036102609190810190611bda565b6106a6565b005b610281600480360361027c9190810190611a4c565b6106ba565b60405161028e9190612384565b60405180910390f35b6102b160048036036102ac9190810190611b9e565b610703565b005b6102bb610711565b6040516102c89190612202565b60405180910390f35b6102eb60048036036102e69190810190611a4c565b6107b3565b005b6102f561080e565b005b610311600480360361030c9190810190611b9e565b610820565b60405161031e9190612126565b60405180910390f35b610341600480360361033c9190810190611b9e565b6108ed565b60405161034e9190612126565b60405180910390f35b610371600480360361036c9190810190611a4c565b61090b565b60405161037e9190612126565b60405180910390f35b6103a1600480360361039c9190810190611b00565b610928565b005b6103ab610b83565b6040516103b89190612141565b60405180910390f35b6103db60048036036103d69190810190611a75565b610b89565b6040516103e89190612384565b60405180910390f35b6103f9610c10565b6040516104069190612141565b60405180910390f35b606060018054600181600116156101000203166002900480601f0160208091040260200160405190810160405280929190818152602001828054600181600116156101000203166002900480156104a75780601f1061047c576101008083540402835291602001916104a7565b820191906000526020600020905b81548152906001019060200180831161048a57829003601f168201915b5050505050905090565b60006104c56104be610c37565b8484610c3f565b6001905092915050565b6000600654905090565b60006104e6848484610e0a565b7fffffffffffffffffffffffffffffffffffffffffffffffffffffffffffffffff61051885610513610c37565b610b89565b1461056c5761056b84610529610c37565b6105668560405180606001604052806029815260200161260b602991396105578a610552610c37565b610b89565b6110989092919063ffffffff16565b610c3f565b5b600190509392505050565b6000600360009054906101000a900460ff16905090565b600061063761059b610c37565b8461063285600560006105ac610c37565b73ffffffffffffffffffffffffffffffffffffffff1673ffffffffffffffffffffffffffffffffffffffff16815260200190815260200160002060008973ffffffffffffffffffffffffffffffffffffffff1673ffffffffffffffffffffffffffffffffffffffff168152602001908152602001600020546110f390919063ffffffff16565b610c3f565b6001905092915050565b600061065361064e610c37565b61090b565b610692576040517f08c379a0000000000000000000000000000000000000000000000000000000008152600401610689906122a4565b60405180910390fd5b61069c8383611148565b6001905092915050565b6106b76106b1610c37565b826112d2565b50565b6000600460008373ffffffffffffffffffffffffffffffffffffffff1673ffffffffffffffffffffffffffffffffffffffff168152602001908152602001600020549050919050565b61070d8282611476565b5050565b606060028054600181600116156101000203166002900480601f0160208091040260200160405190810160405280929190818152602001828054600181600116156101000203166002900480156107a95780601f1061077e576101008083540402835291602001916107a9565b820191906000526020600020905b81548152906001019060200180831161078c57829003601f168201915b5050505050905090565b6107c36107be610c37565b61090b565b610802576040517f08c379a00000000000000000000000000000000000000000000000000000000081526004016107f9906122a4565b60405180910390fd5b61080b81611545565b50565b61081e610819610c37565b61159f565b565b60006108e361082d610c37565b846108de856040518060600160405280602581526020016126346025913960056000610857610c37565b73ffffffffffffffffffffffffffffffffffffffff1673ffffffffffffffffffffffffffffffffffffffff16815260200190815260200160002060008a73ffffffffffffffffffffffffffffffffffffffff1673ffffffffffffffffffffffffffffffffffffffff168152602001908152602001600020546110989092919063ffffffff16565b610c3f565b6001905092915050565b60006109016108fa610c37565b8484610e0a565b6001905092915050565b60006109218260006115f990919063ffffffff16565b9050919050565b60006109d66007547f6e71edae12b1b97f4d1f60370fef10105fa2faae0126114a169c64845d6126c960001b8a8a8a600860008f73ffffffffffffffffffffffffffffffffffffffff1673ffffffffffffffffffffffffffffffffffffffff1681526020019081526020016000206000815480929190600101919050558b6040516020016109bb9695949392919061215c565b604051602081830303815290604052805190602001206116c1565b90506000600182868686604051600081526020016040526040516109fd94939291906121bd565b6020604051602081039080840390855afa158015610a1f573d6000803e3d6000fd5b505050602060405103519050610aa48973ffffffffffffffffffffffffffffffffffffffff168273ffffffffffffffffffffffffffffffffffffffff16147f5065726d69747461626c650000000000000000000000000000000000000000007f496e76616c6964207369676e6174757265000000000000000000000000000000611705565b610b1f600073ffffffffffffffffffffffffffffffffffffffff168273ffffffffffffffffffffffffffffffffffffffff1614157f5065726d69747461626c650000000000000000000000000000000000000000007f5a65726f20616464726573730000000000000000000000000000000000000000611705565b610b6d864211157f5065726d69747461626c650000000000000000000000000000000000000000007f4578706972656400000000000000000000000000000000000000000000000000611705565b610b78898989610c3f565b505050505050505050565b60075481565b6000600560008473ffffffffffffffffffffffffffffffffffffffff1673ffffffffffffffffffffffffffffffffffffffff16815260200190815260200160002060008373ffffffffffffffffffffffffffffffffffffffff1673ffffffffffffffffffffffffffffffffffffffff16815260200190815260200160002054905092915050565b7f6e71edae12b1b97f4d1f60370fef10105fa2faae0126114a169c64845d6126c960001b81565b600033905090565b600073ffffffffffffffffffffffffffffffffffffffff168373ffffffffffffffffffffffffffffffffffffffff161415610caf576040517f08c379a0000000000000000000000000000000000000000000000000000000008152600401610ca690612344565b60405180910390fd5b600073ffffffffffffffffffffffffffffffffffffffff168273ffffffffffffffffffffffffffffffffffffffff161415610d1f576040517f08c379a0000000000000000000000000000000000000000000000000000000008152600401610d1690612264565b60405180910390fd5b80600560008573ffffffffffffffffffffffffffffffffffffffff1673ffffffffffffffffffffffffffffffffffffffff16815260200190815260200160002060008473ffffffffffffffffffffffffffffffffffffffff1673ffffffffffffffffffffffffffffffffffffffff168152602001908152602001600020819055508173ffffffffffffffffffffffffffffffffffffffff168373ffffffffffffffffffffffffffffffffffffffff167f8c5be1e5ebec7d5bd14f71427d1e84f3dd0314c0f7b2291e5b200ac8c7c3b92583604051610dfd9190612384565b60405180910390a3505050565b600073ffffffffffffffffffffffffffffffffffffffff168373ffffffffffffffffffffffffffffffffffffffff161415610e7a576040517f08c379a0000000000000000000000000000000000000000000000000000000008152600401610e7190612324565b60405180910390fd5b600073ffffffffffffffffffffffffffffffffffffffff168273ffffffffffffffffffffffffffffffffffffffff161415610eea576040517f08c379a0000000000000000000000000000000000000000000000000000000008152600401610ee190612224565b60405180910390fd5b610f56816040518060600160405280602681526020016125c160269139600460008773ffffffffffffffffffffffffffffffffffffffff1673ffffffffffffffffffffffffffffffffffffffff168152602001908152602001600020546110989092919063ffffffff16565b600460008573ffffffffffffffffffffffffffffffffffffffff1673ffffffffffffffffffffffffffffffffffffffff16815260200190815260200160002081905550610feb81600460008573ffffffffffffffffffffffffffffffffffffffff1673ffffffffffffffffffffffffffffffffffffffff168152602001908152602001600020546110f390919063ffffffff16565b600460008473ffffffffffffffffffffffffffffffffffffffff1673ffffffffffffffffffffffffffffffffffffffff168152602001908152602001600020819055508173ffffffffffffffffffffffffffffffffffffffff168373ffffffffffffffffffffffffffffffffffffffff167fddf252ad1be2c89b69c2b068fc378daa952ba7f163c4a11628f55a4df523b3ef8360405161108b9190612384565b60405180910390a3505050565b60008383111582906110e0576040517f08c379a00000000000000000000000000000000000000000000000000000000081526004016110d79190612202565b60405180910390fd5b5060008385039050809150509392505050565b60008082840190508381101561113e576040517f08c379a000000000000000000000000000000000000000000000000000000000815260040161113590612284565b60405180910390fd5b8091505092915050565b600073ffffffffffffffffffffffffffffffffffffffff168273ffffffffffffffffffffffffffffffffffffffff1614156111b8576040517f08c379a00000000000000000000000000000000000000000000000000000000081526004016111af90612364565b60405180910390fd5b6111cd816006546110f390919063ffffffff16565b60068190555061122581600460008573ffffffffffffffffffffffffffffffffffffffff1673ffffffffffffffffffffffffffffffffffffffff168152602001908152602001600020546110f390919063ffffffff16565b600460008473ffffffffffffffffffffffffffffffffffffffff1673ffffffffffffffffffffffffffffffffffffffff168152602001908152602001600020819055508173ffffffffffffffffffffffffffffffffffffffff16600073ffffffffffffffffffffffffffffffffffffffff167fddf252ad1be2c89b69c2b068fc378daa952ba7f163c4a11628f55a4df523b3ef836040516112c69190612384565b60405180910390a35050565b600073ffffffffffffffffffffffffffffffffffffffff168273ffffffffffffffffffffffffffffffffffffffff161415611342576040517f08c379a000000000000000000000000000000000000000000000000000000000815260040161133990612304565b60405180910390fd5b6113ae8160405180606001604052806022815260200161259f60229139600460008673ffffffffffffffffffffffffffffffffffffffff1673ffffffffffffffffffffffffffffffffffffffff168152602001908152602001600020546110989092919063ffffffff16565b600460008473ffffffffffffffffffffffffffffffffffffffff1673ffffffffffffffffffffffffffffffffffffffff168152602001908152602001600020819055506114068160065461178490919063ffffffff16565b600681905550600073ffffffffffffffffffffffffffffffffffffffff168273ffffffffffffffffffffffffffffffffffffffff167fddf252ad1be2c89b69c2b068fc378daa952ba7f163c4a11628f55a4df523b3ef8360405161146a9190612384565b60405180910390a35050565b61148082826112d2565b6115418261148c610c37565b61153c846040518060600160405280602481526020016125e760249139600560008973ffffffffffffffffffffffffffffffffffffffff1673ffffffffffffffffffffffffffffffffffffffff16815260200190815260200160002060006114f2610c37565b73ffffffffffffffffffffffffffffffffffffffff1673ffffffffffffffffffffffffffffffffffffffff168152602001908152602001600020546110989092919063ffffffff16565b610c3f565b5050565b6115598160006117ce90919063ffffffff16565b8073ffffffffffffffffffffffffffffffffffffffff167f6ae172837ea30b801fbfcdd4108aa1d5bf8ff775444fd70256b44e6bf3dfc3f660405160405180910390a250565b6115b381600061187690919063ffffffff16565b8073ffffffffffffffffffffffffffffffffffffffff167fe94479a9f7e1952cc78f2d6baab678adc1b772d936c6583def489e524cb6669260405160405180910390a250565b60008073ffffffffffffffffffffffffffffffffffffffff168273ffffffffffffffffffffffffffffffffffffffff16141561166a576040517f08c379a0000000000000000000000000000000000000000000000000000000008152600401611661906122e4565b60405180910390fd5b8260000160008373ffffffffffffffffffffffffffffffffffffffff1673ffffffffffffffffffffffffffffffffffffffff16815260200190815260200160002060009054906101000a900460ff16905092915050565b60006040517f190100000000000000000000000000000000000000000000000000000000000081528360028201528260228201526042812091505080905092915050565b8261177f576117138261191d565b613a2060f01b6117228361191d565b604051602001611734939291906120f1565b6040516020818303038152906040526040517f08c379a00000000000000000000000000000000000000000000000000000000081526004016117769190612202565b60405180910390fd5b505050565b60006117c683836040518060400160405280601e81526020017f536166654d6174683a207375627472616374696f6e206f766572666c6f770000815250611098565b905092915050565b6117d882826115f9565b15611818576040517f08c379a000000000000000000000000000000000000000000000000000000000815260040161180f90612244565b60405180910390fd5b60018260000160008373ffffffffffffffffffffffffffffffffffffffff1673ffffffffffffffffffffffffffffffffffffffff16815260200190815260200160002060006101000a81548160ff0219169083151502179055505050565b61188082826115f9565b6118bf576040517f08c379a00000000000000000000000000000000000000000000000000000000081526004016118b6906122c4565b60405180910390fd5b60008260000160008373ffffffffffffffffffffffffffffffffffffffff1673ffffffffffffffffffffffffffffffffffffffff16815260200190815260200160002060006101000a81548160ff0219169083151502179055505050565b6060808260405160200161193191906120d6565b60405160208183030381529060405290506000602090505b60008111156119b957808060019003915050600060f81b82828151811061196c57fe5b602001015160f81c60f81b7effffffffffffffffffffffffffffffffffffffffffffffffffffffffffffff1916146119b45760006001820190508083528293505050506119f3565b611949565b5060006040519080825280601f01601f1916602001820160405280156119ee5781602001600182028038833980820191505090505b509150505b919050565b600081359050611a07816124cf565b92915050565b600081359050611a1c816124e6565b92915050565b600081359050611a31816124fd565b92915050565b600081359050611a4681612514565b92915050565b600060208284031215611a5e57600080fd5b6000611a6c848285016119f8565b91505092915050565b60008060408385031215611a8857600080fd5b6000611a96858286016119f8565b9250506020611aa7858286016119f8565b9150509250929050565b600080600060608486031215611ac657600080fd5b6000611ad4868287016119f8565b9350506020611ae5868287016119f8565b9250506040611af686828701611a22565b9150509250925092565b600080600080600080600060e0888a031215611b1b57600080fd5b6000611b298a828b016119f8565b9750506020611b3a8a828b016119f8565b9650506040611b4b8a828b01611a22565b9550506060611b5c8a828b01611a22565b9450506080611b6d8a828b01611a37565b93505060a0611b7e8a828b01611a0d565b92505060c0611b8f8a828b01611a0d565b91505092959891949750929550565b60008060408385031215611bb157600080fd5b6000611bbf858286016119f8565b9250506020611bd085828601611a22565b9150509250929050565b600060208284031215611bec57600080fd5b6000611bfa84828501611a22565b91505092915050565b611c0c816123ec565b82525050565b611c1b816123fe565b82525050565b611c32611c2d8261240a565b6124aa565b82525050565b611c4181612436565b82525050565b611c58611c5382612436565b6124b4565b82525050565b6000611c69826123ba565b611c7381856123d0565b9350611c83818560208601612477565b80840191505092915050565b6000611c9a826123c5565b611ca481856123db565b9350611cb4818560208601612477565b611cbd816124be565b840191505092915050565b6000611cd56023836123db565b91507f45524332303a207472616e7366657220746f20746865207a65726f206164647260008301527f65737300000000000000000000000000000000000000000000000000000000006020830152604082019050919050565b6000611d3b601f836123db565b91507f526f6c65733a206163636f756e7420616c72656164792068617320726f6c65006000830152602082019050919050565b6000611d7b6022836123db565b91507f45524332303a20617070726f766520746f20746865207a65726f20616464726560008301527f73730000000000000000000000000000000000000000000000000000000000006020830152604082019050919050565b6000611de1601b836123db565b91507f536166654d6174683a206164646974696f6e206f766572666c6f7700000000006000830152602082019050919050565b6000611e216030836123db565b91507f4d696e746572526f6c653a2063616c6c657220646f6573206e6f74206861766560008301527f20746865204d696e74657220726f6c65000000000000000000000000000000006020830152604082019050919050565b6000611e876021836123db565b91507f526f6c65733a206163636f756e7420646f6573206e6f74206861766520726f6c60008301527f65000000000000000000000000000000000000000000000000000000000000006020830152604082019050919050565b6000611eed6022836123db565b91507f526f6c65733a206163636f756e7420697320746865207a65726f20616464726560008301527f73730000000000000000000000000000000000000000000000000000000000006020830152604082019050919050565b6000611f536021836123db565b91507f45524332303a206275726e2066726f6d20746865207a65726f2061646472657360008301527f73000000000000000000000000000000000000000000000000000000000000006020830152604082019050919050565b6000611fb96025836123db565b91507f45524332303a207472616e736665722066726f6d20746865207a65726f20616460008301527f64726573730000000000000000000000000000000000000000000000000000006020830152604082019050919050565b600061201f6024836123db565b91507f45524332303a20617070726f76652066726f6d20746865207a65726f2061646460008301527f72657373000000000000000000000000000000000000000000000000000000006020830152604082019050919050565b6000612085601f836123db565b91507f45524332303a206d696e7420746f20746865207a65726f2061646472657373006000830152602082019050919050565b6120c181612460565b82525050565b6120d08161246a565b82525050565b60006120e28284611c47565b60208201915081905092915050565b60006120fd8286611c5e565b91506121098285611c21565b6002820191506121198284611c5e565b9150819050949350505050565b600060208201905061213b6000830184611c12565b92915050565b60006020820190506121566000830184611c38565b92915050565b600060c0820190506121716000830189611c38565b61217e6020830188611c03565b61218b6040830187611c03565b61219860608301866120b8565b6121a560808301856120b8565b6121b260a08301846120b8565b979650505050505050565b60006080820190506121d26000830187611c38565b6121df60208301866120c7565b6121ec6040830185611c38565b6121f96060830184611c38565b95945050505050565b6000602082019050818103600083015261221c8184611c8f565b905092915050565b6000602082019050818103600083015261223d81611cc8565b9050919050565b6000602082019050818103600083015261225d81611d2e565b9050919050565b6000602082019050818103600083015261227d81611d6e565b9050919050565b6000602082019050818103600083015261229d81611dd4565b9050919050565b600060208201905081810360008301526122bd81611e14565b9050919050565b600060208201905081810360008301526122dd81611e7a565b9050919050565b600060208201905081810360008301526122fd81611ee0565b9050919050565b6000602082019050818103600083015261231d81611f46565b9050919050565b6000602082019050818103600083015261233d81611fac565b9050919050565b6000602082019050818103600083015261235d81612012565b9050919050565b6000602082019050818103600083015261237d81612078565b9050919050565b600060208201905061239960008301846120b8565b92915050565b60006020820190506123b460008301846120c7565b92915050565b600081519050919050565b600081519050919050565b600081905092915050565b600082825260208201905092915050565b60006123f782612440565b9050919050565b60008115159050919050565b60007fffff00000000000000000000000000000000000000000000000000000000000082169050919050565b6000819050919050565b600073ffffffffffffffffffffffffffffffffffffffff82169050919050565b6000819050919050565b600060ff82169050919050565b60005b8381101561249557808201518184015260208101905061247a565b838111156124a4576000848401525b50505050565b6000819050919050565b6000819050919050565b6000601f19601f8301169050919050565b6124d8816123ec565b81146124e357600080fd5b50565b6124ef81612436565b81146124fa57600080fd5b50565b61250681612460565b811461251157600080fd5b50565b61251d8161246a565b811461252857600080fd5b50565b60006001905090565b6000807f8b73c3c69bb8fe3d512ecc4cf759cc79239f7b179b0ffacaa9a75d522b39400f60001b9050855160208701208551602087012060405183815282602082015281604082015286606082015285608082015260a0812094505050508191505094935050505056fe45524332303a206275726e20616d6f756e7420657863656564732062616c616e636545524332303a207472616e7366657220616d6f756e7420657863656564732062616c616e636545524332303a206275726e20616d6f756e74206578636565647320616c6c6f77616e6365446f6c6c61723a207472616e7366657220616d6f756e74206578636565647320616c6c6f77616e636545524332303a2064656372656173656420616c6c6f77616e63652062656c6f77207a65726fa365627a7a723158206734b8460df4bb349338b8ec670444aa1df0138af460167a16f64a927eb3d6146c6578706572696d656e74616cf564736f6c63430005110040",
  "source": "/*\n    Copyright 2020 Empty Set Squad <emptysetsquad@protonmail.com>\n\n    Licensed under the Apache License, Version 2.0 (the \"License\");\n    you may not use this file except in compliance with the License.\n    You may obtain a copy of the License at\n\n    http://www.apache.org/licenses/LICENSE-2.0\n\n    Unless required by applicable law or agreed to in writing, software\n    distributed under the License is distributed on an \"AS IS\" BASIS,\n    WITHOUT WARRANTIES OR CONDITIONS OF ANY KIND, either express or implied.\n    See the License for the specific language governing permissions and\n    limitations under the License.\n*/\n\npragma solidity ^0.5.17;\npragma experimental ABIEncoderV2;\n\nimport \"./MockState.sol\";\nimport \"../dao/Bonding.sol\";\nimport \"./MockComptroller.sol\";\n\ncontract MockBonding is MockComptroller, Bonding {\n    constructor() MockComptroller(address(0)) public { }\n\n    function stepE() external {\n        Bonding.step();\n    }\n}\n",
  "sourcePath": "/Users/gokulalex/Apps/eth_apps/SemiotNet/contracts/mock/MockBonding.sol",
  "compiler": {
    "name": "solc",
    "version": "0.5.17+commit.d19bba13.Emscripten.clang"
  },
  "schemaVersion": "3.3.3",
  "updatedAt": "2021-02-19T15:49:23.636Z",
  "devdoc": {
    "methods": {}
  },
  "userdoc": {
    "methods": {
      "balanceOfStaged(address)": {
        "notice": "Account"
      },
      "createCandidateE(address,uint256)": {
        "notice": "Governance"
      },
      "dollar()": {
        "notice": "Global"
      },
      "epoch()": {
        "notice": "Epoch"
      },
      "incrementBalanceOfE(address,uint256)": {
        "notice": "Account"
      },
      "incrementTotalBondedE(uint256)": {
        "notice": "Global"
      },
      "name()": {
        "notice": "ERC20 Interface"
      },
      "recordedVote(address,address)": {
        "notice": "Governance"
      },
      "setBlockTimestamp(uint256)": {
        "notice": "Mock"
      },
      "setEpochParamsE(uint256,uint256)": {
        "notice": "Epoch"
      },
      "transfer(address,uint256)": {
        "notice": "ERC20 Interface"
      }
    }
  }
}