{
  "contractName": "MockState",
  "abi": [
    {
      "inputs": [],
      "payable": false,
      "stateMutability": "nonpayable",
      "type": "constructor"
    },
    {
      "anonymous": false,
      "inputs": [
        {
          "indexed": true,
          "internalType": "address",
          "name": "from",
          "type": "address"
        },
        {
          "indexed": true,
          "internalType": "address",
          "name": "to",
          "type": "address"
        },
        {
          "indexed": false,
          "internalType": "uint256",
          "name": "value",
          "type": "uint256"
        }
      ],
      "name": "Transfer",
      "type": "event"
    },
    {
      "constant": true,
      "inputs": [
        {
          "internalType": "address",
          "name": "owner",
          "type": "address"
        },
        {
          "internalType": "address",
          "name": "spender",
          "type": "address"
        }
      ],
      "name": "allowance",
      "outputs": [
        {
          "internalType": "uint256",
          "name": "",
          "type": "uint256"
        }
      ],
      "payable": false,
      "stateMutability": "view",
      "type": "function"
    },
    {
      "constant": true,
      "inputs": [
        {
          "internalType": "address",
          "name": "owner",
          "type": "address"
        },
        {
          "internalType": "address",
          "name": "spender",
          "type": "address"
        }
      ],
      "name": "allowanceCoupons",
      "outputs": [
        {
          "internalType": "uint256",
          "name": "",
          "type": "uint256"
        }
      ],
      "payable": false,
      "stateMutability": "view",
      "type": "function"
    },
    {
      "constant": false,
      "inputs": [
        {
          "internalType": "address",
          "name": "spender",
          "type": "address"
        },
        {
          "internalType": "uint256",
          "name": "amount",
          "type": "uint256"
        }
      ],
      "name": "approve",
      "outputs": [
        {
          "internalType": "bool",
          "name": "",
          "type": "bool"
        }
      ],
      "payable": false,
      "stateMutability": "nonpayable",
      "type": "function"
    },
    {
      "constant": true,
      "inputs": [
        {
          "internalType": "address",
          "name": "candidate",
          "type": "address"
        }
      ],
      "name": "approveFor",
      "outputs": [
        {
          "internalType": "uint256",
          "name": "",
          "type": "uint256"
        }
      ],
      "payable": false,
      "stateMutability": "view",
      "type": "function"
    },
    {
      "constant": true,
      "inputs": [
        {
          "internalType": "address",
          "name": "account",
          "type": "address"
        }
      ],
      "name": "balanceOf",
      "outputs": [
        {
          "internalType": "uint256",
          "name": "",
          "type": "uint256"
        }
      ],
      "payable": false,
      "stateMutability": "view",
      "type": "function"
    },
    {
      "constant": true,
      "inputs": [
        {
          "internalType": "address",
          "name": "account",
          "type": "address"
        }
      ],
      "name": "balanceOfBonded",
      "outputs": [
        {
          "internalType": "uint256",
          "name": "",
          "type": "uint256"
        }
      ],
      "payable": false,
      "stateMutability": "view",
      "type": "function"
    },
    {
      "constant": true,
      "inputs": [
        {
          "internalType": "address",
          "name": "account",
          "type": "address"
        },
        {
          "internalType": "uint256",
          "name": "epoch",
          "type": "uint256"
        }
      ],
      "name": "balanceOfCouponUnderlying",
      "outputs": [
        {
          "internalType": "uint256",
          "name": "",
          "type": "uint256"
        }
      ],
      "payable": false,
      "stateMutability": "view",
      "type": "function"
    },
    {
      "constant": true,
      "inputs": [
        {
          "internalType": "address",
          "name": "account",
          "type": "address"
        },
        {
          "internalType": "uint256",
          "name": "epoch",
          "type": "uint256"
        }
      ],
      "name": "balanceOfCoupons",
      "outputs": [
        {
          "internalType": "uint256",
          "name": "",
          "type": "uint256"
        }
      ],
      "payable": false,
      "stateMutability": "view",
      "type": "function"
    },
    {
      "constant": true,
      "inputs": [
        {
          "internalType": "address",
          "name": "account",
          "type": "address"
        }
      ],
      "name": "balanceOfStaged",
      "outputs": [
        {
          "internalType": "uint256",
          "name": "",
          "type": "uint256"
        }
      ],
      "payable": false,
      "stateMutability": "view",
      "type": "function"
    },
    {
      "constant": true,
      "inputs": [
        {
          "internalType": "uint256",
          "name": "epoch",
          "type": "uint256"
        }
      ],
      "name": "bootstrappingAt",
      "outputs": [
        {
          "internalType": "bool",
          "name": "",
          "type": "bool"
        }
      ],
      "payable": false,
      "stateMutability": "view",
      "type": "function"
    },
    {
      "constant": true,
      "inputs": [
        {
          "internalType": "uint256",
          "name": "epoch",
          "type": "uint256"
        }
      ],
      "name": "couponsExpiration",
      "outputs": [
        {
          "internalType": "uint256",
          "name": "",
          "type": "uint256"
        }
      ],
      "payable": false,
      "stateMutability": "view",
      "type": "function"
    },
    {
      "constant": true,
      "inputs": [],
      "name": "decimals",
      "outputs": [
        {
          "internalType": "uint8",
          "name": "",
          "type": "uint8"
        }
      ],
      "payable": false,
      "stateMutability": "view",
      "type": "function"
    },
    {
      "constant": true,
      "inputs": [],
      "name": "dollar",
      "outputs": [
        {
          "internalType": "contract IDollar",
          "name": "",
          "type": "address"
        }
      ],
      "payable": false,
      "stateMutability": "view",
      "type": "function"
    },
    {
      "constant": true,
      "inputs": [],
      "name": "epoch",
      "outputs": [
        {
          "internalType": "uint256",
          "name": "",
          "type": "uint256"
        }
      ],
      "payable": false,
      "stateMutability": "view",
      "type": "function"
    },
    {
      "constant": true,
      "inputs": [],
      "name": "epochTime",
      "outputs": [
        {
          "internalType": "uint256",
          "name": "",
          "type": "uint256"
        }
      ],
      "payable": false,
      "stateMutability": "view",
      "type": "function"
    },
    {
      "constant": true,
      "inputs": [],
      "name": "eraStart",
      "outputs": [
        {
          "internalType": "uint256",
          "name": "",
          "type": "uint256"
        }
      ],
      "payable": false,
      "stateMutability": "view",
      "type": "function"
    },
    {
      "constant": true,
      "inputs": [],
      "name": "eraStatus",
      "outputs": [
        {
          "internalType": "enum Era.Status",
          "name": "",
          "type": "uint8"
        }
      ],
      "payable": false,
      "stateMutability": "view",
      "type": "function"
    },
    {
      "constant": true,
      "inputs": [
        {
          "internalType": "uint256",
          "name": "epoch",
          "type": "uint256"
        }
      ],
      "name": "expiringCoupons",
      "outputs": [
        {
          "internalType": "uint256",
          "name": "",
          "type": "uint256"
        }
      ],
      "payable": false,
      "stateMutability": "view",
      "type": "function"
    },
    {
      "constant": true,
      "inputs": [
        {
          "internalType": "uint256",
          "name": "epoch",
          "type": "uint256"
        },
        {
          "internalType": "uint256",
          "name": "i",
          "type": "uint256"
        }
      ],
      "name": "expiringCouponsAtIndex",
      "outputs": [
        {
          "internalType": "uint256",
          "name": "",
          "type": "uint256"
        }
      ],
      "payable": false,
      "stateMutability": "view",
      "type": "function"
    },
    {
      "constant": true,
      "inputs": [
        {
          "internalType": "address",
          "name": "account",
          "type": "address"
        }
      ],
      "name": "fluidUntil",
      "outputs": [
        {
          "internalType": "uint256",
          "name": "",
          "type": "uint256"
        }
      ],
      "payable": false,
      "stateMutability": "view",
      "type": "function"
    },
    {
      "constant": true,
      "inputs": [],
      "name": "implementation",
      "outputs": [
        {
          "internalType": "address",
          "name": "impl",
          "type": "address"
        }
      ],
      "payable": false,
      "stateMutability": "view",
      "type": "function"
    },
    {
      "constant": true,
      "inputs": [
        {
          "internalType": "address",
          "name": "candidate",
          "type": "address"
        }
      ],
      "name": "isInitialized",
      "outputs": [
        {
          "internalType": "bool",
          "name": "",
          "type": "bool"
        }
      ],
      "payable": false,
      "stateMutability": "view",
      "type": "function"
    },
    {
      "constant": true,
      "inputs": [
        {
          "internalType": "address",
          "name": "candidate",
          "type": "address"
        }
      ],
      "name": "isNominated",
      "outputs": [
        {
          "internalType": "bool",
          "name": "",
          "type": "bool"
        }
      ],
      "payable": false,
      "stateMutability": "view",
      "type": "function"
    },
    {
      "constant": true,
      "inputs": [
        {
          "internalType": "address",
          "name": "account",
          "type": "address"
        }
      ],
      "name": "lockedUntil",
      "outputs": [
        {
          "internalType": "uint256",
          "name": "",
          "type": "uint256"
        }
      ],
      "payable": false,
      "stateMutability": "view",
      "type": "function"
    },
    {
      "constant": true,
      "inputs": [],
      "name": "name",
      "outputs": [
        {
          "internalType": "string",
          "name": "",
          "type": "string"
        }
      ],
      "payable": false,
      "stateMutability": "view",
      "type": "function"
    },
    {
      "constant": true,
      "inputs": [],
      "name": "oracle",
      "outputs": [
        {
          "internalType": "contract IOracle",
          "name": "",
          "type": "address"
        }
      ],
      "payable": false,
      "stateMutability": "view",
      "type": "function"
    },
    {
      "constant": true,
      "inputs": [
        {
          "internalType": "uint256",
          "name": "epoch",
          "type": "uint256"
        }
      ],
      "name": "outstandingCoupons",
      "outputs": [
        {
          "internalType": "uint256",
          "name": "",
          "type": "uint256"
        }
      ],
      "payable": false,
      "stateMutability": "view",
      "type": "function"
    },
    {
      "constant": true,
      "inputs": [
        {
          "internalType": "address",
          "name": "candidate",
          "type": "address"
        }
      ],
      "name": "periodFor",
      "outputs": [
        {
          "internalType": "uint256",
          "name": "",
          "type": "uint256"
        }
      ],
      "payable": false,
      "stateMutability": "view",
      "type": "function"
    },
    {
      "constant": true,
      "inputs": [],
      "name": "pool",
      "outputs": [
        {
          "internalType": "address",
          "name": "",
          "type": "address"
        }
      ],
      "payable": false,
      "stateMutability": "view",
      "type": "function"
    },
    {
      "constant": true,
      "inputs": [
        {
          "internalType": "address",
          "name": "account",
          "type": "address"
        },
        {
          "internalType": "address",
          "name": "candidate",
          "type": "address"
        }
      ],
      "name": "recordedVote",
      "outputs": [
        {
          "internalType": "enum Candidate.Vote",
          "name": "",
          "type": "uint8"
        }
      ],
      "payable": false,
      "stateMutability": "view",
      "type": "function"
    },
    {
      "constant": true,
      "inputs": [
        {
          "internalType": "address",
          "name": "candidate",
          "type": "address"
        }
      ],
      "name": "rejectFor",
      "outputs": [
        {
          "internalType": "uint256",
          "name": "",
          "type": "uint256"
        }
      ],
      "payable": false,
      "stateMutability": "view",
      "type": "function"
    },
    {
      "constant": true,
      "inputs": [
        {
          "internalType": "address",
          "name": "candidate",
          "type": "address"
        }
      ],
      "name": "startFor",
      "outputs": [
        {
          "internalType": "uint256",
          "name": "",
          "type": "uint256"
        }
      ],
      "payable": false,
      "stateMutability": "view",
      "type": "function"
    },
    {
      "constant": true,
      "inputs": [
        {
          "internalType": "address",
          "name": "account",
          "type": "address"
        }
      ],
      "name": "statusOf",
      "outputs": [
        {
          "internalType": "enum Account.Status",
          "name": "",
          "type": "uint8"
        }
      ],
      "payable": false,
      "stateMutability": "view",
      "type": "function"
    },
    {
      "constant": true,
      "inputs": [],
      "name": "symbol",
      "outputs": [
        {
          "internalType": "string",
          "name": "",
          "type": "string"
        }
      ],
      "payable": false,
      "stateMutability": "view",
      "type": "function"
    },
    {
      "constant": true,
      "inputs": [],
      "name": "totalBonded",
      "outputs": [
        {
          "internalType": "uint256",
          "name": "",
          "type": "uint256"
        }
      ],
      "payable": false,
      "stateMutability": "view",
      "type": "function"
    },
    {
      "constant": true,
      "inputs": [
        {
          "internalType": "uint256",
          "name": "epoch",
          "type": "uint256"
        }
      ],
      "name": "totalBondedAt",
      "outputs": [
        {
          "internalType": "uint256",
          "name": "",
          "type": "uint256"
        }
      ],
      "payable": false,
      "stateMutability": "view",
      "type": "function"
    },
    {
      "constant": true,
      "inputs": [],
      "name": "totalCouponUnderlying",
      "outputs": [
        {
          "internalType": "uint256",
          "name": "",
          "type": "uint256"
        }
      ],
      "payable": false,
      "stateMutability": "view",
      "type": "function"
    },
    {
      "constant": true,
      "inputs": [],
      "name": "totalCoupons",
      "outputs": [
        {
          "internalType": "uint256",
          "name": "",
          "type": "uint256"
        }
      ],
      "payable": false,
      "stateMutability": "view",
      "type": "function"
    },
    {
      "constant": true,
      "inputs": [],
      "name": "totalDebt",
      "outputs": [
        {
          "internalType": "uint256",
          "name": "",
          "type": "uint256"
        }
      ],
      "payable": false,
      "stateMutability": "view",
      "type": "function"
    },
    {
      "constant": true,
      "inputs": [],
      "name": "totalNet",
      "outputs": [
        {
          "internalType": "uint256",
          "name": "",
          "type": "uint256"
        }
      ],
      "payable": false,
      "stateMutability": "view",
      "type": "function"
    },
    {
      "constant": true,
      "inputs": [],
      "name": "totalRedeemable",
      "outputs": [
        {
          "internalType": "uint256",
          "name": "",
          "type": "uint256"
        }
      ],
      "payable": false,
      "stateMutability": "view",
      "type": "function"
    },
    {
      "constant": true,
      "inputs": [],
      "name": "totalStaged",
      "outputs": [
        {
          "internalType": "uint256",
          "name": "",
          "type": "uint256"
        }
      ],
      "payable": false,
      "stateMutability": "view",
      "type": "function"
    },
    {
      "constant": true,
      "inputs": [],
      "name": "totalSupply",
      "outputs": [
        {
          "internalType": "uint256",
          "name": "",
          "type": "uint256"
        }
      ],
      "payable": false,
      "stateMutability": "view",
      "type": "function"
    },
    {
      "constant": false,
      "inputs": [
        {
          "internalType": "address",
          "name": "recipient",
          "type": "address"
        },
        {
          "internalType": "uint256",
          "name": "amount",
          "type": "uint256"
        }
      ],
      "name": "transfer",
      "outputs": [
        {
          "internalType": "bool",
          "name": "",
          "type": "bool"
        }
      ],
      "payable": false,
      "stateMutability": "nonpayable",
      "type": "function"
    },
    {
      "constant": false,
      "inputs": [
        {
          "internalType": "address",
          "name": "sender",
          "type": "address"
        },
        {
          "internalType": "address",
          "name": "recipient",
          "type": "address"
        },
        {
          "internalType": "uint256",
          "name": "amount",
          "type": "uint256"
        }
      ],
      "name": "transferFrom",
      "outputs": [
        {
          "internalType": "bool",
          "name": "",
          "type": "bool"
        }
      ],
      "payable": false,
      "stateMutability": "nonpayable",
      "type": "function"
    },
    {
      "constant": true,
      "inputs": [
        {
          "internalType": "address",
          "name": "candidate",
          "type": "address"
        }
      ],
      "name": "votesFor",
      "outputs": [
        {
          "internalType": "uint256",
          "name": "",
          "type": "uint256"
        }
      ],
      "payable": false,
      "stateMutability": "view",
      "type": "function"
    },
    {
      "constant": false,
      "inputs": [
        {
          "internalType": "uint256",
          "name": "amount",
          "type": "uint256"
        }
      ],
      "name": "incrementTotalBondedE",
      "outputs": [],
      "payable": false,
      "stateMutability": "nonpayable",
      "type": "function"
    },
    {
      "constant": false,
      "inputs": [
        {
          "internalType": "uint256",
          "name": "amount",
          "type": "uint256"
        },
        {
          "internalType": "string",
          "name": "reason",
          "type": "string"
        }
      ],
      "name": "decrementTotalBondedE",
      "outputs": [],
      "payable": false,
      "stateMutability": "nonpayable",
      "type": "function"
    },
    {
      "constant": false,
      "inputs": [
        {
          "internalType": "uint256",
          "name": "amount",
          "type": "uint256"
        }
      ],
      "name": "incrementTotalDebtE",
      "outputs": [],
      "payable": false,
      "stateMutability": "nonpayable",
      "type": "function"
    },
    {
      "constant": false,
      "inputs": [
        {
          "internalType": "uint256",
          "name": "amount",
          "type": "uint256"
        },
        {
          "internalType": "string",
          "name": "reason",
          "type": "string"
        }
      ],
      "name": "decrementTotalDebtE",
      "outputs": [],
      "payable": false,
      "stateMutability": "nonpayable",
      "type": "function"
    },
    {
      "constant": false,
      "inputs": [
        {
          "internalType": "uint256",
          "name": "amount",
          "type": "uint256"
        }
      ],
      "name": "incrementTotalRedeemableE",
      "outputs": [],
      "payable": false,
      "stateMutability": "nonpayable",
      "type": "function"
    },
    {
      "constant": false,
      "inputs": [
        {
          "internalType": "uint256",
          "name": "amount",
          "type": "uint256"
        },
        {
          "internalType": "string",
          "name": "reason",
          "type": "string"
        }
      ],
      "name": "decrementTotalRedeemableE",
      "outputs": [],
      "payable": false,
      "stateMutability": "nonpayable",
      "type": "function"
    },
    {
      "constant": false,
      "inputs": [
        {
          "internalType": "enum Era.Status",
          "name": "status",
          "type": "uint8"
        }
      ],
      "name": "updateEraE",
      "outputs": [],
      "payable": false,
      "stateMutability": "nonpayable",
      "type": "function"
    },
    {
      "constant": false,
      "inputs": [
        {
          "internalType": "address",
          "name": "account",
          "type": "address"
        },
        {
          "internalType": "uint256",
          "name": "amount",
          "type": "uint256"
        }
      ],
      "name": "incrementBalanceOfE",
      "outputs": [],
      "payable": false,
      "stateMutability": "nonpayable",
      "type": "function"
    },
    {
      "constant": false,
      "inputs": [
        {
          "internalType": "address",
          "name": "account",
          "type": "address"
        },
        {
          "internalType": "uint256",
          "name": "amount",
          "type": "uint256"
        },
        {
          "internalType": "string",
          "name": "reason",
          "type": "string"
        }
      ],
      "name": "decrementBalanceOfE",
      "outputs": [],
      "payable": false,
      "stateMutability": "nonpayable",
      "type": "function"
    },
    {
      "constant": false,
      "inputs": [
        {
          "internalType": "address",
          "name": "account",
          "type": "address"
        },
        {
          "internalType": "uint256",
          "name": "amount",
          "type": "uint256"
        }
      ],
      "name": "incrementBalanceOfStagedE",
      "outputs": [],
      "payable": false,
      "stateMutability": "nonpayable",
      "type": "function"
    },
    {
      "constant": false,
      "inputs": [
        {
          "internalType": "address",
          "name": "account",
          "type": "address"
        },
        {
          "internalType": "uint256",
          "name": "amount",
          "type": "uint256"
        },
        {
          "internalType": "string",
          "name": "reason",
          "type": "string"
        }
      ],
      "name": "decrementBalanceOfStagedE",
      "outputs": [],
      "payable": false,
      "stateMutability": "nonpayable",
      "type": "function"
    },
    {
      "constant": false,
      "inputs": [
        {
          "internalType": "address",
          "name": "account",
          "type": "address"
        },
        {
          "internalType": "uint256",
          "name": "epoch",
          "type": "uint256"
        },
        {
          "internalType": "uint256",
          "name": "amount",
          "type": "uint256"
        }
      ],
      "name": "incrementBalanceOfCouponsE",
      "outputs": [],
      "payable": false,
      "stateMutability": "nonpayable",
      "type": "function"
    },
    {
      "constant": false,
      "inputs": [
        {
          "internalType": "address",
          "name": "account",
          "type": "address"
        },
        {
          "internalType": "uint256",
          "name": "epoch",
          "type": "uint256"
        },
        {
          "internalType": "uint256",
          "name": "amount",
          "type": "uint256"
        }
      ],
      "name": "incrementBalanceOfCouponUnderlyingE",
      "outputs": [],
      "payable": false,
      "stateMutability": "nonpayable",
      "type": "function"
    },
    {
      "constant": false,
      "inputs": [
        {
          "internalType": "address",
          "name": "account",
          "type": "address"
        },
        {
          "internalType": "uint256",
          "name": "epoch",
          "type": "uint256"
        },
        {
          "internalType": "uint256",
          "name": "amount",
          "type": "uint256"
        },
        {
          "internalType": "string",
          "name": "reason",
          "type": "string"
        }
      ],
      "name": "decrementBalanceOfCouponsE",
      "outputs": [],
      "payable": false,
      "stateMutability": "nonpayable",
      "type": "function"
    },
    {
      "constant": false,
      "inputs": [
        {
          "internalType": "address",
          "name": "account",
          "type": "address"
        },
        {
          "internalType": "uint256",
          "name": "epoch",
          "type": "uint256"
        },
        {
          "internalType": "uint256",
          "name": "amount",
          "type": "uint256"
        },
        {
          "internalType": "string",
          "name": "reason",
          "type": "string"
        }
      ],
      "name": "decrementBalanceOfCouponUnderlyingE",
      "outputs": [],
      "payable": false,
      "stateMutability": "nonpayable",
      "type": "function"
    },
    {
      "constant": false,
      "inputs": [
        {
          "internalType": "address",
          "name": "account",
          "type": "address"
        }
      ],
      "name": "unfreezeE",
      "outputs": [],
      "payable": false,
      "stateMutability": "nonpayable",
      "type": "function"
    },
    {
      "constant": false,
      "inputs": [
        {
          "internalType": "address",
          "name": "owner",
          "type": "address"
        },
        {
          "internalType": "address",
          "name": "spender",
          "type": "address"
        },
        {
          "internalType": "uint256",
          "name": "amount",
          "type": "uint256"
        }
      ],
      "name": "updateAllowanceCouponsE",
      "outputs": [],
      "payable": false,
      "stateMutability": "nonpayable",
      "type": "function"
    },
    {
      "constant": false,
      "inputs": [
        {
          "internalType": "address",
          "name": "owner",
          "type": "address"
        },
        {
          "internalType": "address",
          "name": "spender",
          "type": "address"
        },
        {
          "internalType": "uint256",
          "name": "amount",
          "type": "uint256"
        },
        {
          "internalType": "string",
          "name": "reason",
          "type": "string"
        }
      ],
      "name": "decrementAllowanceCouponsE",
      "outputs": [],
      "payable": false,
      "stateMutability": "nonpayable",
      "type": "function"
    },
    {
      "constant": false,
      "inputs": [
        {
          "internalType": "uint256",
          "name": "start",
          "type": "uint256"
        },
        {
          "internalType": "uint256",
          "name": "period",
          "type": "uint256"
        }
      ],
      "name": "setEpochParamsE",
      "outputs": [],
      "payable": false,
      "stateMutability": "nonpayable",
      "type": "function"
    },
    {
      "constant": false,
      "inputs": [],
      "name": "incrementEpochE",
      "outputs": [],
      "payable": false,
      "stateMutability": "nonpayable",
      "type": "function"
    },
    {
      "constant": false,
      "inputs": [],
      "name": "snapshotTotalBondedE",
      "outputs": [],
      "payable": false,
      "stateMutability": "nonpayable",
      "type": "function"
    },
    {
      "constant": false,
      "inputs": [
        {
          "internalType": "uint256",
          "name": "epoch",
          "type": "uint256"
        },
        {
          "internalType": "uint256",
          "name": "expiration",
          "type": "uint256"
        }
      ],
      "name": "initializeCouponsExpirationE",
      "outputs": [],
      "payable": false,
      "stateMutability": "nonpayable",
      "type": "function"
    },
    {
      "constant": false,
      "inputs": [
        {
          "internalType": "uint256",
          "name": "epoch",
          "type": "uint256"
        }
      ],
      "name": "eliminateOutstandingCouponsE",
      "outputs": [],
      "payable": false,
      "stateMutability": "nonpayable",
      "type": "function"
    },
    {
      "constant": false,
      "inputs": [
        {
          "internalType": "address",
          "name": "candidate",
          "type": "address"
        },
        {
          "internalType": "uint256",
          "name": "period",
          "type": "uint256"
        }
      ],
      "name": "createCandidateE",
      "outputs": [],
      "payable": false,
      "stateMutability": "nonpayable",
      "type": "function"
    },
    {
      "constant": false,
      "inputs": [
        {
          "internalType": "address",
          "name": "account",
          "type": "address"
        },
        {
          "internalType": "address",
          "name": "candidate",
          "type": "address"
        },
        {
          "internalType": "enum Candidate.Vote",
          "name": "vote",
          "type": "uint8"
        }
      ],
      "name": "recordVoteE",
      "outputs": [],
      "payable": false,
      "stateMutability": "nonpayable",
      "type": "function"
    },
    {
      "constant": false,
      "inputs": [
        {
          "internalType": "address",
          "name": "candidate",
          "type": "address"
        },
        {
          "internalType": "uint256",
          "name": "amount",
          "type": "uint256"
        }
      ],
      "name": "incrementApproveForE",
      "outputs": [],
      "payable": false,
      "stateMutability": "nonpayable",
      "type": "function"
    },
    {
      "constant": false,
      "inputs": [
        {
          "internalType": "address",
          "name": "candidate",
          "type": "address"
        },
        {
          "internalType": "uint256",
          "name": "amount",
          "type": "uint256"
        },
        {
          "internalType": "string",
          "name": "reason",
          "type": "string"
        }
      ],
      "name": "decrementApproveForE",
      "outputs": [],
      "payable": false,
      "stateMutability": "nonpayable",
      "type": "function"
    },
    {
      "constant": false,
      "inputs": [
        {
          "internalType": "address",
          "name": "candidate",
          "type": "address"
        },
        {
          "internalType": "uint256",
          "name": "amount",
          "type": "uint256"
        }
      ],
      "name": "incrementRejectForE",
      "outputs": [],
      "payable": false,
      "stateMutability": "nonpayable",
      "type": "function"
    },
    {
      "constant": false,
      "inputs": [
        {
          "internalType": "address",
          "name": "candidate",
          "type": "address"
        },
        {
          "internalType": "uint256",
          "name": "amount",
          "type": "uint256"
        },
        {
          "internalType": "string",
          "name": "reason",
          "type": "string"
        }
      ],
      "name": "decrementRejectForE",
      "outputs": [],
      "payable": false,
      "stateMutability": "nonpayable",
      "type": "function"
    },
    {
      "constant": false,
      "inputs": [
        {
          "internalType": "address",
          "name": "account",
          "type": "address"
        },
        {
          "internalType": "address",
          "name": "candidate",
          "type": "address"
        }
      ],
      "name": "placeLockE",
      "outputs": [],
      "payable": false,
      "stateMutability": "nonpayable",
      "type": "function"
    },
    {
      "constant": false,
      "inputs": [
        {
          "internalType": "address",
          "name": "candidate",
          "type": "address"
        }
      ],
      "name": "initializedE",
      "outputs": [],
      "payable": false,
      "stateMutability": "nonpayable",
      "type": "function"
    },
    {
      "constant": false,
      "inputs": [
        {
          "internalType": "uint256",
          "name": "timestamp",
          "type": "uint256"
        }
      ],
      "name": "setBlockTimestamp",
      "outputs": [],
      "payable": false,
      "stateMutability": "nonpayable",
      "type": "function"
    }
  ],
  "bytecode": "0x608060405234801561001057600080fd5b5042601381905550613c78806100276000396000f3fe608060405234801561001057600080fd5b506004361061046a5760003560e01c80638de2e5731161024c578063b32a2f9011610146578063d83d3ed5116100c3578063f35adf7e11610087578063f35adf7e14610e85578063f7a3181814610e8f578063faec553714610eab578063fc7b9c1814610ec7578063ffbe3b7314610ee55761046a565b8063d83d3ed514610dcf578063dd62ed3e14610deb578063e0abdf6614610e1b578063edb6b80a14610e37578063f1b7cf4914610e555761046a565b8063c9aff70c1161010a578063c9aff70c14610d19578063cc8d823c14610d49578063cf02377914610d65578063d60b347f14610d83578063d6d8816d14610db35761046a565b8063b32a2f9014610c77578063b739a7b814610c93578063bc7513e214610cb1578063c1410c0214610ce1578063c2aeb5fe14610cfd5761046a565b8063a00e14d1116101d4578063a9b3cf1511610198578063a9b3cf1514610beb578063aa1daf8514610c07578063adbff2be14610c23578063ae5c238114610c3f578063b11ee0e314610c5b5761046a565b8063a00e14d114610b35578063a50cd8e714610b51578063a6c409f114610b81578063a6f37b5314610b9f578063a9059cbb14610bbb5761046a565b80639a649edc1161021b5780639a649edc14610a7f5780639b82b49b14610a9d5780639bc289f114610ab95780639be4649314610ae95780639f6e1b2614610b055761046a565b80638de2e573146109f7578063900cf0cf14610a1357806395d89b4114610a3157806397a5d5b514610a4f5761046a565b80634303d4f7116103685780636be8d64b116102e55780637cb95a32116102a95780637cb95a32146109415780637dc0d1d01461095d578063825ad6071461097b5780638413e52a146109ab57806386cf9f14146109c75761046a565b80636be8d64b1461089f57806370a08231146108bb57806371c511eb146108eb57806372924d2a146108f557806375d5024b146109115761046a565b806351bf21d81161032c57806351bf21d8146107d55780635c60da1b1461080557806364668022146108235780636a39e328146108535780636b862d66146108835761046a565b80634303d4f71461072d57806344d96e951461074b5780634c736099146107695780635053e4611461079957806351adeb57146107b75761046a565b80631edbcf6c116103f6578063353a420c116103ba578063353a420c146106655780633a3e6c81146106955780633f7bcaf3146106c55780633fbba9a6146106e15780633fd4973c146107115761046a565b80631edbcf6c146105c157806323b872dd146105df578063259f7adf1461060f578063313ce5671461062b57806332347422146106495761046a565b806310e95b6c1161043d57806310e95b6c1461050957806315e14bf61461053957806316f0115b1461056957806318160ddd146105875780631a08e22a146105a55761046a565b806306fdde031461046f578063095ea7b31461048d5780630d78ceb4146104bd5780630dc6d3a3146104ed575b600080fd5b610477610f15565b60405161048491906139bc565b60405180910390f35b6104a760048036036104a29190810190613513565b610f52565b6040516104b4919061391a565b60405180910390f35b6104d760048036036104d29190810190613513565b610f5d565b6040516104e49190613a1e565b60405180910390f35b61050760048036036105029190810190613493565b610fbb565b005b610523600480360361051e91908101906136b3565b611012565b6040516105309190613a1e565b60405180910390f35b610553600480360361054e9190810190613390565b611037565b6040516105609190613a1e565b60405180910390f35b610571611085565b60405161057e91906138ff565b60405180910390f35b61058f6110b4565b60405161059c9190613a1e565b60405180910390f35b6105bf60048036036105ba919081019061375d565b6110c3565b005b6105c96110d1565b6040516105d69190613a1e565b60405180910390f35b6105f960048036036105f49190810190613444565b6110e0565b604051610606919061391a565b60405180910390f35b610629600480360361062491908101906136b3565b6110ec565b005b6106336110f8565b6040516106409190613a39565b60405180910390f35b610663600480360361065e9190810190613705565b611101565b005b61067f600480360361067a9190810190613390565b611154565b60405161068c9190613a1e565b60405180910390f35b6106af60048036036106aa9190810190613390565b6111a2565b6040516106bc919061391a565b60405180910390f35b6106df60048036036106da9190810190613444565b6111f3565b005b6106fb60048036036106f691908101906133b9565b611203565b60405161070891906139a1565b60405180910390f35b61072b6004803603610726919081019061354f565b61129c565b005b6107356112f1565b6040516107429190613a1e565b60405180910390f35b6107536112fe565b6040516107609190613a1e565b60405180910390f35b610783600480360361077e919081019061375d565b61130d565b6040516107909190613a1e565b60405180910390f35b6107a1611348565b6040516107ae9190613a1e565b60405180910390f35b6107bf61139f565b6040516107cc9190613935565b60405180910390f35b6107ef60048036036107ea9190810190613390565b6113ce565b6040516107fc9190613a1e565b60405180910390f35b61080d61141c565b60405161081a91906138ff565b60405180910390f35b61083d60048036036108389190810190613390565b61144d565b60405161084a9190613a1e565b60405180910390f35b61086d600480360361086891908101906136b3565b61149b565b60405161087a9190613a1e565b60405180910390f35b61089d600480360361089891908101906135bb565b6114c3565b005b6108b960048036036108b4919081019061368a565b6114d3565b005b6108d560048036036108d09190810190613390565b6114df565b6040516108e29190613a1e565b60405180910390f35b6108f361152d565b005b61090f600480360361090a9190810190613705565b611537565b005b61092b600480360361092691908101906136b3565b61158a565b604051610938919061391a565b60405180910390f35b61095b6004803603610956919081019061354f565b61159e565b005b6109656115f3565b6040516109729190613950565b60405180910390f35b61099560048036036109909190810190613390565b611622565b6040516109a29190613a1e565b60405180910390f35b6109c560048036036109c091908101906133f5565b61167f565b005b6109e160048036036109dc9190810190613390565b61168f565b6040516109ee9190613a1e565b60405180910390f35b610a116004803603610a0c91908101906136b3565b6116dd565b005b610a1b6116e9565b604051610a289190613a1e565b60405180910390f35b610a396116f8565b604051610a4691906139bc565b60405180910390f35b610a696004803603610a649190810190613390565b611735565b604051610a76919061396b565b60405180910390f35b610a876117fa565b604051610a949190613a1e565b60405180910390f35b610ab76004803603610ab29190810190613705565b611809565b005b610ad36004803603610ace9190810190613390565b61185c565b604051610ae09190613a1e565b60405180910390f35b610b036004803603610afe9190810190613390565b6118aa565b005b610b1f6004803603610b1a91908101906133b9565b6118b6565b604051610b2c9190613a1e565b60405180910390f35b610b4f6004803603610b4a919081019061375d565b611942565b005b610b6b6004803603610b669190810190613390565b61195e565b604051610b789190613a1e565b60405180910390f35b610b8961198a565b604051610b969190613a1e565b60405180910390f35b610bb96004803603610bb49190810190613390565b611a2f565b005b610bd56004803603610bd09190810190613513565b611a3b565b604051610be2919061391a565b60405180910390f35b610c056004803603610c0091908101906136b3565b611a46565b005b610c216004803603610c1c919081019061360a565b611a52565b005b610c3d6004803603610c38919081019061354f565b611aa9565b005b610c596004803603610c549190810190613513565b611afe565b005b610c756004803603610c709190810190613513565b611b0c565b005b610c916004803603610c8c919081019061354f565b611b1a565b005b610c9b611b6f565b604051610ca89190613a1e565b60405180910390f35b610ccb6004803603610cc69190810190613513565b611b7f565b604051610cd89190613a1e565b60405180910390f35b610cfb6004803603610cf691908101906133b9565b611bfa565b005b610d176004803603610d12919081019061360a565b611c08565b005b610d336004803603610d2e91908101906136b3565b611c5f565b604051610d409190613a1e565b60405180910390f35b610d636004803603610d5e9190810190613513565b611c84565b005b610d6d611c92565b604051610d7a9190613a1e565b60405180910390f35b610d9d6004803603610d989190810190613390565b611ca1565b604051610daa919061391a565b60405180910390f35b610dcd6004803603610dc891908101906136b3565b611cfc565b005b610de96004803603610de49190810190613513565b611d08565b005b610e056004803603610e0091908101906133b9565b611d16565b604051610e129190613a1e565b60405180910390f35b610e356004803603610e3091908101906136b3565b611d21565b005b610e3f611d2b565b604051610e4c9190613986565b60405180910390f35b610e6f6004803603610e6a9190810190613390565b611d48565b604051610e7c9190613a1e565b60405180910390f35b610e8d611d96565b005b610ea96004803603610ea49190810190613513565b611da0565b005b610ec56004803603610ec091908101906135bb565b611dae565b005b610ecf611dbe565b604051610edc9190613a1e565b60405180910390f35b610eff6004803603610efa91908101906136b3565b611dcd565b604051610f0c9190613a1e565b60405180910390f35b60606040518060400160405280601681526020017f456d7074792053657420446f6c6c6172205374616b6500000000000000000000815250905090565b600080905092915050565b6000600f60000160008473ffffffffffffffffffffffffffffffffffffffff1673ffffffffffffffffffffffffffffffffffffffff168152602001908152602001600020600083815260200190815260200160002054905092915050565b61100b85858585858080601f016020809104026020016040519081016040528093929190818152602001838380828437600081840152601f19601f82011690508083019250505050505050611def565b5050505050565b600080600d016000838152602001908152602001600020600101600101549050919050565b600080600e0160008373ffffffffffffffffffffffffffffffffffffffff1673ffffffffffffffffffffffffffffffffffffffff168152602001908152602001600020600101549050919050565b60008060090160020160009054906101000a900473ffffffffffffffffffffffffffffffffffffffff16905090565b60008060030160000154905090565b6110cd8282611f12565b5050565b60008060030160030154905090565b60008090509392505050565b6110f581611f7d565b50565b60006012905090565b61114f8383838080601f016020809104026020016040519081016040528093929190818152602001838380828437600081840152601f19601f82011690508083019250505050505050611fa7565b505050565b600080600e0160008373ffffffffffffffffffffffffffffffffffffffff1673ffffffffffffffffffffffffffffffffffffffff168152602001908152602001600020600301549050919050565b6000806000600e0160008473ffffffffffffffffffffffffffffffffffffffff1673ffffffffffffffffffffffffffffffffffffffff16815260200190815260200160002060000154119050919050565b6111fe838383611fd4565b505050565b600080600e0160008373ffffffffffffffffffffffffffffffffffffffff1673ffffffffffffffffffffffffffffffffffffffff16815260200190815260200160002060040160008473ffffffffffffffffffffffffffffffffffffffff1673ffffffffffffffffffffffffffffffffffffffff16815260200190815260200160002060009054906101000a900460ff16905092915050565b6112eb848484848080601f016020809104026020016040519081016040528093929190818152602001838380828437600081840152601f19601f82011690508083019250505050505050612060565b50505050565b6000600f60010154905090565b60008060030160010154905090565b600080600d016000848152602001908152602001600020600101600201828154811061133557fe5b9060005260206000200154905092915050565b60006113526132bc565b61135a612108565b90506113646132bc565b61136c612137565b9050816020015161137b612167565b1061138e5761138982612171565b611398565b61139781612171565b5b9250505090565b60008060090160000160009054906101000a900473ffffffffffffffffffffffffffffffffffffffff16905090565b600080600c0160008373ffffffffffffffffffffffffffffffffffffffff1673ffffffffffffffffffffffffffffffffffffffff168152602001908152602001600020600401549050919050565b6000807f360894a13ba1a3210667c828492db98dca3e2076cc3735a920a3ca505d382bbc60001b9050805491505090565b600080600e0160008373ffffffffffffffffffffffffffffffffffffffff1673ffffffffffffffffffffffffffffffffffffffff168152602001908152602001600020600201549050919050565b600080600d016000838152602001908152602001600020600101600201805490509050919050565b6114ce8383836121c4565b505050565b6114dc81612302565b50565b600080600c0160008373ffffffffffffffffffffffffffffffffffffffff1673ffffffffffffffffffffffffffffffffffffffff168152602001908152602001600020600101549050919050565b611535612342565b565b6115858383838080601f016020809104026020016040519081016040528093929190818152602001838380828437600081840152601f19601f82011690508083019250505050505050612370565b505050565b600061159461239d565b8211159050919050565b6115ed848484848080601f016020809104026020016040519081016040528093929190818152602001838380828437600081840152601f19601f820116905080830192505050505050506123a6565b50505050565b60008060090160010160009054906101000a900473ffffffffffffffffffffffffffffffffffffffff16905090565b60008061162d6110b4565b9050600081141561164257600091505061167a565b61167681611668611652866114df565b61165a6112fe565b61244e90919063ffffffff16565b6124be90919063ffffffff16565b9150505b919050565b61168a838383612508565b505050565b600080600c0160008373ffffffffffffffffffffffffffffffffffffffff1673ffffffffffffffffffffffffffffffffffffffff168152602001908152602001600020600001549050919050565b6116e6816125b0565b50565b60008060000160020154905090565b60606040518060400160405280600481526020017f4553445300000000000000000000000000000000000000000000000000000000815250905090565b600061173f6116e9565b6000600c0160008473ffffffffffffffffffffffffffffffffffffffff1673ffffffffffffffffffffffffffffffffffffffff16815260200190815260200160002060050154111561179457600290506117f5565b6000600c0160008373ffffffffffffffffffffffffffffffffffffffff1673ffffffffffffffffffffffffffffffffffffffff168152602001908152602001600020600401546117e26116e9565b10156117ef5760016117f2565b60005b90505b919050565b60008060030160050154905090565b6118578383838080601f016020809104026020016040519081016040528093929190818152602001838380828437600081840152601f19601f820116905080830192505050505050506125da565b505050565b600080600c0160008373ffffffffffffffffffffffffffffffffffffffff1673ffffffffffffffffffffffffffffffffffffffff168152602001908152602001600020600501549050919050565b6118b381612607565b50565b600080600c0160008473ffffffffffffffffffffffffffffffffffffffff1673ffffffffffffffffffffffffffffffffffffffff16815260200190815260200160002060030160008373ffffffffffffffffffffffffffffffffffffffff1673ffffffffffffffffffffffffffffffffffffffff16815260200190815260200160002054905092915050565b8160008001600001819055508060008001600101819055505050565b600061198361196c83611154565b6119758461144d565b61267490919063ffffffff16565b9050919050565b6000611a2a611997611dbe565b61199f61139f565b73ffffffffffffffffffffffffffffffffffffffff166318160ddd6040518163ffffffff1660e01b815260040160206040518083038186803b1580156119e457600080fd5b505afa1580156119f8573d6000803e3d6000fd5b505050506040513d601f19601f82011682018060405250611a1c91908101906136dc565b6126c990919063ffffffff16565b905090565b611a3881612713565b50565b600080905092915050565b611a4f81612774565b50565b611aa285858585858080601f016020809104026020016040519081016040528093929190818152602001838380828437600081840152601f19601f820116905080830192505050505050506127dd565b5050505050565b611af8848484848080601f016020809104026020016040519081016040528093929190818152602001838380828437600081840152601f19601f820116905080830192505050505050506128c5565b50505050565b611b0882826129fc565b5050565b611b168282612b2e565b5050565b611b69848484848080601f016020809104026020016040519081016040528093929190818152602001838380828437600081840152601f19601f82011690508083019250505050505050612bfa565b50505050565b6000601160000160010154905090565b600080611b8b83611c5f565b1415611b9a5760009050611bf4565b6000600c0160008473ffffffffffffffffffffffffffffffffffffffff1673ffffffffffffffffffffffffffffffffffffffff16815260200190815260200160002060020160008381526020019081526020016000205490505b92915050565b611c048282612ccb565b5050565b611c5885858585858080601f016020809104026020016040519081016040528093929190818152602001838380828437600081840152601f19601f82011690508083019250505050505050612d94565b5050505050565b600080600d016000838152602001908152602001600020600101600001549050919050565b611c8e8282612ed9565b5050565b60008060030160020154905090565b600080600e0160008373ffffffffffffffffffffffffffffffffffffffff1673ffffffffffffffffffffffffffffffffffffffff16815260200190815260200160002060050160009054906101000a900460ff169050919050565b611d0581612f7e565b50565b611d128282612fa8565b5050565b600080905092915050565b8060138190555050565b6000601160000160000160009054906101000a900460ff16905090565b600080600e0160008373ffffffffffffffffffffffffffffffffffffffff1673ffffffffffffffffffffffffffffffffffffffff168152602001908152602001600020600001549050919050565b611d9e613047565b565b611daa828261306f565b5050565b611db9838383613114565b505050565b60008060030160040154905090565b600080600d016000838152602001908152602001600020600001549050919050565b611e8682826000600c0160008873ffffffffffffffffffffffffffffffffffffffff1673ffffffffffffffffffffffffffffffffffffffff16815260200190815260200160002060030160008773ffffffffffffffffffffffffffffffffffffffff1673ffffffffffffffffffffffffffffffffffffffff168152602001908152602001600020546131f79092919063ffffffff16565b6000600c0160008673ffffffffffffffffffffffffffffffffffffffff1673ffffffffffffffffffffffffffffffffffffffff16815260200190815260200160002060030160008573ffffffffffffffffffffffffffffffffffffffff1673ffffffffffffffffffffffffffffffffffffffff1681526020019081526020016000208190555050505050565b806000600d016000848152602001908152602001600020600101600101819055506000600d0160008281526020019081526020016000206001016002018290806001815401808255809150509060018203906000526020600020016000909192909190915055505050565b611f988160006003016001015461267490919063ffffffff16565b60006003016001018190555050565b611fc482826000600301600301546131f79092919063ffffffff16565b6000600301600301819055505050565b806000600c0160008573ffffffffffffffffffffffffffffffffffffffff1673ffffffffffffffffffffffffffffffffffffffff16815260200190815260200160002060030160008473ffffffffffffffffffffffffffffffffffffffff1673ffffffffffffffffffffffffffffffffffffffff16815260200190815260200160002081905550505050565b6120ba82826000600e0160008773ffffffffffffffffffffffffffffffffffffffff1673ffffffffffffffffffffffffffffffffffffffff168152602001908152602001600020600301546131f79092919063ffffffff16565b6000600e0160008573ffffffffffffffffffffffffffffffffffffffff1673ffffffffffffffffffffffffffffffffffffffff16815260200190815260200160002060030181905550505050565b6121106132bc565b6040518060600160405280606a8152602001635f7fa8008152602001617080815250905090565b61213f6132bc565b6040518060600160405280605b8152602001635f6be180815260200162015180815250905090565b6000601354905090565b60006121bd82600001516121af84604001516121a18660200151612193612167565b6126c990919063ffffffff16565b6124be90919063ffffffff16565b61267490919063ffffffff16565b9050919050565b61222d816000600c0160008673ffffffffffffffffffffffffffffffffffffffff1673ffffffffffffffffffffffffffffffffffffffff16815260200190815260200160002060020160008581526020019081526020016000205461267490919063ffffffff16565b6000600c0160008573ffffffffffffffffffffffffffffffffffffffff1673ffffffffffffffffffffffffffffffffffffffff1681526020019081526020016000206002016000848152602001908152602001600020819055506122b6816000600d0160008581526020019081526020016000206001016000015461267490919063ffffffff16565b6000600d016000848152602001908152602001600020600101600001819055506122f18160006003016005015461267490919063ffffffff16565b600060030160050181905550505050565b80601160000160000160006101000a81548160ff0219169083600181111561232657fe5b02179055506123336116e9565b60116000016001018190555050565b61234a6110b4565b6000600d0160006123596116e9565b815260200190815260200160002060000181905550565b61238d82826000600301600401546131f79092919063ffffffff16565b6000600301600401819055505050565b6000605a905090565b61240082826000600e0160008773ffffffffffffffffffffffffffffffffffffffff1673ffffffffffffffffffffffffffffffffffffffff168152602001908152602001600020600201546131f79092919063ffffffff16565b6000600e0160008573ffffffffffffffffffffffffffffffffffffffff1673ffffffffffffffffffffffffffffffffffffffff16815260200190815260200160002060020181905550505050565b60008083141561246157600090506124b8565b600082840290508284828161247257fe5b04146124b3576040517f08c379a00000000000000000000000000000000000000000000000000000000081526004016124aa906139fe565b60405180910390fd5b809150505b92915050565b600061250083836040518060400160405280601a81526020017f536166654d6174683a206469766973696f6e206279207a65726f000000000000815250613252565b905092915050565b806000600e0160008473ffffffffffffffffffffffffffffffffffffffff1673ffffffffffffffffffffffffffffffffffffffff16815260200190815260200160002060040160008573ffffffffffffffffffffffffffffffffffffffff1673ffffffffffffffffffffffffffffffffffffffff16815260200190815260200160002060006101000a81548160ff021916908360028111156125a657fe5b0217905550505050565b6125cb8160006003016004015461267490919063ffffffff16565b60006003016004018190555050565b6125f782826000600301600101546131f79092919063ffffffff16565b6000600301600101819055505050565b6126286126126132b3565b61261a6116e9565b61267490919063ffffffff16565b6000600c0160008373ffffffffffffffffffffffffffffffffffffffff1673ffffffffffffffffffffffffffffffffffffffff1681526020019081526020016000206004018190555050565b6000808284019050838110156126bf576040517f08c379a00000000000000000000000000000000000000000000000000000000081526004016126b6906139de565b60405180910390fd5b8091505092915050565b600061270b83836040518060400160405280601e81526020017f536166654d6174683a207375627472616374696f6e206f766572666c6f7700008152506131f7565b905092915050565b60016000600e0160008373ffffffffffffffffffffffffffffffffffffffff1673ffffffffffffffffffffffffffffffffffffffff16815260200190815260200160002060050160006101000a81548160ff02191690831515021790555050565b600061277f82611c5f565b9050600081141561279057506127da565b6127ab816000600301600501546126c990919063ffffffff16565b600060030160050181905550600080600d01600084815260200190815260200160002060010160000181905550505b50565b6128458282600f60000160008873ffffffffffffffffffffffffffffffffffffffff1673ffffffffffffffffffffffffffffffffffffffff1681526020019081526020016000206000878152602001908152602001600020546131f79092919063ffffffff16565b600f60000160008673ffffffffffffffffffffffffffffffffffffffff1673ffffffffffffffffffffffffffffffffffffffff1681526020019081526020016000206000858152602001908152602001600020819055506128b68282600f600101546131f79092919063ffffffff16565b600f6001018190555050505050565b61291f82826000600c0160008773ffffffffffffffffffffffffffffffffffffffff1673ffffffffffffffffffffffffffffffffffffffff168152602001908152602001600020600101546131f79092919063ffffffff16565b6000600c0160008573ffffffffffffffffffffffffffffffffffffffff1673ffffffffffffffffffffffffffffffffffffffff1681526020019081526020016000206001018190555061298582826000600301600001546131f79092919063ffffffff16565b600060030160000181905550600073ffffffffffffffffffffffffffffffffffffffff168373ffffffffffffffffffffffffffffffffffffffff167fddf252ad1be2c89b69c2b068fc378daa952ba7f163c4a11628f55a4df523b3ef846040516129ef9190613a1e565b60405180910390a3505050565b612a54816000600c0160008573ffffffffffffffffffffffffffffffffffffffff1673ffffffffffffffffffffffffffffffffffffffff1681526020019081526020016000206001015461267490919063ffffffff16565b6000600c0160008473ffffffffffffffffffffffffffffffffffffffff1673ffffffffffffffffffffffffffffffffffffffff16815260200190815260200160002060010181905550612ab88160006003016000015461267490919063ffffffff16565b6000600301600001819055508173ffffffffffffffffffffffffffffffffffffffff16600073ffffffffffffffffffffffffffffffffffffffff167fddf252ad1be2c89b69c2b068fc378daa952ba7f163c4a11628f55a4df523b3ef83604051612b229190613a1e565b60405180910390a35050565b612b86816000600c0160008573ffffffffffffffffffffffffffffffffffffffff1673ffffffffffffffffffffffffffffffffffffffff1681526020019081526020016000206000015461267490919063ffffffff16565b6000600c0160008473ffffffffffffffffffffffffffffffffffffffff1673ffffffffffffffffffffffffffffffffffffffff16815260200190815260200160002060000181905550612bea8160006003016002015461267490919063ffffffff16565b6000600301600201819055505050565b612c5482826000600c0160008773ffffffffffffffffffffffffffffffffffffffff1673ffffffffffffffffffffffffffffffffffffffff168152602001908152602001600020600001546131f79092919063ffffffff16565b6000600c0160008573ffffffffffffffffffffffffffffffffffffffff1673ffffffffffffffffffffffffffffffffffffffff16815260200190815260200160002060000181905550612cba82826000600301600201546131f79092919063ffffffff16565b600060030160020181905550505050565b600080600c0160008473ffffffffffffffffffffffffffffffffffffffff1673ffffffffffffffffffffffffffffffffffffffff1681526020019081526020016000206005015490506000612d39612d2284611037565b612d2b85611d48565b61267490919063ffffffff16565b905081811115612d8e57806000600c0160008673ffffffffffffffffffffffffffffffffffffffff1673ffffffffffffffffffffffffffffffffffffffff168152602001908152602001600020600501819055505b50505050565b612dff82826000600c0160008873ffffffffffffffffffffffffffffffffffffffff1673ffffffffffffffffffffffffffffffffffffffff1681526020019081526020016000206002016000878152602001908152602001600020546131f79092919063ffffffff16565b6000600c0160008673ffffffffffffffffffffffffffffffffffffffff1673ffffffffffffffffffffffffffffffffffffffff168152602001908152602001600020600201600085815260200190815260200160002081905550612e8a82826000600d016000878152602001908152602001600020600101600001546131f79092919063ffffffff16565b6000600d01600085815260200190815260200160002060010160000181905550612ec782826000600301600501546131f79092919063ffffffff16565b60006003016005018190555050505050565b612f31816000600e0160008573ffffffffffffffffffffffffffffffffffffffff1673ffffffffffffffffffffffffffffffffffffffff1681526020019081526020016000206003015461267490919063ffffffff16565b6000600e0160008473ffffffffffffffffffffffffffffffffffffffff1673ffffffffffffffffffffffffffffffffffffffff168152602001908152602001600020600301819055505050565b612f998160006003016003015461267490919063ffffffff16565b60006003016003018190555050565b612fb06116e9565b6000600e0160008473ffffffffffffffffffffffffffffffffffffffff1673ffffffffffffffffffffffffffffffffffffffff16815260200190815260200160002060000181905550806000600e0160008473ffffffffffffffffffffffffffffffffffffffff1673ffffffffffffffffffffffffffffffffffffffff168152602001908152602001600020600101819055505050565b6130626001600080016002015461267490919063ffffffff16565b6000800160020181905550565b6130c7816000600e0160008573ffffffffffffffffffffffffffffffffffffffff1673ffffffffffffffffffffffffffffffffffffffff1681526020019081526020016000206002015461267490919063ffffffff16565b6000600e0160008473ffffffffffffffffffffffffffffffffffffffff1673ffffffffffffffffffffffffffffffffffffffff168152602001908152602001600020600201819055505050565b61317a81600f60000160008673ffffffffffffffffffffffffffffffffffffffff1673ffffffffffffffffffffffffffffffffffffffff16815260200190815260200160002060008581526020019081526020016000205461267490919063ffffffff16565b600f60000160008573ffffffffffffffffffffffffffffffffffffffff1673ffffffffffffffffffffffffffffffffffffffff1681526020019081526020016000206000848152602001908152602001600020819055506131e981600f6001015461267490919063ffffffff16565b600f60010181905550505050565b600083831115829061323f576040517f08c379a000000000000000000000000000000000000000000000000000000000815260040161323691906139bc565b60405180910390fd5b5060008385039050809150509392505050565b60008083118290613299576040517f08c379a000000000000000000000000000000000000000000000000000000000815260040161329091906139bc565b60405180910390fd5b5060008385816132a557fe5b049050809150509392505050565b6000600f905090565b60405180606001604052806000815260200160008152602001600081525090565b6000813590506132ec81613be7565b92915050565b60008135905061330181613bfe565b92915050565b60008135905061331681613c0e565b92915050565b60008083601f84011261332e57600080fd5b8235905067ffffffffffffffff81111561334757600080fd5b60208301915083600182028301111561335f57600080fd5b9250929050565b60008135905061337581613c1e565b92915050565b60008151905061338a81613c1e565b92915050565b6000602082840312156133a257600080fd5b60006133b0848285016132dd565b91505092915050565b600080604083850312156133cc57600080fd5b60006133da858286016132dd565b92505060206133eb858286016132dd565b9150509250929050565b60008060006060848603121561340a57600080fd5b6000613418868287016132dd565b9350506020613429868287016132dd565b925050604061343a86828701613307565b9150509250925092565b60008060006060848603121561345957600080fd5b6000613467868287016132dd565b9350506020613478868287016132dd565b925050604061348986828701613366565b9150509250925092565b6000806000806000608086880312156134ab57600080fd5b60006134b9888289016132dd565b95505060206134ca888289016132dd565b94505060406134db88828901613366565b935050606086013567ffffffffffffffff8111156134f857600080fd5b6135048882890161331c565b92509250509295509295909350565b6000806040838503121561352657600080fd5b6000613534858286016132dd565b925050602061354585828601613366565b9150509250929050565b6000806000806060858703121561356557600080fd5b6000613573878288016132dd565b945050602061358487828801613366565b935050604085013567ffffffffffffffff8111156135a157600080fd5b6135ad8782880161331c565b925092505092959194509250565b6000806000606084860312156135d057600080fd5b60006135de868287016132dd565b93505060206135ef86828701613366565b925050604061360086828701613366565b9150509250925092565b60008060008060006080868803121561362257600080fd5b6000613630888289016132dd565b955050602061364188828901613366565b945050604061365288828901613366565b935050606086013567ffffffffffffffff81111561366f57600080fd5b61367b8882890161331c565b92509250509295509295909350565b60006020828403121561369c57600080fd5b60006136aa848285016132f2565b91505092915050565b6000602082840312156136c557600080fd5b60006136d384828501613366565b91505092915050565b6000602082840312156136ee57600080fd5b60006136fc8482850161337b565b91505092915050565b60008060006040848603121561371a57600080fd5b600061372886828701613366565b935050602084013567ffffffffffffffff81111561374557600080fd5b6137518682870161331c565b92509250509250925092565b6000806040838503121561377057600080fd5b600061377e85828601613366565b925050602061378f85828601613366565b9150509250929050565b6137a281613a70565b82525050565b6137b181613a82565b82525050565b6137c081613afe565b82525050565b6137cf81613b22565b82525050565b6137de81613b46565b82525050565b6137ed81613b58565b82525050565b6137fc81613b6a565b82525050565b600061380d82613a54565b6138178185613a5f565b9350613827818560208601613b7c565b61383081613baf565b840191505092915050565b6000613848601b83613a5f565b91507f536166654d6174683a206164646974696f6e206f766572666c6f7700000000006000830152602082019050919050565b6000613888602183613a5f565b91507f536166654d6174683a206d756c7469706c69636174696f6e206f766572666c6f60008301527f77000000000000000000000000000000000000000000000000000000000000006020830152604082019050919050565b6138ea81613ae7565b82525050565b6138f981613af1565b82525050565b60006020820190506139146000830184613799565b92915050565b600060208201905061392f60008301846137a8565b92915050565b600060208201905061394a60008301846137b7565b92915050565b600060208201905061396560008301846137c6565b92915050565b600060208201905061398060008301846137d5565b92915050565b600060208201905061399b60008301846137e4565b92915050565b60006020820190506139b660008301846137f3565b92915050565b600060208201905081810360008301526139d68184613802565b905092915050565b600060208201905081810360008301526139f78161383b565b9050919050565b60006020820190508181036000830152613a178161387b565b9050919050565b6000602082019050613a3360008301846138e1565b92915050565b6000602082019050613a4e60008301846138f0565b92915050565b600081519050919050565b600082825260208201905092915050565b6000613a7b82613ac7565b9050919050565b60008115159050919050565b6000819050613a9c82613bc0565b919050565b6000819050613aaf82613bcd565b919050565b6000819050613ac282613bda565b919050565b600073ffffffffffffffffffffffffffffffffffffffff82169050919050565b6000819050919050565b600060ff82169050919050565b6000613b0982613b10565b9050919050565b6000613b1b82613ac7565b9050919050565b6000613b2d82613b34565b9050919050565b6000613b3f82613ac7565b9050919050565b6000613b5182613a8e565b9050919050565b6000613b6382613aa1565b9050919050565b6000613b7582613ab4565b9050919050565b60005b83811015613b9a578082015181840152602081019050613b7f565b83811115613ba9576000848401525b50505050565b6000601f19601f8301169050919050565b60038110613bca57fe5b50565b60028110613bd757fe5b50565b60038110613be457fe5b50565b613bf081613a70565b8114613bfb57600080fd5b50565b60028110613c0b57600080fd5b50565b60038110613c1b57600080fd5b50565b613c2781613ae7565b8114613c3257600080fd5b5056fea365627a7a72315820a6d5c1c601c763dba509e1ea56cd14a85e5f3887fdfe46d165fab3f5990c243f6c6578706572696d656e74616cf564736f6c63430005110040",
  "source": "/*\n    Copyright 2020 Empty Set Squad <emptysetsquad@protonmail.com>\n\n    Licensed under the Apache License, Version 2.0 (the \"License\");\n    you may not use this file except in compliance with the License.\n    You may obtain a copy of the License at\n\n    http://www.apache.org/licenses/LICENSE-2.0\n\n    Unless required by applicable law or agreed to in writing, software\n    distributed under the License is distributed on an \"AS IS\" BASIS,\n    WITHOUT WARRANTIES OR CONDITIONS OF ANY KIND, either express or implied.\n    See the License for the specific language governing permissions and\n    limitations under the License.\n*/\n\npragma solidity ^0.5.17;\npragma experimental ABIEncoderV2;\n\nimport \"../dao/Setters.sol\";\n\ncontract MockState is Setters {\n    uint256 internal _blockTimestamp;\n\n    constructor () public {\n        _blockTimestamp = block.timestamp;\n    }\n\n    /**\n     * Global\n     */\n\n    function incrementTotalBondedE(uint256 amount) external {\n        super.incrementTotalBonded(amount);\n    }\n\n    function decrementTotalBondedE(uint256 amount, string calldata reason) external {\n        super.decrementTotalBonded(amount, reason);\n    }\n\n    function incrementTotalDebtE(uint256 amount) external {\n        super.incrementTotalDebt(amount);\n    }\n\n    function decrementTotalDebtE(uint256 amount, string calldata reason) external {\n        super.decrementTotalDebt(amount, reason);\n    }\n\n    function incrementTotalRedeemableE(uint256 amount) external {\n        super.incrementTotalRedeemable(amount);\n    }\n\n    function decrementTotalRedeemableE(uint256 amount, string calldata reason) external {\n        super.decrementTotalRedeemable(amount, reason);\n    }\n\n    function updateEraE(Era.Status status) external {\n        super.updateEra(status);\n    }\n\n    /**\n     * Account\n     */\n\n    function incrementBalanceOfE(address account, uint256 amount) external {\n        super.incrementBalanceOf(account, amount);\n    }\n\n    function decrementBalanceOfE(address account, uint256 amount, string calldata reason) external {\n        super.decrementBalanceOf(account, amount, reason);\n    }\n\n    function incrementBalanceOfStagedE(address account, uint256 amount) external {\n        super.incrementBalanceOfStaged(account, amount);\n    }\n\n    function decrementBalanceOfStagedE(address account, uint256 amount, string calldata reason) external {\n        super.decrementBalanceOfStaged(account, amount, reason);\n    }\n\n    function incrementBalanceOfCouponsE(address account, uint256 epoch, uint256 amount) external {\n        super.incrementBalanceOfCoupons(account, epoch, amount);\n    }\n\n    function incrementBalanceOfCouponUnderlyingE(address account, uint256 epoch, uint256 amount) external {\n        super.incrementBalanceOfCouponUnderlying(account, epoch, amount);\n    }\n\n    function decrementBalanceOfCouponsE(address account, uint256 epoch, uint256 amount, string calldata reason) external {\n        super.decrementBalanceOfCoupons(account, epoch, amount, reason);\n    }\n\n    function decrementBalanceOfCouponUnderlyingE(address account, uint256 epoch, uint256 amount, string calldata reason) external {\n        super.decrementBalanceOfCouponUnderlying(account, epoch, amount, reason);\n    }\n\n    function unfreezeE(address account) external {\n        super.unfreeze(account);\n    }\n\n    function updateAllowanceCouponsE(address owner, address spender, uint256 amount) external {\n        super.updateAllowanceCoupons(owner, spender, amount);\n    }\n\n    function decrementAllowanceCouponsE(address owner, address spender, uint256 amount, string calldata reason) external {\n        super.decrementAllowanceCoupons(owner, spender, amount, reason);\n    }\n\n    /**\n     * Epoch\n     */\n\n    function setEpochParamsE(uint256 start, uint256 period) external {\n        _state.epoch.start = start;\n        _state.epoch.period = period;\n    }\n\n    function incrementEpochE() external {\n        super.incrementEpoch();\n    }\n\n    function snapshotTotalBondedE() external {\n        super.snapshotTotalBonded();\n    }\n\n    function initializeCouponsExpirationE(uint256 epoch, uint256 expiration) external {\n        super.initializeCouponsExpiration(epoch, expiration);\n    }\n\n    function eliminateOutstandingCouponsE(uint256 epoch) external {\n       super.eliminateOutstandingCoupons(epoch);\n    }\n\n    /**\n     * Governance\n     */\n\n    function createCandidateE(address candidate, uint256 period) external {\n        super.createCandidate(candidate, period);\n    }\n\n    function recordVoteE(address account, address candidate, Candidate.Vote vote) external {\n        super.recordVote(account, candidate, vote);\n    }\n\n    function incrementApproveForE(address candidate, uint256 amount) external {\n        super.incrementApproveFor(candidate, amount);\n    }\n\n    function decrementApproveForE(address candidate, uint256 amount, string calldata reason) external {\n        super.decrementApproveFor(candidate, amount, reason);\n    }\n\n    function incrementRejectForE(address candidate, uint256 amount) external {\n        super.incrementRejectFor(candidate, amount);\n    }\n\n    function decrementRejectForE(address candidate, uint256 amount, string calldata reason) external {\n        super.decrementRejectFor(candidate, amount, reason);\n    }\n\n    function placeLockE(address account, address candidate) external {\n        super.placeLock(account, candidate);\n    }\n\n    function initializedE(address candidate) external {\n        super.initialized(candidate);\n    }\n\n    /**\n     * Mock\n     */\n\n    function setBlockTimestamp(uint256 timestamp) external {\n        _blockTimestamp = timestamp;\n    }\n\n    function blockTimestamp() internal view returns (uint256) {\n        return _blockTimestamp;\n    }\n}\n",
  "sourcePath": "/Users/gokulalex/Apps/eth_apps/SemiotNet/contracts/mock/MockState.sol",
  "compiler": {
    "name": "solc",
    "version": "0.5.17+commit.d19bba13.Emscripten.clang"
  },
  "schemaVersion": "3.3.3",
  "updatedAt": "2021-02-19T15:49:23.697Z",
  "devdoc": {
    "methods": {}
  },
  "userdoc": {
    "methods": {
      "balanceOfStaged(address)": {
        "notice": "Account"
      },
      "createCandidateE(address,uint256)": {
        "notice": "Governance"
      },
      "dollar()": {
        "notice": "Global"
      },
      "epoch()": {
        "notice": "Epoch"
      },
      "incrementBalanceOfE(address,uint256)": {
        "notice": "Account"
      },
      "incrementTotalBondedE(uint256)": {
        "notice": "Global"
      },
      "name()": {
        "notice": "ERC20 Interface"
      },
      "recordedVote(address,address)": {
        "notice": "Governance"
      },
      "setBlockTimestamp(uint256)": {
        "notice": "Mock"
      },
      "setEpochParamsE(uint256,uint256)": {
        "notice": "Epoch"
      },
      "transfer(address,uint256)": {
        "notice": "ERC20 Interface"
      }
    }
  }
}