{
  "contractName": "MockRegulator",
  "abi": [
    {
      "inputs": [
        {
          "internalType": "address",
          "name": "oracle",
          "type": "address"
        },
        {
          "internalType": "address",
          "name": "pool",
          "type": "address"
        }
      ],
      "payable": false,
      "stateMutability": "nonpayable",
      "type": "constructor"
    },
    {
      "anonymous": false,
      "inputs": [
        {
          "indexed": true,
          "internalType": "uint256",
          "name": "epoch",
          "type": "uint256"
        },
        {
          "indexed": false,
          "internalType": "uint256",
          "name": "price",
          "type": "uint256"
        },
        {
          "indexed": false,
          "internalType": "uint256",
          "name": "newDebt",
          "type": "uint256"
        }
      ],
      "name": "SupplyDecrease",
      "type": "event"
    },
    {
      "anonymous": false,
      "inputs": [
        {
          "indexed": true,
          "internalType": "uint256",
          "name": "epoch",
          "type": "uint256"
        },
        {
          "indexed": false,
          "internalType": "uint256",
          "name": "price",
          "type": "uint256"
        },
        {
          "indexed": false,
          "internalType": "uint256",
          "name": "newRedeemable",
          "type": "uint256"
        },
        {
          "indexed": false,
          "internalType": "uint256",
          "name": "lessDebt",
          "type": "uint256"
        },
        {
          "indexed": false,
          "internalType": "uint256",
          "name": "newBonded",
          "type": "uint256"
        }
      ],
      "name": "SupplyIncrease",
      "type": "event"
    },
    {
      "anonymous": false,
      "inputs": [
        {
          "indexed": true,
          "internalType": "uint256",
          "name": "epoch",
          "type": "uint256"
        }
      ],
      "name": "SupplyNeutral",
      "type": "event"
    },
    {
      "anonymous": false,
      "inputs": [
        {
          "indexed": true,
          "internalType": "address",
          "name": "from",
          "type": "address"
        },
        {
          "indexed": true,
          "internalType": "address",
          "name": "to",
          "type": "address"
        },
        {
          "indexed": false,
          "internalType": "uint256",
          "name": "value",
          "type": "uint256"
        }
      ],
      "name": "Transfer",
      "type": "event"
    },
    {
      "constant": true,
      "inputs": [
        {
          "internalType": "address",
          "name": "owner",
          "type": "address"
        },
        {
          "internalType": "address",
          "name": "spender",
          "type": "address"
        }
      ],
      "name": "allowance",
      "outputs": [
        {
          "internalType": "uint256",
          "name": "",
          "type": "uint256"
        }
      ],
      "payable": false,
      "stateMutability": "view",
      "type": "function"
    },
    {
      "constant": true,
      "inputs": [
        {
          "internalType": "address",
          "name": "owner",
          "type": "address"
        },
        {
          "internalType": "address",
          "name": "spender",
          "type": "address"
        }
      ],
      "name": "allowanceCoupons",
      "outputs": [
        {
          "internalType": "uint256",
          "name": "",
          "type": "uint256"
        }
      ],
      "payable": false,
      "stateMutability": "view",
      "type": "function"
    },
    {
      "constant": false,
      "inputs": [
        {
          "internalType": "address",
          "name": "spender",
          "type": "address"
        },
        {
          "internalType": "uint256",
          "name": "amount",
          "type": "uint256"
        }
      ],
      "name": "approve",
      "outputs": [
        {
          "internalType": "bool",
          "name": "",
          "type": "bool"
        }
      ],
      "payable": false,
      "stateMutability": "nonpayable",
      "type": "function"
    },
    {
      "constant": true,
      "inputs": [
        {
          "internalType": "address",
          "name": "candidate",
          "type": "address"
        }
      ],
      "name": "approveFor",
      "outputs": [
        {
          "internalType": "uint256",
          "name": "",
          "type": "uint256"
        }
      ],
      "payable": false,
      "stateMutability": "view",
      "type": "function"
    },
    {
      "constant": true,
      "inputs": [
        {
          "internalType": "address",
          "name": "account",
          "type": "address"
        }
      ],
      "name": "balanceOf",
      "outputs": [
        {
          "internalType": "uint256",
          "name": "",
          "type": "uint256"
        }
      ],
      "payable": false,
      "stateMutability": "view",
      "type": "function"
    },
    {
      "constant": true,
      "inputs": [
        {
          "internalType": "address",
          "name": "account",
          "type": "address"
        }
      ],
      "name": "balanceOfBonded",
      "outputs": [
        {
          "internalType": "uint256",
          "name": "",
          "type": "uint256"
        }
      ],
      "payable": false,
      "stateMutability": "view",
      "type": "function"
    },
    {
      "constant": true,
      "inputs": [
        {
          "internalType": "address",
          "name": "account",
          "type": "address"
        },
        {
          "internalType": "uint256",
          "name": "epoch",
          "type": "uint256"
        }
      ],
      "name": "balanceOfCouponUnderlying",
      "outputs": [
        {
          "internalType": "uint256",
          "name": "",
          "type": "uint256"
        }
      ],
      "payable": false,
      "stateMutability": "view",
      "type": "function"
    },
    {
      "constant": true,
      "inputs": [
        {
          "internalType": "address",
          "name": "account",
          "type": "address"
        },
        {
          "internalType": "uint256",
          "name": "epoch",
          "type": "uint256"
        }
      ],
      "name": "balanceOfCoupons",
      "outputs": [
        {
          "internalType": "uint256",
          "name": "",
          "type": "uint256"
        }
      ],
      "payable": false,
      "stateMutability": "view",
      "type": "function"
    },
    {
      "constant": true,
      "inputs": [
        {
          "internalType": "address",
          "name": "account",
          "type": "address"
        }
      ],
      "name": "balanceOfStaged",
      "outputs": [
        {
          "internalType": "uint256",
          "name": "",
          "type": "uint256"
        }
      ],
      "payable": false,
      "stateMutability": "view",
      "type": "function"
    },
    {
      "constant": false,
      "inputs": [
        {
          "internalType": "address",
          "name": "account",
          "type": "address"
        },
        {
          "internalType": "uint256",
          "name": "amount",
          "type": "uint256"
        }
      ],
      "name": "burnFromAccountE",
      "outputs": [],
      "payable": false,
      "stateMutability": "nonpayable",
      "type": "function"
    },
    {
      "constant": false,
      "inputs": [
        {
          "internalType": "uint256",
          "name": "amount",
          "type": "uint256"
        }
      ],
      "name": "burnRedeemableE",
      "outputs": [],
      "payable": false,
      "stateMutability": "nonpayable",
      "type": "function"
    },
    {
      "constant": true,
      "inputs": [
        {
          "internalType": "uint256",
          "name": "epoch",
          "type": "uint256"
        }
      ],
      "name": "couponsExpiration",
      "outputs": [
        {
          "internalType": "uint256",
          "name": "",
          "type": "uint256"
        }
      ],
      "payable": false,
      "stateMutability": "view",
      "type": "function"
    },
    {
      "constant": false,
      "inputs": [
        {
          "internalType": "address",
          "name": "candidate",
          "type": "address"
        },
        {
          "internalType": "uint256",
          "name": "period",
          "type": "uint256"
        }
      ],
      "name": "createCandidateE",
      "outputs": [],
      "payable": false,
      "stateMutability": "nonpayable",
      "type": "function"
    },
    {
      "constant": true,
      "inputs": [],
      "name": "decimals",
      "outputs": [
        {
          "internalType": "uint8",
          "name": "",
          "type": "uint8"
        }
      ],
      "payable": false,
      "stateMutability": "view",
      "type": "function"
    },
    {
      "constant": false,
      "inputs": [
        {
          "internalType": "uint256",
          "name": "amount",
          "type": "uint256"
        }
      ],
      "name": "decreaseDebtE",
      "outputs": [],
      "payable": false,
      "stateMutability": "nonpayable",
      "type": "function"
    },
    {
      "constant": false,
      "inputs": [
        {
          "internalType": "address",
          "name": "owner",
          "type": "address"
        },
        {
          "internalType": "address",
          "name": "spender",
          "type": "address"
        },
        {
          "internalType": "uint256",
          "name": "amount",
          "type": "uint256"
        },
        {
          "internalType": "string",
          "name": "reason",
          "type": "string"
        }
      ],
      "name": "decrementAllowanceCouponsE",
      "outputs": [],
      "payable": false,
      "stateMutability": "nonpayable",
      "type": "function"
    },
    {
      "constant": false,
      "inputs": [
        {
          "internalType": "address",
          "name": "candidate",
          "type": "address"
        },
        {
          "internalType": "uint256",
          "name": "amount",
          "type": "uint256"
        },
        {
          "internalType": "string",
          "name": "reason",
          "type": "string"
        }
      ],
      "name": "decrementApproveForE",
      "outputs": [],
      "payable": false,
      "stateMutability": "nonpayable",
      "type": "function"
    },
    {
      "constant": false,
      "inputs": [
        {
          "internalType": "address",
          "name": "account",
          "type": "address"
        },
        {
          "internalType": "uint256",
          "name": "epoch",
          "type": "uint256"
        },
        {
          "internalType": "uint256",
          "name": "amount",
          "type": "uint256"
        },
        {
          "internalType": "string",
          "name": "reason",
          "type": "string"
        }
      ],
      "name": "decrementBalanceOfCouponUnderlyingE",
      "outputs": [],
      "payable": false,
      "stateMutability": "nonpayable",
      "type": "function"
    },
    {
      "constant": false,
      "inputs": [
        {
          "internalType": "address",
          "name": "account",
          "type": "address"
        },
        {
          "internalType": "uint256",
          "name": "epoch",
          "type": "uint256"
        },
        {
          "internalType": "uint256",
          "name": "amount",
          "type": "uint256"
        },
        {
          "internalType": "string",
          "name": "reason",
          "type": "string"
        }
      ],
      "name": "decrementBalanceOfCouponsE",
      "outputs": [],
      "payable": false,
      "stateMutability": "nonpayable",
      "type": "function"
    },
    {
      "constant": false,
      "inputs": [
        {
          "internalType": "address",
          "name": "account",
          "type": "address"
        },
        {
          "internalType": "uint256",
          "name": "amount",
          "type": "uint256"
        },
        {
          "internalType": "string",
          "name": "reason",
          "type": "string"
        }
      ],
      "name": "decrementBalanceOfE",
      "outputs": [],
      "payable": false,
      "stateMutability": "nonpayable",
      "type": "function"
    },
    {
      "constant": false,
      "inputs": [
        {
          "internalType": "address",
          "name": "account",
          "type": "address"
        },
        {
          "internalType": "uint256",
          "name": "amount",
          "type": "uint256"
        },
        {
          "internalType": "string",
          "name": "reason",
          "type": "string"
        }
      ],
      "name": "decrementBalanceOfStagedE",
      "outputs": [],
      "payable": false,
      "stateMutability": "nonpayable",
      "type": "function"
    },
    {
      "constant": false,
      "inputs": [
        {
          "internalType": "address",
          "name": "candidate",
          "type": "address"
        },
        {
          "internalType": "uint256",
          "name": "amount",
          "type": "uint256"
        },
        {
          "internalType": "string",
          "name": "reason",
          "type": "string"
        }
      ],
      "name": "decrementRejectForE",
      "outputs": [],
      "payable": false,
      "stateMutability": "nonpayable",
      "type": "function"
    },
    {
      "constant": false,
      "inputs": [
        {
          "internalType": "uint256",
          "name": "amount",
          "type": "uint256"
        },
        {
          "internalType": "string",
          "name": "reason",
          "type": "string"
        }
      ],
      "name": "decrementTotalBondedE",
      "outputs": [],
      "payable": false,
      "stateMutability": "nonpayable",
      "type": "function"
    },
    {
      "constant": false,
      "inputs": [
        {
          "internalType": "uint256",
          "name": "amount",
          "type": "uint256"
        },
        {
          "internalType": "string",
          "name": "reason",
          "type": "string"
        }
      ],
      "name": "decrementTotalDebtE",
      "outputs": [],
      "payable": false,
      "stateMutability": "nonpayable",
      "type": "function"
    },
    {
      "constant": false,
      "inputs": [
        {
          "internalType": "uint256",
          "name": "amount",
          "type": "uint256"
        },
        {
          "internalType": "string",
          "name": "reason",
          "type": "string"
        }
      ],
      "name": "decrementTotalRedeemableE",
      "outputs": [],
      "payable": false,
      "stateMutability": "nonpayable",
      "type": "function"
    },
    {
      "constant": true,
      "inputs": [],
      "name": "dollar",
      "outputs": [
        {
          "internalType": "contract IDollar",
          "name": "",
          "type": "address"
        }
      ],
      "payable": false,
      "stateMutability": "view",
      "type": "function"
    },
    {
      "constant": false,
      "inputs": [
        {
          "internalType": "uint256",
          "name": "epoch",
          "type": "uint256"
        }
      ],
      "name": "eliminateOutstandingCouponsE",
      "outputs": [],
      "payable": false,
      "stateMutability": "nonpayable",
      "type": "function"
    },
    {
      "constant": true,
      "inputs": [],
      "name": "epoch",
      "outputs": [
        {
          "internalType": "uint256",
          "name": "",
          "type": "uint256"
        }
      ],
      "payable": false,
      "stateMutability": "view",
      "type": "function"
    },
    {
      "constant": true,
      "inputs": [],
      "name": "epochTime",
      "outputs": [
        {
          "internalType": "uint256",
          "name": "",
          "type": "uint256"
        }
      ],
      "payable": false,
      "stateMutability": "view",
      "type": "function"
    },
    {
      "constant": true,
      "inputs": [],
      "name": "eraStart",
      "outputs": [
        {
          "internalType": "uint256",
          "name": "",
          "type": "uint256"
        }
      ],
      "payable": false,
      "stateMutability": "view",
      "type": "function"
    },
    {
      "constant": true,
      "inputs": [],
      "name": "eraStatus",
      "outputs": [
        {
          "internalType": "enum Era.Status",
          "name": "",
          "type": "uint8"
        }
      ],
      "payable": false,
      "stateMutability": "view",
      "type": "function"
    },
    {
      "constant": true,
      "inputs": [
        {
          "internalType": "uint256",
          "name": "epoch",
          "type": "uint256"
        }
      ],
      "name": "expiringCoupons",
      "outputs": [
        {
          "internalType": "uint256",
          "name": "",
          "type": "uint256"
        }
      ],
      "payable": false,
      "stateMutability": "view",
      "type": "function"
    },
    {
      "constant": true,
      "inputs": [
        {
          "internalType": "uint256",
          "name": "epoch",
          "type": "uint256"
        },
        {
          "internalType": "uint256",
          "name": "i",
          "type": "uint256"
        }
      ],
      "name": "expiringCouponsAtIndex",
      "outputs": [
        {
          "internalType": "uint256",
          "name": "",
          "type": "uint256"
        }
      ],
      "payable": false,
      "stateMutability": "view",
      "type": "function"
    },
    {
      "constant": true,
      "inputs": [
        {
          "internalType": "address",
          "name": "account",
          "type": "address"
        }
      ],
      "name": "fluidUntil",
      "outputs": [
        {
          "internalType": "uint256",
          "name": "",
          "type": "uint256"
        }
      ],
      "payable": false,
      "stateMutability": "view",
      "type": "function"
    },
    {
      "constant": true,
      "inputs": [],
      "name": "implementation",
      "outputs": [
        {
          "internalType": "address",
          "name": "impl",
          "type": "address"
        }
      ],
      "payable": false,
      "stateMutability": "view",
      "type": "function"
    },
    {
      "constant": false,
      "inputs": [
        {
          "internalType": "uint256",
          "name": "amount",
          "type": "uint256"
        }
      ],
      "name": "increaseDebtE",
      "outputs": [],
      "payable": false,
      "stateMutability": "nonpayable",
      "type": "function"
    },
    {
      "constant": false,
      "inputs": [
        {
          "internalType": "address",
          "name": "candidate",
          "type": "address"
        },
        {
          "internalType": "uint256",
          "name": "amount",
          "type": "uint256"
        }
      ],
      "name": "incrementApproveForE",
      "outputs": [],
      "payable": false,
      "stateMutability": "nonpayable",
      "type": "function"
    },
    {
      "constant": false,
      "inputs": [
        {
          "internalType": "address",
          "name": "account",
          "type": "address"
        },
        {
          "internalType": "uint256",
          "name": "epoch",
          "type": "uint256"
        },
        {
          "internalType": "uint256",
          "name": "amount",
          "type": "uint256"
        }
      ],
      "name": "incrementBalanceOfCouponUnderlyingE",
      "outputs": [],
      "payable": false,
      "stateMutability": "nonpayable",
      "type": "function"
    },
    {
      "constant": false,
      "inputs": [
        {
          "internalType": "address",
          "name": "account",
          "type": "address"
        },
        {
          "internalType": "uint256",
          "name": "epoch",
          "type": "uint256"
        },
        {
          "internalType": "uint256",
          "name": "amount",
          "type": "uint256"
        }
      ],
      "name": "incrementBalanceOfCouponsE",
      "outputs": [],
      "payable": false,
      "stateMutability": "nonpayable",
      "type": "function"
    },
    {
      "constant": false,
      "inputs": [
        {
          "internalType": "address",
          "name": "account",
          "type": "address"
        },
        {
          "internalType": "uint256",
          "name": "amount",
          "type": "uint256"
        }
      ],
      "name": "incrementBalanceOfE",
      "outputs": [],
      "payable": false,
      "stateMutability": "nonpayable",
      "type": "function"
    },
    {
      "constant": false,
      "inputs": [
        {
          "internalType": "address",
          "name": "account",
          "type": "address"
        },
        {
          "internalType": "uint256",
          "name": "amount",
          "type": "uint256"
        }
      ],
      "name": "incrementBalanceOfStagedE",
      "outputs": [],
      "payable": false,
      "stateMutability": "nonpayable",
      "type": "function"
    },
    {
      "constant": false,
      "inputs": [],
      "name": "incrementEpochE",
      "outputs": [],
      "payable": false,
      "stateMutability": "nonpayable",
      "type": "function"
    },
    {
      "constant": false,
      "inputs": [
        {
          "internalType": "address",
          "name": "candidate",
          "type": "address"
        },
        {
          "internalType": "uint256",
          "name": "amount",
          "type": "uint256"
        }
      ],
      "name": "incrementRejectForE",
      "outputs": [],
      "payable": false,
      "stateMutability": "nonpayable",
      "type": "function"
    },
    {
      "constant": false,
      "inputs": [
        {
          "internalType": "uint256",
          "name": "amount",
          "type": "uint256"
        }
      ],
      "name": "incrementTotalBondedE",
      "outputs": [],
      "payable": false,
      "stateMutability": "nonpayable",
      "type": "function"
    },
    {
      "constant": false,
      "inputs": [
        {
          "internalType": "uint256",
          "name": "amount",
          "type": "uint256"
        }
      ],
      "name": "incrementTotalDebtE",
      "outputs": [],
      "payable": false,
      "stateMutability": "nonpayable",
      "type": "function"
    },
    {
      "constant": false,
      "inputs": [
        {
          "internalType": "uint256",
          "name": "amount",
          "type": "uint256"
        }
      ],
      "name": "incrementTotalRedeemableE",
      "outputs": [],
      "payable": false,
      "stateMutability": "nonpayable",
      "type": "function"
    },
    {
      "constant": false,
      "inputs": [
        {
          "internalType": "uint256",
          "name": "epoch",
          "type": "uint256"
        },
        {
          "internalType": "uint256",
          "name": "expiration",
          "type": "uint256"
        }
      ],
      "name": "initializeCouponsExpirationE",
      "outputs": [],
      "payable": false,
      "stateMutability": "nonpayable",
      "type": "function"
    },
    {
      "constant": false,
      "inputs": [
        {
          "internalType": "address",
          "name": "candidate",
          "type": "address"
        }
      ],
      "name": "initializedE",
      "outputs": [],
      "payable": false,
      "stateMutability": "nonpayable",
      "type": "function"
    },
    {
      "constant": true,
      "inputs": [
        {
          "internalType": "address",
          "name": "candidate",
          "type": "address"
        }
      ],
      "name": "isInitialized",
      "outputs": [
        {
          "internalType": "bool",
          "name": "",
          "type": "bool"
        }
      ],
      "payable": false,
      "stateMutability": "view",
      "type": "function"
    },
    {
      "constant": true,
      "inputs": [
        {
          "internalType": "address",
          "name": "candidate",
          "type": "address"
        }
      ],
      "name": "isNominated",
      "outputs": [
        {
          "internalType": "bool",
          "name": "",
          "type": "bool"
        }
      ],
      "payable": false,
      "stateMutability": "view",
      "type": "function"
    },
    {
      "constant": true,
      "inputs": [
        {
          "internalType": "address",
          "name": "account",
          "type": "address"
        }
      ],
      "name": "lockedUntil",
      "outputs": [
        {
          "internalType": "uint256",
          "name": "",
          "type": "uint256"
        }
      ],
      "payable": false,
      "stateMutability": "view",
      "type": "function"
    },
    {
      "constant": false,
      "inputs": [
        {
          "internalType": "address",
          "name": "account",
          "type": "address"
        },
        {
          "internalType": "uint256",
          "name": "amount",
          "type": "uint256"
        }
      ],
      "name": "mintToAccountE",
      "outputs": [],
      "payable": false,
      "stateMutability": "nonpayable",
      "type": "function"
    },
    {
      "constant": false,
      "inputs": [
        {
          "internalType": "address",
          "name": "account",
          "type": "address"
        },
        {
          "internalType": "uint256",
          "name": "amount",
          "type": "uint256"
        }
      ],
      "name": "mintToE",
      "outputs": [],
      "payable": false,
      "stateMutability": "nonpayable",
      "type": "function"
    },
    {
      "constant": true,
      "inputs": [],
      "name": "name",
      "outputs": [
        {
          "internalType": "string",
          "name": "",
          "type": "string"
        }
      ],
      "payable": false,
      "stateMutability": "view",
      "type": "function"
    },
    {
      "constant": true,
      "inputs": [],
      "name": "oracle",
      "outputs": [
        {
          "internalType": "contract IOracle",
          "name": "",
          "type": "address"
        }
      ],
      "payable": false,
      "stateMutability": "view",
      "type": "function"
    },
    {
      "constant": true,
      "inputs": [
        {
          "internalType": "uint256",
          "name": "epoch",
          "type": "uint256"
        }
      ],
      "name": "outstandingCoupons",
      "outputs": [
        {
          "internalType": "uint256",
          "name": "",
          "type": "uint256"
        }
      ],
      "payable": false,
      "stateMutability": "view",
      "type": "function"
    },
    {
      "constant": true,
      "inputs": [
        {
          "internalType": "address",
          "name": "candidate",
          "type": "address"
        }
      ],
      "name": "periodFor",
      "outputs": [
        {
          "internalType": "uint256",
          "name": "",
          "type": "uint256"
        }
      ],
      "payable": false,
      "stateMutability": "view",
      "type": "function"
    },
    {
      "constant": false,
      "inputs": [
        {
          "internalType": "address",
          "name": "account",
          "type": "address"
        },
        {
          "internalType": "address",
          "name": "candidate",
          "type": "address"
        }
      ],
      "name": "placeLockE",
      "outputs": [],
      "payable": false,
      "stateMutability": "nonpayable",
      "type": "function"
    },
    {
      "constant": true,
      "inputs": [],
      "name": "pool",
      "outputs": [
        {
          "internalType": "address",
          "name": "",
          "type": "address"
        }
      ],
      "payable": false,
      "stateMutability": "view",
      "type": "function"
    },
    {
      "constant": false,
      "inputs": [
        {
          "internalType": "address",
          "name": "account",
          "type": "address"
        },
        {
          "internalType": "address",
          "name": "candidate",
          "type": "address"
        },
        {
          "internalType": "enum Candidate.Vote",
          "name": "vote",
          "type": "uint8"
        }
      ],
      "name": "recordVoteE",
      "outputs": [],
      "payable": false,
      "stateMutability": "nonpayable",
      "type": "function"
    },
    {
      "constant": true,
      "inputs": [
        {
          "internalType": "address",
          "name": "account",
          "type": "address"
        },
        {
          "internalType": "address",
          "name": "candidate",
          "type": "address"
        }
      ],
      "name": "recordedVote",
      "outputs": [
        {
          "internalType": "enum Candidate.Vote",
          "name": "",
          "type": "uint8"
        }
      ],
      "payable": false,
      "stateMutability": "view",
      "type": "function"
    },
    {
      "constant": false,
      "inputs": [
        {
          "internalType": "address",
          "name": "account",
          "type": "address"
        },
        {
          "internalType": "uint256",
          "name": "amount",
          "type": "uint256"
        },
        {
          "internalType": "uint256",
          "name": "couponAmount",
          "type": "uint256"
        }
      ],
      "name": "redeemToAccountE",
      "outputs": [],
      "payable": false,
      "stateMutability": "nonpayable",
      "type": "function"
    },
    {
      "constant": true,
      "inputs": [
        {
          "internalType": "address",
          "name": "candidate",
          "type": "address"
        }
      ],
      "name": "rejectFor",
      "outputs": [
        {
          "internalType": "uint256",
          "name": "",
          "type": "uint256"
        }
      ],
      "payable": false,
      "stateMutability": "view",
      "type": "function"
    },
    {
      "constant": false,
      "inputs": [
        {
          "internalType": "uint256",
          "name": "percent",
          "type": "uint256"
        }
      ],
      "name": "resetDebtE",
      "outputs": [],
      "payable": false,
      "stateMutability": "nonpayable",
      "type": "function"
    },
    {
      "constant": false,
      "inputs": [
        {
          "internalType": "uint256",
          "name": "timestamp",
          "type": "uint256"
        }
      ],
      "name": "setBlockTimestamp",
      "outputs": [],
      "payable": false,
      "stateMutability": "nonpayable",
      "type": "function"
    },
    {
      "constant": false,
      "inputs": [
        {
          "internalType": "uint256",
          "name": "start",
          "type": "uint256"
        },
        {
          "internalType": "uint256",
          "name": "period",
          "type": "uint256"
        }
      ],
      "name": "setEpochParamsE",
      "outputs": [],
      "payable": false,
      "stateMutability": "nonpayable",
      "type": "function"
    },
    {
      "constant": false,
      "inputs": [],
      "name": "snapshotTotalBondedE",
      "outputs": [],
      "payable": false,
      "stateMutability": "nonpayable",
      "type": "function"
    },
    {
      "constant": false,
      "inputs": [
        {
          "internalType": "uint256",
          "name": "amount",
          "type": "uint256"
        }
      ],
      "name": "stabilityRewardE",
      "outputs": [],
      "payable": false,
      "stateMutability": "nonpayable",
      "type": "function"
    },
    {
      "constant": true,
      "inputs": [
        {
          "internalType": "address",
          "name": "candidate",
          "type": "address"
        }
      ],
      "name": "startFor",
      "outputs": [
        {
          "internalType": "uint256",
          "name": "",
          "type": "uint256"
        }
      ],
      "payable": false,
      "stateMutability": "view",
      "type": "function"
    },
    {
      "constant": true,
      "inputs": [
        {
          "internalType": "address",
          "name": "account",
          "type": "address"
        }
      ],
      "name": "statusOf",
      "outputs": [
        {
          "internalType": "enum Account.Status",
          "name": "",
          "type": "uint8"
        }
      ],
      "payable": false,
      "stateMutability": "view",
      "type": "function"
    },
    {
      "constant": true,
      "inputs": [],
      "name": "symbol",
      "outputs": [
        {
          "internalType": "string",
          "name": "",
          "type": "string"
        }
      ],
      "payable": false,
      "stateMutability": "view",
      "type": "function"
    },
    {
      "constant": true,
      "inputs": [],
      "name": "totalBonded",
      "outputs": [
        {
          "internalType": "uint256",
          "name": "",
          "type": "uint256"
        }
      ],
      "payable": false,
      "stateMutability": "view",
      "type": "function"
    },
    {
      "constant": true,
      "inputs": [
        {
          "internalType": "uint256",
          "name": "epoch",
          "type": "uint256"
        }
      ],
      "name": "totalBondedAt",
      "outputs": [
        {
          "internalType": "uint256",
          "name": "",
          "type": "uint256"
        }
      ],
      "payable": false,
      "stateMutability": "view",
      "type": "function"
    },
    {
      "constant": true,
      "inputs": [],
      "name": "totalCouponUnderlying",
      "outputs": [
        {
          "internalType": "uint256",
          "name": "",
          "type": "uint256"
        }
      ],
      "payable": false,
      "stateMutability": "view",
      "type": "function"
    },
    {
      "constant": true,
      "inputs": [],
      "name": "totalCoupons",
      "outputs": [
        {
          "internalType": "uint256",
          "name": "",
          "type": "uint256"
        }
      ],
      "payable": false,
      "stateMutability": "view",
      "type": "function"
    },
    {
      "constant": true,
      "inputs": [],
      "name": "totalDebt",
      "outputs": [
        {
          "internalType": "uint256",
          "name": "",
          "type": "uint256"
        }
      ],
      "payable": false,
      "stateMutability": "view",
      "type": "function"
    },
    {
      "constant": true,
      "inputs": [],
      "name": "totalNet",
      "outputs": [
        {
          "internalType": "uint256",
          "name": "",
          "type": "uint256"
        }
      ],
      "payable": false,
      "stateMutability": "view",
      "type": "function"
    },
    {
      "constant": true,
      "inputs": [],
      "name": "totalRedeemable",
      "outputs": [
        {
          "internalType": "uint256",
          "name": "",
          "type": "uint256"
        }
      ],
      "payable": false,
      "stateMutability": "view",
      "type": "function"
    },
    {
      "constant": true,
      "inputs": [],
      "name": "totalStaged",
      "outputs": [
        {
          "internalType": "uint256",
          "name": "",
          "type": "uint256"
        }
      ],
      "payable": false,
      "stateMutability": "view",
      "type": "function"
    },
    {
      "constant": true,
      "inputs": [],
      "name": "totalSupply",
      "outputs": [
        {
          "internalType": "uint256",
          "name": "",
          "type": "uint256"
        }
      ],
      "payable": false,
      "stateMutability": "view",
      "type": "function"
    },
    {
      "constant": false,
      "inputs": [
        {
          "internalType": "address",
          "name": "recipient",
          "type": "address"
        },
        {
          "internalType": "uint256",
          "name": "amount",
          "type": "uint256"
        }
      ],
      "name": "transfer",
      "outputs": [
        {
          "internalType": "bool",
          "name": "",
          "type": "bool"
        }
      ],
      "payable": false,
      "stateMutability": "nonpayable",
      "type": "function"
    },
    {
      "constant": false,
      "inputs": [
        {
          "internalType": "address",
          "name": "sender",
          "type": "address"
        },
        {
          "internalType": "address",
          "name": "recipient",
          "type": "address"
        },
        {
          "internalType": "uint256",
          "name": "amount",
          "type": "uint256"
        }
      ],
      "name": "transferFrom",
      "outputs": [
        {
          "internalType": "bool",
          "name": "",
          "type": "bool"
        }
      ],
      "payable": false,
      "stateMutability": "nonpayable",
      "type": "function"
    },
    {
      "constant": false,
      "inputs": [
        {
          "internalType": "address",
          "name": "account",
          "type": "address"
        }
      ],
      "name": "unfreezeE",
      "outputs": [],
      "payable": false,
      "stateMutability": "nonpayable",
      "type": "function"
    },
    {
      "constant": false,
      "inputs": [
        {
          "internalType": "address",
          "name": "owner",
          "type": "address"
        },
        {
          "internalType": "address",
          "name": "spender",
          "type": "address"
        },
        {
          "internalType": "uint256",
          "name": "amount",
          "type": "uint256"
        }
      ],
      "name": "updateAllowanceCouponsE",
      "outputs": [],
      "payable": false,
      "stateMutability": "nonpayable",
      "type": "function"
    },
    {
      "constant": false,
      "inputs": [
        {
          "internalType": "enum Era.Status",
          "name": "status",
          "type": "uint8"
        }
      ],
      "name": "updateEraE",
      "outputs": [],
      "payable": false,
      "stateMutability": "nonpayable",
      "type": "function"
    },
    {
      "constant": true,
      "inputs": [
        {
          "internalType": "address",
          "name": "candidate",
          "type": "address"
        }
      ],
      "name": "votesFor",
      "outputs": [
        {
          "internalType": "uint256",
          "name": "",
          "type": "uint256"
        }
      ],
      "payable": false,
      "stateMutability": "view",
      "type": "function"
    },
    {
      "constant": false,
      "inputs": [],
      "name": "stepE",
      "outputs": [],
      "payable": false,
      "stateMutability": "nonpayable",
      "type": "function"
    },
    {
      "constant": true,
      "inputs": [
        {
          "internalType": "uint256",
          "name": "epoch",
          "type": "uint256"
        }
      ],
      "name": "bootstrappingAt",
      "outputs": [
        {
          "internalType": "bool",
          "name": "",
          "type": "bool"
        }
      ],
      "payable": false,
      "stateMutability": "view",
      "type": "function"
    }
  ],
  "bytecode": "0x60806040523480156200001157600080fd5b50604051620083a2380380620083a283398181016040526200003791908101906200016d565b80426013819055506040516200004d9062000148565b604051809103906000f0801580156200006a573d6000803e3d6000fd5b50600060090160000160006101000a81548173ffffffffffffffffffffffffffffffffffffffff021916908373ffffffffffffffffffffffffffffffffffffffff16021790555080600060090160020160006101000a81548173ffffffffffffffffffffffffffffffffffffffff021916908373ffffffffffffffffffffffffffffffffffffffff1602179055505081600060090160010160006101000a81548173ffffffffffffffffffffffffffffffffffffffff021916908373ffffffffffffffffffffffffffffffffffffffff1602179055505050620001fc565b612cc680620056dc83390190565b6000815190506200016781620001e2565b92915050565b600080604083850312156200018157600080fd5b6000620001918582860162000156565b9250506020620001a48582860162000156565b9150509250929050565b6000620001bb82620001c2565b9050919050565b600073ffffffffffffffffffffffffffffffffffffffff82169050919050565b620001ed81620001ae565b8114620001f957600080fd5b50565b6154d0806200020c6000396000f3fe608060405234801561001057600080fd5b50600436106104d85760003560e01c80637dc0d1d011610283578063b11ee0e31161015c578063d6d8816d116100ce578063f1b7cf4911610092578063f1b7cf4914610fc9578063f35adf7e14610ff9578063f7a3181814611003578063faec55371461101f578063fc7b9c181461103b578063ffbe3b7314611059576104d8565b8063d6d8816d14610f27578063d83d3ed514610f43578063dd62ed3e14610f5f578063e0abdf6614610f8f578063edb6b80a14610fab576104d8565b8063c1410c0211610120578063c1410c0214610e55578063c2aeb5fe14610e71578063c9aff70c14610e8d578063cc8d823c14610ebd578063cf02377914610ed9578063d60b347f14610ef7576104d8565b8063b11ee0e314610db3578063b16144a314610dcf578063b32a2f9014610deb578063b739a7b814610e07578063bc7513e214610e25576104d8565b80639be46493116101f5578063a6f37b53116101b9578063a6f37b5314610cf7578063a9059cbb14610d13578063a9b3cf1514610d43578063aa1daf8514610d5f578063adbff2be14610d7b578063ae5c238114610d97576104d8565b80639be4649314610c415780639f6e1b2614610c5d578063a00e14d114610c8d578063a50cd8e714610ca9578063a6c409f114610cd9576104d8565b8063900cf0cf11610247578063900cf0cf14610b6b57806395d89b4114610b8957806397a5d5b514610ba75780639a649edc14610bd75780639b82b49b14610bf55780639bc289f114610c11576104d8565b80637dc0d1d014610ab5578063825ad60714610ad35780638413e52a14610b0357806386cf9f1414610b1f5780638de2e57314610b4f576104d8565b80633fd4973c116103b55780635f14fec8116103275780636be8d64b116102eb5780636be8d64b146109f757806370a0823114610a1357806371c511eb14610a4357806372924d2a14610a4d57806375d5024b14610a695780637cb95a3214610a99576104d8565b80635f14fec81461094357806363b0a9761461095f578063646680221461097b5780636a39e328146109ab5780636b862d66146109db576104d8565b80634c736099116103795780634c7360991461086d5780635053e4611461089d57806351adeb57146108bb57806351bf21d8146108d95780635c60da1b146109095780635dbf800a14610927576104d8565b80633fd4973c146107ef578063416a23cc1461080b5780634303d4f714610815578063438735261461083357806344d96e951461084f576104d8565b80631fac97321161044e578063313ce56711610412578063313ce567146107095780633234742214610727578063353a420c146107435780633a3e6c81146107735780633f7bcaf3146107a35780633fbba9a6146107bf576104d8565b80631fac97321461066957806320f6bc901461068557806323b872dd146106a1578063259f7adf146106d1578063277805a9146106ed576104d8565b806310e95b6c116104a057806310e95b6c1461059357806315e14bf6146105c357806316f0115b146105f357806318160ddd146106115780631a08e22a1461062f5780631edbcf6c1461064b576104d8565b806306fdde03146104dd578063095ea7b3146104fb578063097c6b7e1461052b5780630d78ceb4146105475780630dc6d3a314610577575b600080fd5b6104e5611089565b6040516104f291906150b0565b60405180910390f35b61051560048036036105109190810190614a93565b6110c6565b604051610522919061500e565b60405180910390f35b61054560048036036105409190810190614c98565b6110d1565b005b610561600480360361055c9190810190614a93565b6110de565b60405161056e9190615112565b60405180910390f35b610591600480360361058c9190810190614a13565b61113c565b005b6105ad60048036036105a89190810190614c98565b611193565b6040516105ba9190615112565b60405180910390f35b6105dd60048036036105d89190810190614910565b6111b8565b6040516105ea9190615112565b60405180910390f35b6105fb611206565b6040516106089190614f93565b60405180910390f35b610619611235565b6040516106269190615112565b60405180910390f35b61064960048036036106449190810190614d42565b611244565b005b610653611252565b6040516106609190615112565b60405180910390f35b610683600480360361067e9190810190614c98565b611261565b005b61069f600480360361069a9190810190614a93565b61126d565b005b6106bb60048036036106b691908101906149c4565b61127b565b6040516106c8919061500e565b60405180910390f35b6106eb60048036036106e69190810190614c98565b611287565b005b61070760048036036107029190810190614a93565b611293565b005b61071161132c565b60405161071e919061519b565b60405180910390f35b610741600480360361073c9190810190614cea565b611335565b005b61075d60048036036107589190810190614910565b611388565b60405161076a9190615112565b60405180910390f35b61078d60048036036107889190810190614910565b6113d6565b60405161079a919061500e565b60405180910390f35b6107bd60048036036107b891908101906149c4565b611427565b005b6107d960048036036107d49190810190614939565b611437565b6040516107e69190615095565b60405180910390f35b61080960048036036108049190810190614acf565b6114d0565b005b610813611525565b005b61081d61152f565b60405161082a9190615112565b60405180910390f35b61084d60048036036108489190810190614c98565b61153c565b005b610857611549565b6040516108649190615112565b60405180910390f35b61088760048036036108829190810190614d42565b611558565b6040516108949190615112565b60405180910390f35b6108a5611593565b6040516108b29190615112565b60405180910390f35b6108c36115ea565b6040516108d09190615029565b60405180910390f35b6108f360048036036108ee9190810190614910565b611619565b6040516109009190615112565b60405180910390f35b610911611667565b60405161091e9190614f93565b60405180910390f35b610941600480360361093c9190810190614c98565b611698565b005b61095d60048036036109589190810190614a93565b6116a4565b005b61097960048036036109749190810190614b3b565b6116b2565b005b61099560048036036109909190810190614910565b6116c2565b6040516109a29190615112565b60405180910390f35b6109c560048036036109c09190810190614c98565b611710565b6040516109d29190615112565b60405180910390f35b6109f560048036036109f09190810190614b3b565b611738565b005b610a116004803603610a0c9190810190614c33565b611748565b005b610a2d6004803603610a289190810190614910565b611754565b604051610a3a9190615112565b60405180910390f35b610a4b6117a2565b005b610a676004803603610a629190810190614cea565b6117ac565b005b610a836004803603610a7e9190810190614c98565b6117ff565b604051610a90919061500e565b60405180910390f35b610ab36004803603610aae9190810190614acf565b61180d565b005b610abd611862565b604051610aca9190615044565b60405180910390f35b610aed6004803603610ae89190810190614910565b611891565b604051610afa9190615112565b60405180910390f35b610b1d6004803603610b189190810190614975565b6118ee565b005b610b396004803603610b349190810190614910565b6118fe565b604051610b469190615112565b60405180910390f35b610b696004803603610b649190810190614c98565b61194c565b005b610b73611958565b604051610b809190615112565b60405180910390f35b610b91611967565b604051610b9e91906150b0565b60405180910390f35b610bc16004803603610bbc9190810190614910565b6119a4565b604051610bce919061505f565b60405180910390f35b610bdf611a69565b604051610bec9190615112565b60405180910390f35b610c0f6004803603610c0a9190810190614cea565b611a78565b005b610c2b6004803603610c269190810190614910565b611acb565b604051610c389190615112565b60405180910390f35b610c5b6004803603610c569190810190614910565b611b19565b005b610c776004803603610c729190810190614939565b611b25565b604051610c849190615112565b60405180910390f35b610ca76004803603610ca29190810190614d42565b611bb1565b005b610cc36004803603610cbe9190810190614910565b611bcd565b604051610cd09190615112565b60405180910390f35b610ce1611bf9565b604051610cee9190615112565b60405180910390f35b610d116004803603610d0c9190810190614910565b611c9e565b005b610d2d6004803603610d289190810190614a93565b611caa565b604051610d3a919061500e565b60405180910390f35b610d5d6004803603610d589190810190614c98565b611cb5565b005b610d796004803603610d749190810190614b8a565b611cc1565b005b610d956004803603610d909190810190614acf565b611d18565b005b610db16004803603610dac9190810190614a93565b611d6d565b005b610dcd6004803603610dc89190810190614a93565b611d7b565b005b610de96004803603610de49190810190614c98565b611d89565b005b610e056004803603610e009190810190614acf565b611da0565b005b610e0f611df5565b604051610e1c9190615112565b60405180910390f35b610e3f6004803603610e3a9190810190614a93565b611e05565b604051610e4c9190615112565b60405180910390f35b610e6f6004803603610e6a9190810190614939565b611e80565b005b610e8b6004803603610e869190810190614b8a565b611e8e565b005b610ea76004803603610ea29190810190614c98565b611ee5565b604051610eb49190615112565b60405180910390f35b610ed76004803603610ed29190810190614a93565b611f0a565b005b610ee1611f18565b604051610eee9190615112565b60405180910390f35b610f116004803603610f0c9190810190614910565b611f27565b604051610f1e919061500e565b60405180910390f35b610f416004803603610f3c9190810190614c98565b611f82565b005b610f5d6004803603610f589190810190614a93565b611f8e565b005b610f796004803603610f749190810190614939565b611f9c565b604051610f869190615112565b60405180910390f35b610fa96004803603610fa49190810190614c98565b611fa7565b005b610fb3611fb1565b604051610fc0919061507a565b60405180910390f35b610fe36004803603610fde9190810190614910565b611fce565b604051610ff09190615112565b60405180910390f35b61100161201c565b005b61101d60048036036110189190810190614a93565b612026565b005b61103960048036036110349190810190614b3b565b612034565b005b611043612044565b6040516110509190615112565b60405180910390f35b611073600480360361106e9190810190614c98565b612053565b6040516110809190615112565b60405180910390f35b60606040518060400160405280601681526020017f456d7074792053657420446f6c6c6172205374616b6500000000000000000000815250905090565b600080905092915050565b6110da81612075565b5050565b6000600f60000160008473ffffffffffffffffffffffffffffffffffffffff1673ffffffffffffffffffffffffffffffffffffffff168152602001908152602001600020600083815260200190815260200160002054905092915050565b61118c85858585858080601f016020809104026020016040519081016040528093929190818152602001838380828437600081840152601f19601f820116905080830192505050505050506120a1565b5050505050565b600080600d016000838152602001908152602001600020600101600101549050919050565b600080600e0160008373ffffffffffffffffffffffffffffffffffffffff1673ffffffffffffffffffffffffffffffffffffffff168152602001908152602001600020600101549050919050565b60008060090160020160009054906101000a900473ffffffffffffffffffffffffffffffffffffffff16905090565b60008060030160000154905090565b61124e82826121c4565b5050565b60008060030160030154905090565b61126a8161222f565b50565b6112778282612279565b5050565b60008090509392505050565b61129081612339565b50565b61129b6115ea565b73ffffffffffffffffffffffffffffffffffffffff166340c10f1983836040518363ffffffff1660e01b81526004016112d5929190614fe5565b602060405180830381600087803b1580156112ef57600080fd5b505af1158015611303573d6000803e3d6000fd5b505050506040513d601f19601f820116820180604052506113279190810190614c0a565b505050565b60006012905090565b6113838383838080601f016020809104026020016040519081016040528093929190818152602001838380828437600081840152601f19601f82011690508083019250505050505050612363565b505050565b600080600e0160008373ffffffffffffffffffffffffffffffffffffffff1673ffffffffffffffffffffffffffffffffffffffff168152602001908152602001600020600301549050919050565b6000806000600e0160008473ffffffffffffffffffffffffffffffffffffffff1673ffffffffffffffffffffffffffffffffffffffff16815260200190815260200160002060000154119050919050565b611432838383612390565b505050565b600080600e0160008373ffffffffffffffffffffffffffffffffffffffff1673ffffffffffffffffffffffffffffffffffffffff16815260200190815260200160002060040160008473ffffffffffffffffffffffffffffffffffffffff1673ffffffffffffffffffffffffffffffffffffffff16815260200190815260200160002060009054906101000a900460ff16905092915050565b61151f848484848080601f016020809104026020016040519081016040528093929190818152602001838380828437600081840152601f19601f8201169050808301925050505050505061241c565b50505050565b61152d6124c4565b565b6000600f60010154905090565b611545816125cb565b5050565b60008060030160010154905090565b600080600d016000848152602001908152602001600020600101600201828154811061158057fe5b9060005260206000200154905092915050565b600061159d6147dc565b6115a561261c565b90506115af6147dc565b6115b761264b565b905081602001516115c661267b565b106115d9576115d482612685565b6115e3565b6115e281612685565b5b9250505090565b60008060090160000160009054906101000a900473ffffffffffffffffffffffffffffffffffffffff16905090565b600080600c0160008373ffffffffffffffffffffffffffffffffffffffff1673ffffffffffffffffffffffffffffffffffffffff168152602001908152602001600020600401549050919050565b6000807f360894a13ba1a3210667c828492db98dca3e2076cc3735a920a3ca505d382bbc60001b9050805491505090565b6116a1816126d8565b50565b6116ae8282612777565b5050565b6116bd8383836128ae565b505050565b600080600e0160008373ffffffffffffffffffffffffffffffffffffffff1673ffffffffffffffffffffffffffffffffffffffff168152602001908152602001600020600201549050919050565b600080600d016000838152602001908152602001600020600101600201805490509050919050565b611743838383612a10565b505050565b61175181612b4e565b50565b600080600c0160008373ffffffffffffffffffffffffffffffffffffffff1673ffffffffffffffffffffffffffffffffffffffff168152602001908152602001600020600101549050919050565b6117aa612b8e565b565b6117fa8383838080601f016020809104026020016040519081016040528093929190818152602001838380828437600081840152601f19601f82011690508083019250505050505050612bbc565b505050565b600060058211159050919050565b61185c848484848080601f016020809104026020016040519081016040528093929190818152602001838380828437600081840152601f19601f82011690508083019250505050505050612be9565b50505050565b60008060090160010160009054906101000a900473ffffffffffffffffffffffffffffffffffffffff16905090565b60008061189c611235565b905060008114156118b15760009150506118e9565b6118e5816118d76118c186611754565b6118c9611549565b612c9190919063ffffffff16565b612d0190919063ffffffff16565b9150505b919050565b6118f9838383612d4b565b505050565b600080600c0160008373ffffffffffffffffffffffffffffffffffffffff1673ffffffffffffffffffffffffffffffffffffffff168152602001908152602001600020600001549050919050565b61195581612df3565b50565b60008060000160020154905090565b60606040518060400160405280600481526020017f4553445300000000000000000000000000000000000000000000000000000000815250905090565b60006119ae611958565b6000600c0160008473ffffffffffffffffffffffffffffffffffffffff1673ffffffffffffffffffffffffffffffffffffffff168152602001908152602001600020600501541115611a035760029050611a64565b6000600c0160008373ffffffffffffffffffffffffffffffffffffffff1673ffffffffffffffffffffffffffffffffffffffff16815260200190815260200160002060040154611a51611958565b1015611a5e576001611a61565b60005b90505b919050565b60008060030160050154905090565b611ac68383838080601f016020809104026020016040519081016040528093929190818152602001838380828437600081840152601f19601f82011690508083019250505050505050612e1d565b505050565b600080600c0160008373ffffffffffffffffffffffffffffffffffffffff1673ffffffffffffffffffffffffffffffffffffffff168152602001908152602001600020600501549050919050565b611b2281612e4a565b50565b600080600c0160008473ffffffffffffffffffffffffffffffffffffffff1673ffffffffffffffffffffffffffffffffffffffff16815260200190815260200160002060030160008373ffffffffffffffffffffffffffffffffffffffff1673ffffffffffffffffffffffffffffffffffffffff16815260200190815260200160002054905092915050565b8160008001600001819055508060008001600101819055505050565b6000611bf2611bdb83611388565b611be4846116c2565b612eb790919063ffffffff16565b9050919050565b6000611c99611c06612044565b611c0e6115ea565b73ffffffffffffffffffffffffffffffffffffffff166318160ddd6040518163ffffffff1660e01b815260040160206040518083038186803b158015611c5357600080fd5b505afa158015611c67573d6000803e3d6000fd5b505050506040513d601f19601f82011682018060405250611c8b9190810190614cc1565b612f0c90919063ffffffff16565b905090565b611ca781612f56565b50565b600080905092915050565b611cbe81612fb7565b50565b611d1185858585858080601f016020809104026020016040519081016040528093929190818152602001838380828437600081840152601f19601f82011690508083019250505050505050613020565b5050505050565b611d67848484848080601f016020809104026020016040519081016040528093929190818152602001838380828437600081840152601f19601f82011690508083019250505050505050613108565b50505050565b611d77828261323f565b5050565b611d858282613371565b5050565b611d9c611d9782606461343d565b61346e565b5050565b611def848484848080601f016020809104026020016040519081016040528093929190818152602001838380828437600081840152601f19601f8201169050808301925050505050505061355d565b50505050565b6000601160000160010154905090565b600080611e1183611ee5565b1415611e205760009050611e7a565b6000600c0160008473ffffffffffffffffffffffffffffffffffffffff1673ffffffffffffffffffffffffffffffffffffffff16815260200190815260200160002060020160008381526020019081526020016000205490505b92915050565b611e8a828261362e565b5050565b611ede85858585858080601f016020809104026020016040519081016040528093929190818152602001838380828437600081840152601f19601f820116905080830192505050505050506136f7565b5050505050565b600080600d016000838152602001908152602001600020600101600001549050919050565b611f14828261383c565b5050565b60008060030160020154905090565b600080600e0160008373ffffffffffffffffffffffffffffffffffffffff1673ffffffffffffffffffffffffffffffffffffffff16815260200190815260200160002060050160009054906101000a900460ff169050919050565b611f8b816138e1565b50565b611f98828261390b565b5050565b600080905092915050565b8060138190555050565b6000601160000160000160009054906101000a900460ff16905090565b600080600e0160008373ffffffffffffffffffffffffffffffffffffffff1673ffffffffffffffffffffffffffffffffffffffff168152602001908152602001600020600001549050919050565b6120246139aa565b565b61203082826139d2565b5050565b61203f838383613a77565b505050565b60008060030160040154905090565b600080600d016000838152602001908152602001600020600001549050919050565b60008061208183613b5a565b905061208b613c1f565b80612097576000612099565b825b915050919050565b61213882826000600c0160008873ffffffffffffffffffffffffffffffffffffffff1673ffffffffffffffffffffffffffffffffffffffff16815260200190815260200160002060030160008773ffffffffffffffffffffffffffffffffffffffff1673ffffffffffffffffffffffffffffffffffffffff16815260200190815260200160002054613d379092919063ffffffff16565b6000600c0160008673ffffffffffffffffffffffffffffffffffffffff1673ffffffffffffffffffffffffffffffffffffffff16815260200190815260200160002060030160008573ffffffffffffffffffffffffffffffffffffffff1673ffffffffffffffffffffffffffffffffffffffff1681526020019081526020016000208190555050505050565b806000600d016000848152602001908152602001600020600101600101819055506000600d0160008281526020019081526020016000206001016002018290806001815401808255809150509060018203906000526020600020016000909192909190915055505050565b61226e816040518060400160405280601c81526020017f436f6d7074726f6c6c65723a206e6f7420656e6f756768206465627400000000815250612bbc565b612276613c1f565b50565b6122816115ea565b73ffffffffffffffffffffffffffffffffffffffff166340c10f1983836040518363ffffffff1660e01b81526004016122bb929190614fe5565b602060405180830381600087803b1580156122d557600080fd5b505af11580156122e9573d6000803e3d6000fd5b505050506040513d601f19601f8201168201806040525061230d9190810190614c0a565b5061231e612319611958565b6117ff565b61232d5761232b816125cb565b505b612335613c1f565b5050565b61235481600060030160010154612eb790919063ffffffff16565b60006003016001018190555050565b6123808282600060030160030154613d379092919063ffffffff16565b6000600301600301819055505050565b806000600c0160008573ffffffffffffffffffffffffffffffffffffffff1673ffffffffffffffffffffffffffffffffffffffff16815260200190815260200160002060030160008473ffffffffffffffffffffffffffffffffffffffff1673ffffffffffffffffffffffffffffffffffffffff16815260200190815260200160002081905550505050565b61247682826000600e0160008773ffffffffffffffffffffffffffffffffffffffff1673ffffffffffffffffffffffffffffffffffffffff16815260200190815260200160002060030154613d379092919063ffffffff16565b6000600e0160008573ffffffffffffffffffffffffffffffffffffffff1673ffffffffffffffffffffffffffffffffffffffff16815260200190815260200160002060030181905550505050565b6124cc6147fd565b6124d4613d92565b90506124f06124e1613e86565b82613eaa90919063ffffffff16565b156125345760018081111561250157fe5b612509611fb1565b600181111561251457fe5b1415612525576125246000612b4e565b5b61252e81613ec1565b506125c9565b61254e61253f613e86565b82613f8990919063ffffffff16565b15612593576000600181111561256057fe5b612568611fb1565b600181111561257357fe5b1415612584576125836001612b4e565b5b61258d81613f9f565b506125c9565b61259b611958565b7fff7db5a0dc69b02c191ba632db46961b7d0daa1bd30709ddba9b80ad0a15d2c060405160405180910390a2505b565b60006125d682612df3565b60006125e86125e361404a565b61346e565b90506125f2613c1f565b8281116126115761260c8184612f0c90919063ffffffff16565b612614565b60005b915050919050565b6126246147dc565b6040518060600160405280606a8152602001635f7fa8008152602001617080815250905090565b6126536147dc565b6040518060600160405280605b8152602001635f6be180815260200162015180815250905090565b6000601354905090565b60006126d182600001516126c384604001516126b586602001516126a761267b565b612f0c90919063ffffffff16565b612d0190919063ffffffff16565b612eb790919063ffffffff16565b9050919050565b6126e06115ea565b73ffffffffffffffffffffffffffffffffffffffff166342966c68826040518263ffffffff1660e01b81526004016127189190615112565b600060405180830381600087803b15801561273257600080fd5b505af1158015612746573d6000803e3d6000fd5b5050505061276c816040518060600160405280602a8152602001615464602a9139612363565b612774613c1f565b50565b61277f6115ea565b73ffffffffffffffffffffffffffffffffffffffff166323b872dd8330846040518463ffffffff1660e01b81526004016127bb93929190614fae565b602060405180830381600087803b1580156127d557600080fd5b505af11580156127e9573d6000803e3d6000fd5b505050506040513d601f19601f8201168201806040525061280d9190810190614c0a565b506128166115ea565b73ffffffffffffffffffffffffffffffffffffffff166342966c68826040518263ffffffff1660e01b815260040161284e9190615112565b600060405180830381600087803b15801561286857600080fd5b505af115801561287c573d6000803e3d6000fd5b505050506128a28160405180606001604052806028815260200161543c60289139612bbc565b6128aa613c1f565b5050565b6128b66115ea565b73ffffffffffffffffffffffffffffffffffffffff166340c10f1984846040518363ffffffff1660e01b81526004016128f0929190614fe5565b602060405180830381600087803b15801561290a57600080fd5b505af115801561291e573d6000803e3d6000fd5b505050506040513d601f19601f820116820180604052506129429190810190614c0a565b5060008114612a03576129536115ea565b73ffffffffffffffffffffffffffffffffffffffff1663a9059cbb84836040518363ffffffff1660e01b815260040161298d929190614fe5565b602060405180830381600087803b1580156129a757600080fd5b505af11580156129bb573d6000803e3d6000fd5b505050506040513d601f19601f820116820180604052506129df9190810190614c0a565b50612a02816040518060600160405280602a8152602001615464602a9139612363565b5b612a0b613c1f565b505050565b612a79816000600c0160008673ffffffffffffffffffffffffffffffffffffffff1673ffffffffffffffffffffffffffffffffffffffff168152602001908152602001600020600201600085815260200190815260200160002054612eb790919063ffffffff16565b6000600c0160008573ffffffffffffffffffffffffffffffffffffffff1673ffffffffffffffffffffffffffffffffffffffff168152602001908152602001600020600201600084815260200190815260200160002081905550612b02816000600d01600085815260200190815260200160002060010160000154612eb790919063ffffffff16565b6000600d01600084815260200190815260200160002060010160000181905550612b3d81600060030160050154612eb790919063ffffffff16565b600060030160050181905550505050565b80601160000160000160006101000a81548160ff02191690836001811115612b7257fe5b0217905550612b7f611958565b60116000016001018190555050565b612b96611235565b6000600d016000612ba5611958565b815260200190815260200160002060000181905550565b612bd98282600060030160040154613d379092919063ffffffff16565b6000600301600401819055505050565b612c4382826000600e0160008773ffffffffffffffffffffffffffffffffffffffff1673ffffffffffffffffffffffffffffffffffffffff16815260200190815260200160002060020154613d379092919063ffffffff16565b6000600e0160008573ffffffffffffffffffffffffffffffffffffffff1673ffffffffffffffffffffffffffffffffffffffff16815260200190815260200160002060020181905550505050565b600080831415612ca45760009050612cfb565b6000828402905082848281612cb557fe5b0414612cf6576040517f08c379a0000000000000000000000000000000000000000000000000000000008152600401612ced906150f2565b60405180910390fd5b809150505b92915050565b6000612d4383836040518060400160405280601a81526020017f536166654d6174683a206469766973696f6e206279207a65726f00000000000081525061406e565b905092915050565b806000600e0160008473ffffffffffffffffffffffffffffffffffffffff1673ffffffffffffffffffffffffffffffffffffffff16815260200190815260200160002060040160008573ffffffffffffffffffffffffffffffffffffffff1673ffffffffffffffffffffffffffffffffffffffff16815260200190815260200160002060006101000a81548160ff02191690836002811115612de957fe5b0217905550505050565b612e0e81600060030160040154612eb790919063ffffffff16565b60006003016004018190555050565b612e3a8282600060030160010154613d379092919063ffffffff16565b6000600301600101819055505050565b612e6b612e556140cf565b612e5d611958565b612eb790919063ffffffff16565b6000600c0160008373ffffffffffffffffffffffffffffffffffffffff1673ffffffffffffffffffffffffffffffffffffffff1681526020019081526020016000206004018190555050565b600080828401905083811015612f02576040517f08c379a0000000000000000000000000000000000000000000000000000000008152600401612ef9906150d2565b60405180910390fd5b8091505092915050565b6000612f4e83836040518060400160405280601e81526020017f536166654d6174683a207375627472616374696f6e206f766572666c6f770000815250613d37565b905092915050565b60016000600e0160008373ffffffffffffffffffffffffffffffffffffffff1673ffffffffffffffffffffffffffffffffffffffff16815260200190815260200160002060050160006101000a81548160ff02191690831515021790555050565b6000612fc282611ee5565b90506000811415612fd3575061301d565b612fee81600060030160050154612f0c90919063ffffffff16565b600060030160050181905550600080600d01600084815260200190815260200160002060010160000181905550505b50565b6130888282600f60000160008873ffffffffffffffffffffffffffffffffffffffff1673ffffffffffffffffffffffffffffffffffffffff168152602001908152602001600020600087815260200190815260200160002054613d379092919063ffffffff16565b600f60000160008673ffffffffffffffffffffffffffffffffffffffff1673ffffffffffffffffffffffffffffffffffffffff1681526020019081526020016000206000858152602001908152602001600020819055506130f98282600f60010154613d379092919063ffffffff16565b600f6001018190555050505050565b61316282826000600c0160008773ffffffffffffffffffffffffffffffffffffffff1673ffffffffffffffffffffffffffffffffffffffff16815260200190815260200160002060010154613d379092919063ffffffff16565b6000600c0160008573ffffffffffffffffffffffffffffffffffffffff1673ffffffffffffffffffffffffffffffffffffffff168152602001908152602001600020600101819055506131c88282600060030160000154613d379092919063ffffffff16565b600060030160000181905550600073ffffffffffffffffffffffffffffffffffffffff168373ffffffffffffffffffffffffffffffffffffffff167fddf252ad1be2c89b69c2b068fc378daa952ba7f163c4a11628f55a4df523b3ef846040516132329190615112565b60405180910390a3505050565b613297816000600c0160008573ffffffffffffffffffffffffffffffffffffffff1673ffffffffffffffffffffffffffffffffffffffff16815260200190815260200160002060010154612eb790919063ffffffff16565b6000600c0160008473ffffffffffffffffffffffffffffffffffffffff1673ffffffffffffffffffffffffffffffffffffffff168152602001908152602001600020600101819055506132fb81600060030160000154612eb790919063ffffffff16565b6000600301600001819055508173ffffffffffffffffffffffffffffffffffffffff16600073ffffffffffffffffffffffffffffffffffffffff167fddf252ad1be2c89b69c2b068fc378daa952ba7f163c4a11628f55a4df523b3ef836040516133659190615112565b60405180910390a35050565b6133c9816000600c0160008573ffffffffffffffffffffffffffffffffffffffff1673ffffffffffffffffffffffffffffffffffffffff16815260200190815260200160002060000154612eb790919063ffffffff16565b6000600c0160008473ffffffffffffffffffffffffffffffffffffffff1673ffffffffffffffffffffffffffffffffffffffff1681526020019081526020016000206000018190555061342d81600060030160020154612eb790919063ffffffff16565b6000600301600201819055505050565b6134456147fd565b604051806020016040528061346385670de0b6b3a7640000866140d8565b815250905092915050565b60008061351061350b61347f6115ea565b73ffffffffffffffffffffffffffffffffffffffff166318160ddd6040518163ffffffff1660e01b815260040160206040518083038186803b1580156134c457600080fd5b505afa1580156134d8573d6000803e3d6000fd5b505050506040513d601f19601f820116820180604052506134fc9190810190614cc1565b8561410890919063ffffffff16565b61413d565b9050600061351c612044565b90508181111561355157600061353b8383612f0c90919063ffffffff16565b90506135468161222f565b809350505050613558565b6000925050505b919050565b6135b782826000600c0160008773ffffffffffffffffffffffffffffffffffffffff1673ffffffffffffffffffffffffffffffffffffffff16815260200190815260200160002060000154613d379092919063ffffffff16565b6000600c0160008573ffffffffffffffffffffffffffffffffffffffff1673ffffffffffffffffffffffffffffffffffffffff1681526020019081526020016000206000018190555061361d8282600060030160020154613d379092919063ffffffff16565b600060030160020181905550505050565b600080600c0160008473ffffffffffffffffffffffffffffffffffffffff1673ffffffffffffffffffffffffffffffffffffffff168152602001908152602001600020600501549050600061369c613685846111b8565b61368e85611fce565b612eb790919063ffffffff16565b9050818111156136f157806000600c0160008673ffffffffffffffffffffffffffffffffffffffff1673ffffffffffffffffffffffffffffffffffffffff168152602001908152602001600020600501819055505b50505050565b61376282826000600c0160008873ffffffffffffffffffffffffffffffffffffffff1673ffffffffffffffffffffffffffffffffffffffff168152602001908152602001600020600201600087815260200190815260200160002054613d379092919063ffffffff16565b6000600c0160008673ffffffffffffffffffffffffffffffffffffffff1673ffffffffffffffffffffffffffffffffffffffff1681526020019081526020016000206002016000858152602001908152602001600020819055506137ed82826000600d01600087815260200190815260200160002060010160000154613d379092919063ffffffff16565b6000600d0160008581526020019081526020016000206001016000018190555061382a8282600060030160050154613d379092919063ffffffff16565b60006003016005018190555050505050565b613894816000600e0160008573ffffffffffffffffffffffffffffffffffffffff1673ffffffffffffffffffffffffffffffffffffffff16815260200190815260200160002060030154612eb790919063ffffffff16565b6000600e0160008473ffffffffffffffffffffffffffffffffffffffff1673ffffffffffffffffffffffffffffffffffffffff168152602001908152602001600020600301819055505050565b6138fc81600060030160030154612eb790919063ffffffff16565b60006003016003018190555050565b613913611958565b6000600e0160008473ffffffffffffffffffffffffffffffffffffffff1673ffffffffffffffffffffffffffffffffffffffff16815260200190815260200160002060000181905550806000600e0160008473ffffffffffffffffffffffffffffffffffffffff1673ffffffffffffffffffffffffffffffffffffffff168152602001908152602001600020600101819055505050565b6139c560016000800160020154612eb790919063ffffffff16565b6000800160020181905550565b613a2a816000600e0160008573ffffffffffffffffffffffffffffffffffffffff1673ffffffffffffffffffffffffffffffffffffffff16815260200190815260200160002060020154612eb790919063ffffffff16565b6000600e0160008473ffffffffffffffffffffffffffffffffffffffff1673ffffffffffffffffffffffffffffffffffffffff168152602001908152602001600020600201819055505050565b613add81600f60000160008673ffffffffffffffffffffffffffffffffffffffff1673ffffffffffffffffffffffffffffffffffffffff168152602001908152602001600020600085815260200190815260200160002054612eb790919063ffffffff16565b600f60000160008573ffffffffffffffffffffffffffffffffffffffff1673ffffffffffffffffffffffffffffffffffffffff168152602001908152602001600020600084815260200190815260200160002081905550613b4c81600f60010154612eb790919063ffffffff16565b600f60010181905550505050565b600080613b65611549565b14159050600082118015613b765750805b15613c1a57613b836115ea565b73ffffffffffffffffffffffffffffffffffffffff166340c10f1930846040518363ffffffff1660e01b8152600401613bbd929190614fe5565b602060405180830381600087803b158015613bd757600080fd5b505af1158015613beb573d6000803e3d6000fd5b505050506040513d601f19601f82011682018060405250613c0f9190810190614c0a565b50613c1982612339565b5b919050565b613d35613c5c613c2d611252565b613c4e613c38611f18565b613c40611549565b612eb790919063ffffffff16565b612eb790919063ffffffff16565b613c646115ea565b73ffffffffffffffffffffffffffffffffffffffff166370a08231306040518263ffffffff1660e01b8152600401613c9c9190614f93565b60206040518083038186803b158015613cb457600080fd5b505afa158015613cc8573d6000803e3d6000fd5b505050506040513d601f19601f82011682018060405250613cec9190810190614cc1565b10157f436f6d7074726f6c6c65720000000000000000000000000000000000000000007f496e636f6e73697374656e742062616c616e6365730000000000000000000000614165565b565b6000838311158290613d7f576040517f08c379a0000000000000000000000000000000000000000000000000000000008152600401613d7691906150b0565b60405180910390fd5b5060008385039050809150509392505050565b613d9a6147fd565b613da26147fd565b6000613dac611862565b73ffffffffffffffffffffffffffffffffffffffff1663d4a3e9d76040518163ffffffff1660e01b81526004016040805180830381600087803b158015613df257600080fd5b505af1158015613e06573d6000803e3d6000fd5b505050506040513d601f19601f82011682018060405250613e2a9190810190614c5c565b91509150613e51613e4c6001613e3e611958565b612f0c90919063ffffffff16565b6117ff565b15613e6757613e5e6141e4565b92505050613e83565b80613e7d57613e74613e86565b92505050613e83565b81925050505b90565b613e8e6147fd565b6040518060200160405280670de0b6b3a7640000815250905090565b60006002613eb88484614208565b14905092915050565b6000613ed3613ece614248565b61346e565b9050613edd6147fd565b613f00613efa613eeb613e86565b8561426590919063ffffffff16565b8461429e565b90506000613f26613f21613f12611bf9565b8461410890919063ffffffff16565b61413d565b9050600080613f348361432f565b91509150613f40611958565b7f32fcaa1e76ed9517f4749d8ec9a77dd5e7329456d740b9bf9665d900eef5e2838760000151848885604051613f799493929190615156565b60405180910390a2505050505050565b600080613f968484614208565b14905092915050565b613fa76147fd565b613fca613fc483613fb6613e86565b61426590919063ffffffff16565b8361429e565b90506000613ff0613feb613fdc611bf9565b8461410890919063ffffffff16565b61413d565b90506000613ffd826125cb565b9050614007611958565b7f5e139d4b8080a4a00dcc151e8217694aeebae893936326aa22096924a990667785600001518360405161403c92919061512d565b60405180910390a250505050565b6140526147fd565b60405180602001604052806702c68af0bb140000815250905090565b600080831182906140b5576040517f08c379a00000000000000000000000000000000000000000000000000000000081526004016140ac91906150b0565b60405180910390fd5b5060008385816140c157fe5b049050809150509392505050565b6000600f905090565b60006140ff826140f18587612c9190919063ffffffff16565b612d0190919063ffffffff16565b90509392505050565b6141106147fd565b6040518060200160405280614132848660000151612c9190919063ffffffff16565b815250905092915050565b600061415e670de0b6b3a76400008360000151612d0190919063ffffffff16565b9050919050565b826141df5761417382614492565b613a2060f01b61418283614492565b60405160200161419493929190614f5e565b6040516020818303038152906040526040517f08c379a00000000000000000000000000000000000000000000000000000000081526004016141d691906150b0565b60405180910390fd5b505050565b6141ec6147fd565b6040518060200160405280670f43fc2c04ee0000815250905090565b60008160000151836000015114156142235760019050614242565b816000015183600001511161423957600061423c565b60025b60ff1690505b92915050565b6142506147fd565b60405180602001604052806000815250905090565b61426d6147fd565b604051806020016040528061429384600001518660000151612f0c90919063ffffffff16565b815250905092915050565b6142a66147fd565b6142ae6147fd565b6142b661456d565b905060006142c2611252565b905060006142ce611a69565b90506142ea6142db613e86565b86613eaa90919063ffffffff16565b80156142f557508082105b1561430557614302614590565b92505b6143188387613eaa90919063ffffffff16565b6143225785614324565b825b935050505092915050565b600080600061436160646143536143446145b3565b87612c9190919063ffffffff16565b612d0190919063ffffffff16565b905061436c816145bc565b600061439c61271061438e61437f614665565b88612c9190919063ffffffff16565b612d0190919063ffffffff16565b90506143a78161466e565b60006143bc8284612eb790919063ffffffff16565b90508086116143cc5760006143e0565b6143df8187612f0c90919063ffffffff16565b5b9550600080905060006143f1611252565b905060006143fd611a69565b90508082101561444c5761441a8282612f0c90919063ffffffff16565b9250888311614429578261442b565b885b925061443683614717565b614449838a612f0c90919063ffffffff16565b98505b60006144578a613b5a565b9050614461613c1f565b836144828683614472576000614474565b8c5b612eb790919063ffffffff16565b9850985050505050505050915091565b606080826040516020016144a69190614f43565b60405160208183030381529060405290506000602090505b600081111561452e57808060019003915050600060f81b8282815181106144e157fe5b602001015160f81c60f81b7effffffffffffffffffffffffffffffffffffffffffffffffffffffffffffff191614614529576000600182019050808352829350505050614568565b6144be565b5060006040519080825280601f01601f1916602001820160405280156145635781602001600182028038833980820191505090505b509150505b919050565b6145756147fd565b6040518060200160405280666a94d74f430000815250905090565b6145986147fd565b604051806020016040528066d529ae9e860000815250905090565b60006014905090565b6000811115614662576145cd6115ea565b73ffffffffffffffffffffffffffffffffffffffff166340c10f196145f0611206565b836040518363ffffffff1660e01b815260040161460e929190614fe5565b602060405180830381600087803b15801561462857600080fd5b505af115801561463c573d6000803e3d6000fd5b505050506040513d601f19601f820116820180604052506146609190810190614c0a565b505b50565b600060fa905090565b60008111156147145761467f6115ea565b73ffffffffffffffffffffffffffffffffffffffff166340c10f196146a26147c0565b836040518363ffffffff1660e01b81526004016146c0929190614fe5565b602060405180830381600087803b1580156146da57600080fd5b505af11580156146ee573d6000803e3d6000fd5b505050506040513d601f19601f820116820180604052506147129190810190614c0a565b505b50565b61471f6115ea565b73ffffffffffffffffffffffffffffffffffffffff166340c10f1930836040518363ffffffff1660e01b8152600401614759929190614fe5565b602060405180830381600087803b15801561477357600080fd5b505af1158015614787573d6000803e3d6000fd5b505050506040513d601f19601f820116820180604052506147ab9190810190614c0a565b506147b5816138e1565b6147bd613c1f565b50565b600073460661bd4a5364a3abcc9cfc4a8ce7038d05ea22905090565b60405180606001604052806000815260200160008152602001600081525090565b6040518060200160405280600081525090565b60008135905061481f816153d6565b92915050565b600081519050614834816153ed565b92915050565b60008135905061484981615404565b92915050565b60008135905061485e81615414565b92915050565b60008083601f84011261487657600080fd5b8235905067ffffffffffffffff81111561488f57600080fd5b6020830191508360018202830111156148a757600080fd5b9250929050565b6000602082840312156148c057600080fd5b6148ca60206151b6565b905060006148da848285016148fb565b60008301525092915050565b6000813590506148f581615424565b92915050565b60008151905061490a81615424565b92915050565b60006020828403121561492257600080fd5b600061493084828501614810565b91505092915050565b6000806040838503121561494c57600080fd5b600061495a85828601614810565b925050602061496b85828601614810565b9150509250929050565b60008060006060848603121561498a57600080fd5b600061499886828701614810565b93505060206149a986828701614810565b92505060406149ba8682870161484f565b9150509250925092565b6000806000606084860312156149d957600080fd5b60006149e786828701614810565b93505060206149f886828701614810565b9250506040614a09868287016148e6565b9150509250925092565b600080600080600060808688031215614a2b57600080fd5b6000614a3988828901614810565b9550506020614a4a88828901614810565b9450506040614a5b888289016148e6565b935050606086013567ffffffffffffffff811115614a7857600080fd5b614a8488828901614864565b92509250509295509295909350565b60008060408385031215614aa657600080fd5b6000614ab485828601614810565b9250506020614ac5858286016148e6565b9150509250929050565b60008060008060608587031215614ae557600080fd5b6000614af387828801614810565b9450506020614b04878288016148e6565b935050604085013567ffffffffffffffff811115614b2157600080fd5b614b2d87828801614864565b925092505092959194509250565b600080600060608486031215614b5057600080fd5b6000614b5e86828701614810565b9350506020614b6f868287016148e6565b9250506040614b80868287016148e6565b9150509250925092565b600080600080600060808688031215614ba257600080fd5b6000614bb088828901614810565b9550506020614bc1888289016148e6565b9450506040614bd2888289016148e6565b935050606086013567ffffffffffffffff811115614bef57600080fd5b614bfb88828901614864565b92509250509295509295909350565b600060208284031215614c1c57600080fd5b6000614c2a84828501614825565b91505092915050565b600060208284031215614c4557600080fd5b6000614c538482850161483a565b91505092915050565b60008060408385031215614c6f57600080fd5b6000614c7d858286016148ae565b9250506020614c8e85828601614825565b9150509250929050565b600060208284031215614caa57600080fd5b6000614cb8848285016148e6565b91505092915050565b600060208284031215614cd357600080fd5b6000614ce1848285016148fb565b91505092915050565b600080600060408486031215614cff57600080fd5b6000614d0d868287016148e6565b935050602084013567ffffffffffffffff811115614d2a57600080fd5b614d3686828701614864565b92509250509250925092565b60008060408385031215614d5557600080fd5b6000614d63858286016148e6565b9250506020614d74858286016148e6565b9150509250929050565b614d8781615215565b82525050565b614d9681615227565b82525050565b614dad614da882615233565b61538a565b82525050565b614dc4614dbf8261525f565b615394565b82525050565b6000614dd5826151e3565b614ddf81856151f9565b9350614def818560208601615357565b80840191505092915050565b614e04816152d9565b82525050565b614e13816152fd565b82525050565b614e2281615321565b82525050565b614e3181615333565b82525050565b614e4081615345565b82525050565b6000614e51826151ee565b614e5b8185615204565b9350614e6b818560208601615357565b614e748161539e565b840191505092915050565b6000614e8c601b83615204565b91507f536166654d6174683a206164646974696f6e206f766572666c6f7700000000006000830152602082019050919050565b6000614ecc602183615204565b91507f536166654d6174683a206d756c7469706c69636174696f6e206f766572666c6f60008301527f77000000000000000000000000000000000000000000000000000000000000006020830152604082019050919050565b614f2e816152c2565b82525050565b614f3d816152cc565b82525050565b6000614f4f8284614db3565b60208201915081905092915050565b6000614f6a8286614dca565b9150614f768285614d9c565b600282019150614f868284614dca565b9150819050949350505050565b6000602082019050614fa86000830184614d7e565b92915050565b6000606082019050614fc36000830186614d7e565b614fd06020830185614d7e565b614fdd6040830184614f25565b949350505050565b6000604082019050614ffa6000830185614d7e565b6150076020830184614f25565b9392505050565b60006020820190506150236000830184614d8d565b92915050565b600060208201905061503e6000830184614dfb565b92915050565b60006020820190506150596000830184614e0a565b92915050565b60006020820190506150746000830184614e19565b92915050565b600060208201905061508f6000830184614e28565b92915050565b60006020820190506150aa6000830184614e37565b92915050565b600060208201905081810360008301526150ca8184614e46565b905092915050565b600060208201905081810360008301526150eb81614e7f565b9050919050565b6000602082019050818103600083015261510b81614ebf565b9050919050565b60006020820190506151276000830184614f25565b92915050565b60006040820190506151426000830185614f25565b61514f6020830184614f25565b9392505050565b600060808201905061516b6000830187614f25565b6151786020830186614f25565b6151856040830185614f25565b6151926060830184614f25565b95945050505050565b60006020820190506151b06000830184614f34565b92915050565b6000604051905081810181811067ffffffffffffffff821117156151d957600080fd5b8060405250919050565b600081519050919050565b600081519050919050565b600081905092915050565b600082825260208201905092915050565b6000615220826152a2565b9050919050565b60008115159050919050565b60007fffff00000000000000000000000000000000000000000000000000000000000082169050919050565b6000819050919050565b6000819050615277826153af565b919050565b600081905061528a826153bc565b919050565b600081905061529d826153c9565b919050565b600073ffffffffffffffffffffffffffffffffffffffff82169050919050565b6000819050919050565b600060ff82169050919050565b60006152e4826152eb565b9050919050565b60006152f6826152a2565b9050919050565b60006153088261530f565b9050919050565b600061531a826152a2565b9050919050565b600061532c82615269565b9050919050565b600061533e8261527c565b9050919050565b60006153508261528f565b9050919050565b60005b8381101561537557808201518184015260208101905061535a565b83811115615384576000848401525b50505050565b6000819050919050565b6000819050919050565b6000601f19601f8301169050919050565b600381106153b957fe5b50565b600281106153c657fe5b50565b600381106153d357fe5b50565b6153df81615215565b81146153ea57600080fd5b50565b6153f681615227565b811461540157600080fd5b50565b6002811061541157600080fd5b50565b6003811061542157600080fd5b50565b61542d816152c2565b811461543857600080fd5b5056fe436f6d7074726f6c6c65723a206e6f7420656e6f756768206f75747374616e64696e672064656274436f6d7074726f6c6c65723a206e6f7420656e6f7567682072656465656d61626c652062616c616e6365a365627a7a72315820f698f93342e21e1e683a436a55b2490c9fbcaf0e217765b0755c677c7b8c63256c6578706572696d656e74616cf564736f6c6343000511004060806040523480156200001157600080fd5b506040518060400160405280601081526020017f456d7074792053657420446f6c6c6172000000000000000000000000000000008152506040518060400160405280600381526020017f45534400000000000000000000000000000000000000000000000000000000008152506012620000a0620000946200016d60201b60201c565b6200017560201b60201c565b8260019080519060200190620000b89291906200046d565b508160029080519060200190620000d19291906200046d565b5080600360006101000a81548160ff021916908360ff1602179055505050506200016162000104620001d660201b60201c565b6040518060400160405280600181526020017f31000000000000000000000000000000000000000000000000000000000000008152506200014f6200027c60201b6200252b1760201c565b306200028560201b620025341760201c565b6007819055506200061b565b600033905090565b62000190816000620002ef60201b620017ce1790919060201c565b8073ffffffffffffffffffffffffffffffffffffffff167f6ae172837ea30b801fbfcdd4108aa1d5bf8ff775444fd70256b44e6bf3dfc3f660405160405180910390a250565b606060018054600181600116156101000203166002900480601f016020809104026020016040519081016040528092919081815260200182805460018160011615610100020316600290048015620002725780601f10620002465761010080835404028352916020019162000272565b820191906000526020600020905b8154815290600101906020018083116200025457829003601f168201915b5050505050905090565b60006001905090565b6000807f8b73c3c69bb8fe3d512ecc4cf759cc79239f7b179b0ffacaa9a75d522b39400f60001b9050855160208701208551602087012060405183815282602082015281604082015286606082015285608082015260a08120945050505081915050949350505050565b620003018282620003a260201b60201c565b1562000344576040517f08c379a00000000000000000000000000000000000000000000000000000000081526004016200033b90620005c6565b60405180910390fd5b60018260000160008373ffffffffffffffffffffffffffffffffffffffff1673ffffffffffffffffffffffffffffffffffffffff16815260200190815260200160002060006101000a81548160ff0219169083151502179055505050565b60008073ffffffffffffffffffffffffffffffffffffffff168273ffffffffffffffffffffffffffffffffffffffff16141562000416576040517f08c379a00000000000000000000000000000000000000000000000000000000081526004016200040d90620005e8565b60405180910390fd5b8260000160008373ffffffffffffffffffffffffffffffffffffffff1673ffffffffffffffffffffffffffffffffffffffff16815260200190815260200160002060009054906101000a900460ff16905092915050565b828054600181600116156101000203166002900490600052602060002090601f016020900481019282601f10620004b057805160ff1916838001178555620004e1565b82800160010185558215620004e1579182015b82811115620004e0578251825591602001919060010190620004c3565b5b509050620004f09190620004f4565b5090565b6200051991905b8082111562000515576000816000905550600101620004fb565b5090565b90565b60006200052b601f836200060a565b91507f526f6c65733a206163636f756e7420616c72656164792068617320726f6c65006000830152602082019050919050565b60006200056d6022836200060a565b91507f526f6c65733a206163636f756e7420697320746865207a65726f20616464726560008301527f73730000000000000000000000000000000000000000000000000000000000006020830152604082019050919050565b60006020820190508181036000830152620005e1816200051c565b9050919050565b6000602082019050818103600083015262000603816200055e565b9050919050565b600082825260208201905092915050565b61269b806200062b6000396000f3fe608060405234801561001057600080fd5b506004361061012c5760003560e01c806395d89b41116100ad578063aa271e1a11610071578063aa271e1a14610357578063d505accf14610387578063dab400f3146103a3578063dd62ed3e146103c1578063e879c19f146103f15761012c565b806395d89b41146102b3578063983b2d56146102d157806398650275146102ed578063a457c2d7146102f7578063a9059cbb146103275761012c565b806339509351116100f457806339509351146101eb57806340c10f191461021b57806342966c681461024b57806370a082311461026757806379cc6790146102975761012c565b806306fdde0314610131578063095ea7b31461014f57806318160ddd1461017f57806323b872dd1461019d578063313ce567146101cd575b600080fd5b61013961040f565b6040516101469190612202565b60405180910390f35b61016960048036036101649190810190611b9e565b6104b1565b6040516101769190612126565b60405180910390f35b6101876104cf565b6040516101949190612384565b60405180910390f35b6101b760048036036101b29190810190611ab1565b6104d9565b6040516101c49190612126565b60405180910390f35b6101d5610577565b6040516101e2919061239f565b60405180910390f35b61020560048036036102009190810190611b9e565b61058e565b6040516102129190612126565b60405180910390f35b61023560048036036102309190810190611b9e565b610641565b6040516102429190612126565b60405180910390f35b61026560048036036102609190810190611bda565b6106a6565b005b610281600480360361027c9190810190611a4c565b6106ba565b60405161028e9190612384565b60405180910390f35b6102b160048036036102ac9190810190611b9e565b610703565b005b6102bb610711565b6040516102c89190612202565b60405180910390f35b6102eb60048036036102e69190810190611a4c565b6107b3565b005b6102f561080e565b005b610311600480360361030c9190810190611b9e565b610820565b60405161031e9190612126565b60405180910390f35b610341600480360361033c9190810190611b9e565b6108ed565b60405161034e9190612126565b60405180910390f35b610371600480360361036c9190810190611a4c565b61090b565b60405161037e9190612126565b60405180910390f35b6103a1600480360361039c9190810190611b00565b610928565b005b6103ab610b83565b6040516103b89190612141565b60405180910390f35b6103db60048036036103d69190810190611a75565b610b89565b6040516103e89190612384565b60405180910390f35b6103f9610c10565b6040516104069190612141565b60405180910390f35b606060018054600181600116156101000203166002900480601f0160208091040260200160405190810160405280929190818152602001828054600181600116156101000203166002900480156104a75780601f1061047c576101008083540402835291602001916104a7565b820191906000526020600020905b81548152906001019060200180831161048a57829003601f168201915b5050505050905090565b60006104c56104be610c37565b8484610c3f565b6001905092915050565b6000600654905090565b60006104e6848484610e0a565b7fffffffffffffffffffffffffffffffffffffffffffffffffffffffffffffffff61051885610513610c37565b610b89565b1461056c5761056b84610529610c37565b6105668560405180606001604052806029815260200161260b602991396105578a610552610c37565b610b89565b6110989092919063ffffffff16565b610c3f565b5b600190509392505050565b6000600360009054906101000a900460ff16905090565b600061063761059b610c37565b8461063285600560006105ac610c37565b73ffffffffffffffffffffffffffffffffffffffff1673ffffffffffffffffffffffffffffffffffffffff16815260200190815260200160002060008973ffffffffffffffffffffffffffffffffffffffff1673ffffffffffffffffffffffffffffffffffffffff168152602001908152602001600020546110f390919063ffffffff16565b610c3f565b6001905092915050565b600061065361064e610c37565b61090b565b610692576040517f08c379a0000000000000000000000000000000000000000000000000000000008152600401610689906122a4565b60405180910390fd5b61069c8383611148565b6001905092915050565b6106b76106b1610c37565b826112d2565b50565b6000600460008373ffffffffffffffffffffffffffffffffffffffff1673ffffffffffffffffffffffffffffffffffffffff168152602001908152602001600020549050919050565b61070d8282611476565b5050565b606060028054600181600116156101000203166002900480601f0160208091040260200160405190810160405280929190818152602001828054600181600116156101000203166002900480156107a95780601f1061077e576101008083540402835291602001916107a9565b820191906000526020600020905b81548152906001019060200180831161078c57829003601f168201915b5050505050905090565b6107c36107be610c37565b61090b565b610802576040517f08c379a00000000000000000000000000000000000000000000000000000000081526004016107f9906122a4565b60405180910390fd5b61080b81611545565b50565b61081e610819610c37565b61159f565b565b60006108e361082d610c37565b846108de856040518060600160405280602581526020016126346025913960056000610857610c37565b73ffffffffffffffffffffffffffffffffffffffff1673ffffffffffffffffffffffffffffffffffffffff16815260200190815260200160002060008a73ffffffffffffffffffffffffffffffffffffffff1673ffffffffffffffffffffffffffffffffffffffff168152602001908152602001600020546110989092919063ffffffff16565b610c3f565b6001905092915050565b60006109016108fa610c37565b8484610e0a565b6001905092915050565b60006109218260006115f990919063ffffffff16565b9050919050565b60006109d66007547f6e71edae12b1b97f4d1f60370fef10105fa2faae0126114a169c64845d6126c960001b8a8a8a600860008f73ffffffffffffffffffffffffffffffffffffffff1673ffffffffffffffffffffffffffffffffffffffff1681526020019081526020016000206000815480929190600101919050558b6040516020016109bb9695949392919061215c565b604051602081830303815290604052805190602001206116c1565b90506000600182868686604051600081526020016040526040516109fd94939291906121bd565b6020604051602081039080840390855afa158015610a1f573d6000803e3d6000fd5b505050602060405103519050610aa48973ffffffffffffffffffffffffffffffffffffffff168273ffffffffffffffffffffffffffffffffffffffff16147f5065726d69747461626c650000000000000000000000000000000000000000007f496e76616c6964207369676e6174757265000000000000000000000000000000611705565b610b1f600073ffffffffffffffffffffffffffffffffffffffff168273ffffffffffffffffffffffffffffffffffffffff1614157f5065726d69747461626c650000000000000000000000000000000000000000007f5a65726f20616464726573730000000000000000000000000000000000000000611705565b610b6d864211157f5065726d69747461626c650000000000000000000000000000000000000000007f4578706972656400000000000000000000000000000000000000000000000000611705565b610b78898989610c3f565b505050505050505050565b60075481565b6000600560008473ffffffffffffffffffffffffffffffffffffffff1673ffffffffffffffffffffffffffffffffffffffff16815260200190815260200160002060008373ffffffffffffffffffffffffffffffffffffffff1673ffffffffffffffffffffffffffffffffffffffff16815260200190815260200160002054905092915050565b7f6e71edae12b1b97f4d1f60370fef10105fa2faae0126114a169c64845d6126c960001b81565b600033905090565b600073ffffffffffffffffffffffffffffffffffffffff168373ffffffffffffffffffffffffffffffffffffffff161415610caf576040517f08c379a0000000000000000000000000000000000000000000000000000000008152600401610ca690612344565b60405180910390fd5b600073ffffffffffffffffffffffffffffffffffffffff168273ffffffffffffffffffffffffffffffffffffffff161415610d1f576040517f08c379a0000000000000000000000000000000000000000000000000000000008152600401610d1690612264565b60405180910390fd5b80600560008573ffffffffffffffffffffffffffffffffffffffff1673ffffffffffffffffffffffffffffffffffffffff16815260200190815260200160002060008473ffffffffffffffffffffffffffffffffffffffff1673ffffffffffffffffffffffffffffffffffffffff168152602001908152602001600020819055508173ffffffffffffffffffffffffffffffffffffffff168373ffffffffffffffffffffffffffffffffffffffff167f8c5be1e5ebec7d5bd14f71427d1e84f3dd0314c0f7b2291e5b200ac8c7c3b92583604051610dfd9190612384565b60405180910390a3505050565b600073ffffffffffffffffffffffffffffffffffffffff168373ffffffffffffffffffffffffffffffffffffffff161415610e7a576040517f08c379a0000000000000000000000000000000000000000000000000000000008152600401610e7190612324565b60405180910390fd5b600073ffffffffffffffffffffffffffffffffffffffff168273ffffffffffffffffffffffffffffffffffffffff161415610eea576040517f08c379a0000000000000000000000000000000000000000000000000000000008152600401610ee190612224565b60405180910390fd5b610f56816040518060600160405280602681526020016125c160269139600460008773ffffffffffffffffffffffffffffffffffffffff1673ffffffffffffffffffffffffffffffffffffffff168152602001908152602001600020546110989092919063ffffffff16565b600460008573ffffffffffffffffffffffffffffffffffffffff1673ffffffffffffffffffffffffffffffffffffffff16815260200190815260200160002081905550610feb81600460008573ffffffffffffffffffffffffffffffffffffffff1673ffffffffffffffffffffffffffffffffffffffff168152602001908152602001600020546110f390919063ffffffff16565b600460008473ffffffffffffffffffffffffffffffffffffffff1673ffffffffffffffffffffffffffffffffffffffff168152602001908152602001600020819055508173ffffffffffffffffffffffffffffffffffffffff168373ffffffffffffffffffffffffffffffffffffffff167fddf252ad1be2c89b69c2b068fc378daa952ba7f163c4a11628f55a4df523b3ef8360405161108b9190612384565b60405180910390a3505050565b60008383111582906110e0576040517f08c379a00000000000000000000000000000000000000000000000000000000081526004016110d79190612202565b60405180910390fd5b5060008385039050809150509392505050565b60008082840190508381101561113e576040517f08c379a000000000000000000000000000000000000000000000000000000000815260040161113590612284565b60405180910390fd5b8091505092915050565b600073ffffffffffffffffffffffffffffffffffffffff168273ffffffffffffffffffffffffffffffffffffffff1614156111b8576040517f08c379a00000000000000000000000000000000000000000000000000000000081526004016111af90612364565b60405180910390fd5b6111cd816006546110f390919063ffffffff16565b60068190555061122581600460008573ffffffffffffffffffffffffffffffffffffffff1673ffffffffffffffffffffffffffffffffffffffff168152602001908152602001600020546110f390919063ffffffff16565b600460008473ffffffffffffffffffffffffffffffffffffffff1673ffffffffffffffffffffffffffffffffffffffff168152602001908152602001600020819055508173ffffffffffffffffffffffffffffffffffffffff16600073ffffffffffffffffffffffffffffffffffffffff167fddf252ad1be2c89b69c2b068fc378daa952ba7f163c4a11628f55a4df523b3ef836040516112c69190612384565b60405180910390a35050565b600073ffffffffffffffffffffffffffffffffffffffff168273ffffffffffffffffffffffffffffffffffffffff161415611342576040517f08c379a000000000000000000000000000000000000000000000000000000000815260040161133990612304565b60405180910390fd5b6113ae8160405180606001604052806022815260200161259f60229139600460008673ffffffffffffffffffffffffffffffffffffffff1673ffffffffffffffffffffffffffffffffffffffff168152602001908152602001600020546110989092919063ffffffff16565b600460008473ffffffffffffffffffffffffffffffffffffffff1673ffffffffffffffffffffffffffffffffffffffff168152602001908152602001600020819055506114068160065461178490919063ffffffff16565b600681905550600073ffffffffffffffffffffffffffffffffffffffff168273ffffffffffffffffffffffffffffffffffffffff167fddf252ad1be2c89b69c2b068fc378daa952ba7f163c4a11628f55a4df523b3ef8360405161146a9190612384565b60405180910390a35050565b61148082826112d2565b6115418261148c610c37565b61153c846040518060600160405280602481526020016125e760249139600560008973ffffffffffffffffffffffffffffffffffffffff1673ffffffffffffffffffffffffffffffffffffffff16815260200190815260200160002060006114f2610c37565b73ffffffffffffffffffffffffffffffffffffffff1673ffffffffffffffffffffffffffffffffffffffff168152602001908152602001600020546110989092919063ffffffff16565b610c3f565b5050565b6115598160006117ce90919063ffffffff16565b8073ffffffffffffffffffffffffffffffffffffffff167f6ae172837ea30b801fbfcdd4108aa1d5bf8ff775444fd70256b44e6bf3dfc3f660405160405180910390a250565b6115b381600061187690919063ffffffff16565b8073ffffffffffffffffffffffffffffffffffffffff167fe94479a9f7e1952cc78f2d6baab678adc1b772d936c6583def489e524cb6669260405160405180910390a250565b60008073ffffffffffffffffffffffffffffffffffffffff168273ffffffffffffffffffffffffffffffffffffffff16141561166a576040517f08c379a0000000000000000000000000000000000000000000000000000000008152600401611661906122e4565b60405180910390fd5b8260000160008373ffffffffffffffffffffffffffffffffffffffff1673ffffffffffffffffffffffffffffffffffffffff16815260200190815260200160002060009054906101000a900460ff16905092915050565b60006040517f190100000000000000000000000000000000000000000000000000000000000081528360028201528260228201526042812091505080905092915050565b8261177f576117138261191d565b613a2060f01b6117228361191d565b604051602001611734939291906120f1565b6040516020818303038152906040526040517f08c379a00000000000000000000000000000000000000000000000000000000081526004016117769190612202565b60405180910390fd5b505050565b60006117c683836040518060400160405280601e81526020017f536166654d6174683a207375627472616374696f6e206f766572666c6f770000815250611098565b905092915050565b6117d882826115f9565b15611818576040517f08c379a000000000000000000000000000000000000000000000000000000000815260040161180f90612244565b60405180910390fd5b60018260000160008373ffffffffffffffffffffffffffffffffffffffff1673ffffffffffffffffffffffffffffffffffffffff16815260200190815260200160002060006101000a81548160ff0219169083151502179055505050565b61188082826115f9565b6118bf576040517f08c379a00000000000000000000000000000000000000000000000000000000081526004016118b6906122c4565b60405180910390fd5b60008260000160008373ffffffffffffffffffffffffffffffffffffffff1673ffffffffffffffffffffffffffffffffffffffff16815260200190815260200160002060006101000a81548160ff0219169083151502179055505050565b6060808260405160200161193191906120d6565b60405160208183030381529060405290506000602090505b60008111156119b957808060019003915050600060f81b82828151811061196c57fe5b602001015160f81c60f81b7effffffffffffffffffffffffffffffffffffffffffffffffffffffffffffff1916146119b45760006001820190508083528293505050506119f3565b611949565b5060006040519080825280601f01601f1916602001820160405280156119ee5781602001600182028038833980820191505090505b509150505b919050565b600081359050611a07816124cf565b92915050565b600081359050611a1c816124e6565b92915050565b600081359050611a31816124fd565b92915050565b600081359050611a4681612514565b92915050565b600060208284031215611a5e57600080fd5b6000611a6c848285016119f8565b91505092915050565b60008060408385031215611a8857600080fd5b6000611a96858286016119f8565b9250506020611aa7858286016119f8565b9150509250929050565b600080600060608486031215611ac657600080fd5b6000611ad4868287016119f8565b9350506020611ae5868287016119f8565b9250506040611af686828701611a22565b9150509250925092565b600080600080600080600060e0888a031215611b1b57600080fd5b6000611b298a828b016119f8565b9750506020611b3a8a828b016119f8565b9650506040611b4b8a828b01611a22565b9550506060611b5c8a828b01611a22565b9450506080611b6d8a828b01611a37565b93505060a0611b7e8a828b01611a0d565b92505060c0611b8f8a828b01611a0d565b91505092959891949750929550565b60008060408385031215611bb157600080fd5b6000611bbf858286016119f8565b9250506020611bd085828601611a22565b9150509250929050565b600060208284031215611bec57600080fd5b6000611bfa84828501611a22565b91505092915050565b611c0c816123ec565b82525050565b611c1b816123fe565b82525050565b611c32611c2d8261240a565b6124aa565b82525050565b611c4181612436565b82525050565b611c58611c5382612436565b6124b4565b82525050565b6000611c69826123ba565b611c7381856123d0565b9350611c83818560208601612477565b80840191505092915050565b6000611c9a826123c5565b611ca481856123db565b9350611cb4818560208601612477565b611cbd816124be565b840191505092915050565b6000611cd56023836123db565b91507f45524332303a207472616e7366657220746f20746865207a65726f206164647260008301527f65737300000000000000000000000000000000000000000000000000000000006020830152604082019050919050565b6000611d3b601f836123db565b91507f526f6c65733a206163636f756e7420616c72656164792068617320726f6c65006000830152602082019050919050565b6000611d7b6022836123db565b91507f45524332303a20617070726f766520746f20746865207a65726f20616464726560008301527f73730000000000000000000000000000000000000000000000000000000000006020830152604082019050919050565b6000611de1601b836123db565b91507f536166654d6174683a206164646974696f6e206f766572666c6f7700000000006000830152602082019050919050565b6000611e216030836123db565b91507f4d696e746572526f6c653a2063616c6c657220646f6573206e6f74206861766560008301527f20746865204d696e74657220726f6c65000000000000000000000000000000006020830152604082019050919050565b6000611e876021836123db565b91507f526f6c65733a206163636f756e7420646f6573206e6f74206861766520726f6c60008301527f65000000000000000000000000000000000000000000000000000000000000006020830152604082019050919050565b6000611eed6022836123db565b91507f526f6c65733a206163636f756e7420697320746865207a65726f20616464726560008301527f73730000000000000000000000000000000000000000000000000000000000006020830152604082019050919050565b6000611f536021836123db565b91507f45524332303a206275726e2066726f6d20746865207a65726f2061646472657360008301527f73000000000000000000000000000000000000000000000000000000000000006020830152604082019050919050565b6000611fb96025836123db565b91507f45524332303a207472616e736665722066726f6d20746865207a65726f20616460008301527f64726573730000000000000000000000000000000000000000000000000000006020830152604082019050919050565b600061201f6024836123db565b91507f45524332303a20617070726f76652066726f6d20746865207a65726f2061646460008301527f72657373000000000000000000000000000000000000000000000000000000006020830152604082019050919050565b6000612085601f836123db565b91507f45524332303a206d696e7420746f20746865207a65726f2061646472657373006000830152602082019050919050565b6120c181612460565b82525050565b6120d08161246a565b82525050565b60006120e28284611c47565b60208201915081905092915050565b60006120fd8286611c5e565b91506121098285611c21565b6002820191506121198284611c5e565b9150819050949350505050565b600060208201905061213b6000830184611c12565b92915050565b60006020820190506121566000830184611c38565b92915050565b600060c0820190506121716000830189611c38565b61217e6020830188611c03565b61218b6040830187611c03565b61219860608301866120b8565b6121a560808301856120b8565b6121b260a08301846120b8565b979650505050505050565b60006080820190506121d26000830187611c38565b6121df60208301866120c7565b6121ec6040830185611c38565b6121f96060830184611c38565b95945050505050565b6000602082019050818103600083015261221c8184611c8f565b905092915050565b6000602082019050818103600083015261223d81611cc8565b9050919050565b6000602082019050818103600083015261225d81611d2e565b9050919050565b6000602082019050818103600083015261227d81611d6e565b9050919050565b6000602082019050818103600083015261229d81611dd4565b9050919050565b600060208201905081810360008301526122bd81611e14565b9050919050565b600060208201905081810360008301526122dd81611e7a565b9050919050565b600060208201905081810360008301526122fd81611ee0565b9050919050565b6000602082019050818103600083015261231d81611f46565b9050919050565b6000602082019050818103600083015261233d81611fac565b9050919050565b6000602082019050818103600083015261235d81612012565b9050919050565b6000602082019050818103600083015261237d81612078565b9050919050565b600060208201905061239960008301846120b8565b92915050565b60006020820190506123b460008301846120c7565b92915050565b600081519050919050565b600081519050919050565b600081905092915050565b600082825260208201905092915050565b60006123f782612440565b9050919050565b60008115159050919050565b60007fffff00000000000000000000000000000000000000000000000000000000000082169050919050565b6000819050919050565b600073ffffffffffffffffffffffffffffffffffffffff82169050919050565b6000819050919050565b600060ff82169050919050565b60005b8381101561249557808201518184015260208101905061247a565b838111156124a4576000848401525b50505050565b6000819050919050565b6000819050919050565b6000601f19601f8301169050919050565b6124d8816123ec565b81146124e357600080fd5b50565b6124ef81612436565b81146124fa57600080fd5b50565b61250681612460565b811461251157600080fd5b50565b61251d8161246a565b811461252857600080fd5b50565b60006001905090565b6000807f8b73c3c69bb8fe3d512ecc4cf759cc79239f7b179b0ffacaa9a75d522b39400f60001b9050855160208701208551602087012060405183815282602082015281604082015286606082015285608082015260a0812094505050508191505094935050505056fe45524332303a206275726e20616d6f756e7420657863656564732062616c616e636545524332303a207472616e7366657220616d6f756e7420657863656564732062616c616e636545524332303a206275726e20616d6f756e74206578636565647320616c6c6f77616e6365446f6c6c61723a207472616e7366657220616d6f756e74206578636565647320616c6c6f77616e636545524332303a2064656372656173656420616c6c6f77616e63652062656c6f77207a65726fa365627a7a723158206734b8460df4bb349338b8ec670444aa1df0138af460167a16f64a927eb3d6146c6578706572696d656e74616cf564736f6c63430005110040",
  "source": "/*\n    Copyright 2020 Empty Set Squad <emptysetsquad@protonmail.com>\n\n    Licensed under the Apache License, Version 2.0 (the \"License\");\n    you may not use this file except in compliance with the License.\n    You may obtain a copy of the License at\n\n    http://www.apache.org/licenses/LICENSE-2.0\n\n    Unless required by applicable law or agreed to in writing, software\n    distributed under the License is distributed on an \"AS IS\" BASIS,\n    WITHOUT WARRANTIES OR CONDITIONS OF ANY KIND, either express or implied.\n    See the License for the specific language governing permissions and\n    limitations under the License.\n*/\n\npragma solidity ^0.5.17;\npragma experimental ABIEncoderV2;\n\nimport \"../dao/Regulator.sol\";\nimport \"../oracle/IOracle.sol\";\nimport \"./MockComptroller.sol\";\nimport \"./MockState.sol\";\n\ncontract MockRegulator is MockComptroller, Regulator {\n    constructor (address oracle, address pool) MockComptroller(pool) public {\n        _state.provider.oracle = IOracle(oracle);\n    }\n\n    function stepE() external {\n        super.step();\n    }\n\n    function bootstrappingAt(uint256 epoch) public view returns (bool) {\n        return epoch <= 5;\n    }\n}\n",
  "sourcePath": "/Users/gokulalex/Apps/eth_apps/SemiotNet/contracts/mock/MockRegulator.sol",
  "compiler": {
    "name": "solc",
    "version": "0.5.17+commit.d19bba13.Emscripten.clang"
  },
  "schemaVersion": "3.3.3",
  "updatedAt": "2021-02-19T15:49:23.683Z",
  "devdoc": {
    "methods": {}
  },
  "userdoc": {
    "methods": {
      "balanceOfStaged(address)": {
        "notice": "Account"
      },
      "createCandidateE(address,uint256)": {
        "notice": "Governance"
      },
      "dollar()": {
        "notice": "Global"
      },
      "epoch()": {
        "notice": "Epoch"
      },
      "incrementBalanceOfE(address,uint256)": {
        "notice": "Account"
      },
      "incrementTotalBondedE(uint256)": {
        "notice": "Global"
      },
      "name()": {
        "notice": "ERC20 Interface"
      },
      "recordedVote(address,address)": {
        "notice": "Governance"
      },
      "setBlockTimestamp(uint256)": {
        "notice": "Mock"
      },
      "setEpochParamsE(uint256,uint256)": {
        "notice": "Epoch"
      },
      "transfer(address,uint256)": {
        "notice": "ERC20 Interface"
      }
    }
  }
}