{
  "contractName": "MockPoolState",
  "abi": [
    {
      "constant": true,
      "inputs": [
        {
          "internalType": "address",
          "name": "account",
          "type": "address"
        }
      ],
      "name": "balanceOfBonded",
      "outputs": [
        {
          "internalType": "uint256",
          "name": "",
          "type": "uint256"
        }
      ],
      "payable": false,
      "stateMutability": "view",
      "type": "function"
    },
    {
      "constant": true,
      "inputs": [
        {
          "internalType": "address",
          "name": "account",
          "type": "address"
        }
      ],
      "name": "balanceOfClaimable",
      "outputs": [
        {
          "internalType": "uint256",
          "name": "",
          "type": "uint256"
        }
      ],
      "payable": false,
      "stateMutability": "view",
      "type": "function"
    },
    {
      "constant": true,
      "inputs": [
        {
          "internalType": "address",
          "name": "account",
          "type": "address"
        }
      ],
      "name": "balanceOfPhantom",
      "outputs": [
        {
          "internalType": "uint256",
          "name": "",
          "type": "uint256"
        }
      ],
      "payable": false,
      "stateMutability": "view",
      "type": "function"
    },
    {
      "constant": true,
      "inputs": [
        {
          "internalType": "address",
          "name": "account",
          "type": "address"
        }
      ],
      "name": "balanceOfRewarded",
      "outputs": [
        {
          "internalType": "uint256",
          "name": "",
          "type": "uint256"
        }
      ],
      "payable": false,
      "stateMutability": "view",
      "type": "function"
    },
    {
      "constant": true,
      "inputs": [
        {
          "internalType": "address",
          "name": "account",
          "type": "address"
        }
      ],
      "name": "balanceOfStaged",
      "outputs": [
        {
          "internalType": "uint256",
          "name": "",
          "type": "uint256"
        }
      ],
      "payable": false,
      "stateMutability": "view",
      "type": "function"
    },
    {
      "constant": true,
      "inputs": [],
      "name": "paused",
      "outputs": [
        {
          "internalType": "bool",
          "name": "",
          "type": "bool"
        }
      ],
      "payable": false,
      "stateMutability": "view",
      "type": "function"
    },
    {
      "constant": true,
      "inputs": [
        {
          "internalType": "address",
          "name": "account",
          "type": "address"
        }
      ],
      "name": "statusOf",
      "outputs": [
        {
          "internalType": "enum PoolAccount.Status",
          "name": "",
          "type": "uint8"
        }
      ],
      "payable": false,
      "stateMutability": "view",
      "type": "function"
    },
    {
      "constant": true,
      "inputs": [],
      "name": "totalBonded",
      "outputs": [
        {
          "internalType": "uint256",
          "name": "",
          "type": "uint256"
        }
      ],
      "payable": false,
      "stateMutability": "view",
      "type": "function"
    },
    {
      "constant": true,
      "inputs": [],
      "name": "totalClaimable",
      "outputs": [
        {
          "internalType": "uint256",
          "name": "",
          "type": "uint256"
        }
      ],
      "payable": false,
      "stateMutability": "view",
      "type": "function"
    },
    {
      "constant": true,
      "inputs": [],
      "name": "totalPhantom",
      "outputs": [
        {
          "internalType": "uint256",
          "name": "",
          "type": "uint256"
        }
      ],
      "payable": false,
      "stateMutability": "view",
      "type": "function"
    },
    {
      "constant": true,
      "inputs": [],
      "name": "totalRewarded",
      "outputs": [
        {
          "internalType": "uint256",
          "name": "",
          "type": "uint256"
        }
      ],
      "payable": false,
      "stateMutability": "view",
      "type": "function"
    },
    {
      "constant": true,
      "inputs": [],
      "name": "totalStaged",
      "outputs": [
        {
          "internalType": "uint256",
          "name": "",
          "type": "uint256"
        }
      ],
      "payable": false,
      "stateMutability": "view",
      "type": "function"
    },
    {
      "constant": true,
      "inputs": [],
      "name": "univ2",
      "outputs": [
        {
          "internalType": "contract IERC20",
          "name": "",
          "type": "address"
        }
      ],
      "payable": false,
      "stateMutability": "view",
      "type": "function"
    },
    {
      "constant": true,
      "inputs": [],
      "name": "usdc",
      "outputs": [
        {
          "internalType": "address",
          "name": "",
          "type": "address"
        }
      ],
      "payable": false,
      "stateMutability": "view",
      "type": "function"
    },
    {
      "constant": false,
      "inputs": [
        {
          "internalType": "address",
          "name": "dao",
          "type": "address"
        },
        {
          "internalType": "address",
          "name": "dollar",
          "type": "address"
        }
      ],
      "name": "set",
      "outputs": [],
      "payable": false,
      "stateMutability": "nonpayable",
      "type": "function"
    },
    {
      "constant": true,
      "inputs": [],
      "name": "dao",
      "outputs": [
        {
          "internalType": "contract IDAO",
          "name": "",
          "type": "address"
        }
      ],
      "payable": false,
      "stateMutability": "view",
      "type": "function"
    },
    {
      "constant": true,
      "inputs": [],
      "name": "dollar",
      "outputs": [
        {
          "internalType": "contract IDollar",
          "name": "",
          "type": "address"
        }
      ],
      "payable": false,
      "stateMutability": "view",
      "type": "function"
    },
    {
      "constant": false,
      "inputs": [
        {
          "internalType": "address",
          "name": "account",
          "type": "address"
        },
        {
          "internalType": "uint256",
          "name": "amount",
          "type": "uint256"
        }
      ],
      "name": "incrementBalanceOfBondedE",
      "outputs": [],
      "payable": false,
      "stateMutability": "nonpayable",
      "type": "function"
    },
    {
      "constant": false,
      "inputs": [
        {
          "internalType": "address",
          "name": "account",
          "type": "address"
        },
        {
          "internalType": "uint256",
          "name": "amount",
          "type": "uint256"
        },
        {
          "internalType": "string",
          "name": "reason",
          "type": "string"
        }
      ],
      "name": "decrementBalanceOfBondedE",
      "outputs": [],
      "payable": false,
      "stateMutability": "nonpayable",
      "type": "function"
    },
    {
      "constant": false,
      "inputs": [
        {
          "internalType": "address",
          "name": "account",
          "type": "address"
        },
        {
          "internalType": "uint256",
          "name": "amount",
          "type": "uint256"
        }
      ],
      "name": "incrementBalanceOfStagedE",
      "outputs": [],
      "payable": false,
      "stateMutability": "nonpayable",
      "type": "function"
    },
    {
      "constant": false,
      "inputs": [
        {
          "internalType": "address",
          "name": "account",
          "type": "address"
        },
        {
          "internalType": "uint256",
          "name": "amount",
          "type": "uint256"
        },
        {
          "internalType": "string",
          "name": "reason",
          "type": "string"
        }
      ],
      "name": "decrementBalanceOfStagedE",
      "outputs": [],
      "payable": false,
      "stateMutability": "nonpayable",
      "type": "function"
    },
    {
      "constant": false,
      "inputs": [
        {
          "internalType": "address",
          "name": "account",
          "type": "address"
        },
        {
          "internalType": "uint256",
          "name": "amount",
          "type": "uint256"
        }
      ],
      "name": "incrementBalanceOfClaimableE",
      "outputs": [],
      "payable": false,
      "stateMutability": "nonpayable",
      "type": "function"
    },
    {
      "constant": false,
      "inputs": [
        {
          "internalType": "address",
          "name": "account",
          "type": "address"
        },
        {
          "internalType": "uint256",
          "name": "amount",
          "type": "uint256"
        },
        {
          "internalType": "string",
          "name": "reason",
          "type": "string"
        }
      ],
      "name": "decrementBalanceOfClaimableE",
      "outputs": [],
      "payable": false,
      "stateMutability": "nonpayable",
      "type": "function"
    },
    {
      "constant": false,
      "inputs": [
        {
          "internalType": "address",
          "name": "account",
          "type": "address"
        },
        {
          "internalType": "uint256",
          "name": "amount",
          "type": "uint256"
        }
      ],
      "name": "incrementBalanceOfPhantomE",
      "outputs": [],
      "payable": false,
      "stateMutability": "nonpayable",
      "type": "function"
    },
    {
      "constant": false,
      "inputs": [
        {
          "internalType": "address",
          "name": "account",
          "type": "address"
        },
        {
          "internalType": "uint256",
          "name": "amount",
          "type": "uint256"
        },
        {
          "internalType": "string",
          "name": "reason",
          "type": "string"
        }
      ],
      "name": "decrementBalanceOfPhantomE",
      "outputs": [],
      "payable": false,
      "stateMutability": "nonpayable",
      "type": "function"
    },
    {
      "constant": false,
      "inputs": [
        {
          "internalType": "address",
          "name": "account",
          "type": "address"
        }
      ],
      "name": "unfreezeE",
      "outputs": [],
      "payable": false,
      "stateMutability": "nonpayable",
      "type": "function"
    }
  ],
  "bytecode": "0x608060405234801561001057600080fd5b50611a71806100206000396000f3fe608060405234801561001057600080fd5b506004361061018e5760003560e01c80635c975abb116100de5780639be4649311610097578063b32a2f9011610071578063b32a2f901461046f578063c0d7a94f1461048b578063cf023779146104bb578063e0cf7285146104d95761018e565b80639be4649314610419578063aed29d0714610435578063b11ee0e3146104535761018e565b80635c975abb146103315780637298d36e1461034f578063825ad6071461036d57806386cf9f141461039d57806389675cac146103cd57806397a5d5b5146103e95761018e565b8063400d56ac1161014b57806344d96e951161012557806344d96e95146102bb5780634838ed19146102d957806351adeb57146102f757806356a7d6ce146103155761018e565b8063400d56ac146102655780634162169f14610281578063447ca8b41461029f5761018e565b80631667eb171461019357806326ff681a146101c357806329f32ed4146101df5780633cdb77671461020f5780633d2286d31461022b5780633e413bee14610247575b600080fd5b6101ad60048036036101a8919081019061151d565b6104f7565b6040516101ba919061189f565b60405180910390f35b6101dd60048036036101d89190810190611582565b610545565b005b6101f960048036036101f4919081019061151d565b610553565b604051610206919061189f565b60405180910390f35b61022960048036036102249190810190611582565b6105a1565b005b610245600480360361024091908101906115be565b6105af565b005b61024f610604565b60405161025c919061179b565b60405180910390f35b61027f600480360361027a91908101906115be565b610613565b005b610289610668565b60405161029691906117d1565b60405180910390f35b6102b960048036036102b491908101906115be565b610692565b005b6102c36106e7565b6040516102d0919061189f565b60405180910390f35b6102e16106f6565b6040516102ee919061189f565b60405180910390f35b6102ff610705565b60405161030c91906117ec565b60405180910390f35b61032f600480360361032a9190810190611582565b61072f565b005b61033961073d565b60405161034691906117b6565b60405180910390f35b610357610756565b6040516103649190611807565b60405180910390f35b6103876004803603610382919081019061151d565b610765565b604051610394919061189f565b60405180910390f35b6103b760048036036103b2919081019061151d565b6107b3565b6040516103c4919061189f565b60405180910390f35b6103e760048036036103e29190810190611546565b610801565b005b61040360048036036103fe919081019061151d565b610887565b6040516104109190611822565b60405180910390f35b610433600480360361042e919081019061151d565b6108ed565b005b61043d6108f9565b60405161044a919061189f565b60405180910390f35b61046d60048036036104689190810190611582565b6109a9565b005b610489600480360361048491908101906115be565b6109b7565b005b6104a560048036036104a0919081019061151d565b610a0c565b6040516104b2919061189f565b60405180910390f35b6104c3610ac3565b6040516104d0919061189f565b60405180910390f35b6104e1610ad2565b6040516104ee919061189f565b60405180910390f35b60008060050160008373ffffffffffffffffffffffffffffffffffffffff1673ffffffffffffffffffffffffffffffffffffffff168152602001908152602001600020600101549050919050565b61054f8282610ae1565b5050565b60008060050160008373ffffffffffffffffffffffffffffffffffffffff1673ffffffffffffffffffffffffffffffffffffffff168152602001908152602001600020600301549050919050565b6105ab8282610bab565b5050565b6105fe848484848080601f016020809104026020016040519081016040528093929190818152602001838380828437600081840152601f19601f82011690508083019250505050505050610c75565b50505050565b600061060e610d44565b905090565b610662848484848080601f016020809104026020016040519081016040528093929190818152602001838380828437600081840152601f19601f82011690508083019250505050505050610d60565b50505050565b6000600660009054906101000a900473ffffffffffffffffffffffffffffffffffffffff16905090565b6106e1848484848080601f016020809104026020016040519081016040528093929190818152602001838380828437600081840152601f19601f82011690508083019250505050505050610e2f565b50505050565b60008060000160020154905090565b60008060000160010154905090565b6000600760009054906101000a900473ffffffffffffffffffffffffffffffffffffffff16905090565b6107398282610efe565b5050565b60008060040160009054906101000a900460ff16905090565b6000610760610fc8565b905090565b60008060050160008373ffffffffffffffffffffffffffffffffffffffff1673ffffffffffffffffffffffffffffffffffffffff168152602001908152602001600020600201549050919050565b60008060050160008373ffffffffffffffffffffffffffffffffffffffff1673ffffffffffffffffffffffffffffffffffffffff168152602001908152602001600020600001549050919050565b81600660006101000a81548173ffffffffffffffffffffffffffffffffffffffff021916908373ffffffffffffffffffffffffffffffffffffffff16021790555080600760006101000a81548173ffffffffffffffffffffffffffffffffffffffff021916908373ffffffffffffffffffffffffffffffffffffffff1602179055505050565b60008060050160008373ffffffffffffffffffffffffffffffffffffffff1673ffffffffffffffffffffffffffffffffffffffff168152602001908152602001600020600401546108d6610fe4565b10156108e35760016108e6565b60005b9050919050565b6108f681611070565b50565b60006109a46109066106f6565b61090e610705565b73ffffffffffffffffffffffffffffffffffffffff166370a08231306040518263ffffffff1660e01b8152600401610946919061179b565b60206040518083038186803b15801561095e57600080fd5b505afa158015610972573d6000803e3d6000fd5b505050506040513d601f19601f82011682018060405250610996919081019061162a565b6110dd90919063ffffffff16565b905090565b6109b38282611127565b5050565b610a06848484848080601f016020809104026020016040519081016040528093929190818152602001838380828437600081840152601f19601f820116905080830192505050505050506111f1565b50505050565b600080610a176106e7565b90506000811415610a2c576000915050610abe565b6000610a4f610a39610ad2565b610a416108f9565b6112c090919063ffffffff16565b90506000610a8083610a72610a6388610765565b8561131590919063ffffffff16565b61138590919063ffffffff16565b90506000610a8d86610553565b905080821115610ab557610aaa81836110dd90919063ffffffff16565b945050505050610abe565b60009450505050505b919050565b60008060000160000154905090565b60008060000160030154905090565b610b3981600060050160008573ffffffffffffffffffffffffffffffffffffffff1673ffffffffffffffffffffffffffffffffffffffff168152602001908152602001600020600201546112c090919063ffffffff16565b600060050160008473ffffffffffffffffffffffffffffffffffffffff1673ffffffffffffffffffffffffffffffffffffffff16815260200190815260200160002060020181905550610b9c8160008001600201546112c090919063ffffffff16565b60008001600201819055505050565b610c0381600060050160008573ffffffffffffffffffffffffffffffffffffffff1673ffffffffffffffffffffffffffffffffffffffff168152602001908152602001600020600101546112c090919063ffffffff16565b600060050160008473ffffffffffffffffffffffffffffffffffffffff1673ffffffffffffffffffffffffffffffffffffffff16815260200190815260200160002060010181905550610c668160008001600101546112c090919063ffffffff16565b60008001600101819055505050565b610ccf8282600060050160008773ffffffffffffffffffffffffffffffffffffffff1673ffffffffffffffffffffffffffffffffffffffff168152602001908152602001600020600301546113cf9092919063ffffffff16565b600060050160008573ffffffffffffffffffffffffffffffffffffffff1673ffffffffffffffffffffffffffffffffffffffff16815260200190815260200160002060030181905550610d34828260008001600301546113cf9092919063ffffffff16565b6000800160030181905550505050565b600073a0b86991c6218b36c1d19d4a2e9eb0ce3606eb48905090565b610dba8282600060050160008773ffffffffffffffffffffffffffffffffffffffff1673ffffffffffffffffffffffffffffffffffffffff168152602001908152602001600020600201546113cf9092919063ffffffff16565b600060050160008573ffffffffffffffffffffffffffffffffffffffff1673ffffffffffffffffffffffffffffffffffffffff16815260200190815260200160002060020181905550610e1f828260008001600201546113cf9092919063ffffffff16565b6000800160020181905550505050565b610e898282600060050160008773ffffffffffffffffffffffffffffffffffffffff1673ffffffffffffffffffffffffffffffffffffffff168152602001908152602001600020600101546113cf9092919063ffffffff16565b600060050160008573ffffffffffffffffffffffffffffffffffffffff1673ffffffffffffffffffffffffffffffffffffffff16815260200190815260200160002060010181905550610eee828260008001600101546113cf9092919063ffffffff16565b6000800160010181905550505050565b610f5681600060050160008573ffffffffffffffffffffffffffffffffffffffff1673ffffffffffffffffffffffffffffffffffffffff168152602001908152602001600020600301546112c090919063ffffffff16565b600060050160008473ffffffffffffffffffffffffffffffffffffffff1673ffffffffffffffffffffffffffffffffffffffff16815260200190815260200160002060030181905550610fb98160008001600301546112c090919063ffffffff16565b60008001600301819055505050565b60007388ff79eb2bc5850f27315415da8685282c7610f9905090565b6000610fee610668565b73ffffffffffffffffffffffffffffffffffffffff1663900cf0cf6040518163ffffffff1660e01b815260040160206040518083038186803b15801561103357600080fd5b505afa158015611047573d6000803e3d6000fd5b505050506040513d601f19601f8201168201806040525061106b919081019061162a565b905090565b61109161107b61142a565b611083610fe4565b6112c090919063ffffffff16565b600060050160008373ffffffffffffffffffffffffffffffffffffffff1673ffffffffffffffffffffffffffffffffffffffff1681526020019081526020016000206004018190555050565b600061111f83836040518060400160405280601e81526020017f536166654d6174683a207375627472616374696f6e206f766572666c6f7700008152506113cf565b905092915050565b61117f81600060050160008573ffffffffffffffffffffffffffffffffffffffff1673ffffffffffffffffffffffffffffffffffffffff168152602001908152602001600020600001546112c090919063ffffffff16565b600060050160008473ffffffffffffffffffffffffffffffffffffffff1673ffffffffffffffffffffffffffffffffffffffff168152602001908152602001600020600001819055506111e28160008001600001546112c090919063ffffffff16565b60008001600001819055505050565b61124b8282600060050160008773ffffffffffffffffffffffffffffffffffffffff1673ffffffffffffffffffffffffffffffffffffffff168152602001908152602001600020600001546113cf9092919063ffffffff16565b600060050160008573ffffffffffffffffffffffffffffffffffffffff1673ffffffffffffffffffffffffffffffffffffffff168152602001908152602001600020600001819055506112b0828260008001600001546113cf9092919063ffffffff16565b6000800160000181905550505050565b60008082840190508381101561130b576040517f08c379a00000000000000000000000000000000000000000000000000000000081526004016113029061185f565b60405180910390fd5b8091505092915050565b600080831415611328576000905061137f565b600082840290508284828161133957fe5b041461137a576040517f08c379a00000000000000000000000000000000000000000000000000000000081526004016113719061187f565b60405180910390fd5b809150505b92915050565b60006113c783836040518060400160405280601a81526020017f536166654d6174683a206469766973696f6e206279207a65726f000000000000815250611433565b905092915050565b6000838311158290611417576040517f08c379a000000000000000000000000000000000000000000000000000000000815260040161140e919061183d565b60405180910390fd5b5060008385039050809150509392505050565b60006005905090565b6000808311829061147a576040517f08c379a0000000000000000000000000000000000000000000000000000000008152600401611471919061183d565b60405180910390fd5b50600083858161148657fe5b049050809150509392505050565b6000813590506114a381611a00565b92915050565b60008083601f8401126114bb57600080fd5b8235905067ffffffffffffffff8111156114d457600080fd5b6020830191508360018202830111156114ec57600080fd5b9250929050565b60008135905061150281611a17565b92915050565b60008151905061151781611a17565b92915050565b60006020828403121561152f57600080fd5b600061153d84828501611494565b91505092915050565b6000806040838503121561155957600080fd5b600061156785828601611494565b925050602061157885828601611494565b9150509250929050565b6000806040838503121561159557600080fd5b60006115a385828601611494565b92505060206115b4858286016114f3565b9150509250929050565b600080600080606085870312156115d457600080fd5b60006115e287828801611494565b94505060206115f3878288016114f3565b935050604085013567ffffffffffffffff81111561161057600080fd5b61161c878288016114a9565b925092505092959194509250565b60006020828403121561163c57600080fd5b600061164a84828501611508565b91505092915050565b61165c816118d6565b82525050565b61166b816118e8565b82525050565b61167a81611931565b82525050565b61168981611955565b82525050565b61169881611979565b82525050565b6116a78161199d565b82525050565b60006116b8826118ba565b6116c281856118c5565b93506116d28185602086016119af565b6116db816119e2565b840191505092915050565b60006116f3601b836118c5565b91507f536166654d6174683a206164646974696f6e206f766572666c6f7700000000006000830152602082019050919050565b60006117336021836118c5565b91507f536166654d6174683a206d756c7469706c69636174696f6e206f766572666c6f60008301527f77000000000000000000000000000000000000000000000000000000000000006020830152604082019050919050565b61179581611927565b82525050565b60006020820190506117b06000830184611653565b92915050565b60006020820190506117cb6000830184611662565b92915050565b60006020820190506117e66000830184611671565b92915050565b60006020820190506118016000830184611680565b92915050565b600060208201905061181c600083018461168f565b92915050565b6000602082019050611837600083018461169e565b92915050565b6000602082019050818103600083015261185781846116ad565b905092915050565b60006020820190508181036000830152611878816116e6565b9050919050565b6000602082019050818103600083015261189881611726565b9050919050565b60006020820190506118b4600083018461178c565b92915050565b600081519050919050565b600082825260208201905092915050565b60006118e182611907565b9050919050565b60008115159050919050565b6000819050611902826119f3565b919050565b600073ffffffffffffffffffffffffffffffffffffffff82169050919050565b6000819050919050565b600061193c82611943565b9050919050565b600061194e82611907565b9050919050565b600061196082611967565b9050919050565b600061197282611907565b9050919050565b60006119848261198b565b9050919050565b600061199682611907565b9050919050565b60006119a8826118f4565b9050919050565b60005b838110156119cd5780820151818401526020810190506119b2565b838111156119dc576000848401525b50505050565b6000601f19601f8301169050919050565b600381106119fd57fe5b50565b611a09816118d6565b8114611a1457600080fd5b50565b611a2081611927565b8114611a2b57600080fd5b5056fea365627a7a723158200d380e1b2346df78927902bfc732afefc31106814f79f686314721182207da476c6578706572696d656e74616cf564736f6c63430005110040",
  "source": "/*\n    Copyright 2020 Empty Set Squad <emptysetsquad@protonmail.com>\n\n    Licensed under the Apache License, Version 2.0 (the \"License\");\n    you may not use this file except in compliance with the License.\n    You may obtain a copy of the License at\n\n    http://www.apache.org/licenses/LICENSE-2.0\n\n    Unless required by applicable law or agreed to in writing, software\n    distributed under the License is distributed on an \"AS IS\" BASIS,\n    WITHOUT WARRANTIES OR CONDITIONS OF ANY KIND, either express or implied.\n    See the License for the specific language governing permissions and\n    limitations under the License.\n*/\n\npragma solidity ^0.5.17;\npragma experimental ABIEncoderV2;\n\nimport \"../oracle/PoolSetters.sol\";\n\ncontract MockPoolState is PoolSetters {\n    address private _dao;\n    address private _dollar;\n\n    function set(address dao, address dollar) external {\n        _dao = dao;\n        _dollar = dollar;\n    }\n\n    function dao() public view returns (IDAO) {\n        return IDAO(_dao);\n    }\n\n    function dollar() public view returns (IDollar) {\n        return IDollar(_dollar);\n    }\n\n    /**\n     * Account\n     */\n\n    function incrementBalanceOfBondedE(address account, uint256 amount) external {\n        super.incrementBalanceOfBonded(account, amount);\n    }\n\n    function decrementBalanceOfBondedE(address account, uint256 amount, string calldata reason) external {\n        super.decrementBalanceOfBonded(account, amount, reason);\n    }\n\n    function incrementBalanceOfStagedE(address account, uint256 amount) external {\n        super.incrementBalanceOfStaged(account, amount);\n    }\n\n    function decrementBalanceOfStagedE(address account, uint256 amount, string calldata reason) external {\n        super.decrementBalanceOfStaged(account, amount, reason);\n    }\n\n    function incrementBalanceOfClaimableE(address account, uint256 amount) external {\n        super.incrementBalanceOfClaimable(account, amount);\n    }\n\n    function decrementBalanceOfClaimableE(address account, uint256 amount, string calldata reason) external {\n        super.decrementBalanceOfClaimable(account, amount, reason);\n    }\n\n    function incrementBalanceOfPhantomE(address account, uint256 amount) external {\n        super.incrementBalanceOfPhantom(account, amount);\n    }\n\n    function decrementBalanceOfPhantomE(address account, uint256 amount, string calldata reason) external {\n        super.decrementBalanceOfPhantom(account, amount, reason);\n    }\n\n    function unfreezeE(address account) external {\n        super.unfreeze(account);\n    }\n}\n",
  "sourcePath": "/Users/gokulalex/Apps/eth_apps/SemiotNet/contracts/mock/MockPoolState.sol",
  "compiler": {
    "name": "solc",
    "version": "0.5.17+commit.d19bba13.Emscripten.clang"
  },
  "schemaVersion": "3.3.3",
  "updatedAt": "2021-02-19T15:49:23.678Z",
  "devdoc": {
    "methods": {}
  },
  "userdoc": {
    "methods": {
      "balanceOfStaged(address)": {
        "notice": "Account"
      },
      "incrementBalanceOfBondedE(address,uint256)": {
        "notice": "Account"
      },
      "usdc()": {
        "notice": "Global"
      }
    }
  }
}