{
  "contractName": "MockCurve",
  "abi": [
    {
      "inputs": [],
      "payable": false,
      "stateMutability": "nonpayable",
      "type": "constructor"
    },
    {
      "constant": true,
      "inputs": [
        {
          "internalType": "uint256",
          "name": "totalSupply",
          "type": "uint256"
        },
        {
          "internalType": "uint256",
          "name": "totalDebt",
          "type": "uint256"
        },
        {
          "internalType": "uint256",
          "name": "amount",
          "type": "uint256"
        }
      ],
      "name": "calculateCouponsE",
      "outputs": [
        {
          "internalType": "uint256",
          "name": "",
          "type": "uint256"
        }
      ],
      "payable": false,
      "stateMutability": "pure",
      "type": "function"
    }
  ],
  "bytecode": "0x608060405234801561001057600080fd5b50610b1a806100206000396000f3fe608060405234801561001057600080fd5b506004361061002b5760003560e01c806317a2e00014610030575b600080fd5b61004a6004803603610045919081019061089c565b610060565b6040516100579190610a3b565b60405180910390f35b600061006d848484610076565b90509392505050565b600061009d6100988361008a8787876100a6565b61024090919063ffffffff16565b610275565b90509392505050565b6100ae610874565b6100b6610874565b6100c0848661029d565b90506100ca610874565b6100d26102ce565b905060006100e985886102f290919063ffffffff16565b9050600061010086886102f290919063ffffffff16565b905061010a610874565b610114828461029d565b9050610129848661033c90919063ffffffff16565b1561022757610141848261033c90919063ffffffff16565b1561015b5761014f84610353565b95505050505050610239565b610163610874565b61016d82866103c1565b9050610177610874565b61018a838761047190919063ffffffff16565b9050610194610874565b61019d87610353565b90506101a7610874565b6101ba888a61047190919063ffffffff16565b90506102176101d282856104aa90919063ffffffff16565b6102096101e884866104e390919063ffffffff16565b6101fb87896104e390919063ffffffff16565b6104aa90919063ffffffff16565b61051c90919063ffffffff16565b9950505050505050505050610239565b61023181866103c1565b955050505050505b9392505050565b610248610874565b604051806020016040528061026a84866000015161055590919063ffffffff16565b815250905092915050565b6000610296670de0b6b3a764000083600001516105c590919063ffffffff16565b9050919050565b6102a5610874565b60405180602001604052806102c385670de0b6b3a76400008661060f565b815250905092915050565b6102d6610874565b60405180602001604052806702c68af0bb140000815250905090565b600061033483836040518060400160405280601e81526020017f536166654d6174683a207375627472616374696f6e206f766572666c6f77000081525061063f565b905092915050565b6000600261034a848461069a565b14905092915050565b61035b610874565b6103ba6103666106da565b6103ac61039660026103888761037a6106da565b61047190919063ffffffff16565b6106fe90919063ffffffff16565b61039e6106da565b61051c90919063ffffffff16565b61047190919063ffffffff16565b9050919050565b6103c9610874565b6103dc828461077190919063ffffffff16565b156103f1576103ea83610353565b905061046b565b6104686103fc6106da565b61045a61044461041c8761040e6106da565b61047190919063ffffffff16565b610436876104286106da565b61047190919063ffffffff16565b6104e390919063ffffffff16565b61044c6106da565b61051c90919063ffffffff16565b61047190919063ffffffff16565b90505b92915050565b610479610874565b604051806020016040528061049f846000015186600001516102f290919063ffffffff16565b815250905092915050565b6104b2610874565b60405180602001604052806104d88460000151866000015161078690919063ffffffff16565b815250905092915050565b6104eb610874565b604051806020016040528061051185600001518560000151670de0b6b3a764000061060f565b815250905092915050565b610524610874565b604051806020016040528061054a8560000151670de0b6b3a7640000866000015161060f565b815250905092915050565b60008083141561056857600090506105bf565b600082840290508284828161057957fe5b04146105ba576040517f08c379a00000000000000000000000000000000000000000000000000000000081526004016105b190610a1b565b60405180910390fd5b809150505b92915050565b600061060783836040518060400160405280601a81526020017f536166654d6174683a206469766973696f6e206279207a65726f0000000000008152506107db565b905092915050565b600061063682610628858761055590919063ffffffff16565b6105c590919063ffffffff16565b90509392505050565b6000838311158290610687576040517f08c379a000000000000000000000000000000000000000000000000000000000815260040161067e91906109d9565b60405180910390fd5b5060008385039050809150509392505050565b60008160000151836000015114156106b557600190506106d4565b81600001518360000151116106cb5760006106ce565b60025b60ff1690505b92915050565b6106e2610874565b6040518060200160405280670de0b6b3a7640000815250905090565b610706610874565b600082141561072057610719600161083c565b905061076b565b610728610874565b6040518060200160405280856000015181525090506000600190505b838110156107655761075682866104e3565b91508080600101915050610744565b50809150505b92915050565b60008160000151836000015114905092915050565b6000808284019050838110156107d1576040517f08c379a00000000000000000000000000000000000000000000000000000000081526004016107c8906109fb565b60405180910390fd5b8091505092915050565b60008083118290610822576040517f08c379a000000000000000000000000000000000000000000000000000000000815260040161081991906109d9565b60405180910390fd5b50600083858161082e57fe5b049050809150509392505050565b610844610874565b604051806020016040528061086a670de0b6b3a76400008561055590919063ffffffff16565b8152509050919050565b6040518060200160405280600081525090565b60008135905061089681610ac0565b92915050565b6000806000606084860312156108b157600080fd5b60006108bf86828701610887565b93505060206108d086828701610887565b92505060406108e186828701610887565b9150509250925092565b60006108f682610a56565b6109008185610a61565b9350610910818560208601610a7c565b61091981610aaf565b840191505092915050565b6000610931601b83610a61565b91507f536166654d6174683a206164646974696f6e206f766572666c6f7700000000006000830152602082019050919050565b6000610971602183610a61565b91507f536166654d6174683a206d756c7469706c69636174696f6e206f766572666c6f60008301527f77000000000000000000000000000000000000000000000000000000000000006020830152604082019050919050565b6109d381610a72565b82525050565b600060208201905081810360008301526109f381846108eb565b905092915050565b60006020820190508181036000830152610a1481610924565b9050919050565b60006020820190508181036000830152610a3481610964565b9050919050565b6000602082019050610a5060008301846109ca565b92915050565b600081519050919050565b600082825260208201905092915050565b6000819050919050565b60005b83811015610a9a578082015181840152602081019050610a7f565b83811115610aa9576000848401525b50505050565b6000601f19601f8301169050919050565b610ac981610a72565b8114610ad457600080fd5b5056fea365627a7a7231582068da35aa3b530235ef005441ae23c47ac71b37627f34110cc05ca16934e361eb6c6578706572696d656e74616cf564736f6c63430005110040",
  "source": "/*\n    Copyright 2020 Empty Set Squad <emptysetsquad@protonmail.com>\n\n    Licensed under the Apache License, Version 2.0 (the \"License\");\n    you may not use this file except in compliance with the License.\n    You may obtain a copy of the License at\n\n    http://www.apache.org/licenses/LICENSE-2.0\n\n    Unless required by applicable law or agreed to in writing, software\n    distributed under the License is distributed on an \"AS IS\" BASIS,\n    WITHOUT WARRANTIES OR CONDITIONS OF ANY KIND, either express or implied.\n    See the License for the specific language governing permissions and\n    limitations under the License.\n*/\n\npragma solidity ^0.5.17;\npragma experimental ABIEncoderV2;\n\nimport \"../dao/Curve.sol\";\n\ncontract MockCurve is Curve {\n    constructor () public { }\n\n    function calculateCouponsE(\n        uint256 totalSupply,\n        uint256 totalDebt,\n        uint256 amount\n    ) external pure returns (uint256) {\n        return super.calculateCouponPremium(totalSupply, totalDebt, amount);\n    }\n}\n",
  "sourcePath": "/Users/gokulalex/Apps/eth_apps/SemiotNet/contracts/mock/MockCurve.sol",
  "compiler": {
    "name": "solc",
    "version": "0.5.17+commit.d19bba13.Emscripten.clang"
  },
  "schemaVersion": "3.3.3",
  "updatedAt": "2021-02-19T15:49:23.644Z",
  "devdoc": {
    "methods": {}
  },
  "userdoc": {
    "methods": {}
  }
}