{
  "contractName": "MockMarket",
  "abi": [
    {
      "inputs": [
        {
          "internalType": "address",
          "name": "pool",
          "type": "address"
        }
      ],
      "payable": false,
      "stateMutability": "nonpayable",
      "type": "constructor"
    },
    {
      "anonymous": false,
      "inputs": [
        {
          "indexed": true,
          "internalType": "address",
          "name": "owner",
          "type": "address"
        },
        {
          "indexed": true,
          "internalType": "address",
          "name": "spender",
          "type": "address"
        },
        {
          "indexed": false,
          "internalType": "uint256",
          "name": "value",
          "type": "uint256"
        }
      ],
      "name": "CouponApproval",
      "type": "event"
    },
    {
      "anonymous": false,
      "inputs": [
        {
          "indexed": true,
          "internalType": "uint256",
          "name": "epoch",
          "type": "uint256"
        },
        {
          "indexed": false,
          "internalType": "uint256",
          "name": "couponsExpired",
          "type": "uint256"
        },
        {
          "indexed": false,
          "internalType": "uint256",
          "name": "lessRedeemable",
          "type": "uint256"
        },
        {
          "indexed": false,
          "internalType": "uint256",
          "name": "lessDebt",
          "type": "uint256"
        },
        {
          "indexed": false,
          "internalType": "uint256",
          "name": "newBonded",
          "type": "uint256"
        }
      ],
      "name": "CouponExpiration",
      "type": "event"
    },
    {
      "anonymous": false,
      "inputs": [
        {
          "indexed": true,
          "internalType": "address",
          "name": "account",
          "type": "address"
        },
        {
          "indexed": true,
          "internalType": "uint256",
          "name": "epoch",
          "type": "uint256"
        },
        {
          "indexed": false,
          "internalType": "uint256",
          "name": "dollarAmount",
          "type": "uint256"
        },
        {
          "indexed": false,
          "internalType": "uint256",
          "name": "couponAmount",
          "type": "uint256"
        }
      ],
      "name": "CouponPurchase",
      "type": "event"
    },
    {
      "anonymous": false,
      "inputs": [
        {
          "indexed": true,
          "internalType": "address",
          "name": "account",
          "type": "address"
        },
        {
          "indexed": true,
          "internalType": "uint256",
          "name": "epoch",
          "type": "uint256"
        },
        {
          "indexed": false,
          "internalType": "uint256",
          "name": "amount",
          "type": "uint256"
        },
        {
          "indexed": false,
          "internalType": "uint256",
          "name": "couponAmount",
          "type": "uint256"
        }
      ],
      "name": "CouponRedemption",
      "type": "event"
    },
    {
      "anonymous": false,
      "inputs": [
        {
          "indexed": true,
          "internalType": "address",
          "name": "from",
          "type": "address"
        },
        {
          "indexed": true,
          "internalType": "address",
          "name": "to",
          "type": "address"
        },
        {
          "indexed": true,
          "internalType": "uint256",
          "name": "epoch",
          "type": "uint256"
        },
        {
          "indexed": false,
          "internalType": "uint256",
          "name": "value",
          "type": "uint256"
        }
      ],
      "name": "CouponTransfer",
      "type": "event"
    },
    {
      "anonymous": false,
      "inputs": [
        {
          "indexed": true,
          "internalType": "address",
          "name": "from",
          "type": "address"
        },
        {
          "indexed": true,
          "internalType": "address",
          "name": "to",
          "type": "address"
        },
        {
          "indexed": false,
          "internalType": "uint256",
          "name": "value",
          "type": "uint256"
        }
      ],
      "name": "Transfer",
      "type": "event"
    },
    {
      "constant": true,
      "inputs": [
        {
          "internalType": "address",
          "name": "owner",
          "type": "address"
        },
        {
          "internalType": "address",
          "name": "spender",
          "type": "address"
        }
      ],
      "name": "allowance",
      "outputs": [
        {
          "internalType": "uint256",
          "name": "",
          "type": "uint256"
        }
      ],
      "payable": false,
      "stateMutability": "view",
      "type": "function"
    },
    {
      "constant": true,
      "inputs": [
        {
          "internalType": "address",
          "name": "owner",
          "type": "address"
        },
        {
          "internalType": "address",
          "name": "spender",
          "type": "address"
        }
      ],
      "name": "allowanceCoupons",
      "outputs": [
        {
          "internalType": "uint256",
          "name": "",
          "type": "uint256"
        }
      ],
      "payable": false,
      "stateMutability": "view",
      "type": "function"
    },
    {
      "constant": false,
      "inputs": [
        {
          "internalType": "address",
          "name": "spender",
          "type": "address"
        },
        {
          "internalType": "uint256",
          "name": "amount",
          "type": "uint256"
        }
      ],
      "name": "approve",
      "outputs": [
        {
          "internalType": "bool",
          "name": "",
          "type": "bool"
        }
      ],
      "payable": false,
      "stateMutability": "nonpayable",
      "type": "function"
    },
    {
      "constant": false,
      "inputs": [
        {
          "internalType": "address",
          "name": "spender",
          "type": "address"
        },
        {
          "internalType": "uint256",
          "name": "amount",
          "type": "uint256"
        }
      ],
      "name": "approveCoupons",
      "outputs": [],
      "payable": false,
      "stateMutability": "nonpayable",
      "type": "function"
    },
    {
      "constant": true,
      "inputs": [
        {
          "internalType": "address",
          "name": "candidate",
          "type": "address"
        }
      ],
      "name": "approveFor",
      "outputs": [
        {
          "internalType": "uint256",
          "name": "",
          "type": "uint256"
        }
      ],
      "payable": false,
      "stateMutability": "view",
      "type": "function"
    },
    {
      "constant": true,
      "inputs": [
        {
          "internalType": "address",
          "name": "account",
          "type": "address"
        }
      ],
      "name": "balanceOf",
      "outputs": [
        {
          "internalType": "uint256",
          "name": "",
          "type": "uint256"
        }
      ],
      "payable": false,
      "stateMutability": "view",
      "type": "function"
    },
    {
      "constant": true,
      "inputs": [
        {
          "internalType": "address",
          "name": "account",
          "type": "address"
        }
      ],
      "name": "balanceOfBonded",
      "outputs": [
        {
          "internalType": "uint256",
          "name": "",
          "type": "uint256"
        }
      ],
      "payable": false,
      "stateMutability": "view",
      "type": "function"
    },
    {
      "constant": true,
      "inputs": [
        {
          "internalType": "address",
          "name": "account",
          "type": "address"
        },
        {
          "internalType": "uint256",
          "name": "epoch",
          "type": "uint256"
        }
      ],
      "name": "balanceOfCouponUnderlying",
      "outputs": [
        {
          "internalType": "uint256",
          "name": "",
          "type": "uint256"
        }
      ],
      "payable": false,
      "stateMutability": "view",
      "type": "function"
    },
    {
      "constant": true,
      "inputs": [
        {
          "internalType": "address",
          "name": "account",
          "type": "address"
        },
        {
          "internalType": "uint256",
          "name": "epoch",
          "type": "uint256"
        }
      ],
      "name": "balanceOfCoupons",
      "outputs": [
        {
          "internalType": "uint256",
          "name": "",
          "type": "uint256"
        }
      ],
      "payable": false,
      "stateMutability": "view",
      "type": "function"
    },
    {
      "constant": true,
      "inputs": [
        {
          "internalType": "address",
          "name": "account",
          "type": "address"
        }
      ],
      "name": "balanceOfStaged",
      "outputs": [
        {
          "internalType": "uint256",
          "name": "",
          "type": "uint256"
        }
      ],
      "payable": false,
      "stateMutability": "view",
      "type": "function"
    },
    {
      "constant": true,
      "inputs": [
        {
          "internalType": "uint256",
          "name": "epoch",
          "type": "uint256"
        }
      ],
      "name": "bootstrappingAt",
      "outputs": [
        {
          "internalType": "bool",
          "name": "",
          "type": "bool"
        }
      ],
      "payable": false,
      "stateMutability": "view",
      "type": "function"
    },
    {
      "constant": false,
      "inputs": [
        {
          "internalType": "address",
          "name": "account",
          "type": "address"
        },
        {
          "internalType": "uint256",
          "name": "amount",
          "type": "uint256"
        }
      ],
      "name": "burnFromAccountE",
      "outputs": [],
      "payable": false,
      "stateMutability": "nonpayable",
      "type": "function"
    },
    {
      "constant": false,
      "inputs": [
        {
          "internalType": "uint256",
          "name": "amount",
          "type": "uint256"
        }
      ],
      "name": "burnRedeemableE",
      "outputs": [],
      "payable": false,
      "stateMutability": "nonpayable",
      "type": "function"
    },
    {
      "constant": true,
      "inputs": [
        {
          "internalType": "uint256",
          "name": "amount",
          "type": "uint256"
        }
      ],
      "name": "couponPremium",
      "outputs": [
        {
          "internalType": "uint256",
          "name": "",
          "type": "uint256"
        }
      ],
      "payable": false,
      "stateMutability": "view",
      "type": "function"
    },
    {
      "constant": true,
      "inputs": [
        {
          "internalType": "uint256",
          "name": "epoch",
          "type": "uint256"
        }
      ],
      "name": "couponsExpiration",
      "outputs": [
        {
          "internalType": "uint256",
          "name": "",
          "type": "uint256"
        }
      ],
      "payable": false,
      "stateMutability": "view",
      "type": "function"
    },
    {
      "constant": false,
      "inputs": [
        {
          "internalType": "address",
          "name": "candidate",
          "type": "address"
        },
        {
          "internalType": "uint256",
          "name": "period",
          "type": "uint256"
        }
      ],
      "name": "createCandidateE",
      "outputs": [],
      "payable": false,
      "stateMutability": "nonpayable",
      "type": "function"
    },
    {
      "constant": true,
      "inputs": [],
      "name": "decimals",
      "outputs": [
        {
          "internalType": "uint8",
          "name": "",
          "type": "uint8"
        }
      ],
      "payable": false,
      "stateMutability": "view",
      "type": "function"
    },
    {
      "constant": false,
      "inputs": [
        {
          "internalType": "uint256",
          "name": "amount",
          "type": "uint256"
        }
      ],
      "name": "decreaseDebtE",
      "outputs": [],
      "payable": false,
      "stateMutability": "nonpayable",
      "type": "function"
    },
    {
      "constant": false,
      "inputs": [
        {
          "internalType": "address",
          "name": "owner",
          "type": "address"
        },
        {
          "internalType": "address",
          "name": "spender",
          "type": "address"
        },
        {
          "internalType": "uint256",
          "name": "amount",
          "type": "uint256"
        },
        {
          "internalType": "string",
          "name": "reason",
          "type": "string"
        }
      ],
      "name": "decrementAllowanceCouponsE",
      "outputs": [],
      "payable": false,
      "stateMutability": "nonpayable",
      "type": "function"
    },
    {
      "constant": false,
      "inputs": [
        {
          "internalType": "address",
          "name": "candidate",
          "type": "address"
        },
        {
          "internalType": "uint256",
          "name": "amount",
          "type": "uint256"
        },
        {
          "internalType": "string",
          "name": "reason",
          "type": "string"
        }
      ],
      "name": "decrementApproveForE",
      "outputs": [],
      "payable": false,
      "stateMutability": "nonpayable",
      "type": "function"
    },
    {
      "constant": false,
      "inputs": [
        {
          "internalType": "address",
          "name": "account",
          "type": "address"
        },
        {
          "internalType": "uint256",
          "name": "epoch",
          "type": "uint256"
        },
        {
          "internalType": "uint256",
          "name": "amount",
          "type": "uint256"
        },
        {
          "internalType": "string",
          "name": "reason",
          "type": "string"
        }
      ],
      "name": "decrementBalanceOfCouponUnderlyingE",
      "outputs": [],
      "payable": false,
      "stateMutability": "nonpayable",
      "type": "function"
    },
    {
      "constant": false,
      "inputs": [
        {
          "internalType": "address",
          "name": "account",
          "type": "address"
        },
        {
          "internalType": "uint256",
          "name": "epoch",
          "type": "uint256"
        },
        {
          "internalType": "uint256",
          "name": "amount",
          "type": "uint256"
        },
        {
          "internalType": "string",
          "name": "reason",
          "type": "string"
        }
      ],
      "name": "decrementBalanceOfCouponsE",
      "outputs": [],
      "payable": false,
      "stateMutability": "nonpayable",
      "type": "function"
    },
    {
      "constant": false,
      "inputs": [
        {
          "internalType": "address",
          "name": "account",
          "type": "address"
        },
        {
          "internalType": "uint256",
          "name": "amount",
          "type": "uint256"
        },
        {
          "internalType": "string",
          "name": "reason",
          "type": "string"
        }
      ],
      "name": "decrementBalanceOfE",
      "outputs": [],
      "payable": false,
      "stateMutability": "nonpayable",
      "type": "function"
    },
    {
      "constant": false,
      "inputs": [
        {
          "internalType": "address",
          "name": "account",
          "type": "address"
        },
        {
          "internalType": "uint256",
          "name": "amount",
          "type": "uint256"
        },
        {
          "internalType": "string",
          "name": "reason",
          "type": "string"
        }
      ],
      "name": "decrementBalanceOfStagedE",
      "outputs": [],
      "payable": false,
      "stateMutability": "nonpayable",
      "type": "function"
    },
    {
      "constant": false,
      "inputs": [
        {
          "internalType": "address",
          "name": "candidate",
          "type": "address"
        },
        {
          "internalType": "uint256",
          "name": "amount",
          "type": "uint256"
        },
        {
          "internalType": "string",
          "name": "reason",
          "type": "string"
        }
      ],
      "name": "decrementRejectForE",
      "outputs": [],
      "payable": false,
      "stateMutability": "nonpayable",
      "type": "function"
    },
    {
      "constant": false,
      "inputs": [
        {
          "internalType": "uint256",
          "name": "amount",
          "type": "uint256"
        },
        {
          "internalType": "string",
          "name": "reason",
          "type": "string"
        }
      ],
      "name": "decrementTotalBondedE",
      "outputs": [],
      "payable": false,
      "stateMutability": "nonpayable",
      "type": "function"
    },
    {
      "constant": false,
      "inputs": [
        {
          "internalType": "uint256",
          "name": "amount",
          "type": "uint256"
        },
        {
          "internalType": "string",
          "name": "reason",
          "type": "string"
        }
      ],
      "name": "decrementTotalDebtE",
      "outputs": [],
      "payable": false,
      "stateMutability": "nonpayable",
      "type": "function"
    },
    {
      "constant": false,
      "inputs": [
        {
          "internalType": "uint256",
          "name": "amount",
          "type": "uint256"
        },
        {
          "internalType": "string",
          "name": "reason",
          "type": "string"
        }
      ],
      "name": "decrementTotalRedeemableE",
      "outputs": [],
      "payable": false,
      "stateMutability": "nonpayable",
      "type": "function"
    },
    {
      "constant": true,
      "inputs": [],
      "name": "dollar",
      "outputs": [
        {
          "internalType": "contract IDollar",
          "name": "",
          "type": "address"
        }
      ],
      "payable": false,
      "stateMutability": "view",
      "type": "function"
    },
    {
      "constant": false,
      "inputs": [
        {
          "internalType": "uint256",
          "name": "epoch",
          "type": "uint256"
        }
      ],
      "name": "eliminateOutstandingCouponsE",
      "outputs": [],
      "payable": false,
      "stateMutability": "nonpayable",
      "type": "function"
    },
    {
      "constant": true,
      "inputs": [],
      "name": "epoch",
      "outputs": [
        {
          "internalType": "uint256",
          "name": "",
          "type": "uint256"
        }
      ],
      "payable": false,
      "stateMutability": "view",
      "type": "function"
    },
    {
      "constant": true,
      "inputs": [],
      "name": "epochTime",
      "outputs": [
        {
          "internalType": "uint256",
          "name": "",
          "type": "uint256"
        }
      ],
      "payable": false,
      "stateMutability": "view",
      "type": "function"
    },
    {
      "constant": true,
      "inputs": [],
      "name": "eraStart",
      "outputs": [
        {
          "internalType": "uint256",
          "name": "",
          "type": "uint256"
        }
      ],
      "payable": false,
      "stateMutability": "view",
      "type": "function"
    },
    {
      "constant": true,
      "inputs": [],
      "name": "eraStatus",
      "outputs": [
        {
          "internalType": "enum Era.Status",
          "name": "",
          "type": "uint8"
        }
      ],
      "payable": false,
      "stateMutability": "view",
      "type": "function"
    },
    {
      "constant": true,
      "inputs": [
        {
          "internalType": "uint256",
          "name": "epoch",
          "type": "uint256"
        }
      ],
      "name": "expiringCoupons",
      "outputs": [
        {
          "internalType": "uint256",
          "name": "",
          "type": "uint256"
        }
      ],
      "payable": false,
      "stateMutability": "view",
      "type": "function"
    },
    {
      "constant": true,
      "inputs": [
        {
          "internalType": "uint256",
          "name": "epoch",
          "type": "uint256"
        },
        {
          "internalType": "uint256",
          "name": "i",
          "type": "uint256"
        }
      ],
      "name": "expiringCouponsAtIndex",
      "outputs": [
        {
          "internalType": "uint256",
          "name": "",
          "type": "uint256"
        }
      ],
      "payable": false,
      "stateMutability": "view",
      "type": "function"
    },
    {
      "constant": true,
      "inputs": [
        {
          "internalType": "address",
          "name": "account",
          "type": "address"
        }
      ],
      "name": "fluidUntil",
      "outputs": [
        {
          "internalType": "uint256",
          "name": "",
          "type": "uint256"
        }
      ],
      "payable": false,
      "stateMutability": "view",
      "type": "function"
    },
    {
      "constant": true,
      "inputs": [],
      "name": "implementation",
      "outputs": [
        {
          "internalType": "address",
          "name": "impl",
          "type": "address"
        }
      ],
      "payable": false,
      "stateMutability": "view",
      "type": "function"
    },
    {
      "constant": false,
      "inputs": [
        {
          "internalType": "uint256",
          "name": "amount",
          "type": "uint256"
        }
      ],
      "name": "increaseDebtE",
      "outputs": [],
      "payable": false,
      "stateMutability": "nonpayable",
      "type": "function"
    },
    {
      "constant": false,
      "inputs": [
        {
          "internalType": "address",
          "name": "candidate",
          "type": "address"
        },
        {
          "internalType": "uint256",
          "name": "amount",
          "type": "uint256"
        }
      ],
      "name": "incrementApproveForE",
      "outputs": [],
      "payable": false,
      "stateMutability": "nonpayable",
      "type": "function"
    },
    {
      "constant": false,
      "inputs": [
        {
          "internalType": "address",
          "name": "account",
          "type": "address"
        },
        {
          "internalType": "uint256",
          "name": "epoch",
          "type": "uint256"
        },
        {
          "internalType": "uint256",
          "name": "amount",
          "type": "uint256"
        }
      ],
      "name": "incrementBalanceOfCouponUnderlyingE",
      "outputs": [],
      "payable": false,
      "stateMutability": "nonpayable",
      "type": "function"
    },
    {
      "constant": false,
      "inputs": [
        {
          "internalType": "address",
          "name": "account",
          "type": "address"
        },
        {
          "internalType": "uint256",
          "name": "epoch",
          "type": "uint256"
        },
        {
          "internalType": "uint256",
          "name": "amount",
          "type": "uint256"
        }
      ],
      "name": "incrementBalanceOfCouponsE",
      "outputs": [],
      "payable": false,
      "stateMutability": "nonpayable",
      "type": "function"
    },
    {
      "constant": false,
      "inputs": [
        {
          "internalType": "address",
          "name": "account",
          "type": "address"
        },
        {
          "internalType": "uint256",
          "name": "amount",
          "type": "uint256"
        }
      ],
      "name": "incrementBalanceOfE",
      "outputs": [],
      "payable": false,
      "stateMutability": "nonpayable",
      "type": "function"
    },
    {
      "constant": false,
      "inputs": [
        {
          "internalType": "address",
          "name": "account",
          "type": "address"
        },
        {
          "internalType": "uint256",
          "name": "amount",
          "type": "uint256"
        }
      ],
      "name": "incrementBalanceOfStagedE",
      "outputs": [],
      "payable": false,
      "stateMutability": "nonpayable",
      "type": "function"
    },
    {
      "constant": false,
      "inputs": [],
      "name": "incrementEpochE",
      "outputs": [],
      "payable": false,
      "stateMutability": "nonpayable",
      "type": "function"
    },
    {
      "constant": false,
      "inputs": [
        {
          "internalType": "address",
          "name": "candidate",
          "type": "address"
        },
        {
          "internalType": "uint256",
          "name": "amount",
          "type": "uint256"
        }
      ],
      "name": "incrementRejectForE",
      "outputs": [],
      "payable": false,
      "stateMutability": "nonpayable",
      "type": "function"
    },
    {
      "constant": false,
      "inputs": [
        {
          "internalType": "uint256",
          "name": "amount",
          "type": "uint256"
        }
      ],
      "name": "incrementTotalBondedE",
      "outputs": [],
      "payable": false,
      "stateMutability": "nonpayable",
      "type": "function"
    },
    {
      "constant": false,
      "inputs": [
        {
          "internalType": "uint256",
          "name": "amount",
          "type": "uint256"
        }
      ],
      "name": "incrementTotalDebtE",
      "outputs": [],
      "payable": false,
      "stateMutability": "nonpayable",
      "type": "function"
    },
    {
      "constant": false,
      "inputs": [
        {
          "internalType": "uint256",
          "name": "amount",
          "type": "uint256"
        }
      ],
      "name": "incrementTotalRedeemableE",
      "outputs": [],
      "payable": false,
      "stateMutability": "nonpayable",
      "type": "function"
    },
    {
      "constant": false,
      "inputs": [
        {
          "internalType": "uint256",
          "name": "epoch",
          "type": "uint256"
        },
        {
          "internalType": "uint256",
          "name": "expiration",
          "type": "uint256"
        }
      ],
      "name": "initializeCouponsExpirationE",
      "outputs": [],
      "payable": false,
      "stateMutability": "nonpayable",
      "type": "function"
    },
    {
      "constant": false,
      "inputs": [
        {
          "internalType": "address",
          "name": "candidate",
          "type": "address"
        }
      ],
      "name": "initializedE",
      "outputs": [],
      "payable": false,
      "stateMutability": "nonpayable",
      "type": "function"
    },
    {
      "constant": true,
      "inputs": [
        {
          "internalType": "address",
          "name": "candidate",
          "type": "address"
        }
      ],
      "name": "isInitialized",
      "outputs": [
        {
          "internalType": "bool",
          "name": "",
          "type": "bool"
        }
      ],
      "payable": false,
      "stateMutability": "view",
      "type": "function"
    },
    {
      "constant": true,
      "inputs": [
        {
          "internalType": "address",
          "name": "candidate",
          "type": "address"
        }
      ],
      "name": "isNominated",
      "outputs": [
        {
          "internalType": "bool",
          "name": "",
          "type": "bool"
        }
      ],
      "payable": false,
      "stateMutability": "view",
      "type": "function"
    },
    {
      "constant": true,
      "inputs": [
        {
          "internalType": "address",
          "name": "account",
          "type": "address"
        }
      ],
      "name": "lockedUntil",
      "outputs": [
        {
          "internalType": "uint256",
          "name": "",
          "type": "uint256"
        }
      ],
      "payable": false,
      "stateMutability": "view",
      "type": "function"
    },
    {
      "constant": false,
      "inputs": [
        {
          "internalType": "uint256",
          "name": "couponEpoch",
          "type": "uint256"
        }
      ],
      "name": "migrateCoupons",
      "outputs": [],
      "payable": false,
      "stateMutability": "nonpayable",
      "type": "function"
    },
    {
      "constant": false,
      "inputs": [
        {
          "internalType": "address",
          "name": "account",
          "type": "address"
        },
        {
          "internalType": "uint256",
          "name": "amount",
          "type": "uint256"
        }
      ],
      "name": "mintToAccountE",
      "outputs": [],
      "payable": false,
      "stateMutability": "nonpayable",
      "type": "function"
    },
    {
      "constant": false,
      "inputs": [
        {
          "internalType": "address",
          "name": "account",
          "type": "address"
        },
        {
          "internalType": "uint256",
          "name": "amount",
          "type": "uint256"
        }
      ],
      "name": "mintToE",
      "outputs": [],
      "payable": false,
      "stateMutability": "nonpayable",
      "type": "function"
    },
    {
      "constant": true,
      "inputs": [],
      "name": "name",
      "outputs": [
        {
          "internalType": "string",
          "name": "",
          "type": "string"
        }
      ],
      "payable": false,
      "stateMutability": "view",
      "type": "function"
    },
    {
      "constant": true,
      "inputs": [],
      "name": "oracle",
      "outputs": [
        {
          "internalType": "contract IOracle",
          "name": "",
          "type": "address"
        }
      ],
      "payable": false,
      "stateMutability": "view",
      "type": "function"
    },
    {
      "constant": true,
      "inputs": [
        {
          "internalType": "uint256",
          "name": "epoch",
          "type": "uint256"
        }
      ],
      "name": "outstandingCoupons",
      "outputs": [
        {
          "internalType": "uint256",
          "name": "",
          "type": "uint256"
        }
      ],
      "payable": false,
      "stateMutability": "view",
      "type": "function"
    },
    {
      "constant": true,
      "inputs": [
        {
          "internalType": "address",
          "name": "candidate",
          "type": "address"
        }
      ],
      "name": "periodFor",
      "outputs": [
        {
          "internalType": "uint256",
          "name": "",
          "type": "uint256"
        }
      ],
      "payable": false,
      "stateMutability": "view",
      "type": "function"
    },
    {
      "constant": false,
      "inputs": [
        {
          "internalType": "address",
          "name": "account",
          "type": "address"
        },
        {
          "internalType": "address",
          "name": "candidate",
          "type": "address"
        }
      ],
      "name": "placeLockE",
      "outputs": [],
      "payable": false,
      "stateMutability": "nonpayable",
      "type": "function"
    },
    {
      "constant": true,
      "inputs": [],
      "name": "pool",
      "outputs": [
        {
          "internalType": "address",
          "name": "",
          "type": "address"
        }
      ],
      "payable": false,
      "stateMutability": "view",
      "type": "function"
    },
    {
      "constant": false,
      "inputs": [
        {
          "internalType": "uint256",
          "name": "amount",
          "type": "uint256"
        }
      ],
      "name": "purchaseCoupons",
      "outputs": [
        {
          "internalType": "uint256",
          "name": "",
          "type": "uint256"
        }
      ],
      "payable": false,
      "stateMutability": "nonpayable",
      "type": "function"
    },
    {
      "constant": false,
      "inputs": [
        {
          "internalType": "address",
          "name": "account",
          "type": "address"
        },
        {
          "internalType": "address",
          "name": "candidate",
          "type": "address"
        },
        {
          "internalType": "enum Candidate.Vote",
          "name": "vote",
          "type": "uint8"
        }
      ],
      "name": "recordVoteE",
      "outputs": [],
      "payable": false,
      "stateMutability": "nonpayable",
      "type": "function"
    },
    {
      "constant": true,
      "inputs": [
        {
          "internalType": "address",
          "name": "account",
          "type": "address"
        },
        {
          "internalType": "address",
          "name": "candidate",
          "type": "address"
        }
      ],
      "name": "recordedVote",
      "outputs": [
        {
          "internalType": "enum Candidate.Vote",
          "name": "",
          "type": "uint8"
        }
      ],
      "payable": false,
      "stateMutability": "view",
      "type": "function"
    },
    {
      "constant": false,
      "inputs": [
        {
          "internalType": "uint256",
          "name": "couponEpoch",
          "type": "uint256"
        },
        {
          "internalType": "uint256",
          "name": "amount",
          "type": "uint256"
        }
      ],
      "name": "redeemCoupons",
      "outputs": [],
      "payable": false,
      "stateMutability": "nonpayable",
      "type": "function"
    },
    {
      "constant": false,
      "inputs": [
        {
          "internalType": "address",
          "name": "account",
          "type": "address"
        },
        {
          "internalType": "uint256",
          "name": "amount",
          "type": "uint256"
        },
        {
          "internalType": "uint256",
          "name": "couponAmount",
          "type": "uint256"
        }
      ],
      "name": "redeemToAccountE",
      "outputs": [],
      "payable": false,
      "stateMutability": "nonpayable",
      "type": "function"
    },
    {
      "constant": true,
      "inputs": [
        {
          "internalType": "address",
          "name": "candidate",
          "type": "address"
        }
      ],
      "name": "rejectFor",
      "outputs": [
        {
          "internalType": "uint256",
          "name": "",
          "type": "uint256"
        }
      ],
      "payable": false,
      "stateMutability": "view",
      "type": "function"
    },
    {
      "constant": false,
      "inputs": [
        {
          "internalType": "uint256",
          "name": "percent",
          "type": "uint256"
        }
      ],
      "name": "resetDebtE",
      "outputs": [],
      "payable": false,
      "stateMutability": "nonpayable",
      "type": "function"
    },
    {
      "constant": false,
      "inputs": [
        {
          "internalType": "uint256",
          "name": "timestamp",
          "type": "uint256"
        }
      ],
      "name": "setBlockTimestamp",
      "outputs": [],
      "payable": false,
      "stateMutability": "nonpayable",
      "type": "function"
    },
    {
      "constant": false,
      "inputs": [
        {
          "internalType": "uint256",
          "name": "start",
          "type": "uint256"
        },
        {
          "internalType": "uint256",
          "name": "period",
          "type": "uint256"
        }
      ],
      "name": "setEpochParamsE",
      "outputs": [],
      "payable": false,
      "stateMutability": "nonpayable",
      "type": "function"
    },
    {
      "constant": false,
      "inputs": [],
      "name": "snapshotTotalBondedE",
      "outputs": [],
      "payable": false,
      "stateMutability": "nonpayable",
      "type": "function"
    },
    {
      "constant": false,
      "inputs": [
        {
          "internalType": "uint256",
          "name": "amount",
          "type": "uint256"
        }
      ],
      "name": "stabilityRewardE",
      "outputs": [],
      "payable": false,
      "stateMutability": "nonpayable",
      "type": "function"
    },
    {
      "constant": true,
      "inputs": [
        {
          "internalType": "address",
          "name": "candidate",
          "type": "address"
        }
      ],
      "name": "startFor",
      "outputs": [
        {
          "internalType": "uint256",
          "name": "",
          "type": "uint256"
        }
      ],
      "payable": false,
      "stateMutability": "view",
      "type": "function"
    },
    {
      "constant": true,
      "inputs": [
        {
          "internalType": "address",
          "name": "account",
          "type": "address"
        }
      ],
      "name": "statusOf",
      "outputs": [
        {
          "internalType": "enum Account.Status",
          "name": "",
          "type": "uint8"
        }
      ],
      "payable": false,
      "stateMutability": "view",
      "type": "function"
    },
    {
      "constant": true,
      "inputs": [],
      "name": "symbol",
      "outputs": [
        {
          "internalType": "string",
          "name": "",
          "type": "string"
        }
      ],
      "payable": false,
      "stateMutability": "view",
      "type": "function"
    },
    {
      "constant": true,
      "inputs": [],
      "name": "totalBonded",
      "outputs": [
        {
          "internalType": "uint256",
          "name": "",
          "type": "uint256"
        }
      ],
      "payable": false,
      "stateMutability": "view",
      "type": "function"
    },
    {
      "constant": true,
      "inputs": [
        {
          "internalType": "uint256",
          "name": "epoch",
          "type": "uint256"
        }
      ],
      "name": "totalBondedAt",
      "outputs": [
        {
          "internalType": "uint256",
          "name": "",
          "type": "uint256"
        }
      ],
      "payable": false,
      "stateMutability": "view",
      "type": "function"
    },
    {
      "constant": true,
      "inputs": [],
      "name": "totalCouponUnderlying",
      "outputs": [
        {
          "internalType": "uint256",
          "name": "",
          "type": "uint256"
        }
      ],
      "payable": false,
      "stateMutability": "view",
      "type": "function"
    },
    {
      "constant": true,
      "inputs": [],
      "name": "totalCoupons",
      "outputs": [
        {
          "internalType": "uint256",
          "name": "",
          "type": "uint256"
        }
      ],
      "payable": false,
      "stateMutability": "view",
      "type": "function"
    },
    {
      "constant": true,
      "inputs": [],
      "name": "totalDebt",
      "outputs": [
        {
          "internalType": "uint256",
          "name": "",
          "type": "uint256"
        }
      ],
      "payable": false,
      "stateMutability": "view",
      "type": "function"
    },
    {
      "constant": true,
      "inputs": [],
      "name": "totalNet",
      "outputs": [
        {
          "internalType": "uint256",
          "name": "",
          "type": "uint256"
        }
      ],
      "payable": false,
      "stateMutability": "view",
      "type": "function"
    },
    {
      "constant": true,
      "inputs": [],
      "name": "totalRedeemable",
      "outputs": [
        {
          "internalType": "uint256",
          "name": "",
          "type": "uint256"
        }
      ],
      "payable": false,
      "stateMutability": "view",
      "type": "function"
    },
    {
      "constant": true,
      "inputs": [],
      "name": "totalStaged",
      "outputs": [
        {
          "internalType": "uint256",
          "name": "",
          "type": "uint256"
        }
      ],
      "payable": false,
      "stateMutability": "view",
      "type": "function"
    },
    {
      "constant": true,
      "inputs": [],
      "name": "totalSupply",
      "outputs": [
        {
          "internalType": "uint256",
          "name": "",
          "type": "uint256"
        }
      ],
      "payable": false,
      "stateMutability": "view",
      "type": "function"
    },
    {
      "constant": false,
      "inputs": [
        {
          "internalType": "address",
          "name": "recipient",
          "type": "address"
        },
        {
          "internalType": "uint256",
          "name": "amount",
          "type": "uint256"
        }
      ],
      "name": "transfer",
      "outputs": [
        {
          "internalType": "bool",
          "name": "",
          "type": "bool"
        }
      ],
      "payable": false,
      "stateMutability": "nonpayable",
      "type": "function"
    },
    {
      "constant": false,
      "inputs": [
        {
          "internalType": "address",
          "name": "sender",
          "type": "address"
        },
        {
          "internalType": "address",
          "name": "recipient",
          "type": "address"
        },
        {
          "internalType": "uint256",
          "name": "epoch",
          "type": "uint256"
        },
        {
          "internalType": "uint256",
          "name": "amount",
          "type": "uint256"
        }
      ],
      "name": "transferCoupons",
      "outputs": [],
      "payable": false,
      "stateMutability": "nonpayable",
      "type": "function"
    },
    {
      "constant": false,
      "inputs": [
        {
          "internalType": "address",
          "name": "sender",
          "type": "address"
        },
        {
          "internalType": "address",
          "name": "recipient",
          "type": "address"
        },
        {
          "internalType": "uint256",
          "name": "amount",
          "type": "uint256"
        }
      ],
      "name": "transferFrom",
      "outputs": [
        {
          "internalType": "bool",
          "name": "",
          "type": "bool"
        }
      ],
      "payable": false,
      "stateMutability": "nonpayable",
      "type": "function"
    },
    {
      "constant": false,
      "inputs": [
        {
          "internalType": "address",
          "name": "account",
          "type": "address"
        }
      ],
      "name": "unfreezeE",
      "outputs": [],
      "payable": false,
      "stateMutability": "nonpayable",
      "type": "function"
    },
    {
      "constant": false,
      "inputs": [
        {
          "internalType": "address",
          "name": "owner",
          "type": "address"
        },
        {
          "internalType": "address",
          "name": "spender",
          "type": "address"
        },
        {
          "internalType": "uint256",
          "name": "amount",
          "type": "uint256"
        }
      ],
      "name": "updateAllowanceCouponsE",
      "outputs": [],
      "payable": false,
      "stateMutability": "nonpayable",
      "type": "function"
    },
    {
      "constant": false,
      "inputs": [
        {
          "internalType": "enum Era.Status",
          "name": "status",
          "type": "uint8"
        }
      ],
      "name": "updateEraE",
      "outputs": [],
      "payable": false,
      "stateMutability": "nonpayable",
      "type": "function"
    },
    {
      "constant": true,
      "inputs": [
        {
          "internalType": "address",
          "name": "candidate",
          "type": "address"
        }
      ],
      "name": "votesFor",
      "outputs": [
        {
          "internalType": "uint256",
          "name": "",
          "type": "uint256"
        }
      ],
      "payable": false,
      "stateMutability": "view",
      "type": "function"
    },
    {
      "constant": false,
      "inputs": [],
      "name": "stepE",
      "outputs": [],
      "payable": false,
      "stateMutability": "nonpayable",
      "type": "function"
    },
    {
      "constant": false,
      "inputs": [
        {
          "internalType": "uint256",
          "name": "newCouponProratedStart",
          "type": "uint256"
        }
      ],
      "name": "set",
      "outputs": [],
      "payable": false,
      "stateMutability": "nonpayable",
      "type": "function"
    }
  ],
  "bytecode": "0x60806040523480156200001157600080fd5b506040516200933838038062009338833981810160405262000037919081019062000125565b80426013819055506040516200004d9062000100565b604051809103906000f0801580156200006a573d6000803e3d6000fd5b50600060090160000160006101000a81548173ffffffffffffffffffffffffffffffffffffffff021916908373ffffffffffffffffffffffffffffffffffffffff16021790555080600060090160020160006101000a81548173ffffffffffffffffffffffffffffffffffffffff021916908373ffffffffffffffffffffffffffffffffffffffff16021790555050506200019f565b612cc6806200667283390190565b6000815190506200011f8162000185565b92915050565b6000602082840312156200013857600080fd5b600062000148848285016200010e565b91505092915050565b60006200015e8262000165565b9050919050565b600073ffffffffffffffffffffffffffffffffffffffff82169050919050565b620001908162000151565b81146200019c57600080fd5b50565b6164c380620001af6000396000f3fe608060405234801561001057600080fd5b50600436106105245760003560e01c80637dc0d1d0116102af578063b16144a311610172578063d83d3ed5116100d9578063f1b7cf4911610092578063f1b7cf4914611101578063f35adf7e14611131578063f7a318181461113b578063faec553714611157578063fc7b9c1814611173578063ffbe3b731461119157610524565b8063d83d3ed51461101b578063d8f5413814611037578063dd62ed3e14611067578063e0abdf6614611097578063e5f55c7e146110b3578063edb6b80a146110e357610524565b8063c9aff70c1161012b578063c9aff70c14610f49578063cc8d823c14610f79578063cf02377914610f95578063d60b347f14610fb3578063d6a9cf0814610fe3578063d6d8816d14610fff57610524565b8063b16144a314610e8b578063b32a2f9014610ea7578063b739a7b814610ec3578063bc7513e214610ee1578063c1410c0214610f11578063c2aeb5fe14610f2d57610524565b80639be4649311610216578063a9059cbb116101cf578063a9059cbb14610dcf578063a9b3cf1514610dff578063aa1daf8514610e1b578063adbff2be14610e37578063ae5c238114610e53578063b11ee0e314610e6f57610524565b80639be4649314610cfd5780639f6e1b2614610d19578063a00e14d114610d49578063a50cd8e714610d65578063a6c409f114610d95578063a6f37b5314610db357610524565b80639042c4ee116102685780639042c4ee14610c2957806395d89b4114610c4557806397a5d5b514610c635780639a649edc14610c935780639b82b49b14610cb15780639bc289f114610ccd57610524565b80637dc0d1d014610b55578063825ad60714610b735780638413e52a14610ba357806386cf9f1414610bbf5780638de2e57314610bef578063900cf0cf14610c0b57610524565b80633fbba9a6116103f75780635f14fec81161035e5780636be8d64b116103175780636be8d64b14610a9757806370a0823114610ab357806371c511eb14610ae357806372924d2a14610aed57806375d5024b14610b095780637cb95a3214610b3957610524565b80635f14fec8146109c757806360fe47b1146109e357806363b0a976146109ff5780636466802214610a1b5780636a39e32814610a4b5780636b862d6614610a7b57610524565b80634c736099116103b05780634c736099146108f15780635053e4611461092157806351adeb571461093f57806351bf21d81461095d5780635c60da1b1461098d5780635dbf800a146109ab57610524565b80633fbba9a6146108435780633fd4973c14610873578063416a23cc1461088f5780634303d4f71461089957806343873526146108b757806344d96e95146108d357610524565b80631edbcf6c1161049b5780632f7f889e116104545780632f7f889e14610771578063313ce5671461078d57806332347422146107ab578063353a420c146107c75780633a3e6c81146107f75780633f7bcaf31461082757610524565b80631edbcf6c146106b35780631fac9732146106d157806320f6bc90146106ed57806323b872dd14610709578063259f7adf14610739578063277805a91461075557610524565b80630dc6d3a3116104ed5780630dc6d3a3146105df57806310e95b6c146105fb57806315e14bf61461062b57806316f0115b1461065b57806318160ddd146106795780631a08e22a1461069757610524565b80625edd371461052957806306fdde0314610545578063095ea7b314610563578063097c6b7e146105935780630d78ceb4146105af575b600080fd5b610543600480360361053e9190810190615692565b6111c1565b005b61054d61146d565b60405161055a9190615f40565b60405180910390f35b61057d600480360361057891908101906156f5565b6114aa565b60405161058a9190615e75565b60405180910390f35b6105ad60048036036105a891908101906158be565b6114b5565b005b6105c960048036036105c491908101906156f5565b6114c2565b6040516105d69190616082565b60405180910390f35b6105f960048036036105f49190810190615612565b611520565b005b610615600480360361061091908101906158be565b611577565b6040516106229190616082565b60405180910390f35b6106456004803603610640919081019061550f565b61159c565b6040516106529190616082565b60405180910390f35b6106636115ea565b6040516106709190615dfa565b60405180910390f35b610681611619565b60405161068e9190616082565b60405180910390f35b6106b160048036036106ac9190810190615968565b611628565b005b6106bb611636565b6040516106c89190616082565b60405180910390f35b6106eb60048036036106e691908101906158be565b611645565b005b610707600480360361070291908101906156f5565b611651565b005b610723600480360361071e91908101906155c3565b61165f565b6040516107309190615e75565b60405180910390f35b610753600480360361074e91908101906158be565b61166b565b005b61076f600480360361076a91908101906156f5565b611677565b005b61078b600480360361078691908101906156f5565b611710565b005b6107956117f4565b6040516107a29190616134565b60405180910390f35b6107c560048036036107c09190810190615910565b6117fd565b005b6107e160048036036107dc919081019061550f565b611850565b6040516107ee9190616082565b60405180910390f35b610811600480360361080c919081019061550f565b61189e565b60405161081e9190615e75565b60405180910390f35b610841600480360361083c91908101906155c3565b6118ef565b005b61085d60048036036108589190810190615538565b6118ff565b60405161086a9190615efc565b60405180910390f35b61088d60048036036108889190810190615731565b611998565b005b6108976119ed565b005b6108a16119f7565b6040516108ae9190616082565b60405180910390f35b6108d160048036036108cc91908101906158be565b611a04565b005b6108db611a11565b6040516108e89190616082565b60405180910390f35b61090b60048036036109069190810190615968565b611a20565b6040516109189190616082565b60405180910390f35b610929611a5b565b6040516109369190616082565b60405180910390f35b610947611ab2565b6040516109549190615e90565b60405180910390f35b6109776004803603610972919081019061550f565b611ae1565b6040516109849190616082565b60405180910390f35b610995611b2f565b6040516109a29190615dfa565b60405180910390f35b6109c560048036036109c091908101906158be565b611b60565b005b6109e160048036036109dc91908101906156f5565b611b6c565b005b6109fd60048036036109f891908101906158be565b611b7a565b005b610a196004803603610a14919081019061579d565b611b84565b005b610a356004803603610a30919081019061550f565b611b94565b604051610a429190616082565b60405180910390f35b610a656004803603610a6091908101906158be565b611be2565b604051610a729190616082565b60405180910390f35b610a956004803603610a90919081019061579d565b611c0a565b005b610ab16004803603610aac9190810190615895565b611c1a565b005b610acd6004803603610ac8919081019061550f565b611c26565b604051610ada9190616082565b60405180910390f35b610aeb611c74565b005b610b076004803603610b029190810190615910565b611c7e565b005b610b236004803603610b1e91908101906158be565b611cd1565b604051610b309190615e75565b60405180910390f35b610b536004803603610b4e9190810190615731565b611ce5565b005b610b5d611d3a565b604051610b6a9190615eab565b60405180910390f35b610b8d6004803603610b88919081019061550f565b611d69565b604051610b9a9190616082565b60405180910390f35b610bbd6004803603610bb89190810190615574565b611dc6565b005b610bd96004803603610bd4919081019061550f565b611dd6565b604051610be69190616082565b60405180910390f35b610c096004803603610c0491908101906158be565b611e24565b005b610c13611e30565b604051610c209190616082565b60405180910390f35b610c436004803603610c3e91908101906158be565b611e3f565b005b610c4d611fcc565b604051610c5a9190615f40565b60405180910390f35b610c7d6004803603610c78919081019061550f565b612009565b604051610c8a9190615ec6565b60405180910390f35b610c9b6120ce565b604051610ca89190616082565b60405180910390f35b610ccb6004803603610cc69190810190615910565b6120dd565b005b610ce76004803603610ce2919081019061550f565b612130565b604051610cf49190616082565b60405180910390f35b610d176004803603610d12919081019061550f565b61217e565b005b610d336004803603610d2e9190810190615538565b61218a565b604051610d409190616082565b60405180910390f35b610d636004803603610d5e9190810190615968565b612216565b005b610d7f6004803603610d7a919081019061550f565b612232565b604051610d8c9190616082565b60405180910390f35b610d9d61225e565b604051610daa9190616082565b60405180910390f35b610dcd6004803603610dc8919081019061550f565b612303565b005b610de96004803603610de491908101906156f5565b61230f565b604051610df69190615e75565b60405180910390f35b610e196004803603610e1491908101906158be565b61231a565b005b610e356004803603610e3091908101906157ec565b612326565b005b610e516004803603610e4c9190810190615731565b61237d565b005b610e6d6004803603610e6891908101906156f5565b6123d2565b005b610e896004803603610e8491908101906156f5565b6123e0565b005b610ea56004803603610ea091908101906158be565b6123ee565b005b610ec16004803603610ebc9190810190615731565b612405565b005b610ecb61245a565b604051610ed89190616082565b60405180910390f35b610efb6004803603610ef691908101906156f5565b61246a565b604051610f089190616082565b60405180910390f35b610f2b6004803603610f269190810190615538565b6124e5565b005b610f476004803603610f4291908101906157ec565b6124f3565b005b610f636004803603610f5e91908101906158be565b61254a565b604051610f709190616082565b60405180910390f35b610f936004803603610f8e91908101906156f5565b61256f565b005b610f9d61257d565b604051610faa9190616082565b60405180910390f35b610fcd6004803603610fc8919081019061550f565b61258c565b604051610fda9190615e75565b60405180910390f35b610ffd6004803603610ff89190810190615968565b6125e7565b005b611019600480360361101491908101906158be565b6127bb565b005b611035600480360361103091908101906156f5565b6127c7565b005b611051600480360361104c91908101906158be565b6127d5565b60405161105e9190616082565b60405180910390f35b611081600480360361107c9190810190615538565b612874565b60405161108e9190616082565b60405180910390f35b6110b160048036036110ac91908101906158be565b61287f565b005b6110cd60048036036110c891908101906158be565b612889565b6040516110da9190616082565b60405180910390f35b6110eb6129c2565b6040516110f89190615ee1565b60405180910390f35b61111b6004803603611116919081019061550f565b6129df565b6040516111289190616082565b60405180910390f35b611139612a2d565b005b611155600480360361115091908101906156f5565b612a37565b005b611171600480360361116c919081019061579d565b612a45565b005b61117b612a55565b6040516111889190616082565b60405180910390f35b6111ab60048036036111a691908101906158be565b612a64565b6040516111b89190616082565b60405180910390f35b600073ffffffffffffffffffffffffffffffffffffffff168473ffffffffffffffffffffffffffffffffffffffff161415611231576040517f08c379a000000000000000000000000000000000000000000000000000000000815260040161122890616042565b60405180910390fd5b600073ffffffffffffffffffffffffffffffffffffffff168373ffffffffffffffffffffffffffffffffffffffff1614156112a1576040517f08c379a000000000000000000000000000000000000000000000000000000000815260040161129890615fe2565b60405180910390fd5b60006113116112b086856114c2565b6040518060400160405280601581526020017f4d61726b65743a204e6f20756e6465726c79696e670000000000000000000000815250611302856112f48a8961246a565b612a8690919063ffffffff16565b612af69092919063ffffffff16565b90506113378584846040518060600160405280602e81526020016163ba602e9139612b57565b611342848484612c3f565b6113668584836040518060600160405280602381526020016163e860239139612d22565b611371848483612e67565b8473ffffffffffffffffffffffffffffffffffffffff163373ffffffffffffffffffffffffffffffffffffffff16141580156113d657507fffffffffffffffffffffffffffffffffffffffffffffffffffffffffffffffff6113d3863361218a565b14155b15611400576113ff85338460405180606001604052806024815260200161640b60249139612fa5565b5b828473ffffffffffffffffffffffffffffffffffffffff168673ffffffffffffffffffffffffffffffffffffffff167f0f1dbb1ccbe57a1590c7baad7b01d581b730c9ebc535dcde4345e6db424063d88560405161145e9190616082565b60405180910390a45050505050565b60606040518060400160405280601681526020017f456d7074792053657420446f6c6c6172205374616b6500000000000000000000815250905090565b600080905092915050565b6114be816130c8565b5050565b6000600f60000160008473ffffffffffffffffffffffffffffffffffffffff1673ffffffffffffffffffffffffffffffffffffffff168152602001908152602001600020600083815260200190815260200160002054905092915050565b61157085858585858080601f016020809104026020016040519081016040528093929190818152602001838380828437600081840152601f19601f82011690508083019250505050505050612fa5565b5050505050565b600080600d016000838152602001908152602001600020600101600101549050919050565b600080600e0160008373ffffffffffffffffffffffffffffffffffffffff1673ffffffffffffffffffffffffffffffffffffffff168152602001908152602001600020600101549050919050565b60008060090160020160009054906101000a900473ffffffffffffffffffffffffffffffffffffffff16905090565b60008060030160000154905090565b61163282826130f4565b5050565b60008060030160030154905090565b61164e8161315f565b50565b61165b82826131a9565b5050565b60008090509392505050565b61167481613269565b50565b61167f611ab2565b73ffffffffffffffffffffffffffffffffffffffff166340c10f1983836040518363ffffffff1660e01b81526004016116b9929190615e4c565b602060405180830381600087803b1580156116d357600080fd5b505af11580156116e7573d6000803e3d6000fd5b505050506040513d601f19601f8201168201806040525061170b919081019061586c565b505050565b600073ffffffffffffffffffffffffffffffffffffffff168273ffffffffffffffffffffffffffffffffffffffff161415611780576040517f08c379a000000000000000000000000000000000000000000000000000000000815260040161177790616022565b60405180910390fd5b61178b338383613293565b8173ffffffffffffffffffffffffffffffffffffffff163373ffffffffffffffffffffffffffffffffffffffff167f8ff27e6b95060c1ca851e7c2c28af8b413eb1a8bcb637b0290da9543a709cce3836040516117e89190616082565b60405180910390a35050565b60006012905090565b61184b8383838080601f016020809104026020016040519081016040528093929190818152602001838380828437600081840152601f19601f8201169050808301925050505050505061331f565b505050565b600080600e0160008373ffffffffffffffffffffffffffffffffffffffff1673ffffffffffffffffffffffffffffffffffffffff168152602001908152602001600020600301549050919050565b6000806000600e0160008473ffffffffffffffffffffffffffffffffffffffff1673ffffffffffffffffffffffffffffffffffffffff16815260200190815260200160002060000154119050919050565b6118fa838383613293565b505050565b600080600e0160008373ffffffffffffffffffffffffffffffffffffffff1673ffffffffffffffffffffffffffffffffffffffff16815260200190815260200160002060040160008473ffffffffffffffffffffffffffffffffffffffff1673ffffffffffffffffffffffffffffffffffffffff16815260200190815260200160002060009054906101000a900460ff16905092915050565b6119e7848484848080601f016020809104026020016040519081016040528093929190818152602001838380828437600081840152601f19601f8201169050808301925050505050505061334c565b50505050565b6119f56133f4565b565b6000600f60010154905090565b611a0d81613471565b5050565b60008060030160010154905090565b600080600d0160008481526020019081526020016000206001016002018281548110611a4857fe5b9060005260206000200154905092915050565b6000611a65615413565b611a6d6134c2565b9050611a77615413565b611a7f6134f1565b90508160200151611a8e613521565b10611aa157611a9c8261352b565b611aab565b611aaa8161352b565b5b9250505090565b60008060090160000160009054906101000a900473ffffffffffffffffffffffffffffffffffffffff16905090565b600080600c0160008373ffffffffffffffffffffffffffffffffffffffff1673ffffffffffffffffffffffffffffffffffffffff168152602001908152602001600020600401549050919050565b6000807f360894a13ba1a3210667c828492db98dca3e2076cc3735a920a3ca505d382bbc60001b9050805491505090565b611b698161357e565b50565b611b76828261361d565b5050565b8060148190555050565b611b8f838383613754565b505050565b600080600e0160008373ffffffffffffffffffffffffffffffffffffffff1673ffffffffffffffffffffffffffffffffffffffff168152602001908152602001600020600201549050919050565b600080600d016000838152602001908152602001600020600101600201805490509050919050565b611c15838383612e67565b505050565b611c23816138b6565b50565b600080600c0160008373ffffffffffffffffffffffffffffffffffffffff1673ffffffffffffffffffffffffffffffffffffffff168152602001908152602001600020600101549050919050565b611c7c6138f6565b565b611ccc8383838080601f016020809104026020016040519081016040528093929190818152602001838380828437600081840152601f19601f82011690508083019250505050505050613924565b505050565b6000611cdb613951565b8211159050919050565b611d34848484848080601f016020809104026020016040519081016040528093929190818152602001838380828437600081840152601f19601f8201169050808301925050505050505061395a565b50505050565b60008060090160010160009054906101000a900473ffffffffffffffffffffffffffffffffffffffff16905090565b600080611d74611619565b90506000811415611d89576000915050611dc1565b611dbd81611daf611d9986611c26565b611da1611a11565b612a8690919063ffffffff16565b613a0290919063ffffffff16565b9150505b919050565b611dd1838383613a4c565b505050565b600080600c0160008373ffffffffffffffffffffffffffffffffffffffff1673ffffffffffffffffffffffffffffffffffffffff168152602001908152602001600020600001549050919050565b611e2d81613af4565b50565b60008060000160020154905090565b6000611e4b338361246a565b905060008111611e90576040517f08c379a0000000000000000000000000000000000000000000000000000000008152600401611e8790615fa2565b60405180910390fd5b6000611e9c33846114c2565b14611edc576040517f08c379a0000000000000000000000000000000000000000000000000000000008152600401611ed390615f82565b60405180910390fd5b6000611ef2600283613a0290919063ffffffff16565b9050611eff338483612c3f565b611f233384836040518060600160405280602381526020016163e860239139612d22565b823373ffffffffffffffffffffffffffffffffffffffff167f652fd9d5d1fdb4fff834b67018ec390a5938bc4c86fae1b87a3a3b7cf8681a72600084604051611f6d929190615f17565b60405180910390a3823373ffffffffffffffffffffffffffffffffffffffff167fbce252db29f761f815dc2e9ea60005af065efba6eb619d2a0b2a113fdeb61414836000604051611fbf92919061609d565b60405180910390a3505050565b60606040518060400160405280600481526020017f4553445300000000000000000000000000000000000000000000000000000000815250905090565b6000612013611e30565b6000600c0160008473ffffffffffffffffffffffffffffffffffffffff1673ffffffffffffffffffffffffffffffffffffffff16815260200190815260200160002060050154111561206857600290506120c9565b6000600c0160008373ffffffffffffffffffffffffffffffffffffffff1673ffffffffffffffffffffffffffffffffffffffff168152602001908152602001600020600401546120b6611e30565b10156120c35760016120c6565b60005b90505b919050565b60008060030160050154905090565b61212b8383838080601f016020809104026020016040519081016040528093929190818152602001838380828437600081840152601f19601f82011690508083019250505050505050613b1e565b505050565b600080600c0160008373ffffffffffffffffffffffffffffffffffffffff1673ffffffffffffffffffffffffffffffffffffffff168152602001908152602001600020600501549050919050565b61218781613b4b565b50565b600080600c0160008473ffffffffffffffffffffffffffffffffffffffff1673ffffffffffffffffffffffffffffffffffffffff16815260200190815260200160002060030160008373ffffffffffffffffffffffffffffffffffffffff1673ffffffffffffffffffffffffffffffffffffffff16815260200190815260200160002054905092915050565b8160008001600001819055508060008001600101819055505050565b600061225761224083611850565b61224984611b94565b613bb890919063ffffffff16565b9050919050565b60006122fe61226b612a55565b612273611ab2565b73ffffffffffffffffffffffffffffffffffffffff166318160ddd6040518163ffffffff1660e01b815260040160206040518083038186803b1580156122b857600080fd5b505afa1580156122cc573d6000803e3d6000fd5b505050506040513d601f19601f820116820180604052506122f091908101906158e7565b613c0d90919063ffffffff16565b905090565b61230c81613c57565b50565b600080905092915050565b61232381613cb8565b50565b61237685858585858080601f016020809104026020016040519081016040528093929190818152602001838380828437600081840152601f19601f82011690508083019250505050505050612b57565b5050505050565b6123cc848484848080601f016020809104026020016040519081016040528093929190818152602001838380828437600081840152601f19601f82011690508083019250505050505050613d21565b50505050565b6123dc8282613e58565b5050565b6123ea8282613f8a565b5050565b6124016123fc826064614056565b614087565b5050565b612454848484848080601f016020809104026020016040519081016040528093929190818152602001838380828437600081840152601f19601f82011690508083019250505050505050614176565b50505050565b6000601160000160010154905090565b6000806124768361254a565b141561248557600090506124df565b6000600c0160008473ffffffffffffffffffffffffffffffffffffffff1673ffffffffffffffffffffffffffffffffffffffff16815260200190815260200160002060020160008381526020019081526020016000205490505b92915050565b6124ef8282614247565b5050565b61254385858585858080601f016020809104026020016040519081016040528093929190818152602001838380828437600081840152601f19601f82011690508083019250505050505050612d22565b5050505050565b600080600d016000838152602001908152602001600020600101600001549050919050565b6125798282614310565b5050565b60008060030160020154905090565b600080600e0160008373ffffffffffffffffffffffffffffffffffffffff1673ffffffffffffffffffffffffffffffffffffffff16815260200190815260200160002060050160009054906101000a900460ff169050919050565b6002612603836125f5611e30565b613c0d90919063ffffffff16565b1015612644576040517f08c379a000000000000000000000000000000000000000000000000000000000815260040161263b90616062565b60405180910390fd5b6000811415612688576040517f08c379a000000000000000000000000000000000000000000000000000000000815260040161267f90615fc2565b60405180910390fd5b60006126f861269733856114c2565b6040518060400160405280601581526020017f4d61726b65743a204e6f20756e6465726c79696e6700000000000000000000008152506126e9856126db338961246a565b612a8690919063ffffffff16565b612af69092919063ffffffff16565b9050600061270684836143b5565b905061272c3385856040518060600160405280602e81526020016163ba602e9139612b57565b60008214612759576127583385846040518060600160405280602381526020016163e860239139612d22565b5b612764338483613754565b833373ffffffffffffffffffffffffffffffffffffffff167f652fd9d5d1fdb4fff834b67018ec390a5938bc4c86fae1b87a3a3b7cf8681a7285856040516127ad9291906160c6565b60405180910390a350505050565b6127c481614456565b50565b6127d18282614480565b5050565b600061286d6127e2611ab2565b73ffffffffffffffffffffffffffffffffffffffff166318160ddd6040518163ffffffff1660e01b815260040160206040518083038186803b15801561282757600080fd5b505afa15801561283b573d6000803e3d6000fd5b505050506040513d601f19601f8201168201806040525061285f91908101906158e7565b612867612a55565b8461451f565b9050919050565b600080905092915050565b8060138190555050565b60006128d9600083117f4d61726b657400000000000000000000000000000000000000000000000000007f4d757374207075726368617365206e6f6e2d7a65726f20616d6f756e7400000061454f565b61292e826128e5612a55565b10157f4d61726b657400000000000000000000000000000000000000000000000000007f4e6f7420656e6f7567682064656274000000000000000000000000000000000061454f565b6000612938611e30565b90506000612945846127d5565b9050612952338383612e67565b61295d338386612c3f565b612967338561361d565b813373ffffffffffffffffffffffffffffffffffffffff167fbce252db29f761f815dc2e9ea60005af065efba6eb619d2a0b2a113fdeb6141486846040516129b09291906160c6565b60405180910390a38092505050919050565b6000601160000160000160009054906101000a900460ff16905090565b600080600e0160008373ffffffffffffffffffffffffffffffffffffffff1673ffffffffffffffffffffffffffffffffffffffff168152602001908152602001600020600001549050919050565b612a356145ce565b565b612a4182826145f6565b5050565b612a50838383612c3f565b505050565b60008060030160040154905090565b600080600d016000838152602001908152602001600020600001549050919050565b600080831415612a995760009050612af0565b6000828402905082848281612aaa57fe5b0414612aeb576040517f08c379a0000000000000000000000000000000000000000000000000000000008152600401612ae290616002565b60405180910390fd5b809150505b92915050565b60008083118290612b3d576040517f08c379a0000000000000000000000000000000000000000000000000000000008152600401612b349190615f40565b60405180910390fd5b506000838581612b4957fe5b049050809150509392505050565b612bbf8282600f60000160008873ffffffffffffffffffffffffffffffffffffffff1673ffffffffffffffffffffffffffffffffffffffff16815260200190815260200160002060008781526020019081526020016000205461469b9092919063ffffffff16565b600f60000160008673ffffffffffffffffffffffffffffffffffffffff1673ffffffffffffffffffffffffffffffffffffffff168152602001908152602001600020600085815260200190815260200160002081905550612c308282600f6001015461469b9092919063ffffffff16565b600f6001018190555050505050565b612ca581600f60000160008673ffffffffffffffffffffffffffffffffffffffff1673ffffffffffffffffffffffffffffffffffffffff168152602001908152602001600020600085815260200190815260200160002054613bb890919063ffffffff16565b600f60000160008573ffffffffffffffffffffffffffffffffffffffff1673ffffffffffffffffffffffffffffffffffffffff168152602001908152602001600020600084815260200190815260200160002081905550612d1481600f60010154613bb890919063ffffffff16565b600f60010181905550505050565b612d8d82826000600c0160008873ffffffffffffffffffffffffffffffffffffffff1673ffffffffffffffffffffffffffffffffffffffff16815260200190815260200160002060020160008781526020019081526020016000205461469b9092919063ffffffff16565b6000600c0160008673ffffffffffffffffffffffffffffffffffffffff1673ffffffffffffffffffffffffffffffffffffffff168152602001908152602001600020600201600085815260200190815260200160002081905550612e1882826000600d0160008781526020019081526020016000206001016000015461469b9092919063ffffffff16565b6000600d01600085815260200190815260200160002060010160000181905550612e55828260006003016005015461469b9092919063ffffffff16565b60006003016005018190555050505050565b612ed0816000600c0160008673ffffffffffffffffffffffffffffffffffffffff1673ffffffffffffffffffffffffffffffffffffffff168152602001908152602001600020600201600085815260200190815260200160002054613bb890919063ffffffff16565b6000600c0160008573ffffffffffffffffffffffffffffffffffffffff1673ffffffffffffffffffffffffffffffffffffffff168152602001908152602001600020600201600084815260200190815260200160002081905550612f59816000600d01600085815260200190815260200160002060010160000154613bb890919063ffffffff16565b6000600d01600084815260200190815260200160002060010160000181905550612f9481600060030160050154613bb890919063ffffffff16565b600060030160050181905550505050565b61303c82826000600c0160008873ffffffffffffffffffffffffffffffffffffffff1673ffffffffffffffffffffffffffffffffffffffff16815260200190815260200160002060030160008773ffffffffffffffffffffffffffffffffffffffff1673ffffffffffffffffffffffffffffffffffffffff1681526020019081526020016000205461469b9092919063ffffffff16565b6000600c0160008673ffffffffffffffffffffffffffffffffffffffff1673ffffffffffffffffffffffffffffffffffffffff16815260200190815260200160002060030160008573ffffffffffffffffffffffffffffffffffffffff1673ffffffffffffffffffffffffffffffffffffffff1681526020019081526020016000208190555050505050565b6000806130d4836146f6565b90506130de6147bb565b806130ea5760006130ec565b825b915050919050565b806000600d016000848152602001908152602001600020600101600101819055506000600d0160008281526020019081526020016000206001016002018290806001815401808255809150509060018203906000526020600020016000909192909190915055505050565b61319e816040518060400160405280601c81526020017f436f6d7074726f6c6c65723a206e6f7420656e6f756768206465627400000000815250613924565b6131a66147bb565b50565b6131b1611ab2565b73ffffffffffffffffffffffffffffffffffffffff166340c10f1983836040518363ffffffff1660e01b81526004016131eb929190615e4c565b602060405180830381600087803b15801561320557600080fd5b505af1158015613219573d6000803e3d6000fd5b505050506040513d601f19601f8201168201806040525061323d919081019061586c565b5061324e613249611e30565b611cd1565b61325d5761325b81613471565b505b6132656147bb565b5050565b61328481600060030160010154613bb890919063ffffffff16565b60006003016001018190555050565b806000600c0160008573ffffffffffffffffffffffffffffffffffffffff1673ffffffffffffffffffffffffffffffffffffffff16815260200190815260200160002060030160008473ffffffffffffffffffffffffffffffffffffffff1673ffffffffffffffffffffffffffffffffffffffff16815260200190815260200160002081905550505050565b61333c828260006003016003015461469b9092919063ffffffff16565b6000600301600301819055505050565b6133a682826000600e0160008773ffffffffffffffffffffffffffffffffffffffff1673ffffffffffffffffffffffffffffffffffffffff1681526020019081526020016000206003015461469b9092919063ffffffff16565b6000600e0160008573ffffffffffffffffffffffffffffffffffffffff1673ffffffffffffffffffffffffffffffffffffffff16815260200190815260200160002060030181905550505050565b60008090505b61340a613405611e30565b611be2565b8110156134375761342a61342561341f611e30565b83611a20565b6148d3565b80806001019150506133fa565b50600061345b613445614988565b61344d611e30565b613bb890919063ffffffff16565b905061346e613468611e30565b826130f4565b50565b600061347c82613af4565b600061348e613489614991565b614087565b90506134986147bb565b8281116134b7576134b28184613c0d90919063ffffffff16565b6134ba565b60005b915050919050565b6134ca615413565b6040518060600160405280606a8152602001635f7fa8008152602001617080815250905090565b6134f9615413565b6040518060600160405280605b8152602001635f6be180815260200162015180815250905090565b6000601354905090565b60006135778260000151613569846040015161355b866020015161354d613521565b613c0d90919063ffffffff16565b613a0290919063ffffffff16565b613bb890919063ffffffff16565b9050919050565b613586611ab2565b73ffffffffffffffffffffffffffffffffffffffff166342966c68826040518263ffffffff1660e01b81526004016135be9190616082565b600060405180830381600087803b1580156135d857600080fd5b505af11580156135ec573d6000803e3d6000fd5b50505050613612816040518060600160405280602a8152602001616457602a913961331f565b61361a6147bb565b50565b613625611ab2565b73ffffffffffffffffffffffffffffffffffffffff166323b872dd8330846040518463ffffffff1660e01b815260040161366193929190615e15565b602060405180830381600087803b15801561367b57600080fd5b505af115801561368f573d6000803e3d6000fd5b505050506040513d601f19601f820116820180604052506136b3919081019061586c565b506136bc611ab2565b73ffffffffffffffffffffffffffffffffffffffff166342966c68826040518263ffffffff1660e01b81526004016136f49190616082565b600060405180830381600087803b15801561370e57600080fd5b505af1158015613722573d6000803e3d6000fd5b505050506137488160405180606001604052806028815260200161642f60289139613924565b6137506147bb565b5050565b61375c611ab2565b73ffffffffffffffffffffffffffffffffffffffff166340c10f1984846040518363ffffffff1660e01b8152600401613796929190615e4c565b602060405180830381600087803b1580156137b057600080fd5b505af11580156137c4573d6000803e3d6000fd5b505050506040513d601f19601f820116820180604052506137e8919081019061586c565b50600081146138a9576137f9611ab2565b73ffffffffffffffffffffffffffffffffffffffff1663a9059cbb84836040518363ffffffff1660e01b8152600401613833929190615e4c565b602060405180830381600087803b15801561384d57600080fd5b505af1158015613861573d6000803e3d6000fd5b505050506040513d601f19601f82011682018060405250613885919081019061586c565b506138a8816040518060600160405280602a8152602001616457602a913961331f565b5b6138b16147bb565b505050565b80601160000160000160006101000a81548160ff021916908360018111156138da57fe5b02179055506138e7611e30565b60116000016001018190555050565b6138fe611619565b6000600d01600061390d611e30565b815260200190815260200160002060000181905550565b613941828260006003016004015461469b9092919063ffffffff16565b6000600301600401819055505050565b6000605a905090565b6139b482826000600e0160008773ffffffffffffffffffffffffffffffffffffffff1673ffffffffffffffffffffffffffffffffffffffff1681526020019081526020016000206002015461469b9092919063ffffffff16565b6000600e0160008573ffffffffffffffffffffffffffffffffffffffff1673ffffffffffffffffffffffffffffffffffffffff16815260200190815260200160002060020181905550505050565b6000613a4483836040518060400160405280601a81526020017f536166654d6174683a206469766973696f6e206279207a65726f000000000000815250612af6565b905092915050565b806000600e0160008473ffffffffffffffffffffffffffffffffffffffff1673ffffffffffffffffffffffffffffffffffffffff16815260200190815260200160002060040160008573ffffffffffffffffffffffffffffffffffffffff1673ffffffffffffffffffffffffffffffffffffffff16815260200190815260200160002060006101000a81548160ff02191690836002811115613aea57fe5b0217905550505050565b613b0f81600060030160040154613bb890919063ffffffff16565b60006003016004018190555050565b613b3b828260006003016001015461469b9092919063ffffffff16565b6000600301600101819055505050565b613b6c613b566149b5565b613b5e611e30565b613bb890919063ffffffff16565b6000600c0160008373ffffffffffffffffffffffffffffffffffffffff1673ffffffffffffffffffffffffffffffffffffffff1681526020019081526020016000206004018190555050565b600080828401905083811015613c03576040517f08c379a0000000000000000000000000000000000000000000000000000000008152600401613bfa90615f62565b60405180910390fd5b8091505092915050565b6000613c4f83836040518060400160405280601e81526020017f536166654d6174683a207375627472616374696f6e206f766572666c6f77000081525061469b565b905092915050565b60016000600e0160008373ffffffffffffffffffffffffffffffffffffffff1673ffffffffffffffffffffffffffffffffffffffff16815260200190815260200160002060050160006101000a81548160ff02191690831515021790555050565b6000613cc38261254a565b90506000811415613cd45750613d1e565b613cef81600060030160050154613c0d90919063ffffffff16565b600060030160050181905550600080600d01600084815260200190815260200160002060010160000181905550505b50565b613d7b82826000600c0160008773ffffffffffffffffffffffffffffffffffffffff1673ffffffffffffffffffffffffffffffffffffffff1681526020019081526020016000206001015461469b9092919063ffffffff16565b6000600c0160008573ffffffffffffffffffffffffffffffffffffffff1673ffffffffffffffffffffffffffffffffffffffff16815260200190815260200160002060010181905550613de1828260006003016000015461469b9092919063ffffffff16565b600060030160000181905550600073ffffffffffffffffffffffffffffffffffffffff168373ffffffffffffffffffffffffffffffffffffffff167fddf252ad1be2c89b69c2b068fc378daa952ba7f163c4a11628f55a4df523b3ef84604051613e4b9190616082565b60405180910390a3505050565b613eb0816000600c0160008573ffffffffffffffffffffffffffffffffffffffff1673ffffffffffffffffffffffffffffffffffffffff16815260200190815260200160002060010154613bb890919063ffffffff16565b6000600c0160008473ffffffffffffffffffffffffffffffffffffffff1673ffffffffffffffffffffffffffffffffffffffff16815260200190815260200160002060010181905550613f1481600060030160000154613bb890919063ffffffff16565b6000600301600001819055508173ffffffffffffffffffffffffffffffffffffffff16600073ffffffffffffffffffffffffffffffffffffffff167fddf252ad1be2c89b69c2b068fc378daa952ba7f163c4a11628f55a4df523b3ef83604051613f7e9190616082565b60405180910390a35050565b613fe2816000600c0160008573ffffffffffffffffffffffffffffffffffffffff1673ffffffffffffffffffffffffffffffffffffffff16815260200190815260200160002060000154613bb890919063ffffffff16565b6000600c0160008473ffffffffffffffffffffffffffffffffffffffff1673ffffffffffffffffffffffffffffffffffffffff1681526020019081526020016000206000018190555061404681600060030160020154613bb890919063ffffffff16565b6000600301600201819055505050565b61405e615434565b604051806020016040528061407c85670de0b6b3a7640000866149be565b815250905092915050565b600080614129614124614098611ab2565b73ffffffffffffffffffffffffffffffffffffffff166318160ddd6040518163ffffffff1660e01b815260040160206040518083038186803b1580156140dd57600080fd5b505afa1580156140f1573d6000803e3d6000fd5b505050506040513d601f19601f8201168201806040525061411591908101906158e7565b856149ee90919063ffffffff16565b614a23565b90506000614135612a55565b90508181111561416a5760006141548383613c0d90919063ffffffff16565b905061415f8161315f565b809350505050614171565b6000925050505b919050565b6141d082826000600c0160008773ffffffffffffffffffffffffffffffffffffffff1673ffffffffffffffffffffffffffffffffffffffff1681526020019081526020016000206000015461469b9092919063ffffffff16565b6000600c0160008573ffffffffffffffffffffffffffffffffffffffff1673ffffffffffffffffffffffffffffffffffffffff16815260200190815260200160002060000181905550614236828260006003016002015461469b9092919063ffffffff16565b600060030160020181905550505050565b600080600c0160008473ffffffffffffffffffffffffffffffffffffffff1673ffffffffffffffffffffffffffffffffffffffff16815260200190815260200160002060050154905060006142b561429e8461159c565b6142a7856129df565b613bb890919063ffffffff16565b90508181111561430a57806000600c0160008673ffffffffffffffffffffffffffffffffffffffff1673ffffffffffffffffffffffffffffffffffffffff168152602001908152602001600020600501819055505b50505050565b614368816000600e0160008573ffffffffffffffffffffffffffffffffffffffff1673ffffffffffffffffffffffffffffffffffffffff16815260200190815260200160002060030154613bb890919063ffffffff16565b6000600e0160008473ffffffffffffffffffffffffffffffffffffffff1673ffffffffffffffffffffffffffffffffffffffff168152602001908152602001600020600301819055505050565b60006143bf614a4b565b8310156143ce57819050614450565b60006143d8614a55565b905060008482116143ea5760006143fe565b6143fd8583613c0d90919063ffffffff16565b5b9050614408614988565b8111614414578061441d565b61441c614988565b5b905061444b61442a614988565b61443d8387612a8690919063ffffffff16565b613a0290919063ffffffff16565b925050505b92915050565b61447181600060030160030154613bb890919063ffffffff16565b60006003016003018190555050565b614488611e30565b6000600e0160008473ffffffffffffffffffffffffffffffffffffffff1673ffffffffffffffffffffffffffffffffffffffff16815260200190815260200160002060000181905550806000600e0160008473ffffffffffffffffffffffffffffffffffffffff1673ffffffffffffffffffffffffffffffffffffffff168152602001908152602001600020600101819055505050565b600061454661454183614533878787614ad5565b6149ee90919063ffffffff16565b614a23565b90509392505050565b826145c95761455d82614c6f565b613a2060f01b61456c83614c6f565b60405160200161457e93929190615dc5565b6040516020818303038152906040526040517f08c379a00000000000000000000000000000000000000000000000000000000081526004016145c09190615f40565b60405180910390fd5b505050565b6145e960016000800160020154613bb890919063ffffffff16565b6000800160020181905550565b61464e816000600e0160008573ffffffffffffffffffffffffffffffffffffffff1673ffffffffffffffffffffffffffffffffffffffff16815260200190815260200160002060020154613bb890919063ffffffff16565b6000600e0160008473ffffffffffffffffffffffffffffffffffffffff1673ffffffffffffffffffffffffffffffffffffffff168152602001908152602001600020600201819055505050565b60008383111582906146e3576040517f08c379a00000000000000000000000000000000000000000000000000000000081526004016146da9190615f40565b60405180910390fd5b5060008385039050809150509392505050565b600080614701611a11565b141590506000821180156147125750805b156147b65761471f611ab2565b73ffffffffffffffffffffffffffffffffffffffff166340c10f1930846040518363ffffffff1660e01b8152600401614759929190615e4c565b602060405180830381600087803b15801561477357600080fd5b505af1158015614787573d6000803e3d6000fd5b505050506040513d601f19601f820116820180604052506147ab919081019061586c565b506147b582613269565b5b919050565b6148d16147f86147c9611636565b6147ea6147d461257d565b6147dc611a11565b613bb890919063ffffffff16565b613bb890919063ffffffff16565b614800611ab2565b73ffffffffffffffffffffffffffffffffffffffff166370a08231306040518263ffffffff1660e01b81526004016148389190615dfa565b60206040518083038186803b15801561485057600080fd5b505afa158015614864573d6000803e3d6000fd5b505050506040513d601f19601f8201168201806040525061488891908101906158e7565b10157f436f6d7074726f6c6c65720000000000000000000000000000000000000000007f496e636f6e73697374656e742062616c616e636573000000000000000000000061454f565b565b60006148de8261254a565b9050600080600080915091506148f384613cb8565b60006148fd611636565b905060006149096120ce565b905080821115614941576149268183613c0d90919063ffffffff16565b93506149318461357e565b61493a84614d4a565b9050809350505b857f753df65b37159bf237ae1fca97ba1bd57cf83bc9498f271a514a4d7bafe87bda868660008760405161497894939291906160ef565b60405180910390a2505050505050565b6000605a905090565b614999615434565b60405180602001604052806702c68af0bb140000815250905090565b6000600f905090565b60006149e5826149d78587612a8690919063ffffffff16565b613a0290919063ffffffff16565b90509392505050565b6149f6615434565b6040518060200160405280614a18848660000151612a8690919063ffffffff16565b815250905092915050565b6000614a44670de0b6b3a76400008360000151613a0290919063ffffffff16565b9050919050565b6000601454905090565b6000806001811115614a6357fe5b614a6b6129c2565b6001811115614a7657fe5b1415614ab4576000614a8661245a565b905060008114614aa957614aa4600182613c0d90919063ffffffff16565b614aac565b60005b915050614ad2565b614acf6001614ac1611e30565b613c0d90919063ffffffff16565b90505b90565b614add615434565b614ae5615434565b614aef8486614056565b9050614af9615434565b614b01614991565b90506000614b188588613c0d90919063ffffffff16565b90506000614b2f8688613c0d90919063ffffffff16565b9050614b39615434565b614b438284614056565b9050614b588486614ead90919063ffffffff16565b15614c5657614b708482614ead90919063ffffffff16565b15614b8a57614b7e84614ec4565b95505050505050614c68565b614b92615434565b614b9c8286614f32565b9050614ba6615434565b614bb98387614fe290919063ffffffff16565b9050614bc3615434565b614bcc87614ec4565b9050614bd6615434565b614be9888a614fe290919063ffffffff16565b9050614c46614c01828561501b90919063ffffffff16565b614c38614c17848661505490919063ffffffff16565b614c2a878961505490919063ffffffff16565b61501b90919063ffffffff16565b61508d90919063ffffffff16565b9950505050505050505050614c68565b614c608186614f32565b955050505050505b9392505050565b60608082604051602001614c839190615daa565b60405160208183030381529060405290506000602090505b6000811115614d0b57808060019003915050600060f81b828281518110614cbe57fe5b602001015160f81c60f81b7effffffffffffffffffffffffffffffffffffffffffffffffffffffffffffff191614614d06576000600182019050808352829350505050614d45565b614c9b565b5060006040519080825280601f01601f191660200182016040528015614d405781602001600182028038833980820191505090505b509150505b919050565b6000806000614d7c6064614d6e614d5f6150c6565b87612a8690919063ffffffff16565b613a0290919063ffffffff16565b9050614d87816150cf565b6000614db7612710614da9614d9a615178565b88612a8690919063ffffffff16565b613a0290919063ffffffff16565b9050614dc281615181565b6000614dd78284613bb890919063ffffffff16565b9050808611614de7576000614dfb565b614dfa8187613c0d90919063ffffffff16565b5b955060008090506000614e0c611636565b90506000614e186120ce565b905080821015614e6757614e358282613c0d90919063ffffffff16565b9250888311614e445782614e46565b885b9250614e518361522a565b614e64838a613c0d90919063ffffffff16565b98505b6000614e728a6146f6565b9050614e7c6147bb565b83614e9d8683614e8d576000614e8f565b8c5b613bb890919063ffffffff16565b9850985050505050505050915091565b60006002614ebb84846152d3565b14905092915050565b614ecc615434565b614f2b614ed7615313565b614f1d614f076002614ef987614eeb615313565b614fe290919063ffffffff16565b61533790919063ffffffff16565b614f0f615313565b61508d90919063ffffffff16565b614fe290919063ffffffff16565b9050919050565b614f3a615434565b614f4d82846153aa90919063ffffffff16565b15614f6257614f5b83614ec4565b9050614fdc565b614fd9614f6d615313565b614fcb614fb5614f8d87614f7f615313565b614fe290919063ffffffff16565b614fa787614f99615313565b614fe290919063ffffffff16565b61505490919063ffffffff16565b614fbd615313565b61508d90919063ffffffff16565b614fe290919063ffffffff16565b90505b92915050565b614fea615434565b604051806020016040528061501084600001518660000151613c0d90919063ffffffff16565b815250905092915050565b615023615434565b604051806020016040528061504984600001518660000151613bb890919063ffffffff16565b815250905092915050565b61505c615434565b604051806020016040528061508285600001518560000151670de0b6b3a76400006149be565b815250905092915050565b615095615434565b60405180602001604052806150bb8560000151670de0b6b3a764000086600001516149be565b815250905092915050565b60006014905090565b6000811115615175576150e0611ab2565b73ffffffffffffffffffffffffffffffffffffffff166340c10f196151036115ea565b836040518363ffffffff1660e01b8152600401615121929190615e4c565b602060405180830381600087803b15801561513b57600080fd5b505af115801561514f573d6000803e3d6000fd5b505050506040513d601f19601f82011682018060405250615173919081019061586c565b505b50565b600060fa905090565b600081111561522757615192611ab2565b73ffffffffffffffffffffffffffffffffffffffff166340c10f196151b56153bf565b836040518363ffffffff1660e01b81526004016151d3929190615e4c565b602060405180830381600087803b1580156151ed57600080fd5b505af1158015615201573d6000803e3d6000fd5b505050506040513d601f19601f82011682018060405250615225919081019061586c565b505b50565b615232611ab2565b73ffffffffffffffffffffffffffffffffffffffff166340c10f1930836040518363ffffffff1660e01b815260040161526c929190615e4c565b602060405180830381600087803b15801561528657600080fd5b505af115801561529a573d6000803e3d6000fd5b505050506040513d601f19601f820116820180604052506152be919081019061586c565b506152c881614456565b6152d06147bb565b50565b60008160000151836000015114156152ee576001905061530d565b8160000151836000015111615304576000615307565b60025b60ff1690505b92915050565b61531b615434565b6040518060200160405280670de0b6b3a7640000815250905090565b61533f615434565b60008214156153595761535260016153db565b90506153a4565b615361615434565b6040518060200160405280856000015181525090506000600190505b8381101561539e5761538f8286615054565b9150808060010191505061537d565b50809150505b92915050565b60008160000151836000015114905092915050565b600073460661bd4a5364a3abcc9cfc4a8ce7038d05ea22905090565b6153e3615434565b6040518060200160405280615409670de0b6b3a764000085612a8690919063ffffffff16565b8152509050919050565b60405180606001604052806000815260200160008152602001600081525090565b6040518060200160405280600081525090565b60008135905061545681616354565b92915050565b60008151905061546b8161636b565b92915050565b60008135905061548081616382565b92915050565b60008135905061549581616392565b92915050565b60008083601f8401126154ad57600080fd5b8235905067ffffffffffffffff8111156154c657600080fd5b6020830191508360018202830111156154de57600080fd5b9250929050565b6000813590506154f4816163a2565b92915050565b600081519050615509816163a2565b92915050565b60006020828403121561552157600080fd5b600061552f84828501615447565b91505092915050565b6000806040838503121561554b57600080fd5b600061555985828601615447565b925050602061556a85828601615447565b9150509250929050565b60008060006060848603121561558957600080fd5b600061559786828701615447565b93505060206155a886828701615447565b92505060406155b986828701615486565b9150509250925092565b6000806000606084860312156155d857600080fd5b60006155e686828701615447565b93505060206155f786828701615447565b9250506040615608868287016154e5565b9150509250925092565b60008060008060006080868803121561562a57600080fd5b600061563888828901615447565b955050602061564988828901615447565b945050604061565a888289016154e5565b935050606086013567ffffffffffffffff81111561567757600080fd5b6156838882890161549b565b92509250509295509295909350565b600080600080608085870312156156a857600080fd5b60006156b687828801615447565b94505060206156c787828801615447565b93505060406156d8878288016154e5565b92505060606156e9878288016154e5565b91505092959194509250565b6000806040838503121561570857600080fd5b600061571685828601615447565b9250506020615727858286016154e5565b9150509250929050565b6000806000806060858703121561574757600080fd5b600061575587828801615447565b9450506020615766878288016154e5565b935050604085013567ffffffffffffffff81111561578357600080fd5b61578f8782880161549b565b925092505092959194509250565b6000806000606084860312156157b257600080fd5b60006157c086828701615447565b93505060206157d1868287016154e5565b92505060406157e2868287016154e5565b9150509250925092565b60008060008060006080868803121561580457600080fd5b600061581288828901615447565b9550506020615823888289016154e5565b9450506040615834888289016154e5565b935050606086013567ffffffffffffffff81111561585157600080fd5b61585d8882890161549b565b92509250509295509295909350565b60006020828403121561587e57600080fd5b600061588c8482850161545c565b91505092915050565b6000602082840312156158a757600080fd5b60006158b584828501615471565b91505092915050565b6000602082840312156158d057600080fd5b60006158de848285016154e5565b91505092915050565b6000602082840312156158f957600080fd5b6000615907848285016154fa565b91505092915050565b60008060006040848603121561592557600080fd5b6000615933868287016154e5565b935050602084013567ffffffffffffffff81111561595057600080fd5b61595c8682870161549b565b92509250509250925092565b6000806040838503121561597b57600080fd5b6000615989858286016154e5565b925050602061599a858286016154e5565b9150509250929050565b6159ad81616181565b82525050565b6159bc81616193565b82525050565b6159d36159ce8261619f565b616308565b82525050565b6159ea6159e5826161cb565b616312565b82525050565b60006159fb8261614f565b615a058185616165565b9350615a158185602086016162d5565b80840191505092915050565b615a2a81616245565b82525050565b615a3981616269565b82525050565b615a488161628d565b82525050565b615a578161629f565b82525050565b615a66816162b1565b82525050565b615a75816162c3565b82525050565b6000615a868261615a565b615a908185616170565b9350615aa08185602086016162d5565b615aa98161631c565b840191505092915050565b6000615ac1601b83616170565b91507f536166654d6174683a206164646974696f6e206f766572666c6f7700000000006000830152602082019050919050565b6000615b01601883616170565b91507f4d61726b65743a20416c7265616479206d6967726174656400000000000000006000830152602082019050919050565b6000615b41601283616170565b91507f4d61726b65743a204e6f20636f75706f6e7300000000000000000000000000006000830152602082019050919050565b6000615b81601683616170565b91507f4d61726b65743a20416d6f756e7420746f6f206c6f77000000000000000000006000830152602082019050919050565b6000615bc1602b83616170565b91507f4d61726b65743a20436f75706f6e207472616e7366657220746f20746865207a60008301527f65726f20616464726573730000000000000000000000000000000000000000006020830152604082019050919050565b6000615c27602183616170565b91507f536166654d6174683a206d756c7469706c69636174696f6e206f766572666c6f60008301527f77000000000000000000000000000000000000000000000000000000000000006020830152604082019050919050565b6000615c8d602a83616170565b91507f4d61726b65743a20436f75706f6e20617070726f766520746f20746865207a6560008301527f726f2061646472657373000000000000000000000000000000000000000000006020830152604082019050919050565b6000615cf3602d83616170565b91507f4d61726b65743a20436f75706f6e207472616e736665722066726f6d2074686560008301527f207a65726f2061646472657373000000000000000000000000000000000000006020830152604082019050919050565b6000615d59601b83616170565b91507f4d61726b65743a20546f6f206561726c7920746f2072656465656d00000000006000830152602082019050919050565b615d958161622e565b82525050565b615da481616238565b82525050565b6000615db682846159d9565b60208201915081905092915050565b6000615dd182866159f0565b9150615ddd82856159c2565b600282019150615ded82846159f0565b9150819050949350505050565b6000602082019050615e0f60008301846159a4565b92915050565b6000606082019050615e2a60008301866159a4565b615e3760208301856159a4565b615e446040830184615d8c565b949350505050565b6000604082019050615e6160008301856159a4565b615e6e6020830184615d8c565b9392505050565b6000602082019050615e8a60008301846159b3565b92915050565b6000602082019050615ea56000830184615a21565b92915050565b6000602082019050615ec06000830184615a30565b92915050565b6000602082019050615edb6000830184615a3f565b92915050565b6000602082019050615ef66000830184615a4e565b92915050565b6000602082019050615f116000830184615a5d565b92915050565b6000604082019050615f2c6000830185615a6c565b615f396020830184615d8c565b9392505050565b60006020820190508181036000830152615f5a8184615a7b565b905092915050565b60006020820190508181036000830152615f7b81615ab4565b9050919050565b60006020820190508181036000830152615f9b81615af4565b9050919050565b60006020820190508181036000830152615fbb81615b34565b9050919050565b60006020820190508181036000830152615fdb81615b74565b9050919050565b60006020820190508181036000830152615ffb81615bb4565b9050919050565b6000602082019050818103600083015261601b81615c1a565b9050919050565b6000602082019050818103600083015261603b81615c80565b9050919050565b6000602082019050818103600083015261605b81615ce6565b9050919050565b6000602082019050818103600083015261607b81615d4c565b9050919050565b60006020820190506160976000830184615d8c565b92915050565b60006040820190506160b26000830185615d8c565b6160bf6020830184615a6c565b9392505050565b60006040820190506160db6000830185615d8c565b6160e86020830184615d8c565b9392505050565b60006080820190506161046000830187615d8c565b6161116020830186615d8c565b61611e6040830185615a6c565b61612b6060830184615d8c565b95945050505050565b60006020820190506161496000830184615d9b565b92915050565b600081519050919050565b600081519050919050565b600081905092915050565b600082825260208201905092915050565b600061618c8261620e565b9050919050565b60008115159050919050565b60007fffff00000000000000000000000000000000000000000000000000000000000082169050919050565b6000819050919050565b60008190506161e38261632d565b919050565b60008190506161f68261633a565b919050565b600081905061620982616347565b919050565b600073ffffffffffffffffffffffffffffffffffffffff82169050919050565b6000819050919050565b600060ff82169050919050565b600061625082616257565b9050919050565b60006162628261620e565b9050919050565b60006162748261627b565b9050919050565b60006162868261620e565b9050919050565b6000616298826161d5565b9050919050565b60006162aa826161e8565b9050919050565b60006162bc826161fb565b9050919050565b60006162ce8261622e565b9050919050565b60005b838110156162f35780820151818401526020810190506162d8565b83811115616302576000848401525b50505050565b6000819050919050565b6000819050919050565b6000601f19601f8301169050919050565b6003811061633757fe5b50565b6002811061634457fe5b50565b6003811061635157fe5b50565b61635d81616181565b811461636857600080fd5b50565b61637481616193565b811461637f57600080fd5b50565b6002811061638f57600080fd5b50565b6003811061639f57600080fd5b50565b6163ab8161622e565b81146163b657600080fd5b5056fe4d61726b65743a20496e73756666696369656e7420636f75706f6e20756e6465726c79696e672062616c616e63654d61726b65743a20496e73756666696369656e7420636f75706f6e2062616c616e63654d61726b65743a20496e73756666696369656e7420636f75706f6e20617070726f76616c436f6d7074726f6c6c65723a206e6f7420656e6f756768206f75747374616e64696e672064656274436f6d7074726f6c6c65723a206e6f7420656e6f7567682072656465656d61626c652062616c616e6365a365627a7a72315820836f0c242a2c9145d470681d06d7d60fe2b6cdb1f71928c6986f35151ff102686c6578706572696d656e74616cf564736f6c6343000511004060806040523480156200001157600080fd5b506040518060400160405280601081526020017f456d7074792053657420446f6c6c6172000000000000000000000000000000008152506040518060400160405280600381526020017f45534400000000000000000000000000000000000000000000000000000000008152506012620000a0620000946200016d60201b60201c565b6200017560201b60201c565b8260019080519060200190620000b89291906200046d565b508160029080519060200190620000d19291906200046d565b5080600360006101000a81548160ff021916908360ff1602179055505050506200016162000104620001d660201b60201c565b6040518060400160405280600181526020017f31000000000000000000000000000000000000000000000000000000000000008152506200014f6200027c60201b6200252b1760201c565b306200028560201b620025341760201c565b6007819055506200061b565b600033905090565b62000190816000620002ef60201b620017ce1790919060201c565b8073ffffffffffffffffffffffffffffffffffffffff167f6ae172837ea30b801fbfcdd4108aa1d5bf8ff775444fd70256b44e6bf3dfc3f660405160405180910390a250565b606060018054600181600116156101000203166002900480601f016020809104026020016040519081016040528092919081815260200182805460018160011615610100020316600290048015620002725780601f10620002465761010080835404028352916020019162000272565b820191906000526020600020905b8154815290600101906020018083116200025457829003601f168201915b5050505050905090565b60006001905090565b6000807f8b73c3c69bb8fe3d512ecc4cf759cc79239f7b179b0ffacaa9a75d522b39400f60001b9050855160208701208551602087012060405183815282602082015281604082015286606082015285608082015260a08120945050505081915050949350505050565b620003018282620003a260201b60201c565b1562000344576040517f08c379a00000000000000000000000000000000000000000000000000000000081526004016200033b90620005c6565b60405180910390fd5b60018260000160008373ffffffffffffffffffffffffffffffffffffffff1673ffffffffffffffffffffffffffffffffffffffff16815260200190815260200160002060006101000a81548160ff0219169083151502179055505050565b60008073ffffffffffffffffffffffffffffffffffffffff168273ffffffffffffffffffffffffffffffffffffffff16141562000416576040517f08c379a00000000000000000000000000000000000000000000000000000000081526004016200040d90620005e8565b60405180910390fd5b8260000160008373ffffffffffffffffffffffffffffffffffffffff1673ffffffffffffffffffffffffffffffffffffffff16815260200190815260200160002060009054906101000a900460ff16905092915050565b828054600181600116156101000203166002900490600052602060002090601f016020900481019282601f10620004b057805160ff1916838001178555620004e1565b82800160010185558215620004e1579182015b82811115620004e0578251825591602001919060010190620004c3565b5b509050620004f09190620004f4565b5090565b6200051991905b8082111562000515576000816000905550600101620004fb565b5090565b90565b60006200052b601f836200060a565b91507f526f6c65733a206163636f756e7420616c72656164792068617320726f6c65006000830152602082019050919050565b60006200056d6022836200060a565b91507f526f6c65733a206163636f756e7420697320746865207a65726f20616464726560008301527f73730000000000000000000000000000000000000000000000000000000000006020830152604082019050919050565b60006020820190508181036000830152620005e1816200051c565b9050919050565b6000602082019050818103600083015262000603816200055e565b9050919050565b600082825260208201905092915050565b61269b806200062b6000396000f3fe608060405234801561001057600080fd5b506004361061012c5760003560e01c806395d89b41116100ad578063aa271e1a11610071578063aa271e1a14610357578063d505accf14610387578063dab400f3146103a3578063dd62ed3e146103c1578063e879c19f146103f15761012c565b806395d89b41146102b3578063983b2d56146102d157806398650275146102ed578063a457c2d7146102f7578063a9059cbb146103275761012c565b806339509351116100f457806339509351146101eb57806340c10f191461021b57806342966c681461024b57806370a082311461026757806379cc6790146102975761012c565b806306fdde0314610131578063095ea7b31461014f57806318160ddd1461017f57806323b872dd1461019d578063313ce567146101cd575b600080fd5b61013961040f565b6040516101469190612202565b60405180910390f35b61016960048036036101649190810190611b9e565b6104b1565b6040516101769190612126565b60405180910390f35b6101876104cf565b6040516101949190612384565b60405180910390f35b6101b760048036036101b29190810190611ab1565b6104d9565b6040516101c49190612126565b60405180910390f35b6101d5610577565b6040516101e2919061239f565b60405180910390f35b61020560048036036102009190810190611b9e565b61058e565b6040516102129190612126565b60405180910390f35b61023560048036036102309190810190611b9e565b610641565b6040516102429190612126565b60405180910390f35b61026560048036036102609190810190611bda565b6106a6565b005b610281600480360361027c9190810190611a4c565b6106ba565b60405161028e9190612384565b60405180910390f35b6102b160048036036102ac9190810190611b9e565b610703565b005b6102bb610711565b6040516102c89190612202565b60405180910390f35b6102eb60048036036102e69190810190611a4c565b6107b3565b005b6102f561080e565b005b610311600480360361030c9190810190611b9e565b610820565b60405161031e9190612126565b60405180910390f35b610341600480360361033c9190810190611b9e565b6108ed565b60405161034e9190612126565b60405180910390f35b610371600480360361036c9190810190611a4c565b61090b565b60405161037e9190612126565b60405180910390f35b6103a1600480360361039c9190810190611b00565b610928565b005b6103ab610b83565b6040516103b89190612141565b60405180910390f35b6103db60048036036103d69190810190611a75565b610b89565b6040516103e89190612384565b60405180910390f35b6103f9610c10565b6040516104069190612141565b60405180910390f35b606060018054600181600116156101000203166002900480601f0160208091040260200160405190810160405280929190818152602001828054600181600116156101000203166002900480156104a75780601f1061047c576101008083540402835291602001916104a7565b820191906000526020600020905b81548152906001019060200180831161048a57829003601f168201915b5050505050905090565b60006104c56104be610c37565b8484610c3f565b6001905092915050565b6000600654905090565b60006104e6848484610e0a565b7fffffffffffffffffffffffffffffffffffffffffffffffffffffffffffffffff61051885610513610c37565b610b89565b1461056c5761056b84610529610c37565b6105668560405180606001604052806029815260200161260b602991396105578a610552610c37565b610b89565b6110989092919063ffffffff16565b610c3f565b5b600190509392505050565b6000600360009054906101000a900460ff16905090565b600061063761059b610c37565b8461063285600560006105ac610c37565b73ffffffffffffffffffffffffffffffffffffffff1673ffffffffffffffffffffffffffffffffffffffff16815260200190815260200160002060008973ffffffffffffffffffffffffffffffffffffffff1673ffffffffffffffffffffffffffffffffffffffff168152602001908152602001600020546110f390919063ffffffff16565b610c3f565b6001905092915050565b600061065361064e610c37565b61090b565b610692576040517f08c379a0000000000000000000000000000000000000000000000000000000008152600401610689906122a4565b60405180910390fd5b61069c8383611148565b6001905092915050565b6106b76106b1610c37565b826112d2565b50565b6000600460008373ffffffffffffffffffffffffffffffffffffffff1673ffffffffffffffffffffffffffffffffffffffff168152602001908152602001600020549050919050565b61070d8282611476565b5050565b606060028054600181600116156101000203166002900480601f0160208091040260200160405190810160405280929190818152602001828054600181600116156101000203166002900480156107a95780601f1061077e576101008083540402835291602001916107a9565b820191906000526020600020905b81548152906001019060200180831161078c57829003601f168201915b5050505050905090565b6107c36107be610c37565b61090b565b610802576040517f08c379a00000000000000000000000000000000000000000000000000000000081526004016107f9906122a4565b60405180910390fd5b61080b81611545565b50565b61081e610819610c37565b61159f565b565b60006108e361082d610c37565b846108de856040518060600160405280602581526020016126346025913960056000610857610c37565b73ffffffffffffffffffffffffffffffffffffffff1673ffffffffffffffffffffffffffffffffffffffff16815260200190815260200160002060008a73ffffffffffffffffffffffffffffffffffffffff1673ffffffffffffffffffffffffffffffffffffffff168152602001908152602001600020546110989092919063ffffffff16565b610c3f565b6001905092915050565b60006109016108fa610c37565b8484610e0a565b6001905092915050565b60006109218260006115f990919063ffffffff16565b9050919050565b60006109d66007547f6e71edae12b1b97f4d1f60370fef10105fa2faae0126114a169c64845d6126c960001b8a8a8a600860008f73ffffffffffffffffffffffffffffffffffffffff1673ffffffffffffffffffffffffffffffffffffffff1681526020019081526020016000206000815480929190600101919050558b6040516020016109bb9695949392919061215c565b604051602081830303815290604052805190602001206116c1565b90506000600182868686604051600081526020016040526040516109fd94939291906121bd565b6020604051602081039080840390855afa158015610a1f573d6000803e3d6000fd5b505050602060405103519050610aa48973ffffffffffffffffffffffffffffffffffffffff168273ffffffffffffffffffffffffffffffffffffffff16147f5065726d69747461626c650000000000000000000000000000000000000000007f496e76616c6964207369676e6174757265000000000000000000000000000000611705565b610b1f600073ffffffffffffffffffffffffffffffffffffffff168273ffffffffffffffffffffffffffffffffffffffff1614157f5065726d69747461626c650000000000000000000000000000000000000000007f5a65726f20616464726573730000000000000000000000000000000000000000611705565b610b6d864211157f5065726d69747461626c650000000000000000000000000000000000000000007f4578706972656400000000000000000000000000000000000000000000000000611705565b610b78898989610c3f565b505050505050505050565b60075481565b6000600560008473ffffffffffffffffffffffffffffffffffffffff1673ffffffffffffffffffffffffffffffffffffffff16815260200190815260200160002060008373ffffffffffffffffffffffffffffffffffffffff1673ffffffffffffffffffffffffffffffffffffffff16815260200190815260200160002054905092915050565b7f6e71edae12b1b97f4d1f60370fef10105fa2faae0126114a169c64845d6126c960001b81565b600033905090565b600073ffffffffffffffffffffffffffffffffffffffff168373ffffffffffffffffffffffffffffffffffffffff161415610caf576040517f08c379a0000000000000000000000000000000000000000000000000000000008152600401610ca690612344565b60405180910390fd5b600073ffffffffffffffffffffffffffffffffffffffff168273ffffffffffffffffffffffffffffffffffffffff161415610d1f576040517f08c379a0000000000000000000000000000000000000000000000000000000008152600401610d1690612264565b60405180910390fd5b80600560008573ffffffffffffffffffffffffffffffffffffffff1673ffffffffffffffffffffffffffffffffffffffff16815260200190815260200160002060008473ffffffffffffffffffffffffffffffffffffffff1673ffffffffffffffffffffffffffffffffffffffff168152602001908152602001600020819055508173ffffffffffffffffffffffffffffffffffffffff168373ffffffffffffffffffffffffffffffffffffffff167f8c5be1e5ebec7d5bd14f71427d1e84f3dd0314c0f7b2291e5b200ac8c7c3b92583604051610dfd9190612384565b60405180910390a3505050565b600073ffffffffffffffffffffffffffffffffffffffff168373ffffffffffffffffffffffffffffffffffffffff161415610e7a576040517f08c379a0000000000000000000000000000000000000000000000000000000008152600401610e7190612324565b60405180910390fd5b600073ffffffffffffffffffffffffffffffffffffffff168273ffffffffffffffffffffffffffffffffffffffff161415610eea576040517f08c379a0000000000000000000000000000000000000000000000000000000008152600401610ee190612224565b60405180910390fd5b610f56816040518060600160405280602681526020016125c160269139600460008773ffffffffffffffffffffffffffffffffffffffff1673ffffffffffffffffffffffffffffffffffffffff168152602001908152602001600020546110989092919063ffffffff16565b600460008573ffffffffffffffffffffffffffffffffffffffff1673ffffffffffffffffffffffffffffffffffffffff16815260200190815260200160002081905550610feb81600460008573ffffffffffffffffffffffffffffffffffffffff1673ffffffffffffffffffffffffffffffffffffffff168152602001908152602001600020546110f390919063ffffffff16565b600460008473ffffffffffffffffffffffffffffffffffffffff1673ffffffffffffffffffffffffffffffffffffffff168152602001908152602001600020819055508173ffffffffffffffffffffffffffffffffffffffff168373ffffffffffffffffffffffffffffffffffffffff167fddf252ad1be2c89b69c2b068fc378daa952ba7f163c4a11628f55a4df523b3ef8360405161108b9190612384565b60405180910390a3505050565b60008383111582906110e0576040517f08c379a00000000000000000000000000000000000000000000000000000000081526004016110d79190612202565b60405180910390fd5b5060008385039050809150509392505050565b60008082840190508381101561113e576040517f08c379a000000000000000000000000000000000000000000000000000000000815260040161113590612284565b60405180910390fd5b8091505092915050565b600073ffffffffffffffffffffffffffffffffffffffff168273ffffffffffffffffffffffffffffffffffffffff1614156111b8576040517f08c379a00000000000000000000000000000000000000000000000000000000081526004016111af90612364565b60405180910390fd5b6111cd816006546110f390919063ffffffff16565b60068190555061122581600460008573ffffffffffffffffffffffffffffffffffffffff1673ffffffffffffffffffffffffffffffffffffffff168152602001908152602001600020546110f390919063ffffffff16565b600460008473ffffffffffffffffffffffffffffffffffffffff1673ffffffffffffffffffffffffffffffffffffffff168152602001908152602001600020819055508173ffffffffffffffffffffffffffffffffffffffff16600073ffffffffffffffffffffffffffffffffffffffff167fddf252ad1be2c89b69c2b068fc378daa952ba7f163c4a11628f55a4df523b3ef836040516112c69190612384565b60405180910390a35050565b600073ffffffffffffffffffffffffffffffffffffffff168273ffffffffffffffffffffffffffffffffffffffff161415611342576040517f08c379a000000000000000000000000000000000000000000000000000000000815260040161133990612304565b60405180910390fd5b6113ae8160405180606001604052806022815260200161259f60229139600460008673ffffffffffffffffffffffffffffffffffffffff1673ffffffffffffffffffffffffffffffffffffffff168152602001908152602001600020546110989092919063ffffffff16565b600460008473ffffffffffffffffffffffffffffffffffffffff1673ffffffffffffffffffffffffffffffffffffffff168152602001908152602001600020819055506114068160065461178490919063ffffffff16565b600681905550600073ffffffffffffffffffffffffffffffffffffffff168273ffffffffffffffffffffffffffffffffffffffff167fddf252ad1be2c89b69c2b068fc378daa952ba7f163c4a11628f55a4df523b3ef8360405161146a9190612384565b60405180910390a35050565b61148082826112d2565b6115418261148c610c37565b61153c846040518060600160405280602481526020016125e760249139600560008973ffffffffffffffffffffffffffffffffffffffff1673ffffffffffffffffffffffffffffffffffffffff16815260200190815260200160002060006114f2610c37565b73ffffffffffffffffffffffffffffffffffffffff1673ffffffffffffffffffffffffffffffffffffffff168152602001908152602001600020546110989092919063ffffffff16565b610c3f565b5050565b6115598160006117ce90919063ffffffff16565b8073ffffffffffffffffffffffffffffffffffffffff167f6ae172837ea30b801fbfcdd4108aa1d5bf8ff775444fd70256b44e6bf3dfc3f660405160405180910390a250565b6115b381600061187690919063ffffffff16565b8073ffffffffffffffffffffffffffffffffffffffff167fe94479a9f7e1952cc78f2d6baab678adc1b772d936c6583def489e524cb6669260405160405180910390a250565b60008073ffffffffffffffffffffffffffffffffffffffff168273ffffffffffffffffffffffffffffffffffffffff16141561166a576040517f08c379a0000000000000000000000000000000000000000000000000000000008152600401611661906122e4565b60405180910390fd5b8260000160008373ffffffffffffffffffffffffffffffffffffffff1673ffffffffffffffffffffffffffffffffffffffff16815260200190815260200160002060009054906101000a900460ff16905092915050565b60006040517f190100000000000000000000000000000000000000000000000000000000000081528360028201528260228201526042812091505080905092915050565b8261177f576117138261191d565b613a2060f01b6117228361191d565b604051602001611734939291906120f1565b6040516020818303038152906040526040517f08c379a00000000000000000000000000000000000000000000000000000000081526004016117769190612202565b60405180910390fd5b505050565b60006117c683836040518060400160405280601e81526020017f536166654d6174683a207375627472616374696f6e206f766572666c6f770000815250611098565b905092915050565b6117d882826115f9565b15611818576040517f08c379a000000000000000000000000000000000000000000000000000000000815260040161180f90612244565b60405180910390fd5b60018260000160008373ffffffffffffffffffffffffffffffffffffffff1673ffffffffffffffffffffffffffffffffffffffff16815260200190815260200160002060006101000a81548160ff0219169083151502179055505050565b61188082826115f9565b6118bf576040517f08c379a00000000000000000000000000000000000000000000000000000000081526004016118b6906122c4565b60405180910390fd5b60008260000160008373ffffffffffffffffffffffffffffffffffffffff1673ffffffffffffffffffffffffffffffffffffffff16815260200190815260200160002060006101000a81548160ff0219169083151502179055505050565b6060808260405160200161193191906120d6565b60405160208183030381529060405290506000602090505b60008111156119b957808060019003915050600060f81b82828151811061196c57fe5b602001015160f81c60f81b7effffffffffffffffffffffffffffffffffffffffffffffffffffffffffffff1916146119b45760006001820190508083528293505050506119f3565b611949565b5060006040519080825280601f01601f1916602001820160405280156119ee5781602001600182028038833980820191505090505b509150505b919050565b600081359050611a07816124cf565b92915050565b600081359050611a1c816124e6565b92915050565b600081359050611a31816124fd565b92915050565b600081359050611a4681612514565b92915050565b600060208284031215611a5e57600080fd5b6000611a6c848285016119f8565b91505092915050565b60008060408385031215611a8857600080fd5b6000611a96858286016119f8565b9250506020611aa7858286016119f8565b9150509250929050565b600080600060608486031215611ac657600080fd5b6000611ad4868287016119f8565b9350506020611ae5868287016119f8565b9250506040611af686828701611a22565b9150509250925092565b600080600080600080600060e0888a031215611b1b57600080fd5b6000611b298a828b016119f8565b9750506020611b3a8a828b016119f8565b9650506040611b4b8a828b01611a22565b9550506060611b5c8a828b01611a22565b9450506080611b6d8a828b01611a37565b93505060a0611b7e8a828b01611a0d565b92505060c0611b8f8a828b01611a0d565b91505092959891949750929550565b60008060408385031215611bb157600080fd5b6000611bbf858286016119f8565b9250506020611bd085828601611a22565b9150509250929050565b600060208284031215611bec57600080fd5b6000611bfa84828501611a22565b91505092915050565b611c0c816123ec565b82525050565b611c1b816123fe565b82525050565b611c32611c2d8261240a565b6124aa565b82525050565b611c4181612436565b82525050565b611c58611c5382612436565b6124b4565b82525050565b6000611c69826123ba565b611c7381856123d0565b9350611c83818560208601612477565b80840191505092915050565b6000611c9a826123c5565b611ca481856123db565b9350611cb4818560208601612477565b611cbd816124be565b840191505092915050565b6000611cd56023836123db565b91507f45524332303a207472616e7366657220746f20746865207a65726f206164647260008301527f65737300000000000000000000000000000000000000000000000000000000006020830152604082019050919050565b6000611d3b601f836123db565b91507f526f6c65733a206163636f756e7420616c72656164792068617320726f6c65006000830152602082019050919050565b6000611d7b6022836123db565b91507f45524332303a20617070726f766520746f20746865207a65726f20616464726560008301527f73730000000000000000000000000000000000000000000000000000000000006020830152604082019050919050565b6000611de1601b836123db565b91507f536166654d6174683a206164646974696f6e206f766572666c6f7700000000006000830152602082019050919050565b6000611e216030836123db565b91507f4d696e746572526f6c653a2063616c6c657220646f6573206e6f74206861766560008301527f20746865204d696e74657220726f6c65000000000000000000000000000000006020830152604082019050919050565b6000611e876021836123db565b91507f526f6c65733a206163636f756e7420646f6573206e6f74206861766520726f6c60008301527f65000000000000000000000000000000000000000000000000000000000000006020830152604082019050919050565b6000611eed6022836123db565b91507f526f6c65733a206163636f756e7420697320746865207a65726f20616464726560008301527f73730000000000000000000000000000000000000000000000000000000000006020830152604082019050919050565b6000611f536021836123db565b91507f45524332303a206275726e2066726f6d20746865207a65726f2061646472657360008301527f73000000000000000000000000000000000000000000000000000000000000006020830152604082019050919050565b6000611fb96025836123db565b91507f45524332303a207472616e736665722066726f6d20746865207a65726f20616460008301527f64726573730000000000000000000000000000000000000000000000000000006020830152604082019050919050565b600061201f6024836123db565b91507f45524332303a20617070726f76652066726f6d20746865207a65726f2061646460008301527f72657373000000000000000000000000000000000000000000000000000000006020830152604082019050919050565b6000612085601f836123db565b91507f45524332303a206d696e7420746f20746865207a65726f2061646472657373006000830152602082019050919050565b6120c181612460565b82525050565b6120d08161246a565b82525050565b60006120e28284611c47565b60208201915081905092915050565b60006120fd8286611c5e565b91506121098285611c21565b6002820191506121198284611c5e565b9150819050949350505050565b600060208201905061213b6000830184611c12565b92915050565b60006020820190506121566000830184611c38565b92915050565b600060c0820190506121716000830189611c38565b61217e6020830188611c03565b61218b6040830187611c03565b61219860608301866120b8565b6121a560808301856120b8565b6121b260a08301846120b8565b979650505050505050565b60006080820190506121d26000830187611c38565b6121df60208301866120c7565b6121ec6040830185611c38565b6121f96060830184611c38565b95945050505050565b6000602082019050818103600083015261221c8184611c8f565b905092915050565b6000602082019050818103600083015261223d81611cc8565b9050919050565b6000602082019050818103600083015261225d81611d2e565b9050919050565b6000602082019050818103600083015261227d81611d6e565b9050919050565b6000602082019050818103600083015261229d81611dd4565b9050919050565b600060208201905081810360008301526122bd81611e14565b9050919050565b600060208201905081810360008301526122dd81611e7a565b9050919050565b600060208201905081810360008301526122fd81611ee0565b9050919050565b6000602082019050818103600083015261231d81611f46565b9050919050565b6000602082019050818103600083015261233d81611fac565b9050919050565b6000602082019050818103600083015261235d81612012565b9050919050565b6000602082019050818103600083015261237d81612078565b9050919050565b600060208201905061239960008301846120b8565b92915050565b60006020820190506123b460008301846120c7565b92915050565b600081519050919050565b600081519050919050565b600081905092915050565b600082825260208201905092915050565b60006123f782612440565b9050919050565b60008115159050919050565b60007fffff00000000000000000000000000000000000000000000000000000000000082169050919050565b6000819050919050565b600073ffffffffffffffffffffffffffffffffffffffff82169050919050565b6000819050919050565b600060ff82169050919050565b60005b8381101561249557808201518184015260208101905061247a565b838111156124a4576000848401525b50505050565b6000819050919050565b6000819050919050565b6000601f19601f8301169050919050565b6124d8816123ec565b81146124e357600080fd5b50565b6124ef81612436565b81146124fa57600080fd5b50565b61250681612460565b811461251157600080fd5b50565b61251d8161246a565b811461252857600080fd5b50565b60006001905090565b6000807f8b73c3c69bb8fe3d512ecc4cf759cc79239f7b179b0ffacaa9a75d522b39400f60001b9050855160208701208551602087012060405183815282602082015281604082015286606082015285608082015260a0812094505050508191505094935050505056fe45524332303a206275726e20616d6f756e7420657863656564732062616c616e636545524332303a207472616e7366657220616d6f756e7420657863656564732062616c616e636545524332303a206275726e20616d6f756e74206578636565647320616c6c6f77616e6365446f6c6c61723a207472616e7366657220616d6f756e74206578636565647320616c6c6f77616e636545524332303a2064656372656173656420616c6c6f77616e63652062656c6f77207a65726fa365627a7a723158206734b8460df4bb349338b8ec670444aa1df0138af460167a16f64a927eb3d6146c6578706572696d656e74616cf564736f6c63430005110040",
  "source": "/*\n    Copyright 2020 Empty Set Squad <emptysetsquad@protonmail.com>\n\n    Licensed under the Apache License, Version 2.0 (the \"License\");\n    you may not use this file except in compliance with the License.\n    You may obtain a copy of the License at\n\n    http://www.apache.org/licenses/LICENSE-2.0\n\n    Unless required by applicable law or agreed to in writing, software\n    distributed under the License is distributed on an \"AS IS\" BASIS,\n    WITHOUT WARRANTIES OR CONDITIONS OF ANY KIND, either express or implied.\n    See the License for the specific language governing permissions and\n    limitations under the License.\n*/\n\npragma solidity ^0.5.17;\npragma experimental ABIEncoderV2;\n\nimport \"../dao/Market.sol\";\nimport \"./MockState.sol\";\nimport \"./MockComptroller.sol\";\n\ncontract MockMarket is MockState, MockComptroller, Market {\n    uint256 private _couponProratedStart;\n\n    constructor(address pool) MockComptroller(pool) public { }\n\n    function stepE() external {\n        Market.step();\n    }\n\n    function set(uint256 newCouponProratedStart) external {\n        _couponProratedStart = newCouponProratedStart;\n    }\n\n    function couponProratedStart() internal view returns (uint256) {\n        return _couponProratedStart;\n    }\n}\n",
  "sourcePath": "/Users/gokulalex/Apps/eth_apps/SemiotNet/contracts/mock/MockMarket.sol",
  "compiler": {
    "name": "solc",
    "version": "0.5.17+commit.d19bba13.Emscripten.clang"
  },
  "schemaVersion": "3.3.3",
  "updatedAt": "2021-02-19T15:49:23.664Z",
  "devdoc": {
    "methods": {}
  },
  "userdoc": {
    "methods": {
      "balanceOfStaged(address)": {
        "notice": "Account"
      },
      "createCandidateE(address,uint256)": {
        "notice": "Governance"
      },
      "dollar()": {
        "notice": "Global"
      },
      "epoch()": {
        "notice": "Epoch"
      },
      "incrementBalanceOfE(address,uint256)": {
        "notice": "Account"
      },
      "incrementTotalBondedE(uint256)": {
        "notice": "Global"
      },
      "name()": {
        "notice": "ERC20 Interface"
      },
      "recordedVote(address,address)": {
        "notice": "Governance"
      },
      "setBlockTimestamp(uint256)": {
        "notice": "Mock"
      },
      "setEpochParamsE(uint256,uint256)": {
        "notice": "Epoch"
      },
      "transfer(address,uint256)": {
        "notice": "ERC20 Interface"
      }
    }
  }
}