{
  "contractName": "MockOracle",
  "abi": [
    {
      "inputs": [
        {
          "internalType": "address",
          "name": "pair",
          "type": "address"
        },
        {
          "internalType": "address",
          "name": "dollar",
          "type": "address"
        },
        {
          "internalType": "address",
          "name": "usdc",
          "type": "address"
        }
      ],
      "payable": false,
      "stateMutability": "nonpayable",
      "type": "constructor"
    },
    {
      "constant": true,
      "inputs": [],
      "name": "pair",
      "outputs": [
        {
          "internalType": "address",
          "name": "",
          "type": "address"
        }
      ],
      "payable": false,
      "stateMutability": "view",
      "type": "function"
    },
    {
      "constant": false,
      "inputs": [],
      "name": "setup",
      "outputs": [],
      "payable": false,
      "stateMutability": "nonpayable",
      "type": "function"
    },
    {
      "constant": false,
      "inputs": [],
      "name": "capture",
      "outputs": [
        {
          "components": [
            {
              "internalType": "uint256",
              "name": "value",
              "type": "uint256"
            }
          ],
          "internalType": "struct Decimal.D256",
          "name": "",
          "type": "tuple"
        },
        {
          "internalType": "bool",
          "name": "",
          "type": "bool"
        }
      ],
      "payable": false,
      "stateMutability": "nonpayable",
      "type": "function"
    },
    {
      "constant": true,
      "inputs": [],
      "name": "latestPrice",
      "outputs": [
        {
          "components": [
            {
              "internalType": "uint256",
              "name": "value",
              "type": "uint256"
            }
          ],
          "internalType": "struct Decimal.D256",
          "name": "",
          "type": "tuple"
        }
      ],
      "payable": false,
      "stateMutability": "view",
      "type": "function"
    },
    {
      "constant": true,
      "inputs": [],
      "name": "latestValid",
      "outputs": [
        {
          "internalType": "bool",
          "name": "",
          "type": "bool"
        }
      ],
      "payable": false,
      "stateMutability": "view",
      "type": "function"
    },
    {
      "constant": true,
      "inputs": [],
      "name": "isInitialized",
      "outputs": [
        {
          "internalType": "bool",
          "name": "",
          "type": "bool"
        }
      ],
      "payable": false,
      "stateMutability": "view",
      "type": "function"
    },
    {
      "constant": true,
      "inputs": [],
      "name": "cumulative",
      "outputs": [
        {
          "internalType": "uint256",
          "name": "",
          "type": "uint256"
        }
      ],
      "payable": false,
      "stateMutability": "view",
      "type": "function"
    },
    {
      "constant": true,
      "inputs": [],
      "name": "timestamp",
      "outputs": [
        {
          "internalType": "uint256",
          "name": "",
          "type": "uint256"
        }
      ],
      "payable": false,
      "stateMutability": "view",
      "type": "function"
    },
    {
      "constant": true,
      "inputs": [],
      "name": "reserve",
      "outputs": [
        {
          "internalType": "uint256",
          "name": "",
          "type": "uint256"
        }
      ],
      "payable": false,
      "stateMutability": "view",
      "type": "function"
    }
  ],
  "bytecode": "0x60806040523480156200001157600080fd5b5060405162001c3038038062001c30833981810160405262000037919081019062000164565b81336000806101000a81548173ffffffffffffffffffffffffffffffffffffffff021916908373ffffffffffffffffffffffffffffffffffffffff16021790555080600160006101000a81548173ffffffffffffffffffffffffffffffffffffffff021916908373ffffffffffffffffffffffffffffffffffffffff1602179055505082600260006101000a81548173ffffffffffffffffffffffffffffffffffffffff021916908373ffffffffffffffffffffffffffffffffffffffff160217905550600060038190555080600860016101000a81548173ffffffffffffffffffffffffffffffffffffffff021916908373ffffffffffffffffffffffffffffffffffffffff16021790555050505062000208565b6000815190506200015e81620001ee565b92915050565b6000806000606084860312156200017a57600080fd5b60006200018a868287016200014d565b93505060206200019d868287016200014d565b9250506040620001b0868287016200014d565b9150509250925092565b6000620001c782620001ce565b9050919050565b600073ffffffffffffffffffffffffffffffffffffffff82169050919050565b620001f981620001ba565b81146200020557600080fd5b50565b611a1880620002186000396000f3fe608060405234801561001057600080fd5b50600436106100935760003560e01c8063b80777ea11610066578063b80777ea14610110578063ba0bba401461012e578063cd3293de14610138578063d4a3e9d714610156578063f8cd50a21461017557610093565b8063392e53cd146100985780637ae176ff146100b6578063a3e6ba94146100d4578063a8aa1b31146100f2575b600080fd5b6100a0610193565b6040516100ad9190611754565b60405180910390f35b6100be6101aa565b6040516100cb9190611815565b60405180910390f35b6100dc6101b4565b6040516100e991906117d1565b60405180910390f35b6100fa6101d8565b6040516101079190611710565b60405180910390f35b610118610202565b6040516101259190611815565b60405180910390f35b610136610222565b005b610140610621565b60405161014d9190611815565b60405180910390f35b61015e61062b565b60405161016c9291906117ec565b60405180910390f35b61017d6106a1565b60405161018a9190611754565b60405180910390f35b6000600160149054906101000a900460ff16905090565b6000600454905090565b6101bc6113b3565b6007604051806020016040529081600082015481525050905090565b6000600260009054906101000a900473ffffffffffffffffffffffffffffffffffffffff16905090565b6000600560009054906101000a900463ffffffff1663ffffffff16905090565b6102bc6000809054906101000a900473ffffffffffffffffffffffffffffffffffffffff1673ffffffffffffffffffffffffffffffffffffffff163373ffffffffffffffffffffffffffffffffffffffff16147f4f7261636c6500000000000000000000000000000000000000000000000000007f4e6f742064616f000000000000000000000000000000000000000000000000006106b8565b735c69bee701ef814a2b6a3edd4b1652cb9cc5aa6f73ffffffffffffffffffffffffffffffffffffffff1663c9c65396600160009054906101000a900473ffffffffffffffffffffffffffffffffffffffff16610317610737565b6040518363ffffffff1660e01b815260040161033492919061172b565b602060405180830381600087803b15801561034e57600080fd5b505af1158015610362573d6000803e3d6000fd5b505050506040513d601f19601f820116820180604052506103869190810190611460565b600260006101000a81548173ffffffffffffffffffffffffffffffffffffffff021916908373ffffffffffffffffffffffffffffffffffffffff160217905550600080600260009054906101000a900473ffffffffffffffffffffffffffffffffffffffff1673ffffffffffffffffffffffffffffffffffffffff16630dfe16816040518163ffffffff1660e01b815260040160206040518083038186803b15801561043157600080fd5b505afa158015610445573d6000803e3d6000fd5b505050506040513d601f19601f820116820180604052506104699190810190611460565b600260009054906101000a900473ffffffffffffffffffffffffffffffffffffffff1673ffffffffffffffffffffffffffffffffffffffff1663d21220a76040518163ffffffff1660e01b815260040160206040518083038186803b1580156104d157600080fd5b505afa1580156104e5573d6000803e3d6000fd5b505050506040513d601f19601f820116820180604052506105099190810190611460565b915091508173ffffffffffffffffffffffffffffffffffffffff16600160009054906101000a900473ffffffffffffffffffffffffffffffffffffffff1673ffffffffffffffffffffffffffffffffffffffff161461056957600161056c565b60005b60ff1660038190555061061d600060035414806105d657508173ffffffffffffffffffffffffffffffffffffffff16600160009054906101000a900473ffffffffffffffffffffffffffffffffffffffff1673ffffffffffffffffffffffffffffffffffffffff16145b7f4f7261636c6500000000000000000000000000000000000000000000000000007f44c3b86c6c6172206e6f7420666f756e640000000000000000000000000000006106b8565b5050565b6000600654905090565b6106336113b3565b600061063d610761565b60076000600860008491906101000a81548160ff0219169083151502179055508391905060008201518160000155505050506007600860009054906101000a900460ff16816040518060200160405290816000820154815250509150915091509091565b6000600860009054906101000a900460ff16905090565b82610732576106c682610846565b613a2060f01b6106d583610846565b6040516020016106e7939291906116db565b6040516020818303038152906040526040517f08c379a0000000000000000000000000000000000000000000000000000000008152600401610729919061176f565b60405180910390fd5b505050565b6000600860019054906101000a900473ffffffffffffffffffffffffffffffffffffffff16905090565b6107696113b3565b60006108056000809054906101000a900473ffffffffffffffffffffffffffffffffffffffff1673ffffffffffffffffffffffffffffffffffffffff163373ffffffffffffffffffffffffffffffffffffffff16147f4f7261636c6500000000000000000000000000000000000000000000000000007f4e6f742064616f000000000000000000000000000000000000000000000000006106b8565b600160149054906101000a900460ff161561082b57610822610921565b91509150610842565b610833610a48565b61083b610cc3565b6000915091505b9091565b6060808260405160200161085a91906116c0565b60405160208183030381529060405290506000602090505b60008111156108e257808060019003915050600060f81b82828151811061089557fe5b602001015160f81c60f81b7effffffffffffffffffffffffffffffffffffffffffffffffffffffffffffff1916146108dd57600060018201905080835282935050505061091c565b610872565b5060006040519080825280601f01601f1916602001820160405280156109175781602001600182028038833980820191505090505b509150505b919050565b6109296113b3565b60006109336113b3565b61093b610ce7565b90506000610947610dd4565b90506000610953610737565b73ffffffffffffffffffffffffffffffffffffffff1663fe575a87600260009054906101000a900473ffffffffffffffffffffffffffffffffffffffff166040518263ffffffff1660e01b81526004016109ad9190611710565b60206040518083038186803b1580156109c557600080fd5b505afa1580156109d9573d6000803e3d6000fd5b505050506040513d601f19601f820116820180604052506109fd9190810190611489565b9050600060019050610a0d610eb5565b831015610a1957600090505b610a21610eb5565b6006541015610a2f57600090505b8115610a3a57600090505b838195509550505050509091565b6000600260009054906101000a900473ffffffffffffffffffffffffffffffffffffffff16905060008060035414610afd578173ffffffffffffffffffffffffffffffffffffffff16635a3d54936040518163ffffffff1660e01b815260040160206040518083038186803b158015610ac057600080fd5b505afa158015610ad4573d6000803e3d6000fd5b505050506040513d601f19601f82011682018060405250610af89190810190611501565b610b7c565b8173ffffffffffffffffffffffffffffffffffffffff16635909c0d56040518163ffffffff1660e01b815260040160206040518083038186803b158015610b4357600080fd5b505afa158015610b57573d6000803e3d6000fd5b505050506040513d601f19601f82011682018060405250610b7b9190810190611501565b5b905060008060008473ffffffffffffffffffffffffffffffffffffffff16630902f1ac6040518163ffffffff1660e01b815260040160606040518083038186803b158015610bc957600080fd5b505afa158015610bdd573d6000803e3d6000fd5b505050506040513d601f19601f82011682018060405250610c0191908101906114b2565b9250925092506000836dffffffffffffffffffffffffffff1614158015610c3957506000826dffffffffffffffffffffffffffff1614155b8015610c4c575060008163ffffffff1614155b15610cbc578360048190555080600560006101000a81548163ffffffff021916908363ffffffff16021790555060018060146101000a81548160ff021916908315150217905550600060035414610ca35782610ca5565b815b6dffffffffffffffffffffffffffff166006819055505b5050505050565b610ccb6113b3565b6040518060200160405280670de0b6b3a7640000815250905090565b610cef6113b3565b6000806000610d1f600260009054906101000a900473ffffffffffffffffffffffffffffffffffffffff16610ec2565b9250925092506000600560009054906101000a900463ffffffff168203905060008060035414610d4f5783610d51565b845b9050610d5b6113b3565b610d878363ffffffff16600454840381610d7157fe5b046e0100000000000000000000000000006110f0565b905083600560006101000a81548163ffffffff021916908363ffffffff16021790555081600481905550610dc964e8d4a510008261112190919063ffffffff16565b965050505050505090565b6000806006549050600080600260009054906101000a900473ffffffffffffffffffffffffffffffffffffffff1673ffffffffffffffffffffffffffffffffffffffff16630902f1ac6040518163ffffffff1660e01b815260040160606040518083038186803b158015610e4757600080fd5b505afa158015610e5b573d6000803e3d6000fd5b505050506040513d601f19601f82011682018060405250610e7f91908101906114b2565b5091509150600060035414610e945781610e96565b805b6dffffffffffffffffffffffffffff1660068190555082935050505090565b60006402540be400905090565b6000806000610ecf611156565b90508373ffffffffffffffffffffffffffffffffffffffff16635909c0d56040518163ffffffff1660e01b815260040160206040518083038186803b158015610f1757600080fd5b505afa158015610f2b573d6000803e3d6000fd5b505050506040513d601f19601f82011682018060405250610f4f9190810190611501565b92508373ffffffffffffffffffffffffffffffffffffffff16635a3d54936040518163ffffffff1660e01b815260040160206040518083038186803b158015610f9757600080fd5b505afa158015610fab573d6000803e3d6000fd5b505050506040513d601f19601f82011682018060405250610fcf9190810190611501565b915060008060008673ffffffffffffffffffffffffffffffffffffffff16630902f1ac6040518163ffffffff1660e01b815260040160606040518083038186803b15801561101c57600080fd5b505afa158015611030573d6000803e3d6000fd5b505050506040513d601f19601f8201168201806040525061105491908101906114b2565b9250925092508363ffffffff168163ffffffff16146110e657600081850390508063ffffffff16611085848661116c565b600001517bffffffffffffffffffffffffffffffffffffffffffffffffffffffff1602870196508063ffffffff166110bd858561116c565b600001517bffffffffffffffffffffffffffffffffffffffffffffffffffffffff160286019550505b5050509193909250565b6110f86113b3565b604051806020016040528061111685670de0b6b3a764000086611268565b815250905092915050565b6111296113b3565b604051806020016040528061114b84866000015161129890919063ffffffff16565b815250905092915050565b6000640100000000428161116657fe5b06905090565b6111746113c6565b6000826dffffffffffffffffffffffffffff16116111c7576040517f08c379a00000000000000000000000000000000000000000000000000000000081526004016111be906117b1565b60405180910390fd5b6040518060200160405280836dffffffffffffffffffffffffffff16607060ff16866dffffffffffffffffffffffffffff167bffffffffffffffffffffffffffffffffffffffffffffffffffffffff16901b7bffffffffffffffffffffffffffffffffffffffffffffffffffffffff168161123e57fe5b047bffffffffffffffffffffffffffffffffffffffffffffffffffffffff16815250905092915050565b600061128f82611281858761129890919063ffffffff16565b61130890919063ffffffff16565b90509392505050565b6000808314156112ab5760009050611302565b60008284029050828482816112bc57fe5b04146112fd576040517f08c379a00000000000000000000000000000000000000000000000000000000081526004016112f490611791565b60405180910390fd5b809150505b92915050565b600061134a83836040518060400160405280601a81526020017f536166654d6174683a206469766973696f6e206279207a65726f000000000000815250611352565b905092915050565b60008083118290611399576040517f08c379a0000000000000000000000000000000000000000000000000000000008152600401611390919061176f565b60405180910390fd5b5060008385816113a557fe5b049050809150509392505050565b6040518060200160405280600081525090565b604051806020016040528060007bffffffffffffffffffffffffffffffffffffffffffffffffffffffff1681525090565b60008151905061140681611962565b92915050565b60008151905061141b81611979565b92915050565b60008151905061143081611990565b92915050565b600081519050611445816119a7565b92915050565b60008151905061145a816119be565b92915050565b60006020828403121561147257600080fd5b6000611480848285016113f7565b91505092915050565b60006020828403121561149b57600080fd5b60006114a98482850161140c565b91505092915050565b6000806000606084860312156114c757600080fd5b60006114d586828701611421565b93505060206114e686828701611421565b92505060406114f78682870161144b565b9150509250925092565b60006020828403121561151357600080fd5b600061152184828501611436565b91505092915050565b61153381611862565b82525050565b61154281611874565b82525050565b61155961155482611880565b61193d565b82525050565b61157061156b826118ac565b611947565b82525050565b600061158182611830565b61158b8185611846565b935061159b81856020860161190a565b80840191505092915050565b60006115b28261183b565b6115bc8185611851565b93506115cc81856020860161190a565b6115d581611951565b840191505092915050565b60006115ed602183611851565b91507f536166654d6174683a206d756c7469706c69636174696f6e206f766572666c6f60008301527f77000000000000000000000000000000000000000000000000000000000000006020830152604082019050919050565b6000611653601783611851565b91507f4669786564506f696e743a204449565f42595f5a45524f0000000000000000006000830152602082019050919050565b60208201600082015161169c60008501826116a2565b50505050565b6116ab816118f0565b82525050565b6116ba816118f0565b82525050565b60006116cc828461155f565b60208201915081905092915050565b60006116e78286611576565b91506116f38285611548565b6002820191506117038284611576565b9150819050949350505050565b6000602082019050611725600083018461152a565b92915050565b6000604082019050611740600083018561152a565b61174d602083018461152a565b9392505050565b60006020820190506117696000830184611539565b92915050565b6000602082019050818103600083015261178981846115a7565b905092915050565b600060208201905081810360008301526117aa816115e0565b9050919050565b600060208201905081810360008301526117ca81611646565b9050919050565b60006020820190506117e66000830184611686565b92915050565b60006040820190506118016000830185611686565b61180e6020830184611539565b9392505050565b600060208201905061182a60008301846116b1565b92915050565b600081519050919050565b600081519050919050565b600081905092915050565b600082825260208201905092915050565b600061186d826118d0565b9050919050565b60008115159050919050565b60007fffff00000000000000000000000000000000000000000000000000000000000082169050919050565b6000819050919050565b60006dffffffffffffffffffffffffffff82169050919050565b600073ffffffffffffffffffffffffffffffffffffffff82169050919050565b6000819050919050565b600063ffffffff82169050919050565b60005b8381101561192857808201518184015260208101905061190d565b83811115611937576000848401525b50505050565b6000819050919050565b6000819050919050565b6000601f19601f8301169050919050565b61196b81611862565b811461197657600080fd5b50565b61198281611874565b811461198d57600080fd5b50565b611999816118b6565b81146119a457600080fd5b50565b6119b0816118f0565b81146119bb57600080fd5b50565b6119c7816118fa565b81146119d257600080fd5b5056fea365627a7a723158201b5e8f1723a6f565414d199d4c60a4e56d2736b3259d87ae0744f101c3a5f5456c6578706572696d656e74616cf564736f6c63430005110040",
  "source": "/*\n    Copyright 2020 Empty Set Squad <emptysetsquad@protonmail.com>\n\n    Licensed under the Apache License, Version 2.0 (the \"License\");\n    you may not use this file except in compliance with the License.\n    You may obtain a copy of the License at\n\n    http://www.apache.org/licenses/LICENSE-2.0\n\n    Unless required by applicable law or agreed to in writing, software\n    distributed under the License is distributed on an \"AS IS\" BASIS,\n    WITHOUT WARRANTIES OR CONDITIONS OF ANY KIND, either express or implied.\n    See the License for the specific language governing permissions and\n    limitations under the License.\n*/\n\npragma solidity ^0.5.17;\npragma experimental ABIEncoderV2;\n\nimport '@uniswap/v2-core/contracts/interfaces/IUniswapV2Pair.sol';\nimport \"../oracle/Oracle.sol\";\nimport \"../external/Decimal.sol\";\n\ncontract MockOracle is Oracle {\n    Decimal.D256 private _latestPrice;\n    bool private _latestValid;\n    address private _usdc;\n\n    constructor (address pair, address dollar, address usdc) Oracle(dollar) public {\n        _pair = IUniswapV2Pair(pair);\n        _index = 0;\n        _usdc = usdc;\n    }\n\n    function usdc() internal view returns (address) {\n        return _usdc;\n    }\n\n    function capture() public returns (Decimal.D256 memory, bool) {\n        (_latestPrice, _latestValid) = super.capture();\n        return (_latestPrice, _latestValid);\n    }\n\n    function latestPrice() external view returns (Decimal.D256 memory) {\n        return _latestPrice;\n    }\n\n    function latestValid() external view returns (bool) {\n        return _latestValid;\n    }\n\n    function isInitialized() external view returns (bool) {\n        return _initialized;\n    }\n\n    function cumulative() external view returns (uint256) {\n        return _cumulative;\n    }\n\n    function timestamp() external view returns (uint256) {\n        return _timestamp;\n    }\n\n    function reserve() external view returns (uint256) {\n        return _reserve;\n    }\n}\n",
  "sourcePath": "/Users/gokulalex/Apps/eth_apps/SemiotNet/contracts/mock/MockOracle.sol",
  "compiler": {
    "name": "solc",
    "version": "0.5.17+commit.d19bba13.Emscripten.clang"
  },
  "schemaVersion": "3.3.3",
  "updatedAt": "2021-02-19T15:49:23.671Z",
  "devdoc": {
    "methods": {}
  },
  "userdoc": {
    "methods": {}
  }
}