{
  "contractName": "Pool",
  "abi": [
    {
      "inputs": [],
      "payable": false,
      "stateMutability": "nonpayable",
      "type": "constructor"
    },
    {
      "anonymous": false,
      "inputs": [
        {
          "indexed": true,
          "internalType": "address",
          "name": "account",
          "type": "address"
        },
        {
          "indexed": false,
          "internalType": "uint256",
          "name": "start",
          "type": "uint256"
        },
        {
          "indexed": false,
          "internalType": "uint256",
          "name": "value",
          "type": "uint256"
        }
      ],
      "name": "Bond",
      "type": "event"
    },
    {
      "anonymous": false,
      "inputs": [
        {
          "indexed": true,
          "internalType": "address",
          "name": "account",
          "type": "address"
        },
        {
          "indexed": false,
          "internalType": "uint256",
          "name": "value",
          "type": "uint256"
        }
      ],
      "name": "Claim",
      "type": "event"
    },
    {
      "anonymous": false,
      "inputs": [
        {
          "indexed": true,
          "internalType": "address",
          "name": "account",
          "type": "address"
        },
        {
          "indexed": false,
          "internalType": "uint256",
          "name": "value",
          "type": "uint256"
        }
      ],
      "name": "Deposit",
      "type": "event"
    },
    {
      "anonymous": false,
      "inputs": [
        {
          "indexed": true,
          "internalType": "address",
          "name": "account",
          "type": "address"
        },
        {
          "indexed": false,
          "internalType": "uint256",
          "name": "value",
          "type": "uint256"
        },
        {
          "indexed": false,
          "internalType": "uint256",
          "name": "lessUsdc",
          "type": "uint256"
        },
        {
          "indexed": false,
          "internalType": "uint256",
          "name": "newUniv2",
          "type": "uint256"
        }
      ],
      "name": "Provide",
      "type": "event"
    },
    {
      "anonymous": false,
      "inputs": [
        {
          "indexed": true,
          "internalType": "address",
          "name": "account",
          "type": "address"
        },
        {
          "indexed": false,
          "internalType": "uint256",
          "name": "start",
          "type": "uint256"
        },
        {
          "indexed": false,
          "internalType": "uint256",
          "name": "value",
          "type": "uint256"
        },
        {
          "indexed": false,
          "internalType": "uint256",
          "name": "newClaimable",
          "type": "uint256"
        }
      ],
      "name": "Unbond",
      "type": "event"
    },
    {
      "anonymous": false,
      "inputs": [
        {
          "indexed": true,
          "internalType": "address",
          "name": "account",
          "type": "address"
        },
        {
          "indexed": false,
          "internalType": "uint256",
          "name": "value",
          "type": "uint256"
        }
      ],
      "name": "Withdraw",
      "type": "event"
    },
    {
      "constant": true,
      "inputs": [
        {
          "internalType": "address",
          "name": "account",
          "type": "address"
        }
      ],
      "name": "balanceOfBonded",
      "outputs": [
        {
          "internalType": "uint256",
          "name": "",
          "type": "uint256"
        }
      ],
      "payable": false,
      "stateMutability": "view",
      "type": "function"
    },
    {
      "constant": true,
      "inputs": [
        {
          "internalType": "address",
          "name": "account",
          "type": "address"
        }
      ],
      "name": "balanceOfClaimable",
      "outputs": [
        {
          "internalType": "uint256",
          "name": "",
          "type": "uint256"
        }
      ],
      "payable": false,
      "stateMutability": "view",
      "type": "function"
    },
    {
      "constant": true,
      "inputs": [
        {
          "internalType": "address",
          "name": "account",
          "type": "address"
        }
      ],
      "name": "balanceOfPhantom",
      "outputs": [
        {
          "internalType": "uint256",
          "name": "",
          "type": "uint256"
        }
      ],
      "payable": false,
      "stateMutability": "view",
      "type": "function"
    },
    {
      "constant": true,
      "inputs": [
        {
          "internalType": "address",
          "name": "account",
          "type": "address"
        }
      ],
      "name": "balanceOfRewarded",
      "outputs": [
        {
          "internalType": "uint256",
          "name": "",
          "type": "uint256"
        }
      ],
      "payable": false,
      "stateMutability": "view",
      "type": "function"
    },
    {
      "constant": true,
      "inputs": [
        {
          "internalType": "address",
          "name": "account",
          "type": "address"
        }
      ],
      "name": "balanceOfStaged",
      "outputs": [
        {
          "internalType": "uint256",
          "name": "",
          "type": "uint256"
        }
      ],
      "payable": false,
      "stateMutability": "view",
      "type": "function"
    },
    {
      "constant": true,
      "inputs": [],
      "name": "dao",
      "outputs": [
        {
          "internalType": "contract IDAO",
          "name": "",
          "type": "address"
        }
      ],
      "payable": false,
      "stateMutability": "view",
      "type": "function"
    },
    {
      "constant": true,
      "inputs": [],
      "name": "dollar",
      "outputs": [
        {
          "internalType": "contract IDollar",
          "name": "",
          "type": "address"
        }
      ],
      "payable": false,
      "stateMutability": "view",
      "type": "function"
    },
    {
      "constant": true,
      "inputs": [],
      "name": "paused",
      "outputs": [
        {
          "internalType": "bool",
          "name": "",
          "type": "bool"
        }
      ],
      "payable": false,
      "stateMutability": "view",
      "type": "function"
    },
    {
      "constant": true,
      "inputs": [
        {
          "internalType": "address",
          "name": "account",
          "type": "address"
        }
      ],
      "name": "statusOf",
      "outputs": [
        {
          "internalType": "enum PoolAccount.Status",
          "name": "",
          "type": "uint8"
        }
      ],
      "payable": false,
      "stateMutability": "view",
      "type": "function"
    },
    {
      "constant": true,
      "inputs": [],
      "name": "totalBonded",
      "outputs": [
        {
          "internalType": "uint256",
          "name": "",
          "type": "uint256"
        }
      ],
      "payable": false,
      "stateMutability": "view",
      "type": "function"
    },
    {
      "constant": true,
      "inputs": [],
      "name": "totalClaimable",
      "outputs": [
        {
          "internalType": "uint256",
          "name": "",
          "type": "uint256"
        }
      ],
      "payable": false,
      "stateMutability": "view",
      "type": "function"
    },
    {
      "constant": true,
      "inputs": [],
      "name": "totalPhantom",
      "outputs": [
        {
          "internalType": "uint256",
          "name": "",
          "type": "uint256"
        }
      ],
      "payable": false,
      "stateMutability": "view",
      "type": "function"
    },
    {
      "constant": true,
      "inputs": [],
      "name": "totalRewarded",
      "outputs": [
        {
          "internalType": "uint256",
          "name": "",
          "type": "uint256"
        }
      ],
      "payable": false,
      "stateMutability": "view",
      "type": "function"
    },
    {
      "constant": true,
      "inputs": [],
      "name": "totalStaged",
      "outputs": [
        {
          "internalType": "uint256",
          "name": "",
          "type": "uint256"
        }
      ],
      "payable": false,
      "stateMutability": "view",
      "type": "function"
    },
    {
      "constant": true,
      "inputs": [],
      "name": "univ2",
      "outputs": [
        {
          "internalType": "contract IERC20",
          "name": "",
          "type": "address"
        }
      ],
      "payable": false,
      "stateMutability": "view",
      "type": "function"
    },
    {
      "constant": true,
      "inputs": [],
      "name": "usdc",
      "outputs": [
        {
          "internalType": "address",
          "name": "",
          "type": "address"
        }
      ],
      "payable": false,
      "stateMutability": "view",
      "type": "function"
    },
    {
      "constant": false,
      "inputs": [
        {
          "internalType": "uint256",
          "name": "value",
          "type": "uint256"
        }
      ],
      "name": "deposit",
      "outputs": [],
      "payable": false,
      "stateMutability": "nonpayable",
      "type": "function"
    },
    {
      "constant": false,
      "inputs": [
        {
          "internalType": "uint256",
          "name": "value",
          "type": "uint256"
        }
      ],
      "name": "withdraw",
      "outputs": [],
      "payable": false,
      "stateMutability": "nonpayable",
      "type": "function"
    },
    {
      "constant": false,
      "inputs": [
        {
          "internalType": "uint256",
          "name": "value",
          "type": "uint256"
        }
      ],
      "name": "claim",
      "outputs": [],
      "payable": false,
      "stateMutability": "nonpayable",
      "type": "function"
    },
    {
      "constant": false,
      "inputs": [
        {
          "internalType": "uint256",
          "name": "value",
          "type": "uint256"
        }
      ],
      "name": "bond",
      "outputs": [],
      "payable": false,
      "stateMutability": "nonpayable",
      "type": "function"
    },
    {
      "constant": false,
      "inputs": [
        {
          "internalType": "uint256",
          "name": "value",
          "type": "uint256"
        }
      ],
      "name": "unbond",
      "outputs": [],
      "payable": false,
      "stateMutability": "nonpayable",
      "type": "function"
    },
    {
      "constant": false,
      "inputs": [
        {
          "internalType": "uint256",
          "name": "value",
          "type": "uint256"
        }
      ],
      "name": "provide",
      "outputs": [],
      "payable": false,
      "stateMutability": "nonpayable",
      "type": "function"
    },
    {
      "constant": false,
      "inputs": [
        {
          "internalType": "address",
          "name": "token",
          "type": "address"
        },
        {
          "internalType": "uint256",
          "name": "value",
          "type": "uint256"
        }
      ],
      "name": "emergencyWithdraw",
      "outputs": [],
      "payable": false,
      "stateMutability": "nonpayable",
      "type": "function"
    },
    {
      "constant": false,
      "inputs": [],
      "name": "emergencyPause",
      "outputs": [],
      "payable": false,
      "stateMutability": "nonpayable",
      "type": "function"
    }
  ],
  "bytecode": "0x608060405234801561001057600080fd5b5061329d806100206000396000f3fe608060405234801561001057600080fd5b50600436106101585760003560e01c80635c975abb116100c35780639940686e1161007c5780639940686e146103b5578063aed29d07146103d1578063b6b55f25146103ef578063c0d7a94f1461040b578063cf0237791461043b578063e0cf72851461045957610158565b80635c975abb146102cd5780637298d36e146102eb578063825ad6071461030957806386cf9f141461033957806395ccea671461036957806397a5d5b51461038557610158565b80633e413bee116101155780633e413bee1461022d5780634162169f1461024b57806344d96e95146102695780634838ed191461028757806351858e27146102a557806351adeb57146102af57610158565b80631667eb171461015d57806327de9e321461018d57806329f32ed4146101a95780632e1a7d4d146101d95780632e2ebe06146101f5578063379607f514610211575b600080fd5b610177600480360361017291908101906126e9565b610477565b6040516101849190612ea2565b60405180910390f35b6101a760048036036101a291908101906127c6565b6104c5565b005b6101c360048036036101be91908101906126e9565b61065f565b6040516101d09190612ea2565b60405180910390f35b6101f360048036036101ee91908101906127c6565b6106ad565b005b61020f600480360361020a91908101906127c6565b61082c565b005b61022b600480360361022691908101906127c6565b610aeb565b005b610235610c6a565b6040516102429190612c95565b60405180910390f35b610253610c79565b6040516102609190612d54565b60405180910390f35b610271610c88565b60405161027e9190612ea2565b60405180910390f35b61028f610c97565b60405161029c9190612ea2565b60405180910390f35b6102ad610ca6565b005b6102b7610d30565b6040516102c49190612d6f565b60405180910390f35b6102d5610d3f565b6040516102e29190612d39565b60405180910390f35b6102f3610d58565b6040516103009190612d8a565b60405180910390f35b610323600480360361031e91908101906126e9565b610d67565b6040516103309190612ea2565b60405180910390f35b610353600480360361034e91908101906126e9565b610db5565b6040516103609190612ea2565b60405180910390f35b610383600480360361037e9190810190612712565b610e03565b005b61039f600480360361039a91908101906126e9565b610f1c565b6040516103ac9190612da5565b60405180910390f35b6103cf60048036036103ca91908101906127c6565b610f82565b005b6103d9611126565b6040516103e69190612ea2565b60405180910390f35b610409600480360361040491908101906127c6565b6111d6565b005b610425600480360361042091908101906126e9565b611391565b6040516104329190612ea2565b60405180910390f35b610443611448565b6040516104509190612ea2565b60405180910390f35b610461611457565b60405161046e9190612ea2565b60405180910390f35b60008060050160008373ffffffffffffffffffffffffffffffffffffffff1673ffffffffffffffffffffffffffffffffffffffff168152602001908152602001600020600101549050919050565b6104ce33611466565b60006104d933610d67565b9050610529600082117f506f6f6c000000000000000000000000000000000000000000000000000000007f696e73756666696369656e7420626f6e6465642062616c616e636500000000006114d3565b60006105588261054a8561053c33611391565b61155290919063ffffffff16565b6115c290919063ffffffff16565b905060006105898361057b8661056d3361065f565b61155290919063ffffffff16565b6115c290919063ffffffff16565b9050610595338561160c565b61059f33836116d6565b6105c2338560405180606001604052806021815260200161323a602191396117a0565b6105e533826040518060600160405280602281526020016131f76022913961186f565b6105ed61193e565b3373ffffffffffffffffffffffffffffffffffffffff167f93530ac0ee8c50e696e13c5ac62355d0c0ba4bd943620d5bda1eb08b64ae75126106406001610632611a3d565b611ac990919063ffffffff16565b868560405161065193929190612ee6565b60405180910390a250505050565b60008060050160008373ffffffffffffffffffffffffffffffffffffffff1673ffffffffffffffffffffffffffffffffffffffff168152602001908152602001600020600301549050919050565b3361071a600060028111156106be57fe5b6106c783610f1c565b60028111156106d257fe5b147f506f6f6c000000000000000000000000000000000000000000000000000000007f4e6f742066726f7a656e000000000000000000000000000000000000000000006114d3565b610722610d58565b73ffffffffffffffffffffffffffffffffffffffff1663a9059cbb33846040518363ffffffff1660e01b815260040161075c929190612ce7565b602060405180830381600087803b15801561077657600080fd5b505af115801561078a573d6000803e3d6000fd5b505050506040513d601f19601f820116820180604052506107ae919081019061274e565b506107d2338360405180606001604052806021815260200161321960219139611b1e565b6107da61193e565b3373ffffffffffffffffffffffffffffffffffffffff167f884edad9ce6fa2440d8a54cc123490eb96d2768479d49ff9c7366125a9424364836040516108209190612ea2565b60405180910390a25050565b336108996000600281111561083d57fe5b61084683610f1c565b600281111561085157fe5b147f506f6f6c000000000000000000000000000000000000000000000000000000007f4e6f742066726f7a656e000000000000000000000000000000000000000000006114d3565b6108ec6108a4610d3f565b157f506f6f6c000000000000000000000000000000000000000000000000000000007f50617573656400000000000000000000000000000000000000000000000000006114d3565b61094160006108f9610c88565b117f506f6f6c000000000000000000000000000000000000000000000000000000007f696e73756666696369656e7420746f74616c20626f6e646564000000000000006114d3565b610996600061094e611126565b117f506f6f6c000000000000000000000000000000000000000000000000000000007f696e73756666696369656e7420746f74616c20726577617264656400000000006114d3565b6109ec826109a333611391565b10157f506f6f6c000000000000000000000000000000000000000000000000000000007f696e73756666696369656e742072657761726465642062616c616e63650000006114d3565b6000806109f884611bed565b915091506000610a3185610a23610a0d611457565b610a15611126565b611ac990919063ffffffff16565b611ac990919063ffffffff16565b90506000610a61610a40610c88565b610a53858561155290919063ffffffff16565b6115c290919063ffffffff16565b9050610a6d3384611e06565b610a8933610a848389611ac990919063ffffffff16565b611ed0565b610a9161193e565b3373ffffffffffffffffffffffffffffffffffffffff167fbe9d8078818a53534ce225882a00e0c6f709b5296c8a08c3a1f23f9ffd448380878686604051610adb93929190612ee6565b60405180910390a2505050505050565b33610b5860006002811115610afc57fe5b610b0583610f1c565b6002811115610b1057fe5b147f506f6f6c000000000000000000000000000000000000000000000000000000007f4e6f742066726f7a656e000000000000000000000000000000000000000000006114d3565b610b60610d30565b73ffffffffffffffffffffffffffffffffffffffff1663a9059cbb33846040518363ffffffff1660e01b8152600401610b9a929190612ce7565b602060405180830381600087803b158015610bb457600080fd5b505af1158015610bc8573d6000803e3d6000fd5b505050506040513d601f19601f82011682018060405250610bec919081019061274e565b50610c1033836040518060600160405280602481526020016131d360249139611f9a565b610c1861193e565b3373ffffffffffffffffffffffffffffffffffffffff167f47cee97cb7acd717b3c0aa1435d004cd5b3c8c57d70dbceb4e4458bbd60e39d483604051610c5e9190612ea2565b60405180910390a25050565b6000610c74612069565b905090565b6000610c83612085565b905090565b60008060000160020154905090565b60008060000160010154905090565b610d26610cb1610c79565b73ffffffffffffffffffffffffffffffffffffffff163373ffffffffffffffffffffffffffffffffffffffff16147f506f6f6c000000000000000000000000000000000000000000000000000000007f4e6f742064616f000000000000000000000000000000000000000000000000006114d3565b610d2e6120a1565b565b6000610d3a6120c1565b905090565b60008060040160009054906101000a900460ff16905090565b6000610d626120dd565b905090565b60008060050160008373ffffffffffffffffffffffffffffffffffffffff1673ffffffffffffffffffffffffffffffffffffffff168152602001908152602001600020600201549050919050565b60008060050160008373ffffffffffffffffffffffffffffffffffffffff1673ffffffffffffffffffffffffffffffffffffffff168152602001908152602001600020600001549050919050565b610e83610e0e610c79565b73ffffffffffffffffffffffffffffffffffffffff163373ffffffffffffffffffffffffffffffffffffffff16147f506f6f6c000000000000000000000000000000000000000000000000000000007f4e6f742064616f000000000000000000000000000000000000000000000000006114d3565b8173ffffffffffffffffffffffffffffffffffffffff1663a9059cbb610ea7610c79565b836040518363ffffffff1660e01b8152600401610ec5929190612d10565b602060405180830381600087803b158015610edf57600080fd5b505af1158015610ef3573d6000803e3d6000fd5b505050506040513d601f19601f82011682018060405250610f17919081019061274e565b505050565b60008060050160008373ffffffffffffffffffffffffffffffffffffffff1673ffffffffffffffffffffffffffffffffffffffff16815260200190815260200160002060040154610f6b611a3d565b1015610f78576001610f7b565b60005b9050919050565b610fd5610f8d610d3f565b157f506f6f6c000000000000000000000000000000000000000000000000000000007f50617573656400000000000000000000000000000000000000000000000000006114d3565b610fde33611466565b6000611001610feb611457565b610ff3611126565b611ac990919063ffffffff16565b905060008061100e610c88565b146110445761103f61101e610c88565b611031858561155290919063ffffffff16565b6115c290919063ffffffff16565b611076565b600061104e611126565b1461105a576000611075565b611074836110666120f9565b61155290919063ffffffff16565b5b5b90506110823384611e06565b61108c3382611ed0565b6110af338460405180606001604052806021815260200161321960219139611b1e565b6110b761193e565b3373ffffffffffffffffffffffffffffffffffffffff167f3ae9ad26d7d47616d306d7757b947fe7b0f9a7c61a5f0dc784b0ddb6c7c40b5a61110a60016110fc611a3d565b611ac990919063ffffffff16565b85604051611119929190612ebd565b60405180910390a2505050565b60006111d1611133610c97565b61113b610d30565b73ffffffffffffffffffffffffffffffffffffffff166370a08231306040518263ffffffff1660e01b81526004016111739190612c95565b60206040518083038186803b15801561118b57600080fd5b505afa15801561119f573d6000803e3d6000fd5b505050506040513d601f19601f820116820180604052506111c391908101906127ef565b61210490919063ffffffff16565b905090565b33611243600060028111156111e757fe5b6111f083610f1c565b60028111156111fb57fe5b147f506f6f6c000000000000000000000000000000000000000000000000000000007f4e6f742066726f7a656e000000000000000000000000000000000000000000006114d3565b61129661124e610d3f565b157f506f6f6c000000000000000000000000000000000000000000000000000000007f50617573656400000000000000000000000000000000000000000000000000006114d3565b61129e610d58565b73ffffffffffffffffffffffffffffffffffffffff166323b872dd3330856040518463ffffffff1660e01b81526004016112da93929190612cb0565b602060405180830381600087803b1580156112f457600080fd5b505af1158015611308573d6000803e3d6000fd5b505050506040513d601f19601f8201168201806040525061132c919081019061274e565b50611337338361160c565b61133f61193e565b3373ffffffffffffffffffffffffffffffffffffffff167fe1fffcc4923d04b559f4d29a8bfc6cda04eb5b0d3c460751c2402c5c5cc9109c836040516113859190612ea2565b60405180910390a25050565b60008061139c610c88565b905060008114156113b1576000915050611443565b60006113d46113be611457565b6113c6611126565b611ac990919063ffffffff16565b90506000611405836113f76113e888610d67565b8561155290919063ffffffff16565b6115c290919063ffffffff16565b905060006114128661065f565b90508082111561143a5761142f818361210490919063ffffffff16565b945050505050611443565b60009450505050505b919050565b60008060000160000154905090565b60008060000160030154905090565b61148761147161214e565b611479611a3d565b611ac990919063ffffffff16565b600060050160008373ffffffffffffffffffffffffffffffffffffffff1673ffffffffffffffffffffffffffffffffffffffff1681526020019081526020016000206004018190555050565b8261154d576114e182612157565b613a2060f01b6114f083612157565b60405160200161150293929190612c1e565b6040516020818303038152906040526040517f08c379a00000000000000000000000000000000000000000000000000000000081526004016115449190612dc0565b60405180910390fd5b505050565b60008083141561156557600090506115bc565b600082840290508284828161157657fe5b04146115b7576040517f08c379a00000000000000000000000000000000000000000000000000000000081526004016115ae90612e42565b60405180910390fd5b809150505b92915050565b600061160483836040518060400160405280601a81526020017f536166654d6174683a206469766973696f6e206279207a65726f000000000000815250612232565b905092915050565b61166481600060050160008573ffffffffffffffffffffffffffffffffffffffff1673ffffffffffffffffffffffffffffffffffffffff16815260200190815260200160002060000154611ac990919063ffffffff16565b600060050160008473ffffffffffffffffffffffffffffffffffffffff1673ffffffffffffffffffffffffffffffffffffffff168152602001908152602001600020600001819055506116c7816000800160000154611ac990919063ffffffff16565b60008001600001819055505050565b61172e81600060050160008573ffffffffffffffffffffffffffffffffffffffff1673ffffffffffffffffffffffffffffffffffffffff16815260200190815260200160002060010154611ac990919063ffffffff16565b600060050160008473ffffffffffffffffffffffffffffffffffffffff1673ffffffffffffffffffffffffffffffffffffffff16815260200190815260200160002060010181905550611791816000800160010154611ac990919063ffffffff16565b60008001600101819055505050565b6117fa8282600060050160008773ffffffffffffffffffffffffffffffffffffffff1673ffffffffffffffffffffffffffffffffffffffff168152602001908152602001600020600201546122939092919063ffffffff16565b600060050160008573ffffffffffffffffffffffffffffffffffffffff1673ffffffffffffffffffffffffffffffffffffffff1681526020019081526020016000206002018190555061185f828260008001600201546122939092919063ffffffff16565b6000800160020181905550505050565b6118c98282600060050160008773ffffffffffffffffffffffffffffffffffffffff1673ffffffffffffffffffffffffffffffffffffffff168152602001908152602001600020600301546122939092919063ffffffff16565b600060050160008573ffffffffffffffffffffffffffffffffffffffff1673ffffffffffffffffffffffffffffffffffffffff1681526020019081526020016000206003018190555061192e828260008001600301546122939092919063ffffffff16565b6000800160030181905550505050565b611a3b61196261194c610c88565b611954611448565b611ac990919063ffffffff16565b61196a610d58565b73ffffffffffffffffffffffffffffffffffffffff166370a08231306040518263ffffffff1660e01b81526004016119a29190612c95565b60206040518083038186803b1580156119ba57600080fd5b505afa1580156119ce573d6000803e3d6000fd5b505050506040513d601f19601f820116820180604052506119f291908101906127ef565b10157f506f6f6c000000000000000000000000000000000000000000000000000000007f496e636f6e73697374656e7420554e492d56322062616c616e636573000000006114d3565b565b6000611a47610c79565b73ffffffffffffffffffffffffffffffffffffffff1663900cf0cf6040518163ffffffff1660e01b815260040160206040518083038186803b158015611a8c57600080fd5b505afa158015611aa0573d6000803e3d6000fd5b505050506040513d601f19601f82011682018060405250611ac491908101906127ef565b905090565b600080828401905083811015611b14576040517f08c379a0000000000000000000000000000000000000000000000000000000008152600401611b0b90612de2565b60405180910390fd5b8091505092915050565b611b788282600060050160008773ffffffffffffffffffffffffffffffffffffffff1673ffffffffffffffffffffffffffffffffffffffff168152602001908152602001600020600001546122939092919063ffffffff16565b600060050160008573ffffffffffffffffffffffffffffffffffffffff1673ffffffffffffffffffffffffffffffffffffffff16815260200190815260200160002060000181905550611bdd828260008001600001546122939092919063ffffffff16565b6000800160000181905550505050565b600080600080611bfb610d30565b611c03610c6a565b91509150600080611c1484846122ee565b9150915060008083148015611c295750600082145b611c3d57611c38888484612413565b611c3f565b875b90506000611c4b610d58565b90508573ffffffffffffffffffffffffffffffffffffffff1663a9059cbb828b6040518363ffffffff1660e01b8152600401611c88929190612d10565b602060405180830381600087803b158015611ca257600080fd5b505af1158015611cb6573d6000803e3d6000fd5b505050506040513d601f19601f82011682018060405250611cda919081019061274e565b508473ffffffffffffffffffffffffffffffffffffffff166323b872dd3383856040518463ffffffff1660e01b8152600401611d1893929190612cb0565b602060405180830381600087803b158015611d3257600080fd5b505af1158015611d46573d6000803e3d6000fd5b505050506040513d601f19601f82011682018060405250611d6a919081019061274e565b50818173ffffffffffffffffffffffffffffffffffffffff16636a627842306040518263ffffffff1660e01b8152600401611da59190612c95565b602060405180830381600087803b158015611dbf57600080fd5b505af1158015611dd3573d6000803e3d6000fd5b505050506040513d601f19601f82011682018060405250611df791908101906127ef565b97509750505050505050915091565b611e5e81600060050160008573ffffffffffffffffffffffffffffffffffffffff1673ffffffffffffffffffffffffffffffffffffffff16815260200190815260200160002060020154611ac990919063ffffffff16565b600060050160008473ffffffffffffffffffffffffffffffffffffffff1673ffffffffffffffffffffffffffffffffffffffff16815260200190815260200160002060020181905550611ec1816000800160020154611ac990919063ffffffff16565b60008001600201819055505050565b611f2881600060050160008573ffffffffffffffffffffffffffffffffffffffff1673ffffffffffffffffffffffffffffffffffffffff16815260200190815260200160002060030154611ac990919063ffffffff16565b600060050160008473ffffffffffffffffffffffffffffffffffffffff1673ffffffffffffffffffffffffffffffffffffffff16815260200190815260200160002060030181905550611f8b816000800160030154611ac990919063ffffffff16565b60008001600301819055505050565b611ff48282600060050160008773ffffffffffffffffffffffffffffffffffffffff1673ffffffffffffffffffffffffffffffffffffffff168152602001908152602001600020600101546122939092919063ffffffff16565b600060050160008573ffffffffffffffffffffffffffffffffffffffff1673ffffffffffffffffffffffffffffffffffffffff16815260200190815260200160002060010181905550612059828260008001600101546122939092919063ffffffff16565b6000800160010181905550505050565b600073a0b86991c6218b36c1d19d4a2e9eb0ce3606eb48905090565b600073443d2f2755db5942601fa062cc248aaa153313d3905090565b6001600060040160006101000a81548160ff021916908315150217905550565b60007336f3fd68e7325a35eb768f1aedaae9ea0689d723905090565b60007388ff79eb2bc5850f27315415da8685282c7610f9905090565b6000620f4240905090565b600061214683836040518060400160405280601e81526020017f536166654d6174683a207375627472616374696f6e206f766572666c6f770000815250612293565b905092915050565b60006005905090565b6060808260405160200161216b9190612c03565b60405160208183030381529060405290506000602090505b60008111156121f357808060019003915050600060f81b8282815181106121a657fe5b602001015160f81c60f81b7effffffffffffffffffffffffffffffffffffffffffffffffffffffffffffff1916146121ee57600060018201905080835282935050505061222d565b612183565b5060006040519080825280601f01601f1916602001820160405280156122285781602001600182028038833980820191505090505b509150505b919050565b60008083118290612279576040517f08c379a00000000000000000000000000000000000000000000000000000000081526004016122709190612dc0565b60405180910390fd5b50600083858161228557fe5b049050809150509392505050565b60008383111582906122db576040517f08c379a00000000000000000000000000000000000000000000000000000000081526004016122d29190612dc0565b60405180910390fd5b5060008385039050809150509392505050565b60008060006122fd85856124cb565b509050600080612322735c69bee701ef814a2b6a3edd4b1652cb9cc5aa6f88886125f9565b73ffffffffffffffffffffffffffffffffffffffff16630902f1ac6040518163ffffffff1660e01b815260040160606040518083038186803b15801561236757600080fd5b505afa15801561237b573d6000803e3d6000fd5b505050506040513d601f19601f8201168201806040525061239f9190810190612777565b506dffffffffffffffffffffffffffff1691506dffffffffffffffffffffffffffff1691508273ffffffffffffffffffffffffffffffffffffffff168773ffffffffffffffffffffffffffffffffffffffff16146123fe578082612401565b81815b80955081965050505050509250929050565b6000808411612457576040517f08c379a000000000000000000000000000000000000000000000000000000000815260040161244e90612e62565b60405180910390fd5b6000831180156124675750600082115b6124a6576040517f08c379a000000000000000000000000000000000000000000000000000000000815260040161249d90612e22565b60405180910390fd5b826124ba838661155290919063ffffffff16565b816124c157fe5b0490509392505050565b6000808273ffffffffffffffffffffffffffffffffffffffff168473ffffffffffffffffffffffffffffffffffffffff16141561253d576040517f08c379a000000000000000000000000000000000000000000000000000000000815260040161253490612e02565b60405180910390fd5b8273ffffffffffffffffffffffffffffffffffffffff168473ffffffffffffffffffffffffffffffffffffffff161061257757828461257a565b83835b8092508193505050600073ffffffffffffffffffffffffffffffffffffffff168273ffffffffffffffffffffffffffffffffffffffff1614156125f2576040517f08c379a00000000000000000000000000000000000000000000000000000000081526004016125e990612e82565b60405180910390fd5b9250929050565b600080600061260885856124cb565b91509150858282604051602001612620929190612bd7565b60405160208183030381529060405280519060200120604051602001612647929190612c53565b6040516020818303038152906040528051906020012060001c925050509392505050565b60008135905061267a8161315f565b92915050565b60008151905061268f81613176565b92915050565b6000815190506126a48161318d565b92915050565b6000813590506126b9816131a4565b92915050565b6000815190506126ce816131a4565b92915050565b6000815190506126e3816131bb565b92915050565b6000602082840312156126fb57600080fd5b60006127098482850161266b565b91505092915050565b6000806040838503121561272557600080fd5b60006127338582860161266b565b9250506020612744858286016126aa565b9150509250929050565b60006020828403121561276057600080fd5b600061276e84828501612680565b91505092915050565b60008060006060848603121561278c57600080fd5b600061279a86828701612695565b93505060206127ab86828701612695565b92505060406127bc868287016126d4565b9150509250925092565b6000602082840312156127d857600080fd5b60006127e6848285016126aa565b91505092915050565b60006020828403121561280157600080fd5b600061280f848285016126bf565b91505092915050565b61282181613015565b82525050565b61283081612f5a565b82525050565b61284761284282612f5a565b6130fc565b82525050565b61285681612f6c565b82525050565b61286d61286882612f78565b61310e565b82525050565b61288461287f82612fa4565b613118565b82525050565b600061289582612f1d565b61289f8185612f33565b93506128af8185602086016130c9565b80840191505092915050565b6128c481613027565b82525050565b6128d38161304b565b82525050565b6128e28161306f565b82525050565b6128f181613093565b82525050565b600061290282612f28565b61290c8185612f3e565b935061291c8185602086016130c9565b61292581613134565b840191505092915050565b600061293d601b83612f3e565b91507f536166654d6174683a206164646974696f6e206f766572666c6f7700000000006000830152602082019050919050565b600061297d602583612f3e565b91507f556e697377617056324c6962726172793a204944454e544943414c5f4144445260008301527f45535345530000000000000000000000000000000000000000000000000000006020830152604082019050919050565b60006129e3602083612f4f565b91507f96e8ac4277198ff8b6f785478aa9a39f403cb768dd02cbee326c3e7da348845f6000830152602082019050919050565b6000612a23602883612f3e565b91507f556e697377617056324c6962726172793a20494e53554646494349454e545f4c60008301527f49515549444954590000000000000000000000000000000000000000000000006020830152604082019050919050565b6000612a89600183612f4f565b91507fff000000000000000000000000000000000000000000000000000000000000006000830152600182019050919050565b6000612ac9602183612f3e565b91507f536166654d6174683a206d756c7469706c69636174696f6e206f766572666c6f60008301527f77000000000000000000000000000000000000000000000000000000000000006020830152604082019050919050565b6000612b2f602583612f3e565b91507f556e697377617056324c6962726172793a20494e53554646494349454e545f4160008301527f4d4f554e540000000000000000000000000000000000000000000000000000006020830152604082019050919050565b6000612b95601e83612f3e565b91507f556e697377617056324c6962726172793a205a45524f5f4144445245535300006000830152602082019050919050565b612bd181612ffb565b82525050565b6000612be38285612836565b601482019150612bf38284612836565b6014820191508190509392505050565b6000612c0f8284612873565b60208201915081905092915050565b6000612c2a828661288a565b9150612c36828561285c565b600282019150612c46828461288a565b9150819050949350505050565b6000612c5e82612a7c565b9150612c6a8285612836565b601482019150612c7a8284612873565b602082019150612c89826129d6565b91508190509392505050565b6000602082019050612caa6000830184612827565b92915050565b6000606082019050612cc56000830186612818565b612cd26020830185612827565b612cdf6040830184612bc8565b949350505050565b6000604082019050612cfc6000830185612818565b612d096020830184612bc8565b9392505050565b6000604082019050612d256000830185612827565b612d326020830184612bc8565b9392505050565b6000602082019050612d4e600083018461284d565b92915050565b6000602082019050612d6960008301846128bb565b92915050565b6000602082019050612d8460008301846128ca565b92915050565b6000602082019050612d9f60008301846128d9565b92915050565b6000602082019050612dba60008301846128e8565b92915050565b60006020820190508181036000830152612dda81846128f7565b905092915050565b60006020820190508181036000830152612dfb81612930565b9050919050565b60006020820190508181036000830152612e1b81612970565b9050919050565b60006020820190508181036000830152612e3b81612a16565b9050919050565b60006020820190508181036000830152612e5b81612abc565b9050919050565b60006020820190508181036000830152612e7b81612b22565b9050919050565b60006020820190508181036000830152612e9b81612b88565b9050919050565b6000602082019050612eb76000830184612bc8565b92915050565b6000604082019050612ed26000830185612bc8565b612edf6020830184612bc8565b9392505050565b6000606082019050612efb6000830186612bc8565b612f086020830185612bc8565b612f156040830184612bc8565b949350505050565b600081519050919050565b600081519050919050565b600081905092915050565b600082825260208201905092915050565b600081905092915050565b6000612f6582612fdb565b9050919050565b60008115159050919050565b60007fffff00000000000000000000000000000000000000000000000000000000000082169050919050565b6000819050919050565b6000819050612fbc82613152565b919050565b60006dffffffffffffffffffffffffffff82169050919050565b600073ffffffffffffffffffffffffffffffffffffffff82169050919050565b6000819050919050565b600063ffffffff82169050919050565b6000613020826130a5565b9050919050565b600061303282613039565b9050919050565b600061304482612fdb565b9050919050565b60006130568261305d565b9050919050565b600061306882612fdb565b9050919050565b600061307a82613081565b9050919050565b600061308c82612fdb565b9050919050565b600061309e82612fae565b9050919050565b60006130b0826130b7565b9050919050565b60006130c282612fdb565b9050919050565b60005b838110156130e75780820151818401526020810190506130cc565b838111156130f6576000848401525b50505050565b600061310782613122565b9050919050565b6000819050919050565b6000819050919050565b600061312d82613145565b9050919050565b6000601f19601f8301169050919050565b60008160601b9050919050565b6003811061315c57fe5b50565b61316881612f5a565b811461317357600080fd5b50565b61317f81612f6c565b811461318a57600080fd5b50565b61319681612fc1565b81146131a157600080fd5b50565b6131ad81612ffb565b81146131b857600080fd5b50565b6131c481613005565b81146131cf57600080fd5b5056fe506f6f6c3a20696e73756666696369656e7420636c61696d61626c652062616c616e6365506f6f6c3a20696e73756666696369656e74207068616e746f6d2062616c616e6365506f6f6c3a20696e73756666696369656e74207374616765642062616c616e6365506f6f6c3a20696e73756666696369656e7420626f6e6465642062616c616e6365a365627a7a72315820e94e55deaf7781efddc15d0676dc126c6d51f53a8c819cb368c10ade2d71cdd86c6578706572696d656e74616cf564736f6c63430005110040",
  "source": "/*\n    Copyright 2020 Empty Set Squad <emptysetsquad@protonmail.com>\n\n    Licensed under the Apache License, Version 2.0 (the \"License\");\n    you may not use this file except in compliance with the License.\n    You may obtain a copy of the License at\n\n    http://www.apache.org/licenses/LICENSE-2.0\n\n    Unless required by applicable law or agreed to in writing, software\n    distributed under the License is distributed on an \"AS IS\" BASIS,\n    WITHOUT WARRANTIES OR CONDITIONS OF ANY KIND, either express or implied.\n    See the License for the specific language governing permissions and\n    limitations under the License.\n*/\n\npragma solidity ^0.5.17;\npragma experimental ABIEncoderV2;\n\nimport \"@openzeppelin/contracts/math/SafeMath.sol\";\nimport \"@openzeppelin/contracts/token/ERC20/IERC20.sol\";\nimport \"../external/Require.sol\";\nimport \"../Constants.sol\";\nimport \"./PoolSetters.sol\";\nimport \"./Liquidity.sol\";\n\ncontract Pool is PoolSetters, Liquidity {\n    using SafeMath for uint256;\n\n    constructor() public { }\n\n    bytes32 private constant FILE = \"Pool\";\n\n    event Deposit(address indexed account, uint256 value);\n    event Withdraw(address indexed account, uint256 value);\n    event Claim(address indexed account, uint256 value);\n    event Bond(address indexed account, uint256 start, uint256 value);\n    event Unbond(address indexed account, uint256 start, uint256 value, uint256 newClaimable);\n    event Provide(address indexed account, uint256 value, uint256 lessUsdc, uint256 newUniv2);\n\n    function deposit(uint256 value) external onlyFrozen(msg.sender) notPaused {\n        univ2().transferFrom(msg.sender, address(this), value);\n        incrementBalanceOfStaged(msg.sender, value);\n\n        balanceCheck();\n\n        emit Deposit(msg.sender, value);\n    }\n\n    function withdraw(uint256 value) external onlyFrozen(msg.sender) {\n        univ2().transfer(msg.sender, value);\n        decrementBalanceOfStaged(msg.sender, value, \"Pool: insufficient staged balance\");\n\n        balanceCheck();\n\n        emit Withdraw(msg.sender, value);\n    }\n\n    function claim(uint256 value) external onlyFrozen(msg.sender) {\n        dollar().transfer(msg.sender, value);\n        decrementBalanceOfClaimable(msg.sender, value, \"Pool: insufficient claimable balance\");\n\n        balanceCheck();\n\n        emit Claim(msg.sender, value);\n    }\n\n    function bond(uint256 value) external notPaused {\n        unfreeze(msg.sender);\n\n        uint256 totalRewardedWithPhantom = totalRewarded().add(totalPhantom());\n        uint256 newPhantom = totalBonded() == 0 ?\n            totalRewarded() == 0 ? Constants.getInitialStakeMultiple().mul(value) : 0 :\n            totalRewardedWithPhantom.mul(value).div(totalBonded());\n\n        incrementBalanceOfBonded(msg.sender, value);\n        incrementBalanceOfPhantom(msg.sender, newPhantom);\n        decrementBalanceOfStaged(msg.sender, value, \"Pool: insufficient staged balance\");\n\n        balanceCheck();\n\n        emit Bond(msg.sender, epoch().add(1), value);\n    }\n\n    function unbond(uint256 value) external {\n        unfreeze(msg.sender);\n\n        uint256 balanceOfBonded = balanceOfBonded(msg.sender);\n        Require.that(\n            balanceOfBonded > 0,\n            FILE,\n            \"insufficient bonded balance\"\n        );\n\n        uint256 newClaimable = balanceOfRewarded(msg.sender).mul(value).div(balanceOfBonded);\n        uint256 lessPhantom = balanceOfPhantom(msg.sender).mul(value).div(balanceOfBonded);\n\n        incrementBalanceOfStaged(msg.sender, value);\n        incrementBalanceOfClaimable(msg.sender, newClaimable);\n        decrementBalanceOfBonded(msg.sender, value, \"Pool: insufficient bonded balance\");\n        decrementBalanceOfPhantom(msg.sender, lessPhantom, \"Pool: insufficient phantom balance\");\n\n        balanceCheck();\n\n        emit Unbond(msg.sender, epoch().add(1), value, newClaimable);\n    }\n\n    function provide(uint256 value) external onlyFrozen(msg.sender) notPaused {\n        Require.that(\n            totalBonded() > 0,\n            FILE,\n            \"insufficient total bonded\"\n        );\n\n        Require.that(\n            totalRewarded() > 0,\n            FILE,\n            \"insufficient total rewarded\"\n        );\n\n        Require.that(\n            balanceOfRewarded(msg.sender) >= value,\n            FILE,\n            \"insufficient rewarded balance\"\n        );\n\n        (uint256 lessUsdc, uint256 newUniv2) = addLiquidity(value);\n\n        uint256 totalRewardedWithPhantom = totalRewarded().add(totalPhantom()).add(value);\n        uint256 newPhantomFromBonded = totalRewardedWithPhantom.mul(newUniv2).div(totalBonded());\n\n        incrementBalanceOfBonded(msg.sender, newUniv2);\n        incrementBalanceOfPhantom(msg.sender, value.add(newPhantomFromBonded));\n\n\n        balanceCheck();\n\n        emit Provide(msg.sender, value, lessUsdc, newUniv2);\n    }\n\n    function emergencyWithdraw(address token, uint256 value) external onlyDao {\n        IERC20(token).transfer(address(dao()), value);\n    }\n\n    function emergencyPause() external onlyDao {\n        pause();\n    }\n\n    function balanceCheck() private {\n        Require.that(\n            univ2().balanceOf(address(this)) >= totalStaged().add(totalBonded()),\n            FILE,\n            \"Inconsistent UNI-V2 balances\"\n        );\n    }\n\n    modifier onlyFrozen(address account) {\n        Require.that(\n            statusOf(account) == PoolAccount.Status.Frozen,\n            FILE,\n            \"Not frozen\"\n        );\n\n        _;\n    }\n\n    modifier onlyDao() {\n        Require.that(\n            msg.sender == address(dao()),\n            FILE,\n            \"Not dao\"\n        );\n\n        _;\n    }\n\n    modifier notPaused() {\n        Require.that(\n            !paused(),\n            FILE,\n            \"Paused\"\n        );\n\n        _;\n    }\n}\n",
  "sourcePath": "/Users/gokulalex/Apps/eth_apps/SemiotNet/contracts/oracle/Pool.sol",
  "compiler": {
    "name": "solc",
    "version": "0.5.17+commit.d19bba13.Emscripten.clang"
  },
  "schemaVersion": "3.3.3",
  "updatedAt": "2021-02-19T15:49:23.751Z",
  "devdoc": {
    "methods": {}
  },
  "userdoc": {
    "methods": {
      "balanceOfStaged(address)": {
        "notice": "Account"
      },
      "usdc()": {
        "notice": "Global"
      }
    }
  }
}