{
  "contractName": "Setters",
  "abi": [
    {
      "anonymous": false,
      "inputs": [
        {
          "indexed": true,
          "internalType": "address",
          "name": "from",
          "type": "address"
        },
        {
          "indexed": true,
          "internalType": "address",
          "name": "to",
          "type": "address"
        },
        {
          "indexed": false,
          "internalType": "uint256",
          "name": "value",
          "type": "uint256"
        }
      ],
      "name": "Transfer",
      "type": "event"
    },
    {
      "constant": true,
      "inputs": [
        {
          "internalType": "address",
          "name": "owner",
          "type": "address"
        },
        {
          "internalType": "address",
          "name": "spender",
          "type": "address"
        }
      ],
      "name": "allowance",
      "outputs": [
        {
          "internalType": "uint256",
          "name": "",
          "type": "uint256"
        }
      ],
      "payable": false,
      "stateMutability": "view",
      "type": "function"
    },
    {
      "constant": true,
      "inputs": [
        {
          "internalType": "address",
          "name": "owner",
          "type": "address"
        },
        {
          "internalType": "address",
          "name": "spender",
          "type": "address"
        }
      ],
      "name": "allowanceCoupons",
      "outputs": [
        {
          "internalType": "uint256",
          "name": "",
          "type": "uint256"
        }
      ],
      "payable": false,
      "stateMutability": "view",
      "type": "function"
    },
    {
      "constant": true,
      "inputs": [
        {
          "internalType": "address",
          "name": "candidate",
          "type": "address"
        }
      ],
      "name": "approveFor",
      "outputs": [
        {
          "internalType": "uint256",
          "name": "",
          "type": "uint256"
        }
      ],
      "payable": false,
      "stateMutability": "view",
      "type": "function"
    },
    {
      "constant": true,
      "inputs": [
        {
          "internalType": "address",
          "name": "account",
          "type": "address"
        }
      ],
      "name": "balanceOf",
      "outputs": [
        {
          "internalType": "uint256",
          "name": "",
          "type": "uint256"
        }
      ],
      "payable": false,
      "stateMutability": "view",
      "type": "function"
    },
    {
      "constant": true,
      "inputs": [
        {
          "internalType": "address",
          "name": "account",
          "type": "address"
        }
      ],
      "name": "balanceOfBonded",
      "outputs": [
        {
          "internalType": "uint256",
          "name": "",
          "type": "uint256"
        }
      ],
      "payable": false,
      "stateMutability": "view",
      "type": "function"
    },
    {
      "constant": true,
      "inputs": [
        {
          "internalType": "address",
          "name": "account",
          "type": "address"
        },
        {
          "internalType": "uint256",
          "name": "epoch",
          "type": "uint256"
        }
      ],
      "name": "balanceOfCouponUnderlying",
      "outputs": [
        {
          "internalType": "uint256",
          "name": "",
          "type": "uint256"
        }
      ],
      "payable": false,
      "stateMutability": "view",
      "type": "function"
    },
    {
      "constant": true,
      "inputs": [
        {
          "internalType": "address",
          "name": "account",
          "type": "address"
        },
        {
          "internalType": "uint256",
          "name": "epoch",
          "type": "uint256"
        }
      ],
      "name": "balanceOfCoupons",
      "outputs": [
        {
          "internalType": "uint256",
          "name": "",
          "type": "uint256"
        }
      ],
      "payable": false,
      "stateMutability": "view",
      "type": "function"
    },
    {
      "constant": true,
      "inputs": [
        {
          "internalType": "address",
          "name": "account",
          "type": "address"
        }
      ],
      "name": "balanceOfStaged",
      "outputs": [
        {
          "internalType": "uint256",
          "name": "",
          "type": "uint256"
        }
      ],
      "payable": false,
      "stateMutability": "view",
      "type": "function"
    },
    {
      "constant": true,
      "inputs": [
        {
          "internalType": "uint256",
          "name": "epoch",
          "type": "uint256"
        }
      ],
      "name": "bootstrappingAt",
      "outputs": [
        {
          "internalType": "bool",
          "name": "",
          "type": "bool"
        }
      ],
      "payable": false,
      "stateMutability": "view",
      "type": "function"
    },
    {
      "constant": true,
      "inputs": [
        {
          "internalType": "uint256",
          "name": "epoch",
          "type": "uint256"
        }
      ],
      "name": "couponsExpiration",
      "outputs": [
        {
          "internalType": "uint256",
          "name": "",
          "type": "uint256"
        }
      ],
      "payable": false,
      "stateMutability": "view",
      "type": "function"
    },
    {
      "constant": true,
      "inputs": [],
      "name": "decimals",
      "outputs": [
        {
          "internalType": "uint8",
          "name": "",
          "type": "uint8"
        }
      ],
      "payable": false,
      "stateMutability": "view",
      "type": "function"
    },
    {
      "constant": true,
      "inputs": [],
      "name": "dollar",
      "outputs": [
        {
          "internalType": "contract IDollar",
          "name": "",
          "type": "address"
        }
      ],
      "payable": false,
      "stateMutability": "view",
      "type": "function"
    },
    {
      "constant": true,
      "inputs": [],
      "name": "epoch",
      "outputs": [
        {
          "internalType": "uint256",
          "name": "",
          "type": "uint256"
        }
      ],
      "payable": false,
      "stateMutability": "view",
      "type": "function"
    },
    {
      "constant": true,
      "inputs": [],
      "name": "epochTime",
      "outputs": [
        {
          "internalType": "uint256",
          "name": "",
          "type": "uint256"
        }
      ],
      "payable": false,
      "stateMutability": "view",
      "type": "function"
    },
    {
      "constant": true,
      "inputs": [],
      "name": "eraStart",
      "outputs": [
        {
          "internalType": "uint256",
          "name": "",
          "type": "uint256"
        }
      ],
      "payable": false,
      "stateMutability": "view",
      "type": "function"
    },
    {
      "constant": true,
      "inputs": [],
      "name": "eraStatus",
      "outputs": [
        {
          "internalType": "enum Era.Status",
          "name": "",
          "type": "uint8"
        }
      ],
      "payable": false,
      "stateMutability": "view",
      "type": "function"
    },
    {
      "constant": true,
      "inputs": [
        {
          "internalType": "uint256",
          "name": "epoch",
          "type": "uint256"
        }
      ],
      "name": "expiringCoupons",
      "outputs": [
        {
          "internalType": "uint256",
          "name": "",
          "type": "uint256"
        }
      ],
      "payable": false,
      "stateMutability": "view",
      "type": "function"
    },
    {
      "constant": true,
      "inputs": [
        {
          "internalType": "uint256",
          "name": "epoch",
          "type": "uint256"
        },
        {
          "internalType": "uint256",
          "name": "i",
          "type": "uint256"
        }
      ],
      "name": "expiringCouponsAtIndex",
      "outputs": [
        {
          "internalType": "uint256",
          "name": "",
          "type": "uint256"
        }
      ],
      "payable": false,
      "stateMutability": "view",
      "type": "function"
    },
    {
      "constant": true,
      "inputs": [
        {
          "internalType": "address",
          "name": "account",
          "type": "address"
        }
      ],
      "name": "fluidUntil",
      "outputs": [
        {
          "internalType": "uint256",
          "name": "",
          "type": "uint256"
        }
      ],
      "payable": false,
      "stateMutability": "view",
      "type": "function"
    },
    {
      "constant": true,
      "inputs": [],
      "name": "implementation",
      "outputs": [
        {
          "internalType": "address",
          "name": "impl",
          "type": "address"
        }
      ],
      "payable": false,
      "stateMutability": "view",
      "type": "function"
    },
    {
      "constant": true,
      "inputs": [
        {
          "internalType": "address",
          "name": "candidate",
          "type": "address"
        }
      ],
      "name": "isInitialized",
      "outputs": [
        {
          "internalType": "bool",
          "name": "",
          "type": "bool"
        }
      ],
      "payable": false,
      "stateMutability": "view",
      "type": "function"
    },
    {
      "constant": true,
      "inputs": [
        {
          "internalType": "address",
          "name": "candidate",
          "type": "address"
        }
      ],
      "name": "isNominated",
      "outputs": [
        {
          "internalType": "bool",
          "name": "",
          "type": "bool"
        }
      ],
      "payable": false,
      "stateMutability": "view",
      "type": "function"
    },
    {
      "constant": true,
      "inputs": [
        {
          "internalType": "address",
          "name": "account",
          "type": "address"
        }
      ],
      "name": "lockedUntil",
      "outputs": [
        {
          "internalType": "uint256",
          "name": "",
          "type": "uint256"
        }
      ],
      "payable": false,
      "stateMutability": "view",
      "type": "function"
    },
    {
      "constant": true,
      "inputs": [],
      "name": "name",
      "outputs": [
        {
          "internalType": "string",
          "name": "",
          "type": "string"
        }
      ],
      "payable": false,
      "stateMutability": "view",
      "type": "function"
    },
    {
      "constant": true,
      "inputs": [],
      "name": "oracle",
      "outputs": [
        {
          "internalType": "contract IOracle",
          "name": "",
          "type": "address"
        }
      ],
      "payable": false,
      "stateMutability": "view",
      "type": "function"
    },
    {
      "constant": true,
      "inputs": [
        {
          "internalType": "uint256",
          "name": "epoch",
          "type": "uint256"
        }
      ],
      "name": "outstandingCoupons",
      "outputs": [
        {
          "internalType": "uint256",
          "name": "",
          "type": "uint256"
        }
      ],
      "payable": false,
      "stateMutability": "view",
      "type": "function"
    },
    {
      "constant": true,
      "inputs": [
        {
          "internalType": "address",
          "name": "candidate",
          "type": "address"
        }
      ],
      "name": "periodFor",
      "outputs": [
        {
          "internalType": "uint256",
          "name": "",
          "type": "uint256"
        }
      ],
      "payable": false,
      "stateMutability": "view",
      "type": "function"
    },
    {
      "constant": true,
      "inputs": [],
      "name": "pool",
      "outputs": [
        {
          "internalType": "address",
          "name": "",
          "type": "address"
        }
      ],
      "payable": false,
      "stateMutability": "view",
      "type": "function"
    },
    {
      "constant": true,
      "inputs": [
        {
          "internalType": "address",
          "name": "account",
          "type": "address"
        },
        {
          "internalType": "address",
          "name": "candidate",
          "type": "address"
        }
      ],
      "name": "recordedVote",
      "outputs": [
        {
          "internalType": "enum Candidate.Vote",
          "name": "",
          "type": "uint8"
        }
      ],
      "payable": false,
      "stateMutability": "view",
      "type": "function"
    },
    {
      "constant": true,
      "inputs": [
        {
          "internalType": "address",
          "name": "candidate",
          "type": "address"
        }
      ],
      "name": "rejectFor",
      "outputs": [
        {
          "internalType": "uint256",
          "name": "",
          "type": "uint256"
        }
      ],
      "payable": false,
      "stateMutability": "view",
      "type": "function"
    },
    {
      "constant": true,
      "inputs": [
        {
          "internalType": "address",
          "name": "candidate",
          "type": "address"
        }
      ],
      "name": "startFor",
      "outputs": [
        {
          "internalType": "uint256",
          "name": "",
          "type": "uint256"
        }
      ],
      "payable": false,
      "stateMutability": "view",
      "type": "function"
    },
    {
      "constant": true,
      "inputs": [
        {
          "internalType": "address",
          "name": "account",
          "type": "address"
        }
      ],
      "name": "statusOf",
      "outputs": [
        {
          "internalType": "enum Account.Status",
          "name": "",
          "type": "uint8"
        }
      ],
      "payable": false,
      "stateMutability": "view",
      "type": "function"
    },
    {
      "constant": true,
      "inputs": [],
      "name": "symbol",
      "outputs": [
        {
          "internalType": "string",
          "name": "",
          "type": "string"
        }
      ],
      "payable": false,
      "stateMutability": "view",
      "type": "function"
    },
    {
      "constant": true,
      "inputs": [],
      "name": "totalBonded",
      "outputs": [
        {
          "internalType": "uint256",
          "name": "",
          "type": "uint256"
        }
      ],
      "payable": false,
      "stateMutability": "view",
      "type": "function"
    },
    {
      "constant": true,
      "inputs": [
        {
          "internalType": "uint256",
          "name": "epoch",
          "type": "uint256"
        }
      ],
      "name": "totalBondedAt",
      "outputs": [
        {
          "internalType": "uint256",
          "name": "",
          "type": "uint256"
        }
      ],
      "payable": false,
      "stateMutability": "view",
      "type": "function"
    },
    {
      "constant": true,
      "inputs": [],
      "name": "totalCouponUnderlying",
      "outputs": [
        {
          "internalType": "uint256",
          "name": "",
          "type": "uint256"
        }
      ],
      "payable": false,
      "stateMutability": "view",
      "type": "function"
    },
    {
      "constant": true,
      "inputs": [],
      "name": "totalCoupons",
      "outputs": [
        {
          "internalType": "uint256",
          "name": "",
          "type": "uint256"
        }
      ],
      "payable": false,
      "stateMutability": "view",
      "type": "function"
    },
    {
      "constant": true,
      "inputs": [],
      "name": "totalDebt",
      "outputs": [
        {
          "internalType": "uint256",
          "name": "",
          "type": "uint256"
        }
      ],
      "payable": false,
      "stateMutability": "view",
      "type": "function"
    },
    {
      "constant": true,
      "inputs": [],
      "name": "totalNet",
      "outputs": [
        {
          "internalType": "uint256",
          "name": "",
          "type": "uint256"
        }
      ],
      "payable": false,
      "stateMutability": "view",
      "type": "function"
    },
    {
      "constant": true,
      "inputs": [],
      "name": "totalRedeemable",
      "outputs": [
        {
          "internalType": "uint256",
          "name": "",
          "type": "uint256"
        }
      ],
      "payable": false,
      "stateMutability": "view",
      "type": "function"
    },
    {
      "constant": true,
      "inputs": [],
      "name": "totalStaged",
      "outputs": [
        {
          "internalType": "uint256",
          "name": "",
          "type": "uint256"
        }
      ],
      "payable": false,
      "stateMutability": "view",
      "type": "function"
    },
    {
      "constant": true,
      "inputs": [],
      "name": "totalSupply",
      "outputs": [
        {
          "internalType": "uint256",
          "name": "",
          "type": "uint256"
        }
      ],
      "payable": false,
      "stateMutability": "view",
      "type": "function"
    },
    {
      "constant": true,
      "inputs": [
        {
          "internalType": "address",
          "name": "candidate",
          "type": "address"
        }
      ],
      "name": "votesFor",
      "outputs": [
        {
          "internalType": "uint256",
          "name": "",
          "type": "uint256"
        }
      ],
      "payable": false,
      "stateMutability": "view",
      "type": "function"
    },
    {
      "constant": false,
      "inputs": [
        {
          "internalType": "address",
          "name": "recipient",
          "type": "address"
        },
        {
          "internalType": "uint256",
          "name": "amount",
          "type": "uint256"
        }
      ],
      "name": "transfer",
      "outputs": [
        {
          "internalType": "bool",
          "name": "",
          "type": "bool"
        }
      ],
      "payable": false,
      "stateMutability": "nonpayable",
      "type": "function"
    },
    {
      "constant": false,
      "inputs": [
        {
          "internalType": "address",
          "name": "spender",
          "type": "address"
        },
        {
          "internalType": "uint256",
          "name": "amount",
          "type": "uint256"
        }
      ],
      "name": "approve",
      "outputs": [
        {
          "internalType": "bool",
          "name": "",
          "type": "bool"
        }
      ],
      "payable": false,
      "stateMutability": "nonpayable",
      "type": "function"
    },
    {
      "constant": false,
      "inputs": [
        {
          "internalType": "address",
          "name": "sender",
          "type": "address"
        },
        {
          "internalType": "address",
          "name": "recipient",
          "type": "address"
        },
        {
          "internalType": "uint256",
          "name": "amount",
          "type": "uint256"
        }
      ],
      "name": "transferFrom",
      "outputs": [
        {
          "internalType": "bool",
          "name": "",
          "type": "bool"
        }
      ],
      "payable": false,
      "stateMutability": "nonpayable",
      "type": "function"
    }
  ],
  "bytecode": "0x608060405234801561001057600080fd5b50611da6806100206000396000f3fe608060405234801561001057600080fd5b506004361061028a5760003560e01c806375d5024b1161015c578063a6c409f1116100ce578063d60b347f11610087578063d60b347f146108dd578063dd62ed3e1461090d578063edb6b80a1461093d578063f1b7cf491461095b578063fc7b9c181461098b578063ffbe3b73146109a95761028a565b8063a6c409f1146107f3578063a9059cbb14610811578063b739a7b814610841578063bc7513e21461085f578063c9aff70c1461088f578063cf023779146108bf5761028a565b806395d89b411161012057806395d89b41146106f757806397a5d5b5146107155780639a649edc146107455780639bc289f1146107635780639f6e1b2614610793578063a50cd8e7146107c35761028a565b806375d5024b1461062b5780637dc0d1d01461065b578063825ad6071461067957806386cf9f14146106a9578063900cf0cf146106d95761028a565b80633a3e6c811161020057806351adeb57116101b957806351adeb571461052f57806351bf21d81461054d5780635c60da1b1461057d578063646680221461059b5780636a39e328146105cb57806370a08231146105fb5761028a565b80633a3e6c81146104455780633fbba9a6146104755780634303d4f7146104a557806344d96e95146104c35780634c736099146104e15780635053e461146105115761028a565b806316f0115b1161025257806316f0115b1461036d57806318160ddd1461038b5780631edbcf6c146103a957806323b872dd146103c7578063313ce567146103f7578063353a420c146104155761028a565b806306fdde031461028f578063095ea7b3146102ad5780630d78ceb4146102dd57806310e95b6c1461030d57806315e14bf61461033d575b600080fd5b6102976109d9565b6040516102a49190611b0a565b60405180910390f35b6102c760048036036102c2919081019061181d565b610a16565b6040516102d49190611a68565b60405180910390f35b6102f760048036036102f2919081019061181d565b610a21565b6040516103049190611b6c565b60405180910390f35b61032760048036036103229190810190611859565b610a7f565b6040516103349190611b6c565b60405180910390f35b61035760048036036103529190810190611769565b610aa4565b6040516103649190611b6c565b60405180910390f35b610375610af2565b6040516103829190611a4d565b60405180910390f35b610393610b21565b6040516103a09190611b6c565b60405180910390f35b6103b1610b30565b6040516103be9190611b6c565b60405180910390f35b6103e160048036036103dc91908101906117ce565b610b3f565b6040516103ee9190611a68565b60405180910390f35b6103ff610b4b565b60405161040c9190611b87565b60405180910390f35b61042f600480360361042a9190810190611769565b610b54565b60405161043c9190611b6c565b60405180910390f35b61045f600480360361045a9190810190611769565b610ba2565b60405161046c9190611a68565b60405180910390f35b61048f600480360361048a9190810190611792565b610bf3565b60405161049c9190611aef565b60405180910390f35b6104ad610c8c565b6040516104ba9190611b6c565b60405180910390f35b6104cb610c99565b6040516104d89190611b6c565b60405180910390f35b6104fb60048036036104f691908101906118ab565b610ca8565b6040516105089190611b6c565b60405180910390f35b610519610ce3565b6040516105269190611b6c565b60405180910390f35b610537610d3a565b6040516105449190611a83565b60405180910390f35b61056760048036036105629190810190611769565b610d69565b6040516105749190611b6c565b60405180910390f35b610585610db7565b6040516105929190611a4d565b60405180910390f35b6105b560048036036105b09190810190611769565b610de8565b6040516105c29190611b6c565b60405180910390f35b6105e560048036036105e09190810190611859565b610e36565b6040516105f29190611b6c565b60405180910390f35b61061560048036036106109190810190611769565b610e5e565b6040516106229190611b6c565b60405180910390f35b61064560048036036106409190810190611859565b610eac565b6040516106529190611a68565b60405180910390f35b610663610ec0565b6040516106709190611a9e565b60405180910390f35b610693600480360361068e9190810190611769565b610eef565b6040516106a09190611b6c565b60405180910390f35b6106c360048036036106be9190810190611769565b610f4c565b6040516106d09190611b6c565b60405180910390f35b6106e1610f9a565b6040516106ee9190611b6c565b60405180910390f35b6106ff610fa9565b60405161070c9190611b0a565b60405180910390f35b61072f600480360361072a9190810190611769565b610fe6565b60405161073c9190611ab9565b60405180910390f35b61074d6110ab565b60405161075a9190611b6c565b60405180910390f35b61077d60048036036107789190810190611769565b6110ba565b60405161078a9190611b6c565b60405180910390f35b6107ad60048036036107a89190810190611792565b611108565b6040516107ba9190611b6c565b60405180910390f35b6107dd60048036036107d89190810190611769565b611194565b6040516107ea9190611b6c565b60405180910390f35b6107fb6111c0565b6040516108089190611b6c565b60405180910390f35b61082b6004803603610826919081019061181d565b611265565b6040516108389190611a68565b60405180910390f35b610849611270565b6040516108569190611b6c565b60405180910390f35b6108796004803603610874919081019061181d565b611280565b6040516108869190611b6c565b60405180910390f35b6108a960048036036108a49190810190611859565b6112fb565b6040516108b69190611b6c565b60405180910390f35b6108c7611320565b6040516108d49190611b6c565b60405180910390f35b6108f760048036036108f29190810190611769565b61132f565b6040516109049190611a68565b60405180910390f35b61092760048036036109229190810190611792565b61138a565b6040516109349190611b6c565b60405180910390f35b610945611395565b6040516109529190611ad4565b60405180910390f35b61097560048036036109709190810190611769565b6113b2565b6040516109829190611b6c565b60405180910390f35b610993611400565b6040516109a09190611b6c565b60405180910390f35b6109c360048036036109be9190810190611859565b61140f565b6040516109d09190611b6c565b60405180910390f35b60606040518060400160405280601681526020017f456d7074792053657420446f6c6c6172205374616b6500000000000000000000815250905090565b600080905092915050565b6000600f60000160008473ffffffffffffffffffffffffffffffffffffffff1673ffffffffffffffffffffffffffffffffffffffff168152602001908152602001600020600083815260200190815260200160002054905092915050565b600080600d016000838152602001908152602001600020600101600101549050919050565b600080600e0160008373ffffffffffffffffffffffffffffffffffffffff1673ffffffffffffffffffffffffffffffffffffffff168152602001908152602001600020600101549050919050565b60008060090160020160009054906101000a900473ffffffffffffffffffffffffffffffffffffffff16905090565b60008060030160000154905090565b60008060030160030154905090565b60008090509392505050565b60006012905090565b600080600e0160008373ffffffffffffffffffffffffffffffffffffffff1673ffffffffffffffffffffffffffffffffffffffff168152602001908152602001600020600301549050919050565b6000806000600e0160008473ffffffffffffffffffffffffffffffffffffffff1673ffffffffffffffffffffffffffffffffffffffff16815260200190815260200160002060000154119050919050565b600080600e0160008373ffffffffffffffffffffffffffffffffffffffff1673ffffffffffffffffffffffffffffffffffffffff16815260200190815260200160002060040160008473ffffffffffffffffffffffffffffffffffffffff1673ffffffffffffffffffffffffffffffffffffffff16815260200190815260200160002060009054906101000a900460ff16905092915050565b6000600f60010154905090565b60008060030160010154905090565b600080600d0160008481526020019081526020016000206001016002018281548110610cd057fe5b9060005260206000200154905092915050565b6000610ced611709565b610cf5611431565b9050610cff611709565b610d07611460565b90508160200151610d16611490565b10610d2957610d2482611498565b610d33565b610d3281611498565b5b9250505090565b60008060090160000160009054906101000a900473ffffffffffffffffffffffffffffffffffffffff16905090565b600080600c0160008373ffffffffffffffffffffffffffffffffffffffff1673ffffffffffffffffffffffffffffffffffffffff168152602001908152602001600020600401549050919050565b6000807f360894a13ba1a3210667c828492db98dca3e2076cc3735a920a3ca505d382bbc60001b9050805491505090565b600080600e0160008373ffffffffffffffffffffffffffffffffffffffff1673ffffffffffffffffffffffffffffffffffffffff168152602001908152602001600020600201549050919050565b600080600d016000838152602001908152602001600020600101600201805490509050919050565b600080600c0160008373ffffffffffffffffffffffffffffffffffffffff1673ffffffffffffffffffffffffffffffffffffffff168152602001908152602001600020600101549050919050565b6000610eb66114eb565b8211159050919050565b60008060090160010160009054906101000a900473ffffffffffffffffffffffffffffffffffffffff16905090565b600080610efa610b21565b90506000811415610f0f576000915050610f47565b610f4381610f35610f1f86610e5e565b610f27610c99565b6114f490919063ffffffff16565b61156490919063ffffffff16565b9150505b919050565b600080600c0160008373ffffffffffffffffffffffffffffffffffffffff1673ffffffffffffffffffffffffffffffffffffffff168152602001908152602001600020600001549050919050565b60008060000160020154905090565b60606040518060400160405280600481526020017f4553445300000000000000000000000000000000000000000000000000000000815250905090565b6000610ff0610f9a565b6000600c0160008473ffffffffffffffffffffffffffffffffffffffff1673ffffffffffffffffffffffffffffffffffffffff16815260200190815260200160002060050154111561104557600290506110a6565b6000600c0160008373ffffffffffffffffffffffffffffffffffffffff1673ffffffffffffffffffffffffffffffffffffffff16815260200190815260200160002060040154611093610f9a565b10156110a05760016110a3565b60005b90505b919050565b60008060030160050154905090565b600080600c0160008373ffffffffffffffffffffffffffffffffffffffff1673ffffffffffffffffffffffffffffffffffffffff168152602001908152602001600020600501549050919050565b600080600c0160008473ffffffffffffffffffffffffffffffffffffffff1673ffffffffffffffffffffffffffffffffffffffff16815260200190815260200160002060030160008373ffffffffffffffffffffffffffffffffffffffff1673ffffffffffffffffffffffffffffffffffffffff16815260200190815260200160002054905092915050565b60006111b96111a283610b54565b6111ab84610de8565b6115ae90919063ffffffff16565b9050919050565b60006112606111cd611400565b6111d5610d3a565b73ffffffffffffffffffffffffffffffffffffffff166318160ddd6040518163ffffffff1660e01b815260040160206040518083038186803b15801561121a57600080fd5b505afa15801561122e573d6000803e3d6000fd5b505050506040513d601f19601f820116820180604052506112529190810190611882565b61160390919063ffffffff16565b905090565b600080905092915050565b6000601160000160010154905090565b60008061128c836112fb565b141561129b57600090506112f5565b6000600c0160008473ffffffffffffffffffffffffffffffffffffffff1673ffffffffffffffffffffffffffffffffffffffff16815260200190815260200160002060020160008381526020019081526020016000205490505b92915050565b600080600d016000838152602001908152602001600020600101600001549050919050565b60008060030160020154905090565b600080600e0160008373ffffffffffffffffffffffffffffffffffffffff1673ffffffffffffffffffffffffffffffffffffffff16815260200190815260200160002060050160009054906101000a900460ff169050919050565b600080905092915050565b6000601160000160000160009054906101000a900460ff16905090565b600080600e0160008373ffffffffffffffffffffffffffffffffffffffff1673ffffffffffffffffffffffffffffffffffffffff168152602001908152602001600020600001549050919050565b60008060030160040154905090565b600080600d016000838152602001908152602001600020600001549050919050565b611439611709565b6040518060600160405280606a8152602001635f7fa8008152602001617080815250905090565b611468611709565b6040518060600160405280605b8152602001635f6be180815260200162015180815250905090565b600042905090565b60006114e482600001516114d684604001516114c886602001516114ba611490565b61160390919063ffffffff16565b61156490919063ffffffff16565b6115ae90919063ffffffff16565b9050919050565b6000605a905090565b600080831415611507576000905061155e565b600082840290508284828161151857fe5b0414611559576040517f08c379a000000000000000000000000000000000000000000000000000000000815260040161155090611b4c565b60405180910390fd5b809150505b92915050565b60006115a683836040518060400160405280601a81526020017f536166654d6174683a206469766973696f6e206279207a65726f00000000000081525061164d565b905092915050565b6000808284019050838110156115f9576040517f08c379a00000000000000000000000000000000000000000000000000000000081526004016115f090611b2c565b60405180910390fd5b8091505092915050565b600061164583836040518060400160405280601e81526020017f536166654d6174683a207375627472616374696f6e206f766572666c6f7700008152506116ae565b905092915050565b60008083118290611694576040517f08c379a000000000000000000000000000000000000000000000000000000000815260040161168b9190611b0a565b60405180910390fd5b5060008385816116a057fe5b049050809150509392505050565b60008383111582906116f6576040517f08c379a00000000000000000000000000000000000000000000000000000000081526004016116ed9190611b0a565b60405180910390fd5b5060008385039050809150509392505050565b60405180606001604052806000815260200160008152602001600081525090565b60008135905061173981611d35565b92915050565b60008135905061174e81611d4c565b92915050565b60008151905061176381611d4c565b92915050565b60006020828403121561177b57600080fd5b60006117898482850161172a565b91505092915050565b600080604083850312156117a557600080fd5b60006117b38582860161172a565b92505060206117c48582860161172a565b9150509250929050565b6000806000606084860312156117e357600080fd5b60006117f18682870161172a565b93505060206118028682870161172a565b92505060406118138682870161173f565b9150509250925092565b6000806040838503121561183057600080fd5b600061183e8582860161172a565b925050602061184f8582860161173f565b9150509250929050565b60006020828403121561186b57600080fd5b60006118798482850161173f565b91505092915050565b60006020828403121561189457600080fd5b60006118a284828501611754565b91505092915050565b600080604083850312156118be57600080fd5b60006118cc8582860161173f565b92505060206118dd8582860161173f565b9150509250929050565b6118f081611bbe565b82525050565b6118ff81611bd0565b82525050565b61190e81611c4c565b82525050565b61191d81611c70565b82525050565b61192c81611c94565b82525050565b61193b81611ca6565b82525050565b61194a81611cb8565b82525050565b600061195b82611ba2565b6119658185611bad565b9350611975818560208601611cca565b61197e81611cfd565b840191505092915050565b6000611996601b83611bad565b91507f536166654d6174683a206164646974696f6e206f766572666c6f7700000000006000830152602082019050919050565b60006119d6602183611bad565b91507f536166654d6174683a206d756c7469706c69636174696f6e206f766572666c6f60008301527f77000000000000000000000000000000000000000000000000000000000000006020830152604082019050919050565b611a3881611c35565b82525050565b611a4781611c3f565b82525050565b6000602082019050611a6260008301846118e7565b92915050565b6000602082019050611a7d60008301846118f6565b92915050565b6000602082019050611a986000830184611905565b92915050565b6000602082019050611ab36000830184611914565b92915050565b6000602082019050611ace6000830184611923565b92915050565b6000602082019050611ae96000830184611932565b92915050565b6000602082019050611b046000830184611941565b92915050565b60006020820190508181036000830152611b248184611950565b905092915050565b60006020820190508181036000830152611b4581611989565b9050919050565b60006020820190508181036000830152611b65816119c9565b9050919050565b6000602082019050611b816000830184611a2f565b92915050565b6000602082019050611b9c6000830184611a3e565b92915050565b600081519050919050565b600082825260208201905092915050565b6000611bc982611c15565b9050919050565b60008115159050919050565b6000819050611bea82611d0e565b919050565b6000819050611bfd82611d1b565b919050565b6000819050611c1082611d28565b919050565b600073ffffffffffffffffffffffffffffffffffffffff82169050919050565b6000819050919050565b600060ff82169050919050565b6000611c5782611c5e565b9050919050565b6000611c6982611c15565b9050919050565b6000611c7b82611c82565b9050919050565b6000611c8d82611c15565b9050919050565b6000611c9f82611bdc565b9050919050565b6000611cb182611bef565b9050919050565b6000611cc382611c02565b9050919050565b60005b83811015611ce8578082015181840152602081019050611ccd565b83811115611cf7576000848401525b50505050565b6000601f19601f8301169050919050565b60038110611d1857fe5b50565b60028110611d2557fe5b50565b60038110611d3257fe5b50565b611d3e81611bbe565b8114611d4957600080fd5b50565b611d5581611c35565b8114611d6057600080fd5b5056fea365627a7a723158200755fb8b5eaadb52d754de2773600b597b1b82d18468f629ebb608ee6850ae7a6c6578706572696d656e74616cf564736f6c63430005110040",
  "source": "/*\n    Copyright 2020 Empty Set Squad <emptysetsquad@protonmail.com>\n\n    Licensed under the Apache License, Version 2.0 (the \"License\");\n    you may not use this file except in compliance with the License.\n    You may obtain a copy of the License at\n\n    http://www.apache.org/licenses/LICENSE-2.0\n\n    Unless required by applicable law or agreed to in writing, software\n    distributed under the License is distributed on an \"AS IS\" BASIS,\n    WITHOUT WARRANTIES OR CONDITIONS OF ANY KIND, either express or implied.\n    See the License for the specific language governing permissions and\n    limitations under the License.\n*/\n\npragma solidity ^0.5.17;\npragma experimental ABIEncoderV2;\n\nimport \"@openzeppelin/contracts/math/SafeMath.sol\";\nimport \"./State.sol\";\nimport \"./Getters.sol\";\n\ncontract Setters is State, Getters {\n    using SafeMath for uint256;\n\n    event Transfer(address indexed from, address indexed to, uint256 value);\n\n    /**\n     * ERC20 Interface\n     */\n\n    function transfer(address recipient, uint256 amount) external returns (bool) {\n        return false;\n    }\n\n    function approve(address spender, uint256 amount) external returns (bool) {\n        return false;\n    }\n\n    function transferFrom(address sender, address recipient, uint256 amount) external returns (bool) {\n        return false;\n    }\n\n    /**\n     * Global\n     */\n\n    function incrementTotalBonded(uint256 amount) internal {\n        _state.balance.bonded = _state.balance.bonded.add(amount);\n    }\n\n    function decrementTotalBonded(uint256 amount, string memory reason) internal {\n        _state.balance.bonded = _state.balance.bonded.sub(amount, reason);\n    }\n\n    function incrementTotalDebt(uint256 amount) internal {\n        _state.balance.debt = _state.balance.debt.add(amount);\n    }\n\n    function decrementTotalDebt(uint256 amount, string memory reason) internal {\n        _state.balance.debt = _state.balance.debt.sub(amount, reason);\n    }\n\n    function incrementTotalRedeemable(uint256 amount) internal {\n        _state.balance.redeemable = _state.balance.redeemable.add(amount);\n    }\n\n    function decrementTotalRedeemable(uint256 amount, string memory reason) internal {\n        _state.balance.redeemable = _state.balance.redeemable.sub(amount, reason);\n    }\n\n    function updateEra(Era.Status status) internal {\n        _state18.era.status = status;\n        _state18.era.start = epoch();\n    }\n\n    /**\n     * Account\n     */\n\n    function incrementBalanceOf(address account, uint256 amount) internal {\n        _state.accounts[account].balance = _state.accounts[account].balance.add(amount);\n        _state.balance.supply = _state.balance.supply.add(amount);\n\n        emit Transfer(address(0), account, amount);\n    }\n\n    function decrementBalanceOf(address account, uint256 amount, string memory reason) internal {\n        _state.accounts[account].balance = _state.accounts[account].balance.sub(amount, reason);\n        _state.balance.supply = _state.balance.supply.sub(amount, reason);\n\n        emit Transfer(account, address(0), amount);\n    }\n\n    function incrementBalanceOfStaged(address account, uint256 amount) internal {\n        _state.accounts[account].staged = _state.accounts[account].staged.add(amount);\n        _state.balance.staged = _state.balance.staged.add(amount);\n    }\n\n    function decrementBalanceOfStaged(address account, uint256 amount, string memory reason) internal {\n        _state.accounts[account].staged = _state.accounts[account].staged.sub(amount, reason);\n        _state.balance.staged = _state.balance.staged.sub(amount, reason);\n    }\n\n    function incrementBalanceOfCoupons(address account, uint256 epoch, uint256 amount) internal {\n        _state.accounts[account].coupons[epoch] = _state.accounts[account].coupons[epoch].add(amount);\n        _state.epochs[epoch].coupons.outstanding = _state.epochs[epoch].coupons.outstanding.add(amount);\n        _state.balance.coupons = _state.balance.coupons.add(amount);\n    }\n\n    function incrementBalanceOfCouponUnderlying(address account, uint256 epoch, uint256 amount) internal {\n        _state16.couponUnderlyingByAccount[account][epoch] = _state16.couponUnderlyingByAccount[account][epoch].add(amount);\n        _state16.couponUnderlying = _state16.couponUnderlying.add(amount);\n    }\n\n    function decrementBalanceOfCoupons(address account, uint256 epoch, uint256 amount, string memory reason) internal {\n        _state.accounts[account].coupons[epoch] = _state.accounts[account].coupons[epoch].sub(amount, reason);\n        _state.epochs[epoch].coupons.outstanding = _state.epochs[epoch].coupons.outstanding.sub(amount, reason);\n        _state.balance.coupons = _state.balance.coupons.sub(amount, reason);\n    }\n\n    function decrementBalanceOfCouponUnderlying(address account, uint256 epoch, uint256 amount, string memory reason) internal {\n        _state16.couponUnderlyingByAccount[account][epoch] = _state16.couponUnderlyingByAccount[account][epoch].sub(amount, reason);\n        _state16.couponUnderlying = _state16.couponUnderlying.sub(amount, reason);\n    }\n\n    function unfreeze(address account) internal {\n        _state.accounts[account].fluidUntil = epoch().add(Constants.getDAOExitLockupEpochs());\n    }\n\n    function updateAllowanceCoupons(address owner, address spender, uint256 amount) internal {\n        _state.accounts[owner].couponAllowances[spender] = amount;\n    }\n\n    function decrementAllowanceCoupons(address owner, address spender, uint256 amount, string memory reason) internal {\n        _state.accounts[owner].couponAllowances[spender] =\n            _state.accounts[owner].couponAllowances[spender].sub(amount, reason);\n    }\n\n    /**\n     * Epoch\n     */\n\n    function incrementEpoch() internal {\n        _state.epoch.current = _state.epoch.current.add(1);\n    }\n\n    function snapshotTotalBonded() internal {\n        _state.epochs[epoch()].bonded = totalSupply();\n    }\n\n    function initializeCouponsExpiration(uint256 epoch, uint256 expiration) internal {\n        _state.epochs[epoch].coupons.expiration = expiration;\n        _state.epochs[expiration].coupons.expiring.push(epoch);\n    }\n\n    function eliminateOutstandingCoupons(uint256 epoch) internal {\n        uint256 outstandingCouponsForEpoch = outstandingCoupons(epoch);\n        if(outstandingCouponsForEpoch == 0) {\n            return;\n        }\n        _state.balance.coupons = _state.balance.coupons.sub(outstandingCouponsForEpoch);\n        _state.epochs[epoch].coupons.outstanding = 0;\n    }\n\n    /**\n     * Governance\n     */\n\n    function createCandidate(address candidate, uint256 period) internal {\n        _state.candidates[candidate].start = epoch();\n        _state.candidates[candidate].period = period;\n    }\n\n    function recordVote(address account, address candidate, Candidate.Vote vote) internal {\n        _state.candidates[candidate].votes[account] = vote;\n    }\n\n    function incrementApproveFor(address candidate, uint256 amount) internal {\n        _state.candidates[candidate].approve = _state.candidates[candidate].approve.add(amount);\n    }\n\n    function decrementApproveFor(address candidate, uint256 amount, string memory reason) internal {\n        _state.candidates[candidate].approve = _state.candidates[candidate].approve.sub(amount, reason);\n    }\n\n    function incrementRejectFor(address candidate, uint256 amount) internal {\n        _state.candidates[candidate].reject = _state.candidates[candidate].reject.add(amount);\n    }\n\n    function decrementRejectFor(address candidate, uint256 amount, string memory reason) internal {\n        _state.candidates[candidate].reject = _state.candidates[candidate].reject.sub(amount, reason);\n    }\n\n    function placeLock(address account, address candidate) internal {\n        uint256 currentLock = _state.accounts[account].lockedUntil;\n        uint256 newLock = startFor(candidate).add(periodFor(candidate));\n        if (newLock > currentLock) {\n            _state.accounts[account].lockedUntil = newLock;\n        }\n    }\n\n    function initialized(address candidate) internal {\n        _state.candidates[candidate].initialized = true;\n    }\n}\n",
  "sourcePath": "/Users/gokulalex/Apps/eth_apps/SemiotNet/contracts/dao/Setters.sol",
  "compiler": {
    "name": "solc",
    "version": "0.5.17+commit.d19bba13.Emscripten.clang"
  },
  "schemaVersion": "3.3.3",
  "updatedAt": "2021-02-19T15:49:23.563Z",
  "devdoc": {
    "methods": {}
  },
  "userdoc": {
    "methods": {
      "balanceOfStaged(address)": {
        "notice": "Account"
      },
      "dollar()": {
        "notice": "Global"
      },
      "epoch()": {
        "notice": "Epoch"
      },
      "name()": {
        "notice": "ERC20 Interface"
      },
      "recordedVote(address,address)": {
        "notice": "Governance"
      },
      "transfer(address,uint256)": {
        "notice": "ERC20 Interface"
      }
    }
  }
}